{
  "contractName": "BloodDonationBlockchainSystem",
  "abi": [
    {
      "inputs": [
        {
          "internalType": "address",
          "name": "_donorContractAddress",
          "type": "address"
        },
        {
          "internalType": "address",
          "name": "_medicalCenter",
          "type": "address"
        },
        {
          "internalType": "address",
          "name": "_transAddress",
          "type": "address"
        },
        {
          "internalType": "address",
          "name": "collectionPointAddress_",
          "type": "address"
        }
      ],
      "stateMutability": "nonpayable",
      "type": "constructor"
    },
    {
      "inputs": [
        {
          "internalType": "uint256",
          "name": "",
          "type": "uint256"
        }
      ],
      "name": "allDonationTransactions",
      "outputs": [
        {
          "internalType": "uint256",
          "name": "transactionID",
          "type": "uint256"
        },
        {
          "internalType": "address",
          "name": "donor",
          "type": "address"
        },
        {
          "internalType": "address",
          "name": "recipient",
          "type": "address"
        },
        {
          "internalType": "address",
          "name": "medicalStaff",
          "type": "address"
        },
        {
          "internalType": "address",
          "name": "transporter",
          "type": "address"
        },
        {
          "internalType": "string",
          "name": "bloodType",
          "type": "string"
        },
        {
          "internalType": "uint256",
          "name": "donationDate",
          "type": "uint256"
        },
        {
          "internalType": "enum BloodDonationBlockchainSystem.TransactionStatus",
          "name": "status",
          "type": "uint8"
        },
        {
          "internalType": "uint256",
          "name": "donatedVolume",
          "type": "uint256"
        },
        {
          "internalType": "string",
          "name": "bloodTestResult",
          "type": "string"
        }
      ],
      "stateMutability": "view",
      "type": "function",
      "constant": true
    },
    {
      "inputs": [
        {
          "internalType": "string",
          "name": "",
          "type": "string"
        }
      ],
      "name": "bloodSupplies",
      "outputs": [
        {
          "internalType": "string",
          "name": "bloodType",
          "type": "string"
        },
        {
          "internalType": "uint256",
          "name": "volume",
          "type": "uint256"
        },
        {
          "internalType": "enum BloodDonationBlockchainSystem.BloodSupplyStatus",
          "name": "status",
          "type": "uint8"
        }
      ],
      "stateMutability": "view",
      "type": "function",
      "constant": true
    },
    {
      "inputs": [],
      "name": "collectionPoint",
      "outputs": [
        {
          "internalType": "contract CollectionPointContract",
          "name": "",
          "type": "address"
        }
      ],
      "stateMutability": "view",
      "type": "function",
      "constant": true
    },
    {
      "inputs": [
        {
          "internalType": "address",
          "name": "",
          "type": "address"
        },
        {
          "internalType": "uint256",
          "name": "",
          "type": "uint256"
        }
      ],
      "name": "donationTransactions",
      "outputs": [
        {
          "internalType": "uint256",
          "name": "transactionID",
          "type": "uint256"
        },
        {
          "internalType": "address",
          "name": "donor",
          "type": "address"
        },
        {
          "internalType": "address",
          "name": "recipient",
          "type": "address"
        },
        {
          "internalType": "address",
          "name": "medicalStaff",
          "type": "address"
        },
        {
          "internalType": "address",
          "name": "transporter",
          "type": "address"
        },
        {
          "internalType": "string",
          "name": "bloodType",
          "type": "string"
        },
        {
          "internalType": "uint256",
          "name": "donationDate",
          "type": "uint256"
        },
        {
          "internalType": "enum BloodDonationBlockchainSystem.TransactionStatus",
          "name": "status",
          "type": "uint8"
        },
        {
          "internalType": "uint256",
          "name": "donatedVolume",
          "type": "uint256"
        },
        {
          "internalType": "string",
          "name": "bloodTestResult",
          "type": "string"
        }
      ],
      "stateMutability": "view",
      "type": "function",
      "constant": true
    },
    {
      "inputs": [
        {
          "internalType": "uint256",
          "name": "",
          "type": "uint256"
        }
      ],
      "name": "donationTransactionsArr",
      "outputs": [
        {
          "internalType": "uint256",
          "name": "",
          "type": "uint256"
        }
      ],
      "stateMutability": "view",
      "type": "function",
      "constant": true
    },
    {
      "inputs": [],
      "name": "donorContract",
      "outputs": [
        {
          "internalType": "contract DonorContract",
          "name": "",
          "type": "address"
        }
      ],
      "stateMutability": "view",
      "type": "function",
      "constant": true
    },
    {
      "inputs": [],
      "name": "medicalCenter",
      "outputs": [
        {
          "internalType": "contract MedicalCenters",
          "name": "",
          "type": "address"
        }
      ],
      "stateMutability": "view",
      "type": "function",
      "constant": true
    },
    {
      "inputs": [
        {
          "internalType": "address",
          "name": "",
          "type": "address"
        },
        {
          "internalType": "uint256",
          "name": "",
          "type": "uint256"
        }
      ],
      "name": "medicalRecords",
      "outputs": [
        {
          "internalType": "uint256",
          "name": "recordID",
          "type": "uint256"
        },
        {
          "internalType": "uint256",
          "name": "transactionID",
          "type": "uint256"
        },
        {
          "internalType": "address",
          "name": "donor",
          "type": "address"
        },
        {
          "internalType": "address",
          "name": "medicalStaff",
          "type": "address"
        },
        {
          "internalType": "string",
          "name": "bloodType",
          "type": "string"
        },
        {
          "internalType": "uint256",
          "name": "bloodPressure",
          "type": "uint256"
        },
        {
          "internalType": "uint256",
          "name": "hemoglobinLevel",
          "type": "uint256"
        },
        {
          "internalType": "string",
          "name": "bloodTestResults",
          "type": "string"
        }
      ],
      "stateMutability": "view",
      "type": "function",
      "constant": true
    },
    {
      "inputs": [
        {
          "internalType": "uint256",
          "name": "",
          "type": "uint256"
        }
      ],
      "name": "medicalRecordsArr",
      "outputs": [
        {
          "internalType": "uint256",
          "name": "",
          "type": "uint256"
        }
      ],
      "stateMutability": "view",
      "type": "function",
      "constant": true
    },
    {
      "inputs": [],
      "name": "recordCounter",
      "outputs": [
        {
          "internalType": "uint256",
          "name": "",
          "type": "uint256"
        }
      ],
      "stateMutability": "view",
      "type": "function",
      "constant": true
    },
    {
      "inputs": [],
      "name": "transactionCounter",
      "outputs": [
        {
          "internalType": "uint256",
          "name": "",
          "type": "uint256"
        }
      ],
      "stateMutability": "view",
      "type": "function",
      "constant": true
    },
    {
      "inputs": [],
      "name": "transportContract",
      "outputs": [
        {
          "internalType": "contract TransportContract",
          "name": "",
          "type": "address"
        }
      ],
      "stateMutability": "view",
      "type": "function",
      "constant": true
    },
    {
      "inputs": [
        {
          "internalType": "uint256",
          "name": "",
          "type": "uint256"
        }
      ],
      "name": "transportationRecords",
      "outputs": [
        {
          "internalType": "uint256",
          "name": "recordID",
          "type": "uint256"
        },
        {
          "internalType": "address",
          "name": "transporter",
          "type": "address"
        },
        {
          "internalType": "address",
          "name": "donor",
          "type": "address"
        },
        {
          "internalType": "address",
          "name": "recipient",
          "type": "address"
        },
        {
          "internalType": "uint256",
          "name": "pickupDateTime",
          "type": "uint256"
        },
        {
          "internalType": "uint256",
          "name": "deliveryDateTime",
          "type": "uint256"
        },
        {
          "internalType": "enum BloodDonationBlockchainSystem.TransportationStatus",
          "name": "status",
          "type": "uint8"
        }
      ],
      "stateMutability": "view",
      "type": "function",
      "constant": true
    },
    {
      "inputs": [
        {
          "internalType": "address",
          "name": "_SYSPublicAddress",
          "type": "address"
        },
        {
          "internalType": "string",
          "name": "_password",
          "type": "string"
        }
      ],
      "name": "checkSystemOwnerLogin",
      "outputs": [
        {
          "internalType": "bool",
          "name": "",
          "type": "bool"
        }
      ],
      "stateMutability": "view",
      "type": "function",
      "constant": true
    },
    {
      "inputs": [
        {
          "internalType": "address",
          "name": "_MCPublicAddress",
          "type": "address"
        },
        {
          "internalType": "string",
          "name": "_password",
          "type": "string"
        }
      ],
      "name": "systemOwnerLogin",
      "outputs": [],
      "stateMutability": "nonpayable",
      "type": "function"
    },
    {
      "inputs": [
        {
          "internalType": "address",
          "name": "_medicalCenterPublicAddress",
          "type": "address"
        },
        {
          "internalType": "address",
          "name": "_donorPublicAddress",
          "type": "address"
        },
        {
          "internalType": "uint256",
          "name": "_volume",
          "type": "uint256"
        }
      ],
      "name": "donateBloodToMedicalCenter",
      "outputs": [],
      "stateMutability": "nonpayable",
      "type": "function"
    },
    {
      "inputs": [],
      "name": "getDonationTransactionArr",
      "outputs": [
        {
          "internalType": "uint256[]",
          "name": "",
          "type": "uint256[]"
        }
      ],
      "stateMutability": "view",
      "type": "function",
      "constant": true
    },
    {
      "inputs": [
        {
          "internalType": "address",
          "name": "_medicalCenterPublicAddress",
          "type": "address"
        },
        {
          "internalType": "uint256",
          "name": "_transactionID",
          "type": "uint256"
        }
      ],
      "name": "getDonationTransaction",
      "outputs": [
        {
          "internalType": "uint256",
          "name": "transactionID",
          "type": "uint256"
        },
        {
          "internalType": "address",
          "name": "donorPublicAddress",
          "type": "address"
        },
        {
          "internalType": "address",
          "name": "recipientPublicAddress",
          "type": "address"
        },
        {
          "internalType": "address",
          "name": "transporterPublicAddress",
          "type": "address"
        },
        {
          "internalType": "string",
          "name": "bloodType",
          "type": "string"
        },
        {
          "internalType": "uint256",
          "name": "donationDate",
          "type": "uint256"
        },
        {
          "internalType": "enum BloodDonationBlockchainSystem.TransactionStatus",
          "name": "status",
          "type": "uint8"
        },
        {
          "internalType": "uint256",
          "name": "donatedVolume",
          "type": "uint256"
        },
        {
          "internalType": "string",
          "name": "bloodTestResult",
          "type": "string"
        }
      ],
      "stateMutability": "view",
      "type": "function",
      "constant": true
    },
    {
      "inputs": [
        {
          "internalType": "uint256",
          "name": "_transactionID",
          "type": "uint256"
        }
      ],
      "name": "getAllDonationTransaction",
      "outputs": [
        {
          "internalType": "uint256",
          "name": "transactionID",
          "type": "uint256"
        },
        {
          "internalType": "address",
          "name": "donorPublicAddress",
          "type": "address"
        },
        {
          "internalType": "address",
          "name": "recipientPublicAddress",
          "type": "address"
        },
        {
          "internalType": "address",
          "name": "transporterPublicAddress",
          "type": "address"
        },
        {
          "internalType": "string",
          "name": "bloodType",
          "type": "string"
        },
        {
          "internalType": "uint256",
          "name": "donationDate",
          "type": "uint256"
        },
        {
          "internalType": "enum BloodDonationBlockchainSystem.TransactionStatus",
          "name": "status",
          "type": "uint8"
        },
        {
          "internalType": "uint256",
          "name": "donatedVolume",
          "type": "uint256"
        },
        {
          "internalType": "string",
          "name": "bloodTestResult",
          "type": "string"
        }
      ],
      "stateMutability": "view",
      "type": "function",
      "constant": true
    },
    {
      "inputs": [
        {
          "internalType": "uint256",
          "name": "_transactionID",
          "type": "uint256"
        },
        {
          "internalType": "string",
          "name": "_bloodType",
          "type": "string"
        },
        {
          "internalType": "uint256",
          "name": "_bloodPressure",
          "type": "uint256"
        },
        {
          "internalType": "uint256",
          "name": "_hemoglobinLevel",
          "type": "uint256"
        },
        {
          "internalType": "string",
          "name": "_bloodTestResults",
          "type": "string"
        }
      ],
      "name": "completeDonationToMedicalCenter",
      "outputs": [],
      "stateMutability": "nonpayable",
      "type": "function"
    },
    {
      "inputs": [],
      "name": "getMedicalRecordsArr",
      "outputs": [
        {
          "internalType": "uint256[]",
          "name": "",
          "type": "uint256[]"
        }
      ],
      "stateMutability": "view",
      "type": "function",
      "constant": true
    },
    {
      "inputs": [
        {
          "internalType": "address",
          "name": "_medicalCenterAddress",
          "type": "address"
        },
        {
          "internalType": "uint256",
          "name": "_medicalRecordID",
          "type": "uint256"
        }
      ],
      "name": "getMedicalRecord",
      "outputs": [
        {
          "internalType": "uint256",
          "name": "medicalRecordID",
          "type": "uint256"
        },
        {
          "internalType": "uint256",
          "name": "transactionID",
          "type": "uint256"
        },
        {
          "internalType": "address",
          "name": "donorAddress",
          "type": "address"
        },
        {
          "internalType": "string",
          "name": "bloodType",
          "type": "string"
        },
        {
          "internalType": "address",
          "name": "medicalStaff",
          "type": "address"
        },
        {
          "internalType": "uint256",
          "name": "bloodPressure",
          "type": "uint256"
        },
        {
          "internalType": "uint256",
          "name": "hemoglobinLevel",
          "type": "uint256"
        },
        {
          "internalType": "string",
          "name": "bloodTestResult",
          "type": "string"
        }
      ],
      "stateMutability": "view",
      "type": "function",
      "constant": true
    },
    {
      "inputs": [
        {
          "internalType": "address",
          "name": "_medicalCenterPublicAddress",
          "type": "address"
        },
        {
          "internalType": "uint256",
          "name": "_transactionID",
          "type": "uint256"
        },
        {
          "internalType": "address",
          "name": "_recipient",
          "type": "address"
        }
      ],
      "name": "initiateTransportation",
      "outputs": [],
      "stateMutability": "nonpayable",
      "type": "function"
    },
    {
      "inputs": [
        {
          "internalType": "address",
          "name": "_medicalCenterPublicAddress",
          "type": "address"
        },
        {
          "internalType": "uint256",
          "name": "_recordID",
          "type": "uint256"
        },
        {
          "internalType": "uint256",
          "name": "_transactionID",
          "type": "uint256"
        }
      ],
      "name": "completeTransportation",
      "outputs": [],
      "stateMutability": "nonpayable",
      "type": "function"
    }
  ],
  "bytecode": "0x60a06040523480156200001157600080fd5b50604051620056b4380380620056b48339818101604052810190620000379190620003c3565b3373ffffffffffffffffffffffffffffffffffffffff1660808173ffffffffffffffffffffffffffffffffffffffff1681525050604051806060016040528060805173ffffffffffffffffffffffffffffffffffffffff1681526020016040518060400160405280600581526020017f61646d696e000000000000000000000000000000000000000000000000000000815250815260200160001515815250600b60008201518160000160006101000a81548173ffffffffffffffffffffffffffffffffffffffff021916908373ffffffffffffffffffffffffffffffffffffffff1602179055506020820151816001019081620001369190620006af565b5060408201518160020160006101000a81548160ff021916908315150217905550905050600b6001600060805173ffffffffffffffffffffffffffffffffffffffff1673ffffffffffffffffffffffffffffffffffffffff1681526020019081526020016000206000820160009054906101000a900473ffffffffffffffffffffffffffffffffffffffff168160000160006101000a81548173ffffffffffffffffffffffffffffffffffffffff021916908373ffffffffffffffffffffffffffffffffffffffff160217905550600182018160010190816200021a9190620007ae565b506002820160009054906101000a900460ff168160020160006101000a81548160ff02191690831515021790555090505083600e60006101000a81548173ffffffffffffffffffffffffffffffffffffffff021916908373ffffffffffffffffffffffffffffffffffffffff16021790555082600f60006101000a81548173ffffffffffffffffffffffffffffffffffffffff021916908373ffffffffffffffffffffffffffffffffffffffff16021790555081601060006101000a81548173ffffffffffffffffffffffffffffffffffffffff021916908373ffffffffffffffffffffffffffffffffffffffff16021790555080601160006101000a81548173ffffffffffffffffffffffffffffffffffffffff021916908373ffffffffffffffffffffffffffffffffffffffff16021790555050505050620008af565b600080fd5b600073ffffffffffffffffffffffffffffffffffffffff82169050919050565b60006200038b826200035e565b9050919050565b6200039d816200037e565b8114620003a957600080fd5b50565b600081519050620003bd8162000392565b92915050565b60008060008060808587031215620003e057620003df62000359565b5b6000620003f087828801620003ac565b94505060206200040387828801620003ac565b93505060406200041687828801620003ac565b92505060606200042987828801620003ac565b91505092959194509250565b600081519050919050565b7f4e487b7100000000000000000000000000000000000000000000000000000000600052604160045260246000fd5b7f4e487b7100000000000000000000000000000000000000000000000000000000600052602260045260246000fd5b60006002820490506001821680620004b757607f821691505b602082108103620004cd57620004cc6200046f565b5b50919050565b60008190508160005260206000209050919050565b60006020601f8301049050919050565b600082821b905092915050565b600060088302620005377fffffffffffffffffffffffffffffffffffffffffffffffffffffffffffffffff82620004f8565b620005438683620004f8565b95508019841693508086168417925050509392505050565b6000819050919050565b6000819050919050565b6000620005906200058a62000584846200055b565b62000565565b6200055b565b9050919050565b6000819050919050565b620005ac836200056f565b620005c4620005bb8262000597565b84845462000505565b825550505050565b600090565b620005db620005cc565b620005e8818484620005a1565b505050565b5b81811015620006105762000604600082620005d1565b600181019050620005ee565b5050565b601f8211156200065f576200062981620004d3565b6200063484620004e8565b8101602085101562000644578190505b6200065c6200065385620004e8565b830182620005ed565b50505b505050565b600082821c905092915050565b6000620006846000198460080262000664565b1980831691505092915050565b60006200069f838362000671565b9150826002028217905092915050565b620006ba8262000435565b67ffffffffffffffff811115620006d657620006d562000440565b5b620006e282546200049e565b620006ef82828562000614565b600060209050601f83116001811462000727576000841562000712578287015190505b6200071e858262000691565b8655506200078e565b601f1984166200073786620004d3565b60005b8281101562000761578489015182556001820191506020850194506020810190506200073a565b868310156200078157848901516200077d601f89168262000671565b8355505b6001600288020188555050505b505050505050565b600081549050620007a7816200049e565b9050919050565b818103620007be575050620008ad565b620007c98262000796565b67ffffffffffffffff811115620007e557620007e462000440565b5b620007f182546200049e565b620007fe82828562000614565b6000601f8311600181146200083257600084156200081d578287015490505b62000829858262000691565b865550620008a6565b601f1984166200084287620004d3565b96506200084f86620004d3565b60005b82811015620008795784890154825560018201915060018501945060208101905062000852565b8683101562000899578489015462000895601f89168262000671565b8355505b6001600288020188555050505b5050505050505b565b608051614de9620008cb6000396000611dcf0152614de96000f3fe608060405234801561001057600080fd5b50600436106101585760003560e01c80637fe52fa3116100c3578063cfc097011161007c578063cfc097011461045a578063d04398d614610476578063d59be68d14610494578063e14ec6ec146104b2578063eea9c37b146104ce578063ef0aa4e61461050557610158565b80637fe52fa31461034957806397678a03146103815780639c1bc07b146103b8578063a906a9a4146103ea578063bae4c74014610406578063c02b9f5a1461042457610158565b806338379b4d1161011557806338379b4d1461025057806342d697651461026c57806344d38d70146102a45780634a9cf248146102d45780636cd327e01461030d5780637599be5d1461032b57610158565b806308a990081461015d5780630c7a538f1461018d57806311e1c24a146101bd57806314e887e8146101db57806322d95e0a146101f957806337d9817514610217575b600080fd5b610177600480360381019061017291906134f6565b610521565b6040516101849190613532565b60405180910390f35b6101a760048036038101906101a291906136f1565b610545565b6040516101b49190613768565b60405180910390f35b6101c5610664565b6040516101d291906137e2565b60405180910390f35b6101e361068a565b6040516101f09190613532565b60405180910390f35b610201610690565b60405161020e919061381e565b60405180910390f35b610231600480360381019061022c9190613839565b6106b6565b6040516102479a9998979695949392919061397e565b60405180910390f35b61026a60048036038101906102659190613a28565b6108b4565b005b610286600480360381019061028191906134f6565b610a2f565b60405161029b99989796959493929190613a7b565b60405180910390f35b6102be60048036038101906102b991906134f6565b610d85565b6040516102cb9190613532565b60405180910390f35b6102ee60048036038101906102e991906134f6565b610da9565b6040516103049a9998979695949392919061397e565b60405180910390f35b610315610f9a565b6040516103229190613bd4565b60405180910390f35b610333610ff2565b6040516103409190613532565b60405180910390f35b610363600480360381019061035e9190613839565b610ff8565b60405161037899989796959493929190613a7b565b60405180910390f35b61039b60048036038101906103969190613839565b61138b565b6040516103af989796959493929190613bf6565b60405180910390f35b6103d260048036038101906103cd9190613c82565b611530565b6040516103e193929190613d13565b60405180910390f35b61040460048036038101906103ff9190613d51565b611605565b005b61040e611cf8565b60405161041b9190613dc5565b60405180910390f35b61043e600480360381019061043991906134f6565b611d1e565b6040516104519796959493929190613e28565b60405180910390f35b610474600480360381019061046f91906136f1565b611dcd565b005b61047e611f02565b60405161048b9190613bd4565b60405180910390f35b61049c611f5a565b6040516104a99190613eb8565b60405180910390f35b6104cc60048036038101906104c79190613ed3565b611f80565b005b6104e860048036038101906104e39190613839565b6127f8565b6040516104fc989796959493929190613f26565b60405180910390f35b61051f600480360381019061051a9190613fb2565b612aa4565b005b6008818154811061053157600080fd5b906000526020600020016000915090505481565b600061061b600160008573ffffffffffffffffffffffffffffffffffffffff1673ffffffffffffffffffffffffffffffffffffffff168152602001908152602001600020600101805461059790614094565b80601f01602080910402602001604051908101604052809291908181526020018280546105c390614094565b80156106105780601f106105e557610100808354040283529160200191610610565b820191906000526020600020905b8154815290600101906020018083116105f357829003601f168201915b505050505083613453565b61065a576040517f08c379a000000000000000000000000000000000000000000000000000000000815260040161065190614111565b60405180910390fd5b6001905092915050565b600e60009054906101000a900473ffffffffffffffffffffffffffffffffffffffff1681565b60095481565b601060009054906101000a900473ffffffffffffffffffffffffffffffffffffffff1681565b6003602052816000526040600020602052806000526040600020600091509150508060000154908060010160009054906101000a900473ffffffffffffffffffffffffffffffffffffffff16908060020160009054906101000a900473ffffffffffffffffffffffffffffffffffffffff16908060030160009054906101000a900473ffffffffffffffffffffffffffffffffffffffff16908060040160009054906101000a900473ffffffffffffffffffffffffffffffffffffffff169080600501805461078490614094565b80601f01602080910402602001604051908101604052809291908181526020018280546107b090614094565b80156107fd5780601f106107d2576101008083540402835291602001916107fd565b820191906000526020600020905b8154815290600101906020018083116107e057829003601f168201915b5050505050908060060154908060070160009054906101000a900460ff169080600801549080600901805461083190614094565b80601f016020809104026020016040519081016040528092919081815260200182805461085d90614094565b80156108aa5780601f1061087f576101008083540402835291602001916108aa565b820191906000526020600020905b81548152906001019060200180831161088d57829003601f168201915b505050505090508a565b600060018111156108c8576108c7613907565b5b6005600084815260200190815260200160002060060160009054906101000a900460ff1660018111156108fe576108fd613907565b5b1461093e576040517f08c379a0000000000000000000000000000000000000000000000000000000008152600401610935906141a3565b60405180910390fd5b42600560008481526020019081526020016000206005018190555060016005600084815260200190815260200160002060060160006101000a81548160ff0219169083600181111561099357610992613907565b5b021790555033600360008573ffffffffffffffffffffffffffffffffffffffff1673ffffffffffffffffffffffffffffffffffffffff168152602001908152602001600020600083815260200190815260200160002060040160006101000a81548173ffffffffffffffffffffffffffffffffffffffff021916908373ffffffffffffffffffffffffffffffffffffffff160217905550505050565b6000806000806060600080600060606000600460008c815260200190815260200160002060405180610140016040529081600082015481526020016001820160009054906101000a900473ffffffffffffffffffffffffffffffffffffffff1673ffffffffffffffffffffffffffffffffffffffff1673ffffffffffffffffffffffffffffffffffffffff1681526020016002820160009054906101000a900473ffffffffffffffffffffffffffffffffffffffff1673ffffffffffffffffffffffffffffffffffffffff1673ffffffffffffffffffffffffffffffffffffffff1681526020016003820160009054906101000a900473ffffffffffffffffffffffffffffffffffffffff1673ffffffffffffffffffffffffffffffffffffffff1673ffffffffffffffffffffffffffffffffffffffff1681526020016004820160009054906101000a900473ffffffffffffffffffffffffffffffffffffffff1673ffffffffffffffffffffffffffffffffffffffff1673ffffffffffffffffffffffffffffffffffffffff168152602001600582018054610bd190614094565b80601f0160208091040260200160405190810160405280929190818152602001828054610bfd90614094565b8015610c4a5780601f10610c1f57610100808354040283529160200191610c4a565b820191906000526020600020905b815481529060010190602001808311610c2d57829003601f168201915b50505050508152602001600682015481526020016007820160009054906101000a900460ff166002811115610c8257610c81613907565b5b6002811115610c9457610c93613907565b5b815260200160088201548152602001600982018054610cb290614094565b80601f0160208091040260200160405190810160405280929190818152602001828054610cde90614094565b8015610d2b5780601f10610d0057610100808354040283529160200191610d2b565b820191906000526020600020905b815481529060010190602001808311610d0e57829003601f168201915b5050505050815250509050806000015199508060200151985080604001519750806080015196508060a0015195508060c0015194508060e00151935080610100015192508061012001519150509193959799909294969850565b60078181548110610d9557600080fd5b906000526020600020016000915090505481565b60046020528060005260406000206000915090508060000154908060010160009054906101000a900473ffffffffffffffffffffffffffffffffffffffff16908060020160009054906101000a900473ffffffffffffffffffffffffffffffffffffffff16908060030160009054906101000a900473ffffffffffffffffffffffffffffffffffffffff16908060040160009054906101000a900473ffffffffffffffffffffffffffffffffffffffff1690806005018054610e6a90614094565b80601f0160208091040260200160405190810160405280929190818152602001828054610e9690614094565b8015610ee35780601f10610eb857610100808354040283529160200191610ee3565b820191906000526020600020905b815481529060010190602001808311610ec657829003601f168201915b5050505050908060060154908060070160009054906101000a900460ff1690806008015490806009018054610f1790614094565b80601f0160208091040260200160405190810160405280929190818152602001828054610f4390614094565b8015610f905780601f10610f6557610100808354040283529160200191610f90565b820191906000526020600020905b815481529060010190602001808311610f7357829003601f168201915b505050505090508a565b60606008805480602002602001604051908101604052809291908181526020018280548015610fe857602002820191906000526020600020905b815481526020019060010190808311610fd4575b5050505050905090565b600a5481565b6000806000806060600080600060606000600360008d73ffffffffffffffffffffffffffffffffffffffff1673ffffffffffffffffffffffffffffffffffffffff16815260200190815260200160002060008c815260200190815260200160002060405180610140016040529081600082015481526020016001820160009054906101000a900473ffffffffffffffffffffffffffffffffffffffff1673ffffffffffffffffffffffffffffffffffffffff1673ffffffffffffffffffffffffffffffffffffffff1681526020016002820160009054906101000a900473ffffffffffffffffffffffffffffffffffffffff1673ffffffffffffffffffffffffffffffffffffffff1673ffffffffffffffffffffffffffffffffffffffff1681526020016003820160009054906101000a900473ffffffffffffffffffffffffffffffffffffffff1673ffffffffffffffffffffffffffffffffffffffff1673ffffffffffffffffffffffffffffffffffffffff1681526020016004820160009054906101000a900473ffffffffffffffffffffffffffffffffffffffff1673ffffffffffffffffffffffffffffffffffffffff1673ffffffffffffffffffffffffffffffffffffffff1681526020016005820180546111d790614094565b80601f016020809104026020016040519081016040528092919081815260200182805461120390614094565b80156112505780601f1061122557610100808354040283529160200191611250565b820191906000526020600020905b81548152906001019060200180831161123357829003601f168201915b50505050508152602001600682015481526020016007820160009054906101000a900460ff16600281111561128857611287613907565b5b600281111561129a57611299613907565b5b8152602001600882015481526020016009820180546112b890614094565b80601f01602080910402602001604051908101604052809291908181526020018280546112e490614094565b80156113315780601f1061130657610100808354040283529160200191611331565b820191906000526020600020905b81548152906001019060200180831161131457829003601f168201915b5050505050815250509050806000015199508060200151985080604001519750806080015196508060a0015195508060c0015194508060e00151935080610100015192508061012001519150509295985092959850929598565b6002602052816000526040600020602052806000526040600020600091509150508060000154908060010154908060020160009054906101000a900473ffffffffffffffffffffffffffffffffffffffff16908060030160009054906101000a900473ffffffffffffffffffffffffffffffffffffffff169080600401805461141390614094565b80601f016020809104026020016040519081016040528092919081815260200182805461143f90614094565b801561148c5780601f106114615761010080835404028352916020019161148c565b820191906000526020600020905b81548152906001019060200180831161146f57829003601f168201915b5050505050908060050154908060060154908060070180546114ad90614094565b80601f01602080910402602001604051908101604052809291908181526020018280546114d990614094565b80156115265780601f106114fb57610100808354040283529160200191611526565b820191906000526020600020905b81548152906001019060200180831161150957829003601f168201915b5050505050905088565b60068180516020810182018051848252602083016020850120818352809550505050505060009150905080600001805461156990614094565b80601f016020809104026020016040519081016040528092919081815260200182805461159590614094565b80156115e25780601f106115b7576101008083540402835291602001916115e2565b820191906000526020600020905b8154815290600101906020018083116115c557829003601f168201915b5050505050908060010154908060020160009054906101000a900460ff16905083565b6001600281111561161957611618613907565b5b600360008573ffffffffffffffffffffffffffffffffffffffff1673ffffffffffffffffffffffffffffffffffffffff168152602001908152602001600020600084815260200190815260200160002060070160009054906101000a900460ff16600281111561168c5761168b613907565b5b146116cc576040517f08c379a00000000000000000000000000000000000000000000000000000000081526004016116c390614235565b60405180910390fd5b60004290506000600360008673ffffffffffffffffffffffffffffffffffffffff1673ffffffffffffffffffffffffffffffffffffffff168152602001908152602001600020600085815260200190815260200160002060010160009054906101000a900473ffffffffffffffffffffffffffffffffffffffff1690506040518061014001604052808381526020018273ffffffffffffffffffffffffffffffffffffffff1681526020018473ffffffffffffffffffffffffffffffffffffffff1681526020018673ffffffffffffffffffffffffffffffffffffffff1681526020013373ffffffffffffffffffffffffffffffffffffffff168152602001600360008873ffffffffffffffffffffffffffffffffffffffff1673ffffffffffffffffffffffffffffffffffffffff1681526020019081526020016000206000878152602001908152602001600020600501805461182990614094565b80601f016020809104026020016040519081016040528092919081815260200182805461185590614094565b80156118a25780601f10611877576101008083540402835291602001916118a2565b820191906000526020600020905b81548152906001019060200180831161188557829003601f168201915b50505050508152602001600360008873ffffffffffffffffffffffffffffffffffffffff1673ffffffffffffffffffffffffffffffffffffffff1681526020019081526020016000206000878152602001908152602001600020600601548152602001600360008873ffffffffffffffffffffffffffffffffffffffff1673ffffffffffffffffffffffffffffffffffffffff168152602001908152602001600020600087815260200190815260200160002060070160009054906101000a900460ff16600281111561197857611977613907565b5b8152602001600e60009054906101000a900473ffffffffffffffffffffffffffffffffffffffff1673ffffffffffffffffffffffffffffffffffffffff1663be3a9028846040518263ffffffff1660e01b81526004016119d89190614255565b600060405180830381865afa1580156119f5573d6000803e3d6000fd5b505050506040513d6000823e3d601f19601f82011682018060405250810190611a1e91906145e8565b60e001518152602001600360008873ffffffffffffffffffffffffffffffffffffffff1673ffffffffffffffffffffffffffffffffffffffff16815260200190815260200160002060008781526020019081526020016000206009018054611a8590614094565b80601f0160208091040260200160405190810160405280929190818152602001828054611ab190614094565b8015611afe5780601f10611ad357610100808354040283529160200191611afe565b820191906000526020600020905b815481529060010190602001808311611ae157829003601f168201915b5050505050815250600360008773ffffffffffffffffffffffffffffffffffffffff1673ffffffffffffffffffffffffffffffffffffffff16815260200190815260200160002060008481526020019081526020016000206000820151816000015560208201518160010160006101000a81548173ffffffffffffffffffffffffffffffffffffffff021916908373ffffffffffffffffffffffffffffffffffffffff16021790555060408201518160020160006101000a81548173ffffffffffffffffffffffffffffffffffffffff021916908373ffffffffffffffffffffffffffffffffffffffff16021790555060608201518160030160006101000a81548173ffffffffffffffffffffffffffffffffffffffff021916908373ffffffffffffffffffffffffffffffffffffffff16021790555060808201518160040160006101000a81548173ffffffffffffffffffffffffffffffffffffffff021916908373ffffffffffffffffffffffffffffffffffffffff16021790555060a0820151816005019081611c9191906147d3565b5060c0820151816006015560e08201518160070160006101000a81548160ff02191690836002811115611cc757611cc6613907565b5b02179055506101008201518160080155610120820151816009019081611ced91906147d3565b509050505050505050565b601160009054906101000a900473ffffffffffffffffffffffffffffffffffffffff1681565b60056020528060005260406000206000915090508060000154908060010160009054906101000a900473ffffffffffffffffffffffffffffffffffffffff16908060020160009054906101000a900473ffffffffffffffffffffffffffffffffffffffff16908060030160009054906101000a900473ffffffffffffffffffffffffffffffffffffffff16908060040154908060050154908060060160009054906101000a900460ff16905087565b7f000000000000000000000000000000000000000000000000000000000000000073ffffffffffffffffffffffffffffffffffffffff163373ffffffffffffffffffffffffffffffffffffffff1614611e5b576040517f08c379a0000000000000000000000000000000000000000000000000000000008152600401611e52906148f1565b60405180910390fd5b611e658282610545565b611ea4576040517f08c379a0000000000000000000000000000000000000000000000000000000008152600401611e9b9061495d565b60405180910390fd5b60018060008473ffffffffffffffffffffffffffffffffffffffff1673ffffffffffffffffffffffffffffffffffffffff16815260200190815260200160002060020160006101000a81548160ff0219169083151502179055505050565b60606007805480602002602001604051908101604052809291908181526020018280548015611f5057602002820191906000526020600020905b815481526020019060010190808311611f3c575b5050505050905090565b600f60009054906101000a900473ffffffffffffffffffffffffffffffffffffffff1681565b60011515600e60009054906101000a900473ffffffffffffffffffffffffffffffffffffffff1673ffffffffffffffffffffffffffffffffffffffff1663be3a9028846040518263ffffffff1660e01b8152600401611fdf9190614255565b600060405180830381865afa158015611ffc573d6000803e3d6000fd5b505050506040513d6000823e3d601f19601f8201168201806040525081019061202591906145e8565b610120015115151461206c576040517f08c379a0000000000000000000000000000000000000000000000000000000008152600401612063906149c9565b60405180910390fd5b60004290506040518061014001604052808281526020018473ffffffffffffffffffffffffffffffffffffffff168152602001600073ffffffffffffffffffffffffffffffffffffffff1681526020013373ffffffffffffffffffffffffffffffffffffffff168152602001600073ffffffffffffffffffffffffffffffffffffffff168152602001600e60009054906101000a900473ffffffffffffffffffffffffffffffffffffffff1673ffffffffffffffffffffffffffffffffffffffff1663be3a9028866040518263ffffffff1660e01b81526004016121509190614255565b600060405180830381865afa15801561216d573d6000803e3d6000fd5b505050506040513d6000823e3d601f19601f8201168201806040525081019061219691906145e8565b608001518152602001428152602001600060028111156121b9576121b8613907565b5b81526020018381526020016040518060400160405280600981526020017f4e6f20526573756c740000000000000000000000000000000000000000000000815250815250600360008673ffffffffffffffffffffffffffffffffffffffff1673ffffffffffffffffffffffffffffffffffffffff16815260200190815260200160002060008381526020019081526020016000206000820151816000015560208201518160010160006101000a81548173ffffffffffffffffffffffffffffffffffffffff021916908373ffffffffffffffffffffffffffffffffffffffff16021790555060408201518160020160006101000a81548173ffffffffffffffffffffffffffffffffffffffff021916908373ffffffffffffffffffffffffffffffffffffffff16021790555060608201518160030160006101000a81548173ffffffffffffffffffffffffffffffffffffffff021916908373ffffffffffffffffffffffffffffffffffffffff16021790555060808201518160040160006101000a81548173ffffffffffffffffffffffffffffffffffffffff021916908373ffffffffffffffffffffffffffffffffffffffff16021790555060a082015181600501908161238891906147d3565b5060c0820151816006015560e08201518160070160006101000a81548160ff021916908360028111156123be576123bd613907565b5b021790555061010082015181600801556101208201518160090190816123e491906147d3565b509050506040518061014001604052808281526020018473ffffffffffffffffffffffffffffffffffffffff168152602001600073ffffffffffffffffffffffffffffffffffffffff1681526020013373ffffffffffffffffffffffffffffffffffffffff168152602001600073ffffffffffffffffffffffffffffffffffffffff168152602001600e60009054906101000a900473ffffffffffffffffffffffffffffffffffffffff1673ffffffffffffffffffffffffffffffffffffffff1663be3a9028866040518263ffffffff1660e01b81526004016124c79190614255565b600060405180830381865afa1580156124e4573d6000803e3d6000fd5b505050506040513d6000823e3d601f19601f8201168201806040525081019061250d91906145e8565b608001518152602001428152602001600060028111156125305761252f613907565b5b81526020018381526020016040518060400160405280600981526020017f4e6f20526573756c740000000000000000000000000000000000000000000000815250815250600460008381526020019081526020016000206000820151816000015560208201518160010160006101000a81548173ffffffffffffffffffffffffffffffffffffffff021916908373ffffffffffffffffffffffffffffffffffffffff16021790555060408201518160020160006101000a81548173ffffffffffffffffffffffffffffffffffffffff021916908373ffffffffffffffffffffffffffffffffffffffff16021790555060608201518160030160006101000a81548173ffffffffffffffffffffffffffffffffffffffff021916908373ffffffffffffffffffffffffffffffffffffffff16021790555060808201518160040160006101000a81548173ffffffffffffffffffffffffffffffffffffffff021916908373ffffffffffffffffffffffffffffffffffffffff16021790555060a08201518160050190816126c291906147d3565b5060c0820151816006015560e08201518160070160006101000a81548160ff021916908360028111156126f8576126f7613907565b5b0217905550610100820151816008015561012082015181600901908161271e91906147d3565b50905050600e60009054906101000a900473ffffffffffffffffffffffffffffffffffffffff1673ffffffffffffffffffffffffffffffffffffffff166302c7739b84846040518363ffffffff1660e01b815260040161277f9291906149e9565b600060405180830381600087803b15801561279957600080fd5b505af11580156127ad573d6000803e3d6000fd5b505050506007819080600181540180825580915050600190039060005260206000200160009091909190915055600960008154809291906127ed90614a41565b919050555050505050565b60008060006060600080600060606000600260008c73ffffffffffffffffffffffffffffffffffffffff1673ffffffffffffffffffffffffffffffffffffffff16815260200190815260200160002060008b81526020019081526020016000206040518061010001604052908160008201548152602001600182015481526020016002820160009054906101000a900473ffffffffffffffffffffffffffffffffffffffff1673ffffffffffffffffffffffffffffffffffffffff1673ffffffffffffffffffffffffffffffffffffffff1681526020016003820160009054906101000a900473ffffffffffffffffffffffffffffffffffffffff1673ffffffffffffffffffffffffffffffffffffffff1673ffffffffffffffffffffffffffffffffffffffff16815260200160048201805461293490614094565b80601f016020809104026020016040519081016040528092919081815260200182805461296090614094565b80156129ad5780601f10612982576101008083540402835291602001916129ad565b820191906000526020600020905b81548152906001019060200180831161299057829003601f168201915b5050505050815260200160058201548152602001600682015481526020016007820180546129da90614094565b80601f0160208091040260200160405190810160405280929190818152602001828054612a0690614094565b8015612a535780601f10612a2857610100808354040283529160200191612a53565b820191906000526020600020905b815481529060010190602001808311612a3657829003601f168201915b505050505081525050905080600001519850806020015197508060400151965080608001519550806060015194508060a0015193508060c0015192508060e001519150509295985092959890939650565b3373ffffffffffffffffffffffffffffffffffffffff16600f60009054906101000a900473ffffffffffffffffffffffffffffffffffffffff1673ffffffffffffffffffffffffffffffffffffffff1663244723b1336040518263ffffffff1660e01b8152600401612b169190614255565b600060405180830381865afa158015612b33573d6000803e3d6000fd5b505050506040513d6000823e3d601f19601f82011682018060405250810190612b5c9190614b7d565b6000015173ffffffffffffffffffffffffffffffffffffffff1614612bb6576040517f08c379a0000000000000000000000000000000000000000000000000000000008152600401612bad90614c38565b60405180910390fd5b60006002811115612bca57612bc9613907565b5b600360003373ffffffffffffffffffffffffffffffffffffffff1673ffffffffffffffffffffffffffffffffffffffff168152602001908152602001600020600087815260200190815260200160002060070160009054906101000a900460ff166002811115612c3d57612c3c613907565b5b14612c7d576040517f08c379a0000000000000000000000000000000000000000000000000000000008152600401612c7490614ca4565b60405180910390fd5b600073ffffffffffffffffffffffffffffffffffffffff16600360003373ffffffffffffffffffffffffffffffffffffffff1673ffffffffffffffffffffffffffffffffffffffff168152602001908152602001600020600087815260200190815260200160002060010160009054906101000a900473ffffffffffffffffffffffffffffffffffffffff1673ffffffffffffffffffffffffffffffffffffffff1603612d5f576040517f08c379a0000000000000000000000000000000000000000000000000000000008152600401612d5690614d10565b60405180910390fd5b33600360003373ffffffffffffffffffffffffffffffffffffffff1673ffffffffffffffffffffffffffffffffffffffff168152602001908152602001600020600087815260200190815260200160002060030160006101000a81548173ffffffffffffffffffffffffffffffffffffffff021916908373ffffffffffffffffffffffffffffffffffffffff16021790555083600360003373ffffffffffffffffffffffffffffffffffffffff1673ffffffffffffffffffffffffffffffffffffffff16815260200190815260200160002060008781526020019081526020016000206005019081612e5191906147d3565b506001600360003373ffffffffffffffffffffffffffffffffffffffff1673ffffffffffffffffffffffffffffffffffffffff168152602001908152602001600020600087815260200190815260200160002060070160006101000a81548160ff02191690836002811115612ec957612ec8613907565b5b021790555080600360003373ffffffffffffffffffffffffffffffffffffffff1673ffffffffffffffffffffffffffffffffffffffff16815260200190815260200160002060008781526020019081526020016000206009019081612f2e91906147d3565b50336004600087815260200190815260200160002060030160006101000a81548173ffffffffffffffffffffffffffffffffffffffff021916908373ffffffffffffffffffffffffffffffffffffffff16021790555083600460008781526020019081526020016000206005019081612fa791906147d3565b5060016004600087815260200190815260200160002060070160006101000a81548160ff02191690836002811115612fe257612fe1613907565b5b02179055508060046000878152602001908152602001600020600901908161300a91906147d3565b50600e60009054906101000a900473ffffffffffffffffffffffffffffffffffffffff1673ffffffffffffffffffffffffffffffffffffffff166365837dca600360003373ffffffffffffffffffffffffffffffffffffffff1673ffffffffffffffffffffffffffffffffffffffff168152602001908152602001600020600088815260200190815260200160002060010160009054906101000a900473ffffffffffffffffffffffffffffffffffffffff16866040518363ffffffff1660e01b81526004016130db929190614d30565b600060405180830381600087803b1580156130f557600080fd5b505af1158015613109573d6000803e3d6000fd5b50505050600e60009054906101000a900473ffffffffffffffffffffffffffffffffffffffff1673ffffffffffffffffffffffffffffffffffffffff16636d0a1c38600360003373ffffffffffffffffffffffffffffffffffffffff1673ffffffffffffffffffffffffffffffffffffffff168152602001908152602001600020600088815260200190815260200160002060010160009054906101000a900473ffffffffffffffffffffffffffffffffffffffff16876040518363ffffffff1660e01b81526004016131dd9291906149e9565b600060405180830381600087803b1580156131f757600080fd5b505af115801561320b573d6000803e3d6000fd5b505050506000429050604051806101000160405280828152602001878152602001600360003373ffffffffffffffffffffffffffffffffffffffff1673ffffffffffffffffffffffffffffffffffffffff168152602001908152602001600020600089815260200190815260200160002060010160009054906101000a900473ffffffffffffffffffffffffffffffffffffffff1673ffffffffffffffffffffffffffffffffffffffff1681526020013373ffffffffffffffffffffffffffffffffffffffff16815260200186815260200185815260200184815260200183815250600260003373ffffffffffffffffffffffffffffffffffffffff1673ffffffffffffffffffffffffffffffffffffffff1681526020019081526020016000206000838152602001908152602001600020600082015181600001556020820151816001015560408201518160020160006101000a81548173ffffffffffffffffffffffffffffffffffffffff021916908373ffffffffffffffffffffffffffffffffffffffff16021790555060608201518160030160006101000a81548173ffffffffffffffffffffffffffffffffffffffff021916908373ffffffffffffffffffffffffffffffffffffffff16021790555060808201518160040190816133f491906147d3565b5060a0820151816005015560c0820151816006015560e082015181600701908161341e91906147d3565b509050506008819080600181540180825580915050600190039060005260206000200160009091909190915055505050505050565b6000816040516020016134669190614d9c565b604051602081830303815290604052805190602001208360405160200161348d9190614d9c565b6040516020818303038152906040528051906020012014905092915050565b6000604051905090565b600080fd5b600080fd5b6000819050919050565b6134d3816134c0565b81146134de57600080fd5b50565b6000813590506134f0816134ca565b92915050565b60006020828403121561350c5761350b6134b6565b5b600061351a848285016134e1565b91505092915050565b61352c816134c0565b82525050565b60006020820190506135476000830184613523565b92915050565b600073ffffffffffffffffffffffffffffffffffffffff82169050919050565b60006135788261354d565b9050919050565b6135888161356d565b811461359357600080fd5b50565b6000813590506135a58161357f565b92915050565b600080fd5b600080fd5b6000601f19601f8301169050919050565b7f4e487b7100000000000000000000000000000000000000000000000000000000600052604160045260246000fd5b6135fe826135b5565b810181811067ffffffffffffffff8211171561361d5761361c6135c6565b5b80604052505050565b60006136306134ac565b905061363c82826135f5565b919050565b600067ffffffffffffffff82111561365c5761365b6135c6565b5b613665826135b5565b9050602081019050919050565b82818337600083830152505050565b600061369461368f84613641565b613626565b9050828152602081018484840111156136b0576136af6135b0565b5b6136bb848285613672565b509392505050565b600082601f8301126136d8576136d76135ab565b5b81356136e8848260208601613681565b91505092915050565b60008060408385031215613708576137076134b6565b5b600061371685828601613596565b925050602083013567ffffffffffffffff811115613737576137366134bb565b5b613743858286016136c3565b9150509250929050565b60008115159050919050565b6137628161374d565b82525050565b600060208201905061377d6000830184613759565b92915050565b6000819050919050565b60006137a86137a361379e8461354d565b613783565b61354d565b9050919050565b60006137ba8261378d565b9050919050565b60006137cc826137af565b9050919050565b6137dc816137c1565b82525050565b60006020820190506137f760008301846137d3565b92915050565b6000613808826137af565b9050919050565b613818816137fd565b82525050565b6000602082019050613833600083018461380f565b92915050565b600080604083850312156138505761384f6134b6565b5b600061385e85828601613596565b925050602061386f858286016134e1565b9150509250929050565b6138828161356d565b82525050565b600081519050919050565b600082825260208201905092915050565b60005b838110156138c25780820151818401526020810190506138a7565b60008484015250505050565b60006138d982613888565b6138e38185613893565b93506138f38185602086016138a4565b6138fc816135b5565b840191505092915050565b7f4e487b7100000000000000000000000000000000000000000000000000000000600052602160045260246000fd5b6003811061394757613946613907565b5b50565b600081905061395882613936565b919050565b60006139688261394a565b9050919050565b6139788161395d565b82525050565b600061014082019050613994600083018d613523565b6139a1602083018c613879565b6139ae604083018b613879565b6139bb606083018a613879565b6139c86080830189613879565b81810360a08301526139da81886138ce565b90506139e960c0830187613523565b6139f660e083018661396f565b613a04610100830185613523565b818103610120830152613a1781846138ce565b90509b9a5050505050505050505050565b600080600060608486031215613a4157613a406134b6565b5b6000613a4f86828701613596565b9350506020613a60868287016134e1565b9250506040613a71868287016134e1565b9150509250925092565b600061012082019050613a91600083018c613523565b613a9e602083018b613879565b613aab604083018a613879565b613ab86060830189613879565b8181036080830152613aca81886138ce565b9050613ad960a0830187613523565b613ae660c083018661396f565b613af360e0830185613523565b818103610100830152613b0681846138ce565b90509a9950505050505050505050565b600081519050919050565b600082825260208201905092915050565b6000819050602082019050919050565b613b4b816134c0565b82525050565b6000613b5d8383613b42565b60208301905092915050565b6000602082019050919050565b6000613b8182613b16565b613b8b8185613b21565b9350613b9683613b32565b8060005b83811015613bc7578151613bae8882613b51565b9750613bb983613b69565b925050600181019050613b9a565b5085935050505092915050565b60006020820190508181036000830152613bee8184613b76565b905092915050565b600061010082019050613c0c600083018b613523565b613c19602083018a613523565b613c266040830189613879565b613c336060830188613879565b8181036080830152613c4581876138ce565b9050613c5460a0830186613523565b613c6160c0830185613523565b81810360e0830152613c7381846138ce565b90509998505050505050505050565b600060208284031215613c9857613c976134b6565b5b600082013567ffffffffffffffff811115613cb657613cb56134bb565b5b613cc2848285016136c3565b91505092915050565b60028110613cdc57613cdb613907565b5b50565b6000819050613ced82613ccb565b919050565b6000613cfd82613cdf565b9050919050565b613d0d81613cf2565b82525050565b60006060820190508181036000830152613d2d81866138ce565b9050613d3c6020830185613523565b613d496040830184613d04565b949350505050565b600080600060608486031215613d6a57613d696134b6565b5b6000613d7886828701613596565b9350506020613d89868287016134e1565b9250506040613d9a86828701613596565b9150509250925092565b6000613daf826137af565b9050919050565b613dbf81613da4565b82525050565b6000602082019050613dda6000830184613db6565b92915050565b60028110613df157613df0613907565b5b50565b6000819050613e0282613de0565b919050565b6000613e1282613df4565b9050919050565b613e2281613e07565b82525050565b600060e082019050613e3d600083018a613523565b613e4a6020830189613879565b613e576040830188613879565b613e646060830187613879565b613e716080830186613523565b613e7e60a0830185613523565b613e8b60c0830184613e19565b98975050505050505050565b6000613ea2826137af565b9050919050565b613eb281613e97565b82525050565b6000602082019050613ecd6000830184613ea9565b92915050565b600080600060608486031215613eec57613eeb6134b6565b5b6000613efa86828701613596565b9350506020613f0b86828701613596565b9250506040613f1c868287016134e1565b9150509250925092565b600061010082019050613f3c600083018b613523565b613f49602083018a613523565b613f566040830189613879565b8181036060830152613f6881886138ce565b9050613f776080830187613879565b613f8460a0830186613523565b613f9160c0830185613523565b81810360e0830152613fa381846138ce565b90509998505050505050505050565b600080600080600060a08688031215613fce57613fcd6134b6565b5b6000613fdc888289016134e1565b955050602086013567ffffffffffffffff811115613ffd57613ffc6134bb565b5b614009888289016136c3565b945050604061401a888289016134e1565b935050606061402b888289016134e1565b925050608086013567ffffffffffffffff81111561404c5761404b6134bb565b5b614058888289016136c3565b9150509295509295909350565b7f4e487b7100000000000000000000000000000000000000000000000000000000600052602260045260246000fd5b600060028204905060018216806140ac57607f821691505b6020821081036140bf576140be614065565b5b50919050565b7f496e76616c69642061646472657373206f722070617373776f72640000000000600082015250565b60006140fb601b83613893565b9150614106826140c5565b602082019050919050565b6000602082019050818103600083015261412a816140ee565b9050919050565b7f5472616e73706f72746174696f6e20616c726561647920636f6d706c6574656460008201527f206f72206e6f7420696e69746961746564000000000000000000000000000000602082015250565b600061418d603183613893565b915061419882614131565b604082019050919050565b600060208201905081810360008301526141bc81614180565b9050919050565b7f4d65646963616c2063656e7465722070726f63657373206e6f7420416374697660008201527f6500000000000000000000000000000000000000000000000000000000000000602082015250565b600061421f602183613893565b915061422a826141c3565b604082019050919050565b6000602082019050818103600083015261424e81614212565b9050919050565b600060208201905061426a6000830184613879565b92915050565b600080fd5b600080fd5b6000815190506142898161357f565b92915050565b60006142a261429d84613641565b613626565b9050828152602081018484840111156142be576142bd6135b0565b5b6142c98482856138a4565b509392505050565b600082601f8301126142e6576142e56135ab565b5b81516142f684826020860161428f565b91505092915050565b60008151905061430e816134ca565b92915050565b61431d8161374d565b811461432857600080fd5b50565b60008151905061433a81614314565b92915050565b600067ffffffffffffffff82111561435b5761435a6135c6565b5b602082029050602081019050919050565b600080fd5b600061438461437f84614340565b613626565b905080838252602082019050602084028301858111156143a7576143a661436c565b5b835b818110156143d057806143bc88826142ff565b8452602084019350506020810190506143a9565b5050509392505050565b600082601f8301126143ef576143ee6135ab565b5b81516143ff848260208601614371565b91505092915050565b60006101a0828403121561441f5761441e614270565b5b61442a6101a0613626565b9050600061443a8482850161427a565b600083015250602082015167ffffffffffffffff81111561445e5761445d614275565b5b61446a848285016142d1565b602083015250604061447e848285016142ff565b604083015250606082015167ffffffffffffffff8111156144a2576144a1614275565b5b6144ae848285016142d1565b606083015250608082015167ffffffffffffffff8111156144d2576144d1614275565b5b6144de848285016142d1565b60808301525060a082015167ffffffffffffffff81111561450257614501614275565b5b61450e848285016142d1565b60a08301525060c082015167ffffffffffffffff81111561453257614531614275565b5b61453e848285016142d1565b60c08301525060e0614552848285016142ff565b60e083015250610100614567848285016142ff565b6101008301525061012061457d8482850161432b565b610120830152506101406145938482850161432b565b610140830152506101606145a98482850161432b565b6101608301525061018082015167ffffffffffffffff8111156145cf576145ce614275565b5b6145db848285016143da565b6101808301525092915050565b6000602082840312156145fe576145fd6134b6565b5b600082015167ffffffffffffffff81111561461c5761461b6134bb565b5b61462884828501614408565b91505092915050565b60008190508160005260206000209050919050565b60006020601f8301049050919050565b600082821b905092915050565b6000600883026146937fffffffffffffffffffffffffffffffffffffffffffffffffffffffffffffffff82614656565b61469d8683614656565b95508019841693508086168417925050509392505050565b60006146d06146cb6146c6846134c0565b613783565b6134c0565b9050919050565b6000819050919050565b6146ea836146b5565b6146fe6146f6826146d7565b848454614663565b825550505050565b600090565b614713614706565b61471e8184846146e1565b505050565b5b818110156147425761473760008261470b565b600181019050614724565b5050565b601f8211156147875761475881614631565b61476184614646565b81016020851015614770578190505b61478461477c85614646565b830182614723565b50505b505050565b600082821c905092915050565b60006147aa6000198460080261478c565b1980831691505092915050565b60006147c38383614799565b9150826002028217905092915050565b6147dc82613888565b67ffffffffffffffff8111156147f5576147f46135c6565b5b6147ff8254614094565b61480a828285614746565b600060209050601f83116001811461483d576000841561482b578287015190505b61483585826147b7565b86555061489d565b601f19841661484b86614631565b60005b828110156148735784890151825560018201915060208501945060208101905061484e565b86831015614890578489015161488c601f891682614799565b8355505b6001600288020188555050505b505050505050565b7f5265737472696374656420746f2073797374656d206f776e6572206f6e6c7900600082015250565b60006148db601f83613893565b91506148e6826148a5565b602082019050919050565b6000602082019050818103600083015261490a816148ce565b9050919050565b7f496e76616c6964206c6f67696e2063726564656e7469616c7300000000000000600082015250565b6000614947601983613893565b915061495282614911565b602082019050919050565b600060208201905081810360008301526149768161493a565b9050919050565b7f506c6561736520726567697374657220646f6e6f722066697273740000000000600082015250565b60006149b3601b83613893565b91506149be8261497d565b602082019050919050565b600060208201905081810360008301526149e2816149a6565b9050919050565b60006040820190506149fe6000830185613879565b614a0b6020830184613523565b9392505050565b7f4e487b7100000000000000000000000000000000000000000000000000000000600052601160045260246000fd5b6000614a4c826134c0565b91507fffffffffffffffffffffffffffffffffffffffffffffffffffffffffffffffff8203614a7e57614a7d614a12565b5b600182019050919050565b600060c08284031215614a9f57614a9e614270565b5b614aa960c0613626565b90506000614ab98482850161427a565b600083015250602082015167ffffffffffffffff811115614add57614adc614275565b5b614ae9848285016142d1565b602083015250604082015167ffffffffffffffff811115614b0d57614b0c614275565b5b614b19848285016142d1565b604083015250606082015167ffffffffffffffff811115614b3d57614b3c614275565b5b614b49848285016142d1565b6060830152506080614b5d8482850161432b565b60808301525060a0614b718482850161432b565b60a08301525092915050565b600060208284031215614b9357614b926134b6565b5b600082015167ffffffffffffffff811115614bb157614bb06134bb565b5b614bbd84828501614a89565b91505092915050565b7f4f6e6c79206d65646963616c2073746166662063616e20706572666f726d207460008201527f68697320616374696f6e00000000000000000000000000000000000000000000602082015250565b6000614c22602a83613893565b9150614c2d82614bc6565b604082019050919050565b60006020820190508181036000830152614c5181614c15565b9050919050565b7f496e76616c6964207472616e73616374696f6e20737461747573000000000000600082015250565b6000614c8e601a83613893565b9150614c9982614c58565b602082019050919050565b60006020820190508181036000830152614cbd81614c81565b9050919050565b7f496e76616c696420646f6e6f7220616464726573730000000000000000000000600082015250565b6000614cfa601583613893565b9150614d0582614cc4565b602082019050919050565b60006020820190508181036000830152614d2981614ced565b9050919050565b6000604082019050614d456000830185613879565b8181036020830152614d5781846138ce565b90509392505050565b600081905092915050565b6000614d7682613888565b614d808185614d60565b9350614d908185602086016138a4565b80840191505092915050565b6000614da88284614d6b565b91508190509291505056fea2646970667358221220ce2f755f777e37fc56fd295abd79cb4c4c4bfb4d5b50e852563dcdad8ba1f42564736f6c63430008130033",
  "immutableReferences": {
    "3": [
      {
        "length": 32,
        "start": 7631
      }
    ]
  },
  "source": "// SPDX-License-Identifier: MIT\npragma solidity ^0.8.19;\nimport \"./DonorContract.sol\";\nimport \"./MedicalCenters.sol\";\nimport \"./TransportContract.sol\";\nimport \"./AccessControl.sol\";\nimport \"./CollectionPointContract.sol\";\n\n/**\n    @title Blood Donation Blockchain-based System\n    @author Josephat E. Temba\n    @notice You can use this smart contract in real blood donation operations\n    @dev This is best aproach for developers to learn how real dapp looking for\n    @custom:fyp This is the final year project for cive students\n */\n\ncontract BloodDonationBlockchainSystem is AccessControl {\n    enum TransactionStatus { Shipped, Active, Fullfilled }\n    enum TransportationStatus { InTransit, Delivered }\n    enum BloodSupplyStatus { Available, Requested }\n\n    /// @dev create system account structure\n    struct SystemOwner {\n        address sysOwner;\n        string password /*audit*/;\n        bool isLogin;\n    }\n\n    struct DonationTransaction {\n        uint256 transactionID;\n        address donor;\n        address recipient;\n        address medicalStaff;\n        address transporter;\n        string bloodType;\n        uint256 donationDate;\n        TransactionStatus status;\n        uint256 donatedVolume;\n        string bloodTestResult;\n    }\n\n    struct MedicalRecord {\n        uint256 recordID;\n        uint256 transactionID;\n        address donor;\n        address medicalStaff;\n        string bloodType;\n        uint256 bloodPressure;\n        uint256 hemoglobinLevel;\n        string bloodTestResults;\n    }\n\n    struct TransportationRecord {\n        uint256 recordID;\n        address transporter;\n        address donor;\n        address recipient;\n        uint256 pickupDateTime;\n        uint256 deliveryDateTime;\n        TransportationStatus status;\n    }\n\n    struct BloodSupply {\n        string bloodType;\n        uint256 volume;\n        BloodSupplyStatus status;\n    }\n\n    mapping(address => SystemOwner) private sysOwnerMap;\n    \n    mapping(address => mapping(uint256 => MedicalRecord)) public medicalRecords;\n    mapping(address => mapping(uint256 => DonationTransaction)) public donationTransactions;\n    mapping(uint256 => DonationTransaction) public allDonationTransactions;\n\n    mapping(uint256 => TransportationRecord) public transportationRecords;\n    mapping(string => BloodSupply) public bloodSupplies;\n\n    uint256[] public donationTransactionsArr;\n    uint256[] public medicalRecordsArr;\n\n    uint256 public transactionCounter;\n    uint256 public recordCounter;\n\n    // modifier onlyTransporter() {\n    //     require(\n    //         transporters[msg.sender].transporterPublicAddress == msg.sender,\n    //         \"Only transporters can perform this action\"\n    //     );\n    //     _;\n    // }\n\n    SystemOwner private sysowner;\n\n    DonorContract public donorContract;\n    MedicalCenters public medicalCenter;\n    TransportContract public transportContract;\n    CollectionPointContract public collectionPoint;\n\n    constructor(address _donorContractAddress, address _medicalCenter, address _transAddress, address collectionPointAddress_) {\n        sysowner = SystemOwner(owner, \"admin\", false);\n        sysOwnerMap[owner] = sysowner;\n        donorContract = DonorContract(_donorContractAddress);\n        medicalCenter = MedicalCenters(_medicalCenter);\n        transportContract = TransportContract(_transAddress);\n        collectionPoint = CollectionPointContract(collectionPointAddress_);\n    }\n\n    modifier onlyMedicalStaff() {\n        require(\n            medicalCenter.readMedicalCenter(msg.sender).MCPublicAddress == msg.sender,\n            \"Only medical staff can perform this action\"\n        );\n        _;\n    }\n\n    function checkSystemOwnerLogin(address _SYSPublicAddress, string memory _password) public view returns (bool) {\n        // require(!medicalsCenters[_MCPublicAddress].isLogin, \"You're already logged in\");\n        require(compareString(sysOwnerMap[_SYSPublicAddress].password, _password), \"Invalid address or password\");\n\n        return true;\n    }\n\n    function systemOwnerLogin(address _MCPublicAddress, string memory _password) public onlyOwner() {\n        require(checkSystemOwnerLogin(_MCPublicAddress, _password), \"Invalid login credentials\");\n\n        sysOwnerMap[_MCPublicAddress].isLogin = true;\n    }\n\n    // ---------------- Start Donation initialization ---------------------\n    function donateBloodToMedicalCenter(\n        address _medicalCenterPublicAddress,\n        address _donorPublicAddress,\n        uint256 _volume\n    ) public {\n        require(\n            donorContract.readDonors(_donorPublicAddress).isRegistered == true,\n            \"Please register donor first\"\n        );\n\n        uint256 transactionID = block.timestamp;\n        donationTransactions[_medicalCenterPublicAddress][transactionID] = DonationTransaction({\n            transactionID: transactionID,\n            donor: _donorPublicAddress,\n            recipient: address(0),\n            medicalStaff: msg.sender,\n            transporter: address(0),\n            bloodType: donorContract.readDonors(_donorPublicAddress).bloodType,\n            donationDate: block.timestamp,\n            status: TransactionStatus.Shipped,\n            donatedVolume: _volume,\n            bloodTestResult: \"No Result\"\n        });\n        allDonationTransactions[transactionID] = DonationTransaction({\n            transactionID: transactionID,\n            donor: _donorPublicAddress,\n            recipient: address(0),\n            medicalStaff: msg.sender,\n            transporter: address(0),\n            bloodType: donorContract.readDonors(_donorPublicAddress).bloodType,\n            donationDate: block.timestamp,\n            status: TransactionStatus.Shipped,\n            donatedVolume: _volume,\n            bloodTestResult: \"No Result\"\n        });\n        donorContract.updateVolume(_donorPublicAddress, _volume);\n        donationTransactionsArr.push(transactionID);\n\n        // Increment the transaction count\n        transactionCounter++;\n    }\n\n    function getDonationTransactionArr()\n        public\n        view\n        returns (uint256[] memory)\n    {\n        return donationTransactionsArr;\n    }\n\n    function getDonationTransaction(\n        address _medicalCenterPublicAddress,\n        uint256 _transactionID\n    )\n        public\n        view\n        returns (\n            uint256 transactionID,\n            address donorPublicAddress,\n            address recipientPublicAddress,\n            address transporterPublicAddress,\n            string memory bloodType,\n            uint256 donationDate,\n            TransactionStatus status,\n            uint256 donatedVolume,\n            string memory bloodTestResult\n        )\n    {\n        DonationTransaction memory donationTransaction = donationTransactions[_medicalCenterPublicAddress][\n            _transactionID\n        ];\n        transactionID = donationTransaction.transactionID;\n        donorPublicAddress = donationTransaction.donor;\n        recipientPublicAddress = donationTransaction.recipient;\n        transporterPublicAddress = donationTransaction.transporter;\n        bloodType = donationTransaction.bloodType;\n        donationDate = donationTransaction.donationDate;\n        status = donationTransaction.status;\n        donatedVolume = donationTransaction.donatedVolume;\n        bloodTestResult = donationTransaction.bloodTestResult;\n    }\n\n    function getAllDonationTransaction(\n        uint256 _transactionID\n    )\n        public\n        view\n        returns (\n            uint256 transactionID,\n            address donorPublicAddress,\n            address recipientPublicAddress,\n            address transporterPublicAddress,\n            string memory bloodType,\n            uint256 donationDate,\n            TransactionStatus status,\n            uint256 donatedVolume,\n            string memory bloodTestResult\n        )\n    {\n        DonationTransaction memory allDonationTransaction = allDonationTransactions[_transactionID];\n        transactionID = allDonationTransaction.transactionID;\n        donorPublicAddress = allDonationTransaction.donor;\n        recipientPublicAddress = allDonationTransaction.recipient;\n        transporterPublicAddress = allDonationTransaction.transporter;\n        bloodType = allDonationTransaction.bloodType;\n        donationDate = allDonationTransaction.donationDate;\n        status = allDonationTransaction.status;\n        donatedVolume = allDonationTransaction.donatedVolume;\n        bloodTestResult = allDonationTransaction.bloodTestResult;\n    }\n\n    // ---------------- End Donation initialization ---------------------\n\n    // ---------------- Start Complete Donation  ------------------------\n\n    function completeDonationToMedicalCenter(\n        uint256 _transactionID,\n        string memory _bloodType,\n        uint256 _bloodPressure,\n        uint256 _hemoglobinLevel,\n        string memory _bloodTestResults\n    ) public onlyMedicalStaff {\n        require(\n            donationTransactions[msg.sender][_transactionID].status ==\n                TransactionStatus.Shipped,\n            \"Invalid transaction status\"\n        );\n        require(\n            donationTransactions[msg.sender][_transactionID].donor != address(0),\n            \"Invalid donor address\"\n        );\n\n        donationTransactions[msg.sender][_transactionID].medicalStaff = msg.sender;\n        donationTransactions[msg.sender][_transactionID].bloodType = _bloodType;\n        donationTransactions[msg.sender][_transactionID].status = TransactionStatus.Active;\n        donationTransactions[msg.sender][_transactionID].bloodTestResult = _bloodTestResults;\n        allDonationTransactions[_transactionID].medicalStaff = msg.sender;\n        allDonationTransactions[_transactionID].bloodType = _bloodType;\n        allDonationTransactions[_transactionID].status = TransactionStatus.Active;\n        allDonationTransactions[_transactionID].bloodTestResult = _bloodTestResults;\n        donorContract.updateDonorBloodType(donationTransactions[msg.sender][_transactionID].donor, _bloodType);\n        donorContract.updateDonationHistory(donationTransactions[msg.sender][_transactionID].donor, _transactionID);\n\n        uint256 recordID = block.timestamp;\n        medicalRecords[msg.sender][recordID] = MedicalRecord({\n            recordID: recordID,\n            transactionID: _transactionID,\n            donor: donationTransactions[msg.sender][_transactionID].donor,\n            bloodType: _bloodType,\n            medicalStaff: msg.sender,\n            bloodPressure: _bloodPressure,\n            hemoglobinLevel: _hemoglobinLevel,\n            bloodTestResults: _bloodTestResults\n            // donationHistory: new uint256[](0)\n        });\n        medicalRecordsArr.push(recordID);\n\n        // uint256 payment = calculatePayment(\n        //     donors[donationTransactions[_transactionID].donor].donatedVolume\n        // );\n        // uint256 payment = calculatePayment(_transactionID);\n        // donors[donationTransactions[_transactionID].donor]\n        //     .totalPayment += payment;\n        // payable(msg.sender).transfer(payment);\n    }\n\n    function getMedicalRecordsArr()\n        public\n        view\n        returns (uint256[] memory)\n    {\n        return medicalRecordsArr;\n    }\n\n    function getMedicalRecord(\n        address _medicalCenterAddress,\n        uint256 _medicalRecordID\n    )\n        public\n        view\n        returns (\n            uint256 medicalRecordID,\n            uint256 transactionID,\n            address donorAddress,\n            string memory bloodType,\n            address medicalStaff,\n            uint256 bloodPressure,\n            uint256 hemoglobinLevel,\n            string memory bloodTestResult\n        )\n    {\n        MedicalRecord memory medicalRecord = medicalRecords[_medicalCenterAddress][\n            _medicalRecordID\n        ];\n        medicalRecordID = medicalRecord.recordID;\n        transactionID = medicalRecord.transactionID;\n        donorAddress = medicalRecord.donor;\n        bloodType = medicalRecord.bloodType;\n        medicalStaff = medicalRecord.medicalStaff;\n        bloodPressure = medicalRecord.bloodPressure;\n        hemoglobinLevel = medicalRecord.hemoglobinLevel;\n        bloodTestResult = medicalRecord.bloodTestResults;\n    }\n\n    // ---------------- End Complete Donation  ------------------------\n\n    function initiateTransportation(\n        address _medicalCenterPublicAddress,\n        uint256 _transactionID,\n        address _recipient\n        // string memory _medicalCenter\n    ) public {\n        require(\n            donationTransactions[_medicalCenterPublicAddress][_transactionID].status ==\n                TransactionStatus.Active,\n            \"Medical center process not Active\"\n        );\n\n        uint256 transactionID = block.timestamp;\n        address donorAddress_ = donationTransactions[_medicalCenterPublicAddress][_transactionID].donor;\n        donationTransactions[_medicalCenterPublicAddress][transactionID] = DonationTransaction({\n            transactionID: transactionID,\n            donor: donorAddress_,\n            recipient: _recipient,\n            medicalStaff: _medicalCenterPublicAddress,\n            transporter: msg.sender,\n            bloodType: donationTransactions[_medicalCenterPublicAddress][_transactionID].bloodType,\n            donationDate: donationTransactions[_medicalCenterPublicAddress][_transactionID].donationDate,\n            status: donationTransactions[_medicalCenterPublicAddress][_transactionID].status,\n            donatedVolume: donorContract.readDonors(donorAddress_).donatedVolume,\n            bloodTestResult: donationTransactions[_medicalCenterPublicAddress][_transactionID].bloodTestResult\n        });\n    }\n\n    function completeTransportation(\n        address _medicalCenterPublicAddress,\n        uint256 _recordID,\n        uint256 _transactionID\n    ) public {\n        // onlyTransporter\n        require(\n            transportationRecords[_recordID].status ==\n                TransportationStatus.InTransit,\n            \"Transportation already completed or not initiated\"\n        );\n        transportationRecords[_recordID].deliveryDateTime = block.timestamp;\n        transportationRecords[_recordID].status = TransportationStatus\n            .Delivered;\n        donationTransactions[_medicalCenterPublicAddress][_transactionID].transporter = msg.sender;\n    }\n\n    // function calculatePayment(\n    //     uint256 _transactionID\n    // ) internal view returns (uint256) {\n    //     require(\n    //         donationTransactions[_transactionID].status ==\n    //             TransactionStatus.Completed,\n    //         \"Transaction not completed\"\n    //     );\n    //     // Assuming a fixed payment rate for simplicity\n    //     uint256 _donatedVolume = donationTransactions[_transactionID]\n    //         .donatedVolume;\n    //     uint256 paymentRate = 1 gwei; // 1gwei/ml\n    //     return _donatedVolume * paymentRate;\n    // }\n\n    // function addBloodSupply(string memory _bloodType, uint256 _volume) public {\n    //     // onlyMedicalStaff\n    //     require(_volume > 0, \"Volume must be greater than zero\");\n    //     require(\n    //         bloodSupplies[_bloodType].status != BloodSupplyStatus.Requested,\n    //         \"Blood type already requested\"\n    //     );\n\n    //     if (bloodSupplies[_bloodType].status == BloodSupplyStatus.Available) {\n    //         bloodSupplies[_bloodType].volume += _volume;\n    //     } else {\n    //         bloodSupplies[_bloodType] = BloodSupply({\n    //             bloodType: _bloodType,\n    //             volume: _volume,\n    //             status: BloodSupplyStatus.Available\n    //         });\n    //     }\n    // }\n\n    // function requestBloodType(\n    //     string memory _bloodType,\n    //     uint256 _volume\n    // ) public {\n    //     // onlyMedicalStaff\n    //     require(\n    //         bloodSupplies[_bloodType].status == BloodSupplyStatus.Available,\n    //         \"Blood type not available\"\n    //     );\n    //     require(\n    //         bloodSupplies[_bloodType].volume >= _volume,\n    //         \"Insufficient blood volume\"\n    //     );\n\n        // You can add more logic here to handle the request\n        // For example, update the blood supply status or create a new transaction record\n    // }\n\n}\n",
  "sourcePath": "/home/temba/Desktop/blood-donation-blockchain-system/client-side/contracts/BloodDonationBlockchainSystem.sol",
  "compiler": {
    "name": "solc",
    "version": "0.8.19+commit.7dd6d404.Emscripten.clang"
  },
  "schemaVersion": "3.4.16",
  "updatedAt": "2024-03-12T16:28:50.872Z",
  "networkType": "ethereum",
  "devdoc": {
    "author": "Josephat E. Temba",
    "custom:fyp": "This is the final year project for cive students",
    "details": "This is best aproach for developers to learn how real dapp looking for",
    "kind": "dev",
    "methods": {},
    "title": "Blood Donation Blockchain-based System",
    "version": 1
  },
  "userdoc": {
    "kind": "user",
    "methods": {},
    "notice": "You can use this smart contract in real blood donation operations",
    "version": 1
  }
}