{
  "contractName": "BloodDonationBlockchainSystem",
  "abi": [
    {
      "inputs": [],
      "stateMutability": "nonpayable",
      "type": "constructor"
    },
    {
      "inputs": [
        {
          "internalType": "string",
          "name": "",
          "type": "string"
        }
      ],
      "name": "bloodSupplies",
      "outputs": [
        {
          "internalType": "string",
          "name": "bloodType",
          "type": "string"
        },
        {
          "internalType": "uint256",
          "name": "volume",
          "type": "uint256"
        },
        {
          "internalType": "enum BloodDonationBlockchainSystem.BloodSupplyStatus",
          "name": "status",
          "type": "uint8"
        }
      ],
      "stateMutability": "view",
      "type": "function",
      "constant": true
    },
    {
      "inputs": [
        {
          "internalType": "uint256",
          "name": "",
          "type": "uint256"
        }
      ],
      "name": "donationTransactions",
      "outputs": [
        {
          "internalType": "uint256",
          "name": "transactionID",
          "type": "uint256"
        },
        {
          "internalType": "address",
          "name": "donor",
          "type": "address"
        },
        {
          "internalType": "address",
          "name": "recipient",
          "type": "address"
        },
        {
          "internalType": "address",
          "name": "medicalStaff",
          "type": "address"
        },
        {
          "internalType": "address",
          "name": "transporter",
          "type": "address"
        },
        {
          "internalType": "string",
          "name": "bloodType",
          "type": "string"
        },
        {
          "internalType": "uint256",
          "name": "donationDate",
          "type": "uint256"
        },
        {
          "internalType": "enum BloodDonationBlockchainSystem.TransactionStatus",
          "name": "status",
          "type": "uint8"
        },
        {
          "internalType": "string",
          "name": "medicalCenter",
          "type": "string"
        },
        {
          "internalType": "uint256",
          "name": "donatedVolume",
          "type": "uint256"
        }
      ],
      "stateMutability": "view",
      "type": "function",
      "constant": true
    },
    {
      "inputs": [
        {
          "internalType": "uint256",
          "name": "",
          "type": "uint256"
        }
      ],
      "name": "donationTransactionsArr",
      "outputs": [
        {
          "internalType": "uint256",
          "name": "",
          "type": "uint256"
        }
      ],
      "stateMutability": "view",
      "type": "function",
      "constant": true
    },
    {
      "inputs": [
        {
          "internalType": "uint256",
          "name": "",
          "type": "uint256"
        }
      ],
      "name": "donorAddressArr",
      "outputs": [
        {
          "internalType": "address",
          "name": "",
          "type": "address"
        }
      ],
      "stateMutability": "view",
      "type": "function",
      "constant": true
    },
    {
      "inputs": [
        {
          "internalType": "address",
          "name": "",
          "type": "address"
        }
      ],
      "name": "donors",
      "outputs": [
        {
          "internalType": "address",
          "name": "donorPublicAddress",
          "type": "address"
        },
        {
          "internalType": "string",
          "name": "name",
          "type": "string"
        },
        {
          "internalType": "string",
          "name": "bloodType",
          "type": "string"
        },
        {
          "internalType": "string",
          "name": "phoneNumber",
          "type": "string"
        },
        {
          "internalType": "string",
          "name": "password",
          "type": "string"
        },
        {
          "internalType": "uint256",
          "name": "donatedVolume",
          "type": "uint256"
        },
        {
          "internalType": "uint256",
          "name": "totalPayment",
          "type": "uint256"
        },
        {
          "internalType": "bool",
          "name": "isRegistered",
          "type": "bool"
        },
        {
          "internalType": "bool",
          "name": "isLogin",
          "type": "bool"
        }
      ],
      "stateMutability": "view",
      "type": "function",
      "constant": true
    },
    {
      "inputs": [
        {
          "internalType": "uint256",
          "name": "",
          "type": "uint256"
        }
      ],
      "name": "medicaCenterAddressArr",
      "outputs": [
        {
          "internalType": "address",
          "name": "",
          "type": "address"
        }
      ],
      "stateMutability": "view",
      "type": "function",
      "constant": true
    },
    {
      "inputs": [
        {
          "internalType": "uint256",
          "name": "",
          "type": "uint256"
        }
      ],
      "name": "medicalRecords",
      "outputs": [
        {
          "internalType": "uint256",
          "name": "recordID",
          "type": "uint256"
        },
        {
          "internalType": "address",
          "name": "donor",
          "type": "address"
        },
        {
          "internalType": "address",
          "name": "medicalStaff",
          "type": "address"
        },
        {
          "internalType": "uint256",
          "name": "bloodPressure",
          "type": "uint256"
        },
        {
          "internalType": "uint256",
          "name": "hemoglobinLevel",
          "type": "uint256"
        },
        {
          "internalType": "string",
          "name": "bloodTestResults",
          "type": "string"
        },
        {
          "internalType": "bool",
          "name": "HIV",
          "type": "bool"
        }
      ],
      "stateMutability": "view",
      "type": "function",
      "constant": true
    },
    {
      "inputs": [
        {
          "internalType": "address",
          "name": "",
          "type": "address"
        }
      ],
      "name": "medicalsCenters",
      "outputs": [
        {
          "internalType": "address",
          "name": "MCPublicAddress",
          "type": "address"
        },
        {
          "internalType": "string",
          "name": "name",
          "type": "string"
        },
        {
          "internalType": "string",
          "name": "phoneNumber",
          "type": "string"
        },
        {
          "internalType": "string",
          "name": "password",
          "type": "string"
        },
        {
          "internalType": "bool",
          "name": "isRegistered",
          "type": "bool"
        },
        {
          "internalType": "bool",
          "name": "isLogin",
          "type": "bool"
        }
      ],
      "stateMutability": "view",
      "type": "function",
      "constant": true
    },
    {
      "inputs": [],
      "name": "owner",
      "outputs": [
        {
          "internalType": "address",
          "name": "",
          "type": "address"
        }
      ],
      "stateMutability": "view",
      "type": "function",
      "constant": true
    },
    {
      "inputs": [],
      "name": "recordCounter",
      "outputs": [
        {
          "internalType": "uint256",
          "name": "",
          "type": "uint256"
        }
      ],
      "stateMutability": "view",
      "type": "function",
      "constant": true
    },
    {
      "inputs": [],
      "name": "transactionCounter",
      "outputs": [
        {
          "internalType": "uint256",
          "name": "",
          "type": "uint256"
        }
      ],
      "stateMutability": "view",
      "type": "function",
      "constant": true
    },
    {
      "inputs": [
        {
          "internalType": "uint256",
          "name": "",
          "type": "uint256"
        }
      ],
      "name": "transportationRecords",
      "outputs": [
        {
          "internalType": "uint256",
          "name": "recordID",
          "type": "uint256"
        },
        {
          "internalType": "address",
          "name": "transporter",
          "type": "address"
        },
        {
          "internalType": "address",
          "name": "donor",
          "type": "address"
        },
        {
          "internalType": "address",
          "name": "recipient",
          "type": "address"
        },
        {
          "internalType": "uint256",
          "name": "pickupDateTime",
          "type": "uint256"
        },
        {
          "internalType": "uint256",
          "name": "deliveryDateTime",
          "type": "uint256"
        },
        {
          "internalType": "enum BloodDonationBlockchainSystem.TransportationStatus",
          "name": "status",
          "type": "uint8"
        }
      ],
      "stateMutability": "view",
      "type": "function",
      "constant": true
    },
    {
      "inputs": [
        {
          "internalType": "uint256",
          "name": "",
          "type": "uint256"
        }
      ],
      "name": "transporterAddressArr",
      "outputs": [
        {
          "internalType": "address",
          "name": "",
          "type": "address"
        }
      ],
      "stateMutability": "view",
      "type": "function",
      "constant": true
    },
    {
      "inputs": [
        {
          "internalType": "address",
          "name": "",
          "type": "address"
        }
      ],
      "name": "transporters",
      "outputs": [
        {
          "internalType": "address",
          "name": "transporterPublicAddress",
          "type": "address"
        },
        {
          "internalType": "string",
          "name": "name",
          "type": "string"
        },
        {
          "internalType": "string",
          "name": "phoneNumber",
          "type": "string"
        },
        {
          "internalType": "string",
          "name": "password",
          "type": "string"
        },
        {
          "internalType": "bool",
          "name": "isRegistered",
          "type": "bool"
        },
        {
          "internalType": "bool",
          "name": "isLogin",
          "type": "bool"
        }
      ],
      "stateMutability": "view",
      "type": "function",
      "constant": true
    },
    {
      "inputs": [
        {
          "internalType": "address",
          "name": "_donorPublicAddress",
          "type": "address"
        },
        {
          "internalType": "string",
          "name": "_name",
          "type": "string"
        },
        {
          "internalType": "string",
          "name": "_bloodType",
          "type": "string"
        },
        {
          "internalType": "string",
          "name": "_contactNumber",
          "type": "string"
        },
        {
          "internalType": "string",
          "name": "_password",
          "type": "string"
        }
      ],
      "name": "addDonor",
      "outputs": [],
      "stateMutability": "nonpayable",
      "type": "function"
    },
    {
      "inputs": [],
      "name": "getDonorsArr",
      "outputs": [
        {
          "internalType": "address[]",
          "name": "",
          "type": "address[]"
        }
      ],
      "stateMutability": "view",
      "type": "function",
      "constant": true
    },
    {
      "inputs": [
        {
          "internalType": "address",
          "name": "_donorPublicAddress",
          "type": "address"
        }
      ],
      "name": "getDonor",
      "outputs": [
        {
          "internalType": "address",
          "name": "publicAddress",
          "type": "address"
        },
        {
          "internalType": "string",
          "name": "name",
          "type": "string"
        },
        {
          "internalType": "string",
          "name": "bloodType",
          "type": "string"
        },
        {
          "internalType": "string",
          "name": "phoneNumber",
          "type": "string"
        },
        {
          "internalType": "uint256",
          "name": "donatedVolume",
          "type": "uint256"
        },
        {
          "internalType": "uint256",
          "name": "totalPayment",
          "type": "uint256"
        },
        {
          "internalType": "bool",
          "name": "isRegistered",
          "type": "bool"
        }
      ],
      "stateMutability": "view",
      "type": "function",
      "constant": true
    },
    {
      "inputs": [
        {
          "internalType": "address",
          "name": "_transporterPublicAddress",
          "type": "address"
        },
        {
          "internalType": "string",
          "name": "_name",
          "type": "string"
        },
        {
          "internalType": "string",
          "name": "_contactNumber",
          "type": "string"
        },
        {
          "internalType": "string",
          "name": "_password",
          "type": "string"
        }
      ],
      "name": "addTransporter",
      "outputs": [],
      "stateMutability": "nonpayable",
      "type": "function"
    },
    {
      "inputs": [],
      "name": "getTransportersArr",
      "outputs": [
        {
          "internalType": "address[]",
          "name": "",
          "type": "address[]"
        }
      ],
      "stateMutability": "view",
      "type": "function",
      "constant": true
    },
    {
      "inputs": [
        {
          "internalType": "address",
          "name": "_transporterPublicAddress",
          "type": "address"
        }
      ],
      "name": "getTransporter",
      "outputs": [
        {
          "internalType": "address",
          "name": "transporterPublicAddress",
          "type": "address"
        },
        {
          "internalType": "string",
          "name": "name",
          "type": "string"
        },
        {
          "internalType": "string",
          "name": "phoneNumber",
          "type": "string"
        },
        {
          "internalType": "bool",
          "name": "isRegistered",
          "type": "bool"
        }
      ],
      "stateMutability": "view",
      "type": "function",
      "constant": true
    },
    {
      "inputs": [
        {
          "internalType": "address",
          "name": "_MCPublicAddress",
          "type": "address"
        },
        {
          "internalType": "string",
          "name": "_name",
          "type": "string"
        },
        {
          "internalType": "string",
          "name": "_contactNumber",
          "type": "string"
        },
        {
          "internalType": "string",
          "name": "_password",
          "type": "string"
        }
      ],
      "name": "addMedicalCenter",
      "outputs": [],
      "stateMutability": "nonpayable",
      "type": "function"
    },
    {
      "inputs": [
        {
          "internalType": "address",
          "name": "_MCPublicAddress",
          "type": "address"
        },
        {
          "internalType": "string",
          "name": "_password",
          "type": "string"
        }
      ],
      "name": "checkMedicalCenterLogin",
      "outputs": [
        {
          "internalType": "bool",
          "name": "",
          "type": "bool"
        }
      ],
      "stateMutability": "view",
      "type": "function",
      "constant": true
    },
    {
      "inputs": [
        {
          "internalType": "address",
          "name": "_MCPublicAddress",
          "type": "address"
        },
        {
          "internalType": "string",
          "name": "_password",
          "type": "string"
        }
      ],
      "name": "medicalCenterLogin",
      "outputs": [],
      "stateMutability": "nonpayable",
      "type": "function"
    },
    {
      "inputs": [],
      "name": "getMedicalCentersArr",
      "outputs": [
        {
          "internalType": "address[]",
          "name": "",
          "type": "address[]"
        }
      ],
      "stateMutability": "view",
      "type": "function",
      "constant": true
    },
    {
      "inputs": [
        {
          "internalType": "address",
          "name": "_medicalStaffPublicAddress",
          "type": "address"
        }
      ],
      "name": "getMedicalCenter",
      "outputs": [
        {
          "internalType": "address",
          "name": "MCPublicAddress",
          "type": "address"
        },
        {
          "internalType": "string",
          "name": "name",
          "type": "string"
        },
        {
          "internalType": "string",
          "name": "phoneNumber",
          "type": "string"
        },
        {
          "internalType": "bool",
          "name": "isRegistered",
          "type": "bool"
        }
      ],
      "stateMutability": "view",
      "type": "function",
      "constant": true
    },
    {
      "inputs": [
        {
          "internalType": "address",
          "name": "_donorPublicAddress",
          "type": "address"
        },
        {
          "internalType": "uint256",
          "name": "_volume",
          "type": "uint256"
        }
      ],
      "name": "donateBloodToMedicalCenter",
      "outputs": [],
      "stateMutability": "nonpayable",
      "type": "function"
    },
    {
      "inputs": [],
      "name": "getDonationTransactionArr",
      "outputs": [
        {
          "internalType": "uint256[]",
          "name": "",
          "type": "uint256[]"
        }
      ],
      "stateMutability": "view",
      "type": "function",
      "constant": true
    },
    {
      "inputs": [
        {
          "internalType": "uint256",
          "name": "_transactionID",
          "type": "uint256"
        }
      ],
      "name": "getDonationTransaction",
      "outputs": [
        {
          "internalType": "uint256",
          "name": "transactionID",
          "type": "uint256"
        },
        {
          "internalType": "address",
          "name": "donorPublicAddress",
          "type": "address"
        },
        {
          "internalType": "address",
          "name": "recipientPublicAddress",
          "type": "address"
        },
        {
          "internalType": "address",
          "name": "transporterPublicAddress",
          "type": "address"
        },
        {
          "internalType": "string",
          "name": "bloodType",
          "type": "string"
        },
        {
          "internalType": "uint256",
          "name": "donationDate",
          "type": "uint256"
        },
        {
          "internalType": "enum BloodDonationBlockchainSystem.TransactionStatus",
          "name": "status",
          "type": "uint8"
        },
        {
          "internalType": "string",
          "name": "medicalCenter",
          "type": "string"
        },
        {
          "internalType": "uint256",
          "name": "donatedVolume",
          "type": "uint256"
        }
      ],
      "stateMutability": "view",
      "type": "function",
      "constant": true
    },
    {
      "inputs": [
        {
          "internalType": "uint256",
          "name": "_transactionID",
          "type": "uint256"
        },
        {
          "internalType": "string",
          "name": "_medicalCenter",
          "type": "string"
        },
        {
          "internalType": "uint256",
          "name": "_bloodPressure",
          "type": "uint256"
        },
        {
          "internalType": "uint256",
          "name": "_hemoglobinLevel",
          "type": "uint256"
        },
        {
          "internalType": "bool",
          "name": "_HIV",
          "type": "bool"
        },
        {
          "internalType": "string",
          "name": "_bloodTestResults",
          "type": "string"
        }
      ],
      "name": "completeDonationToMedicalCenter",
      "outputs": [],
      "stateMutability": "nonpayable",
      "type": "function"
    },
    {
      "inputs": [
        {
          "internalType": "uint256",
          "name": "_transactionID",
          "type": "uint256"
        },
        {
          "internalType": "address",
          "name": "_recipient",
          "type": "address"
        },
        {
          "internalType": "string",
          "name": "_medicalCenter",
          "type": "string"
        }
      ],
      "name": "initiateTransportation",
      "outputs": [],
      "stateMutability": "nonpayable",
      "type": "function"
    },
    {
      "inputs": [
        {
          "internalType": "uint256",
          "name": "_recordID",
          "type": "uint256"
        },
        {
          "internalType": "uint256",
          "name": "_transactionID",
          "type": "uint256"
        }
      ],
      "name": "completeTransportation",
      "outputs": [],
      "stateMutability": "nonpayable",
      "type": "function"
    },
    {
      "inputs": [
        {
          "internalType": "string",
          "name": "_bloodType",
          "type": "string"
        },
        {
          "internalType": "uint256",
          "name": "_volume",
          "type": "uint256"
        }
      ],
      "name": "addBloodSupply",
      "outputs": [],
      "stateMutability": "nonpayable",
      "type": "function"
    },
    {
      "inputs": [
        {
          "internalType": "string",
          "name": "_bloodType",
          "type": "string"
        },
        {
          "internalType": "uint256",
          "name": "_volume",
          "type": "uint256"
        }
      ],
      "name": "requestBloodType",
      "outputs": [],
      "stateMutability": "nonpayable",
      "type": "function"
    }
  ],
  "bytecode": "0x608060405234801561001057600080fd5b50336000806101000a81548173ffffffffffffffffffffffffffffffffffffffff021916908373ffffffffffffffffffffffffffffffffffffffff160217905550615a9280620000616000396000f3fe608060405234801561001057600080fd5b50600436106101fb5760003560e01c80638acd0bfc1161011a578063bc79c102116100ad578063cfaa5be21161007c578063cfaa5be21461064b578063d04398d614610667578063d313e8a114610685578063e25bd158146106ba578063e404fea2146106ef576101fb565b8063bc79c102146105a5578063c02b9f5a146105c1578063ca0cdea8146105f7578063cb2edb6a1461062f576101fb565b80639c1bc07b116100e95780639c1bc07b146104f4578063ac6cb23714610526578063ae2a7ad514610556578063b980493514610572576101fb565b80638acd0bfc146104345780638bbcbd1b1461046d5780638da5cb5b146104a057806396c59043146104be576101fb565b806344d38d70116101925780637325da9e116101615780637325da9e146103a65780637564a13c146103c25780637599be5d146103f85780637b4843de14610416576101fb565b806344d38d701461032057806348803dbf1461035057806352ca81c11461036c57806365bec3e81461038a576101fb565b80631eb850b1116101ce5780631eb850b11461028657806325c368fe146102a45780632cfb9c11146102d45780633a42b00f14610304576101fb565b80630234e9051461020057806314e887e81461021c57806315eb1adf1461023a578063197bd71e1461026a575b600080fd5b61021a6004803603810190610215919061408f565b610727565b005b610224610b96565b6040516102319190614163565b60405180910390f35b610254600480360381019061024f919061417e565b610b9c565b60405161026191906141ec565b60405180910390f35b610284600480360381019061027f9190614207565b610bdb565b005b61028e610ded565b60405161029b9190614321565b60405180910390f35b6102be60048036038101906102b9919061436f565b610e7b565b6040516102cb91906143da565b60405180910390f35b6102ee60048036038101906102e9919061417e565b6110c0565b6040516102fb91906141ec565b60405180910390f35b61031e600480360381019061031991906143f5565b6110ff565b005b61033a6004803603810190610335919061417e565b611546565b6040516103479190614163565b60405180910390f35b61036a60048036038101906103659190614464565b61156a565b005b6103746117fe565b6040516103819190614321565b60405180910390f35b6103a4600480360381019061039f9190614207565b61188c565b005b6103c060048036038101906103bb919061454f565b611989565b005b6103dc60048036038101906103d7919061417e565b611b46565b6040516103ef9796959493929190614689565b60405180910390f35b610400611c5d565b60405161040d9190614163565b60405180910390f35b61041e611c63565b60405161042b9190614321565b60405180910390f35b61044e6004803603810190610449919061417e565b611cf1565b6040516104649a99989796959493929190614776565b60405180910390f35b61048760048036038101906104829190614820565b611ee2565b604051610497949392919061484d565b60405180910390f35b6104a861219c565b6040516104b591906141ec565b60405180910390f35b6104d860048036038101906104d39190614820565b6121c0565b6040516104eb97969594939291906148a0565b60405180910390f35b61050e60048036038101906105099190614924565b61253f565b60405161051d939291906149b5565b60405180910390f35b610540600480360381019061053b919061417e565b612614565b60405161054d91906141ec565b60405180910390f35b610570600480360381019061056b919061436f565b612653565b005b61058c60048036038101906105879190614820565b6126fb565b60405161059c949392919061484d565b60405180910390f35b6105bf60048036038101906105ba919061454f565b6129b5565b005b6105db60048036038101906105d6919061417e565b612b72565b6040516105ee9796959493929190614a3b565b60405180910390f35b610611600480360381019061060c9190614820565b612c21565b60405161062699989796959493929190614aaa565b60405180910390f35b61064960048036038101906106449190614b53565b612ec9565b005b61066560048036038101906106609190614b93565b613006565b005b61066f613547565b60405161067c9190614c91565b60405180910390f35b61069f600480360381019061069a9190614820565b61359f565b6040516106b196959493929190614cb3565b60405180910390f35b6106d460048036038101906106cf9190614820565b6137ad565b6040516106e696959493929190614cb3565b60405180910390f35b6107096004803603810190610704919061417e565b6139bb565b60405161071e99989796959493929190614d29565b60405180910390f35b6000600181111561073b5761073a6146ff565b5b6004600088815260200190815260200160002060070160009054906101000a900460ff166001811115610771576107706146ff565b5b146107b1576040517f08c379a00000000000000000000000000000000000000000000000000000000081526004016107a890614e10565b60405180910390fd5b600073ffffffffffffffffffffffffffffffffffffffff166004600088815260200190815260200160002060010160009054906101000a900473ffffffffffffffffffffffffffffffffffffffff1673ffffffffffffffffffffffffffffffffffffffff1603610856576040517f08c379a000000000000000000000000000000000000000000000000000000000815260040161084d90614e7c565b60405180910390fd5b336004600088815260200190815260200160002060030160006101000a81548173ffffffffffffffffffffffffffffffffffffffff021916908373ffffffffffffffffffffffffffffffffffffffff160217905550846004600088815260200190815260200160002060080190816108ce91906150a8565b5060016004600088815260200190815260200160002060070160006101000a81548160ff02191690836001811115610909576109086146ff565b5b02179055506000610918613d10565b90506040518060e00160405280828152602001600460008a815260200190815260200160002060010160009054906101000a900473ffffffffffffffffffffffffffffffffffffffff1673ffffffffffffffffffffffffffffffffffffffff1681526020013373ffffffffffffffffffffffffffffffffffffffff168152602001868152602001858152602001838152602001841515815250600560008381526020019081526020016000206000820151816000015560208201518160010160006101000a81548173ffffffffffffffffffffffffffffffffffffffff021916908373ffffffffffffffffffffffffffffffffffffffff16021790555060408201518160020160006101000a81548173ffffffffffffffffffffffffffffffffffffffff021916908373ffffffffffffffffffffffffffffffffffffffff160217905550606082015181600301556080820151816004015560a0820151816005019081610a8591906150a8565b5060c08201518160060160006101000a81548160ff0219169083151502179055509050506000610ab488613d5d565b90508060016000600460008c815260200190815260200160002060010160009054906101000a900473ffffffffffffffffffffffffffffffffffffffff1673ffffffffffffffffffffffffffffffffffffffff1673ffffffffffffffffffffffffffffffffffffffff1681526020019081526020016000206006016000828254610b3e91906151a9565b925050819055503373ffffffffffffffffffffffffffffffffffffffff166108fc829081150290604051600060405180830381858888f19350505050158015610b8b573d6000803e3d6000fd5b505050505050505050565b600c5481565b60088181548110610bac57600080fd5b906000526020600020016000915054906101000a900473ffffffffffffffffffffffffffffffffffffffff1681565b60008111610c1e576040517f08c379a0000000000000000000000000000000000000000000000000000000008152600401610c1590615229565b60405180910390fd5b600180811115610c3157610c306146ff565b5b600783604051610c419190615285565b908152602001604051809103902060020160009054906101000a900460ff166001811115610c7257610c716146ff565b5b03610cb2576040517f08c379a0000000000000000000000000000000000000000000000000000000008152600401610ca9906152e8565b60405180910390fd5b60006001811115610cc657610cc56146ff565b5b600783604051610cd69190615285565b908152602001604051809103902060020160009054906101000a900460ff166001811115610d0757610d066146ff565b5b03610d495780600783604051610d1d9190615285565b90815260200160405180910390206001016000828254610d3d91906151a9565b92505081905550610de9565b604051806060016040528083815260200182815260200160006001811115610d7457610d736146ff565b5b815250600783604051610d879190615285565b90815260200160405180910390206000820151816000019081610daa91906150a8565b506020820151816001015560408201518160020160006101000a81548160ff02191690836001811115610de057610ddf6146ff565b5b02179055509050505b5050565b60606008805480602002602001604051908101604052809291908181526020018280548015610e7157602002820191906000526020600020905b8160009054906101000a900473ffffffffffffffffffffffffffffffffffffffff1673ffffffffffffffffffffffffffffffffffffffff1681526020019060010190808311610e27575b5050505050905090565b600060011515600360008573ffffffffffffffffffffffffffffffffffffffff1673ffffffffffffffffffffffffffffffffffffffff16815260200190815260200160002060040160009054906101000a900460ff16151514610f13576040517f08c379a0000000000000000000000000000000000000000000000000000000008152600401610f0a90615354565b60405180910390fd5b600360008473ffffffffffffffffffffffffffffffffffffffff1673ffffffffffffffffffffffffffffffffffffffff16815260200190815260200160002060040160019054906101000a900460ff1615610fa3576040517f08c379a0000000000000000000000000000000000000000000000000000000008152600401610f9a906153c0565b60405180910390fd5b611077600360008573ffffffffffffffffffffffffffffffffffffffff1673ffffffffffffffffffffffffffffffffffffffff1681526020019081526020016000206003018054610ff390614ecb565b80601f016020809104026020016040519081016040528092919081815260200182805461101f90614ecb565b801561106c5780601f106110415761010080835404028352916020019161106c565b820191906000526020600020905b81548152906001019060200180831161104f57829003601f168201915b505050505083613e21565b6110b6576040517f08c379a00000000000000000000000000000000000000000000000000000000081526004016110ad9061542c565b60405180910390fd5b6001905092915050565b600a81815481106110d057600080fd5b906000526020600020016000915054906101000a900473ffffffffffffffffffffffffffffffffffffffff1681565b600180811115611112576111116146ff565b5b6004600085815260200190815260200160002060070160009054906101000a900460ff166001811115611148576111476146ff565b5b14611188576040517f08c379a000000000000000000000000000000000000000000000000000000000815260040161117f906154be565b60405180910390fd5b6000611192613e7a565b90506040518061014001604052808281526020016004600087815260200190815260200160002060010160009054906101000a900473ffffffffffffffffffffffffffffffffffffffff1673ffffffffffffffffffffffffffffffffffffffff1681526020018473ffffffffffffffffffffffffffffffffffffffff1681526020013373ffffffffffffffffffffffffffffffffffffffff168152602001600073ffffffffffffffffffffffffffffffffffffffff16815260200160046000878152602001908152602001600020600501805461126e90614ecb565b80601f016020809104026020016040519081016040528092919081815260200182805461129a90614ecb565b80156112e75780601f106112bc576101008083540402835291602001916112e7565b820191906000526020600020905b8154815290600101906020018083116112ca57829003601f168201915b505050505081526020014281526020016000600181111561130b5761130a6146ff565b5b8152602001838152602001600160006004600089815260200190815260200160002060010160009054906101000a900473ffffffffffffffffffffffffffffffffffffffff1673ffffffffffffffffffffffffffffffffffffffff1673ffffffffffffffffffffffffffffffffffffffff16815260200190815260200160002060050154815250600460008381526020019081526020016000206000820151816000015560208201518160010160006101000a81548173ffffffffffffffffffffffffffffffffffffffff021916908373ffffffffffffffffffffffffffffffffffffffff16021790555060408201518160020160006101000a81548173ffffffffffffffffffffffffffffffffffffffff021916908373ffffffffffffffffffffffffffffffffffffffff16021790555060608201518160030160006101000a81548173ffffffffffffffffffffffffffffffffffffffff021916908373ffffffffffffffffffffffffffffffffffffffff16021790555060808201518160040160006101000a81548173ffffffffffffffffffffffffffffffffffffffff021916908373ffffffffffffffffffffffffffffffffffffffff16021790555060a08201518160050190816114e091906150a8565b5060c0820151816006015560e08201518160070160006101000a81548160ff02191690836001811115611516576115156146ff565b5b021790555061010082015181600801908161153191906150a8565b50610120820151816009015590505050505050565b600b818154811061155657600080fd5b906000526020600020016000915090505481565b60001515600160008773ffffffffffffffffffffffffffffffffffffffff1673ffffffffffffffffffffffffffffffffffffffff16815260200190815260200160002060070160009054906101000a900460ff16151514611600576040517f08c379a00000000000000000000000000000000000000000000000000000000081526004016115f79061552a565b60405180910390fd5b6040518061012001604052808673ffffffffffffffffffffffffffffffffffffffff168152602001858152602001848152602001838152602001828152602001600081526020016000815260200160011515815260200160001515815250600160008773ffffffffffffffffffffffffffffffffffffffff1673ffffffffffffffffffffffffffffffffffffffff16815260200190815260200160002060008201518160000160006101000a81548173ffffffffffffffffffffffffffffffffffffffff021916908373ffffffffffffffffffffffffffffffffffffffff16021790555060208201518160010190816116f991906150a8565b50604082015181600201908161170f91906150a8565b50606082015181600301908161172591906150a8565b50608082015181600401908161173b91906150a8565b5060a0820151816005015560c0820151816006015560e08201518160070160006101000a81548160ff0219169083151502179055506101008201518160070160016101000a81548160ff0219169083151502179055509050506008859080600181540180825580915050600190039060005260206000200160009091909190916101000a81548173ffffffffffffffffffffffffffffffffffffffff021916908373ffffffffffffffffffffffffffffffffffffffff1602179055505050505050565b6060600980548060200260200160405190810160405280929190818152602001828054801561188257602002820191906000526020600020905b8160009054906101000a900473ffffffffffffffffffffffffffffffffffffffff1673ffffffffffffffffffffffffffffffffffffffff1681526020019060010190808311611838575b5050505050905090565b600060018111156118a05761189f6146ff565b5b6007836040516118b09190615285565b908152602001604051809103902060020160009054906101000a900460ff1660018111156118e1576118e06146ff565b5b14611921576040517f08c379a000000000000000000000000000000000000000000000000000000000815260040161191890615596565b60405180910390fd5b806007836040516119329190615285565b9081526020016040518091039020600101541015611985576040517f08c379a000000000000000000000000000000000000000000000000000000000815260040161197c90615602565b60405180910390fd5b5050565b6040518060c001604052808573ffffffffffffffffffffffffffffffffffffffff16815260200184815260200183815260200182815260200160011515815260200160001515815250600360008673ffffffffffffffffffffffffffffffffffffffff1673ffffffffffffffffffffffffffffffffffffffff16815260200190815260200160002060008201518160000160006101000a81548173ffffffffffffffffffffffffffffffffffffffff021916908373ffffffffffffffffffffffffffffffffffffffff1602179055506020820151816001019081611a6d91906150a8565b506040820151816002019081611a8391906150a8565b506060820151816003019081611a9991906150a8565b5060808201518160040160006101000a81548160ff02191690831515021790555060a08201518160040160016101000a81548160ff021916908315150217905550905050600a849080600181540180825580915050600190039060005260206000200160009091909190916101000a81548173ffffffffffffffffffffffffffffffffffffffff021916908373ffffffffffffffffffffffffffffffffffffffff16021790555050505050565b60056020528060005260406000206000915090508060000154908060010160009054906101000a900473ffffffffffffffffffffffffffffffffffffffff16908060020160009054906101000a900473ffffffffffffffffffffffffffffffffffffffff1690806003015490806004015490806005018054611bc790614ecb565b80601f0160208091040260200160405190810160405280929190818152602001828054611bf390614ecb565b8015611c405780601f10611c1557610100808354040283529160200191611c40565b820191906000526020600020905b815481529060010190602001808311611c2357829003601f168201915b5050505050908060060160009054906101000a900460ff16905087565b600d5481565b6060600a805480602002602001604051908101604052809291908181526020018280548015611ce757602002820191906000526020600020905b8160009054906101000a900473ffffffffffffffffffffffffffffffffffffffff1673ffffffffffffffffffffffffffffffffffffffff1681526020019060010190808311611c9d575b5050505050905090565b60046020528060005260406000206000915090508060000154908060010160009054906101000a900473ffffffffffffffffffffffffffffffffffffffff16908060020160009054906101000a900473ffffffffffffffffffffffffffffffffffffffff16908060030160009054906101000a900473ffffffffffffffffffffffffffffffffffffffff16908060040160009054906101000a900473ffffffffffffffffffffffffffffffffffffffff1690806005018054611db290614ecb565b80601f0160208091040260200160405190810160405280929190818152602001828054611dde90614ecb565b8015611e2b5780601f10611e0057610100808354040283529160200191611e2b565b820191906000526020600020905b815481529060010190602001808311611e0e57829003601f168201915b5050505050908060060154908060070160009054906101000a900460ff1690806008018054611e5990614ecb565b80601f0160208091040260200160405190810160405280929190818152602001828054611e8590614ecb565b8015611ed25780601f10611ea757610100808354040283529160200191611ed2565b820191906000526020600020905b815481529060010190602001808311611eb557829003601f168201915b505050505090806009015490508a565b6000606080600080600260008773ffffffffffffffffffffffffffffffffffffffff1673ffffffffffffffffffffffffffffffffffffffff1681526020019081526020016000206040518060c00160405290816000820160009054906101000a900473ffffffffffffffffffffffffffffffffffffffff1673ffffffffffffffffffffffffffffffffffffffff1673ffffffffffffffffffffffffffffffffffffffff168152602001600182018054611f9a90614ecb565b80601f0160208091040260200160405190810160405280929190818152602001828054611fc690614ecb565b80156120135780601f10611fe857610100808354040283529160200191612013565b820191906000526020600020905b815481529060010190602001808311611ff657829003601f168201915b5050505050815260200160028201805461202c90614ecb565b80601f016020809104026020016040519081016040528092919081815260200182805461205890614ecb565b80156120a55780601f1061207a576101008083540402835291602001916120a5565b820191906000526020600020905b81548152906001019060200180831161208857829003601f168201915b505050505081526020016003820180546120be90614ecb565b80601f01602080910402602001604051908101604052809291908181526020018280546120ea90614ecb565b80156121375780601f1061210c57610100808354040283529160200191612137565b820191906000526020600020905b81548152906001019060200180831161211a57829003601f168201915b505050505081526020016004820160009054906101000a900460ff161515151581526020016004820160019054906101000a900460ff161515151581525050905080600001519450806020015193508060400151925080608001519150509193509193565b60008054906101000a900473ffffffffffffffffffffffffffffffffffffffff1681565b60006060806060600080600080600160008a73ffffffffffffffffffffffffffffffffffffffff1673ffffffffffffffffffffffffffffffffffffffff168152602001908152602001600020604051806101200160405290816000820160009054906101000a900473ffffffffffffffffffffffffffffffffffffffff1673ffffffffffffffffffffffffffffffffffffffff1673ffffffffffffffffffffffffffffffffffffffff16815260200160018201805461227e90614ecb565b80601f01602080910402602001604051908101604052809291908181526020018280546122aa90614ecb565b80156122f75780601f106122cc576101008083540402835291602001916122f7565b820191906000526020600020905b8154815290600101906020018083116122da57829003601f168201915b5050505050815260200160028201805461231090614ecb565b80601f016020809104026020016040519081016040528092919081815260200182805461233c90614ecb565b80156123895780601f1061235e57610100808354040283529160200191612389565b820191906000526020600020905b81548152906001019060200180831161236c57829003601f168201915b505050505081526020016003820180546123a290614ecb565b80601f01602080910402602001604051908101604052809291908181526020018280546123ce90614ecb565b801561241b5780601f106123f05761010080835404028352916020019161241b565b820191906000526020600020905b8154815290600101906020018083116123fe57829003601f168201915b5050505050815260200160048201805461243490614ecb565b80601f016020809104026020016040519081016040528092919081815260200182805461246090614ecb565b80156124ad5780601f10612482576101008083540402835291602001916124ad565b820191906000526020600020905b81548152906001019060200180831161249057829003601f168201915b5050505050815260200160058201548152602001600682015481526020016007820160009054906101000a900460ff161515151581526020016007820160019054906101000a900460ff1615151515815250509050806000015197508060200151965080604001519550806060015194508060a0015193508060c0015192508060e00151915050919395979092949650565b60078180516020810182018051848252602083016020850120818352809550505050505060009150905080600001805461257890614ecb565b80601f01602080910402602001604051908101604052809291908181526020018280546125a490614ecb565b80156125f15780601f106125c6576101008083540402835291602001916125f1565b820191906000526020600020905b8154815290600101906020018083116125d457829003601f168201915b5050505050908060010154908060020160009054906101000a900460ff16905083565b6009818154811061262457600080fd5b906000526020600020016000915054906101000a900473ffffffffffffffffffffffffffffffffffffffff1681565b61265d8282610e7b565b61269c576040517f08c379a00000000000000000000000000000000000000000000000000000000081526004016126939061566e565b60405180910390fd5b6001600360008473ffffffffffffffffffffffffffffffffffffffff1673ffffffffffffffffffffffffffffffffffffffff16815260200190815260200160002060040160016101000a81548160ff0219169083151502179055505050565b6000606080600080600360008773ffffffffffffffffffffffffffffffffffffffff1673ffffffffffffffffffffffffffffffffffffffff1681526020019081526020016000206040518060c00160405290816000820160009054906101000a900473ffffffffffffffffffffffffffffffffffffffff1673ffffffffffffffffffffffffffffffffffffffff1673ffffffffffffffffffffffffffffffffffffffff1681526020016001820180546127b390614ecb565b80601f01602080910402602001604051908101604052809291908181526020018280546127df90614ecb565b801561282c5780601f106128015761010080835404028352916020019161282c565b820191906000526020600020905b81548152906001019060200180831161280f57829003601f168201915b5050505050815260200160028201805461284590614ecb565b80601f016020809104026020016040519081016040528092919081815260200182805461287190614ecb565b80156128be5780601f10612893576101008083540402835291602001916128be565b820191906000526020600020905b8154815290600101906020018083116128a157829003601f168201915b505050505081526020016003820180546128d790614ecb565b80601f016020809104026020016040519081016040528092919081815260200182805461290390614ecb565b80156129505780601f1061292557610100808354040283529160200191612950565b820191906000526020600020905b81548152906001019060200180831161293357829003601f168201915b505050505081526020016004820160009054906101000a900460ff161515151581526020016004820160019054906101000a900460ff161515151581525050905080600001519450806020015193508060400151925080608001519150509193509193565b6040518060c001604052808573ffffffffffffffffffffffffffffffffffffffff16815260200184815260200183815260200182815260200160011515815260200160001515815250600260008673ffffffffffffffffffffffffffffffffffffffff1673ffffffffffffffffffffffffffffffffffffffff16815260200190815260200160002060008201518160000160006101000a81548173ffffffffffffffffffffffffffffffffffffffff021916908373ffffffffffffffffffffffffffffffffffffffff1602179055506020820151816001019081612a9991906150a8565b506040820151816002019081612aaf91906150a8565b506060820151816003019081612ac591906150a8565b5060808201518160040160006101000a81548160ff02191690831515021790555060a08201518160040160016101000a81548160ff0219169083151502179055509050506009849080600181540180825580915050600190039060005260206000200160009091909190916101000a81548173ffffffffffffffffffffffffffffffffffffffff021916908373ffffffffffffffffffffffffffffffffffffffff16021790555050505050565b60066020528060005260406000206000915090508060000154908060010160009054906101000a900473ffffffffffffffffffffffffffffffffffffffff16908060020160009054906101000a900473ffffffffffffffffffffffffffffffffffffffff16908060030160009054906101000a900473ffffffffffffffffffffffffffffffffffffffff16908060040154908060050154908060060160009054906101000a900460ff16905087565b60016020528060005260406000206000915090508060000160009054906101000a900473ffffffffffffffffffffffffffffffffffffffff1690806001018054612c6a90614ecb565b80601f0160208091040260200160405190810160405280929190818152602001828054612c9690614ecb565b8015612ce35780601f10612cb857610100808354040283529160200191612ce3565b820191906000526020600020905b815481529060010190602001808311612cc657829003601f168201915b505050505090806002018054612cf890614ecb565b80601f0160208091040260200160405190810160405280929190818152602001828054612d2490614ecb565b8015612d715780601f10612d4657610100808354040283529160200191612d71565b820191906000526020600020905b815481529060010190602001808311612d5457829003601f168201915b505050505090806003018054612d8690614ecb565b80601f0160208091040260200160405190810160405280929190818152602001828054612db290614ecb565b8015612dff5780601f10612dd457610100808354040283529160200191612dff565b820191906000526020600020905b815481529060010190602001808311612de257829003601f168201915b505050505090806004018054612e1490614ecb565b80601f0160208091040260200160405190810160405280929190818152602001828054612e4090614ecb565b8015612e8d5780601f10612e6257610100808354040283529160200191612e8d565b820191906000526020600020905b815481529060010190602001808311612e7057829003601f168201915b5050505050908060050154908060060154908060070160009054906101000a900460ff16908060070160019054906101000a900460ff16905089565b60006001811115612edd57612edc6146ff565b5b6006600084815260200190815260200160002060060160009054906101000a900460ff166001811115612f1357612f126146ff565b5b14612f53576040517f08c379a0000000000000000000000000000000000000000000000000000000008152600401612f4a90615700565b60405180910390fd5b42600660008481526020019081526020016000206005018190555060016006600084815260200190815260200160002060060160006101000a81548160ff02191690836001811115612fa857612fa76146ff565b5b0217905550336004600083815260200190815260200160002060040160006101000a81548173ffffffffffffffffffffffffffffffffffffffff021916908373ffffffffffffffffffffffffffffffffffffffff1602179055505050565b60011515600160008473ffffffffffffffffffffffffffffffffffffffff1673ffffffffffffffffffffffffffffffffffffffff16815260200190815260200160002060070160009054906101000a900460ff1615151461309c576040517f08c379a00000000000000000000000000000000000000000000000000000000081526004016130939061576c565b60405180910390fd5b6040516020016130ab906157d8565b60405160208183030381529060405280519060200120600160008473ffffffffffffffffffffffffffffffffffffffff1673ffffffffffffffffffffffffffffffffffffffff1681526020019081526020016000206002016040516020016131139190615870565b6040516020818303038152906040528051906020012003613169576040517f08c379a0000000000000000000000000000000000000000000000000000000008152600401613160906158f9565b60405180910390fd5b60004290506040518061014001604052808281526020018473ffffffffffffffffffffffffffffffffffffffff168152602001600073ffffffffffffffffffffffffffffffffffffffff1681526020013373ffffffffffffffffffffffffffffffffffffffff168152602001600073ffffffffffffffffffffffffffffffffffffffff168152602001600160008673ffffffffffffffffffffffffffffffffffffffff1673ffffffffffffffffffffffffffffffffffffffff168152602001908152602001600020600201805461323f90614ecb565b80601f016020809104026020016040519081016040528092919081815260200182805461326b90614ecb565b80156132b85780601f1061328d576101008083540402835291602001916132b8565b820191906000526020600020905b81548152906001019060200180831161329b57829003601f168201915b50505050508152602001428152602001600060018111156132dc576132db6146ff565b5b815260200160405180602001604052806000815250815260200183815250600460008381526020019081526020016000206000820151816000015560208201518160010160006101000a81548173ffffffffffffffffffffffffffffffffffffffff021916908373ffffffffffffffffffffffffffffffffffffffff16021790555060408201518160020160006101000a81548173ffffffffffffffffffffffffffffffffffffffff021916908373ffffffffffffffffffffffffffffffffffffffff16021790555060608201518160030160006101000a81548173ffffffffffffffffffffffffffffffffffffffff021916908373ffffffffffffffffffffffffffffffffffffffff16021790555060808201518160040160006101000a81548173ffffffffffffffffffffffffffffffffffffffff021916908373ffffffffffffffffffffffffffffffffffffffff16021790555060a082015181600501908161344891906150a8565b5060c0820151816006015560e08201518160070160006101000a81548160ff0219169083600181111561347e5761347d6146ff565b5b021790555061010082015181600801908161349991906150a8565b50610120820151816009015590505081600160008573ffffffffffffffffffffffffffffffffffffffff1673ffffffffffffffffffffffffffffffffffffffff16815260200190815260200160002060050160008282546134fa91906151a9565b92505081905550600b819080600181540180825580915050600190039060005260206000200160009091909190915055600c600081548092919061353d90615919565b9190505550505050565b6060600b80548060200260200160405190810160405280929190818152602001828054801561359557602002820191906000526020600020905b815481526020019060010190808311613581575b5050505050905090565b60036020528060005260406000206000915090508060000160009054906101000a900473ffffffffffffffffffffffffffffffffffffffff16908060010180546135e890614ecb565b80601f016020809104026020016040519081016040528092919081815260200182805461361490614ecb565b80156136615780601f1061363657610100808354040283529160200191613661565b820191906000526020600020905b81548152906001019060200180831161364457829003601f168201915b50505050509080600201805461367690614ecb565b80601f01602080910402602001604051908101604052809291908181526020018280546136a290614ecb565b80156136ef5780601f106136c4576101008083540402835291602001916136ef565b820191906000526020600020905b8154815290600101906020018083116136d257829003601f168201915b50505050509080600301805461370490614ecb565b80601f016020809104026020016040519081016040528092919081815260200182805461373090614ecb565b801561377d5780601f106137525761010080835404028352916020019161377d565b820191906000526020600020905b81548152906001019060200180831161376057829003601f168201915b5050505050908060040160009054906101000a900460ff16908060040160019054906101000a900460ff16905086565b60026020528060005260406000206000915090508060000160009054906101000a900473ffffffffffffffffffffffffffffffffffffffff16908060010180546137f690614ecb565b80601f016020809104026020016040519081016040528092919081815260200182805461382290614ecb565b801561386f5780601f106138445761010080835404028352916020019161386f565b820191906000526020600020905b81548152906001019060200180831161385257829003601f168201915b50505050509080600201805461388490614ecb565b80601f01602080910402602001604051908101604052809291908181526020018280546138b090614ecb565b80156138fd5780601f106138d2576101008083540402835291602001916138fd565b820191906000526020600020905b8154815290600101906020018083116138e057829003601f168201915b50505050509080600301805461391290614ecb565b80601f016020809104026020016040519081016040528092919081815260200182805461393e90614ecb565b801561398b5780601f106139605761010080835404028352916020019161398b565b820191906000526020600020905b81548152906001019060200180831161396e57829003601f168201915b5050505050908060040160009054906101000a900460ff16908060040160019054906101000a900460ff16905086565b60008060008060606000806060600080600460008c815260200190815260200160002060405180610140016040529081600082015481526020016001820160009054906101000a900473ffffffffffffffffffffffffffffffffffffffff1673ffffffffffffffffffffffffffffffffffffffff1673ffffffffffffffffffffffffffffffffffffffff1681526020016002820160009054906101000a900473ffffffffffffffffffffffffffffffffffffffff1673ffffffffffffffffffffffffffffffffffffffff1673ffffffffffffffffffffffffffffffffffffffff1681526020016003820160009054906101000a900473ffffffffffffffffffffffffffffffffffffffff1673ffffffffffffffffffffffffffffffffffffffff1673ffffffffffffffffffffffffffffffffffffffff1681526020016004820160009054906101000a900473ffffffffffffffffffffffffffffffffffffffff1673ffffffffffffffffffffffffffffffffffffffff1673ffffffffffffffffffffffffffffffffffffffff168152602001600582018054613b5c90614ecb565b80601f0160208091040260200160405190810160405280929190818152602001828054613b8890614ecb565b8015613bd55780601f10613baa57610100808354040283529160200191613bd5565b820191906000526020600020905b815481529060010190602001808311613bb857829003601f168201915b50505050508152602001600682015481526020016007820160009054906101000a900460ff166001811115613c0d57613c0c6146ff565b5b6001811115613c1f57613c1e6146ff565b5b8152602001600882018054613c3390614ecb565b80601f0160208091040260200160405190810160405280929190818152602001828054613c5f90614ecb565b8015613cac5780601f10613c8157610100808354040283529160200191613cac565b820191906000526020600020905b815481529060010190602001808311613c8f57829003601f168201915b505050505081526020016009820154815250509050806000015199508060200151985080604001519750806080015196508060a0015195508060c0015194508060e00151935080610100015192508061012001519150509193959799909294969850565b6000600d6000815480929190613d2590615919565b919050555042600d54604051602001613d3f929190615982565b6040516020818303038152906040528051906020012060001c905090565b6000600180811115613d7257613d716146ff565b5b6004600084815260200190815260200160002060070160009054906101000a900460ff166001811115613da857613da76146ff565b5b14613de8576040517f08c379a0000000000000000000000000000000000000000000000000000000008152600401613ddf906159fa565b60405180910390fd5b6000600460008481526020019081526020016000206009015490506000633b9aca0090508082613e189190615a1a565b92505050919050565b600081604051602001613e349190615285565b6040516020818303038152906040528051906020012083604051602001613e5b9190615285565b6040516020818303038152906040528051906020012014905092915050565b6000600c6000815480929190613e8f90615919565b919050555042600c54604051602001613ea9929190615982565b6040516020818303038152906040528051906020012060001c905090565b6000604051905090565b600080fd5b600080fd5b6000819050919050565b613eee81613edb565b8114613ef957600080fd5b50565b600081359050613f0b81613ee5565b92915050565b600080fd5b600080fd5b6000601f19601f8301169050919050565b7f4e487b7100000000000000000000000000000000000000000000000000000000600052604160045260246000fd5b613f6482613f1b565b810181811067ffffffffffffffff82111715613f8357613f82613f2c565b5b80604052505050565b6000613f96613ec7565b9050613fa28282613f5b565b919050565b600067ffffffffffffffff821115613fc257613fc1613f2c565b5b613fcb82613f1b565b9050602081019050919050565b82818337600083830152505050565b6000613ffa613ff584613fa7565b613f8c565b90508281526020810184848401111561401657614015613f16565b5b614021848285613fd8565b509392505050565b600082601f83011261403e5761403d613f11565b5b813561404e848260208601613fe7565b91505092915050565b60008115159050919050565b61406c81614057565b811461407757600080fd5b50565b60008135905061408981614063565b92915050565b60008060008060008060c087890312156140ac576140ab613ed1565b5b60006140ba89828a01613efc565b965050602087013567ffffffffffffffff8111156140db576140da613ed6565b5b6140e789828a01614029565b95505060406140f889828a01613efc565b945050606061410989828a01613efc565b935050608061411a89828a0161407a565b92505060a087013567ffffffffffffffff81111561413b5761413a613ed6565b5b61414789828a01614029565b9150509295509295509295565b61415d81613edb565b82525050565b60006020820190506141786000830184614154565b92915050565b60006020828403121561419457614193613ed1565b5b60006141a284828501613efc565b91505092915050565b600073ffffffffffffffffffffffffffffffffffffffff82169050919050565b60006141d6826141ab565b9050919050565b6141e6816141cb565b82525050565b600060208201905061420160008301846141dd565b92915050565b6000806040838503121561421e5761421d613ed1565b5b600083013567ffffffffffffffff81111561423c5761423b613ed6565b5b61424885828601614029565b925050602061425985828601613efc565b9150509250929050565b600081519050919050565b600082825260208201905092915050565b6000819050602082019050919050565b614298816141cb565b82525050565b60006142aa838361428f565b60208301905092915050565b6000602082019050919050565b60006142ce82614263565b6142d8818561426e565b93506142e38361427f565b8060005b838110156143145781516142fb888261429e565b9750614306836142b6565b9250506001810190506142e7565b5085935050505092915050565b6000602082019050818103600083015261433b81846142c3565b905092915050565b61434c816141cb565b811461435757600080fd5b50565b60008135905061436981614343565b92915050565b6000806040838503121561438657614385613ed1565b5b60006143948582860161435a565b925050602083013567ffffffffffffffff8111156143b5576143b4613ed6565b5b6143c185828601614029565b9150509250929050565b6143d481614057565b82525050565b60006020820190506143ef60008301846143cb565b92915050565b60008060006060848603121561440e5761440d613ed1565b5b600061441c86828701613efc565b935050602061442d8682870161435a565b925050604084013567ffffffffffffffff81111561444e5761444d613ed6565b5b61445a86828701614029565b9150509250925092565b600080600080600060a086880312156144805761447f613ed1565b5b600061448e8882890161435a565b955050602086013567ffffffffffffffff8111156144af576144ae613ed6565b5b6144bb88828901614029565b945050604086013567ffffffffffffffff8111156144dc576144db613ed6565b5b6144e888828901614029565b935050606086013567ffffffffffffffff81111561450957614508613ed6565b5b61451588828901614029565b925050608086013567ffffffffffffffff81111561453657614535613ed6565b5b61454288828901614029565b9150509295509295909350565b6000806000806080858703121561456957614568613ed1565b5b60006145778782880161435a565b945050602085013567ffffffffffffffff81111561459857614597613ed6565b5b6145a487828801614029565b935050604085013567ffffffffffffffff8111156145c5576145c4613ed6565b5b6145d187828801614029565b925050606085013567ffffffffffffffff8111156145f2576145f1613ed6565b5b6145fe87828801614029565b91505092959194509250565b600081519050919050565b600082825260208201905092915050565b60005b83811015614644578082015181840152602081019050614629565b60008484015250505050565b600061465b8261460a565b6146658185614615565b9350614675818560208601614626565b61467e81613f1b565b840191505092915050565b600060e08201905061469e600083018a614154565b6146ab60208301896141dd565b6146b860408301886141dd565b6146c56060830187614154565b6146d26080830186614154565b81810360a08301526146e48185614650565b90506146f360c08301846143cb565b98975050505050505050565b7f4e487b7100000000000000000000000000000000000000000000000000000000600052602160045260246000fd5b6002811061473f5761473e6146ff565b5b50565b60008190506147508261472e565b919050565b600061476082614742565b9050919050565b61477081614755565b82525050565b60006101408201905061478c600083018d614154565b614799602083018c6141dd565b6147a6604083018b6141dd565b6147b3606083018a6141dd565b6147c060808301896141dd565b81810360a08301526147d28188614650565b90506147e160c0830187614154565b6147ee60e0830186614767565b8181036101008301526148018185614650565b9050614811610120830184614154565b9b9a5050505050505050505050565b60006020828403121561483657614835613ed1565b5b60006148448482850161435a565b91505092915050565b600060808201905061486260008301876141dd565b81810360208301526148748186614650565b905081810360408301526148888185614650565b905061489760608301846143cb565b95945050505050565b600060e0820190506148b5600083018a6141dd565b81810360208301526148c78189614650565b905081810360408301526148db8188614650565b905081810360608301526148ef8187614650565b90506148fe6080830186614154565b61490b60a0830185614154565b61491860c08301846143cb565b98975050505050505050565b60006020828403121561493a57614939613ed1565b5b600082013567ffffffffffffffff81111561495857614957613ed6565b5b61496484828501614029565b91505092915050565b6002811061497e5761497d6146ff565b5b50565b600081905061498f8261496d565b919050565b600061499f82614981565b9050919050565b6149af81614994565b82525050565b600060608201905081810360008301526149cf8186614650565b90506149de6020830185614154565b6149eb60408301846149a6565b949350505050565b60028110614a0457614a036146ff565b5b50565b6000819050614a15826149f3565b919050565b6000614a2582614a07565b9050919050565b614a3581614a1a565b82525050565b600060e082019050614a50600083018a614154565b614a5d60208301896141dd565b614a6a60408301886141dd565b614a7760608301876141dd565b614a846080830186614154565b614a9160a0830185614154565b614a9e60c0830184614a2c565b98975050505050505050565b600061012082019050614ac0600083018c6141dd565b8181036020830152614ad2818b614650565b90508181036040830152614ae6818a614650565b90508181036060830152614afa8189614650565b90508181036080830152614b0e8188614650565b9050614b1d60a0830187614154565b614b2a60c0830186614154565b614b3760e08301856143cb565b614b456101008301846143cb565b9a9950505050505050505050565b60008060408385031215614b6a57614b69613ed1565b5b6000614b7885828601613efc565b9250506020614b8985828601613efc565b9150509250929050565b60008060408385031215614baa57614ba9613ed1565b5b6000614bb88582860161435a565b9250506020614bc985828601613efc565b9150509250929050565b600081519050919050565b600082825260208201905092915050565b6000819050602082019050919050565b614c0881613edb565b82525050565b6000614c1a8383614bff565b60208301905092915050565b6000602082019050919050565b6000614c3e82614bd3565b614c488185614bde565b9350614c5383614bef565b8060005b83811015614c84578151614c6b8882614c0e565b9750614c7683614c26565b925050600181019050614c57565b5085935050505092915050565b60006020820190508181036000830152614cab8184614c33565b905092915050565b600060c082019050614cc860008301896141dd565b8181036020830152614cda8188614650565b90508181036040830152614cee8187614650565b90508181036060830152614d028186614650565b9050614d1160808301856143cb565b614d1e60a08301846143cb565b979650505050505050565b600061012082019050614d3f600083018c614154565b614d4c602083018b6141dd565b614d59604083018a6141dd565b614d6660608301896141dd565b8181036080830152614d788188614650565b9050614d8760a0830187614154565b614d9460c0830186614767565b81810360e0830152614da68185614650565b9050614db6610100830184614154565b9a9950505050505050505050565b7f496e76616c6964207472616e73616374696f6e20737461747573000000000000600082015250565b6000614dfa601a83614615565b9150614e0582614dc4565b602082019050919050565b60006020820190508181036000830152614e2981614ded565b9050919050565b7f496e76616c696420646f6e6f7220616464726573730000000000000000000000600082015250565b6000614e66601583614615565b9150614e7182614e30565b602082019050919050565b60006020820190508181036000830152614e9581614e59565b9050919050565b7f4e487b7100000000000000000000000000000000000000000000000000000000600052602260045260246000fd5b60006002820490506001821680614ee357607f821691505b602082108103614ef657614ef5614e9c565b5b50919050565b60008190508160005260206000209050919050565b60006020601f8301049050919050565b600082821b905092915050565b600060088302614f5e7fffffffffffffffffffffffffffffffffffffffffffffffffffffffffffffffff82614f21565b614f688683614f21565b95508019841693508086168417925050509392505050565b6000819050919050565b6000614fa5614fa0614f9b84613edb565b614f80565b613edb565b9050919050565b6000819050919050565b614fbf83614f8a565b614fd3614fcb82614fac565b848454614f2e565b825550505050565b600090565b614fe8614fdb565b614ff3818484614fb6565b505050565b5b818110156150175761500c600082614fe0565b600181019050614ff9565b5050565b601f82111561505c5761502d81614efc565b61503684614f11565b81016020851015615045578190505b61505961505185614f11565b830182614ff8565b50505b505050565b600082821c905092915050565b600061507f60001984600802615061565b1980831691505092915050565b6000615098838361506e565b9150826002028217905092915050565b6150b18261460a565b67ffffffffffffffff8111156150ca576150c9613f2c565b5b6150d48254614ecb565b6150df82828561501b565b600060209050601f8311600181146151125760008415615100578287015190505b61510a858261508c565b865550615172565b601f19841661512086614efc565b60005b8281101561514857848901518255600182019150602085019450602081019050615123565b868310156151655784890151615161601f89168261506e565b8355505b6001600288020188555050505b505050505050565b7f4e487b7100000000000000000000000000000000000000000000000000000000600052601160045260246000fd5b60006151b482613edb565b91506151bf83613edb565b92508282019050808211156151d7576151d661517a565b5b92915050565b7f566f6c756d65206d7573742062652067726561746572207468616e207a65726f600082015250565b6000615213602083614615565b915061521e826151dd565b602082019050919050565b6000602082019050818103600083015261524281615206565b9050919050565b600081905092915050565b600061525f8261460a565b6152698185615249565b9350615279818560208601614626565b80840191505092915050565b60006152918284615254565b915081905092915050565b7f426c6f6f64207479706520616c72656164792072657175657374656400000000600082015250565b60006152d2601c83614615565b91506152dd8261529c565b602082019050919050565b60006020820190508181036000830152615301816152c5565b9050919050565b7f596f75277265206e6f7420726567697374657265642079657421000000000000600082015250565b600061533e601a83614615565b915061534982615308565b602082019050919050565b6000602082019050818103600083015261536d81615331565b9050919050565b7f596f7527726520616c7265616479206c6f6767656420696e0000000000000000600082015250565b60006153aa601883614615565b91506153b582615374565b602082019050919050565b600060208201905081810360008301526153d98161539d565b9050919050565b7f496e76616c69642061646472657373206f722070617373776f72640000000000600082015250565b6000615416601b83614615565b9150615421826153e0565b602082019050919050565b6000602082019050818103600083015261544581615409565b9050919050565b7f4d65646963616c2063656e7465722070726f63657373206e6f7420636f6d706c60008201527f6574656400000000000000000000000000000000000000000000000000000000602082015250565b60006154a8602483614615565b91506154b38261544c565b604082019050919050565b600060208201905081810360008301526154d78161549b565b9050919050565b7f446f6e6f7220697320616c726561647920726567697374657265640000000000600082015250565b6000615514601b83614615565b915061551f826154de565b602082019050919050565b6000602082019050818103600083015261554381615507565b9050919050565b7f426c6f6f642074797065206e6f7420617661696c61626c650000000000000000600082015250565b6000615580601883614615565b915061558b8261554a565b602082019050919050565b600060208201905081810360008301526155af81615573565b9050919050565b7f496e73756666696369656e7420626c6f6f6420766f6c756d6500000000000000600082015250565b60006155ec601983614615565b91506155f7826155b6565b602082019050919050565b6000602082019050818103600083015261561b816155df565b9050919050565b7f496e76616c6964206c6f67696e2063726564656e7469616c7300000000000000600082015250565b6000615658601983614615565b915061566382615622565b602082019050919050565b600060208201905081810360008301526156878161564b565b9050919050565b7f5472616e73706f72746174696f6e20616c726561647920636f6d706c6574656460008201527f206f72206e6f7420696e69746961746564000000000000000000000000000000602082015250565b60006156ea603183614615565b91506156f58261568e565b604082019050919050565b60006020820190508181036000830152615719816156dd565b9050919050565b7f506c6561736520726567697374657220646f6e6f722066697273740000000000600082015250565b6000615756601b83614615565b915061576182615720565b602082019050919050565b6000602082019050818103600083015261578581615749565b9050919050565b7f4f74686572000000000000000000000000000000000000000000000000000000600082015250565b60006157c2600583615249565b91506157cd8261578c565b600582019050919050565b60006157e3826157b5565b9150819050919050565b600081546157fa81614ecb565b6158048186615249565b9450600182166000811461581f576001811461583457615867565b60ff1983168652811515820286019350615867565b61583d85614efc565b60005b8381101561585f57815481890152600182019150602081019050615840565b838801955050505b50505092915050565b600061587c82846157ed565b915081905092915050565b7f446f6e6f722068617320616c726561647920696e69746961746564206120646f60008201527f6e6174696f6e0000000000000000000000000000000000000000000000000000602082015250565b60006158e3602683614615565b91506158ee82615887565b604082019050919050565b60006020820190508181036000830152615912816158d6565b9050919050565b600061592482613edb565b91507fffffffffffffffffffffffffffffffffffffffffffffffffffffffffffffffff82036159565761595561517a565b5b600182019050919050565b6000819050919050565b61597c61597782613edb565b615961565b82525050565b600061598e828561596b565b60208201915061599e828461596b565b6020820191508190509392505050565b7f5472616e73616374696f6e206e6f7420636f6d706c6574656400000000000000600082015250565b60006159e4601983614615565b91506159ef826159ae565b602082019050919050565b60006020820190508181036000830152615a13816159d7565b9050919050565b6000615a2582613edb565b9150615a3083613edb565b9250828202615a3e81613edb565b91508282048414831517615a5557615a5461517a565b5b509291505056fea26469706673582212204717dd40af46770511020234e2eb2143148821b9a0c059010fa69466da2808bc64736f6c63430008130033",
  "immutableReferences": {},
  "source": "// SPDX-License-Identifier: MIT\npragma solidity ^0.8.19;\n\ncontract BloodDonationBlockchainSystem {\n    enum TransactionStatus { Pending, Completed }\n    enum TransportationStatus { InTransit, Delivered }\n    enum BloodSupplyStatus { Available, Requested }\n\n    struct Donor {\n        address donorPublicAddress;\n        string name;\n        string bloodType;\n        string phoneNumber;\n        string password;\n        uint256 donatedVolume;\n        uint256 totalPayment;\n        bool isRegistered;\n        bool isLogin;\n        // uint256[] donationHistory;\n    }\n\n    struct Transporter {\n        address transporterPublicAddress;\n        string name;\n        string phoneNumber;\n        string password;\n        bool isRegistered;\n        bool isLogin;\n    }\n\n    struct MedicalCenter {\n        address MCPublicAddress;\n        string name;\n        string phoneNumber;\n        string password;\n        bool isRegistered;\n        bool isLogin;\n    }\n\n    struct DonationTransaction {\n        uint256 transactionID;\n        address donor;\n        address recipient;\n        address medicalStaff;\n        address transporter;\n        string bloodType;\n        uint256 donationDate;\n        TransactionStatus status;\n        string medicalCenter;\n        uint256 donatedVolume;\n    }\n\n    struct MedicalRecord {\n        uint256 recordID;\n        address donor;\n        address medicalStaff;\n        uint256 bloodPressure;\n        uint256 hemoglobinLevel;\n        string bloodTestResults;\n        bool HIV;\n        // uint256[] donationHistory;\n    }\n\n    struct TransportationRecord {\n        uint256 recordID;\n        address transporter;\n        address donor;\n        address recipient;\n        uint256 pickupDateTime;\n        uint256 deliveryDateTime;\n        TransportationStatus status;\n    }\n\n    struct BloodSupply {\n        string bloodType;\n        uint256 volume;\n        BloodSupplyStatus status;\n    }\n\n    address public owner;\n    mapping(address => Donor) public donors;\n    mapping(address => Transporter) public transporters;\n    mapping(address => MedicalCenter) public medicalsCenters;\n    mapping(uint256 => DonationTransaction) public donationTransactions;\n\n    mapping(uint256 => MedicalRecord) public medicalRecords;\n    mapping(uint256 => TransportationRecord) public transportationRecords;\n    mapping(string => BloodSupply) public bloodSupplies;\n\n    address[] public donorAddressArr;\n    address[] public transporterAddressArr;\n    address[] public medicaCenterAddressArr;\n    uint256[] public donationTransactionsArr;\n\n    uint256 public transactionCounter;\n    uint256 public recordCounter;\n\n    modifier onlyOwner() {\n        require(msg.sender == owner, \"Only the owner can call this function\");\n        _;\n    }\n\n    // modifier onlyMedicalStaff() {\n    //     require(\n    //         donors[msg.sender].user.userType == UserType.MedicalStaff,\n    //         \"Only medical staff can call this function\"\n    //     );\n    //     _;\n    // }\n\n    // modifier onlyTransporter() {\n    //     require(\n    //         donors[msg.sender].user.userType == UserType.Transporter,\n    //         \"Only transporters can call this function\"\n    //     );\n    //     _;\n    // }\n\n    constructor() {\n        owner = msg.sender;\n    }\n\n    function addDonor(\n        address _donorPublicAddress,\n        string memory _name,\n        string memory _bloodType,\n        string memory _contactNumber,\n        string memory _password\n    ) public {\n        require(\n            donors[_donorPublicAddress].isRegistered == false,\n            \"Donor is already registered\"\n        );\n        donors[_donorPublicAddress] = Donor(\n            _donorPublicAddress,\n            _name,\n            _bloodType,\n            _contactNumber,\n            _password,\n            0,\n            0,\n            true,\n            false\n        );\n        donorAddressArr.push(_donorPublicAddress);\n    }\n\n    // function  donorLogin(address _donorPublicAddress, string memory _password) public {\n    //     require(donors[_donorPublicAddress].isRegistered == true, \"Your not registered yet!\");\n    //     require(donors[_donorPublicAddress].isLogin == false, \"Your Already login\");\n    //     require(compareString(donors[_donorPublicAddress].password, _password), \"Invalid address or password\");\n    //     Donor memory donor = donors[_donorPublicAddress];\n    //     donor.isLogin = true;\n    // }\n\n    function getDonorsArr() public view returns (address[] memory) {\n        return donorAddressArr;\n    }\n\n    function getDonor(\n        address _donorPublicAddress\n    )\n        public\n        view\n        returns (\n            address publicAddress,\n            string memory name,\n            string memory bloodType,\n            string memory phoneNumber,\n            uint256 donatedVolume,\n            uint256 totalPayment,\n            bool isRegistered\n        )\n    {\n        Donor memory donor = donors[_donorPublicAddress];\n        publicAddress = donor.donorPublicAddress;\n        name = donor.name;\n        bloodType = donor.bloodType;\n        phoneNumber = donor.phoneNumber;\n        donatedVolume = donor.donatedVolume;\n        totalPayment = donor.totalPayment;\n        isRegistered = donor.isRegistered;\n    }\n\n    function addTransporter(\n        address _transporterPublicAddress,\n        string memory _name,\n        string memory _contactNumber,\n        string memory _password\n    ) public {\n        transporters[_transporterPublicAddress] = Transporter({\n            transporterPublicAddress: _transporterPublicAddress,\n            name: _name,\n            phoneNumber: _contactNumber,\n            password: _password,\n            isRegistered: true,\n            isLogin: false\n        });\n        transporterAddressArr.push(_transporterPublicAddress);\n    }\n    // function  transporterLogin(address _transporterPublicAddress, string memory _password) public {\n    //     require(transporters[_transporterPublicAddress].isRegistered == true, \"Your not registered yet!\");\n    //     require(transporters[_transporterPublicAddress].isLogin == false, \"Your Already login\");\n    //     require(compareString(transporters[_transporterPublicAddress].password, _password), \"Invalid address or password\");\n\n    //     Transporter memory transporter = transporters[_transporterPublicAddress];\n    //     transporter.isLogin = true;\n    // }\n\n    function getTransportersArr() public view returns (address[] memory) {\n        return transporterAddressArr;\n    }\n\n    function getTransporter(\n        address _transporterPublicAddress\n    )\n        public\n        view\n        returns (\n            address transporterPublicAddress,\n            string memory name,\n            string memory phoneNumber,\n            bool isRegistered\n        )\n    {\n        Transporter memory transporter = transporters[_transporterPublicAddress];\n        transporterPublicAddress = transporter.transporterPublicAddress;\n        name = transporter.name;\n        phoneNumber = transporter.phoneNumber;\n        isRegistered = transporter.isRegistered;\n    }\n\n    function addMedicalCenter(\n        address _MCPublicAddress,\n        string memory _name,\n        string memory _contactNumber,\n        string memory _password\n    ) public {\n        medicalsCenters[_MCPublicAddress] = MedicalCenter({\n            MCPublicAddress: _MCPublicAddress,\n            name: _name,\n            phoneNumber: _contactNumber,\n            password: _password,\n            isRegistered: true,\n            isLogin: false\n        });\n        medicaCenterAddressArr.push(_MCPublicAddress);\n        \n    }\n\n    // function  medicalCenterLogin(address _MCPublicAddress, string memory _password) public {\n    //     require(medicalsCenters[_MCPublicAddress].isRegistered == true, \"Your not registered yet!\");\n    //     require(medicalsCenters[_MCPublicAddress].isLogin == false, \"Your Already login\");\n    //     require(compareString(medicalsCenters[_MCPublicAddress].password, _password), \"Invalid address or password\");\n\n    //     MedicalCenter memory medicalCenter = medicalsCenters[_MCPublicAddress];\n    //     medicalCenter.isLogin = true;\n    // }\n\n    function checkMedicalCenterLogin(address _MCPublicAddress, string memory _password) public view returns (bool) {\n        require(medicalsCenters[_MCPublicAddress].isRegistered == true, \"You're not registered yet!\");\n        require(!medicalsCenters[_MCPublicAddress].isLogin, \"You're already logged in\");\n        require(compareString(medicalsCenters[_MCPublicAddress].password, _password), \"Invalid address or password\");\n\n        return true;\n    }\n\n    function medicalCenterLogin(address _MCPublicAddress, string memory _password) public {\n        require(checkMedicalCenterLogin(_MCPublicAddress, _password), \"Invalid login credentials\");\n\n        medicalsCenters[_MCPublicAddress].isLogin = true;\n    }\n\n\n    function getMedicalCentersArr() public view returns (address[] memory) {\n        return medicaCenterAddressArr;\n    }\n\n    function getMedicalCenter(\n        address _medicalStaffPublicAddress\n    )\n        public\n        view\n        returns (\n            address MCPublicAddress,\n            string memory name,\n            string memory phoneNumber,\n            bool isRegistered\n        )\n    {\n        MedicalCenter memory medicalCenter = medicalsCenters[_medicalStaffPublicAddress];\n        MCPublicAddress = medicalCenter.MCPublicAddress;\n        name = medicalCenter.name;\n        phoneNumber = medicalCenter.phoneNumber;\n        isRegistered = medicalCenter.isRegistered;\n    }\n\n    // function donorChangePassword(string memory _oldPassword, string memory _newPassword) external {\n    //     require(compareString(donors[msg.sender].password, _oldPassword), \"Invalid old password\");\n    //     require(keccak256(abi.encode(_newPassword)).length > 0, \"Password should not be empty\");\n    //     require(compareString(donors[msg.sender].password, _newPassword), \"Invalid new password\");\n    //     require(donors[msg.sender].isLogin == true, \"Not logged in\");\n\n    //     donors[msg.sender].password = _newPassword;\n    //     // emit PasswordChanged(msg.sender);\n    // }\n\n    // ---------------- Start Donation initialization ---------------------\n\n    function donateBloodToMedicalCenter(\n        address _donorPublicAddress,\n        uint256 _volume\n    ) public {\n        require(\n            donors[_donorPublicAddress].isRegistered == true,\n            \"Please register donor first\"\n        );\n        require(\n            keccak256(abi.encodePacked(donors[_donorPublicAddress].bloodType)) != keccak256(abi.encodePacked(\"Other\")),\n            \"Donor has already initiated a donation\"\n        );\n\n        uint256 transactionID = block.timestamp;\n        donationTransactions[transactionID] = DonationTransaction({\n            transactionID: transactionID,\n            donor: _donorPublicAddress,\n            recipient: address(0),\n            medicalStaff: msg.sender,\n            transporter: address(0),\n            bloodType: donors[_donorPublicAddress].bloodType,\n            donationDate: block.timestamp,\n            status: TransactionStatus.Pending,\n            medicalCenter: \"\",\n            donatedVolume: _volume\n        });\n        donors[_donorPublicAddress].donatedVolume += _volume;\n\n        // donors[msg.sender].bloodType = string(\"Other\");\n        donationTransactionsArr.push(transactionID);\n\n        // Increment the transaction count\n        transactionCounter++;\n    }\n\n    function getDonationTransactionArr()\n        public\n        view\n        returns (uint256[] memory)\n    {\n        return donationTransactionsArr;\n    }\n\n    function getDonationTransaction(\n        uint256 _transactionID\n    )\n        public\n        view\n        returns (\n            uint256 transactionID,\n            address donorPublicAddress,\n            address recipientPublicAddress,\n            address transporterPublicAddress,\n            string memory bloodType,\n            uint256 donationDate,\n            TransactionStatus status,\n            string memory medicalCenter,\n            uint256 donatedVolume\n        )\n    {\n        DonationTransaction memory donationTransaction = donationTransactions[\n            _transactionID\n        ];\n        transactionID = donationTransaction.transactionID;\n        donorPublicAddress = donationTransaction.donor;\n        recipientPublicAddress = donationTransaction.recipient;\n        transporterPublicAddress = donationTransaction.transporter;\n        bloodType = donationTransaction.bloodType;\n        donationDate = donationTransaction.donationDate;\n        status = donationTransaction.status;\n        medicalCenter = donationTransaction.medicalCenter;\n        donatedVolume = donationTransaction.donatedVolume;\n    }\n\n    // ---------------- End Donation initialization ---------------------\n\n    // ---------------- Start Complete Donation  ------------------------\n\n    function completeDonationToMedicalCenter(\n        uint256 _transactionID,\n        string memory _medicalCenter,\n        uint256 _bloodPressure,\n        uint256 _hemoglobinLevel,\n        bool _HIV,\n        string memory _bloodTestResults\n    ) public {\n        require(\n            donationTransactions[_transactionID].status ==\n                TransactionStatus.Pending,\n            \"Invalid transaction status\"\n        );\n        require(\n            donationTransactions[_transactionID].donor != address(0),\n            \"Invalid donor address\"\n        );\n\n        donationTransactions[_transactionID].medicalStaff = msg.sender;\n        donationTransactions[_transactionID].medicalCenter = _medicalCenter;\n        donationTransactions[_transactionID].status = TransactionStatus.Completed;\n\n        // donors[donationTransactions[_transactionID].donor]\n        //     .donatedVolume += calculateDonatedVolume(_transactionID);\n\n        uint256 recordID = generateRecordID();\n        medicalRecords[recordID] = MedicalRecord({\n            recordID: recordID,\n            donor: donationTransactions[_transactionID].donor,\n            medicalStaff: msg.sender,\n            bloodPressure: _bloodPressure,\n            hemoglobinLevel: _hemoglobinLevel,\n            bloodTestResults: _bloodTestResults,\n            HIV: _HIV\n            // donationHistory: new uint256[](0)\n        });\n\n        // donors[donationTransactions[_transactionID].donor].donationHistory.push(\n        //     _transactionID\n        // );\n\n        // uint256 payment = calculatePayment(\n        //     donors[donationTransactions[_transactionID].donor].donatedVolume\n        // );\n        uint256 payment = calculatePayment(_transactionID);\n        donors[donationTransactions[_transactionID].donor]\n            .totalPayment += payment;\n        payable(msg.sender).transfer(payment);\n    }\n\n    // ---------------- End Complete Donation  ------------------------\n\n    function initiateTransportation(\n        uint256 _transactionID,\n        address _recipient,\n        string memory _medicalCenter\n    ) public {\n        require(\n            donationTransactions[_transactionID].status ==\n                TransactionStatus.Completed,\n            \"Medical center process not completed\"\n        );\n\n        uint256 transactionID = generateTransactionID();\n        donationTransactions[transactionID] = DonationTransaction({\n            transactionID: transactionID,\n            donor: donationTransactions[_transactionID].donor,\n            recipient: _recipient,\n            medicalStaff: msg.sender,\n            transporter: address(0),\n            bloodType: donationTransactions[_transactionID].bloodType,\n            donationDate: block.timestamp,\n            status: TransactionStatus.Pending,\n            medicalCenter: _medicalCenter,\n            donatedVolume: donors[donationTransactions[_transactionID].donor]\n                .donatedVolume\n        });\n    }\n\n    function completeTransportation(\n        uint256 _recordID,\n        uint256 _transactionID\n    ) public {\n        // onlyTransporter\n        require(\n            transportationRecords[_recordID].status ==\n                TransportationStatus.InTransit,\n            \"Transportation already completed or not initiated\"\n        );\n        transportationRecords[_recordID].deliveryDateTime = block.timestamp;\n        transportationRecords[_recordID].status = TransportationStatus\n            .Delivered;\n        donationTransactions[_transactionID].transporter = msg.sender;\n    }\n\n    function calculateDonatedVolume(\n        uint256 _transactionID\n    ) internal view returns (uint256) {\n        require(\n            donationTransactions[_transactionID].status ==\n                TransactionStatus.Completed,\n            \"Transaction not completed\"\n        );\n        return donationTransactions[_transactionID].donatedVolume;\n    }\n\n    function calculatePayment(\n        uint256 _transactionID\n    ) internal view returns (uint256) {\n        require(\n            donationTransactions[_transactionID].status ==\n                TransactionStatus.Completed,\n            \"Transaction not completed\"\n        );\n        // Assuming a fixed payment rate for simplicity\n        uint256 _donatedVolume = donationTransactions[_transactionID]\n            .donatedVolume;\n        uint256 paymentRate = 1 gwei; // 1gwei/ml\n        return _donatedVolume * paymentRate;\n    }\n\n    function addBloodSupply(string memory _bloodType, uint256 _volume) public {\n        // onlyMedicalStaff\n        require(_volume > 0, \"Volume must be greater than zero\");\n        require(\n            bloodSupplies[_bloodType].status != BloodSupplyStatus.Requested,\n            \"Blood type already requested\"\n        );\n\n        if (bloodSupplies[_bloodType].status == BloodSupplyStatus.Available) {\n            bloodSupplies[_bloodType].volume += _volume;\n        } else {\n            bloodSupplies[_bloodType] = BloodSupply({\n                bloodType: _bloodType,\n                volume: _volume,\n                status: BloodSupplyStatus.Available\n            });\n        }\n    }\n\n    function requestBloodType(\n        string memory _bloodType,\n        uint256 _volume\n    ) public {\n        // onlyMedicalStaff\n        require(\n            bloodSupplies[_bloodType].status == BloodSupplyStatus.Available,\n            \"Blood type not available\"\n        );\n        require(\n            bloodSupplies[_bloodType].volume >= _volume,\n            \"Insufficient blood volume\"\n        );\n\n        // You can add more logic here to handle the request\n        // For example, update the blood supply status or create a new transaction record\n    }\n\n    function generateTransactionID() internal returns (uint256) {\n        transactionCounter++;\n        return\n            uint256(\n                keccak256(abi.encodePacked(block.timestamp, transactionCounter))\n            );\n    }\n\n    function compareString(string memory _a, string memory _b) internal pure returns(bool) {\n        return keccak256(abi.encodePacked(_a)) == keccak256(abi.encodePacked(_b));\n    }\n\n    function generateRecordID() internal returns (uint256) {\n        recordCounter++;\n        return\n            uint256(\n                keccak256(abi.encodePacked(block.timestamp, recordCounter))\n            );\n    }\n}\n",
  "sourcePath": "/home/temba/Desktop/blood-donation-blockchain-system/client-side/contracts/BloodDonationBlockchainSystem.sol",
  "compiler": {
    "name": "solc",
    "version": "0.8.19+commit.7dd6d404.Emscripten.clang"
  },
  "schemaVersion": "3.4.16",
  "updatedAt": "2024-02-26T10:34:09.063Z",
  "networkType": "ethereum",
  "devdoc": {
    "kind": "dev",
    "methods": {},
    "version": 1
  },
  "userdoc": {
    "kind": "user",
    "methods": {},
    "version": 1
  }
}