{
  "contractName": "BloodDonationBlockchainSystem",
  "abi": [
    {
      "inputs": [],
      "stateMutability": "nonpayable",
      "type": "constructor"
    },
    {
      "inputs": [
        {
          "internalType": "string",
          "name": "",
          "type": "string"
        }
      ],
      "name": "bloodSupplies",
      "outputs": [
        {
          "internalType": "string",
          "name": "bloodType",
          "type": "string"
        },
        {
          "internalType": "uint256",
          "name": "volume",
          "type": "uint256"
        },
        {
          "internalType": "enum BloodDonationBlockchainSystem.BloodSupplyStatus",
          "name": "status",
          "type": "uint8"
        }
      ],
      "stateMutability": "view",
      "type": "function",
      "constant": true
    },
    {
      "inputs": [
        {
          "internalType": "uint256",
          "name": "",
          "type": "uint256"
        }
      ],
      "name": "donationTransactions",
      "outputs": [
        {
          "internalType": "uint256",
          "name": "transactionID",
          "type": "uint256"
        },
        {
          "internalType": "address",
          "name": "donor",
          "type": "address"
        },
        {
          "internalType": "address",
          "name": "recipient",
          "type": "address"
        },
        {
          "internalType": "address",
          "name": "medicalStaff",
          "type": "address"
        },
        {
          "internalType": "address",
          "name": "transporter",
          "type": "address"
        },
        {
          "internalType": "string",
          "name": "bloodType",
          "type": "string"
        },
        {
          "internalType": "uint256",
          "name": "donationDate",
          "type": "uint256"
        },
        {
          "internalType": "enum BloodDonationBlockchainSystem.TransactionStatus",
          "name": "status",
          "type": "uint8"
        },
        {
          "internalType": "string",
          "name": "medicalCenter",
          "type": "string"
        },
        {
          "internalType": "uint256",
          "name": "donatedVolume",
          "type": "uint256"
        }
      ],
      "stateMutability": "view",
      "type": "function",
      "constant": true
    },
    {
      "inputs": [
        {
          "internalType": "uint256",
          "name": "",
          "type": "uint256"
        }
      ],
      "name": "donationTransactionsArr",
      "outputs": [
        {
          "internalType": "uint256",
          "name": "",
          "type": "uint256"
        }
      ],
      "stateMutability": "view",
      "type": "function",
      "constant": true
    },
    {
      "inputs": [
        {
          "internalType": "uint256",
          "name": "",
          "type": "uint256"
        }
      ],
      "name": "donorAddressArr",
      "outputs": [
        {
          "internalType": "address",
          "name": "",
          "type": "address"
        }
      ],
      "stateMutability": "view",
      "type": "function",
      "constant": true
    },
    {
      "inputs": [
        {
          "internalType": "address",
          "name": "",
          "type": "address"
        }
      ],
      "name": "donors",
      "outputs": [
        {
          "internalType": "address",
          "name": "donorPublicAddress",
          "type": "address"
        },
        {
          "internalType": "string",
          "name": "name",
          "type": "string"
        },
        {
          "internalType": "string",
          "name": "bloodType",
          "type": "string"
        },
        {
          "internalType": "string",
          "name": "phoneNumber",
          "type": "string"
        },
        {
          "internalType": "string",
          "name": "password",
          "type": "string"
        },
        {
          "internalType": "uint256",
          "name": "donatedVolume",
          "type": "uint256"
        },
        {
          "internalType": "uint256",
          "name": "totalPayment",
          "type": "uint256"
        },
        {
          "internalType": "bool",
          "name": "isRegistered",
          "type": "bool"
        },
        {
          "internalType": "bool",
          "name": "isLogin",
          "type": "bool"
        }
      ],
      "stateMutability": "view",
      "type": "function",
      "constant": true
    },
    {
      "inputs": [
        {
          "internalType": "uint256",
          "name": "",
          "type": "uint256"
        }
      ],
      "name": "medicaCenterAddressArr",
      "outputs": [
        {
          "internalType": "address",
          "name": "",
          "type": "address"
        }
      ],
      "stateMutability": "view",
      "type": "function",
      "constant": true
    },
    {
      "inputs": [
        {
          "internalType": "uint256",
          "name": "",
          "type": "uint256"
        }
      ],
      "name": "medicalRecords",
      "outputs": [
        {
          "internalType": "uint256",
          "name": "recordID",
          "type": "uint256"
        },
        {
          "internalType": "address",
          "name": "donor",
          "type": "address"
        },
        {
          "internalType": "address",
          "name": "medicalStaff",
          "type": "address"
        },
        {
          "internalType": "uint256",
          "name": "bloodPressure",
          "type": "uint256"
        },
        {
          "internalType": "uint256",
          "name": "hemoglobinLevel",
          "type": "uint256"
        },
        {
          "internalType": "string",
          "name": "bloodTestResults",
          "type": "string"
        }
      ],
      "stateMutability": "view",
      "type": "function",
      "constant": true
    },
    {
      "inputs": [
        {
          "internalType": "address",
          "name": "",
          "type": "address"
        }
      ],
      "name": "medicalsCenters",
      "outputs": [
        {
          "internalType": "address",
          "name": "MCPublicAddress",
          "type": "address"
        },
        {
          "internalType": "string",
          "name": "name",
          "type": "string"
        },
        {
          "internalType": "string",
          "name": "phoneNumber",
          "type": "string"
        },
        {
          "internalType": "string",
          "name": "password",
          "type": "string"
        },
        {
          "internalType": "bool",
          "name": "isRegistered",
          "type": "bool"
        },
        {
          "internalType": "bool",
          "name": "isLogin",
          "type": "bool"
        }
      ],
      "stateMutability": "view",
      "type": "function",
      "constant": true
    },
    {
      "inputs": [],
      "name": "owner",
      "outputs": [
        {
          "internalType": "address",
          "name": "",
          "type": "address"
        }
      ],
      "stateMutability": "view",
      "type": "function",
      "constant": true
    },
    {
      "inputs": [],
      "name": "recordCounter",
      "outputs": [
        {
          "internalType": "uint256",
          "name": "",
          "type": "uint256"
        }
      ],
      "stateMutability": "view",
      "type": "function",
      "constant": true
    },
    {
      "inputs": [],
      "name": "transactionCounter",
      "outputs": [
        {
          "internalType": "uint256",
          "name": "",
          "type": "uint256"
        }
      ],
      "stateMutability": "view",
      "type": "function",
      "constant": true
    },
    {
      "inputs": [
        {
          "internalType": "uint256",
          "name": "",
          "type": "uint256"
        }
      ],
      "name": "transportationRecords",
      "outputs": [
        {
          "internalType": "uint256",
          "name": "recordID",
          "type": "uint256"
        },
        {
          "internalType": "address",
          "name": "transporter",
          "type": "address"
        },
        {
          "internalType": "address",
          "name": "donor",
          "type": "address"
        },
        {
          "internalType": "address",
          "name": "recipient",
          "type": "address"
        },
        {
          "internalType": "uint256",
          "name": "pickupDateTime",
          "type": "uint256"
        },
        {
          "internalType": "uint256",
          "name": "deliveryDateTime",
          "type": "uint256"
        },
        {
          "internalType": "enum BloodDonationBlockchainSystem.TransportationStatus",
          "name": "status",
          "type": "uint8"
        }
      ],
      "stateMutability": "view",
      "type": "function",
      "constant": true
    },
    {
      "inputs": [
        {
          "internalType": "uint256",
          "name": "",
          "type": "uint256"
        }
      ],
      "name": "transporterAddressArr",
      "outputs": [
        {
          "internalType": "address",
          "name": "",
          "type": "address"
        }
      ],
      "stateMutability": "view",
      "type": "function",
      "constant": true
    },
    {
      "inputs": [
        {
          "internalType": "address",
          "name": "",
          "type": "address"
        }
      ],
      "name": "transporters",
      "outputs": [
        {
          "internalType": "address",
          "name": "transporterPublicAddress",
          "type": "address"
        },
        {
          "internalType": "string",
          "name": "name",
          "type": "string"
        },
        {
          "internalType": "string",
          "name": "phoneNumber",
          "type": "string"
        },
        {
          "internalType": "string",
          "name": "password",
          "type": "string"
        },
        {
          "internalType": "bool",
          "name": "isRegistered",
          "type": "bool"
        },
        {
          "internalType": "bool",
          "name": "isLogin",
          "type": "bool"
        }
      ],
      "stateMutability": "view",
      "type": "function",
      "constant": true
    },
    {
      "inputs": [
        {
          "internalType": "address",
          "name": "_SYSPublicAddress",
          "type": "address"
        },
        {
          "internalType": "string",
          "name": "_password",
          "type": "string"
        }
      ],
      "name": "checkSystemOwnerLogin",
      "outputs": [
        {
          "internalType": "bool",
          "name": "",
          "type": "bool"
        }
      ],
      "stateMutability": "view",
      "type": "function",
      "constant": true
    },
    {
      "inputs": [
        {
          "internalType": "address",
          "name": "_MCPublicAddress",
          "type": "address"
        },
        {
          "internalType": "string",
          "name": "_password",
          "type": "string"
        }
      ],
      "name": "systemOwnerLogin",
      "outputs": [],
      "stateMutability": "nonpayable",
      "type": "function"
    },
    {
      "inputs": [
        {
          "internalType": "address",
          "name": "_donorPublicAddress",
          "type": "address"
        },
        {
          "internalType": "string",
          "name": "_name",
          "type": "string"
        },
        {
          "internalType": "string",
          "name": "_bloodType",
          "type": "string"
        },
        {
          "internalType": "string",
          "name": "_contactNumber",
          "type": "string"
        },
        {
          "internalType": "string",
          "name": "_password",
          "type": "string"
        }
      ],
      "name": "addDonor",
      "outputs": [],
      "stateMutability": "nonpayable",
      "type": "function"
    },
    {
      "inputs": [],
      "name": "getDonorsArr",
      "outputs": [
        {
          "internalType": "address[]",
          "name": "",
          "type": "address[]"
        }
      ],
      "stateMutability": "view",
      "type": "function",
      "constant": true
    },
    {
      "inputs": [
        {
          "internalType": "address",
          "name": "_donorPublicAddress",
          "type": "address"
        }
      ],
      "name": "getDonor",
      "outputs": [
        {
          "internalType": "address",
          "name": "publicAddress",
          "type": "address"
        },
        {
          "internalType": "string",
          "name": "name",
          "type": "string"
        },
        {
          "internalType": "string",
          "name": "bloodType",
          "type": "string"
        },
        {
          "internalType": "string",
          "name": "phoneNumber",
          "type": "string"
        },
        {
          "internalType": "uint256",
          "name": "donatedVolume",
          "type": "uint256"
        },
        {
          "internalType": "uint256",
          "name": "totalPayment",
          "type": "uint256"
        },
        {
          "internalType": "bool",
          "name": "isRegistered",
          "type": "bool"
        }
      ],
      "stateMutability": "view",
      "type": "function",
      "constant": true
    },
    {
      "inputs": [
        {
          "internalType": "address",
          "name": "_transporterPublicAddress",
          "type": "address"
        },
        {
          "internalType": "string",
          "name": "_name",
          "type": "string"
        },
        {
          "internalType": "string",
          "name": "_contactNumber",
          "type": "string"
        },
        {
          "internalType": "string",
          "name": "_password",
          "type": "string"
        }
      ],
      "name": "addTransporter",
      "outputs": [],
      "stateMutability": "nonpayable",
      "type": "function"
    },
    {
      "inputs": [],
      "name": "getTransportersArr",
      "outputs": [
        {
          "internalType": "address[]",
          "name": "",
          "type": "address[]"
        }
      ],
      "stateMutability": "view",
      "type": "function",
      "constant": true
    },
    {
      "inputs": [
        {
          "internalType": "address",
          "name": "_transporterPublicAddress",
          "type": "address"
        }
      ],
      "name": "getTransporter",
      "outputs": [
        {
          "internalType": "address",
          "name": "transporterPublicAddress",
          "type": "address"
        },
        {
          "internalType": "string",
          "name": "name",
          "type": "string"
        },
        {
          "internalType": "string",
          "name": "phoneNumber",
          "type": "string"
        }
      ],
      "stateMutability": "view",
      "type": "function",
      "constant": true
    },
    {
      "inputs": [
        {
          "internalType": "address",
          "name": "_MCPublicAddress",
          "type": "address"
        },
        {
          "internalType": "string",
          "name": "_name",
          "type": "string"
        },
        {
          "internalType": "string",
          "name": "_contactNumber",
          "type": "string"
        },
        {
          "internalType": "string",
          "name": "_password",
          "type": "string"
        }
      ],
      "name": "addMedicalCenter",
      "outputs": [],
      "stateMutability": "nonpayable",
      "type": "function"
    },
    {
      "inputs": [
        {
          "internalType": "address",
          "name": "_MCPublicAddress",
          "type": "address"
        },
        {
          "internalType": "string",
          "name": "_password",
          "type": "string"
        }
      ],
      "name": "checkMedicalCenterLogin",
      "outputs": [
        {
          "internalType": "bool",
          "name": "",
          "type": "bool"
        }
      ],
      "stateMutability": "view",
      "type": "function",
      "constant": true
    },
    {
      "inputs": [
        {
          "internalType": "address",
          "name": "_MCPublicAddress",
          "type": "address"
        },
        {
          "internalType": "string",
          "name": "_password",
          "type": "string"
        }
      ],
      "name": "medicalCenterLogin",
      "outputs": [],
      "stateMutability": "nonpayable",
      "type": "function"
    },
    {
      "inputs": [
        {
          "internalType": "address",
          "name": "_MCPublicAddress",
          "type": "address"
        }
      ],
      "name": "medicalCenterLogout",
      "outputs": [],
      "stateMutability": "nonpayable",
      "type": "function"
    },
    {
      "inputs": [],
      "name": "getMedicalCentersArr",
      "outputs": [
        {
          "internalType": "address[]",
          "name": "",
          "type": "address[]"
        }
      ],
      "stateMutability": "view",
      "type": "function",
      "constant": true
    },
    {
      "inputs": [
        {
          "internalType": "address",
          "name": "_medicalStaffPublicAddress",
          "type": "address"
        }
      ],
      "name": "getMedicalCenter",
      "outputs": [
        {
          "internalType": "address",
          "name": "MCPublicAddress",
          "type": "address"
        },
        {
          "internalType": "string",
          "name": "name",
          "type": "string"
        },
        {
          "internalType": "string",
          "name": "phoneNumber",
          "type": "string"
        }
      ],
      "stateMutability": "view",
      "type": "function",
      "constant": true
    },
    {
      "inputs": [
        {
          "internalType": "address",
          "name": "_donorPublicAddress",
          "type": "address"
        },
        {
          "internalType": "uint256",
          "name": "_volume",
          "type": "uint256"
        }
      ],
      "name": "donateBloodToMedicalCenter",
      "outputs": [],
      "stateMutability": "nonpayable",
      "type": "function"
    },
    {
      "inputs": [],
      "name": "getDonationTransactionArr",
      "outputs": [
        {
          "internalType": "uint256[]",
          "name": "",
          "type": "uint256[]"
        }
      ],
      "stateMutability": "view",
      "type": "function",
      "constant": true
    },
    {
      "inputs": [
        {
          "internalType": "uint256",
          "name": "_transactionID",
          "type": "uint256"
        }
      ],
      "name": "getDonationTransaction",
      "outputs": [
        {
          "internalType": "uint256",
          "name": "transactionID",
          "type": "uint256"
        },
        {
          "internalType": "address",
          "name": "donorPublicAddress",
          "type": "address"
        },
        {
          "internalType": "address",
          "name": "recipientPublicAddress",
          "type": "address"
        },
        {
          "internalType": "address",
          "name": "transporterPublicAddress",
          "type": "address"
        },
        {
          "internalType": "string",
          "name": "bloodType",
          "type": "string"
        },
        {
          "internalType": "uint256",
          "name": "donationDate",
          "type": "uint256"
        },
        {
          "internalType": "enum BloodDonationBlockchainSystem.TransactionStatus",
          "name": "status",
          "type": "uint8"
        },
        {
          "internalType": "string",
          "name": "medicalCenter",
          "type": "string"
        },
        {
          "internalType": "uint256",
          "name": "donatedVolume",
          "type": "uint256"
        }
      ],
      "stateMutability": "view",
      "type": "function",
      "constant": true
    },
    {
      "inputs": [
        {
          "internalType": "uint256",
          "name": "_transactionID",
          "type": "uint256"
        },
        {
          "internalType": "string",
          "name": "_medicalCenter",
          "type": "string"
        },
        {
          "internalType": "uint256",
          "name": "_bloodPressure",
          "type": "uint256"
        },
        {
          "internalType": "uint256",
          "name": "_hemoglobinLevel",
          "type": "uint256"
        },
        {
          "internalType": "string",
          "name": "_bloodTestResults",
          "type": "string"
        }
      ],
      "name": "completeDonationToMedicalCenter",
      "outputs": [],
      "stateMutability": "nonpayable",
      "type": "function"
    },
    {
      "inputs": [
        {
          "internalType": "uint256",
          "name": "_transactionID",
          "type": "uint256"
        },
        {
          "internalType": "address",
          "name": "_recipient",
          "type": "address"
        },
        {
          "internalType": "string",
          "name": "_medicalCenter",
          "type": "string"
        }
      ],
      "name": "initiateTransportation",
      "outputs": [],
      "stateMutability": "nonpayable",
      "type": "function"
    },
    {
      "inputs": [
        {
          "internalType": "uint256",
          "name": "_recordID",
          "type": "uint256"
        },
        {
          "internalType": "uint256",
          "name": "_transactionID",
          "type": "uint256"
        }
      ],
      "name": "completeTransportation",
      "outputs": [],
      "stateMutability": "nonpayable",
      "type": "function"
    },
    {
      "inputs": [
        {
          "internalType": "string",
          "name": "_bloodType",
          "type": "string"
        },
        {
          "internalType": "uint256",
          "name": "_volume",
          "type": "uint256"
        }
      ],
      "name": "addBloodSupply",
      "outputs": [],
      "stateMutability": "nonpayable",
      "type": "function"
    },
    {
      "inputs": [
        {
          "internalType": "string",
          "name": "_bloodType",
          "type": "string"
        },
        {
          "internalType": "uint256",
          "name": "_volume",
          "type": "uint256"
        }
      ],
      "name": "requestBloodType",
      "outputs": [],
      "stateMutability": "nonpayable",
      "type": "function"
    }
  ],
  "bytecode": "0x60806040523480156200001157600080fd5b50336000806101000a81548173ffffffffffffffffffffffffffffffffffffffff021916908373ffffffffffffffffffffffffffffffffffffffff160217905550604051806060016040528060008054906101000a900473ffffffffffffffffffffffffffffffffffffffff1673ffffffffffffffffffffffffffffffffffffffff1681526020016040518060400160405280600581526020017f61646d696e000000000000000000000000000000000000000000000000000000815250815260200160001515815250600f60008201518160000160006101000a81548173ffffffffffffffffffffffffffffffffffffffff021916908373ffffffffffffffffffffffffffffffffffffffff16021790555060208201518160010190816200013b9190620004ef565b5060408201518160020160006101000a81548160ff021916908315150217905550905050600f600160008060009054906101000a900473ffffffffffffffffffffffffffffffffffffffff1673ffffffffffffffffffffffffffffffffffffffff1673ffffffffffffffffffffffffffffffffffffffff1681526020019081526020016000206000820160009054906101000a900473ffffffffffffffffffffffffffffffffffffffff168160000160006101000a81548173ffffffffffffffffffffffffffffffffffffffff021916908373ffffffffffffffffffffffffffffffffffffffff160217905550600182018160010190816200023e9190620005ee565b506002820160009054906101000a900460ff168160020160006101000a81548160ff021916908315150217905550905050620006ef565b600081519050919050565b7f4e487b7100000000000000000000000000000000000000000000000000000000600052604160045260246000fd5b7f4e487b7100000000000000000000000000000000000000000000000000000000600052602260045260246000fd5b60006002820490506001821680620002f757607f821691505b6020821081036200030d576200030c620002af565b5b50919050565b60008190508160005260206000209050919050565b60006020601f8301049050919050565b600082821b905092915050565b600060088302620003777fffffffffffffffffffffffffffffffffffffffffffffffffffffffffffffffff8262000338565b62000383868362000338565b95508019841693508086168417925050509392505050565b6000819050919050565b6000819050919050565b6000620003d0620003ca620003c4846200039b565b620003a5565b6200039b565b9050919050565b6000819050919050565b620003ec83620003af565b62000404620003fb82620003d7565b84845462000345565b825550505050565b600090565b6200041b6200040c565b62000428818484620003e1565b505050565b5b8181101562000450576200044460008262000411565b6001810190506200042e565b5050565b601f8211156200049f57620004698162000313565b620004748462000328565b8101602085101562000484578190505b6200049c620004938562000328565b8301826200042d565b50505b505050565b600082821c905092915050565b6000620004c460001984600802620004a4565b1980831691505092915050565b6000620004df8383620004b1565b9150826002028217905092915050565b620004fa8262000275565b67ffffffffffffffff81111562000516576200051562000280565b5b620005228254620002de565b6200052f82828562000454565b600060209050601f83116001811462000567576000841562000552578287015190505b6200055e8582620004d1565b865550620005ce565b601f198416620005778662000313565b60005b82811015620005a1578489015182556001820191506020850194506020810190506200057a565b86831015620005c15784890151620005bd601f891682620004b1565b8355505b6001600288020188555050505b505050505050565b600081549050620005e781620002de565b9050919050565b818103620005fe575050620006ed565b6200060982620005d6565b67ffffffffffffffff81111562000625576200062462000280565b5b620006318254620002de565b6200063e82828562000454565b6000601f8311600181146200067257600084156200065d578287015490505b620006698582620004d1565b865550620006e6565b601f198416620006828762000313565b96506200068f8662000313565b60005b82811015620006b95784890154825560018201915060018501945060208101905062000692565b86831015620006d95784890154620006d5601f891682620004b1565b8355505b6001600288020188555050505b5050505050505b565b615ebf80620006ff6000396000f3fe608060405234801561001057600080fd5b506004361061021c5760003560e01c80638bbcbd1b11610125578063ca0cdea8116100ad578063d04398d61161007c578063d04398d6146106d1578063d313e8a1146106ef578063e25bd15814610724578063e404fea214610759578063ef0aa4e6146107915761021c565b8063ca0cdea814610645578063cb2edb6a1461067d578063cfaa5be214610699578063cfc09701146106b55761021c565b8063ac6cb237116100f4578063ac6cb23714610575578063ae2a7ad5146105a5578063b9804935146105c1578063bc79c102146105f3578063c02b9f5a1461060f5761021c565b80638bbcbd1b146104bd5780638da5cb5b146104ef57806396c590431461050d5780639c1bc07b146105435761021c565b806348803dbf116101a85780637564a13c116101775780637564a13c146103f75780637599be5d1461042c57806376948dbd1461044a5780637b4843de146104665780638acd0bfc146104845761021c565b806348803dbf1461038557806352ca81c1146103a157806365bec3e8146103bf5780637325da9e146103db5761021c565b80631eb850b1116101ef5780631eb850b1146102bb57806325c368fe146102d95780632cfb9c11146103095780633a42b00f1461033957806344d38d70146103555761021c565b80630c7a538f1461022157806314e887e81461025157806315eb1adf1461026f578063197bd71e1461029f575b600080fd5b61023b60048036038101906102369190614408565b6107ad565b604051610248919061447f565b60405180910390f35b6102596108cc565b60405161026691906144b3565b60405180910390f35b610289600480360381019061028491906144fa565b6108d2565b6040516102969190614536565b60405180910390f35b6102b960048036038101906102b49190614551565b610911565b005b6102c3610b23565b6040516102d0919061466b565b60405180910390f35b6102f360048036038101906102ee9190614408565b610bb1565b604051610300919061447f565b60405180910390f35b610323600480360381019061031e91906144fa565b610d66565b6040516103309190614536565b60405180910390f35b610353600480360381019061034e919061468d565b610da5565b005b61036f600480360381019061036a91906144fa565b6111ec565b60405161037c91906144b3565b60405180910390f35b61039f600480360381019061039a91906146fc565b611210565b005b6103a96114a4565b6040516103b6919061466b565b60405180910390f35b6103d960048036038101906103d49190614551565b611532565b005b6103f560048036038101906103f091906147e7565b61162f565b005b610411600480360381019061040c91906144fa565b611882565b60405161042396959493929190614921565b60405180910390f35b610434611986565b60405161044191906144b3565b60405180910390f35b610464600480360381019061045f9190614989565b61198c565b005b61046e611a79565b60405161047b919061466b565b60405180910390f35b61049e600480360381019061049991906144fa565b611b07565b6040516104b49a99989796959493929190614a2d565b60405180910390f35b6104d760048036038101906104d29190614989565b611cf8565b6040516104e693929190614ad7565b60405180910390f35b6104f7611faa565b6040516105049190614536565b60405180910390f35b61052760048036038101906105229190614989565b611fce565b60405161053a9796959493929190614b1c565b60405180910390f35b61055d60048036038101906105589190614ba0565b61234d565b60405161056c93929190614c31565b60405180910390f35b61058f600480360381019061058a91906144fa565b612422565b60405161059c9190614536565b60405180910390f35b6105bf60048036038101906105ba9190614408565b612461565b005b6105db60048036038101906105d69190614989565b612509565b6040516105ea93929190614ad7565b60405180910390f35b61060d600480360381019061060891906147e7565b6127bb565b005b610629600480360381019061062491906144fa565b612a0e565b60405161063c9796959493929190614cb7565b60405180910390f35b61065f600480360381019061065a9190614989565b612abd565b60405161067499989796959493929190614d26565b60405180910390f35b61069760048036038101906106929190614dcf565b612d65565b005b6106b360048036038101906106ae9190614e0f565b612ea2565b005b6106cf60048036038101906106ca9190614408565b6133e3565b005b6106d961348a565b6040516106e69190614f0d565b60405180910390f35b61070960048036038101906107049190614989565b6134e2565b60405161071b96959493929190614f2f565b60405180910390f35b61073e60048036038101906107399190614989565b6136f0565b60405161075096959493929190614f2f565b60405180910390f35b610773600480360381019061076e91906144fa565b6138fe565b60405161078899989796959493929190614fa5565b60405180910390f35b6107ab60048036038101906107a69190615040565b613c53565b005b6000610883600160008573ffffffffffffffffffffffffffffffffffffffff1673ffffffffffffffffffffffffffffffffffffffff16815260200190815260200160002060010180546107ff90615122565b80601f016020809104026020016040519081016040528092919081815260200182805461082b90615122565b80156108785780601f1061084d57610100808354040283529160200191610878565b820191906000526020600020905b81548152906001019060200180831161085b57829003601f168201915b505050505083614099565b6108c2576040517f08c379a00000000000000000000000000000000000000000000000000000000081526004016108b99061519f565b60405180910390fd5b6001905092915050565b600d5481565b600981815481106108e257600080fd5b906000526020600020016000915054906101000a900473ffffffffffffffffffffffffffffffffffffffff1681565b60008111610954576040517f08c379a000000000000000000000000000000000000000000000000000000000815260040161094b9061520b565b60405180910390fd5b600180811115610967576109666149b6565b5b6008836040516109779190615267565b908152602001604051809103902060020160009054906101000a900460ff1660018111156109a8576109a76149b6565b5b036109e8576040517f08c379a00000000000000000000000000000000000000000000000000000000081526004016109df906152ca565b60405180910390fd5b600060018111156109fc576109fb6149b6565b5b600883604051610a0c9190615267565b908152602001604051809103902060020160009054906101000a900460ff166001811115610a3d57610a3c6149b6565b5b03610a7f5780600883604051610a539190615267565b90815260200160405180910390206001016000828254610a739190615319565b92505081905550610b1f565b604051806060016040528083815260200182815260200160006001811115610aaa57610aa96149b6565b5b815250600883604051610abd9190615267565b90815260200160405180910390206000820151816000019081610ae091906154f9565b506020820151816001015560408201518160020160006101000a81548160ff02191690836001811115610b1657610b156149b6565b5b02179055509050505b5050565b60606009805480602002602001604051908101604052809291908181526020018280548015610ba757602002820191906000526020600020905b8160009054906101000a900473ffffffffffffffffffffffffffffffffffffffff1673ffffffffffffffffffffffffffffffffffffffff1681526020019060010190808311610b5d575b5050505050905090565b600060011515600460008573ffffffffffffffffffffffffffffffffffffffff1673ffffffffffffffffffffffffffffffffffffffff16815260200190815260200160002060040160009054906101000a900460ff16151514610c49576040517f08c379a0000000000000000000000000000000000000000000000000000000008152600401610c4090615617565b60405180910390fd5b610d1d600460008573ffffffffffffffffffffffffffffffffffffffff1673ffffffffffffffffffffffffffffffffffffffff1681526020019081526020016000206003018054610c9990615122565b80601f0160208091040260200160405190810160405280929190818152602001828054610cc590615122565b8015610d125780601f10610ce757610100808354040283529160200191610d12565b820191906000526020600020905b815481529060010190602001808311610cf557829003601f168201915b505050505083614099565b610d5c576040517f08c379a0000000000000000000000000000000000000000000000000000000008152600401610d539061519f565b60405180910390fd5b6001905092915050565b600b8181548110610d7657600080fd5b906000526020600020016000915054906101000a900473ffffffffffffffffffffffffffffffffffffffff1681565b600180811115610db857610db76149b6565b5b6005600085815260200190815260200160002060070160009054906101000a900460ff166001811115610dee57610ded6149b6565b5b14610e2e576040517f08c379a0000000000000000000000000000000000000000000000000000000008152600401610e25906156a9565b60405180910390fd5b6000610e386140f2565b90506040518061014001604052808281526020016005600087815260200190815260200160002060010160009054906101000a900473ffffffffffffffffffffffffffffffffffffffff1673ffffffffffffffffffffffffffffffffffffffff1681526020018473ffffffffffffffffffffffffffffffffffffffff1681526020013373ffffffffffffffffffffffffffffffffffffffff168152602001600073ffffffffffffffffffffffffffffffffffffffff168152602001600560008781526020019081526020016000206005018054610f1490615122565b80601f0160208091040260200160405190810160405280929190818152602001828054610f4090615122565b8015610f8d5780601f10610f6257610100808354040283529160200191610f8d565b820191906000526020600020905b815481529060010190602001808311610f7057829003601f168201915b5050505050815260200142815260200160006001811115610fb157610fb06149b6565b5b8152602001838152602001600260006005600089815260200190815260200160002060010160009054906101000a900473ffffffffffffffffffffffffffffffffffffffff1673ffffffffffffffffffffffffffffffffffffffff1673ffffffffffffffffffffffffffffffffffffffff16815260200190815260200160002060050154815250600560008381526020019081526020016000206000820151816000015560208201518160010160006101000a81548173ffffffffffffffffffffffffffffffffffffffff021916908373ffffffffffffffffffffffffffffffffffffffff16021790555060408201518160020160006101000a81548173ffffffffffffffffffffffffffffffffffffffff021916908373ffffffffffffffffffffffffffffffffffffffff16021790555060608201518160030160006101000a81548173ffffffffffffffffffffffffffffffffffffffff021916908373ffffffffffffffffffffffffffffffffffffffff16021790555060808201518160040160006101000a81548173ffffffffffffffffffffffffffffffffffffffff021916908373ffffffffffffffffffffffffffffffffffffffff16021790555060a082015181600501908161118691906154f9565b5060c0820151816006015560e08201518160070160006101000a81548160ff021916908360018111156111bc576111bb6149b6565b5b02179055506101008201518160080190816111d791906154f9565b50610120820151816009015590505050505050565b600c81815481106111fc57600080fd5b906000526020600020016000915090505481565b60001515600260008773ffffffffffffffffffffffffffffffffffffffff1673ffffffffffffffffffffffffffffffffffffffff16815260200190815260200160002060070160009054906101000a900460ff161515146112a6576040517f08c379a000000000000000000000000000000000000000000000000000000000815260040161129d90615715565b60405180910390fd5b6040518061012001604052808673ffffffffffffffffffffffffffffffffffffffff168152602001858152602001848152602001838152602001828152602001600081526020016000815260200160011515815260200160001515815250600260008773ffffffffffffffffffffffffffffffffffffffff1673ffffffffffffffffffffffffffffffffffffffff16815260200190815260200160002060008201518160000160006101000a81548173ffffffffffffffffffffffffffffffffffffffff021916908373ffffffffffffffffffffffffffffffffffffffff160217905550602082015181600101908161139f91906154f9565b5060408201518160020190816113b591906154f9565b5060608201518160030190816113cb91906154f9565b5060808201518160040190816113e191906154f9565b5060a0820151816005015560c0820151816006015560e08201518160070160006101000a81548160ff0219169083151502179055506101008201518160070160016101000a81548160ff0219169083151502179055509050506009859080600181540180825580915050600190039060005260206000200160009091909190916101000a81548173ffffffffffffffffffffffffffffffffffffffff021916908373ffffffffffffffffffffffffffffffffffffffff1602179055505050505050565b6060600a80548060200260200160405190810160405280929190818152602001828054801561152857602002820191906000526020600020905b8160009054906101000a900473ffffffffffffffffffffffffffffffffffffffff1673ffffffffffffffffffffffffffffffffffffffff16815260200190600101908083116114de575b5050505050905090565b60006001811115611546576115456149b6565b5b6008836040516115569190615267565b908152602001604051809103902060020160009054906101000a900460ff166001811115611587576115866149b6565b5b146115c7576040517f08c379a00000000000000000000000000000000000000000000000000000000081526004016115be90615781565b60405180910390fd5b806008836040516115d89190615267565b908152602001604051809103902060010154101561162b576040517f08c379a0000000000000000000000000000000000000000000000000000000008152600401611622906157ed565b60405180910390fd5b5050565b60001515600460008673ffffffffffffffffffffffffffffffffffffffff1673ffffffffffffffffffffffffffffffffffffffff16815260200190815260200160002060040160009054906101000a900460ff161515146116c5576040517f08c379a00000000000000000000000000000000000000000000000000000000081526004016116bc9061587f565b60405180910390fd5b6040518060c001604052808573ffffffffffffffffffffffffffffffffffffffff16815260200184815260200183815260200182815260200160011515815260200160001515815250600460008673ffffffffffffffffffffffffffffffffffffffff1673ffffffffffffffffffffffffffffffffffffffff16815260200190815260200160002060008201518160000160006101000a81548173ffffffffffffffffffffffffffffffffffffffff021916908373ffffffffffffffffffffffffffffffffffffffff16021790555060208201518160010190816117a991906154f9565b5060408201518160020190816117bf91906154f9565b5060608201518160030190816117d591906154f9565b5060808201518160040160006101000a81548160ff02191690831515021790555060a08201518160040160016101000a81548160ff021916908315150217905550905050600b849080600181540180825580915050600190039060005260206000200160009091909190916101000a81548173ffffffffffffffffffffffffffffffffffffffff021916908373ffffffffffffffffffffffffffffffffffffffff16021790555050505050565b60066020528060005260406000206000915090508060000154908060010160009054906101000a900473ffffffffffffffffffffffffffffffffffffffff16908060020160009054906101000a900473ffffffffffffffffffffffffffffffffffffffff169080600301549080600401549080600501805461190390615122565b80601f016020809104026020016040519081016040528092919081815260200182805461192f90615122565b801561197c5780601f106119515761010080835404028352916020019161197c565b820191906000526020600020905b81548152906001019060200180831161195f57829003601f168201915b5050505050905086565b600e5481565b600460008273ffffffffffffffffffffffffffffffffffffffff1673ffffffffffffffffffffffffffffffffffffffff16815260200190815260200160002060040160019054906101000a900460ff16611a1b576040517f08c379a0000000000000000000000000000000000000000000000000000000008152600401611a12906158eb565b60405180910390fd5b6000600460008373ffffffffffffffffffffffffffffffffffffffff1673ffffffffffffffffffffffffffffffffffffffff16815260200190815260200160002060040160016101000a81548160ff02191690831515021790555050565b6060600b805480602002602001604051908101604052809291908181526020018280548015611afd57602002820191906000526020600020905b8160009054906101000a900473ffffffffffffffffffffffffffffffffffffffff1673ffffffffffffffffffffffffffffffffffffffff1681526020019060010190808311611ab3575b5050505050905090565b60056020528060005260406000206000915090508060000154908060010160009054906101000a900473ffffffffffffffffffffffffffffffffffffffff16908060020160009054906101000a900473ffffffffffffffffffffffffffffffffffffffff16908060030160009054906101000a900473ffffffffffffffffffffffffffffffffffffffff16908060040160009054906101000a900473ffffffffffffffffffffffffffffffffffffffff1690806005018054611bc890615122565b80601f0160208091040260200160405190810160405280929190818152602001828054611bf490615122565b8015611c415780601f10611c1657610100808354040283529160200191611c41565b820191906000526020600020905b815481529060010190602001808311611c2457829003601f168201915b5050505050908060060154908060070160009054906101000a900460ff1690806008018054611c6f90615122565b80601f0160208091040260200160405190810160405280929190818152602001828054611c9b90615122565b8015611ce85780601f10611cbd57610100808354040283529160200191611ce8565b820191906000526020600020905b815481529060010190602001808311611ccb57829003601f168201915b505050505090806009015490508a565b60006060806000600360008673ffffffffffffffffffffffffffffffffffffffff1673ffffffffffffffffffffffffffffffffffffffff1681526020019081526020016000206040518060c00160405290816000820160009054906101000a900473ffffffffffffffffffffffffffffffffffffffff1673ffffffffffffffffffffffffffffffffffffffff1673ffffffffffffffffffffffffffffffffffffffff168152602001600182018054611daf90615122565b80601f0160208091040260200160405190810160405280929190818152602001828054611ddb90615122565b8015611e285780601f10611dfd57610100808354040283529160200191611e28565b820191906000526020600020905b815481529060010190602001808311611e0b57829003601f168201915b50505050508152602001600282018054611e4190615122565b80601f0160208091040260200160405190810160405280929190818152602001828054611e6d90615122565b8015611eba5780601f10611e8f57610100808354040283529160200191611eba565b820191906000526020600020905b815481529060010190602001808311611e9d57829003601f168201915b50505050508152602001600382018054611ed390615122565b80601f0160208091040260200160405190810160405280929190818152602001828054611eff90615122565b8015611f4c5780601f10611f2157610100808354040283529160200191611f4c565b820191906000526020600020905b815481529060010190602001808311611f2f57829003601f168201915b505050505081526020016004820160009054906101000a900460ff161515151581526020016004820160019054906101000a900460ff1615151515815250509050806000015193508060200151925080604001519150509193909250565b60008054906101000a900473ffffffffffffffffffffffffffffffffffffffff1681565b60006060806060600080600080600260008a73ffffffffffffffffffffffffffffffffffffffff1673ffffffffffffffffffffffffffffffffffffffff168152602001908152602001600020604051806101200160405290816000820160009054906101000a900473ffffffffffffffffffffffffffffffffffffffff1673ffffffffffffffffffffffffffffffffffffffff1673ffffffffffffffffffffffffffffffffffffffff16815260200160018201805461208c90615122565b80601f01602080910402602001604051908101604052809291908181526020018280546120b890615122565b80156121055780601f106120da57610100808354040283529160200191612105565b820191906000526020600020905b8154815290600101906020018083116120e857829003601f168201915b5050505050815260200160028201805461211e90615122565b80601f016020809104026020016040519081016040528092919081815260200182805461214a90615122565b80156121975780601f1061216c57610100808354040283529160200191612197565b820191906000526020600020905b81548152906001019060200180831161217a57829003601f168201915b505050505081526020016003820180546121b090615122565b80601f01602080910402602001604051908101604052809291908181526020018280546121dc90615122565b80156122295780601f106121fe57610100808354040283529160200191612229565b820191906000526020600020905b81548152906001019060200180831161220c57829003601f168201915b5050505050815260200160048201805461224290615122565b80601f016020809104026020016040519081016040528092919081815260200182805461226e90615122565b80156122bb5780601f10612290576101008083540402835291602001916122bb565b820191906000526020600020905b81548152906001019060200180831161229e57829003601f168201915b5050505050815260200160058201548152602001600682015481526020016007820160009054906101000a900460ff161515151581526020016007820160019054906101000a900460ff1615151515815250509050806000015197508060200151965080604001519550806060015194508060a0015193508060c0015192508060e00151915050919395979092949650565b60088180516020810182018051848252602083016020850120818352809550505050505060009150905080600001805461238690615122565b80601f01602080910402602001604051908101604052809291908181526020018280546123b290615122565b80156123ff5780601f106123d4576101008083540402835291602001916123ff565b820191906000526020600020905b8154815290600101906020018083116123e257829003601f168201915b5050505050908060010154908060020160009054906101000a900460ff16905083565b600a818154811061243257600080fd5b906000526020600020016000915054906101000a900473ffffffffffffffffffffffffffffffffffffffff1681565b61246b8282610bb1565b6124aa576040517f08c379a00000000000000000000000000000000000000000000000000000000081526004016124a190615957565b60405180910390fd5b6001600460008473ffffffffffffffffffffffffffffffffffffffff1673ffffffffffffffffffffffffffffffffffffffff16815260200190815260200160002060040160016101000a81548160ff0219169083151502179055505050565b60006060806000600460008673ffffffffffffffffffffffffffffffffffffffff1673ffffffffffffffffffffffffffffffffffffffff1681526020019081526020016000206040518060c00160405290816000820160009054906101000a900473ffffffffffffffffffffffffffffffffffffffff1673ffffffffffffffffffffffffffffffffffffffff1673ffffffffffffffffffffffffffffffffffffffff1681526020016001820180546125c090615122565b80601f01602080910402602001604051908101604052809291908181526020018280546125ec90615122565b80156126395780601f1061260e57610100808354040283529160200191612639565b820191906000526020600020905b81548152906001019060200180831161261c57829003601f168201915b5050505050815260200160028201805461265290615122565b80601f016020809104026020016040519081016040528092919081815260200182805461267e90615122565b80156126cb5780601f106126a0576101008083540402835291602001916126cb565b820191906000526020600020905b8154815290600101906020018083116126ae57829003601f168201915b505050505081526020016003820180546126e490615122565b80601f016020809104026020016040519081016040528092919081815260200182805461271090615122565b801561275d5780601f106127325761010080835404028352916020019161275d565b820191906000526020600020905b81548152906001019060200180831161274057829003601f168201915b505050505081526020016004820160009054906101000a900460ff161515151581526020016004820160019054906101000a900460ff1615151515815250509050806000015193508060200151925080604001519150509193909250565b60001515600360008673ffffffffffffffffffffffffffffffffffffffff1673ffffffffffffffffffffffffffffffffffffffff16815260200190815260200160002060040160009054906101000a900460ff16151514612851576040517f08c379a0000000000000000000000000000000000000000000000000000000008152600401612848906159c3565b60405180910390fd5b6040518060c001604052808573ffffffffffffffffffffffffffffffffffffffff16815260200184815260200183815260200182815260200160011515815260200160001515815250600360008673ffffffffffffffffffffffffffffffffffffffff1673ffffffffffffffffffffffffffffffffffffffff16815260200190815260200160002060008201518160000160006101000a81548173ffffffffffffffffffffffffffffffffffffffff021916908373ffffffffffffffffffffffffffffffffffffffff160217905550602082015181600101908161293591906154f9565b50604082015181600201908161294b91906154f9565b50606082015181600301908161296191906154f9565b5060808201518160040160006101000a81548160ff02191690831515021790555060a08201518160040160016101000a81548160ff021916908315150217905550905050600a849080600181540180825580915050600190039060005260206000200160009091909190916101000a81548173ffffffffffffffffffffffffffffffffffffffff021916908373ffffffffffffffffffffffffffffffffffffffff16021790555050505050565b60076020528060005260406000206000915090508060000154908060010160009054906101000a900473ffffffffffffffffffffffffffffffffffffffff16908060020160009054906101000a900473ffffffffffffffffffffffffffffffffffffffff16908060030160009054906101000a900473ffffffffffffffffffffffffffffffffffffffff16908060040154908060050154908060060160009054906101000a900460ff16905087565b60026020528060005260406000206000915090508060000160009054906101000a900473ffffffffffffffffffffffffffffffffffffffff1690806001018054612b0690615122565b80601f0160208091040260200160405190810160405280929190818152602001828054612b3290615122565b8015612b7f5780601f10612b5457610100808354040283529160200191612b7f565b820191906000526020600020905b815481529060010190602001808311612b6257829003601f168201915b505050505090806002018054612b9490615122565b80601f0160208091040260200160405190810160405280929190818152602001828054612bc090615122565b8015612c0d5780601f10612be257610100808354040283529160200191612c0d565b820191906000526020600020905b815481529060010190602001808311612bf057829003601f168201915b505050505090806003018054612c2290615122565b80601f0160208091040260200160405190810160405280929190818152602001828054612c4e90615122565b8015612c9b5780601f10612c7057610100808354040283529160200191612c9b565b820191906000526020600020905b815481529060010190602001808311612c7e57829003601f168201915b505050505090806004018054612cb090615122565b80601f0160208091040260200160405190810160405280929190818152602001828054612cdc90615122565b8015612d295780601f10612cfe57610100808354040283529160200191612d29565b820191906000526020600020905b815481529060010190602001808311612d0c57829003601f168201915b5050505050908060050154908060060154908060070160009054906101000a900460ff16908060070160019054906101000a900460ff16905089565b60006001811115612d7957612d786149b6565b5b6007600084815260200190815260200160002060060160009054906101000a900460ff166001811115612daf57612dae6149b6565b5b14612def576040517f08c379a0000000000000000000000000000000000000000000000000000000008152600401612de690615a55565b60405180910390fd5b42600760008481526020019081526020016000206005018190555060016007600084815260200190815260200160002060060160006101000a81548160ff02191690836001811115612e4457612e436149b6565b5b0217905550336005600083815260200190815260200160002060040160006101000a81548173ffffffffffffffffffffffffffffffffffffffff021916908373ffffffffffffffffffffffffffffffffffffffff1602179055505050565b60011515600260008473ffffffffffffffffffffffffffffffffffffffff1673ffffffffffffffffffffffffffffffffffffffff16815260200190815260200160002060070160009054906101000a900460ff16151514612f38576040517f08c379a0000000000000000000000000000000000000000000000000000000008152600401612f2f90615ac1565b60405180910390fd5b604051602001612f4790615b2d565b60405160208183030381529060405280519060200120600260008473ffffffffffffffffffffffffffffffffffffffff1673ffffffffffffffffffffffffffffffffffffffff168152602001908152602001600020600201604051602001612faf9190615bc5565b6040516020818303038152906040528051906020012003613005576040517f08c379a0000000000000000000000000000000000000000000000000000000008152600401612ffc90615c4e565b60405180910390fd5b60004290506040518061014001604052808281526020018473ffffffffffffffffffffffffffffffffffffffff168152602001600073ffffffffffffffffffffffffffffffffffffffff1681526020013373ffffffffffffffffffffffffffffffffffffffff168152602001600073ffffffffffffffffffffffffffffffffffffffff168152602001600260008673ffffffffffffffffffffffffffffffffffffffff1673ffffffffffffffffffffffffffffffffffffffff16815260200190815260200160002060020180546130db90615122565b80601f016020809104026020016040519081016040528092919081815260200182805461310790615122565b80156131545780601f1061312957610100808354040283529160200191613154565b820191906000526020600020905b81548152906001019060200180831161313757829003601f168201915b5050505050815260200142815260200160006001811115613178576131776149b6565b5b815260200160405180602001604052806000815250815260200183815250600560008381526020019081526020016000206000820151816000015560208201518160010160006101000a81548173ffffffffffffffffffffffffffffffffffffffff021916908373ffffffffffffffffffffffffffffffffffffffff16021790555060408201518160020160006101000a81548173ffffffffffffffffffffffffffffffffffffffff021916908373ffffffffffffffffffffffffffffffffffffffff16021790555060608201518160030160006101000a81548173ffffffffffffffffffffffffffffffffffffffff021916908373ffffffffffffffffffffffffffffffffffffffff16021790555060808201518160040160006101000a81548173ffffffffffffffffffffffffffffffffffffffff021916908373ffffffffffffffffffffffffffffffffffffffff16021790555060a08201518160050190816132e491906154f9565b5060c0820151816006015560e08201518160070160006101000a81548160ff0219169083600181111561331a576133196149b6565b5b021790555061010082015181600801908161333591906154f9565b50610120820151816009015590505081600260008573ffffffffffffffffffffffffffffffffffffffff1673ffffffffffffffffffffffffffffffffffffffff16815260200190815260200160002060050160008282546133969190615319565b92505081905550600c819080600181540180825580915050600190039060005260206000200160009091909190915055600d60008154809291906133d990615c6e565b9190505550505050565b6133ed82826107ad565b61342c576040517f08c379a000000000000000000000000000000000000000000000000000000000815260040161342390615957565b60405180910390fd5b60018060008473ffffffffffffffffffffffffffffffffffffffff1673ffffffffffffffffffffffffffffffffffffffff16815260200190815260200160002060020160006101000a81548160ff0219169083151502179055505050565b6060600c8054806020026020016040519081016040528092919081815260200182805480156134d857602002820191906000526020600020905b8154815260200190600101908083116134c4575b5050505050905090565b60046020528060005260406000206000915090508060000160009054906101000a900473ffffffffffffffffffffffffffffffffffffffff169080600101805461352b90615122565b80601f016020809104026020016040519081016040528092919081815260200182805461355790615122565b80156135a45780601f10613579576101008083540402835291602001916135a4565b820191906000526020600020905b81548152906001019060200180831161358757829003601f168201915b5050505050908060020180546135b990615122565b80601f01602080910402602001604051908101604052809291908181526020018280546135e590615122565b80156136325780601f1061360757610100808354040283529160200191613632565b820191906000526020600020905b81548152906001019060200180831161361557829003601f168201915b50505050509080600301805461364790615122565b80601f016020809104026020016040519081016040528092919081815260200182805461367390615122565b80156136c05780601f10613695576101008083540402835291602001916136c0565b820191906000526020600020905b8154815290600101906020018083116136a357829003601f168201915b5050505050908060040160009054906101000a900460ff16908060040160019054906101000a900460ff16905086565b60036020528060005260406000206000915090508060000160009054906101000a900473ffffffffffffffffffffffffffffffffffffffff169080600101805461373990615122565b80601f016020809104026020016040519081016040528092919081815260200182805461376590615122565b80156137b25780601f10613787576101008083540402835291602001916137b2565b820191906000526020600020905b81548152906001019060200180831161379557829003601f168201915b5050505050908060020180546137c790615122565b80601f01602080910402602001604051908101604052809291908181526020018280546137f390615122565b80156138405780601f1061381557610100808354040283529160200191613840565b820191906000526020600020905b81548152906001019060200180831161382357829003601f168201915b50505050509080600301805461385590615122565b80601f016020809104026020016040519081016040528092919081815260200182805461388190615122565b80156138ce5780601f106138a3576101008083540402835291602001916138ce565b820191906000526020600020905b8154815290600101906020018083116138b157829003601f168201915b5050505050908060040160009054906101000a900460ff16908060040160019054906101000a900460ff16905086565b60008060008060606000806060600080600560008c815260200190815260200160002060405180610140016040529081600082015481526020016001820160009054906101000a900473ffffffffffffffffffffffffffffffffffffffff1673ffffffffffffffffffffffffffffffffffffffff1673ffffffffffffffffffffffffffffffffffffffff1681526020016002820160009054906101000a900473ffffffffffffffffffffffffffffffffffffffff1673ffffffffffffffffffffffffffffffffffffffff1673ffffffffffffffffffffffffffffffffffffffff1681526020016003820160009054906101000a900473ffffffffffffffffffffffffffffffffffffffff1673ffffffffffffffffffffffffffffffffffffffff1673ffffffffffffffffffffffffffffffffffffffff1681526020016004820160009054906101000a900473ffffffffffffffffffffffffffffffffffffffff1673ffffffffffffffffffffffffffffffffffffffff1673ffffffffffffffffffffffffffffffffffffffff168152602001600582018054613a9f90615122565b80601f0160208091040260200160405190810160405280929190818152602001828054613acb90615122565b8015613b185780601f10613aed57610100808354040283529160200191613b18565b820191906000526020600020905b815481529060010190602001808311613afb57829003601f168201915b50505050508152602001600682015481526020016007820160009054906101000a900460ff166001811115613b5057613b4f6149b6565b5b6001811115613b6257613b616149b6565b5b8152602001600882018054613b7690615122565b80601f0160208091040260200160405190810160405280929190818152602001828054613ba290615122565b8015613bef5780601f10613bc457610100808354040283529160200191613bef565b820191906000526020600020905b815481529060010190602001808311613bd257829003601f168201915b505050505081526020016009820154815250509050806000015199508060200151985080604001519750806080015196508060a0015195508060c0015194508060e00151935080610100015192508061012001519150509193959799909294969850565b60006001811115613c6757613c666149b6565b5b6005600087815260200190815260200160002060070160009054906101000a900460ff166001811115613c9d57613c9c6149b6565b5b14613cdd576040517f08c379a0000000000000000000000000000000000000000000000000000000008152600401613cd490615d02565b60405180910390fd5b600073ffffffffffffffffffffffffffffffffffffffff166005600087815260200190815260200160002060010160009054906101000a900473ffffffffffffffffffffffffffffffffffffffff1673ffffffffffffffffffffffffffffffffffffffff1603613d82576040517f08c379a0000000000000000000000000000000000000000000000000000000008152600401613d7990615d6e565b60405180910390fd5b336005600087815260200190815260200160002060030160006101000a81548173ffffffffffffffffffffffffffffffffffffffff021916908373ffffffffffffffffffffffffffffffffffffffff16021790555083600560008781526020019081526020016000206008019081613dfa91906154f9565b5060016005600087815260200190815260200160002060070160006101000a81548160ff02191690836001811115613e3557613e346149b6565b5b02179055506000613e4461413f565b90506040518060c001604052808281526020016005600089815260200190815260200160002060010160009054906101000a900473ffffffffffffffffffffffffffffffffffffffff1673ffffffffffffffffffffffffffffffffffffffff1681526020013373ffffffffffffffffffffffffffffffffffffffff16815260200185815260200184815260200183815250600660008381526020019081526020016000206000820151816000015560208201518160010160006101000a81548173ffffffffffffffffffffffffffffffffffffffff021916908373ffffffffffffffffffffffffffffffffffffffff16021790555060408201518160020160006101000a81548173ffffffffffffffffffffffffffffffffffffffff021916908373ffffffffffffffffffffffffffffffffffffffff160217905550606082015181600301556080820151816004015560a0820151816005019081613fa991906154f9565b509050506000613fb88761418c565b90508060026000600560008b815260200190815260200160002060010160009054906101000a900473ffffffffffffffffffffffffffffffffffffffff1673ffffffffffffffffffffffffffffffffffffffff1673ffffffffffffffffffffffffffffffffffffffff16815260200190815260200160002060060160008282546140429190615319565b925050819055503373ffffffffffffffffffffffffffffffffffffffff166108fc829081150290604051600060405180830381858888f1935050505015801561408f573d6000803e3d6000fd5b5050505050505050565b6000816040516020016140ac9190615267565b60405160208183030381529060405280519060200120836040516020016140d39190615267565b6040516020818303038152906040528051906020012014905092915050565b6000600d600081548092919061410790615c6e565b919050555042600d54604051602001614121929190615daf565b6040516020818303038152906040528051906020012060001c905090565b6000600e600081548092919061415490615c6e565b919050555042600e5460405160200161416e929190615daf565b6040516020818303038152906040528051906020012060001c905090565b60006001808111156141a1576141a06149b6565b5b6005600084815260200190815260200160002060070160009054906101000a900460ff1660018111156141d7576141d66149b6565b5b14614217576040517f08c379a000000000000000000000000000000000000000000000000000000000815260040161420e90615e27565b60405180910390fd5b6000600560008481526020019081526020016000206009015490506000633b9aca00905080826142479190615e47565b92505050919050565b6000604051905090565b600080fd5b600080fd5b600073ffffffffffffffffffffffffffffffffffffffff82169050919050565b600061428f82614264565b9050919050565b61429f81614284565b81146142aa57600080fd5b50565b6000813590506142bc81614296565b92915050565b600080fd5b600080fd5b6000601f19601f8301169050919050565b7f4e487b7100000000000000000000000000000000000000000000000000000000600052604160045260246000fd5b614315826142cc565b810181811067ffffffffffffffff82111715614334576143336142dd565b5b80604052505050565b6000614347614250565b9050614353828261430c565b919050565b600067ffffffffffffffff821115614373576143726142dd565b5b61437c826142cc565b9050602081019050919050565b82818337600083830152505050565b60006143ab6143a684614358565b61433d565b9050828152602081018484840111156143c7576143c66142c7565b5b6143d2848285614389565b509392505050565b600082601f8301126143ef576143ee6142c2565b5b81356143ff848260208601614398565b91505092915050565b6000806040838503121561441f5761441e61425a565b5b600061442d858286016142ad565b925050602083013567ffffffffffffffff81111561444e5761444d61425f565b5b61445a858286016143da565b9150509250929050565b60008115159050919050565b61447981614464565b82525050565b60006020820190506144946000830184614470565b92915050565b6000819050919050565b6144ad8161449a565b82525050565b60006020820190506144c860008301846144a4565b92915050565b6144d78161449a565b81146144e257600080fd5b50565b6000813590506144f4816144ce565b92915050565b6000602082840312156145105761450f61425a565b5b600061451e848285016144e5565b91505092915050565b61453081614284565b82525050565b600060208201905061454b6000830184614527565b92915050565b600080604083850312156145685761456761425a565b5b600083013567ffffffffffffffff8111156145865761458561425f565b5b614592858286016143da565b92505060206145a3858286016144e5565b9150509250929050565b600081519050919050565b600082825260208201905092915050565b6000819050602082019050919050565b6145e281614284565b82525050565b60006145f483836145d9565b60208301905092915050565b6000602082019050919050565b6000614618826145ad565b61462281856145b8565b935061462d836145c9565b8060005b8381101561465e57815161464588826145e8565b975061465083614600565b925050600181019050614631565b5085935050505092915050565b60006020820190508181036000830152614685818461460d565b905092915050565b6000806000606084860312156146a6576146a561425a565b5b60006146b4868287016144e5565b93505060206146c5868287016142ad565b925050604084013567ffffffffffffffff8111156146e6576146e561425f565b5b6146f2868287016143da565b9150509250925092565b600080600080600060a086880312156147185761471761425a565b5b6000614726888289016142ad565b955050602086013567ffffffffffffffff8111156147475761474661425f565b5b614753888289016143da565b945050604086013567ffffffffffffffff8111156147745761477361425f565b5b614780888289016143da565b935050606086013567ffffffffffffffff8111156147a1576147a061425f565b5b6147ad888289016143da565b925050608086013567ffffffffffffffff8111156147ce576147cd61425f565b5b6147da888289016143da565b9150509295509295909350565b600080600080608085870312156148015761480061425a565b5b600061480f878288016142ad565b945050602085013567ffffffffffffffff8111156148305761482f61425f565b5b61483c878288016143da565b935050604085013567ffffffffffffffff81111561485d5761485c61425f565b5b614869878288016143da565b925050606085013567ffffffffffffffff81111561488a5761488961425f565b5b614896878288016143da565b91505092959194509250565b600081519050919050565b600082825260208201905092915050565b60005b838110156148dc5780820151818401526020810190506148c1565b60008484015250505050565b60006148f3826148a2565b6148fd81856148ad565b935061490d8185602086016148be565b614916816142cc565b840191505092915050565b600060c08201905061493660008301896144a4565b6149436020830188614527565b6149506040830187614527565b61495d60608301866144a4565b61496a60808301856144a4565b81810360a083015261497c81846148e8565b9050979650505050505050565b60006020828403121561499f5761499e61425a565b5b60006149ad848285016142ad565b91505092915050565b7f4e487b7100000000000000000000000000000000000000000000000000000000600052602160045260246000fd5b600281106149f6576149f56149b6565b5b50565b6000819050614a07826149e5565b919050565b6000614a17826149f9565b9050919050565b614a2781614a0c565b82525050565b600061014082019050614a43600083018d6144a4565b614a50602083018c614527565b614a5d604083018b614527565b614a6a606083018a614527565b614a776080830189614527565b81810360a0830152614a8981886148e8565b9050614a9860c08301876144a4565b614aa560e0830186614a1e565b818103610100830152614ab881856148e8565b9050614ac86101208301846144a4565b9b9a5050505050505050505050565b6000606082019050614aec6000830186614527565b8181036020830152614afe81856148e8565b90508181036040830152614b1281846148e8565b9050949350505050565b600060e082019050614b31600083018a614527565b8181036020830152614b4381896148e8565b90508181036040830152614b5781886148e8565b90508181036060830152614b6b81876148e8565b9050614b7a60808301866144a4565b614b8760a08301856144a4565b614b9460c0830184614470565b98975050505050505050565b600060208284031215614bb657614bb561425a565b5b600082013567ffffffffffffffff811115614bd457614bd361425f565b5b614be0848285016143da565b91505092915050565b60028110614bfa57614bf96149b6565b5b50565b6000819050614c0b82614be9565b919050565b6000614c1b82614bfd565b9050919050565b614c2b81614c10565b82525050565b60006060820190508181036000830152614c4b81866148e8565b9050614c5a60208301856144a4565b614c676040830184614c22565b949350505050565b60028110614c8057614c7f6149b6565b5b50565b6000819050614c9182614c6f565b919050565b6000614ca182614c83565b9050919050565b614cb181614c96565b82525050565b600060e082019050614ccc600083018a6144a4565b614cd96020830189614527565b614ce66040830188614527565b614cf36060830187614527565b614d0060808301866144a4565b614d0d60a08301856144a4565b614d1a60c0830184614ca8565b98975050505050505050565b600061012082019050614d3c600083018c614527565b8181036020830152614d4e818b6148e8565b90508181036040830152614d62818a6148e8565b90508181036060830152614d7681896148e8565b90508181036080830152614d8a81886148e8565b9050614d9960a08301876144a4565b614da660c08301866144a4565b614db360e0830185614470565b614dc1610100830184614470565b9a9950505050505050505050565b60008060408385031215614de657614de561425a565b5b6000614df4858286016144e5565b9250506020614e05858286016144e5565b9150509250929050565b60008060408385031215614e2657614e2561425a565b5b6000614e34858286016142ad565b9250506020614e45858286016144e5565b9150509250929050565b600081519050919050565b600082825260208201905092915050565b6000819050602082019050919050565b614e848161449a565b82525050565b6000614e968383614e7b565b60208301905092915050565b6000602082019050919050565b6000614eba82614e4f565b614ec48185614e5a565b9350614ecf83614e6b565b8060005b83811015614f00578151614ee78882614e8a565b9750614ef283614ea2565b925050600181019050614ed3565b5085935050505092915050565b60006020820190508181036000830152614f278184614eaf565b905092915050565b600060c082019050614f446000830189614527565b8181036020830152614f5681886148e8565b90508181036040830152614f6a81876148e8565b90508181036060830152614f7e81866148e8565b9050614f8d6080830185614470565b614f9a60a0830184614470565b979650505050505050565b600061012082019050614fbb600083018c6144a4565b614fc8602083018b614527565b614fd5604083018a614527565b614fe26060830189614527565b8181036080830152614ff481886148e8565b905061500360a08301876144a4565b61501060c0830186614a1e565b81810360e083015261502281856148e8565b90506150326101008301846144a4565b9a9950505050505050505050565b600080600080600060a0868803121561505c5761505b61425a565b5b600061506a888289016144e5565b955050602086013567ffffffffffffffff81111561508b5761508a61425f565b5b615097888289016143da565b94505060406150a8888289016144e5565b93505060606150b9888289016144e5565b925050608086013567ffffffffffffffff8111156150da576150d961425f565b5b6150e6888289016143da565b9150509295509295909350565b7f4e487b7100000000000000000000000000000000000000000000000000000000600052602260045260246000fd5b6000600282049050600182168061513a57607f821691505b60208210810361514d5761514c6150f3565b5b50919050565b7f496e76616c69642061646472657373206f722070617373776f72640000000000600082015250565b6000615189601b836148ad565b915061519482615153565b602082019050919050565b600060208201905081810360008301526151b88161517c565b9050919050565b7f566f6c756d65206d7573742062652067726561746572207468616e207a65726f600082015250565b60006151f56020836148ad565b9150615200826151bf565b602082019050919050565b60006020820190508181036000830152615224816151e8565b9050919050565b600081905092915050565b6000615241826148a2565b61524b818561522b565b935061525b8185602086016148be565b80840191505092915050565b60006152738284615236565b915081905092915050565b7f426c6f6f64207479706520616c72656164792072657175657374656400000000600082015250565b60006152b4601c836148ad565b91506152bf8261527e565b602082019050919050565b600060208201905081810360008301526152e3816152a7565b9050919050565b7f4e487b7100000000000000000000000000000000000000000000000000000000600052601160045260246000fd5b60006153248261449a565b915061532f8361449a565b9250828201905080821115615347576153466152ea565b5b92915050565b60008190508160005260206000209050919050565b60006020601f8301049050919050565b600082821b905092915050565b6000600883026153af7fffffffffffffffffffffffffffffffffffffffffffffffffffffffffffffffff82615372565b6153b98683615372565b95508019841693508086168417925050509392505050565b6000819050919050565b60006153f66153f16153ec8461449a565b6153d1565b61449a565b9050919050565b6000819050919050565b615410836153db565b61542461541c826153fd565b84845461537f565b825550505050565b600090565b61543961542c565b615444818484615407565b505050565b5b818110156154685761545d600082615431565b60018101905061544a565b5050565b601f8211156154ad5761547e8161534d565b61548784615362565b81016020851015615496578190505b6154aa6154a285615362565b830182615449565b50505b505050565b600082821c905092915050565b60006154d0600019846008026154b2565b1980831691505092915050565b60006154e983836154bf565b9150826002028217905092915050565b615502826148a2565b67ffffffffffffffff81111561551b5761551a6142dd565b5b6155258254615122565b61553082828561546c565b600060209050601f8311600181146155635760008415615551578287015190505b61555b85826154dd565b8655506155c3565b601f1984166155718661534d565b60005b8281101561559957848901518255600182019150602085019450602081019050615574565b868310156155b657848901516155b2601f8916826154bf565b8355505b6001600288020188555050505b505050505050565b7f596f75277265206e6f7420726567697374657265642079657421000000000000600082015250565b6000615601601a836148ad565b915061560c826155cb565b602082019050919050565b60006020820190508181036000830152615630816155f4565b9050919050565b7f4d65646963616c2063656e7465722070726f63657373206e6f7420636f6d706c60008201527f6574656400000000000000000000000000000000000000000000000000000000602082015250565b60006156936024836148ad565b915061569e82615637565b604082019050919050565b600060208201905081810360008301526156c281615686565b9050919050565b7f446f6e6f7220697320616c726561647920726567697374657265640000000000600082015250565b60006156ff601b836148ad565b915061570a826156c9565b602082019050919050565b6000602082019050818103600083015261572e816156f2565b9050919050565b7f426c6f6f642074797065206e6f7420617661696c61626c650000000000000000600082015250565b600061576b6018836148ad565b915061577682615735565b602082019050919050565b6000602082019050818103600083015261579a8161575e565b9050919050565b7f496e73756666696369656e7420626c6f6f6420766f6c756d6500000000000000600082015250565b60006157d76019836148ad565b91506157e2826157a1565b602082019050919050565b60006020820190508181036000830152615806816157ca565b9050919050565b7f4d65646963616c2063656e74657220697320616c72656164792072656769737460008201527f6572656400000000000000000000000000000000000000000000000000000000602082015250565b60006158696024836148ad565b91506158748261580d565b604082019050919050565b600060208201905081810360008301526158988161585c565b9050919050565b7f596f75277265206e6f74206c6f6767656420696e000000000000000000000000600082015250565b60006158d56014836148ad565b91506158e08261589f565b602082019050919050565b60006020820190508181036000830152615904816158c8565b9050919050565b7f496e76616c6964206c6f67696e2063726564656e7469616c7300000000000000600082015250565b60006159416019836148ad565b915061594c8261590b565b602082019050919050565b6000602082019050818103600083015261597081615934565b9050919050565b7f5472616e73706f7274657220616c726561647920726567697374657265640000600082015250565b60006159ad601e836148ad565b91506159b882615977565b602082019050919050565b600060208201905081810360008301526159dc816159a0565b9050919050565b7f5472616e73706f72746174696f6e20616c726561647920636f6d706c6574656460008201527f206f72206e6f7420696e69746961746564000000000000000000000000000000602082015250565b6000615a3f6031836148ad565b9150615a4a826159e3565b604082019050919050565b60006020820190508181036000830152615a6e81615a32565b9050919050565b7f506c6561736520726567697374657220646f6e6f722066697273740000000000600082015250565b6000615aab601b836148ad565b9150615ab682615a75565b602082019050919050565b60006020820190508181036000830152615ada81615a9e565b9050919050565b7f4f74686572000000000000000000000000000000000000000000000000000000600082015250565b6000615b1760058361522b565b9150615b2282615ae1565b600582019050919050565b6000615b3882615b0a565b9150819050919050565b60008154615b4f81615122565b615b59818661522b565b94506001821660008114615b745760018114615b8957615bbc565b60ff1983168652811515820286019350615bbc565b615b928561534d565b60005b83811015615bb457815481890152600182019150602081019050615b95565b838801955050505b50505092915050565b6000615bd18284615b42565b915081905092915050565b7f446f6e6f722068617320616c726561647920696e69746961746564206120646f60008201527f6e6174696f6e0000000000000000000000000000000000000000000000000000602082015250565b6000615c386026836148ad565b9150615c4382615bdc565b604082019050919050565b60006020820190508181036000830152615c6781615c2b565b9050919050565b6000615c798261449a565b91507fffffffffffffffffffffffffffffffffffffffffffffffffffffffffffffffff8203615cab57615caa6152ea565b5b600182019050919050565b7f496e76616c6964207472616e73616374696f6e20737461747573000000000000600082015250565b6000615cec601a836148ad565b9150615cf782615cb6565b602082019050919050565b60006020820190508181036000830152615d1b81615cdf565b9050919050565b7f496e76616c696420646f6e6f7220616464726573730000000000000000000000600082015250565b6000615d586015836148ad565b9150615d6382615d22565b602082019050919050565b60006020820190508181036000830152615d8781615d4b565b9050919050565b6000819050919050565b615da9615da48261449a565b615d8e565b82525050565b6000615dbb8285615d98565b602082019150615dcb8284615d98565b6020820191508190509392505050565b7f5472616e73616374696f6e206e6f7420636f6d706c6574656400000000000000600082015250565b6000615e116019836148ad565b9150615e1c82615ddb565b602082019050919050565b60006020820190508181036000830152615e4081615e04565b9050919050565b6000615e528261449a565b9150615e5d8361449a565b9250828202615e6b8161449a565b91508282048414831517615e8257615e816152ea565b5b509291505056fea2646970667358221220ef98957d84cbce218969aee4e6b0e7ca08f775c3bc3d04bd968d3547ed2d888b64736f6c63430008130033",
  "immutableReferences": {},
  "source": "// SPDX-License-Identifier: MIT\npragma solidity ^0.8.19;\n\ncontract BloodDonationBlockchainSystem {\n    enum TransactionStatus { Pending, Completed }\n    enum TransportationStatus { InTransit, Delivered }\n    enum BloodSupplyStatus { Available, Requested }\n\n    /// @dev create system account structure\n    struct SystemOwner {\n        address sysOwner;\n        string password /*audit*/;\n        bool isLogin;\n    }\n\n    struct Donor {\n        address donorPublicAddress;\n        string name;\n        string bloodType;\n        string phoneNumber;\n        string password;\n        uint256 donatedVolume;\n        uint256 totalPayment;\n        bool isRegistered;\n        bool isLogin;\n        // uint256[] donationHistory;\n    }\n\n    struct Transporter {\n        address transporterPublicAddress;\n        string name;\n        string phoneNumber;\n        string password;\n        bool isRegistered;\n        bool isLogin;\n    }\n\n    struct MedicalCenter {\n        address MCPublicAddress;\n        string name;\n        string phoneNumber;\n        string password;\n        bool isRegistered;\n        bool isLogin;\n    }\n\n    struct DonationTransaction {\n        uint256 transactionID;\n        address donor;\n        address recipient;\n        address medicalStaff;\n        address transporter;\n        string bloodType;\n        uint256 donationDate;\n        TransactionStatus status;\n        string medicalCenter;\n        uint256 donatedVolume;\n    }\n\n    struct MedicalRecord {\n        uint256 recordID;\n        address donor;\n        address medicalStaff;\n        uint256 bloodPressure;\n        uint256 hemoglobinLevel;\n        string bloodTestResults;\n        // uint256[] donationHistory;\n    }\n\n    struct TransportationRecord {\n        uint256 recordID;\n        address transporter;\n        address donor;\n        address recipient;\n        uint256 pickupDateTime;\n        uint256 deliveryDateTime;\n        TransportationStatus status;\n    }\n\n    struct BloodSupply {\n        string bloodType;\n        uint256 volume;\n        BloodSupplyStatus status;\n    }\n\n    address public owner;\n    mapping(address => SystemOwner) private sysOwnerMap;\n    \n    mapping(address => Donor) public donors;\n    mapping(address => Transporter) public transporters;\n    mapping(address => MedicalCenter) public medicalsCenters;\n    mapping(uint256 => DonationTransaction) public donationTransactions;\n\n    mapping(uint256 => MedicalRecord) public medicalRecords;\n    mapping(uint256 => TransportationRecord) public transportationRecords;\n    mapping(string => BloodSupply) public bloodSupplies;\n\n    address[] public donorAddressArr;\n    address[] public transporterAddressArr;\n    address[] public medicaCenterAddressArr;\n    uint256[] public donationTransactionsArr;\n\n    uint256 public transactionCounter;\n    uint256 public recordCounter;\n\n    modifier onlyOwner() {\n        require(msg.sender == owner, \"Restricted to system owner only\");\n        _;\n    }\n\n    // modifier onlyMedicalStaff() {\n    //     require(\n    //         donors[msg.sender].user.userType == UserType.MedicalStaff,\n    //         \"Only medical staff can call this function\"\n    //     );\n    //     _;\n    // }\n\n    // modifier onlyTransporter() {\n    //     require(\n    //         donors[msg.sender].user.userType == UserType.Transporter,\n    //         \"Only transporters can call this function\"\n    //     );\n    //     _;\n    // }\n\n    SystemOwner private sysowner;\n\n    constructor() {\n        owner = msg.sender;\n        sysowner = SystemOwner(owner, \"admin\", false);\n        sysOwnerMap[owner] = sysowner;\n    }\n\n    function checkSystemOwnerLogin(address _SYSPublicAddress, string memory _password) public view returns (bool) {\n        // require(!medicalsCenters[_MCPublicAddress].isLogin, \"You're already logged in\");\n        require(compareString(sysOwnerMap[_SYSPublicAddress].password, _password), \"Invalid address or password\");\n\n        return true;\n    }\n\n    function systemOwnerLogin(address _MCPublicAddress, string memory _password) public {\n        require(checkSystemOwnerLogin(_MCPublicAddress, _password), \"Invalid login credentials\");\n\n        sysOwnerMap[_MCPublicAddress].isLogin = true;\n    }\n\n    function addDonor(\n        address _donorPublicAddress,\n        string memory _name,\n        string memory _bloodType,\n        string memory _contactNumber,\n        string memory _password\n    ) public {\n        require(\n            donors[_donorPublicAddress].isRegistered == false,\n            \"Donor is already registered\"\n        );\n        donors[_donorPublicAddress] = Donor(\n            _donorPublicAddress,\n            _name,\n            _bloodType,\n            _contactNumber,\n            _password,\n            0,\n            0,\n            true,\n            false\n        );\n        donorAddressArr.push(_donorPublicAddress);\n    }\n\n    // function  donorLogin(address _donorPublicAddress, string memory _password) public {\n    //     require(donors[_donorPublicAddress].isRegistered == true, \"Your not registered yet!\");\n    //     require(donors[_donorPublicAddress].isLogin == false, \"Your Already login\");\n    //     require(compareString(donors[_donorPublicAddress].password, _password), \"Invalid address or password\");\n    //     Donor memory donor = donors[_donorPublicAddress];\n    //     donor.isLogin = true;\n    // }\n\n    function getDonorsArr() public view returns (address[] memory) {\n        return donorAddressArr;\n    }\n\n    function getDonor(\n        address _donorPublicAddress\n    )\n        public\n        view\n        returns (\n            address publicAddress,\n            string memory name,\n            string memory bloodType,\n            string memory phoneNumber,\n            uint256 donatedVolume,\n            uint256 totalPayment,\n            bool isRegistered\n        )\n    {\n        Donor memory donor = donors[_donorPublicAddress];\n        publicAddress = donor.donorPublicAddress;\n        name = donor.name;\n        bloodType = donor.bloodType;\n        phoneNumber = donor.phoneNumber;\n        donatedVolume = donor.donatedVolume;\n        totalPayment = donor.totalPayment;\n        isRegistered = donor.isRegistered;\n    }\n\n    function addTransporter(\n        address _transporterPublicAddress,\n        string memory _name,\n        string memory _contactNumber,\n        string memory _password\n    ) public {\n        require(\n            transporters[_transporterPublicAddress].isRegistered == false,\n            \"Transporter already registered\"\n        );\n        transporters[_transporterPublicAddress] = Transporter({\n            transporterPublicAddress: _transporterPublicAddress,\n            name: _name,\n            phoneNumber: _contactNumber,\n            password: _password,\n            isRegistered: true,\n            isLogin: false\n        });\n        transporterAddressArr.push(_transporterPublicAddress);\n    }\n    // function  transporterLogin(address _transporterPublicAddress, string memory _password) public {\n    //     require(transporters[_transporterPublicAddress].isRegistered == true, \"Your not registered yet!\");\n    //     require(transporters[_transporterPublicAddress].isLogin == false, \"Your Already login\");\n    //     require(compareString(transporters[_transporterPublicAddress].password, _password), \"Invalid address or password\");\n\n    //     Transporter memory transporter = transporters[_transporterPublicAddress];\n    //     transporter.isLogin = true;\n    // }\n\n    function getTransportersArr() public view returns (address[] memory) {\n        return transporterAddressArr;\n    }\n\n    function getTransporter(\n        address _transporterPublicAddress\n    )\n        public\n        view\n        returns (\n            address transporterPublicAddress,\n            string memory name,\n            string memory phoneNumber\n        )\n    {\n        Transporter memory transporter = transporters[_transporterPublicAddress];\n        transporterPublicAddress = transporter.transporterPublicAddress;\n        name = transporter.name;\n        phoneNumber = transporter.phoneNumber;\n    }\n\n    function addMedicalCenter(\n        address _MCPublicAddress,\n        string memory _name,\n        string memory _contactNumber,\n        string memory _password\n    ) public {\n        require(\n            medicalsCenters[_MCPublicAddress].isRegistered == false,\n            \"Medical center is already registered\"\n        );\n        medicalsCenters[_MCPublicAddress] = MedicalCenter({\n            MCPublicAddress: _MCPublicAddress,\n            name: _name,\n            phoneNumber: _contactNumber,\n            password: _password,\n            isRegistered: true,\n            isLogin: false\n        });\n        medicaCenterAddressArr.push(_MCPublicAddress);\n        \n    }\n\n    // function  medicalCenterLogin(address _MCPublicAddress, string memory _password) public {\n    //     require(medicalsCenters[_MCPublicAddress].isRegistered == true, \"Your not registered yet!\");\n    //     require(medicalsCenters[_MCPublicAddress].isLogin == false, \"Your Already login\");\n    //     require(compareString(medicalsCenters[_MCPublicAddress].password, _password), \"Invalid address or password\");\n\n    //     MedicalCenter memory medicalCenter = medicalsCenters[_MCPublicAddress];\n    //     medicalCenter.isLogin = true;\n    // }\n\n    function checkMedicalCenterLogin(address _MCPublicAddress, string memory _password) public view returns (bool) {\n        require(medicalsCenters[_MCPublicAddress].isRegistered == true, \"You're not registered yet!\");\n        // require(!medicalsCenters[_MCPublicAddress].isLogin, \"You're already logged in\");\n        require(compareString(medicalsCenters[_MCPublicAddress].password, _password), \"Invalid address or password\");\n\n        return true;\n    }\n\n    function medicalCenterLogin(address _MCPublicAddress, string memory _password) public {\n        require(checkMedicalCenterLogin(_MCPublicAddress, _password), \"Invalid login credentials\");\n\n        medicalsCenters[_MCPublicAddress].isLogin = true;\n    }\n\n    function medicalCenterLogout(address _MCPublicAddress) public {\n        require(medicalsCenters[_MCPublicAddress].isLogin, \"You're not logged in\");\n\n        medicalsCenters[_MCPublicAddress].isLogin = false;\n    }\n\n    function getMedicalCentersArr() public view returns (address[] memory) {\n        return medicaCenterAddressArr;\n    }\n\n    function getMedicalCenter(\n        address _medicalStaffPublicAddress\n    )\n        public\n        view\n        returns (\n            address MCPublicAddress,\n            string memory name,\n            string memory phoneNumber\n        )\n    {\n        MedicalCenter memory medicalCenter = medicalsCenters[_medicalStaffPublicAddress];\n        MCPublicAddress = medicalCenter.MCPublicAddress;\n        name = medicalCenter.name;\n        phoneNumber = medicalCenter.phoneNumber;\n    }\n\n    // function donorChangePassword(string memory _oldPassword, string memory _newPassword) external {\n    //     require(compareString(donors[msg.sender].password, _oldPassword), \"Invalid old password\");\n    //     require(keccak256(abi.encode(_newPassword)).length > 0, \"Password should not be empty\");\n    //     require(compareString(donors[msg.sender].password, _newPassword), \"Invalid new password\");\n    //     require(donors[msg.sender].isLogin == true, \"Not logged in\");\n\n    //     donors[msg.sender].password = _newPassword;\n    //     // emit PasswordChanged(msg.sender);\n    // }\n\n    // ---------------- Start Donation initialization ---------------------\n\n    function donateBloodToMedicalCenter(\n        address _donorPublicAddress,\n        uint256 _volume\n    ) public {\n        require(\n            donors[_donorPublicAddress].isRegistered == true,\n            \"Please register donor first\"\n        );\n        require(\n            keccak256(abi.encodePacked(donors[_donorPublicAddress].bloodType)) != keccak256(abi.encodePacked(\"Other\")),\n            \"Donor has already initiated a donation\"\n        );\n\n        uint256 transactionID = block.timestamp;\n        donationTransactions[transactionID] = DonationTransaction({\n            transactionID: transactionID,\n            donor: _donorPublicAddress,\n            recipient: address(0),\n            medicalStaff: msg.sender,\n            transporter: address(0),\n            bloodType: donors[_donorPublicAddress].bloodType,\n            donationDate: block.timestamp,\n            status: TransactionStatus.Pending,\n            medicalCenter: \"\",\n            donatedVolume: _volume\n        });\n        donors[_donorPublicAddress].donatedVolume += _volume;\n\n        // donors[msg.sender].bloodType = string(\"Other\");\n        donationTransactionsArr.push(transactionID);\n\n        // Increment the transaction count\n        transactionCounter++;\n    }\n\n    function getDonationTransactionArr()\n        public\n        view\n        returns (uint256[] memory)\n    {\n        return donationTransactionsArr;\n    }\n\n    function getDonationTransaction(\n        uint256 _transactionID\n    )\n        public\n        view\n        returns (\n            uint256 transactionID,\n            address donorPublicAddress,\n            address recipientPublicAddress,\n            address transporterPublicAddress,\n            string memory bloodType,\n            uint256 donationDate,\n            TransactionStatus status,\n            string memory medicalCenter,\n            uint256 donatedVolume\n        )\n    {\n        DonationTransaction memory donationTransaction = donationTransactions[\n            _transactionID\n        ];\n        transactionID = donationTransaction.transactionID;\n        donorPublicAddress = donationTransaction.donor;\n        recipientPublicAddress = donationTransaction.recipient;\n        transporterPublicAddress = donationTransaction.transporter;\n        bloodType = donationTransaction.bloodType;\n        donationDate = donationTransaction.donationDate;\n        status = donationTransaction.status;\n        medicalCenter = donationTransaction.medicalCenter;\n        donatedVolume = donationTransaction.donatedVolume;\n    }\n\n    // ---------------- End Donation initialization ---------------------\n\n    // ---------------- Start Complete Donation  ------------------------\n\n    function completeDonationToMedicalCenter(\n        uint256 _transactionID,\n        string memory _medicalCenter,\n        uint256 _bloodPressure,\n        uint256 _hemoglobinLevel,\n        string memory _bloodTestResults\n    ) public {\n        require(\n            donationTransactions[_transactionID].status ==\n                TransactionStatus.Pending,\n            \"Invalid transaction status\"\n        );\n        require(\n            donationTransactions[_transactionID].donor != address(0),\n            \"Invalid donor address\"\n        );\n\n        donationTransactions[_transactionID].medicalStaff = msg.sender;\n        donationTransactions[_transactionID].medicalCenter = _medicalCenter;\n        donationTransactions[_transactionID].status = TransactionStatus.Completed;\n\n        // donors[donationTransactions[_transactionID].donor]\n        //     .donatedVolume += calculateDonatedVolume(_transactionID);\n\n        uint256 recordID = generateRecordID();\n        medicalRecords[recordID] = MedicalRecord({\n            recordID: recordID,\n            donor: donationTransactions[_transactionID].donor,\n            medicalStaff: msg.sender,\n            bloodPressure: _bloodPressure,\n            hemoglobinLevel: _hemoglobinLevel,\n            bloodTestResults: _bloodTestResults\n            // donationHistory: new uint256[](0)\n        });\n\n        // donors[donationTransactions[_transactionID].donor].donationHistory.push(\n        //     _transactionID\n        // );\n\n        // uint256 payment = calculatePayment(\n        //     donors[donationTransactions[_transactionID].donor].donatedVolume\n        // );\n        uint256 payment = calculatePayment(_transactionID);\n        donors[donationTransactions[_transactionID].donor]\n            .totalPayment += payment;\n        payable(msg.sender).transfer(payment);\n    }\n\n    // ---------------- End Complete Donation  ------------------------\n\n    function initiateTransportation(\n        uint256 _transactionID,\n        address _recipient,\n        string memory _medicalCenter\n    ) public {\n        require(\n            donationTransactions[_transactionID].status ==\n                TransactionStatus.Completed,\n            \"Medical center process not completed\"\n        );\n\n        uint256 transactionID = generateTransactionID();\n        donationTransactions[transactionID] = DonationTransaction({\n            transactionID: transactionID,\n            donor: donationTransactions[_transactionID].donor,\n            recipient: _recipient,\n            medicalStaff: msg.sender,\n            transporter: address(0),\n            bloodType: donationTransactions[_transactionID].bloodType,\n            donationDate: block.timestamp,\n            status: TransactionStatus.Pending,\n            medicalCenter: _medicalCenter,\n            donatedVolume: donors[donationTransactions[_transactionID].donor]\n                .donatedVolume\n        });\n    }\n\n    function completeTransportation(\n        uint256 _recordID,\n        uint256 _transactionID\n    ) public {\n        // onlyTransporter\n        require(\n            transportationRecords[_recordID].status ==\n                TransportationStatus.InTransit,\n            \"Transportation already completed or not initiated\"\n        );\n        transportationRecords[_recordID].deliveryDateTime = block.timestamp;\n        transportationRecords[_recordID].status = TransportationStatus\n            .Delivered;\n        donationTransactions[_transactionID].transporter = msg.sender;\n    }\n\n    function calculateDonatedVolume(\n        uint256 _transactionID\n    ) internal view returns (uint256) {\n        require(\n            donationTransactions[_transactionID].status ==\n                TransactionStatus.Completed,\n            \"Transaction not completed\"\n        );\n        return donationTransactions[_transactionID].donatedVolume;\n    }\n\n    function calculatePayment(\n        uint256 _transactionID\n    ) internal view returns (uint256) {\n        require(\n            donationTransactions[_transactionID].status ==\n                TransactionStatus.Completed,\n            \"Transaction not completed\"\n        );\n        // Assuming a fixed payment rate for simplicity\n        uint256 _donatedVolume = donationTransactions[_transactionID]\n            .donatedVolume;\n        uint256 paymentRate = 1 gwei; // 1gwei/ml\n        return _donatedVolume * paymentRate;\n    }\n\n    function addBloodSupply(string memory _bloodType, uint256 _volume) public {\n        // onlyMedicalStaff\n        require(_volume > 0, \"Volume must be greater than zero\");\n        require(\n            bloodSupplies[_bloodType].status != BloodSupplyStatus.Requested,\n            \"Blood type already requested\"\n        );\n\n        if (bloodSupplies[_bloodType].status == BloodSupplyStatus.Available) {\n            bloodSupplies[_bloodType].volume += _volume;\n        } else {\n            bloodSupplies[_bloodType] = BloodSupply({\n                bloodType: _bloodType,\n                volume: _volume,\n                status: BloodSupplyStatus.Available\n            });\n        }\n    }\n\n    function requestBloodType(\n        string memory _bloodType,\n        uint256 _volume\n    ) public {\n        // onlyMedicalStaff\n        require(\n            bloodSupplies[_bloodType].status == BloodSupplyStatus.Available,\n            \"Blood type not available\"\n        );\n        require(\n            bloodSupplies[_bloodType].volume >= _volume,\n            \"Insufficient blood volume\"\n        );\n\n        // You can add more logic here to handle the request\n        // For example, update the blood supply status or create a new transaction record\n    }\n\n    function generateTransactionID() internal returns (uint256) {\n        transactionCounter++;\n        return\n            uint256(\n                keccak256(abi.encodePacked(block.timestamp, transactionCounter))\n            );\n    }\n\n    function compareString(string memory _a, string memory _b) internal pure returns(bool) {\n        return keccak256(abi.encodePacked(_a)) == keccak256(abi.encodePacked(_b));\n    }\n\n    function generateRecordID() internal returns (uint256) {\n        recordCounter++;\n        return\n            uint256(\n                keccak256(abi.encodePacked(block.timestamp, recordCounter))\n            );\n    }\n}\n",
  "sourcePath": "/home/temba/Desktop/blood-donation-blockchain-system/client-side/contracts/BloodDonationBlockchainSystem.sol",
  "compiler": {
    "name": "solc",
    "version": "0.8.19+commit.7dd6d404.Emscripten.clang"
  },
  "schemaVersion": "3.4.16",
  "updatedAt": "2024-02-26T23:45:26.994Z",
  "networkType": "ethereum",
  "devdoc": {
    "kind": "dev",
    "methods": {},
    "version": 1
  },
  "userdoc": {
    "kind": "user",
    "methods": {},
    "version": 1
  }
}