{
  "contractName": "BloodDonationBlockchainSystem",
  "abi": [
    {
      "inputs": [],
      "stateMutability": "nonpayable",
      "type": "constructor"
    },
    {
      "inputs": [
        {
          "internalType": "string",
          "name": "",
          "type": "string"
        }
      ],
      "name": "bloodSupplies",
      "outputs": [
        {
          "internalType": "string",
          "name": "bloodType",
          "type": "string"
        },
        {
          "internalType": "uint256",
          "name": "volume",
          "type": "uint256"
        },
        {
          "internalType": "enum BloodDonationBlockchainSystem.BloodSupplyStatus",
          "name": "status",
          "type": "uint8"
        }
      ],
      "stateMutability": "view",
      "type": "function",
      "constant": true
    },
    {
      "inputs": [
        {
          "internalType": "uint256",
          "name": "",
          "type": "uint256"
        }
      ],
      "name": "donationTransactions",
      "outputs": [
        {
          "internalType": "uint256",
          "name": "transactionID",
          "type": "uint256"
        },
        {
          "internalType": "address",
          "name": "donor",
          "type": "address"
        },
        {
          "internalType": "address",
          "name": "recipient",
          "type": "address"
        },
        {
          "internalType": "address",
          "name": "medicalStaff",
          "type": "address"
        },
        {
          "internalType": "address",
          "name": "transporter",
          "type": "address"
        },
        {
          "internalType": "string",
          "name": "bloodType",
          "type": "string"
        },
        {
          "internalType": "uint256",
          "name": "donationDate",
          "type": "uint256"
        },
        {
          "internalType": "enum BloodDonationBlockchainSystem.TransactionStatus",
          "name": "status",
          "type": "uint8"
        },
        {
          "internalType": "string",
          "name": "medicalCenter",
          "type": "string"
        },
        {
          "internalType": "uint256",
          "name": "donatedVolume",
          "type": "uint256"
        },
        {
          "internalType": "string",
          "name": "bloodTestResult",
          "type": "string"
        }
      ],
      "stateMutability": "view",
      "type": "function",
      "constant": true
    },
    {
      "inputs": [
        {
          "internalType": "uint256",
          "name": "",
          "type": "uint256"
        }
      ],
      "name": "donationTransactionsArr",
      "outputs": [
        {
          "internalType": "uint256",
          "name": "",
          "type": "uint256"
        }
      ],
      "stateMutability": "view",
      "type": "function",
      "constant": true
    },
    {
      "inputs": [
        {
          "internalType": "uint256",
          "name": "",
          "type": "uint256"
        }
      ],
      "name": "donorAddressArr",
      "outputs": [
        {
          "internalType": "address",
          "name": "",
          "type": "address"
        }
      ],
      "stateMutability": "view",
      "type": "function",
      "constant": true
    },
    {
      "inputs": [
        {
          "internalType": "address",
          "name": "",
          "type": "address"
        }
      ],
      "name": "donors",
      "outputs": [
        {
          "internalType": "address",
          "name": "donorPublicAddress",
          "type": "address"
        },
        {
          "internalType": "string",
          "name": "name",
          "type": "string"
        },
        {
          "internalType": "string",
          "name": "bloodType",
          "type": "string"
        },
        {
          "internalType": "string",
          "name": "phoneNumber",
          "type": "string"
        },
        {
          "internalType": "string",
          "name": "password",
          "type": "string"
        },
        {
          "internalType": "uint256",
          "name": "donatedVolume",
          "type": "uint256"
        },
        {
          "internalType": "uint256",
          "name": "totalPayment",
          "type": "uint256"
        },
        {
          "internalType": "bool",
          "name": "isRegistered",
          "type": "bool"
        },
        {
          "internalType": "bool",
          "name": "isLogin",
          "type": "bool"
        }
      ],
      "stateMutability": "view",
      "type": "function",
      "constant": true
    },
    {
      "inputs": [
        {
          "internalType": "uint256",
          "name": "",
          "type": "uint256"
        }
      ],
      "name": "medicaCenterAddressArr",
      "outputs": [
        {
          "internalType": "address",
          "name": "",
          "type": "address"
        }
      ],
      "stateMutability": "view",
      "type": "function",
      "constant": true
    },
    {
      "inputs": [
        {
          "internalType": "uint256",
          "name": "",
          "type": "uint256"
        }
      ],
      "name": "medicalRecords",
      "outputs": [
        {
          "internalType": "uint256",
          "name": "recordID",
          "type": "uint256"
        },
        {
          "internalType": "address",
          "name": "donor",
          "type": "address"
        },
        {
          "internalType": "address",
          "name": "medicalStaff",
          "type": "address"
        },
        {
          "internalType": "uint256",
          "name": "bloodPressure",
          "type": "uint256"
        },
        {
          "internalType": "uint256",
          "name": "hemoglobinLevel",
          "type": "uint256"
        },
        {
          "internalType": "string",
          "name": "bloodTestResults",
          "type": "string"
        }
      ],
      "stateMutability": "view",
      "type": "function",
      "constant": true
    },
    {
      "inputs": [
        {
          "internalType": "uint256",
          "name": "",
          "type": "uint256"
        }
      ],
      "name": "medicalRecordsArr",
      "outputs": [
        {
          "internalType": "uint256",
          "name": "",
          "type": "uint256"
        }
      ],
      "stateMutability": "view",
      "type": "function",
      "constant": true
    },
    {
      "inputs": [
        {
          "internalType": "address",
          "name": "",
          "type": "address"
        }
      ],
      "name": "medicalsCenters",
      "outputs": [
        {
          "internalType": "address",
          "name": "MCPublicAddress",
          "type": "address"
        },
        {
          "internalType": "string",
          "name": "name",
          "type": "string"
        },
        {
          "internalType": "string",
          "name": "phoneNumber",
          "type": "string"
        },
        {
          "internalType": "string",
          "name": "password",
          "type": "string"
        },
        {
          "internalType": "bool",
          "name": "isRegistered",
          "type": "bool"
        },
        {
          "internalType": "bool",
          "name": "isLogin",
          "type": "bool"
        }
      ],
      "stateMutability": "view",
      "type": "function",
      "constant": true
    },
    {
      "inputs": [],
      "name": "owner",
      "outputs": [
        {
          "internalType": "address",
          "name": "",
          "type": "address"
        }
      ],
      "stateMutability": "view",
      "type": "function",
      "constant": true
    },
    {
      "inputs": [],
      "name": "recordCounter",
      "outputs": [
        {
          "internalType": "uint256",
          "name": "",
          "type": "uint256"
        }
      ],
      "stateMutability": "view",
      "type": "function",
      "constant": true
    },
    {
      "inputs": [],
      "name": "transactionCounter",
      "outputs": [
        {
          "internalType": "uint256",
          "name": "",
          "type": "uint256"
        }
      ],
      "stateMutability": "view",
      "type": "function",
      "constant": true
    },
    {
      "inputs": [
        {
          "internalType": "uint256",
          "name": "",
          "type": "uint256"
        }
      ],
      "name": "transportationRecords",
      "outputs": [
        {
          "internalType": "uint256",
          "name": "recordID",
          "type": "uint256"
        },
        {
          "internalType": "address",
          "name": "transporter",
          "type": "address"
        },
        {
          "internalType": "address",
          "name": "donor",
          "type": "address"
        },
        {
          "internalType": "address",
          "name": "recipient",
          "type": "address"
        },
        {
          "internalType": "uint256",
          "name": "pickupDateTime",
          "type": "uint256"
        },
        {
          "internalType": "uint256",
          "name": "deliveryDateTime",
          "type": "uint256"
        },
        {
          "internalType": "enum BloodDonationBlockchainSystem.TransportationStatus",
          "name": "status",
          "type": "uint8"
        }
      ],
      "stateMutability": "view",
      "type": "function",
      "constant": true
    },
    {
      "inputs": [
        {
          "internalType": "uint256",
          "name": "",
          "type": "uint256"
        }
      ],
      "name": "transporterAddressArr",
      "outputs": [
        {
          "internalType": "address",
          "name": "",
          "type": "address"
        }
      ],
      "stateMutability": "view",
      "type": "function",
      "constant": true
    },
    {
      "inputs": [
        {
          "internalType": "address",
          "name": "",
          "type": "address"
        }
      ],
      "name": "transporters",
      "outputs": [
        {
          "internalType": "address",
          "name": "transporterPublicAddress",
          "type": "address"
        },
        {
          "internalType": "string",
          "name": "name",
          "type": "string"
        },
        {
          "internalType": "string",
          "name": "phoneNumber",
          "type": "string"
        },
        {
          "internalType": "string",
          "name": "password",
          "type": "string"
        },
        {
          "internalType": "bool",
          "name": "isRegistered",
          "type": "bool"
        },
        {
          "internalType": "bool",
          "name": "isLogin",
          "type": "bool"
        }
      ],
      "stateMutability": "view",
      "type": "function",
      "constant": true
    },
    {
      "inputs": [
        {
          "internalType": "address",
          "name": "_SYSPublicAddress",
          "type": "address"
        },
        {
          "internalType": "string",
          "name": "_password",
          "type": "string"
        }
      ],
      "name": "checkSystemOwnerLogin",
      "outputs": [
        {
          "internalType": "bool",
          "name": "",
          "type": "bool"
        }
      ],
      "stateMutability": "view",
      "type": "function",
      "constant": true
    },
    {
      "inputs": [
        {
          "internalType": "address",
          "name": "_donorPublicAddress",
          "type": "address"
        },
        {
          "internalType": "string",
          "name": "_name",
          "type": "string"
        },
        {
          "internalType": "string",
          "name": "_bloodType",
          "type": "string"
        },
        {
          "internalType": "string",
          "name": "_contactNumber",
          "type": "string"
        },
        {
          "internalType": "string",
          "name": "_password",
          "type": "string"
        }
      ],
      "name": "addDonor",
      "outputs": [],
      "stateMutability": "nonpayable",
      "type": "function"
    },
    {
      "inputs": [],
      "name": "getDonorsArr",
      "outputs": [
        {
          "internalType": "address[]",
          "name": "",
          "type": "address[]"
        }
      ],
      "stateMutability": "view",
      "type": "function",
      "constant": true
    },
    {
      "inputs": [
        {
          "internalType": "address",
          "name": "_donorPublicAddress",
          "type": "address"
        }
      ],
      "name": "getDonor",
      "outputs": [
        {
          "internalType": "address",
          "name": "publicAddress",
          "type": "address"
        },
        {
          "internalType": "string",
          "name": "name",
          "type": "string"
        },
        {
          "internalType": "string",
          "name": "bloodType",
          "type": "string"
        },
        {
          "internalType": "string",
          "name": "phoneNumber",
          "type": "string"
        },
        {
          "internalType": "uint256",
          "name": "donatedVolume",
          "type": "uint256"
        },
        {
          "internalType": "uint256",
          "name": "totalPayment",
          "type": "uint256"
        },
        {
          "internalType": "bool",
          "name": "isRegistered",
          "type": "bool"
        }
      ],
      "stateMutability": "view",
      "type": "function",
      "constant": true
    },
    {
      "inputs": [
        {
          "internalType": "address",
          "name": "_transporterPublicAddress",
          "type": "address"
        },
        {
          "internalType": "string",
          "name": "_name",
          "type": "string"
        },
        {
          "internalType": "string",
          "name": "_contactNumber",
          "type": "string"
        },
        {
          "internalType": "string",
          "name": "_password",
          "type": "string"
        }
      ],
      "name": "addTransporter",
      "outputs": [],
      "stateMutability": "nonpayable",
      "type": "function"
    },
    {
      "inputs": [],
      "name": "getTransportersArr",
      "outputs": [
        {
          "internalType": "address[]",
          "name": "",
          "type": "address[]"
        }
      ],
      "stateMutability": "view",
      "type": "function",
      "constant": true
    },
    {
      "inputs": [
        {
          "internalType": "address",
          "name": "_transporterPublicAddress",
          "type": "address"
        }
      ],
      "name": "getTransporter",
      "outputs": [
        {
          "internalType": "address",
          "name": "transporterPublicAddress",
          "type": "address"
        },
        {
          "internalType": "string",
          "name": "name",
          "type": "string"
        },
        {
          "internalType": "string",
          "name": "phoneNumber",
          "type": "string"
        }
      ],
      "stateMutability": "view",
      "type": "function",
      "constant": true
    },
    {
      "inputs": [
        {
          "internalType": "address",
          "name": "_MCPublicAddress",
          "type": "address"
        },
        {
          "internalType": "string",
          "name": "_name",
          "type": "string"
        },
        {
          "internalType": "string",
          "name": "_contactNumber",
          "type": "string"
        },
        {
          "internalType": "string",
          "name": "_password",
          "type": "string"
        }
      ],
      "name": "addMedicalCenter",
      "outputs": [],
      "stateMutability": "nonpayable",
      "type": "function"
    },
    {
      "inputs": [
        {
          "internalType": "address",
          "name": "_MCPublicAddress",
          "type": "address"
        },
        {
          "internalType": "string",
          "name": "_password",
          "type": "string"
        }
      ],
      "name": "checkMedicalCenterLogin",
      "outputs": [
        {
          "internalType": "bool",
          "name": "",
          "type": "bool"
        }
      ],
      "stateMutability": "view",
      "type": "function",
      "constant": true
    },
    {
      "inputs": [
        {
          "internalType": "address",
          "name": "_MCPublicAddress",
          "type": "address"
        },
        {
          "internalType": "string",
          "name": "_password",
          "type": "string"
        }
      ],
      "name": "medicalCenterLogin",
      "outputs": [],
      "stateMutability": "nonpayable",
      "type": "function"
    },
    {
      "inputs": [
        {
          "internalType": "address",
          "name": "_MCPublicAddress",
          "type": "address"
        }
      ],
      "name": "medicalCenterLogout",
      "outputs": [],
      "stateMutability": "nonpayable",
      "type": "function"
    },
    {
      "inputs": [],
      "name": "getMedicalCentersArr",
      "outputs": [
        {
          "internalType": "address[]",
          "name": "",
          "type": "address[]"
        }
      ],
      "stateMutability": "view",
      "type": "function",
      "constant": true
    },
    {
      "inputs": [
        {
          "internalType": "address",
          "name": "_medicalStaffPublicAddress",
          "type": "address"
        }
      ],
      "name": "getMedicalCenter",
      "outputs": [
        {
          "internalType": "address",
          "name": "MCPublicAddress",
          "type": "address"
        },
        {
          "internalType": "string",
          "name": "name",
          "type": "string"
        },
        {
          "internalType": "string",
          "name": "phoneNumber",
          "type": "string"
        }
      ],
      "stateMutability": "view",
      "type": "function",
      "constant": true
    },
    {
      "inputs": [
        {
          "internalType": "address",
          "name": "_donorPublicAddress",
          "type": "address"
        },
        {
          "internalType": "uint256",
          "name": "_volume",
          "type": "uint256"
        }
      ],
      "name": "donateBloodToMedicalCenter",
      "outputs": [],
      "stateMutability": "nonpayable",
      "type": "function"
    },
    {
      "inputs": [],
      "name": "getDonationTransactionArr",
      "outputs": [
        {
          "internalType": "uint256[]",
          "name": "",
          "type": "uint256[]"
        }
      ],
      "stateMutability": "view",
      "type": "function",
      "constant": true
    },
    {
      "inputs": [
        {
          "internalType": "uint256",
          "name": "_transactionID",
          "type": "uint256"
        }
      ],
      "name": "getDonationTransaction",
      "outputs": [
        {
          "internalType": "uint256",
          "name": "transactionID",
          "type": "uint256"
        },
        {
          "internalType": "address",
          "name": "donorPublicAddress",
          "type": "address"
        },
        {
          "internalType": "address",
          "name": "recipientPublicAddress",
          "type": "address"
        },
        {
          "internalType": "address",
          "name": "transporterPublicAddress",
          "type": "address"
        },
        {
          "internalType": "string",
          "name": "bloodType",
          "type": "string"
        },
        {
          "internalType": "uint256",
          "name": "donationDate",
          "type": "uint256"
        },
        {
          "internalType": "enum BloodDonationBlockchainSystem.TransactionStatus",
          "name": "status",
          "type": "uint8"
        },
        {
          "internalType": "string",
          "name": "medicalCenter",
          "type": "string"
        },
        {
          "internalType": "uint256",
          "name": "donatedVolume",
          "type": "uint256"
        },
        {
          "internalType": "string",
          "name": "bloodTestResult",
          "type": "string"
        }
      ],
      "stateMutability": "view",
      "type": "function",
      "constant": true
    },
    {
      "inputs": [
        {
          "internalType": "uint256",
          "name": "_transactionID",
          "type": "uint256"
        },
        {
          "internalType": "string",
          "name": "_medicalCenter",
          "type": "string"
        },
        {
          "internalType": "uint256",
          "name": "_bloodPressure",
          "type": "uint256"
        },
        {
          "internalType": "uint256",
          "name": "_hemoglobinLevel",
          "type": "uint256"
        },
        {
          "internalType": "string",
          "name": "_bloodTestResults",
          "type": "string"
        }
      ],
      "name": "completeDonationToMedicalCenter",
      "outputs": [],
      "stateMutability": "nonpayable",
      "type": "function"
    },
    {
      "inputs": [],
      "name": "getMedicalRecordsArr",
      "outputs": [
        {
          "internalType": "uint256[]",
          "name": "",
          "type": "uint256[]"
        }
      ],
      "stateMutability": "view",
      "type": "function",
      "constant": true
    },
    {
      "inputs": [
        {
          "internalType": "uint256",
          "name": "_medicalRecordID",
          "type": "uint256"
        }
      ],
      "name": "getMedicalRecord",
      "outputs": [
        {
          "internalType": "uint256",
          "name": "medicalRecordID",
          "type": "uint256"
        },
        {
          "internalType": "address",
          "name": "donorAddress",
          "type": "address"
        },
        {
          "internalType": "address",
          "name": "medicalStaff",
          "type": "address"
        },
        {
          "internalType": "uint256",
          "name": "bloodPressure",
          "type": "uint256"
        },
        {
          "internalType": "uint256",
          "name": "hemoglobinLevel",
          "type": "uint256"
        },
        {
          "internalType": "string",
          "name": "bloodTestResult",
          "type": "string"
        }
      ],
      "stateMutability": "view",
      "type": "function",
      "constant": true
    },
    {
      "inputs": [
        {
          "internalType": "uint256",
          "name": "_transactionID",
          "type": "uint256"
        },
        {
          "internalType": "address",
          "name": "_recipient",
          "type": "address"
        },
        {
          "internalType": "string",
          "name": "_medicalCenter",
          "type": "string"
        }
      ],
      "name": "initiateTransportation",
      "outputs": [],
      "stateMutability": "nonpayable",
      "type": "function"
    },
    {
      "inputs": [
        {
          "internalType": "uint256",
          "name": "_recordID",
          "type": "uint256"
        },
        {
          "internalType": "uint256",
          "name": "_transactionID",
          "type": "uint256"
        }
      ],
      "name": "completeTransportation",
      "outputs": [],
      "stateMutability": "nonpayable",
      "type": "function"
    }
  ],
  "bytecode": "0x60806040523480156200001157600080fd5b50336000806101000a81548173ffffffffffffffffffffffffffffffffffffffff021916908373ffffffffffffffffffffffffffffffffffffffff160217905550604051806060016040528060008054906101000a900473ffffffffffffffffffffffffffffffffffffffff1673ffffffffffffffffffffffffffffffffffffffff1681526020016040518060400160405280600581526020017f61646d696e000000000000000000000000000000000000000000000000000000815250815260200160001515815250601060008201518160000160006101000a81548173ffffffffffffffffffffffffffffffffffffffff021916908373ffffffffffffffffffffffffffffffffffffffff16021790555060208201518160010190816200013b9190620004ef565b5060408201518160020160006101000a81548160ff0219169083151502179055509050506010600160008060009054906101000a900473ffffffffffffffffffffffffffffffffffffffff1673ffffffffffffffffffffffffffffffffffffffff1673ffffffffffffffffffffffffffffffffffffffff1681526020019081526020016000206000820160009054906101000a900473ffffffffffffffffffffffffffffffffffffffff168160000160006101000a81548173ffffffffffffffffffffffffffffffffffffffff021916908373ffffffffffffffffffffffffffffffffffffffff160217905550600182018160010190816200023e9190620005ee565b506002820160009054906101000a900460ff168160020160006101000a81548160ff021916908315150217905550905050620006ef565b600081519050919050565b7f4e487b7100000000000000000000000000000000000000000000000000000000600052604160045260246000fd5b7f4e487b7100000000000000000000000000000000000000000000000000000000600052602260045260246000fd5b60006002820490506001821680620002f757607f821691505b6020821081036200030d576200030c620002af565b5b50919050565b60008190508160005260206000209050919050565b60006020601f8301049050919050565b600082821b905092915050565b600060088302620003777fffffffffffffffffffffffffffffffffffffffffffffffffffffffffffffffff8262000338565b62000383868362000338565b95508019841693508086168417925050509392505050565b6000819050919050565b6000819050919050565b6000620003d0620003ca620003c4846200039b565b620003a5565b6200039b565b9050919050565b6000819050919050565b620003ec83620003af565b62000404620003fb82620003d7565b84845462000345565b825550505050565b600090565b6200041b6200040c565b62000428818484620003e1565b505050565b5b8181101562000450576200044460008262000411565b6001810190506200042e565b5050565b601f8211156200049f57620004698162000313565b620004748462000328565b8101602085101562000484578190505b6200049c620004938562000328565b8301826200042d565b50505b505050565b600082821c905092915050565b6000620004c460001984600802620004a4565b1980831691505092915050565b6000620004df8383620004b1565b9150826002028217905092915050565b620004fa8262000275565b67ffffffffffffffff81111562000516576200051562000280565b5b620005228254620002de565b6200052f82828562000454565b600060209050601f83116001811462000567576000841562000552578287015190505b6200055e8582620004d1565b865550620005ce565b601f198416620005778662000313565b60005b82811015620005a1578489015182556001820191506020850194506020810190506200057a565b86831015620005c15784890151620005bd601f891682620004b1565b8355505b6001600288020188555050505b505050505050565b600081549050620005e781620002de565b9050919050565b818103620005fe575050620006ed565b6200060982620005d6565b67ffffffffffffffff81111562000625576200062462000280565b5b620006318254620002de565b6200063e82828562000454565b6000601f8311600181146200067257600084156200065d578287015490505b620006698582620004d1565b865550620006e6565b601f198416620006828762000313565b96506200068f8662000313565b60005b82811015620006b95784890154825560018201915060018501945060208101905062000692565b86831015620006d95784890154620006d5601f891682620004b1565b8355505b6001600288020188555050505b5050505050505b565b615bd780620006ff6000396000f3fe608060405234801561001057600080fd5b506004361061021c5760003560e01c80638acd0bfc11610125578063c02b9f5a116100ad578063d04398d61161007c578063d04398d614610701578063d313e8a11461071f578063e25bd15814610754578063e404fea214610789578063ef0aa4e6146107c25761021c565b8063c02b9f5a1461065b578063ca0cdea814610691578063cb2edb6a146106c9578063cfaa5be2146106e55761021c565b80639c1bc07b116100f45780639c1bc07b1461058f578063ac6cb237146105c1578063ae2a7ad5146105f1578063b98049351461060d578063bc79c1021461063f5761021c565b80638acd0bfc146104cf5780638bbcbd1b146105095780638da5cb5b1461053b57806396c59043146105595761021c565b806344d38d70116101a85780637325da9e116101775780637325da9e146104265780637564a13c146104425780637599be5d1461047757806376948dbd146104955780637b4843de146104b15761021c565b806344d38d701461039e57806348803dbf146103ce57806352ca81c1146103ea5780636cd327e0146104085761021c565b806315eb1adf116101ef57806315eb1adf146102d45780631eb850b11461030457806325c368fe146103225780632cfb9c11146103525780633a42b00f146103825761021c565b806308a99008146102215780630c388722146102515780630c7a538f1461028657806314e887e8146102b6575b600080fd5b61023b60048036038101906102369190614221565b6107de565b604051610248919061425d565b60405180910390f35b61026b60048036038101906102669190614221565b610802565b60405161027d96959493929190614349565b60405180910390f35b6102a0600480360381019061029b9190614512565b6109be565b6040516102ad9190614589565b60405180910390f35b6102be610add565b6040516102cb919061425d565b60405180910390f35b6102ee60048036038101906102e99190614221565b610ae3565b6040516102fb91906145a4565b60405180910390f35b61030c610b22565b604051610319919061467d565b60405180910390f35b61033c60048036038101906103379190614512565b610bb0565b6040516103499190614589565b60405180910390f35b61036c60048036038101906103679190614221565b610d65565b60405161037991906145a4565b60405180910390f35b61039c6004803603810190610397919061469f565b610da4565b005b6103b860048036038101906103b39190614221565b6112d6565b6040516103c5919061425d565b60405180910390f35b6103e860048036038101906103e3919061470e565b6112fa565b005b6103f261158e565b6040516103ff919061467d565b60405180910390f35b61041061161c565b60405161041d91906148b7565b60405180910390f35b610440600480360381019061043b91906148d9565b611674565b005b61045c60048036038101906104579190614221565b6118c7565b60405161046e96959493929190614349565b60405180910390f35b61047f6119cb565b60405161048c919061425d565b60405180910390f35b6104af60048036038101906104aa9190614994565b6119d1565b005b6104b9611abe565b6040516104c6919061467d565b60405180910390f35b6104e960048036038101906104e49190614221565b611b4c565b6040516105009b9a99989796959493929190614a38565b60405180910390f35b610523600480360381019061051e9190614994565b611dcb565b60405161053293929190614af8565b60405180910390f35b61054361207d565b60405161055091906145a4565b60405180910390f35b610573600480360381019061056e9190614994565b6120a1565b6040516105869796959493929190614b3d565b60405180910390f35b6105a960048036038101906105a49190614bc1565b612420565b6040516105b893929190614c52565b60405180910390f35b6105db60048036038101906105d69190614221565b6124f5565b6040516105e891906145a4565b60405180910390f35b61060b60048036038101906106069190614512565b612534565b005b61062760048036038101906106229190614994565b6125dc565b60405161063693929190614af8565b60405180910390f35b610659600480360381019061065491906148d9565b61288e565b005b61067560048036038101906106709190614221565b612b6f565b6040516106889796959493929190614cd8565b60405180910390f35b6106ab60048036038101906106a69190614994565b612c1e565b6040516106c099989796959493929190614d47565b60405180910390f35b6106e360048036038101906106de9190614df0565b612ec6565b005b6106ff60048036038101906106fa9190614e30565b613003565b005b610709613570565b60405161071691906148b7565b60405180910390f35b61073960048036038101906107349190614994565b6135c8565b60405161074b96959493929190614e70565b60405180910390f35b61076e60048036038101906107699190614994565b6137d6565b60405161078096959493929190614e70565b60405180910390f35b6107a3600480360381019061079e9190614221565b6139e4565b6040516107b99a99989796959493929190614ee6565b60405180910390f35b6107dc60048036038101906107d79190614f97565b613dd6565b005b600d81815481106107ee57600080fd5b906000526020600020016000915090505481565b600080600080600060606000600660008981526020019081526020016000206040518060c0016040529081600082015481526020016001820160009054906101000a900473ffffffffffffffffffffffffffffffffffffffff1673ffffffffffffffffffffffffffffffffffffffff1673ffffffffffffffffffffffffffffffffffffffff1681526020016002820160009054906101000a900473ffffffffffffffffffffffffffffffffffffffff1673ffffffffffffffffffffffffffffffffffffffff1673ffffffffffffffffffffffffffffffffffffffff168152602001600382015481526020016004820154815260200160058201805461090690615079565b80601f016020809104026020016040519081016040528092919081815260200182805461093290615079565b801561097f5780601f106109545761010080835404028352916020019161097f565b820191906000526020600020905b81548152906001019060200180831161096257829003601f168201915b505050505081525050905080600001519650806020015195508060400151945080606001519350806080015192508060a0015191505091939550919395565b6000610a94600160008573ffffffffffffffffffffffffffffffffffffffff1673ffffffffffffffffffffffffffffffffffffffff1681526020019081526020016000206001018054610a1090615079565b80601f0160208091040260200160405190810160405280929190818152602001828054610a3c90615079565b8015610a895780601f10610a5e57610100808354040283529160200191610a89565b820191906000526020600020905b815481529060010190602001808311610a6c57829003601f168201915b50505050508361417e565b610ad3576040517f08c379a0000000000000000000000000000000000000000000000000000000008152600401610aca906150f6565b60405180910390fd5b6001905092915050565b600e5481565b60098181548110610af357600080fd5b906000526020600020016000915054906101000a900473ffffffffffffffffffffffffffffffffffffffff1681565b60606009805480602002602001604051908101604052809291908181526020018280548015610ba657602002820191906000526020600020905b8160009054906101000a900473ffffffffffffffffffffffffffffffffffffffff1673ffffffffffffffffffffffffffffffffffffffff1681526020019060010190808311610b5c575b5050505050905090565b600060011515600460008573ffffffffffffffffffffffffffffffffffffffff1673ffffffffffffffffffffffffffffffffffffffff16815260200190815260200160002060040160009054906101000a900460ff16151514610c48576040517f08c379a0000000000000000000000000000000000000000000000000000000008152600401610c3f90615162565b60405180910390fd5b610d1c600460008573ffffffffffffffffffffffffffffffffffffffff1673ffffffffffffffffffffffffffffffffffffffff1681526020019081526020016000206003018054610c9890615079565b80601f0160208091040260200160405190810160405280929190818152602001828054610cc490615079565b8015610d115780601f10610ce657610100808354040283529160200191610d11565b820191906000526020600020905b815481529060010190602001808311610cf457829003601f168201915b50505050508361417e565b610d5b576040517f08c379a0000000000000000000000000000000000000000000000000000000008152600401610d52906150f6565b60405180910390fd5b6001905092915050565b600b8181548110610d7557600080fd5b906000526020600020016000915054906101000a900473ffffffffffffffffffffffffffffffffffffffff1681565b600180811115610db757610db66149c1565b5b6005600085815260200190815260200160002060070160009054906101000a900460ff166001811115610ded57610dec6149c1565b5b14610e2d576040517f08c379a0000000000000000000000000000000000000000000000000000000008152600401610e24906151f4565b60405180910390fd5b60004290506040518061016001604052808281526020016005600087815260200190815260200160002060010160009054906101000a900473ffffffffffffffffffffffffffffffffffffffff1673ffffffffffffffffffffffffffffffffffffffff1681526020018473ffffffffffffffffffffffffffffffffffffffff1681526020013373ffffffffffffffffffffffffffffffffffffffff1681526020013373ffffffffffffffffffffffffffffffffffffffff168152602001600560008781526020019081526020016000206005018054610f0b90615079565b80601f0160208091040260200160405190810160405280929190818152602001828054610f3790615079565b8015610f845780601f10610f5957610100808354040283529160200191610f84565b820191906000526020600020905b815481529060010190602001808311610f6757829003601f168201915b50505050508152602001600560008781526020019081526020016000206006015481526020016005600087815260200190815260200160002060070160009054906101000a900460ff166001811115610fe057610fdf6149c1565b5b8152602001838152602001600260006005600089815260200190815260200160002060010160009054906101000a900473ffffffffffffffffffffffffffffffffffffffff1673ffffffffffffffffffffffffffffffffffffffff1673ffffffffffffffffffffffffffffffffffffffff16815260200190815260200160002060050154815260200160056000878152602001908152602001600020600a01805461108a90615079565b80601f01602080910402602001604051908101604052809291908181526020018280546110b690615079565b80156111035780601f106110d857610100808354040283529160200191611103565b820191906000526020600020905b8154815290600101906020018083116110e657829003601f168201915b5050505050815250600560008381526020019081526020016000206000820151816000015560208201518160010160006101000a81548173ffffffffffffffffffffffffffffffffffffffff021916908373ffffffffffffffffffffffffffffffffffffffff16021790555060408201518160020160006101000a81548173ffffffffffffffffffffffffffffffffffffffff021916908373ffffffffffffffffffffffffffffffffffffffff16021790555060608201518160030160006101000a81548173ffffffffffffffffffffffffffffffffffffffff021916908373ffffffffffffffffffffffffffffffffffffffff16021790555060808201518160040160006101000a81548173ffffffffffffffffffffffffffffffffffffffff021916908373ffffffffffffffffffffffffffffffffffffffff16021790555060a082015181600501908161125991906153c0565b5060c0820151816006015560e08201518160070160006101000a81548160ff0219169083600181111561128f5761128e6149c1565b5b02179055506101008201518160080190816112aa91906153c0565b50610120820151816009015561014082015181600a0190816112cc91906153c0565b5090505050505050565b600c81815481106112e657600080fd5b906000526020600020016000915090505481565b60001515600260008773ffffffffffffffffffffffffffffffffffffffff1673ffffffffffffffffffffffffffffffffffffffff16815260200190815260200160002060070160009054906101000a900460ff16151514611390576040517f08c379a0000000000000000000000000000000000000000000000000000000008152600401611387906154de565b60405180910390fd5b6040518061012001604052808673ffffffffffffffffffffffffffffffffffffffff168152602001858152602001848152602001838152602001828152602001600081526020016000815260200160011515815260200160001515815250600260008773ffffffffffffffffffffffffffffffffffffffff1673ffffffffffffffffffffffffffffffffffffffff16815260200190815260200160002060008201518160000160006101000a81548173ffffffffffffffffffffffffffffffffffffffff021916908373ffffffffffffffffffffffffffffffffffffffff160217905550602082015181600101908161148991906153c0565b50604082015181600201908161149f91906153c0565b5060608201518160030190816114b591906153c0565b5060808201518160040190816114cb91906153c0565b5060a0820151816005015560c0820151816006015560e08201518160070160006101000a81548160ff0219169083151502179055506101008201518160070160016101000a81548160ff0219169083151502179055509050506009859080600181540180825580915050600190039060005260206000200160009091909190916101000a81548173ffffffffffffffffffffffffffffffffffffffff021916908373ffffffffffffffffffffffffffffffffffffffff1602179055505050505050565b6060600a80548060200260200160405190810160405280929190818152602001828054801561161257602002820191906000526020600020905b8160009054906101000a900473ffffffffffffffffffffffffffffffffffffffff1673ffffffffffffffffffffffffffffffffffffffff16815260200190600101908083116115c8575b5050505050905090565b6060600d80548060200260200160405190810160405280929190818152602001828054801561166a57602002820191906000526020600020905b815481526020019060010190808311611656575b5050505050905090565b60001515600460008673ffffffffffffffffffffffffffffffffffffffff1673ffffffffffffffffffffffffffffffffffffffff16815260200190815260200160002060040160009054906101000a900460ff1615151461170a576040517f08c379a000000000000000000000000000000000000000000000000000000000815260040161170190615570565b60405180910390fd5b6040518060c001604052808573ffffffffffffffffffffffffffffffffffffffff16815260200184815260200183815260200182815260200160011515815260200160001515815250600460008673ffffffffffffffffffffffffffffffffffffffff1673ffffffffffffffffffffffffffffffffffffffff16815260200190815260200160002060008201518160000160006101000a81548173ffffffffffffffffffffffffffffffffffffffff021916908373ffffffffffffffffffffffffffffffffffffffff16021790555060208201518160010190816117ee91906153c0565b50604082015181600201908161180491906153c0565b50606082015181600301908161181a91906153c0565b5060808201518160040160006101000a81548160ff02191690831515021790555060a08201518160040160016101000a81548160ff021916908315150217905550905050600b849080600181540180825580915050600190039060005260206000200160009091909190916101000a81548173ffffffffffffffffffffffffffffffffffffffff021916908373ffffffffffffffffffffffffffffffffffffffff16021790555050505050565b60066020528060005260406000206000915090508060000154908060010160009054906101000a900473ffffffffffffffffffffffffffffffffffffffff16908060020160009054906101000a900473ffffffffffffffffffffffffffffffffffffffff169080600301549080600401549080600501805461194890615079565b80601f016020809104026020016040519081016040528092919081815260200182805461197490615079565b80156119c15780601f10611996576101008083540402835291602001916119c1565b820191906000526020600020905b8154815290600101906020018083116119a457829003601f168201915b5050505050905086565b600f5481565b600460008273ffffffffffffffffffffffffffffffffffffffff1673ffffffffffffffffffffffffffffffffffffffff16815260200190815260200160002060040160019054906101000a900460ff16611a60576040517f08c379a0000000000000000000000000000000000000000000000000000000008152600401611a57906155dc565b60405180910390fd5b6000600460008373ffffffffffffffffffffffffffffffffffffffff1673ffffffffffffffffffffffffffffffffffffffff16815260200190815260200160002060040160016101000a81548160ff02191690831515021790555050565b6060600b805480602002602001604051908101604052809291908181526020018280548015611b4257602002820191906000526020600020905b8160009054906101000a900473ffffffffffffffffffffffffffffffffffffffff1673ffffffffffffffffffffffffffffffffffffffff1681526020019060010190808311611af8575b5050505050905090565b60056020528060005260406000206000915090508060000154908060010160009054906101000a900473ffffffffffffffffffffffffffffffffffffffff16908060020160009054906101000a900473ffffffffffffffffffffffffffffffffffffffff16908060030160009054906101000a900473ffffffffffffffffffffffffffffffffffffffff16908060040160009054906101000a900473ffffffffffffffffffffffffffffffffffffffff1690806005018054611c0d90615079565b80601f0160208091040260200160405190810160405280929190818152602001828054611c3990615079565b8015611c865780601f10611c5b57610100808354040283529160200191611c86565b820191906000526020600020905b815481529060010190602001808311611c6957829003601f168201915b5050505050908060060154908060070160009054906101000a900460ff1690806008018054611cb490615079565b80601f0160208091040260200160405190810160405280929190818152602001828054611ce090615079565b8015611d2d5780601f10611d0257610100808354040283529160200191611d2d565b820191906000526020600020905b815481529060010190602001808311611d1057829003601f168201915b50505050509080600901549080600a018054611d4890615079565b80601f0160208091040260200160405190810160405280929190818152602001828054611d7490615079565b8015611dc15780601f10611d9657610100808354040283529160200191611dc1565b820191906000526020600020905b815481529060010190602001808311611da457829003601f168201915b505050505090508b565b60006060806000600360008673ffffffffffffffffffffffffffffffffffffffff1673ffffffffffffffffffffffffffffffffffffffff1681526020019081526020016000206040518060c00160405290816000820160009054906101000a900473ffffffffffffffffffffffffffffffffffffffff1673ffffffffffffffffffffffffffffffffffffffff1673ffffffffffffffffffffffffffffffffffffffff168152602001600182018054611e8290615079565b80601f0160208091040260200160405190810160405280929190818152602001828054611eae90615079565b8015611efb5780601f10611ed057610100808354040283529160200191611efb565b820191906000526020600020905b815481529060010190602001808311611ede57829003601f168201915b50505050508152602001600282018054611f1490615079565b80601f0160208091040260200160405190810160405280929190818152602001828054611f4090615079565b8015611f8d5780601f10611f6257610100808354040283529160200191611f8d565b820191906000526020600020905b815481529060010190602001808311611f7057829003601f168201915b50505050508152602001600382018054611fa690615079565b80601f0160208091040260200160405190810160405280929190818152602001828054611fd290615079565b801561201f5780601f10611ff45761010080835404028352916020019161201f565b820191906000526020600020905b81548152906001019060200180831161200257829003601f168201915b505050505081526020016004820160009054906101000a900460ff161515151581526020016004820160019054906101000a900460ff1615151515815250509050806000015193508060200151925080604001519150509193909250565b60008054906101000a900473ffffffffffffffffffffffffffffffffffffffff1681565b60006060806060600080600080600260008a73ffffffffffffffffffffffffffffffffffffffff1673ffffffffffffffffffffffffffffffffffffffff168152602001908152602001600020604051806101200160405290816000820160009054906101000a900473ffffffffffffffffffffffffffffffffffffffff1673ffffffffffffffffffffffffffffffffffffffff1673ffffffffffffffffffffffffffffffffffffffff16815260200160018201805461215f90615079565b80601f016020809104026020016040519081016040528092919081815260200182805461218b90615079565b80156121d85780601f106121ad576101008083540402835291602001916121d8565b820191906000526020600020905b8154815290600101906020018083116121bb57829003601f168201915b505050505081526020016002820180546121f190615079565b80601f016020809104026020016040519081016040528092919081815260200182805461221d90615079565b801561226a5780601f1061223f5761010080835404028352916020019161226a565b820191906000526020600020905b81548152906001019060200180831161224d57829003601f168201915b5050505050815260200160038201805461228390615079565b80601f01602080910402602001604051908101604052809291908181526020018280546122af90615079565b80156122fc5780601f106122d1576101008083540402835291602001916122fc565b820191906000526020600020905b8154815290600101906020018083116122df57829003601f168201915b5050505050815260200160048201805461231590615079565b80601f016020809104026020016040519081016040528092919081815260200182805461234190615079565b801561238e5780601f106123635761010080835404028352916020019161238e565b820191906000526020600020905b81548152906001019060200180831161237157829003601f168201915b5050505050815260200160058201548152602001600682015481526020016007820160009054906101000a900460ff161515151581526020016007820160019054906101000a900460ff1615151515815250509050806000015197508060200151965080604001519550806060015194508060a0015193508060c0015192508060e00151915050919395979092949650565b60088180516020810182018051848252602083016020850120818352809550505050505060009150905080600001805461245990615079565b80601f016020809104026020016040519081016040528092919081815260200182805461248590615079565b80156124d25780601f106124a7576101008083540402835291602001916124d2565b820191906000526020600020905b8154815290600101906020018083116124b557829003601f168201915b5050505050908060010154908060020160009054906101000a900460ff16905083565b600a818154811061250557600080fd5b906000526020600020016000915054906101000a900473ffffffffffffffffffffffffffffffffffffffff1681565b61253e8282610bb0565b61257d576040517f08c379a000000000000000000000000000000000000000000000000000000000815260040161257490615648565b60405180910390fd5b6001600460008473ffffffffffffffffffffffffffffffffffffffff1673ffffffffffffffffffffffffffffffffffffffff16815260200190815260200160002060040160016101000a81548160ff0219169083151502179055505050565b60006060806000600460008673ffffffffffffffffffffffffffffffffffffffff1673ffffffffffffffffffffffffffffffffffffffff1681526020019081526020016000206040518060c00160405290816000820160009054906101000a900473ffffffffffffffffffffffffffffffffffffffff1673ffffffffffffffffffffffffffffffffffffffff1673ffffffffffffffffffffffffffffffffffffffff16815260200160018201805461269390615079565b80601f01602080910402602001604051908101604052809291908181526020018280546126bf90615079565b801561270c5780601f106126e15761010080835404028352916020019161270c565b820191906000526020600020905b8154815290600101906020018083116126ef57829003601f168201915b5050505050815260200160028201805461272590615079565b80601f016020809104026020016040519081016040528092919081815260200182805461275190615079565b801561279e5780601f106127735761010080835404028352916020019161279e565b820191906000526020600020905b81548152906001019060200180831161278157829003601f168201915b505050505081526020016003820180546127b790615079565b80601f01602080910402602001604051908101604052809291908181526020018280546127e390615079565b80156128305780601f1061280557610100808354040283529160200191612830565b820191906000526020600020905b81548152906001019060200180831161281357829003601f168201915b505050505081526020016004820160009054906101000a900460ff161515151581526020016004820160019054906101000a900460ff1615151515815250509050806000015193508060200151925080604001519150509193909250565b60008054906101000a900473ffffffffffffffffffffffffffffffffffffffff1673ffffffffffffffffffffffffffffffffffffffff163373ffffffffffffffffffffffffffffffffffffffff161461291c576040517f08c379a0000000000000000000000000000000000000000000000000000000008152600401612913906156b4565b60405180910390fd5b60001515600360008673ffffffffffffffffffffffffffffffffffffffff1673ffffffffffffffffffffffffffffffffffffffff16815260200190815260200160002060040160009054906101000a900460ff161515146129b2576040517f08c379a00000000000000000000000000000000000000000000000000000000081526004016129a990615720565b60405180910390fd5b6040518060c001604052808573ffffffffffffffffffffffffffffffffffffffff16815260200184815260200183815260200182815260200160011515815260200160001515815250600360008673ffffffffffffffffffffffffffffffffffffffff1673ffffffffffffffffffffffffffffffffffffffff16815260200190815260200160002060008201518160000160006101000a81548173ffffffffffffffffffffffffffffffffffffffff021916908373ffffffffffffffffffffffffffffffffffffffff1602179055506020820151816001019081612a9691906153c0565b506040820151816002019081612aac91906153c0565b506060820151816003019081612ac291906153c0565b5060808201518160040160006101000a81548160ff02191690831515021790555060a08201518160040160016101000a81548160ff021916908315150217905550905050600a849080600181540180825580915050600190039060005260206000200160009091909190916101000a81548173ffffffffffffffffffffffffffffffffffffffff021916908373ffffffffffffffffffffffffffffffffffffffff16021790555050505050565b60076020528060005260406000206000915090508060000154908060010160009054906101000a900473ffffffffffffffffffffffffffffffffffffffff16908060020160009054906101000a900473ffffffffffffffffffffffffffffffffffffffff16908060030160009054906101000a900473ffffffffffffffffffffffffffffffffffffffff16908060040154908060050154908060060160009054906101000a900460ff16905087565b60026020528060005260406000206000915090508060000160009054906101000a900473ffffffffffffffffffffffffffffffffffffffff1690806001018054612c6790615079565b80601f0160208091040260200160405190810160405280929190818152602001828054612c9390615079565b8015612ce05780601f10612cb557610100808354040283529160200191612ce0565b820191906000526020600020905b815481529060010190602001808311612cc357829003601f168201915b505050505090806002018054612cf590615079565b80601f0160208091040260200160405190810160405280929190818152602001828054612d2190615079565b8015612d6e5780601f10612d4357610100808354040283529160200191612d6e565b820191906000526020600020905b815481529060010190602001808311612d5157829003601f168201915b505050505090806003018054612d8390615079565b80601f0160208091040260200160405190810160405280929190818152602001828054612daf90615079565b8015612dfc5780601f10612dd157610100808354040283529160200191612dfc565b820191906000526020600020905b815481529060010190602001808311612ddf57829003601f168201915b505050505090806004018054612e1190615079565b80601f0160208091040260200160405190810160405280929190818152602001828054612e3d90615079565b8015612e8a5780601f10612e5f57610100808354040283529160200191612e8a565b820191906000526020600020905b815481529060010190602001808311612e6d57829003601f168201915b5050505050908060050154908060060154908060070160009054906101000a900460ff16908060070160019054906101000a900460ff16905089565b60006001811115612eda57612ed96149c1565b5b6007600084815260200190815260200160002060060160009054906101000a900460ff166001811115612f1057612f0f6149c1565b5b14612f50576040517f08c379a0000000000000000000000000000000000000000000000000000000008152600401612f47906157b2565b60405180910390fd5b42600760008481526020019081526020016000206005018190555060016007600084815260200190815260200160002060060160006101000a81548160ff02191690836001811115612fa557612fa46149c1565b5b0217905550336005600083815260200190815260200160002060040160006101000a81548173ffffffffffffffffffffffffffffffffffffffff021916908373ffffffffffffffffffffffffffffffffffffffff1602179055505050565b60011515600260008473ffffffffffffffffffffffffffffffffffffffff1673ffffffffffffffffffffffffffffffffffffffff16815260200190815260200160002060070160009054906101000a900460ff16151514613099576040517f08c379a00000000000000000000000000000000000000000000000000000000081526004016130909061581e565b60405180910390fd5b6040516020016130a890615895565b60405160208183030381529060405280519060200120600260008473ffffffffffffffffffffffffffffffffffffffff1673ffffffffffffffffffffffffffffffffffffffff168152602001908152602001600020600201604051602001613110919061592d565b6040516020818303038152906040528051906020012003613166576040517f08c379a000000000000000000000000000000000000000000000000000000000815260040161315d906159b6565b60405180910390fd5b60004290506040518061016001604052808281526020018473ffffffffffffffffffffffffffffffffffffffff168152602001600073ffffffffffffffffffffffffffffffffffffffff1681526020013373ffffffffffffffffffffffffffffffffffffffff168152602001600073ffffffffffffffffffffffffffffffffffffffff168152602001600260008673ffffffffffffffffffffffffffffffffffffffff1673ffffffffffffffffffffffffffffffffffffffff168152602001908152602001600020600201805461323c90615079565b80601f016020809104026020016040519081016040528092919081815260200182805461326890615079565b80156132b55780601f1061328a576101008083540402835291602001916132b5565b820191906000526020600020905b81548152906001019060200180831161329857829003601f168201915b50505050508152602001428152602001600060018111156132d9576132d86149c1565b5b815260200160405180602001604052806000815250815260200183815260200160405180602001604052806000815250815250600560008381526020019081526020016000206000820151816000015560208201518160010160006101000a81548173ffffffffffffffffffffffffffffffffffffffff021916908373ffffffffffffffffffffffffffffffffffffffff16021790555060408201518160020160006101000a81548173ffffffffffffffffffffffffffffffffffffffff021916908373ffffffffffffffffffffffffffffffffffffffff16021790555060608201518160030160006101000a81548173ffffffffffffffffffffffffffffffffffffffff021916908373ffffffffffffffffffffffffffffffffffffffff16021790555060808201518160040160006101000a81548173ffffffffffffffffffffffffffffffffffffffff021916908373ffffffffffffffffffffffffffffffffffffffff16021790555060a082015181600501908161345a91906153c0565b5060c0820151816006015560e08201518160070160006101000a81548160ff021916908360018111156134905761348f6149c1565b5b02179055506101008201518160080190816134ab91906153c0565b50610120820151816009015561014082015181600a0190816134cd91906153c0565b5090505081600260008573ffffffffffffffffffffffffffffffffffffffff1673ffffffffffffffffffffffffffffffffffffffff16815260200190815260200160002060050160008282546135239190615a05565b92505081905550600c819080600181540180825580915050600190039060005260206000200160009091909190915055600e600081548092919061356690615a39565b9190505550505050565b6060600c8054806020026020016040519081016040528092919081815260200182805480156135be57602002820191906000526020600020905b8154815260200190600101908083116135aa575b5050505050905090565b60046020528060005260406000206000915090508060000160009054906101000a900473ffffffffffffffffffffffffffffffffffffffff169080600101805461361190615079565b80601f016020809104026020016040519081016040528092919081815260200182805461363d90615079565b801561368a5780601f1061365f5761010080835404028352916020019161368a565b820191906000526020600020905b81548152906001019060200180831161366d57829003601f168201915b50505050509080600201805461369f90615079565b80601f01602080910402602001604051908101604052809291908181526020018280546136cb90615079565b80156137185780601f106136ed57610100808354040283529160200191613718565b820191906000526020600020905b8154815290600101906020018083116136fb57829003601f168201915b50505050509080600301805461372d90615079565b80601f016020809104026020016040519081016040528092919081815260200182805461375990615079565b80156137a65780601f1061377b576101008083540402835291602001916137a6565b820191906000526020600020905b81548152906001019060200180831161378957829003601f168201915b5050505050908060040160009054906101000a900460ff16908060040160019054906101000a900460ff16905086565b60036020528060005260406000206000915090508060000160009054906101000a900473ffffffffffffffffffffffffffffffffffffffff169080600101805461381f90615079565b80601f016020809104026020016040519081016040528092919081815260200182805461384b90615079565b80156138985780601f1061386d57610100808354040283529160200191613898565b820191906000526020600020905b81548152906001019060200180831161387b57829003601f168201915b5050505050908060020180546138ad90615079565b80601f01602080910402602001604051908101604052809291908181526020018280546138d990615079565b80156139265780601f106138fb57610100808354040283529160200191613926565b820191906000526020600020905b81548152906001019060200180831161390957829003601f168201915b50505050509080600301805461393b90615079565b80601f016020809104026020016040519081016040528092919081815260200182805461396790615079565b80156139b45780601f10613989576101008083540402835291602001916139b4565b820191906000526020600020905b81548152906001019060200180831161399757829003601f168201915b5050505050908060040160009054906101000a900460ff16908060040160019054906101000a900460ff16905086565b60008060008060606000806060600060606000600560008d815260200190815260200160002060405180610160016040529081600082015481526020016001820160009054906101000a900473ffffffffffffffffffffffffffffffffffffffff1673ffffffffffffffffffffffffffffffffffffffff1673ffffffffffffffffffffffffffffffffffffffff1681526020016002820160009054906101000a900473ffffffffffffffffffffffffffffffffffffffff1673ffffffffffffffffffffffffffffffffffffffff1673ffffffffffffffffffffffffffffffffffffffff1681526020016003820160009054906101000a900473ffffffffffffffffffffffffffffffffffffffff1673ffffffffffffffffffffffffffffffffffffffff1673ffffffffffffffffffffffffffffffffffffffff1681526020016004820160009054906101000a900473ffffffffffffffffffffffffffffffffffffffff1673ffffffffffffffffffffffffffffffffffffffff1673ffffffffffffffffffffffffffffffffffffffff168152602001600582018054613b8890615079565b80601f0160208091040260200160405190810160405280929190818152602001828054613bb490615079565b8015613c015780601f10613bd657610100808354040283529160200191613c01565b820191906000526020600020905b815481529060010190602001808311613be457829003601f168201915b50505050508152602001600682015481526020016007820160009054906101000a900460ff166001811115613c3957613c386149c1565b5b6001811115613c4b57613c4a6149c1565b5b8152602001600882018054613c5f90615079565b80601f0160208091040260200160405190810160405280929190818152602001828054613c8b90615079565b8015613cd85780601f10613cad57610100808354040283529160200191613cd8565b820191906000526020600020905b815481529060010190602001808311613cbb57829003601f168201915b5050505050815260200160098201548152602001600a82018054613cfb90615079565b80601f0160208091040260200160405190810160405280929190818152602001828054613d2790615079565b8015613d745780601f10613d4957610100808354040283529160200191613d74565b820191906000526020600020905b815481529060010190602001808311613d5757829003601f168201915b505050505081525050905080600001519a508060200151995080604001519850806080015197508060a0015196508060c0015195508060e001519450806101000151935080610120015192508061014001519150509193959799509193959799565b60006001811115613dea57613de96149c1565b5b6005600087815260200190815260200160002060070160009054906101000a900460ff166001811115613e2057613e1f6149c1565b5b14613e60576040517f08c379a0000000000000000000000000000000000000000000000000000000008152600401613e5790615acd565b60405180910390fd5b600073ffffffffffffffffffffffffffffffffffffffff166005600087815260200190815260200160002060010160009054906101000a900473ffffffffffffffffffffffffffffffffffffffff1673ffffffffffffffffffffffffffffffffffffffff1603613f05576040517f08c379a0000000000000000000000000000000000000000000000000000000008152600401613efc90615b39565b60405180910390fd5b336005600087815260200190815260200160002060030160006101000a81548173ffffffffffffffffffffffffffffffffffffffff021916908373ffffffffffffffffffffffffffffffffffffffff16021790555083600560008781526020019081526020016000206008019081613f7d91906153c0565b5060016005600087815260200190815260200160002060070160006101000a81548160ff02191690836001811115613fb857613fb76149c1565b5b02179055508060056000878152602001908152602001600020600a019081613fe091906153c0565b5060004290506040518060c001604052808281526020016005600089815260200190815260200160002060010160009054906101000a900473ffffffffffffffffffffffffffffffffffffffff1673ffffffffffffffffffffffffffffffffffffffff1681526020013373ffffffffffffffffffffffffffffffffffffffff16815260200185815260200184815260200183815250600660008381526020019081526020016000206000820151816000015560208201518160010160006101000a81548173ffffffffffffffffffffffffffffffffffffffff021916908373ffffffffffffffffffffffffffffffffffffffff16021790555060408201518160020160006101000a81548173ffffffffffffffffffffffffffffffffffffffff021916908373ffffffffffffffffffffffffffffffffffffffff160217905550606082015181600301556080820151816004015560a082015181600501908161414991906153c0565b50905050600d819080600181540180825580915050600190039060005260206000200160009091909190915055505050505050565b6000816040516020016141919190615b8a565b60405160208183030381529060405280519060200120836040516020016141b89190615b8a565b6040516020818303038152906040528051906020012014905092915050565b6000604051905090565b600080fd5b600080fd5b6000819050919050565b6141fe816141eb565b811461420957600080fd5b50565b60008135905061421b816141f5565b92915050565b600060208284031215614237576142366141e1565b5b60006142458482850161420c565b91505092915050565b614257816141eb565b82525050565b6000602082019050614272600083018461424e565b92915050565b600073ffffffffffffffffffffffffffffffffffffffff82169050919050565b60006142a382614278565b9050919050565b6142b381614298565b82525050565b600081519050919050565b600082825260208201905092915050565b60005b838110156142f35780820151818401526020810190506142d8565b60008484015250505050565b6000601f19601f8301169050919050565b600061431b826142b9565b61432581856142c4565b93506143358185602086016142d5565b61433e816142ff565b840191505092915050565b600060c08201905061435e600083018961424e565b61436b60208301886142aa565b61437860408301876142aa565b614385606083018661424e565b614392608083018561424e565b81810360a08301526143a48184614310565b9050979650505050505050565b6143ba81614298565b81146143c557600080fd5b50565b6000813590506143d7816143b1565b92915050565b600080fd5b600080fd5b7f4e487b7100000000000000000000000000000000000000000000000000000000600052604160045260246000fd5b61441f826142ff565b810181811067ffffffffffffffff8211171561443e5761443d6143e7565b5b80604052505050565b60006144516141d7565b905061445d8282614416565b919050565b600067ffffffffffffffff82111561447d5761447c6143e7565b5b614486826142ff565b9050602081019050919050565b82818337600083830152505050565b60006144b56144b084614462565b614447565b9050828152602081018484840111156144d1576144d06143e2565b5b6144dc848285614493565b509392505050565b600082601f8301126144f9576144f86143dd565b5b81356145098482602086016144a2565b91505092915050565b60008060408385031215614529576145286141e1565b5b6000614537858286016143c8565b925050602083013567ffffffffffffffff811115614558576145576141e6565b5b614564858286016144e4565b9150509250929050565b60008115159050919050565b6145838161456e565b82525050565b600060208201905061459e600083018461457a565b92915050565b60006020820190506145b960008301846142aa565b92915050565b600081519050919050565b600082825260208201905092915050565b6000819050602082019050919050565b6145f481614298565b82525050565b600061460683836145eb565b60208301905092915050565b6000602082019050919050565b600061462a826145bf565b61463481856145ca565b935061463f836145db565b8060005b8381101561467057815161465788826145fa565b975061466283614612565b925050600181019050614643565b5085935050505092915050565b60006020820190508181036000830152614697818461461f565b905092915050565b6000806000606084860312156146b8576146b76141e1565b5b60006146c68682870161420c565b93505060206146d7868287016143c8565b925050604084013567ffffffffffffffff8111156146f8576146f76141e6565b5b614704868287016144e4565b9150509250925092565b600080600080600060a0868803121561472a576147296141e1565b5b6000614738888289016143c8565b955050602086013567ffffffffffffffff811115614759576147586141e6565b5b614765888289016144e4565b945050604086013567ffffffffffffffff811115614786576147856141e6565b5b614792888289016144e4565b935050606086013567ffffffffffffffff8111156147b3576147b26141e6565b5b6147bf888289016144e4565b925050608086013567ffffffffffffffff8111156147e0576147df6141e6565b5b6147ec888289016144e4565b9150509295509295909350565b600081519050919050565b600082825260208201905092915050565b6000819050602082019050919050565b61482e816141eb565b82525050565b60006148408383614825565b60208301905092915050565b6000602082019050919050565b6000614864826147f9565b61486e8185614804565b935061487983614815565b8060005b838110156148aa5781516148918882614834565b975061489c8361484c565b92505060018101905061487d565b5085935050505092915050565b600060208201905081810360008301526148d18184614859565b905092915050565b600080600080608085870312156148f3576148f26141e1565b5b6000614901878288016143c8565b945050602085013567ffffffffffffffff811115614922576149216141e6565b5b61492e878288016144e4565b935050604085013567ffffffffffffffff81111561494f5761494e6141e6565b5b61495b878288016144e4565b925050606085013567ffffffffffffffff81111561497c5761497b6141e6565b5b614988878288016144e4565b91505092959194509250565b6000602082840312156149aa576149a96141e1565b5b60006149b8848285016143c8565b91505092915050565b7f4e487b7100000000000000000000000000000000000000000000000000000000600052602160045260246000fd5b60028110614a0157614a006149c1565b5b50565b6000819050614a12826149f0565b919050565b6000614a2282614a04565b9050919050565b614a3281614a17565b82525050565b600061016082019050614a4e600083018e61424e565b614a5b602083018d6142aa565b614a68604083018c6142aa565b614a75606083018b6142aa565b614a82608083018a6142aa565b81810360a0830152614a948189614310565b9050614aa360c083018861424e565b614ab060e0830187614a29565b818103610100830152614ac38186614310565b9050614ad361012083018561424e565b818103610140830152614ae68184614310565b90509c9b505050505050505050505050565b6000606082019050614b0d60008301866142aa565b8181036020830152614b1f8185614310565b90508181036040830152614b338184614310565b9050949350505050565b600060e082019050614b52600083018a6142aa565b8181036020830152614b648189614310565b90508181036040830152614b788188614310565b90508181036060830152614b8c8187614310565b9050614b9b608083018661424e565b614ba860a083018561424e565b614bb560c083018461457a565b98975050505050505050565b600060208284031215614bd757614bd66141e1565b5b600082013567ffffffffffffffff811115614bf557614bf46141e6565b5b614c01848285016144e4565b91505092915050565b60028110614c1b57614c1a6149c1565b5b50565b6000819050614c2c82614c0a565b919050565b6000614c3c82614c1e565b9050919050565b614c4c81614c31565b82525050565b60006060820190508181036000830152614c6c8186614310565b9050614c7b602083018561424e565b614c886040830184614c43565b949350505050565b60028110614ca157614ca06149c1565b5b50565b6000819050614cb282614c90565b919050565b6000614cc282614ca4565b9050919050565b614cd281614cb7565b82525050565b600060e082019050614ced600083018a61424e565b614cfa60208301896142aa565b614d0760408301886142aa565b614d1460608301876142aa565b614d21608083018661424e565b614d2e60a083018561424e565b614d3b60c0830184614cc9565b98975050505050505050565b600061012082019050614d5d600083018c6142aa565b8181036020830152614d6f818b614310565b90508181036040830152614d83818a614310565b90508181036060830152614d978189614310565b90508181036080830152614dab8188614310565b9050614dba60a083018761424e565b614dc760c083018661424e565b614dd460e083018561457a565b614de261010083018461457a565b9a9950505050505050505050565b60008060408385031215614e0757614e066141e1565b5b6000614e158582860161420c565b9250506020614e268582860161420c565b9150509250929050565b60008060408385031215614e4757614e466141e1565b5b6000614e55858286016143c8565b9250506020614e668582860161420c565b9150509250929050565b600060c082019050614e8560008301896142aa565b8181036020830152614e978188614310565b90508181036040830152614eab8187614310565b90508181036060830152614ebf8186614310565b9050614ece608083018561457a565b614edb60a083018461457a565b979650505050505050565b600061014082019050614efc600083018d61424e565b614f09602083018c6142aa565b614f16604083018b6142aa565b614f23606083018a6142aa565b8181036080830152614f358189614310565b9050614f4460a083018861424e565b614f5160c0830187614a29565b81810360e0830152614f638186614310565b9050614f7361010083018561424e565b818103610120830152614f868184614310565b90509b9a5050505050505050505050565b600080600080600060a08688031215614fb357614fb26141e1565b5b6000614fc18882890161420c565b955050602086013567ffffffffffffffff811115614fe257614fe16141e6565b5b614fee888289016144e4565b9450506040614fff8882890161420c565b93505060606150108882890161420c565b925050608086013567ffffffffffffffff811115615031576150306141e6565b5b61503d888289016144e4565b9150509295509295909350565b7f4e487b7100000000000000000000000000000000000000000000000000000000600052602260045260246000fd5b6000600282049050600182168061509157607f821691505b6020821081036150a4576150a361504a565b5b50919050565b7f496e76616c69642061646472657373206f722070617373776f72640000000000600082015250565b60006150e0601b836142c4565b91506150eb826150aa565b602082019050919050565b6000602082019050818103600083015261510f816150d3565b9050919050565b7f596f75277265206e6f7420726567697374657265642079657421000000000000600082015250565b600061514c601a836142c4565b915061515782615116565b602082019050919050565b6000602082019050818103600083015261517b8161513f565b9050919050565b7f4d65646963616c2063656e7465722070726f63657373206e6f7420636f6d706c60008201527f6574656400000000000000000000000000000000000000000000000000000000602082015250565b60006151de6024836142c4565b91506151e982615182565b604082019050919050565b6000602082019050818103600083015261520d816151d1565b9050919050565b60008190508160005260206000209050919050565b60006020601f8301049050919050565b600082821b905092915050565b6000600883026152767fffffffffffffffffffffffffffffffffffffffffffffffffffffffffffffffff82615239565b6152808683615239565b95508019841693508086168417925050509392505050565b6000819050919050565b60006152bd6152b86152b3846141eb565b615298565b6141eb565b9050919050565b6000819050919050565b6152d7836152a2565b6152eb6152e3826152c4565b848454615246565b825550505050565b600090565b6153006152f3565b61530b8184846152ce565b505050565b5b8181101561532f576153246000826152f8565b600181019050615311565b5050565b601f8211156153745761534581615214565b61534e84615229565b8101602085101561535d578190505b61537161536985615229565b830182615310565b50505b505050565b600082821c905092915050565b600061539760001984600802615379565b1980831691505092915050565b60006153b08383615386565b9150826002028217905092915050565b6153c9826142b9565b67ffffffffffffffff8111156153e2576153e16143e7565b5b6153ec8254615079565b6153f7828285615333565b600060209050601f83116001811461542a5760008415615418578287015190505b61542285826153a4565b86555061548a565b601f19841661543886615214565b60005b828110156154605784890151825560018201915060208501945060208101905061543b565b8683101561547d5784890151615479601f891682615386565b8355505b6001600288020188555050505b505050505050565b7f446f6e6f7220697320616c726561647920726567697374657265640000000000600082015250565b60006154c8601b836142c4565b91506154d382615492565b602082019050919050565b600060208201905081810360008301526154f7816154bb565b9050919050565b7f4d65646963616c2063656e74657220697320616c72656164792072656769737460008201527f6572656400000000000000000000000000000000000000000000000000000000602082015250565b600061555a6024836142c4565b9150615565826154fe565b604082019050919050565b600060208201905081810360008301526155898161554d565b9050919050565b7f596f75277265206e6f74206c6f6767656420696e000000000000000000000000600082015250565b60006155c66014836142c4565b91506155d182615590565b602082019050919050565b600060208201905081810360008301526155f5816155b9565b9050919050565b7f496e76616c6964206c6f67696e2063726564656e7469616c7300000000000000600082015250565b60006156326019836142c4565b915061563d826155fc565b602082019050919050565b6000602082019050818103600083015261566181615625565b9050919050565b7f5265737472696374656420746f2073797374656d206f776e6572206f6e6c7900600082015250565b600061569e601f836142c4565b91506156a982615668565b602082019050919050565b600060208201905081810360008301526156cd81615691565b9050919050565b7f5472616e73706f7274657220616c726561647920726567697374657265640000600082015250565b600061570a601e836142c4565b9150615715826156d4565b602082019050919050565b60006020820190508181036000830152615739816156fd565b9050919050565b7f5472616e73706f72746174696f6e20616c726561647920636f6d706c6574656460008201527f206f72206e6f7420696e69746961746564000000000000000000000000000000602082015250565b600061579c6031836142c4565b91506157a782615740565b604082019050919050565b600060208201905081810360008301526157cb8161578f565b9050919050565b7f506c6561736520726567697374657220646f6e6f722066697273740000000000600082015250565b6000615808601b836142c4565b9150615813826157d2565b602082019050919050565b60006020820190508181036000830152615837816157fb565b9050919050565b600081905092915050565b7f4f74686572000000000000000000000000000000000000000000000000000000600082015250565b600061587f60058361583e565b915061588a82615849565b600582019050919050565b60006158a082615872565b9150819050919050565b600081546158b781615079565b6158c1818661583e565b945060018216600081146158dc57600181146158f157615924565b60ff1983168652811515820286019350615924565b6158fa85615214565b60005b8381101561591c578154818901526001820191506020810190506158fd565b838801955050505b50505092915050565b600061593982846158aa565b915081905092915050565b7f446f6e6f722068617320616c726561647920696e69746961746564206120646f60008201527f6e6174696f6e0000000000000000000000000000000000000000000000000000602082015250565b60006159a06026836142c4565b91506159ab82615944565b604082019050919050565b600060208201905081810360008301526159cf81615993565b9050919050565b7f4e487b7100000000000000000000000000000000000000000000000000000000600052601160045260246000fd5b6000615a10826141eb565b9150615a1b836141eb565b9250828201905080821115615a3357615a326159d6565b5b92915050565b6000615a44826141eb565b91507fffffffffffffffffffffffffffffffffffffffffffffffffffffffffffffffff8203615a7657615a756159d6565b5b600182019050919050565b7f496e76616c6964207472616e73616374696f6e20737461747573000000000000600082015250565b6000615ab7601a836142c4565b9150615ac282615a81565b602082019050919050565b60006020820190508181036000830152615ae681615aaa565b9050919050565b7f496e76616c696420646f6e6f7220616464726573730000000000000000000000600082015250565b6000615b236015836142c4565b9150615b2e82615aed565b602082019050919050565b60006020820190508181036000830152615b5281615b16565b9050919050565b6000615b64826142b9565b615b6e818561583e565b9350615b7e8185602086016142d5565b80840191505092915050565b6000615b968284615b59565b91508190509291505056fea2646970667358221220d5058abf29430592bac286ac309e0d746bbc0413bd22955982116dbf6c591fdc64736f6c63430008130033",
  "immutableReferences": {},
  "source": "// SPDX-License-Identifier: MIT\npragma solidity ^0.8.19;\n\ncontract BloodDonationBlockchainSystem {\n    enum TransactionStatus { Pending, Completed }\n    enum TransportationStatus { InTransit, Delivered }\n    enum BloodSupplyStatus { Available, Requested }\n\n    /// @dev create system account structure\n    struct SystemOwner {\n        address sysOwner;\n        string password /*audit*/;\n        bool isLogin;\n    }\n\n    struct Donor {\n        address donorPublicAddress;\n        string name;\n        string bloodType;\n        string phoneNumber;\n        string password;\n        uint256 donatedVolume;\n        uint256 totalPayment;\n        bool isRegistered;\n        bool isLogin;\n        // uint256[] donationHistory;\n    }\n\n    struct Transporter {\n        address transporterPublicAddress;\n        string name;\n        string phoneNumber;\n        string password;\n        bool isRegistered;\n        bool isLogin;\n    }\n\n    struct MedicalCenter {\n        address MCPublicAddress;\n        string name;\n        string phoneNumber;\n        string password;\n        bool isRegistered;\n        bool isLogin;\n    }\n\n    struct DonationTransaction {\n        uint256 transactionID;\n        address donor;\n        address recipient;\n        address medicalStaff;\n        address transporter;\n        string bloodType;\n        uint256 donationDate;\n        TransactionStatus status;\n        string medicalCenter;\n        uint256 donatedVolume;\n        string bloodTestResult;\n    }\n\n    struct MedicalRecord {\n        uint256 recordID;\n        address donor;\n        address medicalStaff;\n        uint256 bloodPressure;\n        uint256 hemoglobinLevel;\n        string bloodTestResults;\n        // uint256[] donationHistory;\n    }\n\n    struct TransportationRecord {\n        uint256 recordID;\n        address transporter;\n        address donor;\n        address recipient;\n        uint256 pickupDateTime;\n        uint256 deliveryDateTime;\n        TransportationStatus status;\n    }\n\n    struct BloodSupply {\n        string bloodType;\n        uint256 volume;\n        BloodSupplyStatus status;\n    }\n\n    address public owner;\n    mapping(address => SystemOwner) private sysOwnerMap;\n    \n    mapping(address => Donor) public donors;\n    mapping(address => Transporter) public transporters;\n    mapping(address => MedicalCenter) public medicalsCenters;\n    mapping(uint256 => DonationTransaction) public donationTransactions;\n\n    mapping(uint256 => MedicalRecord) public medicalRecords;\n    mapping(uint256 => TransportationRecord) public transportationRecords;\n    mapping(string => BloodSupply) public bloodSupplies;\n\n    address[] public donorAddressArr;\n    address[] public transporterAddressArr;\n    address[] public medicaCenterAddressArr;\n    uint256[] public donationTransactionsArr;\n    uint256[] public medicalRecordsArr;\n\n    uint256 public transactionCounter;\n    uint256 public recordCounter;\n\n    modifier onlyOwner() {\n        require(msg.sender == owner, \"Restricted to system owner only\");\n        _;\n    }\n\n    // modifier onlyMedicalStaff() {\n    //     require(\n    //         medicalsCenters[msg.sender].MCPublicAddress == msg.sender,\n    //         \"Only medical staff can perform this action\"\n    //     );\n    //     _;\n    // }\n\n    // modifier onlyTransporter() {\n    //     require(\n    //         transporters[msg.sender].transporterPublicAddress == msg.sender,\n    //         \"Only transporters can perform this action\"\n    //     );\n    //     _;\n    // }\n\n    SystemOwner private sysowner;\n\n    constructor() {\n        owner = msg.sender;\n        sysowner = SystemOwner(owner, \"admin\", false);\n        sysOwnerMap[owner] = sysowner;\n    }\n\n    function checkSystemOwnerLogin(address _SYSPublicAddress, string memory _password) public view returns (bool) {\n        // require(!medicalsCenters[_MCPublicAddress].isLogin, \"You're already logged in\");\n        require(compareString(sysOwnerMap[_SYSPublicAddress].password, _password), \"Invalid address or password\");\n\n        return true;\n    }\n\n    // function systemOwnerLogin(address _MCPublicAddress, string memory _password) public {\n    //     require(checkSystemOwnerLogin(_MCPublicAddress, _password), \"Invalid login credentials\");\n\n    //     sysOwnerMap[_MCPublicAddress].isLogin = true;\n    // }\n\n    function addDonor(\n        address _donorPublicAddress,\n        string memory _name,\n        string memory _bloodType,\n        string memory _contactNumber,\n        string memory _password\n    ) public {\n        require(\n            donors[_donorPublicAddress].isRegistered == false,\n            \"Donor is already registered\"\n        );\n        donors[_donorPublicAddress] = Donor(\n            _donorPublicAddress,\n            _name,\n            _bloodType,\n            _contactNumber,\n            _password,\n            0,\n            0,\n            true,\n            false\n        );\n        donorAddressArr.push(_donorPublicAddress);\n    }\n\n    // function  donorLogin(address _donorPublicAddress, string memory _password) public {\n    //     require(donors[_donorPublicAddress].isRegistered == true, \"Your not registered yet!\");\n    //     require(donors[_donorPublicAddress].isLogin == false, \"Your Already login\");\n    //     require(compareString(donors[_donorPublicAddress].password, _password), \"Invalid address or password\");\n        \n    //     donors[_donorPublicAddress].isLogin = true;\n    // }\n\n    function getDonorsArr() public view returns (address[] memory) {\n        return donorAddressArr;\n    }\n\n    function getDonor(\n        address _donorPublicAddress\n    )\n        public\n        view\n        returns (\n            address publicAddress,\n            string memory name,\n            string memory bloodType,\n            string memory phoneNumber,\n            uint256 donatedVolume,\n            uint256 totalPayment,\n            bool isRegistered\n        )\n    {\n        Donor memory donor = donors[_donorPublicAddress];\n        publicAddress = donor.donorPublicAddress;\n        name = donor.name;\n        bloodType = donor.bloodType;\n        phoneNumber = donor.phoneNumber;\n        donatedVolume = donor.donatedVolume;\n        totalPayment = donor.totalPayment;\n        isRegistered = donor.isRegistered;\n    }\n\n    function addTransporter(\n        address _transporterPublicAddress,\n        string memory _name,\n        string memory _contactNumber,\n        string memory _password\n    ) public onlyOwner() {\n        // onlyOwner\n        require(\n            transporters[_transporterPublicAddress].isRegistered == false,\n            \"Transporter already registered\"\n        );\n        transporters[_transporterPublicAddress] = Transporter({\n            transporterPublicAddress: _transporterPublicAddress,\n            name: _name,\n            phoneNumber: _contactNumber,\n            password: _password,\n            isRegistered: true,\n            isLogin: false\n        });\n        transporterAddressArr.push(_transporterPublicAddress);\n    }\n\n    // function  transporterLogin(address _transporterPublicAddress, string memory _password) public {\n    //     require(transporters[_transporterPublicAddress].isRegistered == true, \"Your not registered yet!\");\n    //     require(transporters[_transporterPublicAddress].isLogin == false, \"Your Already login\");\n    //     require(compareString(transporters[_transporterPublicAddress].password, _password), \"Invalid address or password\");\n\n    //     transporters[_transporterPublicAddress].isLogin = true;\n    // }\n\n    function getTransportersArr() public view returns (address[] memory) {\n        return transporterAddressArr;\n    }\n\n    function getTransporter(\n        address _transporterPublicAddress\n    )\n        public\n        view\n        returns (\n            address transporterPublicAddress,\n            string memory name,\n            string memory phoneNumber\n        )\n    {\n        Transporter memory transporter = transporters[_transporterPublicAddress];\n        transporterPublicAddress = transporter.transporterPublicAddress;\n        name = transporter.name;\n        phoneNumber = transporter.phoneNumber;\n    }\n\n    function addMedicalCenter(\n        address _MCPublicAddress,\n        string memory _name,\n        string memory _contactNumber,\n        string memory _password\n    ) public {\n        // onlyOwner\n        require(\n            medicalsCenters[_MCPublicAddress].isRegistered == false,\n            \"Medical center is already registered\"\n        );\n        medicalsCenters[_MCPublicAddress] = MedicalCenter({\n            MCPublicAddress: _MCPublicAddress,\n            name: _name,\n            phoneNumber: _contactNumber,\n            password: _password,\n            isRegistered: true,\n            isLogin: false\n        });\n        medicaCenterAddressArr.push(_MCPublicAddress);\n        \n    }\n\n    // function  medicalCenterLogin(address _MCPublicAddress, string memory _password) public {\n    //     require(medicalsCenters[_MCPublicAddress].isRegistered == true, \"Your not registered yet!\");\n    //     require(medicalsCenters[_MCPublicAddress].isLogin == false, \"Your Already login\");\n    //     require(compareString(medicalsCenters[_MCPublicAddress].password, _password), \"Invalid address or password\");\n\n    //     MedicalCenter memory medicalCenter = medicalsCenters[_MCPublicAddress];\n    //     medicalCenter.isLogin = true;\n    // }\n\n    function checkMedicalCenterLogin(address _MCPublicAddress, string memory _password) public view returns (bool) {\n        require(medicalsCenters[_MCPublicAddress].isRegistered == true, \"You're not registered yet!\");\n        // require(!medicalsCenters[_MCPublicAddress].isLogin, \"You're already logged in\");\n        require(compareString(medicalsCenters[_MCPublicAddress].password, _password), \"Invalid address or password\");\n\n        return true;\n    }\n\n    function medicalCenterLogin(address _MCPublicAddress, string memory _password) public {\n        require(checkMedicalCenterLogin(_MCPublicAddress, _password), \"Invalid login credentials\");\n\n        medicalsCenters[_MCPublicAddress].isLogin = true;\n    }\n\n    function medicalCenterLogout(address _MCPublicAddress) public {\n        require(medicalsCenters[_MCPublicAddress].isLogin, \"You're not logged in\");\n\n        medicalsCenters[_MCPublicAddress].isLogin = false;\n    }\n\n    function getMedicalCentersArr() public view returns (address[] memory) {\n        return medicaCenterAddressArr;\n    }\n\n    function getMedicalCenter(\n        address _medicalStaffPublicAddress\n    )\n        public\n        view\n        returns (\n            address MCPublicAddress,\n            string memory name,\n            string memory phoneNumber\n        )\n    {\n        MedicalCenter memory medicalCenter = medicalsCenters[_medicalStaffPublicAddress];\n        MCPublicAddress = medicalCenter.MCPublicAddress;\n        name = medicalCenter.name;\n        phoneNumber = medicalCenter.phoneNumber;\n    }\n\n    // function donorChangePassword(string memory _oldPassword, string memory _newPassword) external {\n    //     require(compareString(donors[msg.sender].password, _oldPassword), \"Invalid old password\");\n    //     require(keccak256(abi.encode(_newPassword)).length > 0, \"Password should not be empty\");\n    //     require(compareString(donors[msg.sender].password, _newPassword), \"Invalid new password\");\n    //     require(donors[msg.sender].isLogin == true, \"Not logged in\");\n\n    //     donors[msg.sender].password = _newPassword;\n    //     // emit PasswordChanged(msg.sender);\n    // }\n\n    // ---------------- Start Donation initialization ---------------------\n\n    function donateBloodToMedicalCenter(\n        address _donorPublicAddress,\n        uint256 _volume\n    ) public {\n        require(\n            donors[_donorPublicAddress].isRegistered == true,\n            \"Please register donor first\"\n        );\n        require(\n            keccak256(abi.encodePacked(donors[_donorPublicAddress].bloodType)) != keccak256(abi.encodePacked(\"Other\")),\n            \"Donor has already initiated a donation\"\n        );\n\n        uint256 transactionID = block.timestamp;\n        donationTransactions[transactionID] = DonationTransaction({\n            transactionID: transactionID,\n            donor: _donorPublicAddress,\n            recipient: address(0),\n            medicalStaff: msg.sender,\n            transporter: address(0),\n            bloodType: donors[_donorPublicAddress].bloodType,\n            donationDate: block.timestamp,\n            status: TransactionStatus.Pending,\n            medicalCenter: \"\",\n            donatedVolume: _volume,\n            bloodTestResult: \"\"\n        });\n        donors[_donorPublicAddress].donatedVolume += _volume;\n\n        // donors[msg.sender].bloodType = string(\"Other\");\n        donationTransactionsArr.push(transactionID);\n\n        // Increment the transaction count\n        transactionCounter++;\n    }\n\n    function getDonationTransactionArr()\n        public\n        view\n        returns (uint256[] memory)\n    {\n        return donationTransactionsArr;\n    }\n\n    function getDonationTransaction(\n        uint256 _transactionID\n    )\n        public\n        view\n        returns (\n            uint256 transactionID,\n            address donorPublicAddress,\n            address recipientPublicAddress,\n            address transporterPublicAddress,\n            string memory bloodType,\n            uint256 donationDate,\n            TransactionStatus status,\n            string memory medicalCenter,\n            uint256 donatedVolume,\n            string memory bloodTestResult\n        )\n    {\n        DonationTransaction memory donationTransaction = donationTransactions[\n            _transactionID\n        ];\n        transactionID = donationTransaction.transactionID;\n        donorPublicAddress = donationTransaction.donor;\n        recipientPublicAddress = donationTransaction.recipient;\n        transporterPublicAddress = donationTransaction.transporter;\n        bloodType = donationTransaction.bloodType;\n        donationDate = donationTransaction.donationDate;\n        status = donationTransaction.status;\n        medicalCenter = donationTransaction.medicalCenter;\n        donatedVolume = donationTransaction.donatedVolume;\n        bloodTestResult = donationTransaction.bloodTestResult;\n    }\n\n    // ---------------- End Donation initialization ---------------------\n\n    // ---------------- Start Complete Donation  ------------------------\n\n    function completeDonationToMedicalCenter(\n        uint256 _transactionID,\n        string memory _medicalCenter,\n        uint256 _bloodPressure,\n        uint256 _hemoglobinLevel,\n        string memory _bloodTestResults\n    ) public {\n        require(\n            donationTransactions[_transactionID].status ==\n                TransactionStatus.Pending,\n            \"Invalid transaction status\"\n        );\n        require(\n            donationTransactions[_transactionID].donor != address(0),\n            \"Invalid donor address\"\n        );\n\n        donationTransactions[_transactionID].medicalStaff = msg.sender;\n        donationTransactions[_transactionID].medicalCenter = _medicalCenter;\n        donationTransactions[_transactionID].status = TransactionStatus.Completed;\n        donationTransactions[_transactionID].bloodTestResult = _bloodTestResults;\n\n        uint256 recordID = block.timestamp;\n        medicalRecords[recordID] = MedicalRecord({\n            recordID: recordID,\n            donor: donationTransactions[_transactionID].donor,\n            medicalStaff: msg.sender,\n            bloodPressure: _bloodPressure,\n            hemoglobinLevel: _hemoglobinLevel,\n            bloodTestResults: _bloodTestResults\n            // donationHistory: new uint256[](0)\n        });\n        medicalRecordsArr.push(recordID);\n\n        // donors[donationTransactions[_transactionID].donor].donationHistory.push(\n        //     _transactionID\n        // );\n\n        // uint256 payment = calculatePayment(\n        //     donors[donationTransactions[_transactionID].donor].donatedVolume\n        // );\n        // uint256 payment = calculatePayment(_transactionID);\n        // donors[donationTransactions[_transactionID].donor]\n        //     .totalPayment += payment;\n        // payable(msg.sender).transfer(payment);\n    }\n\n    function getMedicalRecordsArr()\n        public\n        view\n        returns (uint256[] memory)\n    {\n        return medicalRecordsArr;\n    }\n\n    function getMedicalRecord(\n        uint256 _medicalRecordID\n    )\n        public\n        view\n        returns (\n            uint256 medicalRecordID,\n            address donorAddress,\n            address medicalStaff,\n            uint256 bloodPressure,\n            uint256 hemoglobinLevel,\n            string memory bloodTestResult\n        )\n    {\n        MedicalRecord memory medicalRecord = medicalRecords[\n            _medicalRecordID\n        ];\n        medicalRecordID = medicalRecord.recordID;\n        donorAddress = medicalRecord.donor;\n        medicalStaff = medicalRecord.medicalStaff;\n        bloodPressure = medicalRecord.bloodPressure;\n        hemoglobinLevel = medicalRecord.hemoglobinLevel;\n        bloodTestResult = medicalRecord.bloodTestResults;\n    }\n\n    // ---------------- End Complete Donation  ------------------------\n\n    function initiateTransportation(\n        uint256 _transactionID,\n        address _recipient,\n        string memory _medicalCenter\n    ) public {\n        require(\n            donationTransactions[_transactionID].status ==\n                TransactionStatus.Completed,\n            \"Medical center process not completed\"\n        );\n\n        uint256 transactionID = block.timestamp;\n        donationTransactions[transactionID] = DonationTransaction({\n            transactionID: transactionID,\n            donor: donationTransactions[_transactionID].donor,\n            recipient: _recipient,\n            medicalStaff: msg.sender,\n            transporter: msg.sender,\n            bloodType: donationTransactions[_transactionID].bloodType,\n            donationDate: donationTransactions[_transactionID].donationDate,\n            status: donationTransactions[_transactionID].status,\n            medicalCenter: _medicalCenter,\n            donatedVolume: donors[donationTransactions[_transactionID].donor]\n                .donatedVolume,\n            bloodTestResult: donationTransactions[_transactionID].bloodTestResult\n        });\n    }\n\n    function completeTransportation(\n        uint256 _recordID,\n        uint256 _transactionID\n    ) public {\n        // onlyTransporter\n        require(\n            transportationRecords[_recordID].status ==\n                TransportationStatus.InTransit,\n            \"Transportation already completed or not initiated\"\n        );\n        transportationRecords[_recordID].deliveryDateTime = block.timestamp;\n        transportationRecords[_recordID].status = TransportationStatus\n            .Delivered;\n        donationTransactions[_transactionID].transporter = msg.sender;\n    }\n\n    // function calculatePayment(\n    //     uint256 _transactionID\n    // ) internal view returns (uint256) {\n    //     require(\n    //         donationTransactions[_transactionID].status ==\n    //             TransactionStatus.Completed,\n    //         \"Transaction not completed\"\n    //     );\n    //     // Assuming a fixed payment rate for simplicity\n    //     uint256 _donatedVolume = donationTransactions[_transactionID]\n    //         .donatedVolume;\n    //     uint256 paymentRate = 1 gwei; // 1gwei/ml\n    //     return _donatedVolume * paymentRate;\n    // }\n\n    // function addBloodSupply(string memory _bloodType, uint256 _volume) public {\n    //     // onlyMedicalStaff\n    //     require(_volume > 0, \"Volume must be greater than zero\");\n    //     require(\n    //         bloodSupplies[_bloodType].status != BloodSupplyStatus.Requested,\n    //         \"Blood type already requested\"\n    //     );\n\n    //     if (bloodSupplies[_bloodType].status == BloodSupplyStatus.Available) {\n    //         bloodSupplies[_bloodType].volume += _volume;\n    //     } else {\n    //         bloodSupplies[_bloodType] = BloodSupply({\n    //             bloodType: _bloodType,\n    //             volume: _volume,\n    //             status: BloodSupplyStatus.Available\n    //         });\n    //     }\n    // }\n\n    // function requestBloodType(\n    //     string memory _bloodType,\n    //     uint256 _volume\n    // ) public {\n    //     // onlyMedicalStaff\n    //     require(\n    //         bloodSupplies[_bloodType].status == BloodSupplyStatus.Available,\n    //         \"Blood type not available\"\n    //     );\n    //     require(\n    //         bloodSupplies[_bloodType].volume >= _volume,\n    //         \"Insufficient blood volume\"\n    //     );\n\n        // You can add more logic here to handle the request\n        // For example, update the blood supply status or create a new transaction record\n    // }\n\n    function compareString(string memory _a, string memory _b) internal pure returns(bool) {\n        return keccak256(abi.encodePacked(_a)) == keccak256(abi.encodePacked(_b));\n    }\n\n}\n",
  "sourcePath": "/home/temba/Desktop/blood-donation-blockchain-system/client-side/contracts/BloodDonationBlockchainSystem.sol",
  "compiler": {
    "name": "solc",
    "version": "0.8.19+commit.7dd6d404.Emscripten.clang"
  },
  "schemaVersion": "3.4.16",
  "updatedAt": "2024-02-28T15:03:52.878Z",
  "networkType": "ethereum",
  "devdoc": {
    "kind": "dev",
    "methods": {},
    "version": 1
  },
  "userdoc": {
    "kind": "user",
    "methods": {},
    "version": 1
  }
}