{
  "contractName": "BloodDonationBlockchainSystem",
  "abi": [
    {
      "inputs": [
        {
          "internalType": "address",
          "name": "_donorContractAddress",
          "type": "address"
        },
        {
          "internalType": "address",
          "name": "_medicalCenter",
          "type": "address"
        },
        {
          "internalType": "address",
          "name": "_transAddress",
          "type": "address"
        },
        {
          "internalType": "address",
          "name": "collectionPointAddress_",
          "type": "address"
        }
      ],
      "stateMutability": "nonpayable",
      "type": "constructor"
    },
    {
      "inputs": [
        {
          "internalType": "uint256",
          "name": "",
          "type": "uint256"
        }
      ],
      "name": "allDonationTransactions",
      "outputs": [
        {
          "internalType": "uint256",
          "name": "transactionID",
          "type": "uint256"
        },
        {
          "internalType": "address",
          "name": "donor",
          "type": "address"
        },
        {
          "internalType": "address",
          "name": "recipient",
          "type": "address"
        },
        {
          "internalType": "address",
          "name": "medicalStaff",
          "type": "address"
        },
        {
          "internalType": "address",
          "name": "requester",
          "type": "address"
        },
        {
          "internalType": "bool",
          "name": "isSupplied",
          "type": "bool"
        },
        {
          "internalType": "enum BloodDonationBlockchainSystem.BloodSupplyStatus",
          "name": "supplyStatus",
          "type": "uint8"
        },
        {
          "internalType": "string",
          "name": "medicalCenterName",
          "type": "string"
        },
        {
          "internalType": "address",
          "name": "transporter",
          "type": "address"
        },
        {
          "internalType": "string",
          "name": "bloodType",
          "type": "string"
        },
        {
          "internalType": "uint256",
          "name": "donationDate",
          "type": "uint256"
        },
        {
          "internalType": "enum BloodDonationBlockchainSystem.TransactionStatus",
          "name": "status",
          "type": "uint8"
        },
        {
          "internalType": "uint256",
          "name": "donatedVolume",
          "type": "uint256"
        },
        {
          "internalType": "string",
          "name": "bloodTestResult",
          "type": "string"
        }
      ],
      "stateMutability": "view",
      "type": "function",
      "constant": true
    },
    {
      "inputs": [
        {
          "internalType": "string",
          "name": "",
          "type": "string"
        }
      ],
      "name": "bloodSupplies",
      "outputs": [
        {
          "internalType": "string",
          "name": "bloodType",
          "type": "string"
        },
        {
          "internalType": "uint256",
          "name": "volume",
          "type": "uint256"
        },
        {
          "internalType": "enum BloodDonationBlockchainSystem.BloodSupplyStatus",
          "name": "status",
          "type": "uint8"
        }
      ],
      "stateMutability": "view",
      "type": "function",
      "constant": true
    },
    {
      "inputs": [],
      "name": "collectionPoint",
      "outputs": [
        {
          "internalType": "contract CollectionPointContract",
          "name": "",
          "type": "address"
        }
      ],
      "stateMutability": "view",
      "type": "function",
      "constant": true
    },
    {
      "inputs": [
        {
          "internalType": "address",
          "name": "",
          "type": "address"
        },
        {
          "internalType": "uint256",
          "name": "",
          "type": "uint256"
        }
      ],
      "name": "donationTransactions",
      "outputs": [
        {
          "internalType": "uint256",
          "name": "transactionID",
          "type": "uint256"
        },
        {
          "internalType": "address",
          "name": "donor",
          "type": "address"
        },
        {
          "internalType": "address",
          "name": "recipient",
          "type": "address"
        },
        {
          "internalType": "address",
          "name": "medicalStaff",
          "type": "address"
        },
        {
          "internalType": "address",
          "name": "requester",
          "type": "address"
        },
        {
          "internalType": "bool",
          "name": "isSupplied",
          "type": "bool"
        },
        {
          "internalType": "enum BloodDonationBlockchainSystem.BloodSupplyStatus",
          "name": "supplyStatus",
          "type": "uint8"
        },
        {
          "internalType": "string",
          "name": "medicalCenterName",
          "type": "string"
        },
        {
          "internalType": "address",
          "name": "transporter",
          "type": "address"
        },
        {
          "internalType": "string",
          "name": "bloodType",
          "type": "string"
        },
        {
          "internalType": "uint256",
          "name": "donationDate",
          "type": "uint256"
        },
        {
          "internalType": "enum BloodDonationBlockchainSystem.TransactionStatus",
          "name": "status",
          "type": "uint8"
        },
        {
          "internalType": "uint256",
          "name": "donatedVolume",
          "type": "uint256"
        },
        {
          "internalType": "string",
          "name": "bloodTestResult",
          "type": "string"
        }
      ],
      "stateMutability": "view",
      "type": "function",
      "constant": true
    },
    {
      "inputs": [
        {
          "internalType": "uint256",
          "name": "",
          "type": "uint256"
        }
      ],
      "name": "donationTransactionsArr",
      "outputs": [
        {
          "internalType": "uint256",
          "name": "",
          "type": "uint256"
        }
      ],
      "stateMutability": "view",
      "type": "function",
      "constant": true
    },
    {
      "inputs": [],
      "name": "donorContract",
      "outputs": [
        {
          "internalType": "contract DonorContract",
          "name": "",
          "type": "address"
        }
      ],
      "stateMutability": "view",
      "type": "function",
      "constant": true
    },
    {
      "inputs": [],
      "name": "medicalCenter",
      "outputs": [
        {
          "internalType": "contract MedicalCenters",
          "name": "",
          "type": "address"
        }
      ],
      "stateMutability": "view",
      "type": "function",
      "constant": true
    },
    {
      "inputs": [
        {
          "internalType": "address",
          "name": "",
          "type": "address"
        },
        {
          "internalType": "uint256",
          "name": "",
          "type": "uint256"
        }
      ],
      "name": "medicalRecords",
      "outputs": [
        {
          "internalType": "uint256",
          "name": "recordID",
          "type": "uint256"
        },
        {
          "internalType": "uint256",
          "name": "transactionID",
          "type": "uint256"
        },
        {
          "internalType": "address",
          "name": "donor",
          "type": "address"
        },
        {
          "internalType": "address",
          "name": "medicalStaff",
          "type": "address"
        },
        {
          "internalType": "string",
          "name": "HIV",
          "type": "string"
        },
        {
          "internalType": "string",
          "name": "liverFever",
          "type": "string"
        },
        {
          "internalType": "string",
          "name": "bloodType",
          "type": "string"
        },
        {
          "internalType": "uint256",
          "name": "bloodPressure",
          "type": "uint256"
        },
        {
          "internalType": "uint256",
          "name": "hemoglobinLevel",
          "type": "uint256"
        },
        {
          "internalType": "string",
          "name": "bloodTestResults",
          "type": "string"
        }
      ],
      "stateMutability": "view",
      "type": "function",
      "constant": true
    },
    {
      "inputs": [
        {
          "internalType": "uint256",
          "name": "",
          "type": "uint256"
        }
      ],
      "name": "medicalRecordsArr",
      "outputs": [
        {
          "internalType": "uint256",
          "name": "",
          "type": "uint256"
        }
      ],
      "stateMutability": "view",
      "type": "function",
      "constant": true
    },
    {
      "inputs": [
        {
          "internalType": "uint256",
          "name": "",
          "type": "uint256"
        }
      ],
      "name": "recipientArr",
      "outputs": [
        {
          "internalType": "uint256",
          "name": "",
          "type": "uint256"
        }
      ],
      "stateMutability": "view",
      "type": "function",
      "constant": true
    },
    {
      "inputs": [
        {
          "internalType": "address",
          "name": "",
          "type": "address"
        },
        {
          "internalType": "uint256",
          "name": "",
          "type": "uint256"
        }
      ],
      "name": "recipients",
      "outputs": [
        {
          "internalType": "uint256",
          "name": "recipientID",
          "type": "uint256"
        },
        {
          "internalType": "uint256",
          "name": "transactionID",
          "type": "uint256"
        },
        {
          "internalType": "address",
          "name": "recipientAddress",
          "type": "address"
        },
        {
          "internalType": "string",
          "name": "recipientName",
          "type": "string"
        },
        {
          "internalType": "string",
          "name": "recipientPhoneNumber",
          "type": "string"
        },
        {
          "internalType": "string",
          "name": "bloodType",
          "type": "string"
        }
      ],
      "stateMutability": "view",
      "type": "function",
      "constant": true
    },
    {
      "inputs": [],
      "name": "recordCounter",
      "outputs": [
        {
          "internalType": "uint256",
          "name": "",
          "type": "uint256"
        }
      ],
      "stateMutability": "view",
      "type": "function",
      "constant": true
    },
    {
      "inputs": [],
      "name": "transactionCounter",
      "outputs": [
        {
          "internalType": "uint256",
          "name": "",
          "type": "uint256"
        }
      ],
      "stateMutability": "view",
      "type": "function",
      "constant": true
    },
    {
      "inputs": [],
      "name": "transportContract",
      "outputs": [
        {
          "internalType": "contract TransportContract",
          "name": "",
          "type": "address"
        }
      ],
      "stateMutability": "view",
      "type": "function",
      "constant": true
    },
    {
      "inputs": [
        {
          "internalType": "uint256",
          "name": "",
          "type": "uint256"
        }
      ],
      "name": "transportationRecords",
      "outputs": [
        {
          "internalType": "uint256",
          "name": "recordID",
          "type": "uint256"
        },
        {
          "internalType": "address",
          "name": "transporter",
          "type": "address"
        },
        {
          "internalType": "address",
          "name": "donor",
          "type": "address"
        },
        {
          "internalType": "address",
          "name": "recipient",
          "type": "address"
        },
        {
          "internalType": "uint256",
          "name": "pickupDateTime",
          "type": "uint256"
        },
        {
          "internalType": "uint256",
          "name": "deliveryDateTime",
          "type": "uint256"
        },
        {
          "internalType": "enum BloodDonationBlockchainSystem.TransportationStatus",
          "name": "status",
          "type": "uint8"
        }
      ],
      "stateMutability": "view",
      "type": "function",
      "constant": true
    },
    {
      "inputs": [
        {
          "internalType": "address",
          "name": "_SYSPublicAddress",
          "type": "address"
        },
        {
          "internalType": "string",
          "name": "_password",
          "type": "string"
        }
      ],
      "name": "checkSystemOwnerLogin",
      "outputs": [
        {
          "internalType": "bool",
          "name": "",
          "type": "bool"
        }
      ],
      "stateMutability": "view",
      "type": "function",
      "constant": true
    },
    {
      "inputs": [
        {
          "internalType": "address",
          "name": "_MCPublicAddress",
          "type": "address"
        },
        {
          "internalType": "string",
          "name": "_password",
          "type": "string"
        }
      ],
      "name": "systemOwnerLogin",
      "outputs": [],
      "stateMutability": "nonpayable",
      "type": "function"
    },
    {
      "inputs": [
        {
          "internalType": "address",
          "name": "_medicalCenterPublicAddress",
          "type": "address"
        },
        {
          "internalType": "address",
          "name": "_donorPublicAddress",
          "type": "address"
        },
        {
          "internalType": "uint256",
          "name": "_volume",
          "type": "uint256"
        }
      ],
      "name": "donateBloodToMedicalCenter",
      "outputs": [],
      "stateMutability": "nonpayable",
      "type": "function"
    },
    {
      "inputs": [],
      "name": "getDonationTransactionArr",
      "outputs": [
        {
          "internalType": "uint256[]",
          "name": "",
          "type": "uint256[]"
        }
      ],
      "stateMutability": "view",
      "type": "function",
      "constant": true
    },
    {
      "inputs": [
        {
          "internalType": "address",
          "name": "_medicalCenterPublicAddress",
          "type": "address"
        },
        {
          "internalType": "uint256",
          "name": "_transactionID",
          "type": "uint256"
        }
      ],
      "name": "getDonationTransaction",
      "outputs": [
        {
          "internalType": "uint256",
          "name": "transactionID",
          "type": "uint256"
        },
        {
          "internalType": "address",
          "name": "donorPublicAddress",
          "type": "address"
        },
        {
          "internalType": "string",
          "name": "donorName",
          "type": "string"
        },
        {
          "internalType": "address",
          "name": "recipientPublicAddress",
          "type": "address"
        },
        {
          "internalType": "address",
          "name": "medicalStaff",
          "type": "address"
        },
        {
          "internalType": "string",
          "name": "requester",
          "type": "string"
        },
        {
          "internalType": "bool",
          "name": "isSupplied",
          "type": "bool"
        },
        {
          "internalType": "enum BloodDonationBlockchainSystem.BloodSupplyStatus",
          "name": "supplyStatus",
          "type": "uint8"
        },
        {
          "internalType": "string",
          "name": "medicalCenterName",
          "type": "string"
        },
        {
          "internalType": "address",
          "name": "transporterPublicAddress",
          "type": "address"
        },
        {
          "internalType": "string",
          "name": "bloodType",
          "type": "string"
        },
        {
          "internalType": "uint256",
          "name": "donationDate",
          "type": "uint256"
        },
        {
          "internalType": "enum BloodDonationBlockchainSystem.TransactionStatus",
          "name": "status",
          "type": "uint8"
        },
        {
          "internalType": "uint256",
          "name": "donatedVolume",
          "type": "uint256"
        },
        {
          "internalType": "string",
          "name": "bloodTestResult",
          "type": "string"
        }
      ],
      "stateMutability": "view",
      "type": "function",
      "constant": true
    },
    {
      "inputs": [
        {
          "internalType": "uint256",
          "name": "_transactionID",
          "type": "uint256"
        }
      ],
      "name": "getAllDonationTransaction",
      "outputs": [
        {
          "internalType": "uint256",
          "name": "transactionID",
          "type": "uint256"
        },
        {
          "internalType": "address",
          "name": "donorPublicAddress",
          "type": "address"
        },
        {
          "internalType": "string",
          "name": "donorName",
          "type": "string"
        },
        {
          "internalType": "address",
          "name": "recipientPublicAddress",
          "type": "address"
        },
        {
          "internalType": "address",
          "name": "medicalStaff",
          "type": "address"
        },
        {
          "internalType": "address",
          "name": "requester",
          "type": "address"
        },
        {
          "internalType": "bool",
          "name": "isSupplied",
          "type": "bool"
        },
        {
          "internalType": "enum BloodDonationBlockchainSystem.BloodSupplyStatus",
          "name": "supplyStatus",
          "type": "uint8"
        },
        {
          "internalType": "string",
          "name": "medicalCenterName",
          "type": "string"
        },
        {
          "internalType": "address",
          "name": "transporterPublicAddress",
          "type": "address"
        },
        {
          "internalType": "string",
          "name": "bloodType",
          "type": "string"
        },
        {
          "internalType": "uint256",
          "name": "donationDate",
          "type": "uint256"
        },
        {
          "internalType": "enum BloodDonationBlockchainSystem.TransactionStatus",
          "name": "status",
          "type": "uint8"
        },
        {
          "internalType": "uint256",
          "name": "donatedVolume",
          "type": "uint256"
        },
        {
          "internalType": "string",
          "name": "bloodTestResult",
          "type": "string"
        }
      ],
      "stateMutability": "view",
      "type": "function",
      "constant": true
    },
    {
      "inputs": [
        {
          "internalType": "uint256",
          "name": "_transactionID",
          "type": "uint256"
        },
        {
          "internalType": "string",
          "name": "_bloodType",
          "type": "string"
        },
        {
          "internalType": "string",
          "name": "_HIV",
          "type": "string"
        },
        {
          "internalType": "string",
          "name": "_liverFever",
          "type": "string"
        },
        {
          "internalType": "uint256",
          "name": "_bloodPressure",
          "type": "uint256"
        },
        {
          "internalType": "uint256",
          "name": "_hemoglobinLevel",
          "type": "uint256"
        },
        {
          "internalType": "string",
          "name": "_bloodTestResults",
          "type": "string"
        }
      ],
      "name": "completeDonationToMedicalCenter",
      "outputs": [],
      "stateMutability": "nonpayable",
      "type": "function"
    },
    {
      "inputs": [
        {
          "internalType": "uint256",
          "name": "_transactionID",
          "type": "uint256"
        },
        {
          "internalType": "address",
          "name": "_recipientAddress",
          "type": "address"
        },
        {
          "internalType": "string",
          "name": "_recipientName",
          "type": "string"
        },
        {
          "internalType": "string",
          "name": "_recipientPhoneNumber",
          "type": "string"
        },
        {
          "internalType": "string",
          "name": "_bloodType",
          "type": "string"
        }
      ],
      "name": "fullFillBloodToRecipient",
      "outputs": [],
      "stateMutability": "nonpayable",
      "type": "function"
    },
    {
      "inputs": [],
      "name": "getRecipientsArr",
      "outputs": [
        {
          "internalType": "uint256[]",
          "name": "",
          "type": "uint256[]"
        }
      ],
      "stateMutability": "view",
      "type": "function",
      "constant": true
    },
    {
      "inputs": [
        {
          "internalType": "address",
          "name": "_medicalCenterAddress",
          "type": "address"
        },
        {
          "internalType": "uint256",
          "name": "_recipientID",
          "type": "uint256"
        }
      ],
      "name": "getRecipient",
      "outputs": [
        {
          "internalType": "uint256",
          "name": "recipientID",
          "type": "uint256"
        },
        {
          "internalType": "uint256",
          "name": "transactionID",
          "type": "uint256"
        },
        {
          "internalType": "address",
          "name": "recipientAddress",
          "type": "address"
        },
        {
          "internalType": "string",
          "name": "recipientName",
          "type": "string"
        },
        {
          "internalType": "string",
          "name": "recipientPhoneNumber",
          "type": "string"
        },
        {
          "internalType": "string",
          "name": "bloodType",
          "type": "string"
        }
      ],
      "stateMutability": "view",
      "type": "function",
      "constant": true
    },
    {
      "inputs": [],
      "name": "getMedicalRecordsArr",
      "outputs": [
        {
          "internalType": "uint256[]",
          "name": "",
          "type": "uint256[]"
        }
      ],
      "stateMutability": "view",
      "type": "function",
      "constant": true
    },
    {
      "inputs": [
        {
          "internalType": "address",
          "name": "_medicalCenterAddress",
          "type": "address"
        },
        {
          "internalType": "uint256",
          "name": "_medicalRecordID",
          "type": "uint256"
        }
      ],
      "name": "getMedicalRecord",
      "outputs": [
        {
          "internalType": "uint256",
          "name": "medicalRecordID",
          "type": "uint256"
        },
        {
          "internalType": "uint256",
          "name": "transactionID",
          "type": "uint256"
        },
        {
          "internalType": "address",
          "name": "donorAddress",
          "type": "address"
        },
        {
          "internalType": "string",
          "name": "bloodType",
          "type": "string"
        },
        {
          "internalType": "address",
          "name": "medicalStaff",
          "type": "address"
        },
        {
          "internalType": "uint256",
          "name": "bloodPressure",
          "type": "uint256"
        },
        {
          "internalType": "uint256",
          "name": "hemoglobinLevel",
          "type": "uint256"
        },
        {
          "internalType": "string",
          "name": "bloodTestResult",
          "type": "string"
        }
      ],
      "stateMutability": "view",
      "type": "function",
      "constant": true
    },
    {
      "inputs": [
        {
          "internalType": "uint256",
          "name": "_transactionID",
          "type": "uint256"
        },
        {
          "internalType": "address",
          "name": "_medicalCenterPublicAddress",
          "type": "address"
        },
        {
          "internalType": "address",
          "name": "requester_",
          "type": "address"
        }
      ],
      "name": "requestBloodSupply",
      "outputs": [],
      "stateMutability": "nonpayable",
      "type": "function"
    },
    {
      "inputs": [
        {
          "internalType": "uint256",
          "name": "_transactionID",
          "type": "uint256"
        },
        {
          "internalType": "address",
          "name": "_medicalCenterPublicAddress",
          "type": "address"
        },
        {
          "internalType": "address",
          "name": "transporterAddress_",
          "type": "address"
        }
      ],
      "name": "approvalBloodSupplied",
      "outputs": [],
      "stateMutability": "nonpayable",
      "type": "function"
    },
    {
      "inputs": [
        {
          "internalType": "address",
          "name": "_medicalCenterPublicAddress",
          "type": "address"
        },
        {
          "internalType": "uint256",
          "name": "_transactionID",
          "type": "uint256"
        }
      ],
      "name": "supply",
      "outputs": [],
      "stateMutability": "nonpayable",
      "type": "function"
    }
  ],
  "bytecode": "0x60a03462000349576001604060020a0390601f6200459638819003918201601f1916830191848311848410176200031a5780849260809460405283398101031262000349576200004f816200034e565b6200005d602083016200034e565b906200007a606062000072604086016200034e565b94016200034e565b93336080526040519060608201828110828211176200031a5760405233825260405160408101818110838211176200031a57604052600581527f61646d696e000000000000000000000000000000000000000000000000000000602082015280602084015260006040840152600160a060020a03835116600160a060020a0319600d541617600d5580519182116200031a5762000119600e5462000363565b601f8111620002cb575b50602090601f8311600114620002545760409392916000918362000248575b5050816002029160080260020a60001904191617600e555b0151151560ff199060ff82600f5416911617600f55600160a060020a036080511660005260016020526040600020600d8103620001fd575b505060108054600160a060020a0319908116600160a060020a03938416179091556011805482169383169390931790925560128054831693821693909317909255601380549091169290911691909117905560405161408390816200051382396080518161164f0152f35b600d548154600160a060020a031916600160a060020a03919091161781556002906200022c60018201620003ba565b019060ff80600f54161515918354169116179055388062000192565b01519050388062000142565b90600e60005260206000209160005b601f1985168110620002b25750926001926002926040969583601f1981161062000296575b5050500201600e556200015a565b01516008601f841602840a600019041916905538808062000288565b9192602060018192868501518155019401920162000263565b600e60005260206000206020601f850104810191602085106200030f575b601f602091010401905b81811062000302575062000123565b60008155600101620002f3565b9091508190620002e9565b7f4e487b7100000000000000000000000000000000000000000000000000000000600052604160045260246000fd5b600080fd5b5190600160a060020a03821682036200034957565b9060016002830492168015620003af575b60208310146200038057565b7f4e487b7100000000000000000000000000000000000000000000000000000000600052602260045260246000fd5b91607f169162000374565b600e81146200050f57620003d0600e5462000363565b6001604060020a0381116200031a57620003eb825462000363565b601f8111620004c1575b50806000601f8211600114620004325760009162000425575b50816002029160080260020a600019041916179055565b9050600e0154386200040e565b838152602080822092507fbb7b4a454dc3493923482f07822329ed19e8244eff582cc204f8554c3620c3fd90601f1985169083905b828210620004a757505091600293918560019694106200048b575b50505002019055565b01546008601f841602840a600019041916905538808062000482565b849581929585015481556001809101960194019062000467565b6000838152602081206020601f8501048101926020851062000504575b601f602091010401915b828110620004f8575050620003f5565b818155600101620004e8565b9092508290620004de565b5056fe608080604052600436101561001357600080fd5b6000907c010000000000000000000000000000000000000000000000000000000082350490816308a9900814613568575080630c7a538f1461354457806311e1c24a1461351d57806314e887e8146134ff5780631920b9ae146131c657806322d95e0a1461319f57806337d981751461313557806339c3d6b7146130bf57806342d6976514612f5457806342d6ac6014612aba57806344d38d7014612a685780634a9cf248146129b55780636cd327e01461293f5780637599be5d146129215780637fe52fa3146125ec5780638a9efd0114611a4557806397678a031461194b5780639c1bc07b146118b1578063aa60ac4c146117f6578063bae4c740146117cf578063c02b9f5a1461172f578063cfc0970114611633578063d04398d6146115b1578063d1b21c2e1461106d578063d59be68d14611046578063e14ec6ec14610409578063ea8b90251461038b578063eea9c37b14610257578063f2b9fdb8146101df5763f56213671461018757600080fd5b346101dc5760203660031901126101dc57600435600a548110156101d857602090600a6000527fc65a7bb8d6351c1cf70c95a316cc6a92839c986682d98bc35f958f4883f9d2a80154604051908152f35b5080fd5b80fd5b50346101dc5760403660031901126101dc57600160a060020a036102016135b5565b16815260046020526040812060243582526020526004604082200160a060020a74ff0000000000000000000000000000000000000000199181838254161790556005602052600460408420019182541617905580f35b50346101dc5760403660031901126101dc576040600160a060020a03918261027d6135b5565b1681526002602052818120602435825260205220610387604051916102a183613617565b80548352600181015492602081019384528460028301541694604082019586528060038401541690606083019182526102dc600485016137a7565b60808401526102ed600585016137a7565b60a084015261036a610301600686016137a7565b9260c0850193845260078601549560e0860196875260088101549380610332600961010094858b01988952016137a7565b9788610120820152519a519b5116955192511696519351946040519a8b9a8b5260208b015260408a01528060608a0152880190613892565b93608087015260a086015260c085015283820360e0850152613892565b0390f35b50346101dc5760403660031901126101dc576040600160a060020a0391826103b16135b5565b1681526003602052818120602435825260205220610387815491600181015493600282015416906103e4600382016137a7565b6103fc60056103f5600485016137a7565b93016137a7565b926040519687968761399b565b50346101dc5760603660031901126101dc576104236135b5565b9061042c6135d0565b91600160a060020a036010541660405160e360020a6317c75205028152600160a060020a03851660048201528381602481855afa908115610fc05760019161014091869161102c575b500151151503610fe557602483600160a060020a03601154166040519283809260e060020a63244723b1028252600160a060020a03881660048301525afa908115610fc057602060249286928391610fcb575b500151926040519283809260e360020a6317c75205028252600160a060020a038a1660048301525afa908115610fc0579060a0918591610fa6575b50015160405191610513836135e6565b428352600160a060020a03861660208401528460408401523360608401528460808401528460a08401528460c084015260e0830152836101008301526101208201524261014082015282610160820152604435610180820152610574613d7d565b6101a0820152600160a060020a0382168352600460205260408320428452602052604083209080518255600160a060020a03602082015116600160a060020a031960018401541617600183015560028201600160a060020a03604083015116600160a060020a031982541617905560038201600160a060020a03606083015116600160a060020a031982541617905561064b60048301600160a060020a03608084015116600160a060020a031982541617815561063760a0840151151582613db6565b60c0830151906106468261384c565b613df7565b60e081015180519067ffffffffffffffff8211610f1457819061067e826106756005880154613769565b60058801613e41565b602090601f8311600114610f36578792610f2b575b5050816002029160080260020a6000190419161760058301555b60068201600160a060020a0361010083015116600160a060020a031982541617905561012081015180519067ffffffffffffffff8211610f1457610701826106f86007870154613769565b60078701613e41565b602090601f8311600114610ea0576101a0939291879183610e95575b5050816002029160080260020a6000190419161760078401555b610140810151600884015561075d6101608201516107548161384c565b60098501613e95565b610180810151600a840155015180519067ffffffffffffffff8211610d39576107968261078d600b860154613769565b600b8601613e41565b602090601f8311600114610e2557600b9291869183610e1a575b5050816002029160080260020a600019041916179101555b81600160a060020a036024816011541693604051948593849260e060020a63244723b10284521660048301525afa908115610c1957906020918391610df8575b50015191602482600160a060020a03601054166040519283809260e360020a6317c75205028252600160a060020a03871660048301525afa908115610ded579060a0918491610dcb575b50015160405193610862856135e6565b428552600160a060020a03831660208601528360408601523360608601528360808601528360a08601528360c086015260e08501528261010085015261012084015242610140840152816101608401526044356101808401526108c3613d7d565b6101a0840152428252600560205260408220928051845560018401600160a060020a03602083015116600160a060020a031982541617905560028401600160a060020a03604083015116600160a060020a031982541617905560038401600160a060020a03606083015116600160a060020a031982541617905561097160048501600160a060020a03608084015116600160a060020a031982541617815561063760a0840151151582613db6565b60e081015180519067ffffffffffffffff8211610d395781906109a48261099b60058a0154613769565b60058a01613e41565b602090601f8311600114610d5b578692610d50575b5050816002029160080260020a6000190419161760058501555b60068401600160a060020a0361010083015116600160a060020a031982541617905561012081015180519067ffffffffffffffff8211610d3957610a2782610a1e6007890154613769565b60078901613e41565b602090601f8311600114610cc5576101a0939291869183610cba575b5050816002029160080260020a6000190419161760078601555b6101408101516008860155610a83610160820151610a7a8161384c565b60098701613e95565b610180810151600a860155015192835167ffffffffffffffff8111610ca357610abc81610ab3600b850154613769565b600b8501613e41565b6020601f8211600114610c33579080600b9286978792610c28575b5050816002029160080260020a600019041916179101555b600160a060020a0360105416803b15610c24576040517f02c7739b000000000000000000000000000000000000000000000000000000008152600160a060020a039290921660048301526044803560248401528391839190829084905af18015610c1957610c05575b505060085468010000000000000000811015610bec576001810180600855811015610bd357600860005242907ff3f7a9fe364faab93b216da50a3214154f22a0a2b415b23a84c8169e8b636ee30155600b546000198114610bbc57600101600b5580f35b60248260e060020a634e487b710281526011600452fd5b60e060020a634e487b7102600052603260045260246000fd5b60e060020a634e487b7102600052604160045260246000fd5b610c0e90613603565b6101dc578038610b58565b6040513d84823e3d90fd5b5050fd5b015190503880610ad7565b600b830185526020852095855b601f1984168110610c8b5750828697600193600293600b96601f19811610610c70575b5050500201910155610aef565b01516008601f841602840a6000190419169055388080610c63565b82820151885560019097019660209283019201610c40565b60248460e060020a634e487b710281526041600452fd5b015190503880610a43565b906007870186526020862091865b601f1985168110610d215750926001926002926101a0969583601f19811610610d06575b50505002016007860155610a5d565b01516008601f841602840a6000190419169055388080610cf7565b91926020600181928685015181550194019201610cd3565b60248560e060020a634e487b710281526041600452fd5b0151905038806109b9565b600588018752602087209250865b601f1985168110610db35750918391600293600195601f19811610610d98575b505050020160058501556109d3565b01516008601f841602840a6000190419169055388080610d89565b91926020600181928685015181550194019201610d69565b610de791503d8086833e610ddf818361366c565b810190613b21565b38610852565b6040513d85823e3d90fd5b610e1491503d8085833e610e0c818361366c565b810190613cc1565b38610808565b0151905038806107b0565b90600b840186526020862091865b601f1985168110610e7d575092600192600292600b9583601f19811610610e62575b50505002019101556107c8565b01516008601f841602840a6000190419169055388080610e55565b91926020600181928685015181550194019201610e33565b01519050388061071d565b906007850187526020872091875b601f1985168110610efc5750926001926002926101a0969583601f19811610610ee1575b50505002016007840155610737565b01516008601f841602840a6000190419169055388080610ed2565b91926020600181928685015181550194019201610eae565b60248660e060020a634e487b710281526041600452fd5b015190503880610693565b600586018852602088209250875b601f1985168110610f8e5750918391600293600195601f19811610610f73575b505050020160058301556106ad565b01516008601f841602840a6000190419169055388080610f64565b91926020600181928685015181550194019201610f44565b610fba91503d8087833e610ddf818361366c565b38610503565b6040513d86823e3d90fd5b610fdf91503d8085833e610e0c818361366c565b386104c8565b606460405160e560020a62461bcd02815260206004820152601b60248201527f506c6561736520726567697374657220646f6e6f7220666972737400000000006044820152fd5b61104091503d8088833e610ddf818361366c565b38610475565b50346101dc57806003193601126101dc576020600160a060020a0360115416604051908152f35b50346101dc5760a03660031901126101dc5760043561108a6135d0565b9060443567ffffffffffffffff81116115ad576110ab9036906004016136aa565b60643567ffffffffffffffff81116115a9576110cb9036906004016136aa565b9260843567ffffffffffffffff81116115a5576110ec9036906004016136aa565b90600160a060020a0360248782601154166040519283809260e060020a63244723b10282523360048301525afa801561159a57611135918991611580575b505182163314613ead565b338752600460205260408720858852602052611166600160ff600960408b200154166111608161384c565b14613f21565b3387526004602052604087208588526020526111ce6111c961118d600b60408b20016137a7565b6040519061119a82613650565b600882527f41434345505445440000000000000000000000000000000000000000000000006020830152613a69565b613f21565b3387526004602052604087208588526020528060026040892001921692600160a060020a03199284848254161790553388526004602052604088208689526020526009604089200160ff199060028282541617905586895260056020526002600960408b20828101888882541617905501918254161790556040519661125388613634565b428852602088019687526040880194855260608801958652608088015260a087015233875260036020526040872042885260205260408720948651865551600186015560028501925116908254161790555180519067ffffffffffffffff8211610d395781906112d3826112ca6003870154613769565b60038701613e41565b602090601f8311600114611510578692611505575b5050816002029160080260020a6000190419161760038201555b608082015180519067ffffffffffffffff8211610d39576113338261132a6004860154613769565b60048601613e41565b602090601f831160011461149057918060a094926005948892611485575b5050816002029160080260020a6000190419161760048201555b0191015180519067ffffffffffffffff8211610ca3578190611397826113918654613769565b86613e41565b602090601f831160011461141e578592611413575b5050816002029160080260020a6000190419161790555b600a5468010000000000000000811015610bec576001810180600a55811015610bd357600a60005242907fc65a7bb8d6351c1cf70c95a316cc6a92839c986682d98bc35f958f4883f9d2a8015580f35b0151905038806113ac565b848652602086209250601f198416865b81811061146d57509160029391856001969410611452575b505050020190556113c3565b01516008601f841602840a6000190419169055388080611446565b9293602060018192878601518155019501930161142e565b015190503880611351565b906004840186526020862091865b601f19851681106114ed57508360a09593600193600293600597601f198116106114d2575b5050500201600482015561136b565b01516008601f841602840a60001904191690553880806114c3565b9192602060018192868501518155019401920161149e565b0151905038806112e8565b600385018752602087209250865b601f19851681106115685750918391600293600195601f1981161061154d575b50505002016003820155611302565b01516008601f841602840a600019041916905538808061153e565b9192602060018192868501518155019401920161151e565b61159491503d808b833e610e0c818361366c565b3861112a565b6040513d8a823e3d90fd5b8580fd5b8480fd5b8380fd5b50346101dc57806003193601126101dc57604051600880548083529083526020808301937ff3f7a9fe364faab93b216da50a3214154f22a0a2b415b23a84c8169e8b636ee392915b82821061161c57610387856116108189038261366c565b60405191829182613960565b8354865294850194600193840193909101906115f9565b50346101dc57611642366136f1565b90600160a060020a0391827f00000000000000000000000000000000000000000000000000000000000000001633036116e85761167f90826139ed565b156116a157168152600160205260026040822001600160ff1982541617905580f35b606460405160e560020a62461bcd02815260206004820152601960248201527f496e76616c6964206c6f67696e2063726564656e7469616c73000000000000006044820152fd5b606460405160e560020a62461bcd02815260206004820152601f60248201527f5265737472696374656420746f2073797374656d206f776e6572206f6e6c79006044820152fd5b50346101dc5760203660031901126101dc576004358152600660205260408120805490600160a060020a03908160018201541691806002830154169060038301541660048301549160ff600660058601549501541694604051968752602087015260408601526060850152608084015260a083015260028110156117b85760e0925060c0820152f35b60248360e060020a634e487b710281526021600452fd5b50346101dc57806003193601126101dc576020600160a060020a0360135416604051908152f35b50346101dc5760403660031901126101dc576040600160a060020a03918261181c6135b5565b16815260036020528181206024358252602052209061038760405161184081613634565b835481526001840154926020820193845280600286015416946040830195865261186c600382016137a7565b91606084019283526118936005611885600485016137a7565b9360808701948552016137a7565b938460a082015251955196511691519051916040519687968761399b565b50346101dc5760203660031901126101dc576004359067ffffffffffffffff82116101dc576119336118fe60206118eb36600487016136aa565b816040519382858094519384920161386f565b81016007815203019020611911816137a7565b9060ff6002600183015492015416604051938493606085526060850190613892565b9160208401526119428161384c565b60408301520390f35b50346101dc5760403660031901126101dc576020906103876040600160a060020a0392836119776135b5565b16815260028552818120602435825285522091825492600181015490611a2b8360028301541693600383015416611a1d6119b3600485016137a7565b611a0f6119c2600587016137a7565b916119cf600688016137a7565b946007880154996119e7600960088b01549a016137a7565b996040519e8f9e8f908152015260408d015260608c01526101408060808d01528b0190613892565b9089820360a08b0152613892565b9087820360c0890152613892565b9260e0860152610100850152838203610120850152613892565b50346101dc5760e03660031901126101dc5760243567ffffffffffffffff81116101d857611a779036906004016136aa565b60443567ffffffffffffffff811161238057611a979036906004016136aa565b9060643567ffffffffffffffff81116115ad57611ab89036906004016136aa565b9060c43567ffffffffffffffff81116115a957611ad99036906004016136aa565b91602485600160a060020a03601154166040519283809260e060020a63244723b10282523360048301525afa80156125e157611b289187916125c7575b5051600160a060020a03163314613ead565b3385526004602052604085206004358652602052611b5960ff600960408820015416611b538161384c565b15613f21565b3385526004602052604085206004358652602052600160a060020a03600160408720015416156125805733855260046020526040852060043586526020526003604086200133600160a060020a0319825416179055338552600460205260408520600435865260205260076040862001825167ffffffffffffffff811161240b57611bee81611be88454613769565b84613e41565b806020601f821160011461251857889161250d575b50816002029160080260020a6000190419161790555b338552600460205260408520600435865260205260096040862001600160ff198254161790553385526004602052604085206004358652602052600b6040862001835167ffffffffffffffff811161240b57611c7981611be88454613769565b806020601f82116001146124a557889161249a575b50816002029160080260020a6000190419161790555b600435855260056020526040852060038101805473ffffffffffffffffffffffffffffffffffffffff191633179055825167ffffffffffffffff811161240b57611cfe81611cf56007850154613769565b60078501613e41565b6020601f821160011461242d5790806007928991612422575b50816002029160080260020a600019041916179101555b6004358552600560205260096040862001600160ff1982541617905560043585526005602052600b6040862001835167ffffffffffffffff811161240b57611d7a81611be88454613769565b806020601f82116001146123a3578891612398575b50816002029160080260020a6000190419161790555b84600160a060020a03601054163382526004602052604082206004358352602052600160a060020a03600160408420015416813b156123805782906040519283917f65837dca000000000000000000000000000000000000000000000000000000008352600483015260406024830152818381611e25604482018b613892565b03925af18015610c1957612384575b50600160a060020a03601054163382526004602052604082206004358352602052600160a060020a0360016040842001541690803b15612380576040517f6d0a1c38000000000000000000000000000000000000000000000000000000008152600160a060020a039290921660048084019190915235602483015282908290604490829084905af18015610c195761236c575b50503385526004602052604085206004358652602052600160a060020a036001604087200154169360405194611efc86613617565b42865260043560208701526040860152336060860152608085015260a084015260c083015260843560e083015260a43561010083015261012082015233825260026020526040822042835260205260408220815181556020820151600182015560028101600160a060020a03604084015116600160a060020a031982541617905560038101600160a060020a03606084015116600160a060020a0319825416179055608082015180519067ffffffffffffffff8211610d39578190611fd182611fc86004870154613769565b60048701613e41565b602090601f83116001146122fc5786926122f1575b5050816002029160080260020a6000190419161760048201555b60a082015180519067ffffffffffffffff8211610d395781906120338261202a6005870154613769565b60058701613e41565b602090601f8311600114612281578692612276575b5050816002029160080260020a6000190419161760058201555b60c082015180519067ffffffffffffffff8211610d39576120938261208a6006860154613769565b60068601613e41565b602090601f8311600114612200579180610120949260099488926121f5575b5050816002029160080260020a6000190419161760068201555b60e0840151600782015561010084015160088201550191015180519067ffffffffffffffff8211610ca3578190612107826113918654613769565b602090601f831160011461218e578592612183575b5050816002029160080260020a6000190419161790555b60095468010000000000000000811015610bec576001810180600955811015610bd357600960005242907f6e1540171b6c0c960b71a7020d9f60077f6af931a8bbf590da0223dacf75c7af015580f35b01519050388061211c565b848652602086209250601f198416865b8181106121dd575091600293918560019694106121c2575b50505002019055612133565b01516008601f841602840a60001904191690553880806121b6565b9293602060018192878601518155019501930161219e565b0151905038806120b2565b906006840186526020862091865b601f198516811061225e5750836101209593600193600293600997601f19811610612243575b505050020160068201556120cc565b01516008601f841602840a6000190419169055388080612234565b9192602060018192868501518155019401920161220e565b015190503880612048565b600585018752602087209250865b601f19851681106122d95750918391600293600195601f198116106122be575b50505002016005820155612062565b01516008601f841602840a60001904191690553880806122af565b9192602060018192868501518155019401920161228f565b015190503880611fe6565b600485018752602087209250865b601f19851681106123545750918391600293600195601f19811610612339575b50505002016004820155612000565b01516008601f841602840a600019041916905538808061232a565b9192602060018192868501518155019401920161230a565b61237590613603565b6115a9578438611ec7565b8280fd5b61238d90613603565b6115a9578438611e34565b905085015138611d8f565b838952602089209150885b601f19841681106123f357509160029160019382601f198116106123d8575b505002019055611da5565b8801516008601f841602840a600019041916905538806123cd565b9091602060018192858b0151815501930191016123ae565b60248760e060020a634e487b710281526041600452fd5b905085015138611d17565b6007830188526020882090885b601f1984168110612482575082600192600292600795601f19811610612467575b50500201910155611d2e565b8801516008601f841602840a6000190419169055388061245b565b9091602060018192858a01518155019301910161243a565b905085015138611c8e565b838952602089209150885b601f19841681106124f557509160029160019382601f198116106124da575b505002019055611ca4565b8801516008601f841602840a600019041916905538806124cf565b9091602060018192858b0151815501930191016124b0565b905084015138611c03565b838952602089209150885b601f198416811061256857509160029160019382601f1981161061254d575b505002019055611c19565b8701516008601f841602840a60001904191690553880612542565b9091602060018192858a015181550193019101612523565b606460405160e560020a62461bcd02815260206004820152601560248201527f496e76616c696420646f6e6f72206164647265737300000000000000000000006044820152fd5b6125db91503d8089833e610e0c818361366c565b38611b16565b6040513d88823e3d90fd5b50346101dc5760403660031901126101dc57600160a060020a0361260e6135b5565b1681526004602052604081206024358252602052604081209061271b600b60405193612639856135e6565b80548552600160a060020a036001820154166020860152600160a060020a036002820154166040860152600160a060020a03600382015416606086015260ff60a860020a6004830154600160a060020a03811660808901528260a060020a820416151560a089015204166126ac8161384c565b60c08601526126bd600582016137a7565b60e0860152600160a060020a036006820154166101008601526126e2600782016137a7565b610120860152600881015461014086015260ff6009820154166127048161384c565b610160860152600a810154610180860152016137a7565b6101a0830152815190600160a060020a0360208401511691602482600160a060020a03601054166040519283809260e360020a6317c752050282528860048301525afa908115610ded57906020918491612907575b50015193600160a060020a0360408201511692600160a060020a0360608301511690600160a060020a036011541681600160a060020a0360808601511660246040518094819360e060020a63244723b102835260048301525afa9182156128fb5790816020936128e0575b5050015160a0830151151560c08401516127f48161384c565b610100850151600160a060020a03169160e0860151916101208701519461014088015198610160890151976128288961384c565b6101808a0151996101a001519b6040519e8f9e8f94855260208501526101e0806040860152840161285891613892565b926060015260808d01528b810360a08d015261287391613892565b9160c08b01526128828161384c565b60e08a01528881036101008a015261289991613892565b906101208801528681036101408801526128b291613892565b926101608601526128c28161384c565b6101808501526101a08401528281036101c084015261038791613892565b6128f492503d8091833e610e0c818361366c565b38806127db565b604051903d90823e3d90fd5b61291b91503d8086833e610ddf818361366c565b38612770565b50346101dc57806003193601126101dc576020600c54604051908152f35b50346101dc57806003193601126101dc57604051600980548083529083526020808301937f6e1540171b6c0c960b71a7020d9f60077f6af931a8bbf590da0223dacf75c7af92915b82821061299e57610387856116108189038261366c565b835486529485019460019384019390910190612987565b50346101dc5760203660031901126101dc576040906004358152600560205220805490610387600160a060020a03806001840154169281600282015416948260038301541692600483015490612a0d600585016137a7565b8160068601541690612a21600787016137a7565b9260088701549460ff60098901541696612a42600b600a8b01549a016137a7565b996040519d8e9d8e9360ff60a860020a8704169660ff60a060020a8804169616946138b7565b50346101dc5760203660031901126101dc576004356008548110156101d85760209060086000527ff3f7a9fe364faab93b216da50a3214154f22a0a2b415b23a84c8169e8b636ee30154604051908152f35b50346101dc57612ac936613734565b91602484600160a060020a03601154166040519283809260e060020a63244723b10282523360048301525afa8015612f4957612b17918691612f35575051600160a060020a03163314613ead565b600160a060020a0382168452600460205260408420818552602052604084206005602052600160ff60a860020a60046040892001540416612b578161384c565b03612ec857600160a060020a0385938186168219600685015416176006840155750200000000000000000000000000000000000000000075ff0000000000000000000000000000000000000000001960048501541617600484015516835260046020526040832082845260205260408320818103612d93575b50818352600560205260408320818103612c5e575b5050600160a060020a0360125416803b15612380576040517ff971584f000000000000000000000000000000000000000000000000000000008152600160a060020a0394909416600485015260248401919091528290604490829084905af18015610c1957612c52575080f35b612c5b90613603565b80f35b600b8083612d8c9454845560018401600160a060020a03600183015416600160a060020a031982541617905560028401600160a060020a03600283015416600160a060020a031982541617905560038401600160a060020a03600383015416600160a060020a0319825416179055612d1b60048501600160a060020a03600484015416600160a060020a0319825416178155612d0760ff60a060020a6004860154041682613db6565b60ff60a860020a6004850154041690613df7565b612d2b6005820160058601613f6f565b60068401600160a060020a03600683015416600160a060020a0319825416179055612d5c6007820160078601613f6f565b60088101546008850155612d7a60ff60098301541660098601613e95565b600a810154600a850155019101613f6f565b3880612be5565b612ec2908254815560018101600160a060020a03600185015416600160a060020a031982541617905560028101600160a060020a03600285015416600160a060020a031982541617905560038101600160a060020a03600385015416600160a060020a0319825416179055612e4d60048201600160a060020a03600486015416600160a060020a0319825416178155612e3960ff60a060020a6004880154041682613db6565b60ff60a860020a6004870154041690613df7565b612e5d6005840160058301613f6f565b60068101600160a060020a03600685015416600160a060020a0319825416179055612e8e6007840160078301613f6f565b60088301546008820155612eac60ff60098501541660098301613e95565b600a830154600a820155600b8084019101613f6f565b38612bd0565b608460405160e560020a62461bcd02815260206004820152602a60248201527f54686973207472616e73616374696f6e2073686f756c6420626520726571756560448201527f73746564206669727374000000000000000000000000000000000000000000006064820152fd5b6125db91503d8088833e610e0c818361366c565b6040513d87823e3d90fd5b50346101dc5760203660031901126101dc57600435815260056020526040812090612f87600b60405193612639856135e6565b6101a0830152815191600160a060020a0360208201511691602481600160a060020a03601054166040519283809260e360020a6317c752050282528860048301525afa9182156128fb5790816020936130a4575b50500151926040820151600160a060020a0316916060810151600160a060020a03166080820151600160a060020a03169260a083015115159060c0840151906130238261384c565b60e085015190610100860151600160a060020a0316926101208701519461014088015198610160890151976130578961384c565b6101808a0151996101a001519b6040519e8f9e8f97885260208801526101e0806040890152870161308791613892565b956060015260808d015260a08c015260c08b01526128828161384c565b6130b892503d8091833e610ddf818361366c565b3880612fdb565b50346101dc57806003193601126101dc57604051600a80548083529083526020808301937fc65a7bb8d6351c1cf70c95a316cc6a92839c986682d98bc35f958f4883f9d2a892915b82821061311e57610387856116108189038261366c565b835486529485019460019384019390910190613107565b50346101dc5760403660031901126101dc576040600160a060020a03918261315b6135b5565b1681526004602052818120602435825260205220610387815492806001840154169281600282015416948260038301541692600483015490612a0d600585016137a7565b50346101dc57806003193601126101dc576020600160a060020a0360125416604051908152f35b50346101dc576131d536613734565b6024600160a060020a0393928585601154166040519384809260e060020a63244723b10282523360048301525afa9182156125e15785926132229188916134e5575b505183163314613ead565b1690818552602060048152604086208487528152604086209060059081815260ff9560a860020a958787600460408d200154041661325f8161384c565b6134785790839291878a60048801981675ff00ffffffffffffffffffffffffffffffffffffffff19895416171787558a526004825260408a20818b52825260408a20858103613394575b5089525260408720948286036132bd578780f35b613389968361334e612d7a94613343600b9998868b9a60048e885481558960018083019a01541698600160a060020a0319998a8254161790558c8a6002808401920154168a8254161790558c8a6003808401920154168a8254161790550192888154168885541617845561333a8360a060020a8354041685613db6565b54041690613df7565b808701908a01613f6f565b6006880191600686015416908254161790556133706007840160078801613f6f565b6008830154600887015560098301541660098601613e95565b388080808080808780f35b6134729086548155600181018b60018901541690600160a060020a03199182825416179055600282018c60028a01541682825416179055600382018c60038a0154168282541617905561340e600483018d8b5416838254161781556134028d60a060020a8d54041682613db6565b8c8c8c54041690613df7565b61341c868901878401613f6f565b60068201908c60068a0154169082541617905561343f6007880160078301613f6f565b6008870154600882015561345c8a60098901541660098301613e95565b600a870154600a820155600b8088019101613f6f565b386132a9565b6084836040519060e560020a62461bcd0282526004820152602160248201527f54686973207472616e73616374696f6e206973206e6f7420417661696c61626c60448201527f65000000000000000000000000000000000000000000000000000000000000006064820152fd5b6134f991503d808a833e610e0c818361366c565b38613217565b50346101dc57806003193601126101dc576020600b54604051908152f35b50346101dc57806003193601126101dc576020600160a060020a0360105416604051908152f35b50346101dc57602061355e613558366136f1565b906139ed565b6040519015158152f35b9050346101d85760203660031901126101d857600435600954811015612380576009602093527f6e1540171b6c0c960b71a7020d9f60077f6af931a8bbf590da0223dacf75c7af01548152f35b60043590600160a060020a03821682036135cb57565b600080fd5b60243590600160a060020a03821682036135cb57565b6101c0810190811067ffffffffffffffff821117610bec57604052565b67ffffffffffffffff8111610bec57604052565b610140810190811067ffffffffffffffff821117610bec57604052565b60c0810190811067ffffffffffffffff821117610bec57604052565b6040810190811067ffffffffffffffff821117610bec57604052565b90601f8019910116810190811067ffffffffffffffff821117610bec57604052565b67ffffffffffffffff8111610bec57601f01601f191660200190565b81601f820112156135cb578035906136c18261368e565b926136cf604051948561366c565b828452602083830101116135cb57816000926020809301838601378301015290565b9060406003198301126135cb57600435600160a060020a03811681036135cb57916024359067ffffffffffffffff82116135cb57613731916004016136aa565b90565b60609060031901126135cb5760043590600160a060020a039060243582811681036135cb579160443590811681036135cb5790565b906001600283049216801561379d575b602083101461378457565b60e060020a634e487b7102600052602260045260246000fd5b91607f1691613779565b90604051918260008254926137bb84613769565b90818452600194858116908160001461382a57506001146137e7575b50506137e59250038361366c565b565b9093915060005260209081600020936000915b8183106138125750506137e5935082010138806137d7565b855488840185015294850194879450918301916137fa565b9150506137e594506020925060ff1916828401521515810282010138806137d7565b6003111561385657565b60e060020a634e487b7102600052602160045260246000fd5b60005b8381106138825750506000910152565b8181015183820152602001613872565b906020916138ab8151809281855285808601910161386f565b601f01601f1916010190565b9a9c9995909261392094956137319f9d9a989360608e916139369c978352600160a060020a03998a8096818094166020870152166040850152169101521660808c0152151560a08b015261390a8161384c565b60c08a01526101c08060e08b0152890190613892565b9216610100870152858203610120870152613892565b946101408401526139468161384c565b6101608301526101808201526101a0818403910152613892565b6020908160408183019282815285518094520193019160005b828110613987575050505090565b835185529381019392810192600101613979565b949193600160a060020a036139df9461373198966139d1948952602089015216604087015260c0606087015260c0860190613892565b908482036080860152613892565b9160a0818403910152613892565b90600160a060020a03613a1892166000526001602052613a1360016040600020016137a7565b613a69565b15613a2257600190565b606460405160e560020a62461bcd02815260206004820152601b60248201527f496e76616c69642061646472657373206f722070617373776f726400000000006044820152fd5b9060405191602092613a97848281613a8a818301968781519384920161386f565b810103808452018261366c565b51902091613ab7604051918281613a8a818301968781519384920161386f565b5190201490565b5190600160a060020a03821682036135cb57565b81601f820112156135cb578051613ae88161368e565b92613af6604051948561366c565b818452602082840101116135cb57613731916020808501910161386f565b519081151582036135cb57565b602080828403126135cb57815167ffffffffffffffff928382116135cb5701906101c0828503126135cb5760405193613b59856135e6565b613b6283613abe565b8552818301518481116135cb5781613b7b918501613ad2565b82860152604083015160408601526060830151606086015260808301518481116135cb5781613bab918501613ad2565b608086015260a08301518481116135cb5781613bc8918501613ad2565b60a086015260c08301518481116135cb5781613be5918501613ad2565b60c086015260e08301518481116135cb5781613c02918501613ad2565b60e086015261010080840151908601526101208084015190860152610140613c2b818501613b14565b90860152610160613c3d818501613b14565b90860152610180613c4f818501613b14565b908601526101a09283810151908582116135cb570181601f820112156135cb578051948511610bec578285029060405195613c8c8584018861366c565b865283808701928201019283116135cb578301905b828210613cb2575050505082015290565b81518152908301908301613ca1565b6020818303126135cb57805167ffffffffffffffff918282116135cb57019160c0838203126135cb5760405192613cf784613634565b613d0081613abe565b845260208101518381116135cb5782613d1a918301613ad2565b602085015260408101518381116135cb5782613d37918301613ad2565b604085015260608101519283116135cb57613d5960a092613d75948301613ad2565b6060850152613d6a60808201613b14565b608085015201613b14565b60a082015290565b60405190613d8a82613650565b600982527f4e6f20526573756c7400000000000000000000000000000000000000000000006020830152565b9074ff000000000000000000000000000000000000000060a060020a835492151502169074ff00000000000000000000000000000000000000001916179055565b90613e018161384c565b75ff00000000000000000000000000000000000000000060a860020a83549202169075ff0000000000000000000000000000000000000000001916179055565b90601f8111613e4f57505050565b60009182526020822090602080601f86010483019410613e8b575b601f602091010401915b828110613e8057505050565b818155600101613e74565b9092508290613e6a565b90613e9f8161384c565b60ff80198354169116179055565b15613eb457565b608460405160e560020a62461bcd02815260206004820152602a60248201527f4f6e6c79206d65646963616c2073746166662063616e20706572666f726d207460448201527f68697320616374696f6e000000000000000000000000000000000000000000006064820152fd5b15613f2857565b606460405160e560020a62461bcd02815260206004820152601a60248201527f496e76616c6964207472616e73616374696f6e207374617475730000000000006044820152fd5b9080821461404957613f818154613769565b9067ffffffffffffffff8211610bec578190613fa1826113918654613769565b600090601f8311600114613fda57600092613fcf575b5050816002029160080260020a600019041916179055565b015490503880613fb7565b81526020808220858352818320935090601f1985169083905b8282106140305750509160029391856001969410614015575b50505002019055565b01546008601f841602840a600019041916905538808061400c565b8495819295850154815560018091019601940190613ff3565b505056fea264697066735822122077b7c3d55188f5d1f7bdf85fa1afdee46ec29bb3f7f66baf16f76647a681278a64736f6c63430008130033",
  "immutableReferences": {
    "3": [
      {
        "length": 32,
        "start": 5711
      }
    ]
  },
  "source": "// SPDX-License-Identifier: MIT\npragma solidity ^0.8.19;\nimport \"./DonorContract.sol\";\nimport \"./MedicalCenters.sol\";\nimport \"./TransportContract.sol\";\nimport \"./AccessControl.sol\";\nimport \"./CollectionPointContract.sol\";\n\n/**\n    @title Blood Donation Blockchain-based System\n    @author Josephat E. Temba\n    @notice You can use this smart contract in real blood donation operations\n    @dev This is best aproach for developers to learn how real dapp looking for\n    @custom:fyp This is the final year project for cive students\n */\n\ncontract BloodDonationBlockchainSystem is AccessControl {\n    enum TransactionStatus { Shipped, Active, Fullfilled }\n    enum TransportationStatus { InTransit, Delivered }\n    enum BloodSupplyStatus { Available, Requested, Approved }\n\n    /// @dev create system account structure\n    struct SystemOwner {\n        address sysOwner;\n        string password /*audit*/;\n        bool isLogin;\n    }\n\n    struct DonationTransaction {\n        uint256 transactionID;\n        address donor;\n        address recipient;\n        address medicalStaff;\n        address requester;\n        bool isSupplied;\n        BloodSupplyStatus supplyStatus;\n        string medicalCenterName;\n        address transporter;\n        string bloodType;\n        uint256 donationDate;\n        TransactionStatus status;\n        uint256 donatedVolume;\n        string bloodTestResult;\n    }\n\n    struct MedicalRecord {\n        uint256 recordID;\n        uint256 transactionID;\n        address donor;\n        address medicalStaff;\n        string HIV;\n        string liverFever;\n        string bloodType;\n        uint256 bloodPressure;\n        uint256 hemoglobinLevel;\n        string bloodTestResults;\n    }\n\n    struct Recipient {\n        uint256 recipientID;\n        uint256 transactionID;\n        address recipientAddress;\n        string recipientName;\n        string recipientPhoneNumber;\n        string bloodType;\n    }\n\n    struct TransportationRecord {\n        uint256 recordID;\n        address transporter;\n        address donor;\n        address recipient;\n        uint256 pickupDateTime;\n        uint256 deliveryDateTime;\n        TransportationStatus status;\n    }\n\n    struct BloodSupply {\n        string bloodType;\n        uint256 volume;\n        BloodSupplyStatus status;\n    }\n\n    mapping(address => SystemOwner) private sysOwnerMap;\n    \n    mapping(address => mapping(uint256 => MedicalRecord)) public medicalRecords;\n    mapping(address => mapping(uint256 => Recipient)) public recipients;\n    mapping(address => mapping(uint256 => DonationTransaction)) public donationTransactions;\n    mapping(uint256 => DonationTransaction) public allDonationTransactions;\n\n    mapping(uint256 => TransportationRecord) public transportationRecords;\n    mapping(string => BloodSupply) public bloodSupplies;\n\n    uint256[] public donationTransactionsArr;\n    uint256[] public medicalRecordsArr;\n    uint256[] public recipientArr;\n\n    uint256 public transactionCounter;\n    uint256 public recordCounter;\n\n    // modifier onlyTransporter() {\n    //     require(\n    //         transporters[msg.sender].transporterPublicAddress == msg.sender,\n    //         \"Only transporters can perform this action\"\n    //     );\n    //     _;\n    // }\n\n    SystemOwner private sysowner;\n\n    DonorContract public donorContract;\n    MedicalCenters public medicalCenter;\n    TransportContract public transportContract;\n    CollectionPointContract public collectionPoint;\n\n    constructor(address _donorContractAddress, address _medicalCenter, address _transAddress, address collectionPointAddress_) {\n        sysowner = SystemOwner(owner, \"admin\", false);\n        sysOwnerMap[owner] = sysowner;\n        donorContract = DonorContract(_donorContractAddress);\n        medicalCenter = MedicalCenters(_medicalCenter);\n        transportContract = TransportContract(_transAddress);\n        collectionPoint = CollectionPointContract(collectionPointAddress_);\n    }\n\n    modifier onlyMedicalStaff() {\n        require(\n            medicalCenter.readMedicalCenter(msg.sender).MCPublicAddress == msg.sender,\n            \"Only medical staff can perform this action\"\n        );\n        _;\n    }\n\n    function checkSystemOwnerLogin(address _SYSPublicAddress, string memory _password) public view returns (bool) {\n        // require(!medicalsCenters[_MCPublicAddress].isLogin, \"You're already logged in\");\n        require(compareString(sysOwnerMap[_SYSPublicAddress].password, _password), \"Invalid address or password\");\n\n        return true;\n    }\n\n    function systemOwnerLogin(address _MCPublicAddress, string memory _password) public onlyOwner() {\n        require(checkSystemOwnerLogin(_MCPublicAddress, _password), \"Invalid login credentials\");\n\n        sysOwnerMap[_MCPublicAddress].isLogin = true;\n    }\n\n    // ---------------- Start Donation initialization ---------------------\n    function donateBloodToMedicalCenter(\n        address _medicalCenterPublicAddress,\n        address _donorPublicAddress,\n        uint256 _volume\n    ) public {\n        require(\n            donorContract.readDonors(_donorPublicAddress).isRegistered == true,\n            \"Please register donor first\"\n        );\n\n        uint256 transactionID = block.timestamp;\n        donationTransactions[_medicalCenterPublicAddress][transactionID] = DonationTransaction({\n            transactionID: transactionID,\n            donor: _donorPublicAddress,\n            recipient: address(0),\n            medicalStaff: msg.sender,\n            requester: address(0),\n            isSupplied: false,\n            supplyStatus: BloodSupplyStatus.Available,\n            medicalCenterName: medicalCenter.readMedicalCenter(_medicalCenterPublicAddress).name,\n            transporter: address(0),\n            bloodType: donorContract.readDonors(_donorPublicAddress).bloodType,\n            donationDate: block.timestamp,\n            status: TransactionStatus.Shipped,\n            donatedVolume: _volume,\n            bloodTestResult: \"No Result\"\n        });\n        allDonationTransactions[transactionID] = DonationTransaction({\n            transactionID: transactionID,\n            donor: _donorPublicAddress,\n            recipient: address(0),\n            medicalStaff: msg.sender,\n            requester: address(0),\n            isSupplied: false,\n            supplyStatus: BloodSupplyStatus.Available,\n            medicalCenterName: medicalCenter.readMedicalCenter(_medicalCenterPublicAddress).name,\n            transporter: address(0),\n            bloodType: donorContract.readDonors(_donorPublicAddress).bloodType,\n            donationDate: block.timestamp,\n            status: TransactionStatus.Shipped,\n            donatedVolume: _volume,\n            bloodTestResult: \"No Result\"\n        });\n        donorContract.updateVolume(_donorPublicAddress, _volume);\n        donationTransactionsArr.push(transactionID);\n\n        // Increment the transaction count\n        transactionCounter++;\n    }\n\n    function getDonationTransactionArr()\n        public\n        view\n        returns (uint256[] memory)\n    {\n        return donationTransactionsArr;\n    }\n\n    function getDonationTransaction(\n        address _medicalCenterPublicAddress,\n        uint256 _transactionID\n    )\n        public\n        view\n        returns (\n            uint256 transactionID,\n            address donorPublicAddress,\n            string memory donorName,\n            address recipientPublicAddress,\n            address medicalStaff,\n            string memory requester,\n            bool isSupplied,\n            BloodSupplyStatus supplyStatus,\n            string memory medicalCenterName,\n            address transporterPublicAddress,\n            string memory bloodType,\n            uint256 donationDate,\n            TransactionStatus status,\n            uint256 donatedVolume,\n            string memory bloodTestResult\n        )\n    {\n        DonationTransaction memory donationTransaction = donationTransactions[_medicalCenterPublicAddress][_transactionID];\n        transactionID = donationTransaction.transactionID;\n        donorPublicAddress = donationTransaction.donor;\n        donorName = donorContract.readDonors(donationTransaction.donor).name;\n        recipientPublicAddress = donationTransaction.recipient;\n        medicalStaff = donationTransaction.medicalStaff;\n        requester = medicalCenter.readMedicalCenter(donationTransaction.requester).name;\n        isSupplied = donationTransaction.isSupplied;\n        supplyStatus = donationTransaction.supplyStatus;\n        transporterPublicAddress = donationTransaction.transporter;\n        medicalCenterName = donationTransaction.medicalCenterName;\n        bloodType = donationTransaction.bloodType;\n        donationDate = donationTransaction.donationDate;\n        status = donationTransaction.status;\n        donatedVolume = donationTransaction.donatedVolume;\n        bloodTestResult = donationTransaction.bloodTestResult;\n    }\n\n    function getAllDonationTransaction(\n        uint256 _transactionID\n    )\n        public\n        view\n        returns (\n            uint256 transactionID,\n            address donorPublicAddress,\n            string memory donorName,\n            address recipientPublicAddress,\n            address medicalStaff,\n            address requester,\n            bool isSupplied,\n            BloodSupplyStatus supplyStatus,\n            string memory medicalCenterName,\n            address transporterPublicAddress,\n            string memory bloodType,\n            uint256 donationDate,\n            TransactionStatus status,\n            uint256 donatedVolume,\n            string memory bloodTestResult\n        )\n    {\n        DonationTransaction memory allDonationTransaction = allDonationTransactions[_transactionID];\n        transactionID = allDonationTransaction.transactionID;\n        donorPublicAddress = allDonationTransaction.donor;\n        donorName = donorContract.readDonors(allDonationTransaction.donor).name;\n        recipientPublicAddress = allDonationTransaction.recipient;\n        medicalStaff = allDonationTransaction.medicalStaff;\n        requester = allDonationTransaction.requester;\n        isSupplied = allDonationTransaction.isSupplied;\n        supplyStatus = allDonationTransaction.supplyStatus;\n        medicalCenterName = allDonationTransaction.medicalCenterName;\n        transporterPublicAddress = allDonationTransaction.transporter;\n        bloodType = allDonationTransaction.bloodType;\n        donationDate = allDonationTransaction.donationDate;\n        status = allDonationTransaction.status;\n        donatedVolume = allDonationTransaction.donatedVolume;\n        bloodTestResult = allDonationTransaction.bloodTestResult;\n    }\n\n    // ---------------- End Donation initialization ---------------------\n\n    // ---------------- Start Complete Donation  ------------------------\n\n    function completeDonationToMedicalCenter(\n        uint256 _transactionID,\n        string memory _bloodType,\n        string memory _HIV,\n        string memory _liverFever,\n        uint256 _bloodPressure,\n        uint256 _hemoglobinLevel,\n        string memory _bloodTestResults\n    ) public onlyMedicalStaff {\n        require(\n            donationTransactions[msg.sender][_transactionID].status ==\n                TransactionStatus.Shipped,\n            \"Invalid transaction status\"\n        );\n        require(\n            donationTransactions[msg.sender][_transactionID].donor != address(0),\n            \"Invalid donor address\"\n        );\n\n        donationTransactions[msg.sender][_transactionID].medicalStaff = msg.sender;\n        donationTransactions[msg.sender][_transactionID].bloodType = _bloodType;\n        donationTransactions[msg.sender][_transactionID].status = TransactionStatus.Active;\n        donationTransactions[msg.sender][_transactionID].bloodTestResult = _bloodTestResults;\n        allDonationTransactions[_transactionID].medicalStaff = msg.sender;\n        allDonationTransactions[_transactionID].bloodType = _bloodType;\n        allDonationTransactions[_transactionID].status = TransactionStatus.Active;\n        allDonationTransactions[_transactionID].bloodTestResult = _bloodTestResults;\n        donorContract.updateDonorBloodType(donationTransactions[msg.sender][_transactionID].donor, _bloodType);\n        donorContract.updateDonationHistory(donationTransactions[msg.sender][_transactionID].donor, _transactionID);\n\n        uint256 recordID = block.timestamp;\n        medicalRecords[msg.sender][recordID] = MedicalRecord({\n            recordID: recordID,\n            transactionID: _transactionID,\n            donor: donationTransactions[msg.sender][_transactionID].donor,\n            bloodType: _bloodType,\n            HIV: _HIV,\n            liverFever: _liverFever,\n            medicalStaff: msg.sender,\n            bloodPressure: _bloodPressure,\n            hemoglobinLevel: _hemoglobinLevel,\n            bloodTestResults: _bloodTestResults\n            // donationHistory: new uint256[](0)\n        });\n        medicalRecordsArr.push(recordID);\n\n        // uint256 payment = calculatePayment(\n        //     donors[donationTransactions[_transactionID].donor].donatedVolume\n        // );\n        // uint256 payment = calculatePayment(_transactionID);\n        // donors[donationTransactions[_transactionID].donor]\n        //     .totalPayment += payment;\n        // payable(msg.sender).transfer(payment);\n    }\n\n    function fullFillBloodToRecipient(\n        uint256 _transactionID,\n        address _recipientAddress,\n        string memory _recipientName,\n        string memory _recipientPhoneNumber,\n        string memory _bloodType\n    ) public onlyMedicalStaff {\n        require(\n            donationTransactions[msg.sender][_transactionID].status ==\n                TransactionStatus.Active,\n            \"Invalid transaction status\"\n        );\n        require(compareString(donationTransactions[msg.sender][_transactionID].bloodTestResult, \"ACCEPTED\"), \"Invalid transaction status\");\n       /* require(\n            donationTransactions[msg.sender][_transactionID].donor != address(0),\n            \"Invalid donor address\"\n        ); */\n\n        donationTransactions[msg.sender][_transactionID].recipient = _recipientAddress;\n        donationTransactions[msg.sender][_transactionID].status = TransactionStatus.Fullfilled;\n        allDonationTransactions[_transactionID].recipient = _recipientAddress;\n        allDonationTransactions[_transactionID].status = TransactionStatus.Fullfilled;\n\n        uint256 recipientID = block.timestamp;\n        recipients[msg.sender][recipientID] = Recipient({\n            recipientID: recipientID,\n            transactionID: _transactionID,\n            recipientAddress: _recipientAddress,\n            recipientName: _recipientName,\n            recipientPhoneNumber: _recipientPhoneNumber,\n            bloodType: _bloodType\n        });\n\n        recipientArr.push(recipientID);\n    }\n\n    function getRecipientsArr()\n        public\n        view\n        returns (uint256[] memory)\n    {\n        return recipientArr;\n    }\n\n    function getRecipient(\n        address _medicalCenterAddress,\n        uint256 _recipientID\n    )\n        public\n        view\n        returns (\n            uint256 recipientID,\n            uint256 transactionID,\n            address recipientAddress,\n            string memory recipientName,\n            string memory recipientPhoneNumber,\n            string memory bloodType\n        )\n    {\n        Recipient memory recipient = recipients[_medicalCenterAddress][_recipientID];\n        recipientID = recipient.recipientID;\n        transactionID = recipient.transactionID;\n        recipientAddress = recipient.recipientAddress;\n        recipientName = recipient.recipientName;\n        recipientPhoneNumber = recipient.recipientPhoneNumber;\n        bloodType = recipient.bloodType;\n    }\n\n    function getMedicalRecordsArr()\n        public\n        view\n        returns (uint256[] memory)\n    {\n        return medicalRecordsArr;\n    }\n\n    function getMedicalRecord(\n        address _medicalCenterAddress,\n        uint256 _medicalRecordID\n    )\n        public\n        view\n        returns (\n            uint256 medicalRecordID,\n            uint256 transactionID,\n            address donorAddress,\n            string memory bloodType,\n            address medicalStaff,\n            uint256 bloodPressure,\n            uint256 hemoglobinLevel,\n            string memory bloodTestResult\n        )\n    {\n        MedicalRecord memory medicalRecord = medicalRecords[_medicalCenterAddress][\n            _medicalRecordID\n        ];\n        medicalRecordID = medicalRecord.recordID;\n        transactionID = medicalRecord.transactionID;\n        donorAddress = medicalRecord.donor;\n        bloodType = medicalRecord.bloodType;\n        medicalStaff = medicalRecord.medicalStaff;\n        bloodPressure = medicalRecord.bloodPressure;\n        hemoglobinLevel = medicalRecord.hemoglobinLevel;\n        bloodTestResult = medicalRecord.bloodTestResults;\n    }\n\n    // ---------------- End Complete Donation  ------------------------\n\n    // function calculatePayment(\n    //     uint256 _transactionID\n    // ) internal view returns (uint256) {\n    //     require(\n    //         donationTransactions[_transactionID].status ==\n    //             TransactionStatus.Completed,\n    //         \"Transaction not completed\"\n    //     );\n    //     // Assuming a fixed payment rate for simplicity\n    //     uint256 _donatedVolume = donationTransactions[_transactionID]\n    //         .donatedVolume;\n    //     uint256 paymentRate = 1 gwei; // 1gwei/ml\n    //     return _donatedVolume * paymentRate;\n    // }\n\n    function requestBloodSupply(uint256 _transactionID, address _medicalCenterPublicAddress , address requester_) external onlyMedicalStaff {\n        DonationTransaction storage donationTransaction = donationTransactions[_medicalCenterPublicAddress][_transactionID];\n        require(allDonationTransactions[_transactionID].supplyStatus == BloodSupplyStatus.Available, \"This transaction is not Available\");\n\n        donationTransaction.requester = requester_;\n        donationTransaction.supplyStatus = BloodSupplyStatus.Requested;\n\n        donationTransactions[_medicalCenterPublicAddress][_transactionID] = donationTransaction;\n        allDonationTransactions[_transactionID] = donationTransaction;\n    }\n\n    function approvalBloodSupplied(uint256 _transactionID, address _medicalCenterPublicAddress, address transporterAddress_ ) external onlyMedicalStaff {\n\n        DonationTransaction storage donationTransaction = donationTransactions[_medicalCenterPublicAddress][_transactionID];\n        require(allDonationTransactions[_transactionID].supplyStatus == BloodSupplyStatus.Requested, \"This transaction should be requested first\");\n\n        donationTransaction.transporter = transporterAddress_;\n        donationTransaction.supplyStatus = BloodSupplyStatus.Approved;\n\n        donationTransactions[_medicalCenterPublicAddress][_transactionID] = donationTransaction;\n        allDonationTransactions[_transactionID] = donationTransaction;\n        transportContract.updateTransportationHistory(transporterAddress_, _transactionID);\n    }\n\n    function supply(address _medicalCenterPublicAddress, uint256 _transactionID) external {\n        //DonationTransaction storage donationTransaction = donationTransactions[_medicalCenterPublicAddress][_transactionID];\n\n        //donationTransaction.isSupplied = true;\n        donationTransactions[_medicalCenterPublicAddress][_transactionID].isSupplied = true;\n        allDonationTransactions[_transactionID].isSupplied = true;\n\n    }\n\n}\n",
  "sourcePath": "/home/temba/Desktop/blood-donation-blockchain-system/client-side/contracts/BloodDonationBlockchainSystem.sol",
  "compiler": {
    "name": "solc",
    "version": "0.8.19+commit.7dd6d404.Emscripten.clang"
  },
  "schemaVersion": "3.4.16",
  "updatedAt": "2024-03-20T11:19:03.247Z",
  "networkType": "ethereum",
  "devdoc": {
    "author": "Josephat E. Temba",
    "custom:fyp": "This is the final year project for cive students",
    "details": "This is best aproach for developers to learn how real dapp looking for",
    "kind": "dev",
    "methods": {},
    "title": "Blood Donation Blockchain-based System",
    "version": 1
  },
  "userdoc": {
    "kind": "user",
    "methods": {},
    "notice": "You can use this smart contract in real blood donation operations",
    "version": 1
  }
}