{
  "contractName": "BloodDonationBlockchainSystem",
  "abi": [
    {
      "inputs": [
        {
          "internalType": "address",
          "name": "_donorContractAddress",
          "type": "address"
        },
        {
          "internalType": "address",
          "name": "_medicalCenter",
          "type": "address"
        },
        {
          "internalType": "address",
          "name": "_transAddress",
          "type": "address"
        },
        {
          "internalType": "address",
          "name": "collectionPointAddress_",
          "type": "address"
        }
      ],
      "stateMutability": "nonpayable",
      "type": "constructor"
    },
    {
      "inputs": [
        {
          "internalType": "uint256",
          "name": "",
          "type": "uint256"
        }
      ],
      "name": "allDonationTransactions",
      "outputs": [
        {
          "internalType": "uint256",
          "name": "transactionID",
          "type": "uint256"
        },
        {
          "internalType": "address",
          "name": "donor",
          "type": "address"
        },
        {
          "internalType": "address",
          "name": "recipient",
          "type": "address"
        },
        {
          "internalType": "address",
          "name": "medicalStaff",
          "type": "address"
        },
        {
          "internalType": "address",
          "name": "requester",
          "type": "address"
        },
        {
          "internalType": "bool",
          "name": "isSupplied",
          "type": "bool"
        },
        {
          "internalType": "enum BloodDonationBlockchainSystem.BloodSupplyStatus",
          "name": "supplyStatus",
          "type": "uint8"
        },
        {
          "internalType": "string",
          "name": "medicalCenterName",
          "type": "string"
        },
        {
          "internalType": "address",
          "name": "transporter",
          "type": "address"
        },
        {
          "internalType": "string",
          "name": "bloodType",
          "type": "string"
        },
        {
          "internalType": "uint256",
          "name": "donationDate",
          "type": "uint256"
        },
        {
          "internalType": "enum BloodDonationBlockchainSystem.TransactionStatus",
          "name": "status",
          "type": "uint8"
        },
        {
          "internalType": "uint256",
          "name": "donatedVolume",
          "type": "uint256"
        },
        {
          "internalType": "string",
          "name": "bloodTestResult",
          "type": "string"
        }
      ],
      "stateMutability": "view",
      "type": "function",
      "constant": true
    },
    {
      "inputs": [
        {
          "internalType": "string",
          "name": "",
          "type": "string"
        }
      ],
      "name": "bloodSupplies",
      "outputs": [
        {
          "internalType": "string",
          "name": "bloodType",
          "type": "string"
        },
        {
          "internalType": "uint256",
          "name": "volume",
          "type": "uint256"
        },
        {
          "internalType": "enum BloodDonationBlockchainSystem.BloodSupplyStatus",
          "name": "status",
          "type": "uint8"
        }
      ],
      "stateMutability": "view",
      "type": "function",
      "constant": true
    },
    {
      "inputs": [],
      "name": "collectionPoint",
      "outputs": [
        {
          "internalType": "contract CollectionPointContract",
          "name": "",
          "type": "address"
        }
      ],
      "stateMutability": "view",
      "type": "function",
      "constant": true
    },
    {
      "inputs": [
        {
          "internalType": "address",
          "name": "",
          "type": "address"
        },
        {
          "internalType": "uint256",
          "name": "",
          "type": "uint256"
        }
      ],
      "name": "donationTransactions",
      "outputs": [
        {
          "internalType": "uint256",
          "name": "transactionID",
          "type": "uint256"
        },
        {
          "internalType": "address",
          "name": "donor",
          "type": "address"
        },
        {
          "internalType": "address",
          "name": "recipient",
          "type": "address"
        },
        {
          "internalType": "address",
          "name": "medicalStaff",
          "type": "address"
        },
        {
          "internalType": "address",
          "name": "requester",
          "type": "address"
        },
        {
          "internalType": "bool",
          "name": "isSupplied",
          "type": "bool"
        },
        {
          "internalType": "enum BloodDonationBlockchainSystem.BloodSupplyStatus",
          "name": "supplyStatus",
          "type": "uint8"
        },
        {
          "internalType": "string",
          "name": "medicalCenterName",
          "type": "string"
        },
        {
          "internalType": "address",
          "name": "transporter",
          "type": "address"
        },
        {
          "internalType": "string",
          "name": "bloodType",
          "type": "string"
        },
        {
          "internalType": "uint256",
          "name": "donationDate",
          "type": "uint256"
        },
        {
          "internalType": "enum BloodDonationBlockchainSystem.TransactionStatus",
          "name": "status",
          "type": "uint8"
        },
        {
          "internalType": "uint256",
          "name": "donatedVolume",
          "type": "uint256"
        },
        {
          "internalType": "string",
          "name": "bloodTestResult",
          "type": "string"
        }
      ],
      "stateMutability": "view",
      "type": "function",
      "constant": true
    },
    {
      "inputs": [
        {
          "internalType": "uint256",
          "name": "",
          "type": "uint256"
        }
      ],
      "name": "donationTransactionsArr",
      "outputs": [
        {
          "internalType": "uint256",
          "name": "",
          "type": "uint256"
        }
      ],
      "stateMutability": "view",
      "type": "function",
      "constant": true
    },
    {
      "inputs": [],
      "name": "donorContract",
      "outputs": [
        {
          "internalType": "contract DonorContract",
          "name": "",
          "type": "address"
        }
      ],
      "stateMutability": "view",
      "type": "function",
      "constant": true
    },
    {
      "inputs": [],
      "name": "medicalCenter",
      "outputs": [
        {
          "internalType": "contract MedicalCenters",
          "name": "",
          "type": "address"
        }
      ],
      "stateMutability": "view",
      "type": "function",
      "constant": true
    },
    {
      "inputs": [
        {
          "internalType": "address",
          "name": "",
          "type": "address"
        },
        {
          "internalType": "uint256",
          "name": "",
          "type": "uint256"
        }
      ],
      "name": "medicalRecords",
      "outputs": [
        {
          "internalType": "uint256",
          "name": "recordID",
          "type": "uint256"
        },
        {
          "internalType": "uint256",
          "name": "transactionID",
          "type": "uint256"
        },
        {
          "internalType": "address",
          "name": "donor",
          "type": "address"
        },
        {
          "internalType": "address",
          "name": "medicalStaff",
          "type": "address"
        },
        {
          "internalType": "string",
          "name": "HIV",
          "type": "string"
        },
        {
          "internalType": "string",
          "name": "liverFever",
          "type": "string"
        },
        {
          "internalType": "string",
          "name": "bloodType",
          "type": "string"
        },
        {
          "internalType": "uint256",
          "name": "bloodPressure",
          "type": "uint256"
        },
        {
          "internalType": "uint256",
          "name": "hemoglobinLevel",
          "type": "uint256"
        },
        {
          "internalType": "string",
          "name": "bloodTestResults",
          "type": "string"
        }
      ],
      "stateMutability": "view",
      "type": "function",
      "constant": true
    },
    {
      "inputs": [
        {
          "internalType": "uint256",
          "name": "",
          "type": "uint256"
        }
      ],
      "name": "medicalRecordsArr",
      "outputs": [
        {
          "internalType": "uint256",
          "name": "",
          "type": "uint256"
        }
      ],
      "stateMutability": "view",
      "type": "function",
      "constant": true
    },
    {
      "inputs": [
        {
          "internalType": "uint256",
          "name": "",
          "type": "uint256"
        }
      ],
      "name": "recipientArr",
      "outputs": [
        {
          "internalType": "uint256",
          "name": "",
          "type": "uint256"
        }
      ],
      "stateMutability": "view",
      "type": "function",
      "constant": true
    },
    {
      "inputs": [
        {
          "internalType": "address",
          "name": "",
          "type": "address"
        },
        {
          "internalType": "uint256",
          "name": "",
          "type": "uint256"
        }
      ],
      "name": "recipients",
      "outputs": [
        {
          "internalType": "uint256",
          "name": "recipientID",
          "type": "uint256"
        },
        {
          "internalType": "uint256",
          "name": "transactionID",
          "type": "uint256"
        },
        {
          "internalType": "address",
          "name": "recipientAddress",
          "type": "address"
        },
        {
          "internalType": "string",
          "name": "recipientName",
          "type": "string"
        },
        {
          "internalType": "string",
          "name": "recipientPhoneNumber",
          "type": "string"
        },
        {
          "internalType": "string",
          "name": "bloodType",
          "type": "string"
        }
      ],
      "stateMutability": "view",
      "type": "function",
      "constant": true
    },
    {
      "inputs": [],
      "name": "recordCounter",
      "outputs": [
        {
          "internalType": "uint256",
          "name": "",
          "type": "uint256"
        }
      ],
      "stateMutability": "view",
      "type": "function",
      "constant": true
    },
    {
      "inputs": [],
      "name": "transactionCounter",
      "outputs": [
        {
          "internalType": "uint256",
          "name": "",
          "type": "uint256"
        }
      ],
      "stateMutability": "view",
      "type": "function",
      "constant": true
    },
    {
      "inputs": [],
      "name": "transportContract",
      "outputs": [
        {
          "internalType": "contract TransportContract",
          "name": "",
          "type": "address"
        }
      ],
      "stateMutability": "view",
      "type": "function",
      "constant": true
    },
    {
      "inputs": [
        {
          "internalType": "uint256",
          "name": "",
          "type": "uint256"
        }
      ],
      "name": "transportationRecords",
      "outputs": [
        {
          "internalType": "uint256",
          "name": "recordID",
          "type": "uint256"
        },
        {
          "internalType": "address",
          "name": "transporter",
          "type": "address"
        },
        {
          "internalType": "address",
          "name": "donor",
          "type": "address"
        },
        {
          "internalType": "address",
          "name": "recipient",
          "type": "address"
        },
        {
          "internalType": "uint256",
          "name": "pickupDateTime",
          "type": "uint256"
        },
        {
          "internalType": "uint256",
          "name": "deliveryDateTime",
          "type": "uint256"
        },
        {
          "internalType": "enum BloodDonationBlockchainSystem.TransportationStatus",
          "name": "status",
          "type": "uint8"
        }
      ],
      "stateMutability": "view",
      "type": "function",
      "constant": true
    },
    {
      "inputs": [
        {
          "internalType": "address",
          "name": "_SYSPublicAddress",
          "type": "address"
        },
        {
          "internalType": "string",
          "name": "_password",
          "type": "string"
        }
      ],
      "name": "checkSystemOwnerLogin",
      "outputs": [
        {
          "internalType": "bool",
          "name": "",
          "type": "bool"
        }
      ],
      "stateMutability": "view",
      "type": "function",
      "constant": true
    },
    {
      "inputs": [
        {
          "internalType": "address",
          "name": "_MCPublicAddress",
          "type": "address"
        },
        {
          "internalType": "string",
          "name": "_password",
          "type": "string"
        }
      ],
      "name": "systemOwnerLogin",
      "outputs": [],
      "stateMutability": "nonpayable",
      "type": "function"
    },
    {
      "inputs": [
        {
          "internalType": "address",
          "name": "_medicalCenterPublicAddress",
          "type": "address"
        },
        {
          "internalType": "address",
          "name": "_donorPublicAddress",
          "type": "address"
        },
        {
          "internalType": "uint256",
          "name": "_volume",
          "type": "uint256"
        }
      ],
      "name": "donateBloodToMedicalCenter",
      "outputs": [],
      "stateMutability": "nonpayable",
      "type": "function"
    },
    {
      "inputs": [],
      "name": "getDonationTransactionArr",
      "outputs": [
        {
          "internalType": "uint256[]",
          "name": "",
          "type": "uint256[]"
        }
      ],
      "stateMutability": "view",
      "type": "function",
      "constant": true
    },
    {
      "inputs": [
        {
          "internalType": "address",
          "name": "_medicalCenterPublicAddress",
          "type": "address"
        },
        {
          "internalType": "uint256",
          "name": "_transactionID",
          "type": "uint256"
        }
      ],
      "name": "getDonationTransaction",
      "outputs": [
        {
          "internalType": "uint256",
          "name": "transactionID",
          "type": "uint256"
        },
        {
          "internalType": "address",
          "name": "donorPublicAddress",
          "type": "address"
        },
        {
          "internalType": "string",
          "name": "donorName",
          "type": "string"
        },
        {
          "internalType": "address",
          "name": "recipientPublicAddress",
          "type": "address"
        },
        {
          "internalType": "address",
          "name": "medicalStaff",
          "type": "address"
        },
        {
          "internalType": "address",
          "name": "requester",
          "type": "address"
        },
        {
          "internalType": "bool",
          "name": "isSupplied",
          "type": "bool"
        },
        {
          "internalType": "enum BloodDonationBlockchainSystem.BloodSupplyStatus",
          "name": "supplyStatus",
          "type": "uint8"
        },
        {
          "internalType": "string",
          "name": "medicalCenterName",
          "type": "string"
        },
        {
          "internalType": "address",
          "name": "transporterPublicAddress",
          "type": "address"
        },
        {
          "internalType": "string",
          "name": "bloodType",
          "type": "string"
        },
        {
          "internalType": "uint256",
          "name": "donationDate",
          "type": "uint256"
        },
        {
          "internalType": "enum BloodDonationBlockchainSystem.TransactionStatus",
          "name": "status",
          "type": "uint8"
        },
        {
          "internalType": "uint256",
          "name": "donatedVolume",
          "type": "uint256"
        },
        {
          "internalType": "string",
          "name": "bloodTestResult",
          "type": "string"
        }
      ],
      "stateMutability": "view",
      "type": "function",
      "constant": true
    },
    {
      "inputs": [
        {
          "internalType": "uint256",
          "name": "_transactionID",
          "type": "uint256"
        }
      ],
      "name": "getAllDonationTransaction",
      "outputs": [
        {
          "internalType": "uint256",
          "name": "transactionID",
          "type": "uint256"
        },
        {
          "internalType": "address",
          "name": "donorPublicAddress",
          "type": "address"
        },
        {
          "internalType": "string",
          "name": "donorName",
          "type": "string"
        },
        {
          "internalType": "address",
          "name": "recipientPublicAddress",
          "type": "address"
        },
        {
          "internalType": "address",
          "name": "medicalStaff",
          "type": "address"
        },
        {
          "internalType": "address",
          "name": "requester",
          "type": "address"
        },
        {
          "internalType": "bool",
          "name": "isSupplied",
          "type": "bool"
        },
        {
          "internalType": "enum BloodDonationBlockchainSystem.BloodSupplyStatus",
          "name": "supplyStatus",
          "type": "uint8"
        },
        {
          "internalType": "string",
          "name": "medicalCenterName",
          "type": "string"
        },
        {
          "internalType": "address",
          "name": "transporterPublicAddress",
          "type": "address"
        },
        {
          "internalType": "string",
          "name": "bloodType",
          "type": "string"
        },
        {
          "internalType": "uint256",
          "name": "donationDate",
          "type": "uint256"
        },
        {
          "internalType": "enum BloodDonationBlockchainSystem.TransactionStatus",
          "name": "status",
          "type": "uint8"
        },
        {
          "internalType": "uint256",
          "name": "donatedVolume",
          "type": "uint256"
        },
        {
          "internalType": "string",
          "name": "bloodTestResult",
          "type": "string"
        }
      ],
      "stateMutability": "view",
      "type": "function",
      "constant": true
    },
    {
      "inputs": [
        {
          "internalType": "uint256",
          "name": "_transactionID",
          "type": "uint256"
        },
        {
          "internalType": "string",
          "name": "_bloodType",
          "type": "string"
        },
        {
          "internalType": "string",
          "name": "_HIV",
          "type": "string"
        },
        {
          "internalType": "string",
          "name": "_liverFever",
          "type": "string"
        },
        {
          "internalType": "uint256",
          "name": "_bloodPressure",
          "type": "uint256"
        },
        {
          "internalType": "uint256",
          "name": "_hemoglobinLevel",
          "type": "uint256"
        },
        {
          "internalType": "string",
          "name": "_bloodTestResults",
          "type": "string"
        }
      ],
      "name": "completeDonationToMedicalCenter",
      "outputs": [],
      "stateMutability": "nonpayable",
      "type": "function"
    },
    {
      "inputs": [
        {
          "internalType": "uint256",
          "name": "_transactionID",
          "type": "uint256"
        },
        {
          "internalType": "address",
          "name": "_recipientAddress",
          "type": "address"
        },
        {
          "internalType": "string",
          "name": "_recipientName",
          "type": "string"
        },
        {
          "internalType": "string",
          "name": "_recipientPhoneNumber",
          "type": "string"
        },
        {
          "internalType": "string",
          "name": "_bloodType",
          "type": "string"
        }
      ],
      "name": "fullFillBloodToRecipient",
      "outputs": [],
      "stateMutability": "nonpayable",
      "type": "function"
    },
    {
      "inputs": [],
      "name": "getRecipientsArr",
      "outputs": [
        {
          "internalType": "uint256[]",
          "name": "",
          "type": "uint256[]"
        }
      ],
      "stateMutability": "view",
      "type": "function",
      "constant": true
    },
    {
      "inputs": [
        {
          "internalType": "address",
          "name": "_medicalCenterAddress",
          "type": "address"
        },
        {
          "internalType": "uint256",
          "name": "_recipientID",
          "type": "uint256"
        }
      ],
      "name": "getRecipient",
      "outputs": [
        {
          "internalType": "uint256",
          "name": "recipientID",
          "type": "uint256"
        },
        {
          "internalType": "uint256",
          "name": "transactionID",
          "type": "uint256"
        },
        {
          "internalType": "address",
          "name": "recipientAddress",
          "type": "address"
        },
        {
          "internalType": "string",
          "name": "recipientName",
          "type": "string"
        },
        {
          "internalType": "string",
          "name": "recipientPhoneNumber",
          "type": "string"
        },
        {
          "internalType": "string",
          "name": "bloodType",
          "type": "string"
        }
      ],
      "stateMutability": "view",
      "type": "function",
      "constant": true
    },
    {
      "inputs": [],
      "name": "getMedicalRecordsArr",
      "outputs": [
        {
          "internalType": "uint256[]",
          "name": "",
          "type": "uint256[]"
        }
      ],
      "stateMutability": "view",
      "type": "function",
      "constant": true
    },
    {
      "inputs": [
        {
          "internalType": "address",
          "name": "_medicalCenterAddress",
          "type": "address"
        },
        {
          "internalType": "uint256",
          "name": "_medicalRecordID",
          "type": "uint256"
        }
      ],
      "name": "getMedicalRecord",
      "outputs": [
        {
          "internalType": "uint256",
          "name": "medicalRecordID",
          "type": "uint256"
        },
        {
          "internalType": "uint256",
          "name": "transactionID",
          "type": "uint256"
        },
        {
          "internalType": "address",
          "name": "donorAddress",
          "type": "address"
        },
        {
          "internalType": "string",
          "name": "bloodType",
          "type": "string"
        },
        {
          "internalType": "address",
          "name": "medicalStaff",
          "type": "address"
        },
        {
          "internalType": "uint256",
          "name": "bloodPressure",
          "type": "uint256"
        },
        {
          "internalType": "uint256",
          "name": "hemoglobinLevel",
          "type": "uint256"
        },
        {
          "internalType": "string",
          "name": "bloodTestResult",
          "type": "string"
        }
      ],
      "stateMutability": "view",
      "type": "function",
      "constant": true
    },
    {
      "inputs": [
        {
          "internalType": "uint256",
          "name": "_transactionID",
          "type": "uint256"
        },
        {
          "internalType": "address",
          "name": "_medicalCenterPublicAddress",
          "type": "address"
        },
        {
          "internalType": "address",
          "name": "requester_",
          "type": "address"
        }
      ],
      "name": "requestBloodSupply",
      "outputs": [],
      "stateMutability": "nonpayable",
      "type": "function"
    },
    {
      "inputs": [
        {
          "internalType": "uint256",
          "name": "_transactionID",
          "type": "uint256"
        },
        {
          "internalType": "address",
          "name": "_medicalCenterPublicAddress",
          "type": "address"
        },
        {
          "internalType": "address",
          "name": "transporterAddress_",
          "type": "address"
        }
      ],
      "name": "approvalBloodSupplied",
      "outputs": [],
      "stateMutability": "nonpayable",
      "type": "function"
    },
    {
      "inputs": [
        {
          "internalType": "address",
          "name": "_medicalCenterPublicAddress",
          "type": "address"
        },
        {
          "internalType": "uint256",
          "name": "_transactionID",
          "type": "uint256"
        }
      ],
      "name": "supply",
      "outputs": [],
      "stateMutability": "nonpayable",
      "type": "function"
    }
  ],
  "bytecode": "0x60a03462000349576001604060020a0390601f6200464738819003918201601f1916830191848311848410176200031a5780849260809460405283398101031262000349576200004f816200034e565b6200005d602083016200034e565b906200007a606062000072604086016200034e565b94016200034e565b93336080526040519060608201828110828211176200031a5760405233825260405160408101818110838211176200031a57604052600581527f61646d696e000000000000000000000000000000000000000000000000000000602082015280602084015260006040840152600160a060020a03835116600160a060020a0319600d541617600d5580519182116200031a5762000119600e5462000363565b601f8111620002cb575b50602090601f8311600114620002545760409392916000918362000248575b5050816002029160080260020a60001904191617600e555b0151151560ff199060ff82600f5416911617600f55600160a060020a036080511660005260016020526040600020600d8103620001fd575b505060108054600160a060020a0319908116600160a060020a0393841617909155601180548216938316939093179092556012805483169382169390931790925560138054909116929091169190911790556040516141349081620005138239608051816118b00152f35b600d548154600160a060020a031916600160a060020a03919091161781556002906200022c60018201620003ba565b019060ff80600f54161515918354169116179055388062000192565b01519050388062000142565b90600e60005260206000209160005b601f1985168110620002b25750926001926002926040969583601f1981161062000296575b5050500201600e556200015a565b01516008601f841602840a600019041916905538808062000288565b9192602060018192868501518155019401920162000263565b600e60005260206000206020601f850104810191602085106200030f575b601f602091010401905b81811062000302575062000123565b60008155600101620002f3565b9091508190620002e9565b7f4e487b7100000000000000000000000000000000000000000000000000000000600052604160045260246000fd5b600080fd5b5190600160a060020a03821682036200034957565b9060016002830492168015620003af575b60208310146200038057565b7f4e487b7100000000000000000000000000000000000000000000000000000000600052602260045260246000fd5b91607f169162000374565b600e81146200050f57620003d0600e5462000363565b6001604060020a0381116200031a57620003eb825462000363565b601f8111620004c1575b50806000601f8211600114620004325760009162000425575b50816002029160080260020a600019041916179055565b9050600e0154386200040e565b838152602080822092507fbb7b4a454dc3493923482f07822329ed19e8244eff582cc204f8554c3620c3fd90601f1985169083905b828210620004a757505091600293918560019694106200048b575b50505002019055565b01546008601f841602840a600019041916905538808062000482565b849581929585015481556001809101960194019062000467565b6000838152602081206020601f8501048101926020851062000504575b601f602091010401915b828110620004f8575050620003f5565b818155600101620004e8565b9092508290620004de565b5056fe608080604052600436101561001357600080fd5b6000907c010000000000000000000000000000000000000000000000000000000082350490816308a990081461355e575080630c7a538f1461353a57806311e1c24a1461351357806314e887e8146134f55780631920b9ae1461328557806322d95e0a1461325e57806337d98175146131f457806339c3d6b71461317e57806342d697651461306557806342d6ac6014612c1f57806344d38d7014612bcf5780634a9cf24814612b1c5780636cd327e014612aa65780637599be5d14612a885780637fe52fa3146128485780638a9efd0114611ca657806397678a0314611bac5780639c1bc07b14611b12578063aa60ac4c14611a57578063bae4c74014611a30578063c02b9f5a14611990578063cfc0970114611894578063d04398d614611812578063d1b21c2e146112ce578063d59be68d146112a7578063e14ec6ec1461066a578063ea8b9025146105ec578063eea9c37b146104b8578063f2b9fdb8146101df5763f56213671461018757600080fd5b346101dc5760203660031901126101dc57600435600a548110156101d857602090600a6000527fc65a7bb8d6351c1cf70c95a316cc6a92839c986682d98bc35f958f4883f9d2a80154604051908152f35b5080fd5b80fd5b50346101dc5760403660031901126101dc57600160a060020a036102016135ab565b1680825260046020526040822060243583526020526040822090600560205260a060020a60046040852074ff00000000000000000000000000000000000000001993838584880154161783870155865281602052604086206024358752602052604086208581036103a7575b500191825416179055602435825260056020526040822081810361028f578280f35b600b80836103a19454845560018401600160a060020a0360018301541690600160a060020a0319918282541617905560028501600160a060020a036002840154168282541617905560038501600160a060020a036003840154168282541617905561033760048601600160a060020a036004850154168382541617815561032360ff60a060020a6004870154041682613e67565b60ff60a860020a6004860154041690613ea8565b6103476005830160058701614020565b6006850190600160a060020a03600684015416908254161790556103716007820160078601614020565b6008810154600885015561038f60ff60098301541660098601613f46565b600a810154600a850155019101614020565b38808280f35b6104b2908654815560018101600160a060020a0360018901541690600160a060020a0319918282541617905560028201600160a060020a0360028a0154168282541617905560038201600160a060020a0360038a01541682825416179055610444858301600160a060020a03878b0154168382541617815561043160ff89898d0154041682613e67565b60ff60a860020a888c0154041690613ea8565b6104546005890160058401614020565b6006820190600160a060020a0360068a0154169082541617905561047e6007880160078301614020565b6008870154600882015561049c60ff60098901541660098301613f46565b600a870154600a820155600b8088019101614020565b3861026d565b50346101dc5760403660031901126101dc576040600160a060020a0391826104de6135ab565b16815260026020528181206024358252602052206105e8604051916105028361360d565b805483526001810154926020810193845284600283015416946040820195865280600384015416906060830191825261053d6004850161379d565b608084015261054e6005850161379d565b60a08401526105cb6105626006860161379d565b9260c0850193845260078601549560e0860196875260088101549380610593600961010094858b019889520161379d565b9788610120820152519a519b5116955192511696519351946040519a8b9a8b5260208b015260408a01528060608a0152880190613888565b93608087015260a086015260c085015283820360e0850152613888565b0390f35b50346101dc5760403660031901126101dc576040600160a060020a0391826106126135ab565b16815260036020528181206024358252602052206105e8815491600181015493600282015416906106456003820161379d565b61065d60056106566004850161379d565b930161379d565b9260405196879687613a4c565b50346101dc5760603660031901126101dc576106846135ab565b9061068d6135c6565b91600160a060020a036010541660405160e360020a6317c75205028152600160a060020a03851660048201528381602481855afa9081156112215760019161014091869161128d575b50015115150361124657602483600160a060020a03601154166040519283809260e060020a63244723b1028252600160a060020a03881660048301525afa9081156112215760206024928692839161122c575b500151926040519283809260e360020a6317c75205028252600160a060020a038a1660048301525afa908115611221579060a0918591611207575b50015160405191610774836135dc565b428352600160a060020a03861660208401528460408401523360608401528460808401528460a08401528460c084015260e08301528361010083015261012082015242610140820152826101608201526044356101808201526107d5613e2e565b6101a0820152600160a060020a0382168352600460205260408320428452602052604083209080518255600160a060020a03602082015116600160a060020a031960018401541617600183015560028201600160a060020a03604083015116600160a060020a031982541617905560038201600160a060020a03606083015116600160a060020a03198254161790556108ac60048301600160a060020a03608084015116600160a060020a031982541617815561089860a0840151151582613e67565b60c0830151906108a782613842565b613ea8565b60e081015180519067ffffffffffffffff82116111755781906108df826108d6600588015461375f565b60058801613ef2565b602090601f831160011461119757879261118c575b5050816002029160080260020a6000190419161760058301555b60068201600160a060020a0361010083015116600160a060020a031982541617905561012081015180519067ffffffffffffffff82116111755761096282610959600787015461375f565b60078701613ef2565b602090601f8311600114611101576101a09392918791836110f6575b5050816002029160080260020a6000190419161760078401555b61014081015160088401556109be6101608201516109b581613842565b60098501613f46565b610180810151600a840155015180519067ffffffffffffffff8211610f9a576109f7826109ee600b86015461375f565b600b8601613ef2565b602090601f831160011461108657600b929186918361107b575b5050816002029160080260020a600019041916179101555b81600160a060020a036024816011541693604051948593849260e060020a63244723b10284521660048301525afa908115610e7a57906020918391611059575b50015191602482600160a060020a03601054166040519283809260e360020a6317c75205028252600160a060020a03871660048301525afa90811561104e579060a091849161102c575b50015160405193610ac3856135dc565b428552600160a060020a03831660208601528360408601523360608601528360808601528360a08601528360c086015260e0850152826101008501526101208401524261014084015281610160840152604435610180840152610b24613e2e565b6101a0840152428252600560205260408220928051845560018401600160a060020a03602083015116600160a060020a031982541617905560028401600160a060020a03604083015116600160a060020a031982541617905560038401600160a060020a03606083015116600160a060020a0319825416179055610bd260048501600160a060020a03608084015116600160a060020a031982541617815561089860a0840151151582613e67565b60e081015180519067ffffffffffffffff8211610f9a578190610c0582610bfc60058a015461375f565b60058a01613ef2565b602090601f8311600114610fbc578692610fb1575b5050816002029160080260020a6000190419161760058501555b60068401600160a060020a0361010083015116600160a060020a031982541617905561012081015180519067ffffffffffffffff8211610f9a57610c8882610c7f600789015461375f565b60078901613ef2565b602090601f8311600114610f26576101a0939291869183610f1b575b5050816002029160080260020a6000190419161760078601555b6101408101516008860155610ce4610160820151610cdb81613842565b60098701613f46565b610180810151600a860155015192835167ffffffffffffffff8111610f0457610d1d81610d14600b85015461375f565b600b8501613ef2565b6020601f8211600114610e94579080600b9286978792610e89575b5050816002029160080260020a600019041916179101555b600160a060020a0360105416803b15610e85576040517f02c7739b000000000000000000000000000000000000000000000000000000008152600160a060020a039290921660048301526044803560248401528391839190829084905af18015610e7a57610e66575b505060085468010000000000000000811015610e4d576001810180600855811015610e3457600860005242907ff3f7a9fe364faab93b216da50a3214154f22a0a2b415b23a84c8169e8b636ee30155600b546000198114610e1d57600101600b5580f35b60248260e060020a634e487b710281526011600452fd5b60e060020a634e487b7102600052603260045260246000fd5b60e060020a634e487b7102600052604160045260246000fd5b610e6f906135f9565b6101dc578038610db9565b6040513d84823e3d90fd5b5050fd5b015190503880610d38565b600b830185526020852095855b601f1984168110610eec5750828697600193600293600b96601f19811610610ed1575b5050500201910155610d50565b01516008601f841602840a6000190419169055388080610ec4565b82820151885560019097019660209283019201610ea1565b60248460e060020a634e487b710281526041600452fd5b015190503880610ca4565b906007870186526020862091865b601f1985168110610f825750926001926002926101a0969583601f19811610610f67575b50505002016007860155610cbe565b01516008601f841602840a6000190419169055388080610f58565b91926020600181928685015181550194019201610f34565b60248560e060020a634e487b710281526041600452fd5b015190503880610c1a565b600588018752602087209250865b601f19851681106110145750918391600293600195601f19811610610ff9575b50505002016005850155610c34565b01516008601f841602840a6000190419169055388080610fea565b91926020600181928685015181550194019201610fca565b61104891503d8086833e6110408183613662565b810190613bd2565b38610ab3565b6040513d85823e3d90fd5b61107591503d8085833e61106d8183613662565b810190613d72565b38610a69565b015190503880610a11565b90600b840186526020862091865b601f19851681106110de575092600192600292600b9583601f198116106110c3575b5050500201910155610a29565b01516008601f841602840a60001904191690553880806110b6565b91926020600181928685015181550194019201611094565b01519050388061097e565b906007850187526020872091875b601f198516811061115d5750926001926002926101a0969583601f19811610611142575b50505002016007840155610998565b01516008601f841602840a6000190419169055388080611133565b9192602060018192868501518155019401920161110f565b60248660e060020a634e487b710281526041600452fd5b0151905038806108f4565b600586018852602088209250875b601f19851681106111ef5750918391600293600195601f198116106111d4575b5050500201600583015561090e565b01516008601f841602840a60001904191690553880806111c5565b919260206001819286850151815501940192016111a5565b61121b91503d8087833e6110408183613662565b38610764565b6040513d86823e3d90fd5b61124091503d8085833e61106d8183613662565b38610729565b606460405160e560020a62461bcd02815260206004820152601b60248201527f506c6561736520726567697374657220646f6e6f7220666972737400000000006044820152fd5b6112a191503d8088833e6110408183613662565b386106d6565b50346101dc57806003193601126101dc576020600160a060020a0360115416604051908152f35b50346101dc5760a03660031901126101dc576004356112eb6135c6565b9060443567ffffffffffffffff811161180e5761130c9036906004016136a0565b60643567ffffffffffffffff811161180a5761132c9036906004016136a0565b9260843567ffffffffffffffff81116118065761134d9036906004016136a0565b90600160a060020a0360248782601154166040519283809260e060020a63244723b10282523360048301525afa80156117fb576113969189916117e1575b505182163314613f5e565b3387526004602052604087208588526020526113c7600160ff600960408b200154166113c181613842565b14613fd2565b33875260046020526040872085885260205261142f61142a6113ee600b60408b200161379d565b604051906113fb82613646565b600882527f41434345505445440000000000000000000000000000000000000000000000006020830152613b1a565b613fd2565b3387526004602052604087208588526020528060026040892001921692600160a060020a03199284848254161790553388526004602052604088208689526020526009604089200160ff199060028282541617905586895260056020526002600960408b2082810188888254161790550191825416179055604051966114b48861362a565b428852602088019687526040880194855260608801958652608088015260a087015233875260036020526040872042885260205260408720948651865551600186015560028501925116908254161790555180519067ffffffffffffffff8211610f9a5781906115348261152b600387015461375f565b60038701613ef2565b602090601f8311600114611771578692611766575b5050816002029160080260020a6000190419161760038201555b608082015180519067ffffffffffffffff8211610f9a576115948261158b600486015461375f565b60048601613ef2565b602090601f83116001146116f157918060a0949260059488926116e6575b5050816002029160080260020a6000190419161760048201555b0191015180519067ffffffffffffffff8211610f045781906115f8826115f2865461375f565b86613ef2565b602090601f831160011461167f578592611674575b5050816002029160080260020a6000190419161790555b600a5468010000000000000000811015610e4d576001810180600a55811015610e3457600a60005242907fc65a7bb8d6351c1cf70c95a316cc6a92839c986682d98bc35f958f4883f9d2a8015580f35b01519050388061160d565b848652602086209250601f198416865b8181106116ce575091600293918560019694106116b3575b50505002019055611624565b01516008601f841602840a60001904191690553880806116a7565b9293602060018192878601518155019501930161168f565b0151905038806115b2565b906004840186526020862091865b601f198516811061174e57508360a09593600193600293600597601f19811610611733575b505050020160048201556115cc565b01516008601f841602840a6000190419169055388080611724565b919260206001819286850151815501940192016116ff565b015190503880611549565b600385018752602087209250865b601f19851681106117c95750918391600293600195601f198116106117ae575b50505002016003820155611563565b01516008601f841602840a600019041916905538808061179f565b9192602060018192868501518155019401920161177f565b6117f591503d808b833e61106d8183613662565b3861138b565b6040513d8a823e3d90fd5b8580fd5b8480fd5b8380fd5b50346101dc57806003193601126101dc57604051600880548083529083526020808301937ff3f7a9fe364faab93b216da50a3214154f22a0a2b415b23a84c8169e8b636ee392915b82821061187d576105e88561187181890382613662565b60405191829182613956565b83548652948501946001938401939091019061185a565b50346101dc576118a3366136e7565b90600160a060020a0391827f0000000000000000000000000000000000000000000000000000000000000000163303611949576118e09082613a9e565b1561190257168152600160205260026040822001600160ff1982541617905580f35b606460405160e560020a62461bcd02815260206004820152601960248201527f496e76616c6964206c6f67696e2063726564656e7469616c73000000000000006044820152fd5b606460405160e560020a62461bcd02815260206004820152601f60248201527f5265737472696374656420746f2073797374656d206f776e6572206f6e6c79006044820152fd5b50346101dc5760203660031901126101dc576004358152600660205260408120805490600160a060020a03908160018201541691806002830154169060038301541660048301549160ff600660058601549501541694604051968752602087015260408601526060850152608084015260a08301526002811015611a195760e0925060c0820152f35b60248360e060020a634e487b710281526021600452fd5b50346101dc57806003193601126101dc576020600160a060020a0360135416604051908152f35b50346101dc5760403660031901126101dc576040600160a060020a039182611a7d6135ab565b1681526003602052818120602435825260205220906105e8604051611aa18161362a565b8354815260018401549260208201938452806002860154169460408301958652611acd6003820161379d565b9160608401928352611af46005611ae66004850161379d565b93608087019485520161379d565b938460a0820152519551965116915190519160405196879687613a4c565b50346101dc5760203660031901126101dc576004359067ffffffffffffffff82116101dc57611b94611b5f6020611b4c36600487016136a0565b8160405193828580945193849201613865565b81016007815203019020611b728161379d565b9060ff6002600183015492015416604051938493606085526060850190613888565b916020840152611ba381613842565b60408301520390f35b50346101dc5760403660031901126101dc576020906105e86040600160a060020a039283611bd86135ab565b16815260028552818120602435825285522091825492600181015490611c8c8360028301541693600383015416611c7e611c146004850161379d565b611c70611c236005870161379d565b91611c306006880161379d565b94600788015499611c48600960088b01549a0161379d565b996040519e8f9e8f908152015260408d015260608c01526101408060808d01528b0190613888565b9089820360a08b0152613888565b9087820360c0890152613888565b9260e0860152610100850152838203610120850152613888565b50346101dc5760e03660031901126101dc5760243567ffffffffffffffff81116101d857611cd89036906004016136a0565b60443567ffffffffffffffff81116125d857611cf89036906004016136a0565b9060643567ffffffffffffffff811161180e57611d199036906004016136a0565b9060c43567ffffffffffffffff811161180a57611d3a9036906004016136a0565b91602485600160a060020a03601154166040519283809260e060020a63244723b10282523360048301525afa80156125ef57611d8991879161282e575b5051600160a060020a03163314613f5e565b3385526004602052604085206004358652602052611dba60ff600960408820015416611db481613842565b15613fd2565b3385526004602052604085206004358652602052600160a060020a03600160408720015416156127e75733855260046020526040852060043586526020526003604086200133600160a060020a0319825416179055338552600460205260408520600435865260205260076040862001825167ffffffffffffffff811161267257611e4f81611e49845461375f565b84613ef2565b806020601f821160011461277f578891612774575b50816002029160080260020a6000190419161790555b338552600460205260408520600435865260205260096040862001600160ff198254161790553385526004602052604085206004358652602052600b6040862001835167ffffffffffffffff811161267257611eda81611e49845461375f565b806020601f821160011461270c578891612701575b50816002029160080260020a6000190419161790555b600435855260056020526040852060038101805473ffffffffffffffffffffffffffffffffffffffff191633179055825167ffffffffffffffff811161267257611f5f81611f56600785015461375f565b60078501613ef2565b6020601f82116001146126945790806007928991612689575b50816002029160080260020a600019041916179101555b600435855260056020526040852060098101805460ff19166001179055835167ffffffffffffffff811161267257611fce81610d14600b85015461375f565b6020601f8211600114612605579080600b9289916125fa575b50816002029160080260020a600019041916179101555b600160a060020a0360105416338652600460205260408620600435875260205285600160a060020a03600160408320015416823b156101d8576040519283917f65837dca00000000000000000000000000000000000000000000000000000000835260048301526040602483015281838161207c604482018a613888565b03925af180156125ef576125dc575b5084600160a060020a03601054163382526004602052604082206004358352602052600160a060020a0360016040842001541690803b156125d8576040517f6d0a1c38000000000000000000000000000000000000000000000000000000008152600160a060020a039290921660048084019190915235602483015282908290604490829084905af18015610e7a576125c4575b50503385526004602052604085206004358652602052600160a060020a0360016040872001541693604051946121548661360d565b42865260043560208701526040860152336060860152608085015260a084015260c083015260843560e083015260a43561010083015261012082015233825260026020526040822042835260205260408220815181556020820151600182015560028101600160a060020a03604084015116600160a060020a031982541617905560038101600160a060020a03606084015116600160a060020a0319825416179055608082015180519067ffffffffffffffff8211610f9a57819061222982612220600487015461375f565b60048701613ef2565b602090601f8311600114612554578692612549575b5050816002029160080260020a6000190419161760048201555b60a082015180519067ffffffffffffffff8211610f9a57819061228b82612282600587015461375f565b60058701613ef2565b602090601f83116001146124d95786926124ce575b5050816002029160080260020a6000190419161760058201555b60c082015180519067ffffffffffffffff8211610f9a576122eb826122e2600686015461375f565b60068601613ef2565b602090601f83116001146124585791806101209492600994889261244d575b5050816002029160080260020a6000190419161760068201555b60e0840151600782015561010084015160088201550191015180519067ffffffffffffffff8211610f0457819061235f826115f2865461375f565b602090601f83116001146123e65785926123db575b5050816002029160080260020a6000190419161790555b60095468010000000000000000811015610e4d576001810180600955811015610e3457600960005242907f6e1540171b6c0c960b71a7020d9f60077f6af931a8bbf590da0223dacf75c7af015580f35b015190503880612374565b848652602086209250601f198416865b8181106124355750916002939185600196941061241a575b5050500201905561238b565b01516008601f841602840a600019041916905538808061240e565b929360206001819287860151815501950193016123f6565b01519050388061230a565b906006840186526020862091865b601f19851681106124b65750836101209593600193600293600997601f1981161061249b575b50505002016006820155612324565b01516008601f841602840a600019041916905538808061248c565b91926020600181928685015181550194019201612466565b0151905038806122a0565b600585018752602087209250865b601f19851681106125315750918391600293600195601f19811610612516575b505050020160058201556122ba565b01516008601f841602840a6000190419169055388080612507565b919260206001819286850151815501940192016124e7565b01519050388061223e565b600485018752602087209250865b601f19851681106125ac5750918391600293600195601f19811610612591575b50505002016004820155612258565b01516008601f841602840a6000190419169055388080612582565b91926020600181928685015181550194019201612562565b6125cd906135f9565b61180a57843861211f565b8280fd5b6125e8909591956135f9565b933861208b565b6040513d88823e3d90fd5b905086015138611fe7565b600b830188526020882090885b601f198416811061265a575082600192600292600b95601f1981161061263f575b50500201910155611ffe565b8901516008601f841602840a60001904191690553880612633565b9091602060018192858b015181550193019101612612565b60248760e060020a634e487b710281526041600452fd5b905085015138611f78565b6007830188526020882090885b601f19841681106126e9575082600192600292600795601f198116106126ce575b50500201910155611f8f565b8801516008601f841602840a600019041916905538806126c2565b9091602060018192858a0151815501930191016126a1565b905085015138611eef565b838952602089209150885b601f198416811061275c57509160029160019382601f19811610612741575b505002019055611f05565b8801516008601f841602840a60001904191690553880612736565b9091602060018192858b015181550193019101612717565b905084015138611e64565b838952602089209150885b601f19841681106127cf57509160029160019382601f198116106127b4575b505002019055611e7a565b8701516008601f841602840a600019041916905538806127a9565b9091602060018192858a01518155019301910161278a565b606460405160e560020a62461bcd02815260206004820152601560248201527f496e76616c696420646f6e6f72206164647265737300000000000000000000006044820152fd5b61284291503d8089833e61106d8183613662565b38611d77565b50346101dc5760403660031901126101dc57600160a060020a0361286a6135ab565b16815260046020526040812060243582526020526040812090612977600b60405193612895856135dc565b80548552600160a060020a036001820154166020860152600160a060020a036002820154166040860152600160a060020a03600382015416606086015260ff60a860020a6004830154600160a060020a03811660808901528260a060020a820416151560a0890152041661290881613842565b60c08601526129196005820161379d565b60e0860152600160a060020a0360068201541661010086015261293e6007820161379d565b610120860152600881015461014086015260ff60098201541661296081613842565b610160860152600a8101546101808601520161379d565b6101a08301528151600160a060020a0360208401511691602481600160a060020a03601054166040519283809260e360020a6317c752050282528860048301525afa918215612a7c579081602093612a61575b50500151926040810151600160a060020a0316906060810151600160a060020a03166080820151600160a060020a031660a0830151151560c0840151612a0f81613842565b610100850151600160a060020a03169060e086015190610120870151936101408801519561016089015197612a4389613842565b6101808a0151996101a001519a6040519e8f9e8f9e6105e89f613991565b612a7592503d8091833e6110408183613662565b38806129ca565b604051903d90823e3d90fd5b50346101dc57806003193601126101dc576020600c54604051908152f35b50346101dc57806003193601126101dc57604051600980548083529083526020808301937f6e1540171b6c0c960b71a7020d9f60077f6af931a8bbf590da0223dacf75c7af92915b828210612b05576105e88561187181890382613662565b835486529485019460019384019390910190612aee565b50346101dc5760203660031901126101dc5760409060043581526005602052208054906105e8600160a060020a03806001840154169281600282015416948260038301541692600483015490612b746005850161379d565b8160068601541690612b886007870161379d565b9260088701549460ff60098901541696612ba9600b600a8b01549a0161379d565b996040519d8e9d8e9360ff60a860020a8704169660ff60a060020a8804169616946138ad565b50346101dc5760203660031901126101dc576004356008548110156101d8576008602092527ff3f7a9fe364faab93b216da50a3214154f22a0a2b415b23a84c8169e8b636ee30154604051908152f35b50346101dc57612c2e3661372a565b9190602484600160a060020a03601154166040519283809260e060020a63244723b10282523360048301525afa801561305a57612c7d918691613046575051600160a060020a03163314613f5e565b600160a060020a0381168452600460205260408420828552602052604084209260056020526040852091600160ff60a860020a60048601540416612cc081613842565b03612fd957600160a060020a03908183168219600688015416176006870155750200000000000000000000000000000000000000000075ff0000000000000000000000000000000000000000001960048801541617600487015516855260046020526040852083865260205260408520848103612ea4575b50600160a060020a03600683019116600160a060020a03198254161790556004750200000000000000000000000000000000000000000075ff000000000000000000000000000000000000000000198284015416179101558252600560205260408220818103612da6578280f35b600b80836103a19454845560018401600160a060020a03600183015416600160a060020a031982541617905560028401600160a060020a03600283015416600160a060020a031982541617905560038401600160a060020a03600383015416600160a060020a0319825416179055612e6360048501600160a060020a03600484015416600160a060020a0319825416178155612e4f60ff60a060020a6004860154041682613e67565b60ff60a860020a6004850154041690613ea8565b612e736005820160058601614020565b60068401600160a060020a03600683015416600160a060020a03198254161790556103716007820160078601614020565b612fd3908554815560018101600160a060020a03600188015416600160a060020a031982541617905560028101600160a060020a03600288015416600160a060020a031982541617905560038101600160a060020a03600388015416600160a060020a0319825416179055612f5e60048201600160a060020a03600489015416600160a060020a0319825416178155612f4a60ff60a060020a60048b0154041682613e67565b60ff60a860020a60048a0154041690613ea8565b612f6e6005870160058301614020565b60068101600160a060020a03600688015416600160a060020a0319825416179055612f9f6007870160078301614020565b60088601546008820155612fbd60ff60098801541660098301613f46565b600a860154600a820155600b8087019101614020565b38612d38565b608460405160e560020a62461bcd02815260206004820152602a60248201527f54686973207472616e73616374696f6e2073686f756c6420626520726571756560448201527f73746564206669727374000000000000000000000000000000000000000000006064820152fd5b61284291503d8088833e61106d8183613662565b6040513d87823e3d90fd5b50346101dc5760203660031901126101dc57600435815260056020526040812090613098600b60405193612895856135dc565b6101a08301528151600160a060020a0360208401511691602481600160a060020a03601054166040519283809260e360020a6317c752050282528860048301525afa918215612a7c579081602093613163575b50500151926040810151600160a060020a0316906060810151600160a060020a03166080820151600160a060020a031660a0830151151560c084015161313081613842565b60e0850151610100860151600160a060020a031691610120870151936101408801519561016089015197612a4389613842565b61317792503d8091833e6110408183613662565b38806130eb565b50346101dc57806003193601126101dc57604051600a80548083529083526020808301937fc65a7bb8d6351c1cf70c95a316cc6a92839c986682d98bc35f958f4883f9d2a892915b8282106131dd576105e88561187181890382613662565b8354865294850194600193840193909101906131c6565b50346101dc5760403660031901126101dc576040600160a060020a03918261321a6135ab565b16815260046020528181206024358252602052206105e8815492806001840154169281600282015416948260038301541692600483015490612b746005850161379d565b50346101dc57806003193601126101dc576020600160a060020a0360125416604051908152f35b50346101dc576132943661372a565b9190602484600160a060020a03601154166040519283809260e060020a63244723b10282523360048301525afa801561305a576132e3918691613046575051600160a060020a03163314613f5e565b600160a060020a038116845260046020526040842082855260205260408420926005602052600460408620019160ff60a860020a8454041661332481613842565b61348857600160a060020a0360a860020a928175ff00ffffffffffffffffffffffffffffffffffffffff1993858284168660048c015416171760048a0155168852600460205260408820868952602052604088208781036133a0575b50169083541617179055825260056020526040822081810361028f578280f35b6134829088548155600181018460018b0154169085199182825416179055600282018560028c01541682825416179055600382018560038c0154168282541617905561341b8a60ff896004808701938a8282015416878654161785556134118460a060020a84840154041686613e67565b0154041690613ea8565b61342b60058b0160058401614020565b60068201908560068c0154169082541617905561344e60078a0160078301614020565b6008890154600882015561346c60ff60098b01541660098301613f46565b600a890154600a820155600b808a019101614020565b38613380565b608460405160e560020a62461bcd02815260206004820152602160248201527f54686973207472616e73616374696f6e206973206e6f7420417661696c61626c60448201527f65000000000000000000000000000000000000000000000000000000000000006064820152fd5b50346101dc57806003193601126101dc576020600b54604051908152f35b50346101dc57806003193601126101dc576020600160a060020a0360105416604051908152f35b50346101dc57602061355461354e366136e7565b90613a9e565b6040519015158152f35b9050346101d85760203660031901126101d8576004356009548110156125d8576009602093527f6e1540171b6c0c960b71a7020d9f60077f6af931a8bbf590da0223dacf75c7af01548152f35b60043590600160a060020a03821682036135c157565b600080fd5b60243590600160a060020a03821682036135c157565b6101c0810190811067ffffffffffffffff821117610e4d57604052565b67ffffffffffffffff8111610e4d57604052565b610140810190811067ffffffffffffffff821117610e4d57604052565b60c0810190811067ffffffffffffffff821117610e4d57604052565b6040810190811067ffffffffffffffff821117610e4d57604052565b90601f8019910116810190811067ffffffffffffffff821117610e4d57604052565b67ffffffffffffffff8111610e4d57601f01601f191660200190565b81601f820112156135c1578035906136b782613684565b926136c56040519485613662565b828452602083830101116135c157816000926020809301838601378301015290565b9060406003198301126135c157600435600160a060020a03811681036135c157916024359067ffffffffffffffff82116135c157613727916004016136a0565b90565b60609060031901126135c15760043590600160a060020a039060243582811681036135c1579160443590811681036135c15790565b9060016002830492168015613793575b602083101461377a57565b60e060020a634e487b7102600052602260045260246000fd5b91607f169161376f565b90604051918260008254926137b18461375f565b90818452600194858116908160001461382057506001146137dd575b50506137db92500383613662565b565b9093915060005260209081600020936000915b8183106138085750506137db935082010138806137cd565b855488840185015294850194879450918301916137f0565b9150506137db94506020925060ff1916828401521515810282010138806137cd565b6003111561384c57565b60e060020a634e487b7102600052602160045260246000fd5b60005b8381106138785750506000910152565b8181015183820152602001613868565b906020916138a181518092818552858086019101613865565b601f01601f1916010190565b9a9c9995909261391694956137279f9d9a989360608e9161392c9c978352600160a060020a03998a8096818094166020870152166040850152169101521660808c0152151560a08b015261390081613842565b60c08a01526101c08060e08b0152890190613888565b9216610100870152858203610120870152613888565b9461014084015261393c81613842565b6101608301526101808201526101a0818403910152613888565b6020908160408183019282815285518094520193019160005b82811061397d575050505090565b83518552938101939281019260010161396f565b9b9d9a9690926137279f9d9a9892968d60806139d899613a0c99613a229e988452600160a060020a03809c81978280951660208801526101e0806040890152870190613888565b9a166060850152169101521660a08d0152151560c08c01526139f981613842565b60e08b01528982036101008b0152613888565b9216610120870152858203610140870152613888565b94610160840152613a3281613842565b6101808301526101a08201526101c0818403910152613888565b949193600160a060020a03613a90946137279896613a82948952602089015216604087015260c0606087015260c0860190613888565b908482036080860152613888565b9160a0818403910152613888565b90600160a060020a03613ac992166000526001602052613ac4600160406000200161379d565b613b1a565b15613ad357600190565b606460405160e560020a62461bcd02815260206004820152601b60248201527f496e76616c69642061646472657373206f722070617373776f726400000000006044820152fd5b9060405191602092613b48848281613b3b8183019687815193849201613865565b8101038084520182613662565b51902091613b68604051918281613b3b8183019687815193849201613865565b5190201490565b5190600160a060020a03821682036135c157565b81601f820112156135c1578051613b9981613684565b92613ba76040519485613662565b818452602082840101116135c1576137279160208085019101613865565b519081151582036135c157565b602080828403126135c157815167ffffffffffffffff928382116135c15701906101c0828503126135c15760405193613c0a856135dc565b613c1383613b6f565b8552818301518481116135c15781613c2c918501613b83565b82860152604083015160408601526060830151606086015260808301518481116135c15781613c5c918501613b83565b608086015260a08301518481116135c15781613c79918501613b83565b60a086015260c08301518481116135c15781613c96918501613b83565b60c086015260e08301518481116135c15781613cb3918501613b83565b60e086015261010080840151908601526101208084015190860152610140613cdc818501613bc5565b90860152610160613cee818501613bc5565b90860152610180613d00818501613bc5565b908601526101a09283810151908582116135c1570181601f820112156135c1578051948511610e4d578285029060405195613d3d85840188613662565b865283808701928201019283116135c1578301905b828210613d63575050505082015290565b81518152908301908301613d52565b6020818303126135c157805167ffffffffffffffff918282116135c157019160c0838203126135c15760405192613da88461362a565b613db181613b6f565b845260208101518381116135c15782613dcb918301613b83565b602085015260408101518381116135c15782613de8918301613b83565b604085015260608101519283116135c157613e0a60a092613e26948301613b83565b6060850152613e1b60808201613bc5565b608085015201613bc5565b60a082015290565b60405190613e3b82613646565b600982527f4e6f20526573756c7400000000000000000000000000000000000000000000006020830152565b9074ff000000000000000000000000000000000000000060a060020a835492151502169074ff00000000000000000000000000000000000000001916179055565b90613eb281613842565b75ff00000000000000000000000000000000000000000060a860020a83549202169075ff0000000000000000000000000000000000000000001916179055565b90601f8111613f0057505050565b60009182526020822090602080601f86010483019410613f3c575b601f602091010401915b828110613f3157505050565b818155600101613f25565b9092508290613f1b565b90613f5081613842565b60ff80198354169116179055565b15613f6557565b608460405160e560020a62461bcd02815260206004820152602a60248201527f4f6e6c79206d65646963616c2073746166662063616e20706572666f726d207460448201527f68697320616374696f6e000000000000000000000000000000000000000000006064820152fd5b15613fd957565b606460405160e560020a62461bcd02815260206004820152601a60248201527f496e76616c6964207472616e73616374696f6e207374617475730000000000006044820152fd5b908082146140fa57614032815461375f565b9067ffffffffffffffff8211610e4d578190614052826115f2865461375f565b600090601f831160011461408b57600092614080575b5050816002029160080260020a600019041916179055565b015490503880614068565b81526020808220858352818320935090601f1985169083905b8282106140e157505091600293918560019694106140c6575b50505002019055565b01546008601f841602840a60001904191690553880806140bd565b84958192958501548155600180910196019401906140a4565b505056fea26469706673582212209266975fd3d99c27a14637d0be3b633e44cdb460421a8a3cbdfb32fc55fda9e664736f6c63430008130033",
  "immutableReferences": {
    "3": [
      {
        "length": 32,
        "start": 6320
      }
    ]
  },
  "source": "// SPDX-License-Identifier: MIT\npragma solidity ^0.8.19;\nimport \"./DonorContract.sol\";\nimport \"./MedicalCenters.sol\";\nimport \"./TransportContract.sol\";\nimport \"./AccessControl.sol\";\nimport \"./CollectionPointContract.sol\";\n\n/**\n    @title Blood Donation Blockchain-based System\n    @author Josephat E. Temba\n    @notice You can use this smart contract in real blood donation operations\n    @dev This is best aproach for developers to learn how real dapp looking for\n    @custom:fyp This is the final year project for cive students\n */\n\ncontract BloodDonationBlockchainSystem is AccessControl {\n    enum TransactionStatus { Shipped, Active, Fullfilled }\n    enum TransportationStatus { InTransit, Delivered }\n    enum BloodSupplyStatus { Available, Requested, Approved }\n\n    /// @dev create system account structure\n    struct SystemOwner {\n        address sysOwner;\n        string password /*audit*/;\n        bool isLogin;\n    }\n\n    struct DonationTransaction {\n        uint256 transactionID;\n        address donor;\n        address recipient;\n        address medicalStaff;\n        address requester;\n        bool isSupplied;\n        BloodSupplyStatus supplyStatus;\n        string medicalCenterName;\n        address transporter;\n        string bloodType;\n        uint256 donationDate;\n        TransactionStatus status;\n        uint256 donatedVolume;\n        string bloodTestResult;\n    }\n\n    struct MedicalRecord {\n        uint256 recordID;\n        uint256 transactionID;\n        address donor;\n        address medicalStaff;\n        string HIV;\n        string liverFever;\n        string bloodType;\n        uint256 bloodPressure;\n        uint256 hemoglobinLevel;\n        string bloodTestResults;\n    }\n\n    struct Recipient {\n        uint256 recipientID;\n        uint256 transactionID;\n        address recipientAddress;\n        string recipientName;\n        string recipientPhoneNumber;\n        string bloodType;\n    }\n\n    struct TransportationRecord {\n        uint256 recordID;\n        address transporter;\n        address donor;\n        address recipient;\n        uint256 pickupDateTime;\n        uint256 deliveryDateTime;\n        TransportationStatus status;\n    }\n\n    struct BloodSupply {\n        string bloodType;\n        uint256 volume;\n        BloodSupplyStatus status;\n    }\n\n    mapping(address => SystemOwner) private sysOwnerMap;\n    \n    mapping(address => mapping(uint256 => MedicalRecord)) public medicalRecords;\n    mapping(address => mapping(uint256 => Recipient)) public recipients;\n    mapping(address => mapping(uint256 => DonationTransaction)) public donationTransactions;\n    mapping(uint256 => DonationTransaction) public allDonationTransactions;\n\n    mapping(uint256 => TransportationRecord) public transportationRecords;\n    mapping(string => BloodSupply) public bloodSupplies;\n\n    uint256[] public donationTransactionsArr;\n    uint256[] public medicalRecordsArr;\n    uint256[] public recipientArr;\n\n    uint256 public transactionCounter;\n    uint256 public recordCounter;\n\n    // modifier onlyTransporter() {\n    //     require(\n    //         transporters[msg.sender].transporterPublicAddress == msg.sender,\n    //         \"Only transporters can perform this action\"\n    //     );\n    //     _;\n    // }\n\n    SystemOwner private sysowner;\n\n    DonorContract public donorContract;\n    MedicalCenters public medicalCenter;\n    TransportContract public transportContract;\n    CollectionPointContract public collectionPoint;\n\n    constructor(address _donorContractAddress, address _medicalCenter, address _transAddress, address collectionPointAddress_) {\n        sysowner = SystemOwner(owner, \"admin\", false);\n        sysOwnerMap[owner] = sysowner;\n        donorContract = DonorContract(_donorContractAddress);\n        medicalCenter = MedicalCenters(_medicalCenter);\n        transportContract = TransportContract(_transAddress);\n        collectionPoint = CollectionPointContract(collectionPointAddress_);\n    }\n\n    modifier onlyMedicalStaff() {\n        require(\n            medicalCenter.readMedicalCenter(msg.sender).MCPublicAddress == msg.sender,\n            \"Only medical staff can perform this action\"\n        );\n        _;\n    }\n\n    function checkSystemOwnerLogin(address _SYSPublicAddress, string memory _password) public view returns (bool) {\n        // require(!medicalsCenters[_MCPublicAddress].isLogin, \"You're already logged in\");\n        require(compareString(sysOwnerMap[_SYSPublicAddress].password, _password), \"Invalid address or password\");\n\n        return true;\n    }\n\n    function systemOwnerLogin(address _MCPublicAddress, string memory _password) public onlyOwner() {\n        require(checkSystemOwnerLogin(_MCPublicAddress, _password), \"Invalid login credentials\");\n\n        sysOwnerMap[_MCPublicAddress].isLogin = true;\n    }\n\n    // ---------------- Start Donation initialization ---------------------\n    function donateBloodToMedicalCenter(\n        address _medicalCenterPublicAddress,\n        address _donorPublicAddress,\n        uint256 _volume\n    ) public {\n        require(\n            donorContract.readDonors(_donorPublicAddress).isRegistered == true,\n            \"Please register donor first\"\n        );\n\n        uint256 transactionID = block.timestamp;\n        donationTransactions[_medicalCenterPublicAddress][transactionID] = DonationTransaction({\n            transactionID: transactionID,\n            donor: _donorPublicAddress,\n            recipient: address(0),\n            medicalStaff: msg.sender,\n            requester: address(0),\n            isSupplied: false,\n            supplyStatus: BloodSupplyStatus.Available,\n            medicalCenterName: medicalCenter.readMedicalCenter(_medicalCenterPublicAddress).name,\n            transporter: address(0),\n            bloodType: donorContract.readDonors(_donorPublicAddress).bloodType,\n            donationDate: block.timestamp,\n            status: TransactionStatus.Shipped,\n            donatedVolume: _volume,\n            bloodTestResult: \"No Result\"\n        });\n        allDonationTransactions[transactionID] = DonationTransaction({\n            transactionID: transactionID,\n            donor: _donorPublicAddress,\n            recipient: address(0),\n            medicalStaff: msg.sender,\n            requester: address(0),\n            isSupplied: false,\n            supplyStatus: BloodSupplyStatus.Available,\n            medicalCenterName: medicalCenter.readMedicalCenter(_medicalCenterPublicAddress).name,\n            transporter: address(0),\n            bloodType: donorContract.readDonors(_donorPublicAddress).bloodType,\n            donationDate: block.timestamp,\n            status: TransactionStatus.Shipped,\n            donatedVolume: _volume,\n            bloodTestResult: \"No Result\"\n        });\n        donorContract.updateVolume(_donorPublicAddress, _volume);\n        donationTransactionsArr.push(transactionID);\n\n        // Increment the transaction count\n        transactionCounter++;\n    }\n\n    function getDonationTransactionArr()\n        public\n        view\n        returns (uint256[] memory)\n    {\n        return donationTransactionsArr;\n    }\n\n    function getDonationTransaction(\n        address _medicalCenterPublicAddress,\n        uint256 _transactionID\n    )\n        public\n        view\n        returns (\n            uint256 transactionID,\n            address donorPublicAddress,\n            string memory donorName,\n            address recipientPublicAddress,\n            address medicalStaff,\n            address requester,\n            bool isSupplied,\n            BloodSupplyStatus supplyStatus,\n            string memory medicalCenterName,\n            address transporterPublicAddress,\n            string memory bloodType,\n            uint256 donationDate,\n            TransactionStatus status,\n            uint256 donatedVolume,\n            string memory bloodTestResult\n        )\n    {\n        DonationTransaction memory donationTransaction = donationTransactions[_medicalCenterPublicAddress][_transactionID];\n        transactionID = donationTransaction.transactionID;\n        donorPublicAddress = donationTransaction.donor;\n        donorName = donorContract.readDonors(donationTransaction.donor).name;\n        recipientPublicAddress = donationTransaction.recipient;\n        medicalStaff = donationTransaction.medicalStaff;\n        requester = donationTransaction.requester;\n        isSupplied = donationTransaction.isSupplied;\n        supplyStatus = donationTransaction.supplyStatus;\n        transporterPublicAddress = donationTransaction.transporter;\n        medicalCenterName = donationTransaction.medicalCenterName;\n        bloodType = donationTransaction.bloodType;\n        donationDate = donationTransaction.donationDate;\n        status = donationTransaction.status;\n        donatedVolume = donationTransaction.donatedVolume;\n        bloodTestResult = donationTransaction.bloodTestResult;\n    }\n\n    function getAllDonationTransaction(\n        uint256 _transactionID\n    )\n        public\n        view\n        returns (\n            uint256 transactionID,\n            address donorPublicAddress,\n            string memory donorName,\n            address recipientPublicAddress,\n            address medicalStaff,\n            address requester,\n            bool isSupplied,\n            BloodSupplyStatus supplyStatus,\n            string memory medicalCenterName,\n            address transporterPublicAddress,\n            string memory bloodType,\n            uint256 donationDate,\n            TransactionStatus status,\n            uint256 donatedVolume,\n            string memory bloodTestResult\n        )\n    {\n        DonationTransaction memory allDonationTransaction = allDonationTransactions[_transactionID];\n        transactionID = allDonationTransaction.transactionID;\n        donorPublicAddress = allDonationTransaction.donor;\n        donorName = donorContract.readDonors(allDonationTransaction.donor).name;\n        recipientPublicAddress = allDonationTransaction.recipient;\n        medicalStaff = allDonationTransaction.medicalStaff;\n        requester = allDonationTransaction.requester;\n        isSupplied = allDonationTransaction.isSupplied;\n        supplyStatus = allDonationTransaction.supplyStatus;\n        medicalCenterName = allDonationTransaction.medicalCenterName;\n        transporterPublicAddress = allDonationTransaction.transporter;\n        bloodType = allDonationTransaction.bloodType;\n        donationDate = allDonationTransaction.donationDate;\n        status = allDonationTransaction.status;\n        donatedVolume = allDonationTransaction.donatedVolume;\n        bloodTestResult = allDonationTransaction.bloodTestResult;\n    }\n\n    // ---------------- End Donation initialization ---------------------\n\n    // ---------------- Start Complete Donation  ------------------------\n\n    function completeDonationToMedicalCenter(\n        uint256 _transactionID,\n        string memory _bloodType,\n        string memory _HIV,\n        string memory _liverFever,\n        uint256 _bloodPressure,\n        uint256 _hemoglobinLevel,\n        string memory _bloodTestResults\n    ) public onlyMedicalStaff {\n        require(\n            donationTransactions[msg.sender][_transactionID].status ==\n                TransactionStatus.Shipped,\n            \"Invalid transaction status\"\n        );\n        require(\n            donationTransactions[msg.sender][_transactionID].donor != address(0),\n            \"Invalid donor address\"\n        );\n\n        donationTransactions[msg.sender][_transactionID].medicalStaff = msg.sender;\n        donationTransactions[msg.sender][_transactionID].bloodType = _bloodType;\n        donationTransactions[msg.sender][_transactionID].status = TransactionStatus.Active;\n        donationTransactions[msg.sender][_transactionID].bloodTestResult = _bloodTestResults;\n        allDonationTransactions[_transactionID].medicalStaff = msg.sender;\n        allDonationTransactions[_transactionID].bloodType = _bloodType;\n        allDonationTransactions[_transactionID].status = TransactionStatus.Active;\n        allDonationTransactions[_transactionID].bloodTestResult = _bloodTestResults;\n        donorContract.updateDonorBloodType(donationTransactions[msg.sender][_transactionID].donor, _bloodType);\n        donorContract.updateDonationHistory(donationTransactions[msg.sender][_transactionID].donor, _transactionID);\n\n        uint256 recordID = block.timestamp;\n        medicalRecords[msg.sender][recordID] = MedicalRecord({\n            recordID: recordID,\n            transactionID: _transactionID,\n            donor: donationTransactions[msg.sender][_transactionID].donor,\n            bloodType: _bloodType,\n            HIV: _HIV,\n            liverFever: _liverFever,\n            medicalStaff: msg.sender,\n            bloodPressure: _bloodPressure,\n            hemoglobinLevel: _hemoglobinLevel,\n            bloodTestResults: _bloodTestResults\n            // donationHistory: new uint256[](0)\n        });\n        medicalRecordsArr.push(recordID);\n\n        // uint256 payment = calculatePayment(\n        //     donors[donationTransactions[_transactionID].donor].donatedVolume\n        // );\n        // uint256 payment = calculatePayment(_transactionID);\n        // donors[donationTransactions[_transactionID].donor]\n        //     .totalPayment += payment;\n        // payable(msg.sender).transfer(payment);\n    }\n\n    function fullFillBloodToRecipient(\n        uint256 _transactionID,\n        address _recipientAddress,\n        string memory _recipientName,\n        string memory _recipientPhoneNumber,\n        string memory _bloodType\n    ) public onlyMedicalStaff {\n        require(\n            donationTransactions[msg.sender][_transactionID].status ==\n                TransactionStatus.Active,\n            \"Invalid transaction status\"\n        );\n        require(compareString(donationTransactions[msg.sender][_transactionID].bloodTestResult, \"ACCEPTED\"), \"Invalid transaction status\");\n       /* require(\n            donationTransactions[msg.sender][_transactionID].donor != address(0),\n            \"Invalid donor address\"\n        ); */\n\n        donationTransactions[msg.sender][_transactionID].recipient = _recipientAddress;\n        donationTransactions[msg.sender][_transactionID].status = TransactionStatus.Fullfilled;\n        allDonationTransactions[_transactionID].recipient = _recipientAddress;\n        allDonationTransactions[_transactionID].status = TransactionStatus.Fullfilled;\n\n        uint256 recipientID = block.timestamp;\n        recipients[msg.sender][recipientID] = Recipient({\n            recipientID: recipientID,\n            transactionID: _transactionID,\n            recipientAddress: _recipientAddress,\n            recipientName: _recipientName,\n            recipientPhoneNumber: _recipientPhoneNumber,\n            bloodType: _bloodType\n        });\n\n        recipientArr.push(recipientID);\n    }\n\n    function getRecipientsArr()\n        public\n        view\n        returns (uint256[] memory)\n    {\n        return recipientArr;\n    }\n\n    function getRecipient(\n        address _medicalCenterAddress,\n        uint256 _recipientID\n    )\n        public\n        view\n        returns (\n            uint256 recipientID,\n            uint256 transactionID,\n            address recipientAddress,\n            string memory recipientName,\n            string memory recipientPhoneNumber,\n            string memory bloodType\n        )\n    {\n        Recipient memory recipient = recipients[_medicalCenterAddress][_recipientID];\n        recipientID = recipient.recipientID;\n        transactionID = recipient.transactionID;\n        recipientAddress = recipient.recipientAddress;\n        recipientName = recipient.recipientName;\n        recipientPhoneNumber = recipient.recipientPhoneNumber;\n        bloodType = recipient.bloodType;\n    }\n\n    function getMedicalRecordsArr()\n        public\n        view\n        returns (uint256[] memory)\n    {\n        return medicalRecordsArr;\n    }\n\n    function getMedicalRecord(\n        address _medicalCenterAddress,\n        uint256 _medicalRecordID\n    )\n        public\n        view\n        returns (\n            uint256 medicalRecordID,\n            uint256 transactionID,\n            address donorAddress,\n            string memory bloodType,\n            address medicalStaff,\n            uint256 bloodPressure,\n            uint256 hemoglobinLevel,\n            string memory bloodTestResult\n        )\n    {\n        MedicalRecord memory medicalRecord = medicalRecords[_medicalCenterAddress][\n            _medicalRecordID\n        ];\n        medicalRecordID = medicalRecord.recordID;\n        transactionID = medicalRecord.transactionID;\n        donorAddress = medicalRecord.donor;\n        bloodType = medicalRecord.bloodType;\n        medicalStaff = medicalRecord.medicalStaff;\n        bloodPressure = medicalRecord.bloodPressure;\n        hemoglobinLevel = medicalRecord.hemoglobinLevel;\n        bloodTestResult = medicalRecord.bloodTestResults;\n    }\n\n    // ---------------- End Complete Donation  ------------------------\n\n    // function calculatePayment(\n    //     uint256 _transactionID\n    // ) internal view returns (uint256) {\n    //     require(\n    //         donationTransactions[_transactionID].status ==\n    //             TransactionStatus.Completed,\n    //         \"Transaction not completed\"\n    //     );\n    //     // Assuming a fixed payment rate for simplicity\n    //     uint256 _donatedVolume = donationTransactions[_transactionID]\n    //         .donatedVolume;\n    //     uint256 paymentRate = 1 gwei; // 1gwei/ml\n    //     return _donatedVolume * paymentRate;\n    // }\n\n    function requestBloodSupply(uint256 _transactionID, address _medicalCenterPublicAddress , address requester_) external onlyMedicalStaff {\n        DonationTransaction storage donationTransaction = donationTransactions[_medicalCenterPublicAddress][_transactionID];\n        DonationTransaction storage allDonationTransaction = allDonationTransactions[_transactionID];\n        require(allDonationTransaction.supplyStatus == BloodSupplyStatus.Available, \"This transaction is not Available\");\n\n        donationTransaction.requester = requester_;\n        donationTransaction.supplyStatus = BloodSupplyStatus.Requested;\n        donationTransactions[_medicalCenterPublicAddress][_transactionID] = donationTransaction;\n\n        allDonationTransaction.requester = requester_;\n        allDonationTransaction.supplyStatus = BloodSupplyStatus.Requested;\n        allDonationTransactions[_transactionID] = donationTransaction;\n    }\n\n    function approvalBloodSupplied(uint256 _transactionID, address _medicalCenterPublicAddress, address transporterAddress_ ) external onlyMedicalStaff {\n\n        DonationTransaction storage donationTransaction = donationTransactions[_medicalCenterPublicAddress][_transactionID];\n        DonationTransaction storage allDonationTransaction = allDonationTransactions[_transactionID];\n        require(allDonationTransaction.supplyStatus == BloodSupplyStatus.Requested, \"This transaction should be requested first\");\n\n        donationTransaction.transporter = transporterAddress_;\n        donationTransaction.supplyStatus = BloodSupplyStatus.Approved;\n        donationTransactions[_medicalCenterPublicAddress][_transactionID] = donationTransaction;\n\n        allDonationTransaction.transporter = transporterAddress_;\n        allDonationTransaction.supplyStatus = BloodSupplyStatus.Approved;\n        allDonationTransactions[_transactionID] = donationTransaction;\n\n    }\n\n    function supply(address _medicalCenterPublicAddress, uint256 _transactionID) external {\n        DonationTransaction storage donationTransaction = donationTransactions[_medicalCenterPublicAddress][_transactionID];\n        DonationTransaction storage allDonationTransaction = allDonationTransactions[_transactionID];\n\n        donationTransaction.isSupplied = true;\n        donationTransactions[_medicalCenterPublicAddress][_transactionID] = donationTransaction;\n\n        allDonationTransaction.isSupplied = true;\n        allDonationTransactions[_transactionID] = donationTransaction;\n\n    }\n\n}\n",
  "sourcePath": "/home/temba/Desktop/blood-donation-blockchain-system/client-side/contracts/BloodDonationBlockchainSystem.sol",
  "compiler": {
    "name": "solc",
    "version": "0.8.19+commit.7dd6d404.Emscripten.clang"
  },
  "schemaVersion": "3.4.16",
  "updatedAt": "2024-03-19T11:23:38.493Z",
  "networkType": "ethereum",
  "devdoc": {
    "author": "Josephat E. Temba",
    "custom:fyp": "This is the final year project for cive students",
    "details": "This is best aproach for developers to learn how real dapp looking for",
    "kind": "dev",
    "methods": {},
    "title": "Blood Donation Blockchain-based System",
    "version": 1
  },
  "userdoc": {
    "kind": "user",
    "methods": {},
    "notice": "You can use this smart contract in real blood donation operations",
    "version": 1
  }
}