{
  "contractName": "BloodDonationBlockchainSystem",
  "abi": [
    {
      "inputs": [],
      "stateMutability": "nonpayable",
      "type": "constructor"
    },
    {
      "inputs": [
        {
          "internalType": "string",
          "name": "",
          "type": "string"
        }
      ],
      "name": "bloodSupplies",
      "outputs": [
        {
          "internalType": "string",
          "name": "bloodType",
          "type": "string"
        },
        {
          "internalType": "uint256",
          "name": "volume",
          "type": "uint256"
        },
        {
          "internalType": "enum BloodDonationBlockchainSystem.BloodSupplyStatus",
          "name": "status",
          "type": "uint8"
        }
      ],
      "stateMutability": "view",
      "type": "function",
      "constant": true
    },
    {
      "inputs": [
        {
          "internalType": "address",
          "name": "",
          "type": "address"
        },
        {
          "internalType": "uint256",
          "name": "",
          "type": "uint256"
        }
      ],
      "name": "donationTransactions",
      "outputs": [
        {
          "internalType": "uint256",
          "name": "transactionID",
          "type": "uint256"
        },
        {
          "internalType": "address",
          "name": "donor",
          "type": "address"
        },
        {
          "internalType": "address",
          "name": "recipient",
          "type": "address"
        },
        {
          "internalType": "address",
          "name": "medicalStaff",
          "type": "address"
        },
        {
          "internalType": "address",
          "name": "transporter",
          "type": "address"
        },
        {
          "internalType": "string",
          "name": "bloodType",
          "type": "string"
        },
        {
          "internalType": "uint256",
          "name": "donationDate",
          "type": "uint256"
        },
        {
          "internalType": "enum BloodDonationBlockchainSystem.TransactionStatus",
          "name": "status",
          "type": "uint8"
        },
        {
          "internalType": "string",
          "name": "medicalCenter",
          "type": "string"
        },
        {
          "internalType": "uint256",
          "name": "donatedVolume",
          "type": "uint256"
        },
        {
          "internalType": "string",
          "name": "bloodTestResult",
          "type": "string"
        }
      ],
      "stateMutability": "view",
      "type": "function",
      "constant": true
    },
    {
      "inputs": [
        {
          "internalType": "uint256",
          "name": "",
          "type": "uint256"
        }
      ],
      "name": "donationTransactionsArr",
      "outputs": [
        {
          "internalType": "uint256",
          "name": "",
          "type": "uint256"
        }
      ],
      "stateMutability": "view",
      "type": "function",
      "constant": true
    },
    {
      "inputs": [
        {
          "internalType": "uint256",
          "name": "",
          "type": "uint256"
        }
      ],
      "name": "donorAddressArr",
      "outputs": [
        {
          "internalType": "address",
          "name": "",
          "type": "address"
        }
      ],
      "stateMutability": "view",
      "type": "function",
      "constant": true
    },
    {
      "inputs": [
        {
          "internalType": "address",
          "name": "",
          "type": "address"
        }
      ],
      "name": "donors",
      "outputs": [
        {
          "internalType": "address",
          "name": "donorPublicAddress",
          "type": "address"
        },
        {
          "internalType": "string",
          "name": "name",
          "type": "string"
        },
        {
          "internalType": "string",
          "name": "bloodType",
          "type": "string"
        },
        {
          "internalType": "string",
          "name": "phoneNumber",
          "type": "string"
        },
        {
          "internalType": "string",
          "name": "password",
          "type": "string"
        },
        {
          "internalType": "uint256",
          "name": "donatedVolume",
          "type": "uint256"
        },
        {
          "internalType": "uint256",
          "name": "totalPayment",
          "type": "uint256"
        },
        {
          "internalType": "bool",
          "name": "isRegistered",
          "type": "bool"
        },
        {
          "internalType": "bool",
          "name": "isLogin",
          "type": "bool"
        }
      ],
      "stateMutability": "view",
      "type": "function",
      "constant": true
    },
    {
      "inputs": [
        {
          "internalType": "uint256",
          "name": "",
          "type": "uint256"
        }
      ],
      "name": "medicaCenterAddressArr",
      "outputs": [
        {
          "internalType": "address",
          "name": "",
          "type": "address"
        }
      ],
      "stateMutability": "view",
      "type": "function",
      "constant": true
    },
    {
      "inputs": [
        {
          "internalType": "address",
          "name": "",
          "type": "address"
        },
        {
          "internalType": "uint256",
          "name": "",
          "type": "uint256"
        }
      ],
      "name": "medicalRecords",
      "outputs": [
        {
          "internalType": "uint256",
          "name": "recordID",
          "type": "uint256"
        },
        {
          "internalType": "address",
          "name": "donor",
          "type": "address"
        },
        {
          "internalType": "address",
          "name": "medicalStaff",
          "type": "address"
        },
        {
          "internalType": "uint256",
          "name": "bloodPressure",
          "type": "uint256"
        },
        {
          "internalType": "uint256",
          "name": "hemoglobinLevel",
          "type": "uint256"
        },
        {
          "internalType": "string",
          "name": "bloodTestResults",
          "type": "string"
        }
      ],
      "stateMutability": "view",
      "type": "function",
      "constant": true
    },
    {
      "inputs": [
        {
          "internalType": "uint256",
          "name": "",
          "type": "uint256"
        }
      ],
      "name": "medicalRecordsArr",
      "outputs": [
        {
          "internalType": "uint256",
          "name": "",
          "type": "uint256"
        }
      ],
      "stateMutability": "view",
      "type": "function",
      "constant": true
    },
    {
      "inputs": [
        {
          "internalType": "address",
          "name": "",
          "type": "address"
        }
      ],
      "name": "medicalsCenters",
      "outputs": [
        {
          "internalType": "address",
          "name": "MCPublicAddress",
          "type": "address"
        },
        {
          "internalType": "string",
          "name": "name",
          "type": "string"
        },
        {
          "internalType": "string",
          "name": "phoneNumber",
          "type": "string"
        },
        {
          "internalType": "string",
          "name": "password",
          "type": "string"
        },
        {
          "internalType": "bool",
          "name": "isRegistered",
          "type": "bool"
        },
        {
          "internalType": "bool",
          "name": "isLogin",
          "type": "bool"
        }
      ],
      "stateMutability": "view",
      "type": "function",
      "constant": true
    },
    {
      "inputs": [],
      "name": "owner",
      "outputs": [
        {
          "internalType": "address",
          "name": "",
          "type": "address"
        }
      ],
      "stateMutability": "view",
      "type": "function",
      "constant": true
    },
    {
      "inputs": [],
      "name": "recordCounter",
      "outputs": [
        {
          "internalType": "uint256",
          "name": "",
          "type": "uint256"
        }
      ],
      "stateMutability": "view",
      "type": "function",
      "constant": true
    },
    {
      "inputs": [],
      "name": "transactionCounter",
      "outputs": [
        {
          "internalType": "uint256",
          "name": "",
          "type": "uint256"
        }
      ],
      "stateMutability": "view",
      "type": "function",
      "constant": true
    },
    {
      "inputs": [
        {
          "internalType": "uint256",
          "name": "",
          "type": "uint256"
        }
      ],
      "name": "transportationRecords",
      "outputs": [
        {
          "internalType": "uint256",
          "name": "recordID",
          "type": "uint256"
        },
        {
          "internalType": "address",
          "name": "transporter",
          "type": "address"
        },
        {
          "internalType": "address",
          "name": "donor",
          "type": "address"
        },
        {
          "internalType": "address",
          "name": "recipient",
          "type": "address"
        },
        {
          "internalType": "uint256",
          "name": "pickupDateTime",
          "type": "uint256"
        },
        {
          "internalType": "uint256",
          "name": "deliveryDateTime",
          "type": "uint256"
        },
        {
          "internalType": "enum BloodDonationBlockchainSystem.TransportationStatus",
          "name": "status",
          "type": "uint8"
        }
      ],
      "stateMutability": "view",
      "type": "function",
      "constant": true
    },
    {
      "inputs": [
        {
          "internalType": "uint256",
          "name": "",
          "type": "uint256"
        }
      ],
      "name": "transporterAddressArr",
      "outputs": [
        {
          "internalType": "address",
          "name": "",
          "type": "address"
        }
      ],
      "stateMutability": "view",
      "type": "function",
      "constant": true
    },
    {
      "inputs": [
        {
          "internalType": "address",
          "name": "",
          "type": "address"
        }
      ],
      "name": "transporters",
      "outputs": [
        {
          "internalType": "address",
          "name": "transporterPublicAddress",
          "type": "address"
        },
        {
          "internalType": "string",
          "name": "name",
          "type": "string"
        },
        {
          "internalType": "string",
          "name": "phoneNumber",
          "type": "string"
        },
        {
          "internalType": "string",
          "name": "password",
          "type": "string"
        },
        {
          "internalType": "bool",
          "name": "isRegistered",
          "type": "bool"
        },
        {
          "internalType": "bool",
          "name": "isLogin",
          "type": "bool"
        }
      ],
      "stateMutability": "view",
      "type": "function",
      "constant": true
    },
    {
      "inputs": [
        {
          "internalType": "address",
          "name": "_donorPublicAddress",
          "type": "address"
        },
        {
          "internalType": "string",
          "name": "_name",
          "type": "string"
        },
        {
          "internalType": "string",
          "name": "_bloodType",
          "type": "string"
        },
        {
          "internalType": "string",
          "name": "_contactNumber",
          "type": "string"
        },
        {
          "internalType": "string",
          "name": "_password",
          "type": "string"
        }
      ],
      "name": "addDonor",
      "outputs": [],
      "stateMutability": "nonpayable",
      "type": "function"
    },
    {
      "inputs": [],
      "name": "getDonorsArr",
      "outputs": [
        {
          "internalType": "address[]",
          "name": "",
          "type": "address[]"
        }
      ],
      "stateMutability": "view",
      "type": "function",
      "constant": true
    },
    {
      "inputs": [
        {
          "internalType": "address",
          "name": "_donorPublicAddress",
          "type": "address"
        }
      ],
      "name": "getDonor",
      "outputs": [
        {
          "internalType": "address",
          "name": "publicAddress",
          "type": "address"
        },
        {
          "internalType": "string",
          "name": "name",
          "type": "string"
        },
        {
          "internalType": "string",
          "name": "bloodType",
          "type": "string"
        },
        {
          "internalType": "string",
          "name": "phoneNumber",
          "type": "string"
        },
        {
          "internalType": "uint256",
          "name": "donatedVolume",
          "type": "uint256"
        },
        {
          "internalType": "uint256",
          "name": "totalPayment",
          "type": "uint256"
        },
        {
          "internalType": "bool",
          "name": "isRegistered",
          "type": "bool"
        }
      ],
      "stateMutability": "view",
      "type": "function",
      "constant": true
    },
    {
      "inputs": [
        {
          "internalType": "address",
          "name": "_transporterPublicAddress",
          "type": "address"
        },
        {
          "internalType": "string",
          "name": "_name",
          "type": "string"
        },
        {
          "internalType": "string",
          "name": "_contactNumber",
          "type": "string"
        },
        {
          "internalType": "string",
          "name": "_password",
          "type": "string"
        }
      ],
      "name": "addTransporter",
      "outputs": [],
      "stateMutability": "nonpayable",
      "type": "function"
    },
    {
      "inputs": [],
      "name": "getTransportersArr",
      "outputs": [
        {
          "internalType": "address[]",
          "name": "",
          "type": "address[]"
        }
      ],
      "stateMutability": "view",
      "type": "function",
      "constant": true
    },
    {
      "inputs": [
        {
          "internalType": "address",
          "name": "_transporterPublicAddress",
          "type": "address"
        }
      ],
      "name": "getTransporter",
      "outputs": [
        {
          "internalType": "address",
          "name": "transporterPublicAddress",
          "type": "address"
        },
        {
          "internalType": "string",
          "name": "name",
          "type": "string"
        },
        {
          "internalType": "string",
          "name": "phoneNumber",
          "type": "string"
        }
      ],
      "stateMutability": "view",
      "type": "function",
      "constant": true
    },
    {
      "inputs": [
        {
          "internalType": "address",
          "name": "_MCPublicAddress",
          "type": "address"
        },
        {
          "internalType": "string",
          "name": "_name",
          "type": "string"
        },
        {
          "internalType": "string",
          "name": "_contactNumber",
          "type": "string"
        },
        {
          "internalType": "string",
          "name": "_password",
          "type": "string"
        }
      ],
      "name": "addMedicalCenter",
      "outputs": [],
      "stateMutability": "nonpayable",
      "type": "function"
    },
    {
      "inputs": [
        {
          "internalType": "address",
          "name": "_MCPublicAddress",
          "type": "address"
        },
        {
          "internalType": "string",
          "name": "_password",
          "type": "string"
        }
      ],
      "name": "checkMedicalCenterLogin",
      "outputs": [
        {
          "internalType": "bool",
          "name": "",
          "type": "bool"
        }
      ],
      "stateMutability": "view",
      "type": "function",
      "constant": true
    },
    {
      "inputs": [
        {
          "internalType": "address",
          "name": "_MCPublicAddress",
          "type": "address"
        },
        {
          "internalType": "string",
          "name": "_password",
          "type": "string"
        }
      ],
      "name": "medicalCenterLogin",
      "outputs": [],
      "stateMutability": "nonpayable",
      "type": "function"
    },
    {
      "inputs": [
        {
          "internalType": "address",
          "name": "_MCPublicAddress",
          "type": "address"
        }
      ],
      "name": "medicalCenterLogout",
      "outputs": [],
      "stateMutability": "nonpayable",
      "type": "function"
    },
    {
      "inputs": [],
      "name": "getMedicalCentersArr",
      "outputs": [
        {
          "internalType": "address[]",
          "name": "",
          "type": "address[]"
        }
      ],
      "stateMutability": "view",
      "type": "function",
      "constant": true
    },
    {
      "inputs": [
        {
          "internalType": "address",
          "name": "_medicalStaffPublicAddress",
          "type": "address"
        }
      ],
      "name": "getMedicalCenter",
      "outputs": [
        {
          "internalType": "address",
          "name": "MCPublicAddress",
          "type": "address"
        },
        {
          "internalType": "string",
          "name": "name",
          "type": "string"
        },
        {
          "internalType": "string",
          "name": "phoneNumber",
          "type": "string"
        }
      ],
      "stateMutability": "view",
      "type": "function",
      "constant": true
    },
    {
      "inputs": [
        {
          "internalType": "address",
          "name": "_medicalCenterPublicAddress",
          "type": "address"
        },
        {
          "internalType": "address",
          "name": "_donorPublicAddress",
          "type": "address"
        },
        {
          "internalType": "uint256",
          "name": "_volume",
          "type": "uint256"
        }
      ],
      "name": "donateBloodToMedicalCenter",
      "outputs": [],
      "stateMutability": "nonpayable",
      "type": "function"
    },
    {
      "inputs": [],
      "name": "getDonationTransactionArr",
      "outputs": [
        {
          "internalType": "uint256[]",
          "name": "",
          "type": "uint256[]"
        }
      ],
      "stateMutability": "view",
      "type": "function",
      "constant": true
    },
    {
      "inputs": [
        {
          "internalType": "address",
          "name": "_medicalCenterPublicAddress",
          "type": "address"
        },
        {
          "internalType": "uint256",
          "name": "_transactionID",
          "type": "uint256"
        }
      ],
      "name": "getDonationTransaction",
      "outputs": [
        {
          "internalType": "uint256",
          "name": "transactionID",
          "type": "uint256"
        },
        {
          "internalType": "address",
          "name": "donorPublicAddress",
          "type": "address"
        },
        {
          "internalType": "address",
          "name": "recipientPublicAddress",
          "type": "address"
        },
        {
          "internalType": "address",
          "name": "transporterPublicAddress",
          "type": "address"
        },
        {
          "internalType": "string",
          "name": "bloodType",
          "type": "string"
        },
        {
          "internalType": "uint256",
          "name": "donationDate",
          "type": "uint256"
        },
        {
          "internalType": "enum BloodDonationBlockchainSystem.TransactionStatus",
          "name": "status",
          "type": "uint8"
        },
        {
          "internalType": "string",
          "name": "medicalCenter",
          "type": "string"
        },
        {
          "internalType": "uint256",
          "name": "donatedVolume",
          "type": "uint256"
        },
        {
          "internalType": "string",
          "name": "bloodTestResult",
          "type": "string"
        }
      ],
      "stateMutability": "view",
      "type": "function",
      "constant": true
    },
    {
      "inputs": [
        {
          "internalType": "uint256",
          "name": "_transactionID",
          "type": "uint256"
        },
        {
          "internalType": "string",
          "name": "_medicalCenter",
          "type": "string"
        },
        {
          "internalType": "uint256",
          "name": "_bloodPressure",
          "type": "uint256"
        },
        {
          "internalType": "uint256",
          "name": "_hemoglobinLevel",
          "type": "uint256"
        },
        {
          "internalType": "string",
          "name": "_bloodTestResults",
          "type": "string"
        }
      ],
      "name": "completeDonationToMedicalCenter",
      "outputs": [],
      "stateMutability": "nonpayable",
      "type": "function"
    },
    {
      "inputs": [],
      "name": "getMedicalRecordsArr",
      "outputs": [
        {
          "internalType": "uint256[]",
          "name": "",
          "type": "uint256[]"
        }
      ],
      "stateMutability": "view",
      "type": "function",
      "constant": true
    },
    {
      "inputs": [
        {
          "internalType": "address",
          "name": "_medicalCenterAddress",
          "type": "address"
        },
        {
          "internalType": "uint256",
          "name": "_medicalRecordID",
          "type": "uint256"
        }
      ],
      "name": "getMedicalRecord",
      "outputs": [
        {
          "internalType": "uint256",
          "name": "medicalRecordID",
          "type": "uint256"
        },
        {
          "internalType": "address",
          "name": "donorAddress",
          "type": "address"
        },
        {
          "internalType": "address",
          "name": "medicalStaff",
          "type": "address"
        },
        {
          "internalType": "uint256",
          "name": "bloodPressure",
          "type": "uint256"
        },
        {
          "internalType": "uint256",
          "name": "hemoglobinLevel",
          "type": "uint256"
        },
        {
          "internalType": "string",
          "name": "bloodTestResult",
          "type": "string"
        }
      ],
      "stateMutability": "view",
      "type": "function",
      "constant": true
    },
    {
      "inputs": [
        {
          "internalType": "address",
          "name": "_medicalCenterPublicAddress",
          "type": "address"
        },
        {
          "internalType": "uint256",
          "name": "_transactionID",
          "type": "uint256"
        },
        {
          "internalType": "address",
          "name": "_recipient",
          "type": "address"
        },
        {
          "internalType": "string",
          "name": "_medicalCenter",
          "type": "string"
        }
      ],
      "name": "initiateTransportation",
      "outputs": [],
      "stateMutability": "nonpayable",
      "type": "function"
    },
    {
      "inputs": [
        {
          "internalType": "address",
          "name": "_medicalCenterPublicAddress",
          "type": "address"
        },
        {
          "internalType": "uint256",
          "name": "_recordID",
          "type": "uint256"
        },
        {
          "internalType": "uint256",
          "name": "_transactionID",
          "type": "uint256"
        }
      ],
      "name": "completeTransportation",
      "outputs": [],
      "stateMutability": "nonpayable",
      "type": "function"
    }
  ],
  "bytecode": "0x60806040523480156200001157600080fd5b50336000806101000a81548173ffffffffffffffffffffffffffffffffffffffff021916908373ffffffffffffffffffffffffffffffffffffffff160217905550604051806060016040528060008054906101000a900473ffffffffffffffffffffffffffffffffffffffff1673ffffffffffffffffffffffffffffffffffffffff1681526020016040518060400160405280600581526020017f61646d696e000000000000000000000000000000000000000000000000000000815250815260200160001515815250601060008201518160000160006101000a81548173ffffffffffffffffffffffffffffffffffffffff021916908373ffffffffffffffffffffffffffffffffffffffff16021790555060208201518160010190816200013b9190620004ef565b5060408201518160020160006101000a81548160ff0219169083151502179055509050506010600160008060009054906101000a900473ffffffffffffffffffffffffffffffffffffffff1673ffffffffffffffffffffffffffffffffffffffff1673ffffffffffffffffffffffffffffffffffffffff1681526020019081526020016000206000820160009054906101000a900473ffffffffffffffffffffffffffffffffffffffff168160000160006101000a81548173ffffffffffffffffffffffffffffffffffffffff021916908373ffffffffffffffffffffffffffffffffffffffff160217905550600182018160010190816200023e9190620005ee565b506002820160009054906101000a900460ff168160020160006101000a81548160ff021916908315150217905550905050620006ef565b600081519050919050565b7f4e487b7100000000000000000000000000000000000000000000000000000000600052604160045260246000fd5b7f4e487b7100000000000000000000000000000000000000000000000000000000600052602260045260246000fd5b60006002820490506001821680620002f757607f821691505b6020821081036200030d576200030c620002af565b5b50919050565b60008190508160005260206000209050919050565b60006020601f8301049050919050565b600082821b905092915050565b600060088302620003777fffffffffffffffffffffffffffffffffffffffffffffffffffffffffffffffff8262000338565b62000383868362000338565b95508019841693508086168417925050509392505050565b6000819050919050565b6000819050919050565b6000620003d0620003ca620003c4846200039b565b620003a5565b6200039b565b9050919050565b6000819050919050565b620003ec83620003af565b62000404620003fb82620003d7565b84845462000345565b825550505050565b600090565b6200041b6200040c565b62000428818484620003e1565b505050565b5b8181101562000450576200044460008262000411565b6001810190506200042e565b5050565b601f8211156200049f57620004698162000313565b620004748462000328565b8101602085101562000484578190505b6200049c620004938562000328565b8301826200042d565b50505b505050565b600082821c905092915050565b6000620004c460001984600802620004a4565b1980831691505092915050565b6000620004df8383620004b1565b9150826002028217905092915050565b620004fa8262000275565b67ffffffffffffffff81111562000516576200051562000280565b5b620005228254620002de565b6200052f82828562000454565b600060209050601f83116001811462000567576000841562000552578287015190505b6200055e8582620004d1565b865550620005ce565b601f198416620005778662000313565b60005b82811015620005a1578489015182556001820191506020850194506020810190506200057a565b86831015620005c15784890151620005bd601f891682620004b1565b8355505b6001600288020188555050505b505050505050565b600081549050620005e781620002de565b9050919050565b818103620005fe575050620006ed565b6200060982620005d6565b67ffffffffffffffff81111562000625576200062462000280565b5b620006318254620002de565b6200063e82828562000454565b6000601f8311600181146200067257600084156200065d578287015490505b620006698582620004d1565b865550620006e6565b601f198416620006828762000313565b96506200068f8662000313565b60005b82811015620006b95784890154825560018201915060018501945060208101905062000692565b86831015620006d95784890154620006d5601f891682620004b1565b8355505b6001600288020188555050505b5050505050505b565b615d8180620006ff6000396000f3fe608060405234801561001057600080fd5b50600436106102115760003560e01c8063853602c311610125578063bc79c102116100ad578063d313e8a11161007c578063d313e8a1146106cc578063e14ec6ec14610701578063e25bd1581461071d578063eea9c37b14610752578063ef0aa4e61461078757610211565b8063bc79c10214610624578063c02b9f5a14610640578063ca0cdea814610676578063d04398d6146106ae57610211565b806397678a03116100f457806397678a031461053f5780639c1bc07b14610574578063ac6cb237146105a6578063ae2a7ad5146105d6578063b9804935146105f257610211565b8063853602c31461049d5780638bbcbd1b146104b95780638da5cb5b146104eb57806396c590431461050957610211565b806344d38d70116101a85780637325da9e116101775780637325da9e146103f05780637599be5d1461040c57806376948dbd1461042a5780637b4843de146104465780637fe52fa31461046457610211565b806344d38d701461036857806348803dbf1461039857806352ca81c1146103b45780636cd327e0146103d257610211565b806325c368fe116101e457806325c368fe146102b25780632cfb9c11146102e257806337d981751461031257806338379b4d1461034c57610211565b806308a990081461021657806314e887e81461024657806315eb1adf146102645780631eb850b114610294575b600080fd5b610230600480360381019061022b91906144de565b6107a3565b60405161023d919061451a565b60405180910390f35b61024e6107c7565b60405161025b919061451a565b60405180910390f35b61027e600480360381019061027991906144de565b6107cd565b60405161028b9190614576565b60405180910390f35b61029c61080c565b6040516102a9919061464f565b60405180910390f35b6102cc60048036038101906102c791906147e3565b61089a565b6040516102d9919061485a565b60405180910390f35b6102fc60048036038101906102f791906144de565b610a4f565b6040516103099190614576565b60405180910390f35b61032c60048036038101906103279190614875565b610a8e565b6040516103439b9a999897969594939291906149ab565b60405180910390f35b61036660048036038101906103619190614a6b565b610d1a565b005b610382600480360381019061037d91906144de565b610e95565b60405161038f919061451a565b60405180910390f35b6103b260048036038101906103ad9190614abe565b610eb9565b005b6103bc61114d565b6040516103c9919061464f565b60405180910390f35b6103da6111db565b6040516103e79190614c67565b60405180910390f35b61040a60048036038101906104059190614c89565b611233565b005b610414611486565b604051610421919061451a565b60405180910390f35b610444600480360381019061043f9190614d44565b61148c565b005b61044e611579565b60405161045b919061464f565b60405180910390f35b61047e60048036038101906104799190614875565b611607565b6040516104949a99989796959493929190614d71565b60405180910390f35b6104b760048036038101906104b29190614e22565b611a38565b005b6104d360048036038101906104ce9190614d44565b612153565b6040516104e293929190614ea5565b60405180910390f35b6104f3612405565b6040516105009190614576565b60405180910390f35b610523600480360381019061051e9190614d44565b612429565b6040516105369796959493929190614eea565b60405180910390f35b61055960048036038101906105549190614875565b6127a8565b60405161056b96959493929190614f6e565b60405180910390f35b61058e60048036038101906105899190614fd6565b6128b9565b60405161059d93929190615067565b60405180910390f35b6105c060048036038101906105bb91906144de565b61298e565b6040516105cd9190614576565b60405180910390f35b6105f060048036038101906105eb91906147e3565b6129cd565b005b61060c60048036038101906106079190614d44565b612a75565b60405161061b93929190614ea5565b60405180910390f35b61063e60048036038101906106399190614c89565b612d27565b005b61065a600480360381019061065591906144de565b613008565b60405161066d97969594939291906150ed565b60405180910390f35b610690600480360381019061068b9190614d44565b6130b7565b6040516106a59998979695949392919061515c565b60405180910390f35b6106b661335f565b6040516106c39190614c67565b60405180910390f35b6106e660048036038101906106e19190614d44565b6133b7565b6040516106f896959493929190615205565b60405180910390f35b61071b6004803603810190610716919061527b565b6135c5565b005b61073760048036038101906107329190614d44565b613aa3565b60405161074996959493929190615205565b60405180910390f35b61076c60048036038101906107679190614875565b613cb1565b60405161077e96959493929190614f6e565b60405180910390f35b6107a1600480360381019061079c91906152ce565b613eab565b005b600d81815481106107b357600080fd5b906000526020600020016000915090505481565b600e5481565b600981815481106107dd57600080fd5b906000526020600020016000915054906101000a900473ffffffffffffffffffffffffffffffffffffffff1681565b6060600980548060200260200160405190810160405280929190818152602001828054801561089057602002820191906000526020600020905b8160009054906101000a900473ffffffffffffffffffffffffffffffffffffffff1673ffffffffffffffffffffffffffffffffffffffff1681526020019060010190808311610846575b5050505050905090565b600060011515600460008573ffffffffffffffffffffffffffffffffffffffff1673ffffffffffffffffffffffffffffffffffffffff16815260200190815260200160002060040160009054906101000a900460ff16151514610932576040517f08c379a0000000000000000000000000000000000000000000000000000000008152600401610929906153cd565b60405180910390fd5b610a06600460008573ffffffffffffffffffffffffffffffffffffffff1673ffffffffffffffffffffffffffffffffffffffff16815260200190815260200160002060030180546109829061541c565b80601f01602080910402602001604051908101604052809291908181526020018280546109ae9061541c565b80156109fb5780601f106109d0576101008083540402835291602001916109fb565b820191906000526020600020905b8154815290600101906020018083116109de57829003601f168201915b50505050508361443b565b610a45576040517f08c379a0000000000000000000000000000000000000000000000000000000008152600401610a3c90615499565b60405180910390fd5b6001905092915050565b600b8181548110610a5f57600080fd5b906000526020600020016000915054906101000a900473ffffffffffffffffffffffffffffffffffffffff1681565b6006602052816000526040600020602052806000526040600020600091509150508060000154908060010160009054906101000a900473ffffffffffffffffffffffffffffffffffffffff16908060020160009054906101000a900473ffffffffffffffffffffffffffffffffffffffff16908060030160009054906101000a900473ffffffffffffffffffffffffffffffffffffffff16908060040160009054906101000a900473ffffffffffffffffffffffffffffffffffffffff1690806005018054610b5c9061541c565b80601f0160208091040260200160405190810160405280929190818152602001828054610b889061541c565b8015610bd55780601f10610baa57610100808354040283529160200191610bd5565b820191906000526020600020905b815481529060010190602001808311610bb857829003601f168201915b5050505050908060060154908060070160009054906101000a900460ff1690806008018054610c039061541c565b80601f0160208091040260200160405190810160405280929190818152602001828054610c2f9061541c565b8015610c7c5780601f10610c5157610100808354040283529160200191610c7c565b820191906000526020600020905b815481529060010190602001808311610c5f57829003601f168201915b50505050509080600901549080600a018054610c979061541c565b80601f0160208091040260200160405190810160405280929190818152602001828054610cc39061541c565b8015610d105780601f10610ce557610100808354040283529160200191610d10565b820191906000526020600020905b815481529060010190602001808311610cf357829003601f168201915b505050505090508b565b60006001811115610d2e57610d2d614934565b5b6007600084815260200190815260200160002060060160009054906101000a900460ff166001811115610d6457610d63614934565b5b14610da4576040517f08c379a0000000000000000000000000000000000000000000000000000000008152600401610d9b9061552b565b60405180910390fd5b42600760008481526020019081526020016000206005018190555060016007600084815260200190815260200160002060060160006101000a81548160ff02191690836001811115610df957610df8614934565b5b021790555033600660008573ffffffffffffffffffffffffffffffffffffffff1673ffffffffffffffffffffffffffffffffffffffff168152602001908152602001600020600083815260200190815260200160002060040160006101000a81548173ffffffffffffffffffffffffffffffffffffffff021916908373ffffffffffffffffffffffffffffffffffffffff160217905550505050565b600c8181548110610ea557600080fd5b906000526020600020016000915090505481565b60001515600260008773ffffffffffffffffffffffffffffffffffffffff1673ffffffffffffffffffffffffffffffffffffffff16815260200190815260200160002060070160009054906101000a900460ff16151514610f4f576040517f08c379a0000000000000000000000000000000000000000000000000000000008152600401610f4690615597565b60405180910390fd5b6040518061012001604052808673ffffffffffffffffffffffffffffffffffffffff168152602001858152602001848152602001838152602001828152602001600081526020016000815260200160011515815260200160001515815250600260008773ffffffffffffffffffffffffffffffffffffffff1673ffffffffffffffffffffffffffffffffffffffff16815260200190815260200160002060008201518160000160006101000a81548173ffffffffffffffffffffffffffffffffffffffff021916908373ffffffffffffffffffffffffffffffffffffffff16021790555060208201518160010190816110489190615763565b50604082015181600201908161105e9190615763565b5060608201518160030190816110749190615763565b50608082015181600401908161108a9190615763565b5060a0820151816005015560c0820151816006015560e08201518160070160006101000a81548160ff0219169083151502179055506101008201518160070160016101000a81548160ff0219169083151502179055509050506009859080600181540180825580915050600190039060005260206000200160009091909190916101000a81548173ffffffffffffffffffffffffffffffffffffffff021916908373ffffffffffffffffffffffffffffffffffffffff1602179055505050505050565b6060600a8054806020026020016040519081016040528092919081815260200182805480156111d157602002820191906000526020600020905b8160009054906101000a900473ffffffffffffffffffffffffffffffffffffffff1673ffffffffffffffffffffffffffffffffffffffff1681526020019060010190808311611187575b5050505050905090565b6060600d80548060200260200160405190810160405280929190818152602001828054801561122957602002820191906000526020600020905b815481526020019060010190808311611215575b5050505050905090565b60001515600460008673ffffffffffffffffffffffffffffffffffffffff1673ffffffffffffffffffffffffffffffffffffffff16815260200190815260200160002060040160009054906101000a900460ff161515146112c9576040517f08c379a00000000000000000000000000000000000000000000000000000000081526004016112c0906158a7565b60405180910390fd5b6040518060c001604052808573ffffffffffffffffffffffffffffffffffffffff16815260200184815260200183815260200182815260200160011515815260200160001515815250600460008673ffffffffffffffffffffffffffffffffffffffff1673ffffffffffffffffffffffffffffffffffffffff16815260200190815260200160002060008201518160000160006101000a81548173ffffffffffffffffffffffffffffffffffffffff021916908373ffffffffffffffffffffffffffffffffffffffff16021790555060208201518160010190816113ad9190615763565b5060408201518160020190816113c39190615763565b5060608201518160030190816113d99190615763565b5060808201518160040160006101000a81548160ff02191690831515021790555060a08201518160040160016101000a81548160ff021916908315150217905550905050600b849080600181540180825580915050600190039060005260206000200160009091909190916101000a81548173ffffffffffffffffffffffffffffffffffffffff021916908373ffffffffffffffffffffffffffffffffffffffff16021790555050505050565b600f5481565b600460008273ffffffffffffffffffffffffffffffffffffffff1673ffffffffffffffffffffffffffffffffffffffff16815260200190815260200160002060040160019054906101000a900460ff1661151b576040517f08c379a000000000000000000000000000000000000000000000000000000000815260040161151290615913565b60405180910390fd5b6000600460008373ffffffffffffffffffffffffffffffffffffffff1673ffffffffffffffffffffffffffffffffffffffff16815260200190815260200160002060040160016101000a81548160ff02191690831515021790555050565b6060600b8054806020026020016040519081016040528092919081815260200182805480156115fd57602002820191906000526020600020905b8160009054906101000a900473ffffffffffffffffffffffffffffffffffffffff1673ffffffffffffffffffffffffffffffffffffffff16815260200190600101908083116115b3575b5050505050905090565b60008060008060606000806060600060606000600660008e73ffffffffffffffffffffffffffffffffffffffff1673ffffffffffffffffffffffffffffffffffffffff16815260200190815260200160002060008d815260200190815260200160002060405180610160016040529081600082015481526020016001820160009054906101000a900473ffffffffffffffffffffffffffffffffffffffff1673ffffffffffffffffffffffffffffffffffffffff1673ffffffffffffffffffffffffffffffffffffffff1681526020016002820160009054906101000a900473ffffffffffffffffffffffffffffffffffffffff1673ffffffffffffffffffffffffffffffffffffffff1673ffffffffffffffffffffffffffffffffffffffff1681526020016003820160009054906101000a900473ffffffffffffffffffffffffffffffffffffffff1673ffffffffffffffffffffffffffffffffffffffff1673ffffffffffffffffffffffffffffffffffffffff1681526020016004820160009054906101000a900473ffffffffffffffffffffffffffffffffffffffff1673ffffffffffffffffffffffffffffffffffffffff1673ffffffffffffffffffffffffffffffffffffffff1681526020016005820180546117e89061541c565b80601f01602080910402602001604051908101604052809291908181526020018280546118149061541c565b80156118615780601f1061183657610100808354040283529160200191611861565b820191906000526020600020905b81548152906001019060200180831161184457829003601f168201915b50505050508152602001600682015481526020016007820160009054906101000a900460ff16600181111561189957611898614934565b5b60018111156118ab576118aa614934565b5b81526020016008820180546118bf9061541c565b80601f01602080910402602001604051908101604052809291908181526020018280546118eb9061541c565b80156119385780601f1061190d57610100808354040283529160200191611938565b820191906000526020600020905b81548152906001019060200180831161191b57829003601f168201915b5050505050815260200160098201548152602001600a8201805461195b9061541c565b80601f01602080910402602001604051908101604052809291908181526020018280546119879061541c565b80156119d45780601f106119a9576101008083540402835291602001916119d4565b820191906000526020600020905b8154815290600101906020018083116119b757829003601f168201915b505050505081525050905080600001519a508060200151995080604001519850806080015197508060a0015196508060c0015195508060e001519450806101000151935080610120015192508061014001519150509295989b9194979a5092959850565b600180811115611a4b57611a4a614934565b5b600660008673ffffffffffffffffffffffffffffffffffffffff1673ffffffffffffffffffffffffffffffffffffffff168152602001908152602001600020600085815260200190815260200160002060070160009054906101000a900460ff166001811115611abe57611abd614934565b5b14611afe576040517f08c379a0000000000000000000000000000000000000000000000000000000008152600401611af5906159a5565b60405180910390fd5b6000429050604051806101600160405280828152602001600660008873ffffffffffffffffffffffffffffffffffffffff1673ffffffffffffffffffffffffffffffffffffffff168152602001908152602001600020600087815260200190815260200160002060010160009054906101000a900473ffffffffffffffffffffffffffffffffffffffff1673ffffffffffffffffffffffffffffffffffffffff1681526020018473ffffffffffffffffffffffffffffffffffffffff1681526020013373ffffffffffffffffffffffffffffffffffffffff1681526020013373ffffffffffffffffffffffffffffffffffffffff168152602001600660008873ffffffffffffffffffffffffffffffffffffffff1673ffffffffffffffffffffffffffffffffffffffff16815260200190815260200160002060008781526020019081526020016000206005018054611c569061541c565b80601f0160208091040260200160405190810160405280929190818152602001828054611c829061541c565b8015611ccf5780601f10611ca457610100808354040283529160200191611ccf565b820191906000526020600020905b815481529060010190602001808311611cb257829003601f168201915b50505050508152602001600660008873ffffffffffffffffffffffffffffffffffffffff1673ffffffffffffffffffffffffffffffffffffffff1681526020019081526020016000206000878152602001908152602001600020600601548152602001600660008873ffffffffffffffffffffffffffffffffffffffff1673ffffffffffffffffffffffffffffffffffffffff168152602001908152602001600020600087815260200190815260200160002060070160009054906101000a900460ff166001811115611da557611da4614934565b5b815260200183815260200160026000600660008a73ffffffffffffffffffffffffffffffffffffffff1673ffffffffffffffffffffffffffffffffffffffff168152602001908152602001600020600089815260200190815260200160002060010160009054906101000a900473ffffffffffffffffffffffffffffffffffffffff1673ffffffffffffffffffffffffffffffffffffffff1673ffffffffffffffffffffffffffffffffffffffff168152602001908152602001600020600501548152602001600660008873ffffffffffffffffffffffffffffffffffffffff1673ffffffffffffffffffffffffffffffffffffffff1681526020019081526020016000206000878152602001908152602001600020600a018054611ec99061541c565b80601f0160208091040260200160405190810160405280929190818152602001828054611ef59061541c565b8015611f425780601f10611f1757610100808354040283529160200191611f42565b820191906000526020600020905b815481529060010190602001808311611f2557829003601f168201915b5050505050815250600660008773ffffffffffffffffffffffffffffffffffffffff1673ffffffffffffffffffffffffffffffffffffffff16815260200190815260200160002060008381526020019081526020016000206000820151816000015560208201518160010160006101000a81548173ffffffffffffffffffffffffffffffffffffffff021916908373ffffffffffffffffffffffffffffffffffffffff16021790555060408201518160020160006101000a81548173ffffffffffffffffffffffffffffffffffffffff021916908373ffffffffffffffffffffffffffffffffffffffff16021790555060608201518160030160006101000a81548173ffffffffffffffffffffffffffffffffffffffff021916908373ffffffffffffffffffffffffffffffffffffffff16021790555060808201518160040160006101000a81548173ffffffffffffffffffffffffffffffffffffffff021916908373ffffffffffffffffffffffffffffffffffffffff16021790555060a08201518160050190816120d59190615763565b5060c0820151816006015560e08201518160070160006101000a81548160ff0219169083600181111561210b5761210a614934565b5b02179055506101008201518160080190816121269190615763565b50610120820151816009015561014082015181600a0190816121489190615763565b509050505050505050565b60006060806000600360008673ffffffffffffffffffffffffffffffffffffffff1673ffffffffffffffffffffffffffffffffffffffff1681526020019081526020016000206040518060c00160405290816000820160009054906101000a900473ffffffffffffffffffffffffffffffffffffffff1673ffffffffffffffffffffffffffffffffffffffff1673ffffffffffffffffffffffffffffffffffffffff16815260200160018201805461220a9061541c565b80601f01602080910402602001604051908101604052809291908181526020018280546122369061541c565b80156122835780601f1061225857610100808354040283529160200191612283565b820191906000526020600020905b81548152906001019060200180831161226657829003601f168201915b5050505050815260200160028201805461229c9061541c565b80601f01602080910402602001604051908101604052809291908181526020018280546122c89061541c565b80156123155780601f106122ea57610100808354040283529160200191612315565b820191906000526020600020905b8154815290600101906020018083116122f857829003601f168201915b5050505050815260200160038201805461232e9061541c565b80601f016020809104026020016040519081016040528092919081815260200182805461235a9061541c565b80156123a75780601f1061237c576101008083540402835291602001916123a7565b820191906000526020600020905b81548152906001019060200180831161238a57829003601f168201915b505050505081526020016004820160009054906101000a900460ff161515151581526020016004820160019054906101000a900460ff1615151515815250509050806000015193508060200151925080604001519150509193909250565b60008054906101000a900473ffffffffffffffffffffffffffffffffffffffff1681565b60006060806060600080600080600260008a73ffffffffffffffffffffffffffffffffffffffff1673ffffffffffffffffffffffffffffffffffffffff168152602001908152602001600020604051806101200160405290816000820160009054906101000a900473ffffffffffffffffffffffffffffffffffffffff1673ffffffffffffffffffffffffffffffffffffffff1673ffffffffffffffffffffffffffffffffffffffff1681526020016001820180546124e79061541c565b80601f01602080910402602001604051908101604052809291908181526020018280546125139061541c565b80156125605780601f1061253557610100808354040283529160200191612560565b820191906000526020600020905b81548152906001019060200180831161254357829003601f168201915b505050505081526020016002820180546125799061541c565b80601f01602080910402602001604051908101604052809291908181526020018280546125a59061541c565b80156125f25780601f106125c7576101008083540402835291602001916125f2565b820191906000526020600020905b8154815290600101906020018083116125d557829003601f168201915b5050505050815260200160038201805461260b9061541c565b80601f01602080910402602001604051908101604052809291908181526020018280546126379061541c565b80156126845780601f1061265957610100808354040283529160200191612684565b820191906000526020600020905b81548152906001019060200180831161266757829003601f168201915b5050505050815260200160048201805461269d9061541c565b80601f01602080910402602001604051908101604052809291908181526020018280546126c99061541c565b80156127165780601f106126eb57610100808354040283529160200191612716565b820191906000526020600020905b8154815290600101906020018083116126f957829003601f168201915b5050505050815260200160058201548152602001600682015481526020016007820160009054906101000a900460ff161515151581526020016007820160019054906101000a900460ff1615151515815250509050806000015197508060200151965080604001519550806060015194508060a0015193508060c0015192508060e00151915050919395979092949650565b6005602052816000526040600020602052806000526040600020600091509150508060000154908060010160009054906101000a900473ffffffffffffffffffffffffffffffffffffffff16908060020160009054906101000a900473ffffffffffffffffffffffffffffffffffffffff16908060030154908060040154908060050180546128369061541c565b80601f01602080910402602001604051908101604052809291908181526020018280546128629061541c565b80156128af5780601f10612884576101008083540402835291602001916128af565b820191906000526020600020905b81548152906001019060200180831161289257829003601f168201915b5050505050905086565b6008818051602081018201805184825260208301602085012081835280955050505050506000915090508060000180546128f29061541c565b80601f016020809104026020016040519081016040528092919081815260200182805461291e9061541c565b801561296b5780601f106129405761010080835404028352916020019161296b565b820191906000526020600020905b81548152906001019060200180831161294e57829003601f168201915b5050505050908060010154908060020160009054906101000a900460ff16905083565b600a818154811061299e57600080fd5b906000526020600020016000915054906101000a900473ffffffffffffffffffffffffffffffffffffffff1681565b6129d7828261089a565b612a16576040517f08c379a0000000000000000000000000000000000000000000000000000000008152600401612a0d90615a11565b60405180910390fd5b6001600460008473ffffffffffffffffffffffffffffffffffffffff1673ffffffffffffffffffffffffffffffffffffffff16815260200190815260200160002060040160016101000a81548160ff0219169083151502179055505050565b60006060806000600460008673ffffffffffffffffffffffffffffffffffffffff1673ffffffffffffffffffffffffffffffffffffffff1681526020019081526020016000206040518060c00160405290816000820160009054906101000a900473ffffffffffffffffffffffffffffffffffffffff1673ffffffffffffffffffffffffffffffffffffffff1673ffffffffffffffffffffffffffffffffffffffff168152602001600182018054612b2c9061541c565b80601f0160208091040260200160405190810160405280929190818152602001828054612b589061541c565b8015612ba55780601f10612b7a57610100808354040283529160200191612ba5565b820191906000526020600020905b815481529060010190602001808311612b8857829003601f168201915b50505050508152602001600282018054612bbe9061541c565b80601f0160208091040260200160405190810160405280929190818152602001828054612bea9061541c565b8015612c375780601f10612c0c57610100808354040283529160200191612c37565b820191906000526020600020905b815481529060010190602001808311612c1a57829003601f168201915b50505050508152602001600382018054612c509061541c565b80601f0160208091040260200160405190810160405280929190818152602001828054612c7c9061541c565b8015612cc95780601f10612c9e57610100808354040283529160200191612cc9565b820191906000526020600020905b815481529060010190602001808311612cac57829003601f168201915b505050505081526020016004820160009054906101000a900460ff161515151581526020016004820160019054906101000a900460ff1615151515815250509050806000015193508060200151925080604001519150509193909250565b60008054906101000a900473ffffffffffffffffffffffffffffffffffffffff1673ffffffffffffffffffffffffffffffffffffffff163373ffffffffffffffffffffffffffffffffffffffff1614612db5576040517f08c379a0000000000000000000000000000000000000000000000000000000008152600401612dac90615a7d565b60405180910390fd5b60001515600360008673ffffffffffffffffffffffffffffffffffffffff1673ffffffffffffffffffffffffffffffffffffffff16815260200190815260200160002060040160009054906101000a900460ff16151514612e4b576040517f08c379a0000000000000000000000000000000000000000000000000000000008152600401612e4290615ae9565b60405180910390fd5b6040518060c001604052808573ffffffffffffffffffffffffffffffffffffffff16815260200184815260200183815260200182815260200160011515815260200160001515815250600360008673ffffffffffffffffffffffffffffffffffffffff1673ffffffffffffffffffffffffffffffffffffffff16815260200190815260200160002060008201518160000160006101000a81548173ffffffffffffffffffffffffffffffffffffffff021916908373ffffffffffffffffffffffffffffffffffffffff1602179055506020820151816001019081612f2f9190615763565b506040820151816002019081612f459190615763565b506060820151816003019081612f5b9190615763565b5060808201518160040160006101000a81548160ff02191690831515021790555060a08201518160040160016101000a81548160ff021916908315150217905550905050600a849080600181540180825580915050600190039060005260206000200160009091909190916101000a81548173ffffffffffffffffffffffffffffffffffffffff021916908373ffffffffffffffffffffffffffffffffffffffff16021790555050505050565b60076020528060005260406000206000915090508060000154908060010160009054906101000a900473ffffffffffffffffffffffffffffffffffffffff16908060020160009054906101000a900473ffffffffffffffffffffffffffffffffffffffff16908060030160009054906101000a900473ffffffffffffffffffffffffffffffffffffffff16908060040154908060050154908060060160009054906101000a900460ff16905087565b60026020528060005260406000206000915090508060000160009054906101000a900473ffffffffffffffffffffffffffffffffffffffff16908060010180546131009061541c565b80601f016020809104026020016040519081016040528092919081815260200182805461312c9061541c565b80156131795780601f1061314e57610100808354040283529160200191613179565b820191906000526020600020905b81548152906001019060200180831161315c57829003601f168201915b50505050509080600201805461318e9061541c565b80601f01602080910402602001604051908101604052809291908181526020018280546131ba9061541c565b80156132075780601f106131dc57610100808354040283529160200191613207565b820191906000526020600020905b8154815290600101906020018083116131ea57829003601f168201915b50505050509080600301805461321c9061541c565b80601f01602080910402602001604051908101604052809291908181526020018280546132489061541c565b80156132955780601f1061326a57610100808354040283529160200191613295565b820191906000526020600020905b81548152906001019060200180831161327857829003601f168201915b5050505050908060040180546132aa9061541c565b80601f01602080910402602001604051908101604052809291908181526020018280546132d69061541c565b80156133235780601f106132f857610100808354040283529160200191613323565b820191906000526020600020905b81548152906001019060200180831161330657829003601f168201915b5050505050908060050154908060060154908060070160009054906101000a900460ff16908060070160019054906101000a900460ff16905089565b6060600c8054806020026020016040519081016040528092919081815260200182805480156133ad57602002820191906000526020600020905b815481526020019060010190808311613399575b5050505050905090565b60046020528060005260406000206000915090508060000160009054906101000a900473ffffffffffffffffffffffffffffffffffffffff16908060010180546134009061541c565b80601f016020809104026020016040519081016040528092919081815260200182805461342c9061541c565b80156134795780601f1061344e57610100808354040283529160200191613479565b820191906000526020600020905b81548152906001019060200180831161345c57829003601f168201915b50505050509080600201805461348e9061541c565b80601f01602080910402602001604051908101604052809291908181526020018280546134ba9061541c565b80156135075780601f106134dc57610100808354040283529160200191613507565b820191906000526020600020905b8154815290600101906020018083116134ea57829003601f168201915b50505050509080600301805461351c9061541c565b80601f01602080910402602001604051908101604052809291908181526020018280546135489061541c565b80156135955780601f1061356a57610100808354040283529160200191613595565b820191906000526020600020905b81548152906001019060200180831161357857829003601f168201915b5050505050908060040160009054906101000a900460ff16908060040160019054906101000a900460ff16905086565b60011515600260008473ffffffffffffffffffffffffffffffffffffffff1673ffffffffffffffffffffffffffffffffffffffff16815260200190815260200160002060070160009054906101000a900460ff1615151461365b576040517f08c379a000000000000000000000000000000000000000000000000000000000815260040161365290615b55565b60405180910390fd5b60004290506040518061016001604052808281526020018473ffffffffffffffffffffffffffffffffffffffff168152602001600073ffffffffffffffffffffffffffffffffffffffff1681526020013373ffffffffffffffffffffffffffffffffffffffff168152602001600073ffffffffffffffffffffffffffffffffffffffff168152602001600260008673ffffffffffffffffffffffffffffffffffffffff1673ffffffffffffffffffffffffffffffffffffffff16815260200190815260200160002060020180546137319061541c565b80601f016020809104026020016040519081016040528092919081815260200182805461375d9061541c565b80156137aa5780601f1061377f576101008083540402835291602001916137aa565b820191906000526020600020905b81548152906001019060200180831161378d57829003601f168201915b50505050508152602001428152602001600060018111156137ce576137cd614934565b5b815260200160405180602001604052806000815250815260200183815260200160405180602001604052806000815250815250600660008673ffffffffffffffffffffffffffffffffffffffff1673ffffffffffffffffffffffffffffffffffffffff16815260200190815260200160002060008381526020019081526020016000206000820151816000015560208201518160010160006101000a81548173ffffffffffffffffffffffffffffffffffffffff021916908373ffffffffffffffffffffffffffffffffffffffff16021790555060408201518160020160006101000a81548173ffffffffffffffffffffffffffffffffffffffff021916908373ffffffffffffffffffffffffffffffffffffffff16021790555060608201518160030160006101000a81548173ffffffffffffffffffffffffffffffffffffffff021916908373ffffffffffffffffffffffffffffffffffffffff16021790555060808201518160040160006101000a81548173ffffffffffffffffffffffffffffffffffffffff021916908373ffffffffffffffffffffffffffffffffffffffff16021790555060a082015181600501908161398c9190615763565b5060c0820151816006015560e08201518160070160006101000a81548160ff021916908360018111156139c2576139c1614934565b5b02179055506101008201518160080190816139dd9190615763565b50610120820151816009015561014082015181600a0190816139ff9190615763565b5090505081600260008573ffffffffffffffffffffffffffffffffffffffff1673ffffffffffffffffffffffffffffffffffffffff1681526020019081526020016000206005016000828254613a559190615ba4565b92505081905550600c819080600181540180825580915050600190039060005260206000200160009091909190915055600e6000815480929190613a9890615bd8565b919050555050505050565b60036020528060005260406000206000915090508060000160009054906101000a900473ffffffffffffffffffffffffffffffffffffffff1690806001018054613aec9061541c565b80601f0160208091040260200160405190810160405280929190818152602001828054613b189061541c565b8015613b655780601f10613b3a57610100808354040283529160200191613b65565b820191906000526020600020905b815481529060010190602001808311613b4857829003601f168201915b505050505090806002018054613b7a9061541c565b80601f0160208091040260200160405190810160405280929190818152602001828054613ba69061541c565b8015613bf35780601f10613bc857610100808354040283529160200191613bf3565b820191906000526020600020905b815481529060010190602001808311613bd657829003601f168201915b505050505090806003018054613c089061541c565b80601f0160208091040260200160405190810160405280929190818152602001828054613c349061541c565b8015613c815780601f10613c5657610100808354040283529160200191613c81565b820191906000526020600020905b815481529060010190602001808311613c6457829003601f168201915b5050505050908060040160009054906101000a900460ff16908060040160019054906101000a900460ff16905086565b600080600080600060606000600560008a73ffffffffffffffffffffffffffffffffffffffff1673ffffffffffffffffffffffffffffffffffffffff16815260200190815260200160002060008981526020019081526020016000206040518060c0016040529081600082015481526020016001820160009054906101000a900473ffffffffffffffffffffffffffffffffffffffff1673ffffffffffffffffffffffffffffffffffffffff1673ffffffffffffffffffffffffffffffffffffffff1681526020016002820160009054906101000a900473ffffffffffffffffffffffffffffffffffffffff1673ffffffffffffffffffffffffffffffffffffffff1673ffffffffffffffffffffffffffffffffffffffff1681526020016003820154815260200160048201548152602001600582018054613df29061541c565b80601f0160208091040260200160405190810160405280929190818152602001828054613e1e9061541c565b8015613e6b5780601f10613e4057610100808354040283529160200191613e6b565b820191906000526020600020905b815481529060010190602001808311613e4e57829003601f168201915b505050505081525050905080600001519650806020015195508060400151945080606001519350806080015192508060a001519150509295509295509295565b60006001811115613ebf57613ebe614934565b5b600660003373ffffffffffffffffffffffffffffffffffffffff1673ffffffffffffffffffffffffffffffffffffffff168152602001908152602001600020600087815260200190815260200160002060070160009054906101000a900460ff166001811115613f3257613f31614934565b5b14613f72576040517f08c379a0000000000000000000000000000000000000000000000000000000008152600401613f6990615c6c565b60405180910390fd5b600073ffffffffffffffffffffffffffffffffffffffff16600660003373ffffffffffffffffffffffffffffffffffffffff1673ffffffffffffffffffffffffffffffffffffffff168152602001908152602001600020600087815260200190815260200160002060010160009054906101000a900473ffffffffffffffffffffffffffffffffffffffff1673ffffffffffffffffffffffffffffffffffffffff1603614054576040517f08c379a000000000000000000000000000000000000000000000000000000000815260040161404b90615cd8565b60405180910390fd5b33600660003373ffffffffffffffffffffffffffffffffffffffff1673ffffffffffffffffffffffffffffffffffffffff168152602001908152602001600020600087815260200190815260200160002060030160006101000a81548173ffffffffffffffffffffffffffffffffffffffff021916908373ffffffffffffffffffffffffffffffffffffffff16021790555083600660003373ffffffffffffffffffffffffffffffffffffffff1673ffffffffffffffffffffffffffffffffffffffff168152602001908152602001600020600087815260200190815260200160002060080190816141469190615763565b506001600660003373ffffffffffffffffffffffffffffffffffffffff1673ffffffffffffffffffffffffffffffffffffffff168152602001908152602001600020600087815260200190815260200160002060070160006101000a81548160ff021916908360018111156141be576141bd614934565b5b021790555080600660003373ffffffffffffffffffffffffffffffffffffffff1673ffffffffffffffffffffffffffffffffffffffff1681526020019081526020016000206000878152602001908152602001600020600a0190816142239190615763565b5060004290506040518060c00160405280828152602001600660003373ffffffffffffffffffffffffffffffffffffffff1673ffffffffffffffffffffffffffffffffffffffff168152602001908152602001600020600089815260200190815260200160002060010160009054906101000a900473ffffffffffffffffffffffffffffffffffffffff1673ffffffffffffffffffffffffffffffffffffffff1681526020013373ffffffffffffffffffffffffffffffffffffffff16815260200185815260200184815260200183815250600560003373ffffffffffffffffffffffffffffffffffffffff1673ffffffffffffffffffffffffffffffffffffffff16815260200190815260200160002060008381526020019081526020016000206000820151816000015560208201518160010160006101000a81548173ffffffffffffffffffffffffffffffffffffffff021916908373ffffffffffffffffffffffffffffffffffffffff16021790555060408201518160020160006101000a81548173ffffffffffffffffffffffffffffffffffffffff021916908373ffffffffffffffffffffffffffffffffffffffff160217905550606082015181600301556080820151816004015560a08201518160050190816144069190615763565b50905050600d819080600181540180825580915050600190039060005260206000200160009091909190915055505050505050565b60008160405160200161444e9190615d34565b60405160208183030381529060405280519060200120836040516020016144759190615d34565b6040516020818303038152906040528051906020012014905092915050565b6000604051905090565b600080fd5b600080fd5b6000819050919050565b6144bb816144a8565b81146144c657600080fd5b50565b6000813590506144d8816144b2565b92915050565b6000602082840312156144f4576144f361449e565b5b6000614502848285016144c9565b91505092915050565b614514816144a8565b82525050565b600060208201905061452f600083018461450b565b92915050565b600073ffffffffffffffffffffffffffffffffffffffff82169050919050565b600061456082614535565b9050919050565b61457081614555565b82525050565b600060208201905061458b6000830184614567565b92915050565b600081519050919050565b600082825260208201905092915050565b6000819050602082019050919050565b6145c681614555565b82525050565b60006145d883836145bd565b60208301905092915050565b6000602082019050919050565b60006145fc82614591565b614606818561459c565b9350614611836145ad565b8060005b8381101561464257815161462988826145cc565b9750614634836145e4565b925050600181019050614615565b5085935050505092915050565b6000602082019050818103600083015261466981846145f1565b905092915050565b61467a81614555565b811461468557600080fd5b50565b60008135905061469781614671565b92915050565b600080fd5b600080fd5b6000601f19601f8301169050919050565b7f4e487b7100000000000000000000000000000000000000000000000000000000600052604160045260246000fd5b6146f0826146a7565b810181811067ffffffffffffffff8211171561470f5761470e6146b8565b5b80604052505050565b6000614722614494565b905061472e82826146e7565b919050565b600067ffffffffffffffff82111561474e5761474d6146b8565b5b614757826146a7565b9050602081019050919050565b82818337600083830152505050565b600061478661478184614733565b614718565b9050828152602081018484840111156147a2576147a16146a2565b5b6147ad848285614764565b509392505050565b600082601f8301126147ca576147c961469d565b5b81356147da848260208601614773565b91505092915050565b600080604083850312156147fa576147f961449e565b5b600061480885828601614688565b925050602083013567ffffffffffffffff811115614829576148286144a3565b5b614835858286016147b5565b9150509250929050565b60008115159050919050565b6148548161483f565b82525050565b600060208201905061486f600083018461484b565b92915050565b6000806040838503121561488c5761488b61449e565b5b600061489a85828601614688565b92505060206148ab858286016144c9565b9150509250929050565b600081519050919050565b600082825260208201905092915050565b60005b838110156148ef5780820151818401526020810190506148d4565b60008484015250505050565b6000614906826148b5565b61491081856148c0565b93506149208185602086016148d1565b614929816146a7565b840191505092915050565b7f4e487b7100000000000000000000000000000000000000000000000000000000600052602160045260246000fd5b6002811061497457614973614934565b5b50565b600081905061498582614963565b919050565b600061499582614977565b9050919050565b6149a58161498a565b82525050565b6000610160820190506149c1600083018e61450b565b6149ce602083018d614567565b6149db604083018c614567565b6149e8606083018b614567565b6149f5608083018a614567565b81810360a0830152614a0781896148fb565b9050614a1660c083018861450b565b614a2360e083018761499c565b818103610100830152614a3681866148fb565b9050614a4661012083018561450b565b818103610140830152614a5981846148fb565b90509c9b505050505050505050505050565b600080600060608486031215614a8457614a8361449e565b5b6000614a9286828701614688565b9350506020614aa3868287016144c9565b9250506040614ab4868287016144c9565b9150509250925092565b600080600080600060a08688031215614ada57614ad961449e565b5b6000614ae888828901614688565b955050602086013567ffffffffffffffff811115614b0957614b086144a3565b5b614b15888289016147b5565b945050604086013567ffffffffffffffff811115614b3657614b356144a3565b5b614b42888289016147b5565b935050606086013567ffffffffffffffff811115614b6357614b626144a3565b5b614b6f888289016147b5565b925050608086013567ffffffffffffffff811115614b9057614b8f6144a3565b5b614b9c888289016147b5565b9150509295509295909350565b600081519050919050565b600082825260208201905092915050565b6000819050602082019050919050565b614bde816144a8565b82525050565b6000614bf08383614bd5565b60208301905092915050565b6000602082019050919050565b6000614c1482614ba9565b614c1e8185614bb4565b9350614c2983614bc5565b8060005b83811015614c5a578151614c418882614be4565b9750614c4c83614bfc565b925050600181019050614c2d565b5085935050505092915050565b60006020820190508181036000830152614c818184614c09565b905092915050565b60008060008060808587031215614ca357614ca261449e565b5b6000614cb187828801614688565b945050602085013567ffffffffffffffff811115614cd257614cd16144a3565b5b614cde878288016147b5565b935050604085013567ffffffffffffffff811115614cff57614cfe6144a3565b5b614d0b878288016147b5565b925050606085013567ffffffffffffffff811115614d2c57614d2b6144a3565b5b614d38878288016147b5565b91505092959194509250565b600060208284031215614d5a57614d5961449e565b5b6000614d6884828501614688565b91505092915050565b600061014082019050614d87600083018d61450b565b614d94602083018c614567565b614da1604083018b614567565b614dae606083018a614567565b8181036080830152614dc081896148fb565b9050614dcf60a083018861450b565b614ddc60c083018761499c565b81810360e0830152614dee81866148fb565b9050614dfe61010083018561450b565b818103610120830152614e1181846148fb565b90509b9a5050505050505050505050565b60008060008060808587031215614e3c57614e3b61449e565b5b6000614e4a87828801614688565b9450506020614e5b878288016144c9565b9350506040614e6c87828801614688565b925050606085013567ffffffffffffffff811115614e8d57614e8c6144a3565b5b614e99878288016147b5565b91505092959194509250565b6000606082019050614eba6000830186614567565b8181036020830152614ecc81856148fb565b90508181036040830152614ee081846148fb565b9050949350505050565b600060e082019050614eff600083018a614567565b8181036020830152614f1181896148fb565b90508181036040830152614f2581886148fb565b90508181036060830152614f3981876148fb565b9050614f48608083018661450b565b614f5560a083018561450b565b614f6260c083018461484b565b98975050505050505050565b600060c082019050614f83600083018961450b565b614f906020830188614567565b614f9d6040830187614567565b614faa606083018661450b565b614fb7608083018561450b565b81810360a0830152614fc981846148fb565b9050979650505050505050565b600060208284031215614fec57614feb61449e565b5b600082013567ffffffffffffffff81111561500a576150096144a3565b5b615016848285016147b5565b91505092915050565b600281106150305761502f614934565b5b50565b60008190506150418261501f565b919050565b600061505182615033565b9050919050565b61506181615046565b82525050565b6000606082019050818103600083015261508181866148fb565b9050615090602083018561450b565b61509d6040830184615058565b949350505050565b600281106150b6576150b5614934565b5b50565b60008190506150c7826150a5565b919050565b60006150d7826150b9565b9050919050565b6150e7816150cc565b82525050565b600060e082019050615102600083018a61450b565b61510f6020830189614567565b61511c6040830188614567565b6151296060830187614567565b615136608083018661450b565b61514360a083018561450b565b61515060c08301846150de565b98975050505050505050565b600061012082019050615172600083018c614567565b8181036020830152615184818b6148fb565b90508181036040830152615198818a6148fb565b905081810360608301526151ac81896148fb565b905081810360808301526151c081886148fb565b90506151cf60a083018761450b565b6151dc60c083018661450b565b6151e960e083018561484b565b6151f761010083018461484b565b9a9950505050505050505050565b600060c08201905061521a6000830189614567565b818103602083015261522c81886148fb565b9050818103604083015261524081876148fb565b9050818103606083015261525481866148fb565b9050615263608083018561484b565b61527060a083018461484b565b979650505050505050565b6000806000606084860312156152945761529361449e565b5b60006152a286828701614688565b93505060206152b386828701614688565b92505060406152c4868287016144c9565b9150509250925092565b600080600080600060a086880312156152ea576152e961449e565b5b60006152f8888289016144c9565b955050602086013567ffffffffffffffff811115615319576153186144a3565b5b615325888289016147b5565b9450506040615336888289016144c9565b9350506060615347888289016144c9565b925050608086013567ffffffffffffffff811115615368576153676144a3565b5b615374888289016147b5565b9150509295509295909350565b7f596f75277265206e6f7420726567697374657265642079657421000000000000600082015250565b60006153b7601a836148c0565b91506153c282615381565b602082019050919050565b600060208201905081810360008301526153e6816153aa565b9050919050565b7f4e487b7100000000000000000000000000000000000000000000000000000000600052602260045260246000fd5b6000600282049050600182168061543457607f821691505b602082108103615447576154466153ed565b5b50919050565b7f496e76616c69642061646472657373206f722070617373776f72640000000000600082015250565b6000615483601b836148c0565b915061548e8261544d565b602082019050919050565b600060208201905081810360008301526154b281615476565b9050919050565b7f5472616e73706f72746174696f6e20616c726561647920636f6d706c6574656460008201527f206f72206e6f7420696e69746961746564000000000000000000000000000000602082015250565b60006155156031836148c0565b9150615520826154b9565b604082019050919050565b6000602082019050818103600083015261554481615508565b9050919050565b7f446f6e6f7220697320616c726561647920726567697374657265640000000000600082015250565b6000615581601b836148c0565b915061558c8261554b565b602082019050919050565b600060208201905081810360008301526155b081615574565b9050919050565b60008190508160005260206000209050919050565b60006020601f8301049050919050565b600082821b905092915050565b6000600883026156197fffffffffffffffffffffffffffffffffffffffffffffffffffffffffffffffff826155dc565b61562386836155dc565b95508019841693508086168417925050509392505050565b6000819050919050565b600061566061565b615656846144a8565b61563b565b6144a8565b9050919050565b6000819050919050565b61567a83615645565b61568e61568682615667565b8484546155e9565b825550505050565b600090565b6156a3615696565b6156ae818484615671565b505050565b5b818110156156d2576156c760008261569b565b6001810190506156b4565b5050565b601f821115615717576156e8816155b7565b6156f1846155cc565b81016020851015615700578190505b61571461570c856155cc565b8301826156b3565b50505b505050565b600082821c905092915050565b600061573a6000198460080261571c565b1980831691505092915050565b60006157538383615729565b9150826002028217905092915050565b61576c826148b5565b67ffffffffffffffff811115615785576157846146b8565b5b61578f825461541c565b61579a8282856156d6565b600060209050601f8311600181146157cd57600084156157bb578287015190505b6157c58582615747565b86555061582d565b601f1984166157db866155b7565b60005b82811015615803578489015182556001820191506020850194506020810190506157de565b86831015615820578489015161581c601f891682615729565b8355505b6001600288020188555050505b505050505050565b7f4d65646963616c2063656e74657220697320616c72656164792072656769737460008201527f6572656400000000000000000000000000000000000000000000000000000000602082015250565b60006158916024836148c0565b915061589c82615835565b604082019050919050565b600060208201905081810360008301526158c081615884565b9050919050565b7f596f75277265206e6f74206c6f6767656420696e000000000000000000000000600082015250565b60006158fd6014836148c0565b9150615908826158c7565b602082019050919050565b6000602082019050818103600083015261592c816158f0565b9050919050565b7f4d65646963616c2063656e7465722070726f63657373206e6f7420636f6d706c60008201527f6574656400000000000000000000000000000000000000000000000000000000602082015250565b600061598f6024836148c0565b915061599a82615933565b604082019050919050565b600060208201905081810360008301526159be81615982565b9050919050565b7f496e76616c6964206c6f67696e2063726564656e7469616c7300000000000000600082015250565b60006159fb6019836148c0565b9150615a06826159c5565b602082019050919050565b60006020820190508181036000830152615a2a816159ee565b9050919050565b7f5265737472696374656420746f2073797374656d206f776e6572206f6e6c7900600082015250565b6000615a67601f836148c0565b9150615a7282615a31565b602082019050919050565b60006020820190508181036000830152615a9681615a5a565b9050919050565b7f5472616e73706f7274657220616c726561647920726567697374657265640000600082015250565b6000615ad3601e836148c0565b9150615ade82615a9d565b602082019050919050565b60006020820190508181036000830152615b0281615ac6565b9050919050565b7f506c6561736520726567697374657220646f6e6f722066697273740000000000600082015250565b6000615b3f601b836148c0565b9150615b4a82615b09565b602082019050919050565b60006020820190508181036000830152615b6e81615b32565b9050919050565b7f4e487b7100000000000000000000000000000000000000000000000000000000600052601160045260246000fd5b6000615baf826144a8565b9150615bba836144a8565b9250828201905080821115615bd257615bd1615b75565b5b92915050565b6000615be3826144a8565b91507fffffffffffffffffffffffffffffffffffffffffffffffffffffffffffffffff8203615c1557615c14615b75565b5b600182019050919050565b7f496e76616c6964207472616e73616374696f6e20737461747573000000000000600082015250565b6000615c56601a836148c0565b9150615c6182615c20565b602082019050919050565b60006020820190508181036000830152615c8581615c49565b9050919050565b7f496e76616c696420646f6e6f7220616464726573730000000000000000000000600082015250565b6000615cc26015836148c0565b9150615ccd82615c8c565b602082019050919050565b60006020820190508181036000830152615cf181615cb5565b9050919050565b600081905092915050565b6000615d0e826148b5565b615d188185615cf8565b9350615d288185602086016148d1565b80840191505092915050565b6000615d408284615d03565b91508190509291505056fea264697066735822122075d1cb1bc71a5d25d15dd10e12f542a9d15ab39497d876515e1c29ca7160100a64736f6c63430008130033",
  "immutableReferences": {},
  "source": "// SPDX-License-Identifier: MIT\npragma solidity ^0.8.19;\n\ncontract BloodDonationBlockchainSystem {\n    enum TransactionStatus { Pending, Completed }\n    enum TransportationStatus { InTransit, Delivered }\n    enum BloodSupplyStatus { Available, Requested }\n\n    /// @dev create system account structure\n    struct SystemOwner {\n        address sysOwner;\n        string password /*audit*/;\n        bool isLogin;\n    }\n\n    struct Donor {\n        address donorPublicAddress;\n        string name;\n        string bloodType;\n        string phoneNumber;\n        string password;\n        uint256 donatedVolume;\n        uint256 totalPayment;\n        bool isRegistered;\n        bool isLogin;\n        // uint256[] donationHistory;\n    }\n\n    struct Transporter {\n        address transporterPublicAddress;\n        string name;\n        string phoneNumber;\n        string password;\n        bool isRegistered;\n        bool isLogin;\n    }\n\n    struct MedicalCenter {\n        address MCPublicAddress;\n        string name;\n        string phoneNumber;\n        string password;\n        bool isRegistered;\n        bool isLogin;\n    }\n\n    struct DonationTransaction {\n        uint256 transactionID;\n        address donor;\n        address recipient;\n        address medicalStaff;\n        address transporter;\n        string bloodType;\n        uint256 donationDate;\n        TransactionStatus status;\n        string medicalCenter;\n        uint256 donatedVolume;\n        string bloodTestResult;\n    }\n\n    struct MedicalRecord {\n        uint256 recordID;\n        address donor;\n        address medicalStaff;\n        uint256 bloodPressure;\n        uint256 hemoglobinLevel;\n        string bloodTestResults;\n        // uint256[] donationHistory;\n    }\n\n    struct TransportationRecord {\n        uint256 recordID;\n        address transporter;\n        address donor;\n        address recipient;\n        uint256 pickupDateTime;\n        uint256 deliveryDateTime;\n        TransportationStatus status;\n    }\n\n    struct BloodSupply {\n        string bloodType;\n        uint256 volume;\n        BloodSupplyStatus status;\n    }\n\n    address public owner;\n    mapping(address => SystemOwner) private sysOwnerMap;\n    \n    mapping(address => Donor) public donors;\n    mapping(address => Transporter) public transporters;\n    mapping(address => MedicalCenter) public medicalsCenters;\n    mapping(address => mapping(uint256 => MedicalRecord)) public medicalRecords;\n    // mapping(uint256 => DonationTransaction) public donationTransactions;\n    mapping(address => mapping(uint256 => DonationTransaction)) public donationTransactions;\n\n    // mapping(uint256 => MedicalRecord) public medicalRecords;\n    mapping(uint256 => TransportationRecord) public transportationRecords;\n    mapping(string => BloodSupply) public bloodSupplies;\n\n    address[] public donorAddressArr;\n    address[] public transporterAddressArr;\n    address[] public medicaCenterAddressArr;\n    uint256[] public donationTransactionsArr;\n    uint256[] public medicalRecordsArr;\n\n    uint256 public transactionCounter;\n    uint256 public recordCounter;\n\n    modifier onlyOwner() {\n        require(msg.sender == owner, \"Restricted to system owner only\");\n        _;\n    }\n\n    // modifier onlyMedicalStaff() {\n    //     require(\n    //         medicalsCenters[msg.sender].MCPublicAddress == msg.sender,\n    //         \"Only medical staff can perform this action\"\n    //     );\n    //     _;\n    // }\n\n    // modifier onlyTransporter() {\n    //     require(\n    //         transporters[msg.sender].transporterPublicAddress == msg.sender,\n    //         \"Only transporters can perform this action\"\n    //     );\n    //     _;\n    // }\n\n    SystemOwner private sysowner;\n\n    constructor() {\n        owner = msg.sender;\n        sysowner = SystemOwner(owner, \"admin\", false);\n        sysOwnerMap[owner] = sysowner;\n    }\n\n    // function checkSystemOwnerLogin(address _SYSPublicAddress, string memory _password) public view returns (bool) {\n    //     // require(!medicalsCenters[_MCPublicAddress].isLogin, \"You're already logged in\");\n    //     require(compareString(sysOwnerMap[_SYSPublicAddress].password, _password), \"Invalid address or password\");\n\n    //     return true;\n    // }\n\n    // function systemOwnerLogin(address _MCPublicAddress, string memory _password) public {\n    //     require(checkSystemOwnerLogin(_MCPublicAddress, _password), \"Invalid login credentials\");\n\n    //     sysOwnerMap[_MCPublicAddress].isLogin = true;\n    // }\n\n    function addDonor(\n        address _donorPublicAddress,\n        string memory _name,\n        string memory _bloodType,\n        string memory _contactNumber,\n        string memory _password\n    ) public {\n        require(\n            donors[_donorPublicAddress].isRegistered == false,\n            \"Donor is already registered\"\n        );\n        donors[_donorPublicAddress] = Donor(\n            _donorPublicAddress,\n            _name,\n            _bloodType,\n            _contactNumber,\n            _password,\n            0,\n            0,\n            true,\n            false\n        );\n        donorAddressArr.push(_donorPublicAddress);\n    }\n\n    // function  donorLogin(address _donorPublicAddress, string memory _password) public {\n    //     require(donors[_donorPublicAddress].isRegistered == true, \"Your not registered yet!\");\n    //     require(donors[_donorPublicAddress].isLogin == false, \"Your Already login\");\n    //     require(compareString(donors[_donorPublicAddress].password, _password), \"Invalid address or password\");\n        \n    //     donors[_donorPublicAddress].isLogin = true;\n    // }\n\n    function getDonorsArr() public view returns (address[] memory) {\n        return donorAddressArr;\n    }\n\n    function getDonor(\n        address _donorPublicAddress\n    )\n        public\n        view\n        returns (\n            address publicAddress,\n            string memory name,\n            string memory bloodType,\n            string memory phoneNumber,\n            uint256 donatedVolume,\n            uint256 totalPayment,\n            bool isRegistered\n        )\n    {\n        Donor memory donor = donors[_donorPublicAddress];\n        publicAddress = donor.donorPublicAddress;\n        name = donor.name;\n        bloodType = donor.bloodType;\n        phoneNumber = donor.phoneNumber;\n        donatedVolume = donor.donatedVolume;\n        totalPayment = donor.totalPayment;\n        isRegistered = donor.isRegistered;\n    }\n\n    function addTransporter(\n        address _transporterPublicAddress,\n        string memory _name,\n        string memory _contactNumber,\n        string memory _password\n    ) public onlyOwner() {\n        // onlyOwner\n        require(\n            transporters[_transporterPublicAddress].isRegistered == false,\n            \"Transporter already registered\"\n        );\n        transporters[_transporterPublicAddress] = Transporter({\n            transporterPublicAddress: _transporterPublicAddress,\n            name: _name,\n            phoneNumber: _contactNumber,\n            password: _password,\n            isRegistered: true,\n            isLogin: false\n        });\n        transporterAddressArr.push(_transporterPublicAddress);\n    }\n\n    // function  transporterLogin(address _transporterPublicAddress, string memory _password) public {\n    //     require(transporters[_transporterPublicAddress].isRegistered == true, \"Your not registered yet!\");\n    //     require(transporters[_transporterPublicAddress].isLogin == false, \"Your Already login\");\n    //     require(compareString(transporters[_transporterPublicAddress].password, _password), \"Invalid address or password\");\n\n    //     transporters[_transporterPublicAddress].isLogin = true;\n    // }\n\n    function getTransportersArr() public view returns (address[] memory) {\n        return transporterAddressArr;\n    }\n\n    function getTransporter(\n        address _transporterPublicAddress\n    )\n        public\n        view\n        returns (\n            address transporterPublicAddress,\n            string memory name,\n            string memory phoneNumber\n        )\n    {\n        Transporter memory transporter = transporters[_transporterPublicAddress];\n        transporterPublicAddress = transporter.transporterPublicAddress;\n        name = transporter.name;\n        phoneNumber = transporter.phoneNumber;\n    }\n\n    function addMedicalCenter(\n        address _MCPublicAddress,\n        string memory _name,\n        string memory _contactNumber,\n        string memory _password\n    ) public {\n        // onlyOwner\n        require(\n            medicalsCenters[_MCPublicAddress].isRegistered == false,\n            \"Medical center is already registered\"\n        );\n        medicalsCenters[_MCPublicAddress] = MedicalCenter({\n            MCPublicAddress: _MCPublicAddress,\n            name: _name,\n            phoneNumber: _contactNumber,\n            password: _password,\n            isRegistered: true,\n            isLogin: false\n        });\n        medicaCenterAddressArr.push(_MCPublicAddress);\n        \n    }\n\n    // function  medicalCenterLogin(address _MCPublicAddress, string memory _password) public {\n    //     require(medicalsCenters[_MCPublicAddress].isRegistered == true, \"Your not registered yet!\");\n    //     require(medicalsCenters[_MCPublicAddress].isLogin == false, \"Your Already login\");\n    //     require(compareString(medicalsCenters[_MCPublicAddress].password, _password), \"Invalid address or password\");\n\n    //     MedicalCenter memory medicalCenter = medicalsCenters[_MCPublicAddress];\n    //     medicalCenter.isLogin = true;\n    // }\n\n    function checkMedicalCenterLogin(address _MCPublicAddress, string memory _password) public view returns (bool) {\n        require(medicalsCenters[_MCPublicAddress].isRegistered == true, \"You're not registered yet!\");\n        // require(!medicalsCenters[_MCPublicAddress].isLogin, \"You're already logged in\");\n        require(compareString(medicalsCenters[_MCPublicAddress].password, _password), \"Invalid address or password\");\n\n        return true;\n    }\n\n    function medicalCenterLogin(address _MCPublicAddress, string memory _password) public {\n        require(checkMedicalCenterLogin(_MCPublicAddress, _password), \"Invalid login credentials\");\n\n        medicalsCenters[_MCPublicAddress].isLogin = true;\n    }\n\n    function medicalCenterLogout(address _MCPublicAddress) public {\n        require(medicalsCenters[_MCPublicAddress].isLogin, \"You're not logged in\");\n\n        medicalsCenters[_MCPublicAddress].isLogin = false;\n    }\n\n    function getMedicalCentersArr() public view returns (address[] memory) {\n        return medicaCenterAddressArr;\n    }\n\n    function getMedicalCenter(\n        address _medicalStaffPublicAddress\n    )\n        public\n        view\n        returns (\n            address MCPublicAddress,\n            string memory name,\n            string memory phoneNumber\n        )\n    {\n        MedicalCenter memory medicalCenter = medicalsCenters[_medicalStaffPublicAddress];\n        MCPublicAddress = medicalCenter.MCPublicAddress;\n        name = medicalCenter.name;\n        phoneNumber = medicalCenter.phoneNumber;\n    }\n\n    // function donorChangePassword(string memory _oldPassword, string memory _newPassword) external {\n    //     require(compareString(donors[msg.sender].password, _oldPassword), \"Invalid old password\");\n    //     require(keccak256(abi.encode(_newPassword)).length > 0, \"Password should not be empty\");\n    //     require(compareString(donors[msg.sender].password, _newPassword), \"Invalid new password\");\n    //     require(donors[msg.sender].isLogin == true, \"Not logged in\");\n\n    //     donors[msg.sender].password = _newPassword;\n    //     // emit PasswordChanged(msg.sender);\n    // }\n\n    // ---------------- Start Donation initialization ---------------------\n\n    function donateBloodToMedicalCenter(\n        address _medicalCenterPublicAddress,\n        address _donorPublicAddress,\n        uint256 _volume\n    ) public {\n        require(\n            donors[_donorPublicAddress].isRegistered == true,\n            \"Please register donor first\"\n        );\n\n        uint256 transactionID = block.timestamp;\n        donationTransactions[_medicalCenterPublicAddress][transactionID] = DonationTransaction({\n            transactionID: transactionID,\n            donor: _donorPublicAddress,\n            recipient: address(0),\n            medicalStaff: msg.sender,\n            transporter: address(0),\n            bloodType: donors[_donorPublicAddress].bloodType,\n            donationDate: block.timestamp,\n            status: TransactionStatus.Pending,\n            medicalCenter: \"\",\n            donatedVolume: _volume,\n            bloodTestResult: \"\"\n        });\n        donors[_donorPublicAddress].donatedVolume += _volume;\n\n        // donors[msg.sender].bloodType = string(\"Other\");\n        donationTransactionsArr.push(transactionID);\n\n        // Increment the transaction count\n        transactionCounter++;\n    }\n\n    function getDonationTransactionArr()\n        public\n        view\n        returns (uint256[] memory)\n    {\n        return donationTransactionsArr;\n    }\n\n    function getDonationTransaction(\n        address _medicalCenterPublicAddress,\n        uint256 _transactionID\n    )\n        public\n        view\n        returns (\n            uint256 transactionID,\n            address donorPublicAddress,\n            address recipientPublicAddress,\n            address transporterPublicAddress,\n            string memory bloodType,\n            uint256 donationDate,\n            TransactionStatus status,\n            string memory medicalCenter,\n            uint256 donatedVolume,\n            string memory bloodTestResult\n        )\n    {\n        DonationTransaction memory donationTransaction = donationTransactions[_medicalCenterPublicAddress][\n            _transactionID\n        ];\n        transactionID = donationTransaction.transactionID;\n        donorPublicAddress = donationTransaction.donor;\n        recipientPublicAddress = donationTransaction.recipient;\n        transporterPublicAddress = donationTransaction.transporter;\n        bloodType = donationTransaction.bloodType;\n        donationDate = donationTransaction.donationDate;\n        status = donationTransaction.status;\n        medicalCenter = donationTransaction.medicalCenter;\n        donatedVolume = donationTransaction.donatedVolume;\n        bloodTestResult = donationTransaction.bloodTestResult;\n    }\n\n    // ---------------- End Donation initialization ---------------------\n\n    // ---------------- Start Complete Donation  ------------------------\n\n    // function completeDonationToMedicalCenter(\n    //     uint256 _transactionID,\n    //     string memory _medicalCenter,\n    //     uint256 _bloodPressure,\n    //     uint256 _hemoglobinLevel,\n    //     string memory _bloodTestResults\n    // ) public {\n    //     require(\n    //         donationTransactions[_transactionID].status ==\n    //             TransactionStatus.Pending,\n    //         \"Invalid transaction status\"\n    //     );\n    //     require(\n    //         donationTransactions[_transactionID].donor != address(0),\n    //         \"Invalid donor address\"\n    //     );\n\n    //     donationTransactions[_transactionID].medicalStaff = msg.sender;\n    //     donationTransactions[_transactionID].medicalCenter = _medicalCenter;\n    //     donationTransactions[_transactionID].status = TransactionStatus.Completed;\n    //     donationTransactions[_transactionID].bloodTestResult = _bloodTestResults;\n\n    //     uint256 recordID = block.timestamp;\n    //     medicalRecords[recordID] = MedicalRecord({\n    //         recordID: recordID,\n    //         donor: donationTransactions[_transactionID].donor,\n    //         medicalStaff: msg.sender,\n    //         bloodPressure: _bloodPressure,\n    //         hemoglobinLevel: _hemoglobinLevel,\n    //         bloodTestResults: _bloodTestResults\n    //         // donationHistory: new uint256[](0)\n    //     });\n    //     medicalRecordsArr.push(recordID);\n\n    //     // donors[donationTransactions[_transactionID].donor].donationHistory.push(\n    //     //     _transactionID\n    //     // );\n\n    //     // uint256 payment = calculatePayment(\n    //     //     donors[donationTransactions[_transactionID].donor].donatedVolume\n    //     // );\n    //     // uint256 payment = calculatePayment(_transactionID);\n    //     // donors[donationTransactions[_transactionID].donor]\n    //     //     .totalPayment += payment;\n    //     // payable(msg.sender).transfer(payment);\n    // }\n\n    function completeDonationToMedicalCenter(\n        uint256 _transactionID,\n        string memory _medicalCenter,\n        uint256 _bloodPressure,\n        uint256 _hemoglobinLevel,\n        string memory _bloodTestResults\n    ) public {\n        require(\n            donationTransactions[msg.sender][_transactionID].status ==\n                TransactionStatus.Pending,\n            \"Invalid transaction status\"\n        );\n        require(\n            donationTransactions[msg.sender][_transactionID].donor != address(0),\n            \"Invalid donor address\"\n        );\n\n        donationTransactions[msg.sender][_transactionID].medicalStaff = msg.sender;\n        donationTransactions[msg.sender][_transactionID].medicalCenter = _medicalCenter;\n        donationTransactions[msg.sender][_transactionID].status = TransactionStatus.Completed;\n        donationTransactions[msg.sender][_transactionID].bloodTestResult = _bloodTestResults;\n\n        uint256 recordID = block.timestamp;\n        medicalRecords[msg.sender][recordID] = MedicalRecord({\n            recordID: recordID,\n            donor: donationTransactions[msg.sender][_transactionID].donor,\n            medicalStaff: msg.sender,\n            bloodPressure: _bloodPressure,\n            hemoglobinLevel: _hemoglobinLevel,\n            bloodTestResults: _bloodTestResults\n            // donationHistory: new uint256[](0)\n        });\n        medicalRecordsArr.push(recordID);\n\n        // donors[donationTransactions[_transactionID].donor].donationHistory.push(\n        //     _transactionID\n        // );\n\n        // uint256 payment = calculatePayment(\n        //     donors[donationTransactions[_transactionID].donor].donatedVolume\n        // );\n        // uint256 payment = calculatePayment(_transactionID);\n        // donors[donationTransactions[_transactionID].donor]\n        //     .totalPayment += payment;\n        // payable(msg.sender).transfer(payment);\n    }\n\n    function getMedicalRecordsArr()\n        public\n        view\n        returns (uint256[] memory)\n    {\n        return medicalRecordsArr;\n    }\n\n    function getMedicalRecord(\n        address _medicalCenterAddress,\n        uint256 _medicalRecordID\n    )\n        public\n        view\n        returns (\n            uint256 medicalRecordID,\n            address donorAddress,\n            address medicalStaff,\n            uint256 bloodPressure,\n            uint256 hemoglobinLevel,\n            string memory bloodTestResult\n        )\n    {\n        MedicalRecord memory medicalRecord = medicalRecords[_medicalCenterAddress][\n            _medicalRecordID\n        ];\n        medicalRecordID = medicalRecord.recordID;\n        donorAddress = medicalRecord.donor;\n        medicalStaff = medicalRecord.medicalStaff;\n        bloodPressure = medicalRecord.bloodPressure;\n        hemoglobinLevel = medicalRecord.hemoglobinLevel;\n        bloodTestResult = medicalRecord.bloodTestResults;\n    }\n\n    // ---------------- End Complete Donation  ------------------------\n\n    function initiateTransportation(\n        address _medicalCenterPublicAddress,\n        uint256 _transactionID,\n        address _recipient,\n        string memory _medicalCenter\n    ) public {\n        require(\n            donationTransactions[_medicalCenterPublicAddress][_transactionID].status ==\n                TransactionStatus.Completed,\n            \"Medical center process not completed\"\n        );\n\n        uint256 transactionID = block.timestamp;\n        donationTransactions[_medicalCenterPublicAddress][transactionID] = DonationTransaction({\n            transactionID: transactionID,\n            donor: donationTransactions[_medicalCenterPublicAddress][_transactionID].donor,\n            recipient: _recipient,\n            medicalStaff: msg.sender,\n            transporter: msg.sender,\n            bloodType: donationTransactions[_medicalCenterPublicAddress][_transactionID].bloodType,\n            donationDate: donationTransactions[_medicalCenterPublicAddress][_transactionID].donationDate,\n            status: donationTransactions[_medicalCenterPublicAddress][_transactionID].status,\n            medicalCenter: _medicalCenter,\n            donatedVolume: donors[donationTransactions[_medicalCenterPublicAddress][_transactionID].donor]\n                .donatedVolume,\n            bloodTestResult: donationTransactions[_medicalCenterPublicAddress][_transactionID].bloodTestResult\n        });\n    }\n\n    function completeTransportation(\n        address _medicalCenterPublicAddress,\n        uint256 _recordID,\n        uint256 _transactionID\n    ) public {\n        // onlyTransporter\n        require(\n            transportationRecords[_recordID].status ==\n                TransportationStatus.InTransit,\n            \"Transportation already completed or not initiated\"\n        );\n        transportationRecords[_recordID].deliveryDateTime = block.timestamp;\n        transportationRecords[_recordID].status = TransportationStatus\n            .Delivered;\n        donationTransactions[_medicalCenterPublicAddress][_transactionID].transporter = msg.sender;\n    }\n\n    // function calculatePayment(\n    //     uint256 _transactionID\n    // ) internal view returns (uint256) {\n    //     require(\n    //         donationTransactions[_transactionID].status ==\n    //             TransactionStatus.Completed,\n    //         \"Transaction not completed\"\n    //     );\n    //     // Assuming a fixed payment rate for simplicity\n    //     uint256 _donatedVolume = donationTransactions[_transactionID]\n    //         .donatedVolume;\n    //     uint256 paymentRate = 1 gwei; // 1gwei/ml\n    //     return _donatedVolume * paymentRate;\n    // }\n\n    // function addBloodSupply(string memory _bloodType, uint256 _volume) public {\n    //     // onlyMedicalStaff\n    //     require(_volume > 0, \"Volume must be greater than zero\");\n    //     require(\n    //         bloodSupplies[_bloodType].status != BloodSupplyStatus.Requested,\n    //         \"Blood type already requested\"\n    //     );\n\n    //     if (bloodSupplies[_bloodType].status == BloodSupplyStatus.Available) {\n    //         bloodSupplies[_bloodType].volume += _volume;\n    //     } else {\n    //         bloodSupplies[_bloodType] = BloodSupply({\n    //             bloodType: _bloodType,\n    //             volume: _volume,\n    //             status: BloodSupplyStatus.Available\n    //         });\n    //     }\n    // }\n\n    // function requestBloodType(\n    //     string memory _bloodType,\n    //     uint256 _volume\n    // ) public {\n    //     // onlyMedicalStaff\n    //     require(\n    //         bloodSupplies[_bloodType].status == BloodSupplyStatus.Available,\n    //         \"Blood type not available\"\n    //     );\n    //     require(\n    //         bloodSupplies[_bloodType].volume >= _volume,\n    //         \"Insufficient blood volume\"\n    //     );\n\n        // You can add more logic here to handle the request\n        // For example, update the blood supply status or create a new transaction record\n    // }\n\n    function compareString(string memory _a, string memory _b) internal pure returns(bool) {\n        return keccak256(abi.encodePacked(_a)) == keccak256(abi.encodePacked(_b));\n    }\n\n}\n",
  "sourcePath": "/home/temba/Desktop/blood-donation-blockchain-system/client-side/contracts/BloodDonationBlockchainSystem.sol",
  "compiler": {
    "name": "solc",
    "version": "0.8.19+commit.7dd6d404.Emscripten.clang"
  },
  "schemaVersion": "3.4.16",
  "updatedAt": "2024-02-29T14:07:59.318Z",
  "networkType": "ethereum",
  "devdoc": {
    "kind": "dev",
    "methods": {},
    "version": 1
  },
  "userdoc": {
    "kind": "user",
    "methods": {},
    "version": 1
  }
}