{
  "contractName": "BloodDonationBlockchainSystem",
  "abi": [
    {
      "inputs": [],
      "stateMutability": "nonpayable",
      "type": "constructor"
    },
    {
      "inputs": [
        {
          "internalType": "string",
          "name": "",
          "type": "string"
        }
      ],
      "name": "bloodSupplies",
      "outputs": [
        {
          "internalType": "string",
          "name": "bloodType",
          "type": "string"
        },
        {
          "internalType": "uint256",
          "name": "volume",
          "type": "uint256"
        },
        {
          "internalType": "enum BloodDonationBlockchainSystem.BloodSupplyStatus",
          "name": "status",
          "type": "uint8"
        }
      ],
      "stateMutability": "view",
      "type": "function",
      "constant": true
    },
    {
      "inputs": [
        {
          "internalType": "uint256",
          "name": "",
          "type": "uint256"
        }
      ],
      "name": "donationTransactions",
      "outputs": [
        {
          "internalType": "uint256",
          "name": "transactionID",
          "type": "uint256"
        },
        {
          "internalType": "address",
          "name": "donor",
          "type": "address"
        },
        {
          "internalType": "address",
          "name": "recipient",
          "type": "address"
        },
        {
          "internalType": "address",
          "name": "medicalStaff",
          "type": "address"
        },
        {
          "internalType": "address",
          "name": "transporter",
          "type": "address"
        },
        {
          "internalType": "string",
          "name": "bloodType",
          "type": "string"
        },
        {
          "internalType": "uint256",
          "name": "donationDate",
          "type": "uint256"
        },
        {
          "internalType": "enum BloodDonationBlockchainSystem.TransactionStatus",
          "name": "status",
          "type": "uint8"
        },
        {
          "internalType": "string",
          "name": "medicalCenter",
          "type": "string"
        },
        {
          "internalType": "uint256",
          "name": "donatedVolume",
          "type": "uint256"
        }
      ],
      "stateMutability": "view",
      "type": "function",
      "constant": true
    },
    {
      "inputs": [
        {
          "internalType": "uint256",
          "name": "",
          "type": "uint256"
        }
      ],
      "name": "donationTransactionsArr",
      "outputs": [
        {
          "internalType": "uint256",
          "name": "",
          "type": "uint256"
        }
      ],
      "stateMutability": "view",
      "type": "function",
      "constant": true
    },
    {
      "inputs": [
        {
          "internalType": "uint256",
          "name": "",
          "type": "uint256"
        }
      ],
      "name": "donorAddressArr",
      "outputs": [
        {
          "internalType": "address",
          "name": "",
          "type": "address"
        }
      ],
      "stateMutability": "view",
      "type": "function",
      "constant": true
    },
    {
      "inputs": [
        {
          "internalType": "address",
          "name": "",
          "type": "address"
        }
      ],
      "name": "donors",
      "outputs": [
        {
          "internalType": "address",
          "name": "donorPublicAddress",
          "type": "address"
        },
        {
          "internalType": "string",
          "name": "name",
          "type": "string"
        },
        {
          "internalType": "string",
          "name": "bloodType",
          "type": "string"
        },
        {
          "internalType": "string",
          "name": "phoneNumber",
          "type": "string"
        },
        {
          "internalType": "string",
          "name": "password",
          "type": "string"
        },
        {
          "internalType": "uint256",
          "name": "donatedVolume",
          "type": "uint256"
        },
        {
          "internalType": "uint256",
          "name": "totalPayment",
          "type": "uint256"
        },
        {
          "internalType": "bool",
          "name": "isRegistered",
          "type": "bool"
        },
        {
          "internalType": "bool",
          "name": "isLogin",
          "type": "bool"
        }
      ],
      "stateMutability": "view",
      "type": "function",
      "constant": true
    },
    {
      "inputs": [
        {
          "internalType": "uint256",
          "name": "",
          "type": "uint256"
        }
      ],
      "name": "medicaCenterAddressArr",
      "outputs": [
        {
          "internalType": "address",
          "name": "",
          "type": "address"
        }
      ],
      "stateMutability": "view",
      "type": "function",
      "constant": true
    },
    {
      "inputs": [
        {
          "internalType": "uint256",
          "name": "",
          "type": "uint256"
        }
      ],
      "name": "medicalRecords",
      "outputs": [
        {
          "internalType": "uint256",
          "name": "recordID",
          "type": "uint256"
        },
        {
          "internalType": "address",
          "name": "donor",
          "type": "address"
        },
        {
          "internalType": "address",
          "name": "medicalStaff",
          "type": "address"
        },
        {
          "internalType": "uint256",
          "name": "bloodPressure",
          "type": "uint256"
        },
        {
          "internalType": "uint256",
          "name": "hemoglobinLevel",
          "type": "uint256"
        },
        {
          "internalType": "string",
          "name": "bloodTestResults",
          "type": "string"
        }
      ],
      "stateMutability": "view",
      "type": "function",
      "constant": true
    },
    {
      "inputs": [
        {
          "internalType": "address",
          "name": "",
          "type": "address"
        }
      ],
      "name": "medicalsCenters",
      "outputs": [
        {
          "internalType": "address",
          "name": "MCPublicAddress",
          "type": "address"
        },
        {
          "internalType": "string",
          "name": "name",
          "type": "string"
        },
        {
          "internalType": "string",
          "name": "phoneNumber",
          "type": "string"
        },
        {
          "internalType": "string",
          "name": "password",
          "type": "string"
        },
        {
          "internalType": "bool",
          "name": "isRegistered",
          "type": "bool"
        },
        {
          "internalType": "bool",
          "name": "isLogin",
          "type": "bool"
        }
      ],
      "stateMutability": "view",
      "type": "function",
      "constant": true
    },
    {
      "inputs": [],
      "name": "owner",
      "outputs": [
        {
          "internalType": "address",
          "name": "",
          "type": "address"
        }
      ],
      "stateMutability": "view",
      "type": "function",
      "constant": true
    },
    {
      "inputs": [],
      "name": "recordCounter",
      "outputs": [
        {
          "internalType": "uint256",
          "name": "",
          "type": "uint256"
        }
      ],
      "stateMutability": "view",
      "type": "function",
      "constant": true
    },
    {
      "inputs": [],
      "name": "transactionCounter",
      "outputs": [
        {
          "internalType": "uint256",
          "name": "",
          "type": "uint256"
        }
      ],
      "stateMutability": "view",
      "type": "function",
      "constant": true
    },
    {
      "inputs": [
        {
          "internalType": "uint256",
          "name": "",
          "type": "uint256"
        }
      ],
      "name": "transportationRecords",
      "outputs": [
        {
          "internalType": "uint256",
          "name": "recordID",
          "type": "uint256"
        },
        {
          "internalType": "address",
          "name": "transporter",
          "type": "address"
        },
        {
          "internalType": "address",
          "name": "donor",
          "type": "address"
        },
        {
          "internalType": "address",
          "name": "recipient",
          "type": "address"
        },
        {
          "internalType": "uint256",
          "name": "pickupDateTime",
          "type": "uint256"
        },
        {
          "internalType": "uint256",
          "name": "deliveryDateTime",
          "type": "uint256"
        },
        {
          "internalType": "enum BloodDonationBlockchainSystem.TransportationStatus",
          "name": "status",
          "type": "uint8"
        }
      ],
      "stateMutability": "view",
      "type": "function",
      "constant": true
    },
    {
      "inputs": [
        {
          "internalType": "uint256",
          "name": "",
          "type": "uint256"
        }
      ],
      "name": "transporterAddressArr",
      "outputs": [
        {
          "internalType": "address",
          "name": "",
          "type": "address"
        }
      ],
      "stateMutability": "view",
      "type": "function",
      "constant": true
    },
    {
      "inputs": [
        {
          "internalType": "address",
          "name": "",
          "type": "address"
        }
      ],
      "name": "transporters",
      "outputs": [
        {
          "internalType": "address",
          "name": "transporterPublicAddress",
          "type": "address"
        },
        {
          "internalType": "string",
          "name": "name",
          "type": "string"
        },
        {
          "internalType": "string",
          "name": "phoneNumber",
          "type": "string"
        },
        {
          "internalType": "string",
          "name": "password",
          "type": "string"
        },
        {
          "internalType": "bool",
          "name": "isRegistered",
          "type": "bool"
        },
        {
          "internalType": "bool",
          "name": "isLogin",
          "type": "bool"
        }
      ],
      "stateMutability": "view",
      "type": "function",
      "constant": true
    },
    {
      "inputs": [
        {
          "internalType": "address",
          "name": "_SYSPublicAddress",
          "type": "address"
        },
        {
          "internalType": "string",
          "name": "_password",
          "type": "string"
        }
      ],
      "name": "checkSystemOwnerLogin",
      "outputs": [
        {
          "internalType": "bool",
          "name": "",
          "type": "bool"
        }
      ],
      "stateMutability": "view",
      "type": "function",
      "constant": true
    },
    {
      "inputs": [
        {
          "internalType": "address",
          "name": "_MCPublicAddress",
          "type": "address"
        },
        {
          "internalType": "string",
          "name": "_password",
          "type": "string"
        }
      ],
      "name": "systemOwnerLogin",
      "outputs": [],
      "stateMutability": "nonpayable",
      "type": "function"
    },
    {
      "inputs": [
        {
          "internalType": "address",
          "name": "_donorPublicAddress",
          "type": "address"
        },
        {
          "internalType": "string",
          "name": "_name",
          "type": "string"
        },
        {
          "internalType": "string",
          "name": "_bloodType",
          "type": "string"
        },
        {
          "internalType": "string",
          "name": "_contactNumber",
          "type": "string"
        },
        {
          "internalType": "string",
          "name": "_password",
          "type": "string"
        }
      ],
      "name": "addDonor",
      "outputs": [],
      "stateMutability": "nonpayable",
      "type": "function"
    },
    {
      "inputs": [],
      "name": "getDonorsArr",
      "outputs": [
        {
          "internalType": "address[]",
          "name": "",
          "type": "address[]"
        }
      ],
      "stateMutability": "view",
      "type": "function",
      "constant": true
    },
    {
      "inputs": [
        {
          "internalType": "address",
          "name": "_donorPublicAddress",
          "type": "address"
        }
      ],
      "name": "getDonor",
      "outputs": [
        {
          "internalType": "address",
          "name": "publicAddress",
          "type": "address"
        },
        {
          "internalType": "string",
          "name": "name",
          "type": "string"
        },
        {
          "internalType": "string",
          "name": "bloodType",
          "type": "string"
        },
        {
          "internalType": "string",
          "name": "phoneNumber",
          "type": "string"
        },
        {
          "internalType": "uint256",
          "name": "donatedVolume",
          "type": "uint256"
        },
        {
          "internalType": "uint256",
          "name": "totalPayment",
          "type": "uint256"
        },
        {
          "internalType": "bool",
          "name": "isRegistered",
          "type": "bool"
        }
      ],
      "stateMutability": "view",
      "type": "function",
      "constant": true
    },
    {
      "inputs": [
        {
          "internalType": "address",
          "name": "_transporterPublicAddress",
          "type": "address"
        },
        {
          "internalType": "string",
          "name": "_name",
          "type": "string"
        },
        {
          "internalType": "string",
          "name": "_contactNumber",
          "type": "string"
        },
        {
          "internalType": "string",
          "name": "_password",
          "type": "string"
        }
      ],
      "name": "addTransporter",
      "outputs": [],
      "stateMutability": "nonpayable",
      "type": "function"
    },
    {
      "inputs": [],
      "name": "getTransportersArr",
      "outputs": [
        {
          "internalType": "address[]",
          "name": "",
          "type": "address[]"
        }
      ],
      "stateMutability": "view",
      "type": "function",
      "constant": true
    },
    {
      "inputs": [
        {
          "internalType": "address",
          "name": "_transporterPublicAddress",
          "type": "address"
        }
      ],
      "name": "getTransporter",
      "outputs": [
        {
          "internalType": "address",
          "name": "transporterPublicAddress",
          "type": "address"
        },
        {
          "internalType": "string",
          "name": "name",
          "type": "string"
        },
        {
          "internalType": "string",
          "name": "phoneNumber",
          "type": "string"
        }
      ],
      "stateMutability": "view",
      "type": "function",
      "constant": true
    },
    {
      "inputs": [
        {
          "internalType": "address",
          "name": "_MCPublicAddress",
          "type": "address"
        },
        {
          "internalType": "string",
          "name": "_name",
          "type": "string"
        },
        {
          "internalType": "string",
          "name": "_contactNumber",
          "type": "string"
        },
        {
          "internalType": "string",
          "name": "_password",
          "type": "string"
        }
      ],
      "name": "addMedicalCenter",
      "outputs": [],
      "stateMutability": "nonpayable",
      "type": "function"
    },
    {
      "inputs": [
        {
          "internalType": "address",
          "name": "_MCPublicAddress",
          "type": "address"
        },
        {
          "internalType": "string",
          "name": "_password",
          "type": "string"
        }
      ],
      "name": "checkMedicalCenterLogin",
      "outputs": [
        {
          "internalType": "bool",
          "name": "",
          "type": "bool"
        }
      ],
      "stateMutability": "view",
      "type": "function",
      "constant": true
    },
    {
      "inputs": [
        {
          "internalType": "address",
          "name": "_MCPublicAddress",
          "type": "address"
        },
        {
          "internalType": "string",
          "name": "_password",
          "type": "string"
        }
      ],
      "name": "medicalCenterLogin",
      "outputs": [],
      "stateMutability": "nonpayable",
      "type": "function"
    },
    {
      "inputs": [
        {
          "internalType": "address",
          "name": "_MCPublicAddress",
          "type": "address"
        }
      ],
      "name": "medicalCenterLogout",
      "outputs": [],
      "stateMutability": "nonpayable",
      "type": "function"
    },
    {
      "inputs": [],
      "name": "getMedicalCentersArr",
      "outputs": [
        {
          "internalType": "address[]",
          "name": "",
          "type": "address[]"
        }
      ],
      "stateMutability": "view",
      "type": "function",
      "constant": true
    },
    {
      "inputs": [
        {
          "internalType": "address",
          "name": "_medicalStaffPublicAddress",
          "type": "address"
        }
      ],
      "name": "getMedicalCenter",
      "outputs": [
        {
          "internalType": "address",
          "name": "MCPublicAddress",
          "type": "address"
        },
        {
          "internalType": "string",
          "name": "name",
          "type": "string"
        },
        {
          "internalType": "string",
          "name": "phoneNumber",
          "type": "string"
        }
      ],
      "stateMutability": "view",
      "type": "function",
      "constant": true
    },
    {
      "inputs": [
        {
          "internalType": "address",
          "name": "_donorPublicAddress",
          "type": "address"
        },
        {
          "internalType": "uint256",
          "name": "_volume",
          "type": "uint256"
        }
      ],
      "name": "donateBloodToMedicalCenter",
      "outputs": [],
      "stateMutability": "nonpayable",
      "type": "function"
    },
    {
      "inputs": [],
      "name": "getDonationTransactionArr",
      "outputs": [
        {
          "internalType": "uint256[]",
          "name": "",
          "type": "uint256[]"
        }
      ],
      "stateMutability": "view",
      "type": "function",
      "constant": true
    },
    {
      "inputs": [
        {
          "internalType": "uint256",
          "name": "_transactionID",
          "type": "uint256"
        }
      ],
      "name": "getDonationTransaction",
      "outputs": [
        {
          "internalType": "uint256",
          "name": "transactionID",
          "type": "uint256"
        },
        {
          "internalType": "address",
          "name": "donorPublicAddress",
          "type": "address"
        },
        {
          "internalType": "address",
          "name": "recipientPublicAddress",
          "type": "address"
        },
        {
          "internalType": "address",
          "name": "transporterPublicAddress",
          "type": "address"
        },
        {
          "internalType": "string",
          "name": "bloodType",
          "type": "string"
        },
        {
          "internalType": "uint256",
          "name": "donationDate",
          "type": "uint256"
        },
        {
          "internalType": "enum BloodDonationBlockchainSystem.TransactionStatus",
          "name": "status",
          "type": "uint8"
        },
        {
          "internalType": "string",
          "name": "medicalCenter",
          "type": "string"
        },
        {
          "internalType": "uint256",
          "name": "donatedVolume",
          "type": "uint256"
        }
      ],
      "stateMutability": "view",
      "type": "function",
      "constant": true
    },
    {
      "inputs": [
        {
          "internalType": "uint256",
          "name": "_transactionID",
          "type": "uint256"
        },
        {
          "internalType": "string",
          "name": "_medicalCenter",
          "type": "string"
        },
        {
          "internalType": "uint256",
          "name": "_bloodPressure",
          "type": "uint256"
        },
        {
          "internalType": "uint256",
          "name": "_hemoglobinLevel",
          "type": "uint256"
        },
        {
          "internalType": "string",
          "name": "_bloodTestResults",
          "type": "string"
        }
      ],
      "name": "completeDonationToMedicalCenter",
      "outputs": [],
      "stateMutability": "nonpayable",
      "type": "function"
    },
    {
      "inputs": [
        {
          "internalType": "uint256",
          "name": "_transactionID",
          "type": "uint256"
        },
        {
          "internalType": "address",
          "name": "_recipient",
          "type": "address"
        },
        {
          "internalType": "string",
          "name": "_medicalCenter",
          "type": "string"
        }
      ],
      "name": "initiateTransportation",
      "outputs": [],
      "stateMutability": "nonpayable",
      "type": "function"
    },
    {
      "inputs": [
        {
          "internalType": "uint256",
          "name": "_recordID",
          "type": "uint256"
        },
        {
          "internalType": "uint256",
          "name": "_transactionID",
          "type": "uint256"
        }
      ],
      "name": "completeTransportation",
      "outputs": [],
      "stateMutability": "nonpayable",
      "type": "function"
    },
    {
      "inputs": [
        {
          "internalType": "string",
          "name": "_bloodType",
          "type": "string"
        },
        {
          "internalType": "uint256",
          "name": "_volume",
          "type": "uint256"
        }
      ],
      "name": "addBloodSupply",
      "outputs": [],
      "stateMutability": "nonpayable",
      "type": "function"
    }
  ],
  "bytecode": "0x60806040523480156200001157600080fd5b50336000806101000a81548173ffffffffffffffffffffffffffffffffffffffff021916908373ffffffffffffffffffffffffffffffffffffffff160217905550604051806060016040528060008054906101000a900473ffffffffffffffffffffffffffffffffffffffff1673ffffffffffffffffffffffffffffffffffffffff1681526020016040518060400160405280600581526020017f61646d696e000000000000000000000000000000000000000000000000000000815250815260200160001515815250600f60008201518160000160006101000a81548173ffffffffffffffffffffffffffffffffffffffff021916908373ffffffffffffffffffffffffffffffffffffffff16021790555060208201518160010190816200013b9190620004ef565b5060408201518160020160006101000a81548160ff021916908315150217905550905050600f600160008060009054906101000a900473ffffffffffffffffffffffffffffffffffffffff1673ffffffffffffffffffffffffffffffffffffffff1673ffffffffffffffffffffffffffffffffffffffff1681526020019081526020016000206000820160009054906101000a900473ffffffffffffffffffffffffffffffffffffffff168160000160006101000a81548173ffffffffffffffffffffffffffffffffffffffff021916908373ffffffffffffffffffffffffffffffffffffffff160217905550600182018160010190816200023e9190620005ee565b506002820160009054906101000a900460ff168160020160006101000a81548160ff021916908315150217905550905050620006ef565b600081519050919050565b7f4e487b7100000000000000000000000000000000000000000000000000000000600052604160045260246000fd5b7f4e487b7100000000000000000000000000000000000000000000000000000000600052602260045260246000fd5b60006002820490506001821680620002f757607f821691505b6020821081036200030d576200030c620002af565b5b50919050565b60008190508160005260206000209050919050565b60006020601f8301049050919050565b600082821b905092915050565b600060088302620003777fffffffffffffffffffffffffffffffffffffffffffffffffffffffffffffffff8262000338565b62000383868362000338565b95508019841693508086168417925050509392505050565b6000819050919050565b6000819050919050565b6000620003d0620003ca620003c4846200039b565b620003a5565b6200039b565b9050919050565b6000819050919050565b620003ec83620003af565b62000404620003fb82620003d7565b84845462000345565b825550505050565b600090565b6200041b6200040c565b62000428818484620003e1565b505050565b5b8181101562000450576200044460008262000411565b6001810190506200042e565b5050565b601f8211156200049f57620004698162000313565b620004748462000328565b8101602085101562000484578190505b6200049c620004938562000328565b8301826200042d565b50505b505050565b600082821c905092915050565b6000620004c460001984600802620004a4565b1980831691505092915050565b6000620004df8383620004b1565b9150826002028217905092915050565b620004fa8262000275565b67ffffffffffffffff81111562000516576200051562000280565b5b620005228254620002de565b6200052f82828562000454565b600060209050601f83116001811462000567576000841562000552578287015190505b6200055e8582620004d1565b865550620005ce565b601f198416620005778662000313565b60005b82811015620005a1578489015182556001820191506020850194506020810190506200057a565b86831015620005c15784890151620005bd601f891682620004b1565b8355505b6001600288020188555050505b505050505050565b600081549050620005e781620002de565b9050919050565b818103620005fe575050620006ed565b6200060982620005d6565b67ffffffffffffffff81111562000625576200062462000280565b5b620006318254620002de565b6200063e82828562000454565b6000601f8311600181146200067257600084156200065d578287015490505b620006698582620004d1565b865550620006e6565b601f198416620006828762000313565b96506200068f8662000313565b60005b82811015620006b95784890154825560018201915060018501945060208101905062000692565b86831015620006d95784890154620006d5601f891682620004b1565b8355505b6001600288020188555050505b5050505050505b565b615c6f80620006ff6000396000f3fe608060405234801561001057600080fd5b50600436106102115760003560e01c80638bbcbd1b11610125578063ca0cdea8116100ad578063d04398d61161007c578063d04398d6146106aa578063d313e8a1146106c8578063e25bd158146106fd578063e404fea214610732578063ef0aa4e61461076a57610211565b8063ca0cdea81461061e578063cb2edb6a14610656578063cfaa5be214610672578063cfc097011461068e57610211565b8063ac6cb237116100f4578063ac6cb2371461054e578063ae2a7ad51461057e578063b98049351461059a578063bc79c102146105cc578063c02b9f5a146105e857610211565b80638bbcbd1b146104965780638da5cb5b146104c857806396c59043146104e65780639c1bc07b1461051c57610211565b806344d38d70116101a85780637564a13c116101775780637564a13c146103d05780637599be5d1461040557806376948dbd146104235780637b4843de1461043f5780638acd0bfc1461045d57610211565b806344d38d701461034a57806348803dbf1461037a57806352ca81c1146103965780637325da9e146103b457610211565b80631eb850b1116101e45780631eb850b1146102b057806325c368fe146102ce5780632cfb9c11146102fe5780633a42b00f1461032e57610211565b80630c7a538f1461021657806314e887e81461024657806315eb1adf14610264578063197bd71e14610294575b600080fd5b610230600480360381019061022b9190614290565b610786565b60405161023d9190614307565b60405180910390f35b61024e6108a5565b60405161025b919061433b565b60405180910390f35b61027e60048036038101906102799190614382565b6108ab565b60405161028b91906143be565b60405180910390f35b6102ae60048036038101906102a991906143d9565b6108ea565b005b6102b8610afc565b6040516102c591906144f3565b60405180910390f35b6102e860048036038101906102e39190614290565b610b8a565b6040516102f59190614307565b60405180910390f35b61031860048036038101906103139190614382565b610d3f565b60405161032591906143be565b60405180910390f35b61034860048036038101906103439190614515565b610d7e565b005b610364600480360381019061035f9190614382565b6111be565b604051610371919061433b565b60405180910390f35b610394600480360381019061038f9190614584565b6111e2565b005b61039e611476565b6040516103ab91906144f3565b60405180910390f35b6103ce60048036038101906103c9919061466f565b611504565b005b6103ea60048036038101906103e59190614382565b611757565b6040516103fc969594939291906147a9565b60405180910390f35b61040d61185b565b60405161041a919061433b565b60405180910390f35b61043d60048036038101906104389190614811565b611861565b005b61044761194e565b60405161045491906144f3565b60405180910390f35b61047760048036038101906104729190614382565b6119dc565b60405161048d9a999897969594939291906148b5565b60405180910390f35b6104b060048036038101906104ab9190614811565b611bcd565b6040516104bf9392919061495f565b60405180910390f35b6104d0611e7f565b6040516104dd91906143be565b60405180910390f35b61050060048036038101906104fb9190614811565b611ea3565b60405161051397969594939291906149a4565b60405180910390f35b61053660048036038101906105319190614a28565b612222565b60405161054593929190614ab9565b60405180910390f35b61056860048036038101906105639190614382565b6122f7565b60405161057591906143be565b60405180910390f35b61059860048036038101906105939190614290565b612336565b005b6105b460048036038101906105af9190614811565b6123de565b6040516105c39392919061495f565b60405180910390f35b6105e660048036038101906105e1919061466f565b612690565b005b61060260048036038101906105fd9190614382565b6128e3565b6040516106159796959493929190614b3f565b60405180910390f35b61063860048036038101906106339190614811565b612992565b60405161064d99989796959493929190614bae565b60405180910390f35b610670600480360381019061066b9190614c57565b612c3a565b005b61068c60048036038101906106879190614c97565b612d77565b005b6106a860048036038101906106a39190614290565b6132b8565b005b6106b261335f565b6040516106bf9190614d95565b60405180910390f35b6106e260048036038101906106dd9190614811565b6133b7565b6040516106f496959493929190614db7565b60405180910390f35b61071760048036038101906107129190614811565b6135c5565b60405161072996959493929190614db7565b60405180910390f35b61074c60048036038101906107479190614382565b6137d3565b60405161076199989796959493929190614e2d565b60405180910390f35b610784600480360381019061077f9190614ec8565b613b28565b005b600061085c600160008573ffffffffffffffffffffffffffffffffffffffff1673ffffffffffffffffffffffffffffffffffffffff16815260200190815260200160002060010180546107d890614faa565b80601f016020809104026020016040519081016040528092919081815260200182805461080490614faa565b80156108515780601f1061082657610100808354040283529160200191610851565b820191906000526020600020905b81548152906001019060200180831161083457829003601f168201915b505050505083613f6e565b61089b576040517f08c379a000000000000000000000000000000000000000000000000000000000815260040161089290615027565b60405180910390fd5b6001905092915050565b600d5481565b600981815481106108bb57600080fd5b906000526020600020016000915054906101000a900473ffffffffffffffffffffffffffffffffffffffff1681565b6000811161092d576040517f08c379a000000000000000000000000000000000000000000000000000000000815260040161092490615093565b60405180910390fd5b6001808111156109405761093f61483e565b5b60088360405161095091906150ef565b908152602001604051809103902060020160009054906101000a900460ff1660018111156109815761098061483e565b5b036109c1576040517f08c379a00000000000000000000000000000000000000000000000000000000081526004016109b890615152565b60405180910390fd5b600060018111156109d5576109d461483e565b5b6008836040516109e591906150ef565b908152602001604051809103902060020160009054906101000a900460ff166001811115610a1657610a1561483e565b5b03610a585780600883604051610a2c91906150ef565b90815260200160405180910390206001016000828254610a4c91906151a1565b92505081905550610af8565b604051806060016040528083815260200182815260200160006001811115610a8357610a8261483e565b5b815250600883604051610a9691906150ef565b90815260200160405180910390206000820151816000019081610ab99190615381565b506020820151816001015560408201518160020160006101000a81548160ff02191690836001811115610aef57610aee61483e565b5b02179055509050505b5050565b60606009805480602002602001604051908101604052809291908181526020018280548015610b8057602002820191906000526020600020905b8160009054906101000a900473ffffffffffffffffffffffffffffffffffffffff1673ffffffffffffffffffffffffffffffffffffffff1681526020019060010190808311610b36575b5050505050905090565b600060011515600460008573ffffffffffffffffffffffffffffffffffffffff1673ffffffffffffffffffffffffffffffffffffffff16815260200190815260200160002060040160009054906101000a900460ff16151514610c22576040517f08c379a0000000000000000000000000000000000000000000000000000000008152600401610c199061549f565b60405180910390fd5b610cf6600460008573ffffffffffffffffffffffffffffffffffffffff1673ffffffffffffffffffffffffffffffffffffffff1681526020019081526020016000206003018054610c7290614faa565b80601f0160208091040260200160405190810160405280929190818152602001828054610c9e90614faa565b8015610ceb5780601f10610cc057610100808354040283529160200191610ceb565b820191906000526020600020905b815481529060010190602001808311610cce57829003601f168201915b505050505083613f6e565b610d35576040517f08c379a0000000000000000000000000000000000000000000000000000000008152600401610d2c90615027565b60405180910390fd5b6001905092915050565b600b8181548110610d4f57600080fd5b906000526020600020016000915054906101000a900473ffffffffffffffffffffffffffffffffffffffff1681565b600180811115610d9157610d9061483e565b5b6005600085815260200190815260200160002060070160009054906101000a900460ff166001811115610dc757610dc661483e565b5b14610e07576040517f08c379a0000000000000000000000000000000000000000000000000000000008152600401610dfe90615531565b60405180910390fd5b60004290506040518061014001604052808281526020016005600087815260200190815260200160002060010160009054906101000a900473ffffffffffffffffffffffffffffffffffffffff1673ffffffffffffffffffffffffffffffffffffffff1681526020018473ffffffffffffffffffffffffffffffffffffffff1681526020013373ffffffffffffffffffffffffffffffffffffffff168152602001600073ffffffffffffffffffffffffffffffffffffffff168152602001600560008781526020019081526020016000206005018054610ee690614faa565b80601f0160208091040260200160405190810160405280929190818152602001828054610f1290614faa565b8015610f5f5780601f10610f3457610100808354040283529160200191610f5f565b820191906000526020600020905b815481529060010190602001808311610f4257829003601f168201915b5050505050815260200142815260200160006001811115610f8357610f8261483e565b5b8152602001838152602001600260006005600089815260200190815260200160002060010160009054906101000a900473ffffffffffffffffffffffffffffffffffffffff1673ffffffffffffffffffffffffffffffffffffffff1673ffffffffffffffffffffffffffffffffffffffff16815260200190815260200160002060050154815250600560008381526020019081526020016000206000820151816000015560208201518160010160006101000a81548173ffffffffffffffffffffffffffffffffffffffff021916908373ffffffffffffffffffffffffffffffffffffffff16021790555060408201518160020160006101000a81548173ffffffffffffffffffffffffffffffffffffffff021916908373ffffffffffffffffffffffffffffffffffffffff16021790555060608201518160030160006101000a81548173ffffffffffffffffffffffffffffffffffffffff021916908373ffffffffffffffffffffffffffffffffffffffff16021790555060808201518160040160006101000a81548173ffffffffffffffffffffffffffffffffffffffff021916908373ffffffffffffffffffffffffffffffffffffffff16021790555060a08201518160050190816111589190615381565b5060c0820151816006015560e08201518160070160006101000a81548160ff0219169083600181111561118e5761118d61483e565b5b02179055506101008201518160080190816111a99190615381565b50610120820151816009015590505050505050565b600c81815481106111ce57600080fd5b906000526020600020016000915090505481565b60001515600260008773ffffffffffffffffffffffffffffffffffffffff1673ffffffffffffffffffffffffffffffffffffffff16815260200190815260200160002060070160009054906101000a900460ff16151514611278576040517f08c379a000000000000000000000000000000000000000000000000000000000815260040161126f9061559d565b60405180910390fd5b6040518061012001604052808673ffffffffffffffffffffffffffffffffffffffff168152602001858152602001848152602001838152602001828152602001600081526020016000815260200160011515815260200160001515815250600260008773ffffffffffffffffffffffffffffffffffffffff1673ffffffffffffffffffffffffffffffffffffffff16815260200190815260200160002060008201518160000160006101000a81548173ffffffffffffffffffffffffffffffffffffffff021916908373ffffffffffffffffffffffffffffffffffffffff16021790555060208201518160010190816113719190615381565b5060408201518160020190816113879190615381565b50606082015181600301908161139d9190615381565b5060808201518160040190816113b39190615381565b5060a0820151816005015560c0820151816006015560e08201518160070160006101000a81548160ff0219169083151502179055506101008201518160070160016101000a81548160ff0219169083151502179055509050506009859080600181540180825580915050600190039060005260206000200160009091909190916101000a81548173ffffffffffffffffffffffffffffffffffffffff021916908373ffffffffffffffffffffffffffffffffffffffff1602179055505050505050565b6060600a8054806020026020016040519081016040528092919081815260200182805480156114fa57602002820191906000526020600020905b8160009054906101000a900473ffffffffffffffffffffffffffffffffffffffff1673ffffffffffffffffffffffffffffffffffffffff16815260200190600101908083116114b0575b5050505050905090565b60001515600460008673ffffffffffffffffffffffffffffffffffffffff1673ffffffffffffffffffffffffffffffffffffffff16815260200190815260200160002060040160009054906101000a900460ff1615151461159a576040517f08c379a00000000000000000000000000000000000000000000000000000000081526004016115919061562f565b60405180910390fd5b6040518060c001604052808573ffffffffffffffffffffffffffffffffffffffff16815260200184815260200183815260200182815260200160011515815260200160001515815250600460008673ffffffffffffffffffffffffffffffffffffffff1673ffffffffffffffffffffffffffffffffffffffff16815260200190815260200160002060008201518160000160006101000a81548173ffffffffffffffffffffffffffffffffffffffff021916908373ffffffffffffffffffffffffffffffffffffffff160217905550602082015181600101908161167e9190615381565b5060408201518160020190816116949190615381565b5060608201518160030190816116aa9190615381565b5060808201518160040160006101000a81548160ff02191690831515021790555060a08201518160040160016101000a81548160ff021916908315150217905550905050600b849080600181540180825580915050600190039060005260206000200160009091909190916101000a81548173ffffffffffffffffffffffffffffffffffffffff021916908373ffffffffffffffffffffffffffffffffffffffff16021790555050505050565b60066020528060005260406000206000915090508060000154908060010160009054906101000a900473ffffffffffffffffffffffffffffffffffffffff16908060020160009054906101000a900473ffffffffffffffffffffffffffffffffffffffff16908060030154908060040154908060050180546117d890614faa565b80601f016020809104026020016040519081016040528092919081815260200182805461180490614faa565b80156118515780601f1061182657610100808354040283529160200191611851565b820191906000526020600020905b81548152906001019060200180831161183457829003601f168201915b5050505050905086565b600e5481565b600460008273ffffffffffffffffffffffffffffffffffffffff1673ffffffffffffffffffffffffffffffffffffffff16815260200190815260200160002060040160019054906101000a900460ff166118f0576040517f08c379a00000000000000000000000000000000000000000000000000000000081526004016118e79061569b565b60405180910390fd5b6000600460008373ffffffffffffffffffffffffffffffffffffffff1673ffffffffffffffffffffffffffffffffffffffff16815260200190815260200160002060040160016101000a81548160ff02191690831515021790555050565b6060600b8054806020026020016040519081016040528092919081815260200182805480156119d257602002820191906000526020600020905b8160009054906101000a900473ffffffffffffffffffffffffffffffffffffffff1673ffffffffffffffffffffffffffffffffffffffff1681526020019060010190808311611988575b5050505050905090565b60056020528060005260406000206000915090508060000154908060010160009054906101000a900473ffffffffffffffffffffffffffffffffffffffff16908060020160009054906101000a900473ffffffffffffffffffffffffffffffffffffffff16908060030160009054906101000a900473ffffffffffffffffffffffffffffffffffffffff16908060040160009054906101000a900473ffffffffffffffffffffffffffffffffffffffff1690806005018054611a9d90614faa565b80601f0160208091040260200160405190810160405280929190818152602001828054611ac990614faa565b8015611b165780601f10611aeb57610100808354040283529160200191611b16565b820191906000526020600020905b815481529060010190602001808311611af957829003601f168201915b5050505050908060060154908060070160009054906101000a900460ff1690806008018054611b4490614faa565b80601f0160208091040260200160405190810160405280929190818152602001828054611b7090614faa565b8015611bbd5780601f10611b9257610100808354040283529160200191611bbd565b820191906000526020600020905b815481529060010190602001808311611ba057829003601f168201915b505050505090806009015490508a565b60006060806000600360008673ffffffffffffffffffffffffffffffffffffffff1673ffffffffffffffffffffffffffffffffffffffff1681526020019081526020016000206040518060c00160405290816000820160009054906101000a900473ffffffffffffffffffffffffffffffffffffffff1673ffffffffffffffffffffffffffffffffffffffff1673ffffffffffffffffffffffffffffffffffffffff168152602001600182018054611c8490614faa565b80601f0160208091040260200160405190810160405280929190818152602001828054611cb090614faa565b8015611cfd5780601f10611cd257610100808354040283529160200191611cfd565b820191906000526020600020905b815481529060010190602001808311611ce057829003601f168201915b50505050508152602001600282018054611d1690614faa565b80601f0160208091040260200160405190810160405280929190818152602001828054611d4290614faa565b8015611d8f5780601f10611d6457610100808354040283529160200191611d8f565b820191906000526020600020905b815481529060010190602001808311611d7257829003601f168201915b50505050508152602001600382018054611da890614faa565b80601f0160208091040260200160405190810160405280929190818152602001828054611dd490614faa565b8015611e215780601f10611df657610100808354040283529160200191611e21565b820191906000526020600020905b815481529060010190602001808311611e0457829003601f168201915b505050505081526020016004820160009054906101000a900460ff161515151581526020016004820160019054906101000a900460ff1615151515815250509050806000015193508060200151925080604001519150509193909250565b60008054906101000a900473ffffffffffffffffffffffffffffffffffffffff1681565b60006060806060600080600080600260008a73ffffffffffffffffffffffffffffffffffffffff1673ffffffffffffffffffffffffffffffffffffffff168152602001908152602001600020604051806101200160405290816000820160009054906101000a900473ffffffffffffffffffffffffffffffffffffffff1673ffffffffffffffffffffffffffffffffffffffff1673ffffffffffffffffffffffffffffffffffffffff168152602001600182018054611f6190614faa565b80601f0160208091040260200160405190810160405280929190818152602001828054611f8d90614faa565b8015611fda5780601f10611faf57610100808354040283529160200191611fda565b820191906000526020600020905b815481529060010190602001808311611fbd57829003601f168201915b50505050508152602001600282018054611ff390614faa565b80601f016020809104026020016040519081016040528092919081815260200182805461201f90614faa565b801561206c5780601f106120415761010080835404028352916020019161206c565b820191906000526020600020905b81548152906001019060200180831161204f57829003601f168201915b5050505050815260200160038201805461208590614faa565b80601f01602080910402602001604051908101604052809291908181526020018280546120b190614faa565b80156120fe5780601f106120d3576101008083540402835291602001916120fe565b820191906000526020600020905b8154815290600101906020018083116120e157829003601f168201915b5050505050815260200160048201805461211790614faa565b80601f016020809104026020016040519081016040528092919081815260200182805461214390614faa565b80156121905780601f1061216557610100808354040283529160200191612190565b820191906000526020600020905b81548152906001019060200180831161217357829003601f168201915b5050505050815260200160058201548152602001600682015481526020016007820160009054906101000a900460ff161515151581526020016007820160019054906101000a900460ff1615151515815250509050806000015197508060200151965080604001519550806060015194508060a0015193508060c0015192508060e00151915050919395979092949650565b60088180516020810182018051848252602083016020850120818352809550505050505060009150905080600001805461225b90614faa565b80601f016020809104026020016040519081016040528092919081815260200182805461228790614faa565b80156122d45780601f106122a9576101008083540402835291602001916122d4565b820191906000526020600020905b8154815290600101906020018083116122b757829003601f168201915b5050505050908060010154908060020160009054906101000a900460ff16905083565b600a818154811061230757600080fd5b906000526020600020016000915054906101000a900473ffffffffffffffffffffffffffffffffffffffff1681565b6123408282610b8a565b61237f576040517f08c379a000000000000000000000000000000000000000000000000000000000815260040161237690615707565b60405180910390fd5b6001600460008473ffffffffffffffffffffffffffffffffffffffff1673ffffffffffffffffffffffffffffffffffffffff16815260200190815260200160002060040160016101000a81548160ff0219169083151502179055505050565b60006060806000600460008673ffffffffffffffffffffffffffffffffffffffff1673ffffffffffffffffffffffffffffffffffffffff1681526020019081526020016000206040518060c00160405290816000820160009054906101000a900473ffffffffffffffffffffffffffffffffffffffff1673ffffffffffffffffffffffffffffffffffffffff1673ffffffffffffffffffffffffffffffffffffffff16815260200160018201805461249590614faa565b80601f01602080910402602001604051908101604052809291908181526020018280546124c190614faa565b801561250e5780601f106124e35761010080835404028352916020019161250e565b820191906000526020600020905b8154815290600101906020018083116124f157829003601f168201915b5050505050815260200160028201805461252790614faa565b80601f016020809104026020016040519081016040528092919081815260200182805461255390614faa565b80156125a05780601f10612575576101008083540402835291602001916125a0565b820191906000526020600020905b81548152906001019060200180831161258357829003601f168201915b505050505081526020016003820180546125b990614faa565b80601f01602080910402602001604051908101604052809291908181526020018280546125e590614faa565b80156126325780601f1061260757610100808354040283529160200191612632565b820191906000526020600020905b81548152906001019060200180831161261557829003601f168201915b505050505081526020016004820160009054906101000a900460ff161515151581526020016004820160019054906101000a900460ff1615151515815250509050806000015193508060200151925080604001519150509193909250565b60001515600360008673ffffffffffffffffffffffffffffffffffffffff1673ffffffffffffffffffffffffffffffffffffffff16815260200190815260200160002060040160009054906101000a900460ff16151514612726576040517f08c379a000000000000000000000000000000000000000000000000000000000815260040161271d90615773565b60405180910390fd5b6040518060c001604052808573ffffffffffffffffffffffffffffffffffffffff16815260200184815260200183815260200182815260200160011515815260200160001515815250600360008673ffffffffffffffffffffffffffffffffffffffff1673ffffffffffffffffffffffffffffffffffffffff16815260200190815260200160002060008201518160000160006101000a81548173ffffffffffffffffffffffffffffffffffffffff021916908373ffffffffffffffffffffffffffffffffffffffff160217905550602082015181600101908161280a9190615381565b5060408201518160020190816128209190615381565b5060608201518160030190816128369190615381565b5060808201518160040160006101000a81548160ff02191690831515021790555060a08201518160040160016101000a81548160ff021916908315150217905550905050600a849080600181540180825580915050600190039060005260206000200160009091909190916101000a81548173ffffffffffffffffffffffffffffffffffffffff021916908373ffffffffffffffffffffffffffffffffffffffff16021790555050505050565b60076020528060005260406000206000915090508060000154908060010160009054906101000a900473ffffffffffffffffffffffffffffffffffffffff16908060020160009054906101000a900473ffffffffffffffffffffffffffffffffffffffff16908060030160009054906101000a900473ffffffffffffffffffffffffffffffffffffffff16908060040154908060050154908060060160009054906101000a900460ff16905087565b60026020528060005260406000206000915090508060000160009054906101000a900473ffffffffffffffffffffffffffffffffffffffff16908060010180546129db90614faa565b80601f0160208091040260200160405190810160405280929190818152602001828054612a0790614faa565b8015612a545780601f10612a2957610100808354040283529160200191612a54565b820191906000526020600020905b815481529060010190602001808311612a3757829003601f168201915b505050505090806002018054612a6990614faa565b80601f0160208091040260200160405190810160405280929190818152602001828054612a9590614faa565b8015612ae25780601f10612ab757610100808354040283529160200191612ae2565b820191906000526020600020905b815481529060010190602001808311612ac557829003601f168201915b505050505090806003018054612af790614faa565b80601f0160208091040260200160405190810160405280929190818152602001828054612b2390614faa565b8015612b705780601f10612b4557610100808354040283529160200191612b70565b820191906000526020600020905b815481529060010190602001808311612b5357829003601f168201915b505050505090806004018054612b8590614faa565b80601f0160208091040260200160405190810160405280929190818152602001828054612bb190614faa565b8015612bfe5780601f10612bd357610100808354040283529160200191612bfe565b820191906000526020600020905b815481529060010190602001808311612be157829003601f168201915b5050505050908060050154908060060154908060070160009054906101000a900460ff16908060070160019054906101000a900460ff16905089565b60006001811115612c4e57612c4d61483e565b5b6007600084815260200190815260200160002060060160009054906101000a900460ff166001811115612c8457612c8361483e565b5b14612cc4576040517f08c379a0000000000000000000000000000000000000000000000000000000008152600401612cbb90615805565b60405180910390fd5b42600760008481526020019081526020016000206005018190555060016007600084815260200190815260200160002060060160006101000a81548160ff02191690836001811115612d1957612d1861483e565b5b0217905550336005600083815260200190815260200160002060040160006101000a81548173ffffffffffffffffffffffffffffffffffffffff021916908373ffffffffffffffffffffffffffffffffffffffff1602179055505050565b60011515600260008473ffffffffffffffffffffffffffffffffffffffff1673ffffffffffffffffffffffffffffffffffffffff16815260200190815260200160002060070160009054906101000a900460ff16151514612e0d576040517f08c379a0000000000000000000000000000000000000000000000000000000008152600401612e0490615871565b60405180910390fd5b604051602001612e1c906158dd565b60405160208183030381529060405280519060200120600260008473ffffffffffffffffffffffffffffffffffffffff1673ffffffffffffffffffffffffffffffffffffffff168152602001908152602001600020600201604051602001612e849190615975565b6040516020818303038152906040528051906020012003612eda576040517f08c379a0000000000000000000000000000000000000000000000000000000008152600401612ed1906159fe565b60405180910390fd5b60004290506040518061014001604052808281526020018473ffffffffffffffffffffffffffffffffffffffff168152602001600073ffffffffffffffffffffffffffffffffffffffff1681526020013373ffffffffffffffffffffffffffffffffffffffff168152602001600073ffffffffffffffffffffffffffffffffffffffff168152602001600260008673ffffffffffffffffffffffffffffffffffffffff1673ffffffffffffffffffffffffffffffffffffffff1681526020019081526020016000206002018054612fb090614faa565b80601f0160208091040260200160405190810160405280929190818152602001828054612fdc90614faa565b80156130295780601f10612ffe57610100808354040283529160200191613029565b820191906000526020600020905b81548152906001019060200180831161300c57829003601f168201915b505050505081526020014281526020016000600181111561304d5761304c61483e565b5b815260200160405180602001604052806000815250815260200183815250600560008381526020019081526020016000206000820151816000015560208201518160010160006101000a81548173ffffffffffffffffffffffffffffffffffffffff021916908373ffffffffffffffffffffffffffffffffffffffff16021790555060408201518160020160006101000a81548173ffffffffffffffffffffffffffffffffffffffff021916908373ffffffffffffffffffffffffffffffffffffffff16021790555060608201518160030160006101000a81548173ffffffffffffffffffffffffffffffffffffffff021916908373ffffffffffffffffffffffffffffffffffffffff16021790555060808201518160040160006101000a81548173ffffffffffffffffffffffffffffffffffffffff021916908373ffffffffffffffffffffffffffffffffffffffff16021790555060a08201518160050190816131b99190615381565b5060c0820151816006015560e08201518160070160006101000a81548160ff021916908360018111156131ef576131ee61483e565b5b021790555061010082015181600801908161320a9190615381565b50610120820151816009015590505081600260008573ffffffffffffffffffffffffffffffffffffffff1673ffffffffffffffffffffffffffffffffffffffff168152602001908152602001600020600501600082825461326b91906151a1565b92505081905550600c819080600181540180825580915050600190039060005260206000200160009091909190915055600d60008154809291906132ae90615a1e565b9190505550505050565b6132c28282610786565b613301576040517f08c379a00000000000000000000000000000000000000000000000000000000081526004016132f890615707565b60405180910390fd5b60018060008473ffffffffffffffffffffffffffffffffffffffff1673ffffffffffffffffffffffffffffffffffffffff16815260200190815260200160002060020160006101000a81548160ff0219169083151502179055505050565b6060600c8054806020026020016040519081016040528092919081815260200182805480156133ad57602002820191906000526020600020905b815481526020019060010190808311613399575b5050505050905090565b60046020528060005260406000206000915090508060000160009054906101000a900473ffffffffffffffffffffffffffffffffffffffff169080600101805461340090614faa565b80601f016020809104026020016040519081016040528092919081815260200182805461342c90614faa565b80156134795780601f1061344e57610100808354040283529160200191613479565b820191906000526020600020905b81548152906001019060200180831161345c57829003601f168201915b50505050509080600201805461348e90614faa565b80601f01602080910402602001604051908101604052809291908181526020018280546134ba90614faa565b80156135075780601f106134dc57610100808354040283529160200191613507565b820191906000526020600020905b8154815290600101906020018083116134ea57829003601f168201915b50505050509080600301805461351c90614faa565b80601f016020809104026020016040519081016040528092919081815260200182805461354890614faa565b80156135955780601f1061356a57610100808354040283529160200191613595565b820191906000526020600020905b81548152906001019060200180831161357857829003601f168201915b5050505050908060040160009054906101000a900460ff16908060040160019054906101000a900460ff16905086565b60036020528060005260406000206000915090508060000160009054906101000a900473ffffffffffffffffffffffffffffffffffffffff169080600101805461360e90614faa565b80601f016020809104026020016040519081016040528092919081815260200182805461363a90614faa565b80156136875780601f1061365c57610100808354040283529160200191613687565b820191906000526020600020905b81548152906001019060200180831161366a57829003601f168201915b50505050509080600201805461369c90614faa565b80601f01602080910402602001604051908101604052809291908181526020018280546136c890614faa565b80156137155780601f106136ea57610100808354040283529160200191613715565b820191906000526020600020905b8154815290600101906020018083116136f857829003601f168201915b50505050509080600301805461372a90614faa565b80601f016020809104026020016040519081016040528092919081815260200182805461375690614faa565b80156137a35780601f10613778576101008083540402835291602001916137a3565b820191906000526020600020905b81548152906001019060200180831161378657829003601f168201915b5050505050908060040160009054906101000a900460ff16908060040160019054906101000a900460ff16905086565b60008060008060606000806060600080600560008c815260200190815260200160002060405180610140016040529081600082015481526020016001820160009054906101000a900473ffffffffffffffffffffffffffffffffffffffff1673ffffffffffffffffffffffffffffffffffffffff1673ffffffffffffffffffffffffffffffffffffffff1681526020016002820160009054906101000a900473ffffffffffffffffffffffffffffffffffffffff1673ffffffffffffffffffffffffffffffffffffffff1673ffffffffffffffffffffffffffffffffffffffff1681526020016003820160009054906101000a900473ffffffffffffffffffffffffffffffffffffffff1673ffffffffffffffffffffffffffffffffffffffff1673ffffffffffffffffffffffffffffffffffffffff1681526020016004820160009054906101000a900473ffffffffffffffffffffffffffffffffffffffff1673ffffffffffffffffffffffffffffffffffffffff1673ffffffffffffffffffffffffffffffffffffffff16815260200160058201805461397490614faa565b80601f01602080910402602001604051908101604052809291908181526020018280546139a090614faa565b80156139ed5780601f106139c2576101008083540402835291602001916139ed565b820191906000526020600020905b8154815290600101906020018083116139d057829003601f168201915b50505050508152602001600682015481526020016007820160009054906101000a900460ff166001811115613a2557613a2461483e565b5b6001811115613a3757613a3661483e565b5b8152602001600882018054613a4b90614faa565b80601f0160208091040260200160405190810160405280929190818152602001828054613a7790614faa565b8015613ac45780601f10613a9957610100808354040283529160200191613ac4565b820191906000526020600020905b815481529060010190602001808311613aa757829003601f168201915b505050505081526020016009820154815250509050806000015199508060200151985080604001519750806080015196508060a0015195508060c0015194508060e00151935080610100015192508061012001519150509193959799909294969850565b60006001811115613b3c57613b3b61483e565b5b6005600087815260200190815260200160002060070160009054906101000a900460ff166001811115613b7257613b7161483e565b5b14613bb2576040517f08c379a0000000000000000000000000000000000000000000000000000000008152600401613ba990615ab2565b60405180910390fd5b600073ffffffffffffffffffffffffffffffffffffffff166005600087815260200190815260200160002060010160009054906101000a900473ffffffffffffffffffffffffffffffffffffffff1673ffffffffffffffffffffffffffffffffffffffff1603613c57576040517f08c379a0000000000000000000000000000000000000000000000000000000008152600401613c4e90615b1e565b60405180910390fd5b336005600087815260200190815260200160002060030160006101000a81548173ffffffffffffffffffffffffffffffffffffffff021916908373ffffffffffffffffffffffffffffffffffffffff16021790555083600560008781526020019081526020016000206008019081613ccf9190615381565b5060016005600087815260200190815260200160002060070160006101000a81548160ff02191690836001811115613d0a57613d0961483e565b5b02179055506000613d19613fc7565b90506040518060c001604052808281526020016005600089815260200190815260200160002060010160009054906101000a900473ffffffffffffffffffffffffffffffffffffffff1673ffffffffffffffffffffffffffffffffffffffff1681526020013373ffffffffffffffffffffffffffffffffffffffff16815260200185815260200184815260200183815250600660008381526020019081526020016000206000820151816000015560208201518160010160006101000a81548173ffffffffffffffffffffffffffffffffffffffff021916908373ffffffffffffffffffffffffffffffffffffffff16021790555060408201518160020160006101000a81548173ffffffffffffffffffffffffffffffffffffffff021916908373ffffffffffffffffffffffffffffffffffffffff160217905550606082015181600301556080820151816004015560a0820151816005019081613e7e9190615381565b509050506000613e8d87614014565b90508060026000600560008b815260200190815260200160002060010160009054906101000a900473ffffffffffffffffffffffffffffffffffffffff1673ffffffffffffffffffffffffffffffffffffffff1673ffffffffffffffffffffffffffffffffffffffff1681526020019081526020016000206006016000828254613f1791906151a1565b925050819055503373ffffffffffffffffffffffffffffffffffffffff166108fc829081150290604051600060405180830381858888f19350505050158015613f64573d6000803e3d6000fd5b5050505050505050565b600081604051602001613f8191906150ef565b6040516020818303038152906040528051906020012083604051602001613fa891906150ef565b6040516020818303038152906040528051906020012014905092915050565b6000600e6000815480929190613fdc90615a1e565b919050555042600e54604051602001613ff6929190615b5f565b6040516020818303038152906040528051906020012060001c905090565b60006001808111156140295761402861483e565b5b6005600084815260200190815260200160002060070160009054906101000a900460ff16600181111561405f5761405e61483e565b5b1461409f576040517f08c379a000000000000000000000000000000000000000000000000000000000815260040161409690615bd7565b60405180910390fd5b6000600560008481526020019081526020016000206009015490506000633b9aca00905080826140cf9190615bf7565b92505050919050565b6000604051905090565b600080fd5b600080fd5b600073ffffffffffffffffffffffffffffffffffffffff82169050919050565b6000614117826140ec565b9050919050565b6141278161410c565b811461413257600080fd5b50565b6000813590506141448161411e565b92915050565b600080fd5b600080fd5b6000601f19601f8301169050919050565b7f4e487b7100000000000000000000000000000000000000000000000000000000600052604160045260246000fd5b61419d82614154565b810181811067ffffffffffffffff821117156141bc576141bb614165565b5b80604052505050565b60006141cf6140d8565b90506141db8282614194565b919050565b600067ffffffffffffffff8211156141fb576141fa614165565b5b61420482614154565b9050602081019050919050565b82818337600083830152505050565b600061423361422e846141e0565b6141c5565b90508281526020810184848401111561424f5761424e61414f565b5b61425a848285614211565b509392505050565b600082601f8301126142775761427661414a565b5b8135614287848260208601614220565b91505092915050565b600080604083850312156142a7576142a66140e2565b5b60006142b585828601614135565b925050602083013567ffffffffffffffff8111156142d6576142d56140e7565b5b6142e285828601614262565b9150509250929050565b60008115159050919050565b614301816142ec565b82525050565b600060208201905061431c60008301846142f8565b92915050565b6000819050919050565b61433581614322565b82525050565b6000602082019050614350600083018461432c565b92915050565b61435f81614322565b811461436a57600080fd5b50565b60008135905061437c81614356565b92915050565b600060208284031215614398576143976140e2565b5b60006143a68482850161436d565b91505092915050565b6143b88161410c565b82525050565b60006020820190506143d360008301846143af565b92915050565b600080604083850312156143f0576143ef6140e2565b5b600083013567ffffffffffffffff81111561440e5761440d6140e7565b5b61441a85828601614262565b925050602061442b8582860161436d565b9150509250929050565b600081519050919050565b600082825260208201905092915050565b6000819050602082019050919050565b61446a8161410c565b82525050565b600061447c8383614461565b60208301905092915050565b6000602082019050919050565b60006144a082614435565b6144aa8185614440565b93506144b583614451565b8060005b838110156144e65781516144cd8882614470565b97506144d883614488565b9250506001810190506144b9565b5085935050505092915050565b6000602082019050818103600083015261450d8184614495565b905092915050565b60008060006060848603121561452e5761452d6140e2565b5b600061453c8682870161436d565b935050602061454d86828701614135565b925050604084013567ffffffffffffffff81111561456e5761456d6140e7565b5b61457a86828701614262565b9150509250925092565b600080600080600060a086880312156145a05761459f6140e2565b5b60006145ae88828901614135565b955050602086013567ffffffffffffffff8111156145cf576145ce6140e7565b5b6145db88828901614262565b945050604086013567ffffffffffffffff8111156145fc576145fb6140e7565b5b61460888828901614262565b935050606086013567ffffffffffffffff811115614629576146286140e7565b5b61463588828901614262565b925050608086013567ffffffffffffffff811115614656576146556140e7565b5b61466288828901614262565b9150509295509295909350565b60008060008060808587031215614689576146886140e2565b5b600061469787828801614135565b945050602085013567ffffffffffffffff8111156146b8576146b76140e7565b5b6146c487828801614262565b935050604085013567ffffffffffffffff8111156146e5576146e46140e7565b5b6146f187828801614262565b925050606085013567ffffffffffffffff811115614712576147116140e7565b5b61471e87828801614262565b91505092959194509250565b600081519050919050565b600082825260208201905092915050565b60005b83811015614764578082015181840152602081019050614749565b60008484015250505050565b600061477b8261472a565b6147858185614735565b9350614795818560208601614746565b61479e81614154565b840191505092915050565b600060c0820190506147be600083018961432c565b6147cb60208301886143af565b6147d860408301876143af565b6147e5606083018661432c565b6147f2608083018561432c565b81810360a08301526148048184614770565b9050979650505050505050565b600060208284031215614827576148266140e2565b5b600061483584828501614135565b91505092915050565b7f4e487b7100000000000000000000000000000000000000000000000000000000600052602160045260246000fd5b6002811061487e5761487d61483e565b5b50565b600081905061488f8261486d565b919050565b600061489f82614881565b9050919050565b6148af81614894565b82525050565b6000610140820190506148cb600083018d61432c565b6148d8602083018c6143af565b6148e5604083018b6143af565b6148f2606083018a6143af565b6148ff60808301896143af565b81810360a08301526149118188614770565b905061492060c083018761432c565b61492d60e08301866148a6565b8181036101008301526149408185614770565b905061495061012083018461432c565b9b9a5050505050505050505050565b600060608201905061497460008301866143af565b81810360208301526149868185614770565b9050818103604083015261499a8184614770565b9050949350505050565b600060e0820190506149b9600083018a6143af565b81810360208301526149cb8189614770565b905081810360408301526149df8188614770565b905081810360608301526149f38187614770565b9050614a02608083018661432c565b614a0f60a083018561432c565b614a1c60c08301846142f8565b98975050505050505050565b600060208284031215614a3e57614a3d6140e2565b5b600082013567ffffffffffffffff811115614a5c57614a5b6140e7565b5b614a6884828501614262565b91505092915050565b60028110614a8257614a8161483e565b5b50565b6000819050614a9382614a71565b919050565b6000614aa382614a85565b9050919050565b614ab381614a98565b82525050565b60006060820190508181036000830152614ad38186614770565b9050614ae2602083018561432c565b614aef6040830184614aaa565b949350505050565b60028110614b0857614b0761483e565b5b50565b6000819050614b1982614af7565b919050565b6000614b2982614b0b565b9050919050565b614b3981614b1e565b82525050565b600060e082019050614b54600083018a61432c565b614b6160208301896143af565b614b6e60408301886143af565b614b7b60608301876143af565b614b88608083018661432c565b614b9560a083018561432c565b614ba260c0830184614b30565b98975050505050505050565b600061012082019050614bc4600083018c6143af565b8181036020830152614bd6818b614770565b90508181036040830152614bea818a614770565b90508181036060830152614bfe8189614770565b90508181036080830152614c128188614770565b9050614c2160a083018761432c565b614c2e60c083018661432c565b614c3b60e08301856142f8565b614c496101008301846142f8565b9a9950505050505050505050565b60008060408385031215614c6e57614c6d6140e2565b5b6000614c7c8582860161436d565b9250506020614c8d8582860161436d565b9150509250929050565b60008060408385031215614cae57614cad6140e2565b5b6000614cbc85828601614135565b9250506020614ccd8582860161436d565b9150509250929050565b600081519050919050565b600082825260208201905092915050565b6000819050602082019050919050565b614d0c81614322565b82525050565b6000614d1e8383614d03565b60208301905092915050565b6000602082019050919050565b6000614d4282614cd7565b614d4c8185614ce2565b9350614d5783614cf3565b8060005b83811015614d88578151614d6f8882614d12565b9750614d7a83614d2a565b925050600181019050614d5b565b5085935050505092915050565b60006020820190508181036000830152614daf8184614d37565b905092915050565b600060c082019050614dcc60008301896143af565b8181036020830152614dde8188614770565b90508181036040830152614df28187614770565b90508181036060830152614e068186614770565b9050614e1560808301856142f8565b614e2260a08301846142f8565b979650505050505050565b600061012082019050614e43600083018c61432c565b614e50602083018b6143af565b614e5d604083018a6143af565b614e6a60608301896143af565b8181036080830152614e7c8188614770565b9050614e8b60a083018761432c565b614e9860c08301866148a6565b81810360e0830152614eaa8185614770565b9050614eba61010083018461432c565b9a9950505050505050505050565b600080600080600060a08688031215614ee457614ee36140e2565b5b6000614ef28882890161436d565b955050602086013567ffffffffffffffff811115614f1357614f126140e7565b5b614f1f88828901614262565b9450506040614f308882890161436d565b9350506060614f418882890161436d565b925050608086013567ffffffffffffffff811115614f6257614f616140e7565b5b614f6e88828901614262565b9150509295509295909350565b7f4e487b7100000000000000000000000000000000000000000000000000000000600052602260045260246000fd5b60006002820490506001821680614fc257607f821691505b602082108103614fd557614fd4614f7b565b5b50919050565b7f496e76616c69642061646472657373206f722070617373776f72640000000000600082015250565b6000615011601b83614735565b915061501c82614fdb565b602082019050919050565b6000602082019050818103600083015261504081615004565b9050919050565b7f566f6c756d65206d7573742062652067726561746572207468616e207a65726f600082015250565b600061507d602083614735565b915061508882615047565b602082019050919050565b600060208201905081810360008301526150ac81615070565b9050919050565b600081905092915050565b60006150c98261472a565b6150d381856150b3565b93506150e3818560208601614746565b80840191505092915050565b60006150fb82846150be565b915081905092915050565b7f426c6f6f64207479706520616c72656164792072657175657374656400000000600082015250565b600061513c601c83614735565b915061514782615106565b602082019050919050565b6000602082019050818103600083015261516b8161512f565b9050919050565b7f4e487b7100000000000000000000000000000000000000000000000000000000600052601160045260246000fd5b60006151ac82614322565b91506151b783614322565b92508282019050808211156151cf576151ce615172565b5b92915050565b60008190508160005260206000209050919050565b60006020601f8301049050919050565b600082821b905092915050565b6000600883026152377fffffffffffffffffffffffffffffffffffffffffffffffffffffffffffffffff826151fa565b61524186836151fa565b95508019841693508086168417925050509392505050565b6000819050919050565b600061527e61527961527484614322565b615259565b614322565b9050919050565b6000819050919050565b61529883615263565b6152ac6152a482615285565b848454615207565b825550505050565b600090565b6152c16152b4565b6152cc81848461528f565b505050565b5b818110156152f0576152e56000826152b9565b6001810190506152d2565b5050565b601f82111561533557615306816151d5565b61530f846151ea565b8101602085101561531e578190505b61533261532a856151ea565b8301826152d1565b50505b505050565b600082821c905092915050565b60006153586000198460080261533a565b1980831691505092915050565b60006153718383615347565b9150826002028217905092915050565b61538a8261472a565b67ffffffffffffffff8111156153a3576153a2614165565b5b6153ad8254614faa565b6153b88282856152f4565b600060209050601f8311600181146153eb57600084156153d9578287015190505b6153e38582615365565b86555061544b565b601f1984166153f9866151d5565b60005b82811015615421578489015182556001820191506020850194506020810190506153fc565b8683101561543e578489015161543a601f891682615347565b8355505b6001600288020188555050505b505050505050565b7f596f75277265206e6f7420726567697374657265642079657421000000000000600082015250565b6000615489601a83614735565b915061549482615453565b602082019050919050565b600060208201905081810360008301526154b88161547c565b9050919050565b7f4d65646963616c2063656e7465722070726f63657373206e6f7420636f6d706c60008201527f6574656400000000000000000000000000000000000000000000000000000000602082015250565b600061551b602483614735565b9150615526826154bf565b604082019050919050565b6000602082019050818103600083015261554a8161550e565b9050919050565b7f446f6e6f7220697320616c726561647920726567697374657265640000000000600082015250565b6000615587601b83614735565b915061559282615551565b602082019050919050565b600060208201905081810360008301526155b68161557a565b9050919050565b7f4d65646963616c2063656e74657220697320616c72656164792072656769737460008201527f6572656400000000000000000000000000000000000000000000000000000000602082015250565b6000615619602483614735565b9150615624826155bd565b604082019050919050565b600060208201905081810360008301526156488161560c565b9050919050565b7f596f75277265206e6f74206c6f6767656420696e000000000000000000000000600082015250565b6000615685601483614735565b91506156908261564f565b602082019050919050565b600060208201905081810360008301526156b481615678565b9050919050565b7f496e76616c6964206c6f67696e2063726564656e7469616c7300000000000000600082015250565b60006156f1601983614735565b91506156fc826156bb565b602082019050919050565b60006020820190508181036000830152615720816156e4565b9050919050565b7f5472616e73706f7274657220616c726561647920726567697374657265640000600082015250565b600061575d601e83614735565b915061576882615727565b602082019050919050565b6000602082019050818103600083015261578c81615750565b9050919050565b7f5472616e73706f72746174696f6e20616c726561647920636f6d706c6574656460008201527f206f72206e6f7420696e69746961746564000000000000000000000000000000602082015250565b60006157ef603183614735565b91506157fa82615793565b604082019050919050565b6000602082019050818103600083015261581e816157e2565b9050919050565b7f506c6561736520726567697374657220646f6e6f722066697273740000000000600082015250565b600061585b601b83614735565b915061586682615825565b602082019050919050565b6000602082019050818103600083015261588a8161584e565b9050919050565b7f4f74686572000000000000000000000000000000000000000000000000000000600082015250565b60006158c76005836150b3565b91506158d282615891565b600582019050919050565b60006158e8826158ba565b9150819050919050565b600081546158ff81614faa565b61590981866150b3565b9450600182166000811461592457600181146159395761596c565b60ff198316865281151582028601935061596c565b615942856151d5565b60005b8381101561596457815481890152600182019150602081019050615945565b838801955050505b50505092915050565b600061598182846158f2565b915081905092915050565b7f446f6e6f722068617320616c726561647920696e69746961746564206120646f60008201527f6e6174696f6e0000000000000000000000000000000000000000000000000000602082015250565b60006159e8602683614735565b91506159f38261598c565b604082019050919050565b60006020820190508181036000830152615a17816159db565b9050919050565b6000615a2982614322565b91507fffffffffffffffffffffffffffffffffffffffffffffffffffffffffffffffff8203615a5b57615a5a615172565b5b600182019050919050565b7f496e76616c6964207472616e73616374696f6e20737461747573000000000000600082015250565b6000615a9c601a83614735565b9150615aa782615a66565b602082019050919050565b60006020820190508181036000830152615acb81615a8f565b9050919050565b7f496e76616c696420646f6e6f7220616464726573730000000000000000000000600082015250565b6000615b08601583614735565b9150615b1382615ad2565b602082019050919050565b60006020820190508181036000830152615b3781615afb565b9050919050565b6000819050919050565b615b59615b5482614322565b615b3e565b82525050565b6000615b6b8285615b48565b602082019150615b7b8284615b48565b6020820191508190509392505050565b7f5472616e73616374696f6e206e6f7420636f6d706c6574656400000000000000600082015250565b6000615bc1601983614735565b9150615bcc82615b8b565b602082019050919050565b60006020820190508181036000830152615bf081615bb4565b9050919050565b6000615c0282614322565b9150615c0d83614322565b9250828202615c1b81614322565b91508282048414831517615c3257615c31615172565b5b509291505056fea26469706673582212200592cf683e9d5454b3623a045cc61bd15b5adcda6fdaae059182c9584c3d887f64736f6c63430008130033",
  "immutableReferences": {},
  "source": "// SPDX-License-Identifier: MIT\npragma solidity ^0.8.19;\n\ncontract BloodDonationBlockchainSystem {\n    enum TransactionStatus { Pending, Completed }\n    enum TransportationStatus { InTransit, Delivered }\n    enum BloodSupplyStatus { Available, Requested }\n\n    /// @dev create system account structure\n    struct SystemOwner {\n        address sysOwner;\n        string password /*audit*/;\n        bool isLogin;\n    }\n\n    struct Donor {\n        address donorPublicAddress;\n        string name;\n        string bloodType;\n        string phoneNumber;\n        string password;\n        uint256 donatedVolume;\n        uint256 totalPayment;\n        bool isRegistered;\n        bool isLogin;\n        // uint256[] donationHistory;\n    }\n\n    struct Transporter {\n        address transporterPublicAddress;\n        string name;\n        string phoneNumber;\n        string password;\n        bool isRegistered;\n        bool isLogin;\n    }\n\n    struct MedicalCenter {\n        address MCPublicAddress;\n        string name;\n        string phoneNumber;\n        string password;\n        bool isRegistered;\n        bool isLogin;\n    }\n\n    struct DonationTransaction {\n        uint256 transactionID;\n        address donor;\n        address recipient;\n        address medicalStaff;\n        address transporter;\n        string bloodType;\n        uint256 donationDate;\n        TransactionStatus status;\n        string medicalCenter;\n        uint256 donatedVolume;\n    }\n\n    struct MedicalRecord {\n        uint256 recordID;\n        address donor;\n        address medicalStaff;\n        uint256 bloodPressure;\n        uint256 hemoglobinLevel;\n        string bloodTestResults;\n        // uint256[] donationHistory;\n    }\n\n    struct TransportationRecord {\n        uint256 recordID;\n        address transporter;\n        address donor;\n        address recipient;\n        uint256 pickupDateTime;\n        uint256 deliveryDateTime;\n        TransportationStatus status;\n    }\n\n    struct BloodSupply {\n        string bloodType;\n        uint256 volume;\n        BloodSupplyStatus status;\n    }\n\n    address public owner;\n    mapping(address => SystemOwner) private sysOwnerMap;\n    \n    mapping(address => Donor) public donors;\n    mapping(address => Transporter) public transporters;\n    mapping(address => MedicalCenter) public medicalsCenters;\n    mapping(uint256 => DonationTransaction) public donationTransactions;\n\n    mapping(uint256 => MedicalRecord) public medicalRecords;\n    mapping(uint256 => TransportationRecord) public transportationRecords;\n    mapping(string => BloodSupply) public bloodSupplies;\n\n    address[] public donorAddressArr;\n    address[] public transporterAddressArr;\n    address[] public medicaCenterAddressArr;\n    uint256[] public donationTransactionsArr;\n\n    uint256 public transactionCounter;\n    uint256 public recordCounter;\n\n    modifier onlyOwner() {\n        require(msg.sender == owner, \"Restricted to system owner only\");\n        _;\n    }\n\n    // modifier onlyMedicalStaff() {\n    //     require(\n    //         donors[msg.sender].user.userType == UserType.MedicalStaff,\n    //         \"Only medical staff can call this function\"\n    //     );\n    //     _;\n    // }\n\n    // modifier onlyTransporter() {\n    //     require(\n    //         donors[msg.sender].user.userType == UserType.Transporter,\n    //         \"Only transporters can call this function\"\n    //     );\n    //     _;\n    // }\n\n    SystemOwner private sysowner;\n\n    constructor() {\n        owner = msg.sender;\n        sysowner = SystemOwner(owner, \"admin\", false);\n        sysOwnerMap[owner] = sysowner;\n    }\n\n    function checkSystemOwnerLogin(address _SYSPublicAddress, string memory _password) public view returns (bool) {\n        // require(!medicalsCenters[_MCPublicAddress].isLogin, \"You're already logged in\");\n        require(compareString(sysOwnerMap[_SYSPublicAddress].password, _password), \"Invalid address or password\");\n\n        return true;\n    }\n\n    function systemOwnerLogin(address _MCPublicAddress, string memory _password) public {\n        require(checkSystemOwnerLogin(_MCPublicAddress, _password), \"Invalid login credentials\");\n\n        sysOwnerMap[_MCPublicAddress].isLogin = true;\n    }\n\n    function addDonor(\n        address _donorPublicAddress,\n        string memory _name,\n        string memory _bloodType,\n        string memory _contactNumber,\n        string memory _password\n    ) public {\n        require(\n            donors[_donorPublicAddress].isRegistered == false,\n            \"Donor is already registered\"\n        );\n        donors[_donorPublicAddress] = Donor(\n            _donorPublicAddress,\n            _name,\n            _bloodType,\n            _contactNumber,\n            _password,\n            0,\n            0,\n            true,\n            false\n        );\n        donorAddressArr.push(_donorPublicAddress);\n    }\n\n    // function  donorLogin(address _donorPublicAddress, string memory _password) public {\n    //     require(donors[_donorPublicAddress].isRegistered == true, \"Your not registered yet!\");\n    //     require(donors[_donorPublicAddress].isLogin == false, \"Your Already login\");\n    //     require(compareString(donors[_donorPublicAddress].password, _password), \"Invalid address or password\");\n        \n    //     donors[_donorPublicAddress].isLogin = true;\n    // }\n\n    function getDonorsArr() public view returns (address[] memory) {\n        return donorAddressArr;\n    }\n\n    function getDonor(\n        address _donorPublicAddress\n    )\n        public\n        view\n        returns (\n            address publicAddress,\n            string memory name,\n            string memory bloodType,\n            string memory phoneNumber,\n            uint256 donatedVolume,\n            uint256 totalPayment,\n            bool isRegistered\n        )\n    {\n        Donor memory donor = donors[_donorPublicAddress];\n        publicAddress = donor.donorPublicAddress;\n        name = donor.name;\n        bloodType = donor.bloodType;\n        phoneNumber = donor.phoneNumber;\n        donatedVolume = donor.donatedVolume;\n        totalPayment = donor.totalPayment;\n        isRegistered = donor.isRegistered;\n    }\n\n    function addTransporter(\n        address _transporterPublicAddress,\n        string memory _name,\n        string memory _contactNumber,\n        string memory _password\n    ) public {\n        require(\n            transporters[_transporterPublicAddress].isRegistered == false,\n            \"Transporter already registered\"\n        );\n        transporters[_transporterPublicAddress] = Transporter({\n            transporterPublicAddress: _transporterPublicAddress,\n            name: _name,\n            phoneNumber: _contactNumber,\n            password: _password,\n            isRegistered: true,\n            isLogin: false\n        });\n        transporterAddressArr.push(_transporterPublicAddress);\n    }\n\n    // function  transporterLogin(address _transporterPublicAddress, string memory _password) public {\n    //     require(transporters[_transporterPublicAddress].isRegistered == true, \"Your not registered yet!\");\n    //     require(transporters[_transporterPublicAddress].isLogin == false, \"Your Already login\");\n    //     require(compareString(transporters[_transporterPublicAddress].password, _password), \"Invalid address or password\");\n\n    //     transporters[_transporterPublicAddress].isLogin = true;\n    // }\n\n    function getTransportersArr() public view returns (address[] memory) {\n        return transporterAddressArr;\n    }\n\n    function getTransporter(\n        address _transporterPublicAddress\n    )\n        public\n        view\n        returns (\n            address transporterPublicAddress,\n            string memory name,\n            string memory phoneNumber\n        )\n    {\n        Transporter memory transporter = transporters[_transporterPublicAddress];\n        transporterPublicAddress = transporter.transporterPublicAddress;\n        name = transporter.name;\n        phoneNumber = transporter.phoneNumber;\n    }\n\n    function addMedicalCenter(\n        address _MCPublicAddress,\n        string memory _name,\n        string memory _contactNumber,\n        string memory _password\n    ) public {\n        require(\n            medicalsCenters[_MCPublicAddress].isRegistered == false,\n            \"Medical center is already registered\"\n        );\n        medicalsCenters[_MCPublicAddress] = MedicalCenter({\n            MCPublicAddress: _MCPublicAddress,\n            name: _name,\n            phoneNumber: _contactNumber,\n            password: _password,\n            isRegistered: true,\n            isLogin: false\n        });\n        medicaCenterAddressArr.push(_MCPublicAddress);\n        \n    }\n\n    // function  medicalCenterLogin(address _MCPublicAddress, string memory _password) public {\n    //     require(medicalsCenters[_MCPublicAddress].isRegistered == true, \"Your not registered yet!\");\n    //     require(medicalsCenters[_MCPublicAddress].isLogin == false, \"Your Already login\");\n    //     require(compareString(medicalsCenters[_MCPublicAddress].password, _password), \"Invalid address or password\");\n\n    //     MedicalCenter memory medicalCenter = medicalsCenters[_MCPublicAddress];\n    //     medicalCenter.isLogin = true;\n    // }\n\n    function checkMedicalCenterLogin(address _MCPublicAddress, string memory _password) public view returns (bool) {\n        require(medicalsCenters[_MCPublicAddress].isRegistered == true, \"You're not registered yet!\");\n        // require(!medicalsCenters[_MCPublicAddress].isLogin, \"You're already logged in\");\n        require(compareString(medicalsCenters[_MCPublicAddress].password, _password), \"Invalid address or password\");\n\n        return true;\n    }\n\n    function medicalCenterLogin(address _MCPublicAddress, string memory _password) public {\n        require(checkMedicalCenterLogin(_MCPublicAddress, _password), \"Invalid login credentials\");\n\n        medicalsCenters[_MCPublicAddress].isLogin = true;\n    }\n\n    function medicalCenterLogout(address _MCPublicAddress) public {\n        require(medicalsCenters[_MCPublicAddress].isLogin, \"You're not logged in\");\n\n        medicalsCenters[_MCPublicAddress].isLogin = false;\n    }\n\n    function getMedicalCentersArr() public view returns (address[] memory) {\n        return medicaCenterAddressArr;\n    }\n\n    function getMedicalCenter(\n        address _medicalStaffPublicAddress\n    )\n        public\n        view\n        returns (\n            address MCPublicAddress,\n            string memory name,\n            string memory phoneNumber\n        )\n    {\n        MedicalCenter memory medicalCenter = medicalsCenters[_medicalStaffPublicAddress];\n        MCPublicAddress = medicalCenter.MCPublicAddress;\n        name = medicalCenter.name;\n        phoneNumber = medicalCenter.phoneNumber;\n    }\n\n    // function donorChangePassword(string memory _oldPassword, string memory _newPassword) external {\n    //     require(compareString(donors[msg.sender].password, _oldPassword), \"Invalid old password\");\n    //     require(keccak256(abi.encode(_newPassword)).length > 0, \"Password should not be empty\");\n    //     require(compareString(donors[msg.sender].password, _newPassword), \"Invalid new password\");\n    //     require(donors[msg.sender].isLogin == true, \"Not logged in\");\n\n    //     donors[msg.sender].password = _newPassword;\n    //     // emit PasswordChanged(msg.sender);\n    // }\n\n    // ---------------- Start Donation initialization ---------------------\n\n    function donateBloodToMedicalCenter(\n        address _donorPublicAddress,\n        uint256 _volume\n    ) public {\n        require(\n            donors[_donorPublicAddress].isRegistered == true,\n            \"Please register donor first\"\n        );\n        require(\n            keccak256(abi.encodePacked(donors[_donorPublicAddress].bloodType)) != keccak256(abi.encodePacked(\"Other\")),\n            \"Donor has already initiated a donation\"\n        );\n\n        uint256 transactionID = block.timestamp;\n        donationTransactions[transactionID] = DonationTransaction({\n            transactionID: transactionID,\n            donor: _donorPublicAddress,\n            recipient: address(0),\n            medicalStaff: msg.sender,\n            transporter: address(0),\n            bloodType: donors[_donorPublicAddress].bloodType,\n            donationDate: block.timestamp,\n            status: TransactionStatus.Pending,\n            medicalCenter: \"\",\n            donatedVolume: _volume\n        });\n        donors[_donorPublicAddress].donatedVolume += _volume;\n\n        // donors[msg.sender].bloodType = string(\"Other\");\n        donationTransactionsArr.push(transactionID);\n\n        // Increment the transaction count\n        transactionCounter++;\n    }\n\n    function getDonationTransactionArr()\n        public\n        view\n        returns (uint256[] memory)\n    {\n        return donationTransactionsArr;\n    }\n\n    function getDonationTransaction(\n        uint256 _transactionID\n    )\n        public\n        view\n        returns (\n            uint256 transactionID,\n            address donorPublicAddress,\n            address recipientPublicAddress,\n            address transporterPublicAddress,\n            string memory bloodType,\n            uint256 donationDate,\n            TransactionStatus status,\n            string memory medicalCenter,\n            uint256 donatedVolume\n        )\n    {\n        DonationTransaction memory donationTransaction = donationTransactions[\n            _transactionID\n        ];\n        transactionID = donationTransaction.transactionID;\n        donorPublicAddress = donationTransaction.donor;\n        recipientPublicAddress = donationTransaction.recipient;\n        transporterPublicAddress = donationTransaction.transporter;\n        bloodType = donationTransaction.bloodType;\n        donationDate = donationTransaction.donationDate;\n        status = donationTransaction.status;\n        medicalCenter = donationTransaction.medicalCenter;\n        donatedVolume = donationTransaction.donatedVolume;\n    }\n\n    // ---------------- End Donation initialization ---------------------\n\n    // ---------------- Start Complete Donation  ------------------------\n\n    function completeDonationToMedicalCenter(\n        uint256 _transactionID,\n        string memory _medicalCenter,\n        uint256 _bloodPressure,\n        uint256 _hemoglobinLevel,\n        string memory _bloodTestResults\n    ) public {\n        require(\n            donationTransactions[_transactionID].status ==\n                TransactionStatus.Pending,\n            \"Invalid transaction status\"\n        );\n        require(\n            donationTransactions[_transactionID].donor != address(0),\n            \"Invalid donor address\"\n        );\n\n        donationTransactions[_transactionID].medicalStaff = msg.sender;\n        donationTransactions[_transactionID].medicalCenter = _medicalCenter;\n        donationTransactions[_transactionID].status = TransactionStatus.Completed;\n\n        // donors[donationTransactions[_transactionID].donor]\n        //     .donatedVolume += calculateDonatedVolume(_transactionID);\n\n        uint256 recordID = generateRecordID();\n        medicalRecords[recordID] = MedicalRecord({\n            recordID: recordID,\n            donor: donationTransactions[_transactionID].donor,\n            medicalStaff: msg.sender,\n            bloodPressure: _bloodPressure,\n            hemoglobinLevel: _hemoglobinLevel,\n            bloodTestResults: _bloodTestResults\n            // donationHistory: new uint256[](0)\n        });\n\n        // donors[donationTransactions[_transactionID].donor].donationHistory.push(\n        //     _transactionID\n        // );\n\n        // uint256 payment = calculatePayment(\n        //     donors[donationTransactions[_transactionID].donor].donatedVolume\n        // );\n        uint256 payment = calculatePayment(_transactionID);\n        donors[donationTransactions[_transactionID].donor]\n            .totalPayment += payment;\n        payable(msg.sender).transfer(payment);\n    }\n\n    // ---------------- End Complete Donation  ------------------------\n\n    function initiateTransportation(\n        uint256 _transactionID,\n        address _recipient,\n        string memory _medicalCenter\n    ) public {\n        require(\n            donationTransactions[_transactionID].status ==\n                TransactionStatus.Completed,\n            \"Medical center process not completed\"\n        );\n\n        uint256 transactionID = block.timestamp;\n        donationTransactions[transactionID] = DonationTransaction({\n            transactionID: transactionID,\n            donor: donationTransactions[_transactionID].donor,\n            recipient: _recipient,\n            medicalStaff: msg.sender,\n            transporter: address(0),\n            bloodType: donationTransactions[_transactionID].bloodType,\n            donationDate: block.timestamp,\n            status: TransactionStatus.Pending,\n            medicalCenter: _medicalCenter,\n            donatedVolume: donors[donationTransactions[_transactionID].donor]\n                .donatedVolume\n        });\n    }\n\n    function completeTransportation(\n        uint256 _recordID,\n        uint256 _transactionID\n    ) public {\n        // onlyTransporter\n        require(\n            transportationRecords[_recordID].status ==\n                TransportationStatus.InTransit,\n            \"Transportation already completed or not initiated\"\n        );\n        transportationRecords[_recordID].deliveryDateTime = block.timestamp;\n        transportationRecords[_recordID].status = TransportationStatus\n            .Delivered;\n        donationTransactions[_transactionID].transporter = msg.sender;\n    }\n\n    // function calculateDonatedVolume(\n    //     uint256 _transactionID\n    // ) internal view returns (uint256) {\n    //     require(\n    //         donationTransactions[_transactionID].status ==\n    //             TransactionStatus.Completed,\n    //         \"Transaction not completed\"\n    //     );\n    //     return donationTransactions[_transactionID].donatedVolume;\n    // }\n\n    function calculatePayment(\n        uint256 _transactionID\n    ) internal view returns (uint256) {\n        require(\n            donationTransactions[_transactionID].status ==\n                TransactionStatus.Completed,\n            \"Transaction not completed\"\n        );\n        // Assuming a fixed payment rate for simplicity\n        uint256 _donatedVolume = donationTransactions[_transactionID]\n            .donatedVolume;\n        uint256 paymentRate = 1 gwei; // 1gwei/ml\n        return _donatedVolume * paymentRate;\n    }\n\n    function addBloodSupply(string memory _bloodType, uint256 _volume) public {\n        // onlyMedicalStaff\n        require(_volume > 0, \"Volume must be greater than zero\");\n        require(\n            bloodSupplies[_bloodType].status != BloodSupplyStatus.Requested,\n            \"Blood type already requested\"\n        );\n\n        if (bloodSupplies[_bloodType].status == BloodSupplyStatus.Available) {\n            bloodSupplies[_bloodType].volume += _volume;\n        } else {\n            bloodSupplies[_bloodType] = BloodSupply({\n                bloodType: _bloodType,\n                volume: _volume,\n                status: BloodSupplyStatus.Available\n            });\n        }\n    }\n\n    // function requestBloodType(\n    //     string memory _bloodType,\n    //     uint256 _volume\n    // ) public {\n    //     // onlyMedicalStaff\n    //     require(\n    //         bloodSupplies[_bloodType].status == BloodSupplyStatus.Available,\n    //         \"Blood type not available\"\n    //     );\n    //     require(\n    //         bloodSupplies[_bloodType].volume >= _volume,\n    //         \"Insufficient blood volume\"\n    //     );\n\n        // You can add more logic here to handle the request\n        // For example, update the blood supply status or create a new transaction record\n    // }\n\n    // function generateTransactionID() internal returns (uint256) {\n    //     transactionCounter++;\n    //     return\n    //         uint256(\n    //             keccak256(abi.encodePacked(block.timestamp, transactionCounter))\n    //         );\n    // }\n\n    function compareString(string memory _a, string memory _b) internal pure returns(bool) {\n        return keccak256(abi.encodePacked(_a)) == keccak256(abi.encodePacked(_b));\n    }\n\n    function generateRecordID() internal returns (uint256) {\n        recordCounter++;\n        return\n            uint256(\n                keccak256(abi.encodePacked(block.timestamp, recordCounter))\n            );\n    }\n}\n",
  "sourcePath": "/home/temba/Desktop/blood-donation-blockchain-system/client-side/contracts/BloodDonationBlockchainSystem.sol",
  "compiler": {
    "name": "solc",
    "version": "0.8.19+commit.7dd6d404.Emscripten.clang"
  },
  "schemaVersion": "3.4.16",
  "updatedAt": "2024-02-27T09:56:10.851Z",
  "networkType": "ethereum",
  "devdoc": {
    "kind": "dev",
    "methods": {},
    "version": 1
  },
  "userdoc": {
    "kind": "user",
    "methods": {},
    "version": 1
  }
}