{
  "contractName": "BloodDonationBlockchainSystem",
  "abi": [
    {
      "inputs": [
        {
          "internalType": "address",
          "name": "_donorContractAddress",
          "type": "address"
        },
        {
          "internalType": "address",
          "name": "_medicalCenter",
          "type": "address"
        },
        {
          "internalType": "address",
          "name": "_transAddress",
          "type": "address"
        },
        {
          "internalType": "address",
          "name": "collectionPointAddress_",
          "type": "address"
        }
      ],
      "stateMutability": "nonpayable",
      "type": "constructor"
    },
    {
      "inputs": [
        {
          "internalType": "uint256",
          "name": "",
          "type": "uint256"
        }
      ],
      "name": "allDonationTransactions",
      "outputs": [
        {
          "internalType": "uint256",
          "name": "transactionID",
          "type": "uint256"
        },
        {
          "internalType": "address",
          "name": "donor",
          "type": "address"
        },
        {
          "internalType": "address",
          "name": "recipient",
          "type": "address"
        },
        {
          "internalType": "address",
          "name": "medicalStaff",
          "type": "address"
        },
        {
          "internalType": "string",
          "name": "medicalCenterName",
          "type": "string"
        },
        {
          "internalType": "address",
          "name": "transporter",
          "type": "address"
        },
        {
          "internalType": "string",
          "name": "bloodType",
          "type": "string"
        },
        {
          "internalType": "uint256",
          "name": "donationDate",
          "type": "uint256"
        },
        {
          "internalType": "enum BloodDonationBlockchainSystem.TransactionStatus",
          "name": "status",
          "type": "uint8"
        },
        {
          "internalType": "uint256",
          "name": "donatedVolume",
          "type": "uint256"
        },
        {
          "internalType": "string",
          "name": "bloodTestResult",
          "type": "string"
        }
      ],
      "stateMutability": "view",
      "type": "function",
      "constant": true
    },
    {
      "inputs": [
        {
          "internalType": "string",
          "name": "",
          "type": "string"
        }
      ],
      "name": "bloodSupplies",
      "outputs": [
        {
          "internalType": "string",
          "name": "bloodType",
          "type": "string"
        },
        {
          "internalType": "uint256",
          "name": "volume",
          "type": "uint256"
        },
        {
          "internalType": "enum BloodDonationBlockchainSystem.BloodSupplyStatus",
          "name": "status",
          "type": "uint8"
        }
      ],
      "stateMutability": "view",
      "type": "function",
      "constant": true
    },
    {
      "inputs": [],
      "name": "collectionPoint",
      "outputs": [
        {
          "internalType": "contract CollectionPointContract",
          "name": "",
          "type": "address"
        }
      ],
      "stateMutability": "view",
      "type": "function",
      "constant": true
    },
    {
      "inputs": [
        {
          "internalType": "address",
          "name": "",
          "type": "address"
        },
        {
          "internalType": "uint256",
          "name": "",
          "type": "uint256"
        }
      ],
      "name": "donationTransactions",
      "outputs": [
        {
          "internalType": "uint256",
          "name": "transactionID",
          "type": "uint256"
        },
        {
          "internalType": "address",
          "name": "donor",
          "type": "address"
        },
        {
          "internalType": "address",
          "name": "recipient",
          "type": "address"
        },
        {
          "internalType": "address",
          "name": "medicalStaff",
          "type": "address"
        },
        {
          "internalType": "string",
          "name": "medicalCenterName",
          "type": "string"
        },
        {
          "internalType": "address",
          "name": "transporter",
          "type": "address"
        },
        {
          "internalType": "string",
          "name": "bloodType",
          "type": "string"
        },
        {
          "internalType": "uint256",
          "name": "donationDate",
          "type": "uint256"
        },
        {
          "internalType": "enum BloodDonationBlockchainSystem.TransactionStatus",
          "name": "status",
          "type": "uint8"
        },
        {
          "internalType": "uint256",
          "name": "donatedVolume",
          "type": "uint256"
        },
        {
          "internalType": "string",
          "name": "bloodTestResult",
          "type": "string"
        }
      ],
      "stateMutability": "view",
      "type": "function",
      "constant": true
    },
    {
      "inputs": [
        {
          "internalType": "uint256",
          "name": "",
          "type": "uint256"
        }
      ],
      "name": "donationTransactionsArr",
      "outputs": [
        {
          "internalType": "uint256",
          "name": "",
          "type": "uint256"
        }
      ],
      "stateMutability": "view",
      "type": "function",
      "constant": true
    },
    {
      "inputs": [],
      "name": "donorContract",
      "outputs": [
        {
          "internalType": "contract DonorContract",
          "name": "",
          "type": "address"
        }
      ],
      "stateMutability": "view",
      "type": "function",
      "constant": true
    },
    {
      "inputs": [],
      "name": "medicalCenter",
      "outputs": [
        {
          "internalType": "contract MedicalCenters",
          "name": "",
          "type": "address"
        }
      ],
      "stateMutability": "view",
      "type": "function",
      "constant": true
    },
    {
      "inputs": [
        {
          "internalType": "address",
          "name": "",
          "type": "address"
        },
        {
          "internalType": "uint256",
          "name": "",
          "type": "uint256"
        }
      ],
      "name": "medicalRecords",
      "outputs": [
        {
          "internalType": "uint256",
          "name": "recordID",
          "type": "uint256"
        },
        {
          "internalType": "uint256",
          "name": "transactionID",
          "type": "uint256"
        },
        {
          "internalType": "address",
          "name": "donor",
          "type": "address"
        },
        {
          "internalType": "address",
          "name": "medicalStaff",
          "type": "address"
        },
        {
          "internalType": "string",
          "name": "bloodType",
          "type": "string"
        },
        {
          "internalType": "uint256",
          "name": "bloodPressure",
          "type": "uint256"
        },
        {
          "internalType": "uint256",
          "name": "hemoglobinLevel",
          "type": "uint256"
        },
        {
          "internalType": "string",
          "name": "bloodTestResults",
          "type": "string"
        }
      ],
      "stateMutability": "view",
      "type": "function",
      "constant": true
    },
    {
      "inputs": [
        {
          "internalType": "uint256",
          "name": "",
          "type": "uint256"
        }
      ],
      "name": "medicalRecordsArr",
      "outputs": [
        {
          "internalType": "uint256",
          "name": "",
          "type": "uint256"
        }
      ],
      "stateMutability": "view",
      "type": "function",
      "constant": true
    },
    {
      "inputs": [
        {
          "internalType": "uint256",
          "name": "",
          "type": "uint256"
        }
      ],
      "name": "recipientArr",
      "outputs": [
        {
          "internalType": "uint256",
          "name": "",
          "type": "uint256"
        }
      ],
      "stateMutability": "view",
      "type": "function",
      "constant": true
    },
    {
      "inputs": [
        {
          "internalType": "address",
          "name": "",
          "type": "address"
        },
        {
          "internalType": "uint256",
          "name": "",
          "type": "uint256"
        }
      ],
      "name": "recipients",
      "outputs": [
        {
          "internalType": "uint256",
          "name": "recipientID",
          "type": "uint256"
        },
        {
          "internalType": "uint256",
          "name": "transactionID",
          "type": "uint256"
        },
        {
          "internalType": "address",
          "name": "recipientAddress",
          "type": "address"
        },
        {
          "internalType": "string",
          "name": "recipientName",
          "type": "string"
        },
        {
          "internalType": "string",
          "name": "recipientPhoneNumber",
          "type": "string"
        },
        {
          "internalType": "string",
          "name": "bloodType",
          "type": "string"
        }
      ],
      "stateMutability": "view",
      "type": "function",
      "constant": true
    },
    {
      "inputs": [],
      "name": "recordCounter",
      "outputs": [
        {
          "internalType": "uint256",
          "name": "",
          "type": "uint256"
        }
      ],
      "stateMutability": "view",
      "type": "function",
      "constant": true
    },
    {
      "inputs": [],
      "name": "transactionCounter",
      "outputs": [
        {
          "internalType": "uint256",
          "name": "",
          "type": "uint256"
        }
      ],
      "stateMutability": "view",
      "type": "function",
      "constant": true
    },
    {
      "inputs": [],
      "name": "transportContract",
      "outputs": [
        {
          "internalType": "contract TransportContract",
          "name": "",
          "type": "address"
        }
      ],
      "stateMutability": "view",
      "type": "function",
      "constant": true
    },
    {
      "inputs": [
        {
          "internalType": "uint256",
          "name": "",
          "type": "uint256"
        }
      ],
      "name": "transportationRecords",
      "outputs": [
        {
          "internalType": "uint256",
          "name": "recordID",
          "type": "uint256"
        },
        {
          "internalType": "address",
          "name": "transporter",
          "type": "address"
        },
        {
          "internalType": "address",
          "name": "donor",
          "type": "address"
        },
        {
          "internalType": "address",
          "name": "recipient",
          "type": "address"
        },
        {
          "internalType": "uint256",
          "name": "pickupDateTime",
          "type": "uint256"
        },
        {
          "internalType": "uint256",
          "name": "deliveryDateTime",
          "type": "uint256"
        },
        {
          "internalType": "enum BloodDonationBlockchainSystem.TransportationStatus",
          "name": "status",
          "type": "uint8"
        }
      ],
      "stateMutability": "view",
      "type": "function",
      "constant": true
    },
    {
      "inputs": [
        {
          "internalType": "address",
          "name": "_SYSPublicAddress",
          "type": "address"
        },
        {
          "internalType": "string",
          "name": "_password",
          "type": "string"
        }
      ],
      "name": "checkSystemOwnerLogin",
      "outputs": [
        {
          "internalType": "bool",
          "name": "",
          "type": "bool"
        }
      ],
      "stateMutability": "view",
      "type": "function",
      "constant": true
    },
    {
      "inputs": [
        {
          "internalType": "address",
          "name": "_MCPublicAddress",
          "type": "address"
        },
        {
          "internalType": "string",
          "name": "_password",
          "type": "string"
        }
      ],
      "name": "systemOwnerLogin",
      "outputs": [],
      "stateMutability": "nonpayable",
      "type": "function"
    },
    {
      "inputs": [
        {
          "internalType": "address",
          "name": "_medicalCenterPublicAddress",
          "type": "address"
        },
        {
          "internalType": "address",
          "name": "_donorPublicAddress",
          "type": "address"
        },
        {
          "internalType": "uint256",
          "name": "_volume",
          "type": "uint256"
        }
      ],
      "name": "donateBloodToMedicalCenter",
      "outputs": [],
      "stateMutability": "nonpayable",
      "type": "function"
    },
    {
      "inputs": [],
      "name": "getDonationTransactionArr",
      "outputs": [
        {
          "internalType": "uint256[]",
          "name": "",
          "type": "uint256[]"
        }
      ],
      "stateMutability": "view",
      "type": "function",
      "constant": true
    },
    {
      "inputs": [
        {
          "internalType": "address",
          "name": "_medicalCenterPublicAddress",
          "type": "address"
        },
        {
          "internalType": "uint256",
          "name": "_transactionID",
          "type": "uint256"
        }
      ],
      "name": "getDonationTransaction",
      "outputs": [
        {
          "internalType": "uint256",
          "name": "transactionID",
          "type": "uint256"
        },
        {
          "internalType": "address",
          "name": "donorPublicAddress",
          "type": "address"
        },
        {
          "internalType": "string",
          "name": "donorName",
          "type": "string"
        },
        {
          "internalType": "address",
          "name": "recipientPublicAddress",
          "type": "address"
        },
        {
          "internalType": "address",
          "name": "medicalStaff",
          "type": "address"
        },
        {
          "internalType": "string",
          "name": "medicalCenterName",
          "type": "string"
        },
        {
          "internalType": "address",
          "name": "transporterPublicAddress",
          "type": "address"
        },
        {
          "internalType": "string",
          "name": "bloodType",
          "type": "string"
        },
        {
          "internalType": "uint256",
          "name": "donationDate",
          "type": "uint256"
        },
        {
          "internalType": "enum BloodDonationBlockchainSystem.TransactionStatus",
          "name": "status",
          "type": "uint8"
        },
        {
          "internalType": "uint256",
          "name": "donatedVolume",
          "type": "uint256"
        },
        {
          "internalType": "string",
          "name": "bloodTestResult",
          "type": "string"
        }
      ],
      "stateMutability": "view",
      "type": "function",
      "constant": true
    },
    {
      "inputs": [
        {
          "internalType": "uint256",
          "name": "_transactionID",
          "type": "uint256"
        }
      ],
      "name": "getAllDonationTransaction",
      "outputs": [
        {
          "internalType": "uint256",
          "name": "transactionID",
          "type": "uint256"
        },
        {
          "internalType": "address",
          "name": "donorPublicAddress",
          "type": "address"
        },
        {
          "internalType": "string",
          "name": "donorName",
          "type": "string"
        },
        {
          "internalType": "address",
          "name": "recipientPublicAddress",
          "type": "address"
        },
        {
          "internalType": "address",
          "name": "medicalStaff",
          "type": "address"
        },
        {
          "internalType": "string",
          "name": "medicalCenterName",
          "type": "string"
        },
        {
          "internalType": "address",
          "name": "transporterPublicAddress",
          "type": "address"
        },
        {
          "internalType": "string",
          "name": "bloodType",
          "type": "string"
        },
        {
          "internalType": "uint256",
          "name": "donationDate",
          "type": "uint256"
        },
        {
          "internalType": "enum BloodDonationBlockchainSystem.TransactionStatus",
          "name": "status",
          "type": "uint8"
        },
        {
          "internalType": "uint256",
          "name": "donatedVolume",
          "type": "uint256"
        },
        {
          "internalType": "string",
          "name": "bloodTestResult",
          "type": "string"
        }
      ],
      "stateMutability": "view",
      "type": "function",
      "constant": true
    },
    {
      "inputs": [
        {
          "internalType": "uint256",
          "name": "_transactionID",
          "type": "uint256"
        },
        {
          "internalType": "string",
          "name": "_bloodType",
          "type": "string"
        },
        {
          "internalType": "uint256",
          "name": "_bloodPressure",
          "type": "uint256"
        },
        {
          "internalType": "uint256",
          "name": "_hemoglobinLevel",
          "type": "uint256"
        },
        {
          "internalType": "string",
          "name": "_bloodTestResults",
          "type": "string"
        }
      ],
      "name": "completeDonationToMedicalCenter",
      "outputs": [],
      "stateMutability": "nonpayable",
      "type": "function"
    },
    {
      "inputs": [
        {
          "internalType": "uint256",
          "name": "_transactionID",
          "type": "uint256"
        },
        {
          "internalType": "address",
          "name": "_recipientAddress",
          "type": "address"
        },
        {
          "internalType": "string",
          "name": "_recipientName",
          "type": "string"
        },
        {
          "internalType": "string",
          "name": "_recipientPhoneNumber",
          "type": "string"
        },
        {
          "internalType": "string",
          "name": "_bloodType",
          "type": "string"
        }
      ],
      "name": "fullFillBloodToRecipient",
      "outputs": [],
      "stateMutability": "nonpayable",
      "type": "function"
    },
    {
      "inputs": [],
      "name": "getRecipientsArr",
      "outputs": [
        {
          "internalType": "uint256[]",
          "name": "",
          "type": "uint256[]"
        }
      ],
      "stateMutability": "view",
      "type": "function",
      "constant": true
    },
    {
      "inputs": [
        {
          "internalType": "address",
          "name": "_medicalCenterAddress",
          "type": "address"
        },
        {
          "internalType": "uint256",
          "name": "_recipientID",
          "type": "uint256"
        }
      ],
      "name": "getRecipient",
      "outputs": [
        {
          "internalType": "uint256",
          "name": "recipientID",
          "type": "uint256"
        },
        {
          "internalType": "uint256",
          "name": "transactionID",
          "type": "uint256"
        },
        {
          "internalType": "address",
          "name": "recipientAddress",
          "type": "address"
        },
        {
          "internalType": "string",
          "name": "recipientName",
          "type": "string"
        },
        {
          "internalType": "string",
          "name": "recipientPhoneNumber",
          "type": "string"
        },
        {
          "internalType": "string",
          "name": "bloodType",
          "type": "string"
        }
      ],
      "stateMutability": "view",
      "type": "function",
      "constant": true
    },
    {
      "inputs": [],
      "name": "getMedicalRecordsArr",
      "outputs": [
        {
          "internalType": "uint256[]",
          "name": "",
          "type": "uint256[]"
        }
      ],
      "stateMutability": "view",
      "type": "function",
      "constant": true
    },
    {
      "inputs": [
        {
          "internalType": "address",
          "name": "_medicalCenterAddress",
          "type": "address"
        },
        {
          "internalType": "uint256",
          "name": "_medicalRecordID",
          "type": "uint256"
        }
      ],
      "name": "getMedicalRecord",
      "outputs": [
        {
          "internalType": "uint256",
          "name": "medicalRecordID",
          "type": "uint256"
        },
        {
          "internalType": "uint256",
          "name": "transactionID",
          "type": "uint256"
        },
        {
          "internalType": "address",
          "name": "donorAddress",
          "type": "address"
        },
        {
          "internalType": "string",
          "name": "bloodType",
          "type": "string"
        },
        {
          "internalType": "address",
          "name": "medicalStaff",
          "type": "address"
        },
        {
          "internalType": "uint256",
          "name": "bloodPressure",
          "type": "uint256"
        },
        {
          "internalType": "uint256",
          "name": "hemoglobinLevel",
          "type": "uint256"
        },
        {
          "internalType": "string",
          "name": "bloodTestResult",
          "type": "string"
        }
      ],
      "stateMutability": "view",
      "type": "function",
      "constant": true
    },
    {
      "inputs": [
        {
          "internalType": "uint256",
          "name": "transactionID_",
          "type": "uint256"
        },
        {
          "internalType": "address",
          "name": "medicalCenterPublicAddress_",
          "type": "address"
        }
      ],
      "name": "RequestBloodSupply",
      "outputs": [],
      "stateMutability": "nonpayable",
      "type": "function"
    },
    {
      "inputs": [
        {
          "internalType": "uint256",
          "name": "transactionID_",
          "type": "uint256"
        },
        {
          "internalType": "address",
          "name": "medicalCenterPublicAddress_",
          "type": "address"
        },
        {
          "internalType": "address",
          "name": "transporterAddress_",
          "type": "address"
        }
      ],
      "name": "ApprovalBloodSupplied",
      "outputs": [],
      "stateMutability": "nonpayable",
      "type": "function"
    }
  ],
  "bytecode": "0x60a03462000349576001604060020a0390601f62003c4238819003918201601f1916830191848311848410176200031a5780849260809460405283398101031262000349576200004f816200034e565b6200005d602083016200034e565b906200007a606062000072604086016200034e565b94016200034e565b93336080526040519060608201828110828211176200031a5760405233825260405160408101818110838211176200031a57604052600581527f61646d696e000000000000000000000000000000000000000000000000000000602082015280602084015260006040840152600160a060020a03835116600160a060020a0319600d541617600d5580519182116200031a5762000119600e5462000363565b601f8111620002cb575b50602090601f8311600114620002545760409392916000918362000248575b5050816002029160080260020a60001904191617600e555b0151151560ff199060ff82600f5416911617600f55600160a060020a036080511660005260016020526040600020600d8103620001fd575b505060108054600160a060020a0319908116600160a060020a03938416179091556011805482169383169390931790925560128054831693821693909317909255601380549091169290911691909117905560405161372f90816200051382396080518161233b0152f35b600d548154600160a060020a031916600160a060020a03919091161781556002906200022c60018201620003ba565b019060ff80600f54161515918354169116179055388062000192565b01519050388062000142565b90600e60005260206000209160005b601f1985168110620002b25750926001926002926040969583601f1981161062000296575b5050500201600e556200015a565b01516008601f841602840a600019041916905538808062000288565b9192602060018192868501518155019401920162000263565b600e60005260206000206020601f850104810191602085106200030f575b601f602091010401905b81811062000302575062000123565b60008155600101620002f3565b9091508190620002e9565b7f4e487b7100000000000000000000000000000000000000000000000000000000600052604160045260246000fd5b600080fd5b5190600160a060020a03821682036200034957565b9060016002830492168015620003af575b60208310146200038057565b7f4e487b7100000000000000000000000000000000000000000000000000000000600052602260045260246000fd5b91607f169162000374565b600e81146200050f57620003d0600e5462000363565b6001604060020a0381116200031a57620003eb825462000363565b601f8111620004c1575b50806000601f8211600114620004325760009162000425575b50816002029160080260020a600019041916179055565b9050600e0154386200040e565b838152602080822092507fbb7b4a454dc3493923482f07822329ed19e8244eff582cc204f8554c3620c3fd90601f1985169083905b828210620004a757505091600293918560019694106200048b575b50505002019055565b01546008601f841602840a600019041916905538808062000482565b849581929585015481556001809101960194019062000467565b6000838152602081206020601f8501048101926020851062000504575b601f602091010401915b828110620004f8575050620003f5565b818155600101620004e8565b9092508290620004de565b5056fe608080604052600436101561001357600080fd5b6000907c010000000000000000000000000000000000000000000000000000000082350490816308a9900814612d7b575080630c7a538f14612d5757806311e1c24a14612d3057806314e887e814612d1257806322d95e0a14612ceb57806337d9817514612c8657806339c3d6b714612c1057806342d6976514612a6c57806344d38d7014612a1c5780634a9cf2481461298a5780636cd327e0146129145780636de4890e146128e45780637599be5d146128c65780637fe52fa3146126da57806397678a031461261e5780639c1bc07b14612584578063aa60ac4c146124c9578063bae4c740146124a2578063c02b9f5a1461241b578063cfc097011461231f578063d04398d61461229d578063d1b21c2e14611c38578063d59be68d14611c11578063dd2a404f14611bf3578063e14ec6ec14610f20578063ea8b902514610ea2578063eea9c37b14610d90578063ef0aa4e6146101d45763f56213671461017c57600080fd5b346101d15760203660031901126101d157600435600a548110156101cd57602090600a6000527fc65a7bb8d6351c1cf70c95a316cc6a92839c986682d98bc35f958f4883f9d2a80154604051908152f35b5080fd5b80fd5b50346101d15760a03660031901126101d15760243567ffffffffffffffff81116101cd57610206903690600401612ebd565b60843567ffffffffffffffff8111610a0657610226903690600401612ebd565b602483600160a060020a03601154166040519283809260e060020a63244723b10282523360048301525afa8015610d8557610274918591610d63575b5051600160a060020a03163314613637565b338352600460205260408320600435845260205260ff6008604085200154166003811015610d4c576102a690156136ab565b3383526004602052604083206004358452602052600160a060020a0360016040852001541615610d055733835260046020526040832060043584526020526003604084200133600160a060020a0319825416179055338352600460205260408320600435845260205260066040842001825167ffffffffffffffff81116109db576103318254612f47565b601f8111610cc3575b50806020601f8211600114610c5b578691610c50575b50816002029160080260020a6000190419161790555b338352600460205260408320600435845260205260086040842001600160ff198254161790553383526004602052604083206004358452602052600a6040842001815167ffffffffffffffff81116109db576103c28254612f47565b601f8111610c0e575b50806020601f8211600114610ba6578691610b9b575b50816002029160080260020a6000190419161790555b600435835260056020526040832060038101805473ffffffffffffffffffffffffffffffffffffffff191633179055825167ffffffffffffffff81116109db576104446006830154612f47565b601f8111610b56575b506020601f8211600114610ae95790806006928791610ade575b50816002029160080260020a600019041916179101555b6004358352600560205260086040842001600160ff1982541617905560043583526005602052600a6040842001815167ffffffffffffffff81116109db576104c68254612f47565b601f8111610a9c575b50806020601f8211600114610a34578691610a29575b50816002029160080260020a6000190419161790555b82600160a060020a03601054163382526004602052604082206004358352602052600160a060020a03600160408420015416813b15610a065782906040519283917f65837dca00000000000000000000000000000000000000000000000000000000835260048301526040602483015281838161057b604482018b61304d565b03925af18015610a0a57610a15575b50600160a060020a03601054163382526004602052604082206004358352602052600160a060020a0360016040842001541690803b15610a06576040517f6d0a1c38000000000000000000000000000000000000000000000000000000008152600160a060020a039290921660048084019190915235602483015282908290604490829084905af18015610a0a576109f2575b50503383526004602052604083206004358452602052600160a060020a03600160408520015416916040519261065284612e46565b42845260043560208501526040840152336060840152608083015260443560a083015260643560c083015260e082015233825260026020526040822042835260205260408220815181556020820151600182015560028101600160a060020a03604084015116600160a060020a031982541617905560038101600160a060020a03606084015116600160a060020a0319825416179055608082015180519067ffffffffffffffff82116109db5761070c6004840154612f47565b601f8111610996575b50602090601f831160011461092157918060e094926007948892610916575b5050816002029160080260020a6000190419161760048201555b60a0840151600582015560c084015160068201550191015180519067ffffffffffffffff82116108ff5781906107848454612f47565b601f81116108ae575b50602090601f831160011461084757859261083c575b5050816002029160080260020a6000190419161790555b6009546801000000000000000081101561082357600181018060095581101561080a57600960005242907f6e1540171b6c0c960b71a7020d9f60077f6af931a8bbf590da0223dacf75c7af015580f35b60e060020a634e487b7102600052603260045260246000fd5b60e060020a634e487b7102600052604160045260246000fd5b0151905038806107a3565b848652602086209250601f198416865b8181106108965750916002939185600196941061087b575b505050020190556107ba565b01516008601f841602840a600019041916905538808061086f565b92936020600181928786015181550195019301610857565b909150838552602085206020601f850104810191602085106108f5575b906020601f86959493010401905b8181106108e6575061078d565b600081558493506001016108d9565b90915081906108cb565b60248460e060020a634e487b710281526041600452fd5b015190503880610734565b906004840186526020862091865b601f198516811061097e57508360e09593600193600293600797601f19811610610963575b5050500201600482015561074e565b01516008601f841602840a6000190419169055388080610954565b9192602060018192868501518155019401920161092f565b600484018652602086206020601f8501048101602085106109d4575b6020601f840104820181106109c8575050610715565b600081556001016109b2565b50806109b2565b60248560e060020a634e487b710281526041600452fd5b6109fb90612e32565b610a0657823861061d565b8280fd5b6040513d84823e3d90fd5b610a1e90612e32565b610a0657823861058a565b9050830151386104e5565b838752602087209150865b601f1984168110610a8457509160029160019382601f19811610610a69575b5050020190556104fb565b8601516008601f841602840a60001904191690553880610a5e565b90916020600181928589015181550193019101610a3f565b828652602086206020601f840104810160208410610ad7575b6020601f84010482018110610acb5750506104cf565b60008155600101610ab5565b5080610ab5565b905085015138610467565b6006830186526020862090865b601f1984168110610b3e575082600192600292600695601f19811610610b23575b5050020191015561047e565b8801516008601f841602840a60001904191690553880610b17565b9091602060018192858a015181550193019101610af6565b600683018652602086206020601f840104810160208410610b94575b6020601f84010482018110610b8857505061044d565b60008155600101610b72565b5080610b72565b9050830151386103e1565b838752602087209150865b601f1984168110610bf657509160029160019382601f19811610610bdb575b5050020190556103f7565b8601516008601f841602840a60001904191690553880610bd0565b90916020600181928589015181550193019101610bb1565b828652602086206020601f840104810160208410610c49575b6020601f84010482018110610c3d5750506103cb565b60008155600101610c27565b5080610c27565b905084015138610350565b838752602087209150865b601f1984168110610cab57509160029160019382601f19811610610c90575b505002019055610366565b8701516008601f841602840a60001904191690553880610c85565b9091602060018192858a015181550193019101610c66565b828652602086206020601f840104810160208410610cfe575b6020601f84010482018110610cf257505061033a565b60008155600101610cdc565b5080610cdc565b606460405160e560020a62461bcd02815260206004820152601560248201527f496e76616c696420646f6e6f72206164647265737300000000000000000000006044820152fd5b60248460e060020a634e487b710281526021600452fd5b610d7f91503d8087833e610d778183612e7f565b81019061351e565b38610262565b6040513d86823e3d90fd5b50346101d15760403660031901126101d1576040600160a060020a039182610db6612dc8565b168152600260205281812060243582526020522090610e9e60405191610ddb83612e46565b8354835260018401549260208101938452816002860154169460408201958652826003820154169060608301918252610e81610e1960048301612f85565b926080850193845260058301549560a0860196875280610e47600760068701549660c08a0197885201612f85565b968760e08201525199519a511694519151169551925193604051998a998a5260208a015260408901526101008060608a015288019061304d565b93608087015260a086015260c085015283820360e085015261304d565b0390f35b50346101d15760403660031901126101d1576040600160a060020a039182610ec8612dc8565b1681526003602052818120602435825260205220610e9e81549160018101549360028201541690610efb60038201612f85565b610f136005610f0c60048501612f85565b9301612f85565b92604051968796876131fa565b50346101d15760603660031901126101d157610f3a612dc8565b90610f43612de3565b91600160a060020a036010541660405160e360020a6317c75205028152600160a060020a03851660048201528381602481855afa908115610d8557600191610120918691611bd9575b500151151503611b9257602483600160a060020a03601154166040519283809260e060020a63244723b1028252600160a060020a03881660048301525afa908115610d8557602060249286928391611b78575b500151926040519283809260e360020a6317c75205028252600160a060020a038a1660048301525afa908115610d8557906080918591611b5e575b5001516040519161102a83612df9565b428352600160a060020a038616602084015284604084015233606084015260808301528360a083015260c08201524260e0820152826101008201526044356101208201526110766135e6565b610140820152600160a060020a0382168352600460205260408320428452602052604083209080518255600160a060020a036020820151166001830190600160a060020a031982541617905560028201600160a060020a03604083015116600160a060020a031982541617905560038201600160a060020a03606083015116600160a060020a0319825416179055608081015180519067ffffffffffffffff8211611a7c57819061112a6004860154612f47565b601f8111611b0e575b50602090601f8311600114611a9e578792611a93575b5050816002029160080260020a6000190419161760048301555b60058201600160a060020a0360a083015116600160a060020a031982541617905560c081015180519067ffffffffffffffff8211611a7c5781906111aa6006860154612f47565b601f8111611a2c575b50602090601f83116001146119bc5787926119b1575b5050816002029160080260020a6000190419161760068301555b60e08101516007830155610100810151600381101561199a579061120d610140926008850161361f565b6101208101516009840155015180519067ffffffffffffffff82116109db57611239600a840154612f47565b601f8111611956575b50602090601f83116001146118e657600a92918691836118db575b5050816002029160080260020a600019041916179101555b81600160a060020a036024816011541693604051948593849260e060020a63244723b10284521660048301525afa908115610a0a579060209183916118c1575b50015191602482600160a060020a03601054166040519283809260e360020a6317c75205028252600160a060020a03871660048301525afa9081156118b657906080918491611894575b5001516040519361130f85612df9565b428552600160a060020a038316602086015283604086015233606086015260808501528260a085015260c08401524260e08401528161010084015260443561012084015261135b6135e6565b610140840152428252600560205260408220928051845560018401600160a060020a03602083015116600160a060020a031982541617905560028401600160a060020a03604083015116600160a060020a031982541617905560038401600160a060020a03606083015116600160a060020a0319825416179055608081015180519067ffffffffffffffff82116109db5781906113fb6004880154612f47565b601f8111611844575b50602090601f83116001146117d45786926117c9575b5050816002029160080260020a6000190419161760048501555b60058401600160a060020a0360a083015116600160a060020a031982541617905560c081015180519067ffffffffffffffff82116109db57819061147b6006880154612f47565b601f8111611779575b50602090601f83116001146117095786926116fe575b5050816002029160080260020a6000190419161760068501555b60e081015160078501556101008101516003811015610d4c57906114de610140926008870161361f565b6101208101516009860155015192835167ffffffffffffffff81116108ff5761150a600a830154612f47565b601f81116116ba575b506020601f821160011461164a579080600a928697879261163f575b5050816002029160080260020a600019041916179101555b600160a060020a036010541690813b1561163b576040517f02c7739b000000000000000000000000000000000000000000000000000000008152600160a060020a03919091166004820152604480356024830152909291839190829084905af18015610a0a5761162c575b506008546801000000000000000081101561082357600181018060085581101561080a57600860005242907ff3f7a9fe364faab93b216da50a3214154f22a0a2b415b23a84c8169e8b636ee30155600b54600019811461161557600101600b5580f35b60248260e060020a634e487b710281526011600452fd5b61163590612e32565b386115b2565b5050fd5b01519050388061152f565b600a830185526020852095855b601f19841681106116a25750828697600193600293600a96601f19811610611687575b5050500201910155611547565b01516008601f841602840a600019041916905538808061167a565b82820151885560019097019660209283019201611657565b600a83018552602085206020601f8401048101602084106116f7575b6020601f840104820181106116ec575050611513565b8681556001016116d6565b50806116d6565b01519050388061149a565b600688018752602087209250865b601f19851681106117615750918391600293600195601f19811610611746575b505050020160068501556114b4565b01516008601f841602840a6000190419169055388080611737565b91926020600181928685015181550194019201611717565b909150600687018652602086206020601f8501048101602085106117c2575b90849392915b6020601f840104820181106117b4575050611484565b88815585945060010161179e565b5080611798565b01519050388061141a565b600488018752602087209250865b601f198516811061182c5750918391600293600195601f19811610611811575b50505002016004850155611434565b01516008601f841602840a6000190419169055388080611802565b919260206001819286850151815501940192016117e2565b909150600487018652602086206020601f85010481016020851061188d575b90849392915b6020601f8401048201811061187f575050611404565b888155859450600101611869565b5080611863565b6118b091503d8086833e6118a88183612e7f565b810190613380565b386112ff565b6040513d85823e3d90fd5b6118d591503d8085833e610d778183612e7f565b386112b5565b01519050388061125d565b90600a840186526020862091865b601f198516811061193e575092600192600292600a9583601f19811610611923575b5050500201910155611275565b01516008601f841602840a6000190419169055388080611916565b919260206001819286850151815501940192016118f4565b600a84018652602086206020601f850104810160208510611993575b6020601f84010482018110611988575050611242565b878155600101611972565b5080611972565b60248560e060020a634e487b710281526021600452fd5b0151905038806111c9565b600686018852602088209250875b601f1985168110611a145750918391600293600195601f198116106119f9575b505050020160068301556111e3565b01516008601f841602840a60001904191690553880806119ea565b919260206001819286850151815501940192016119ca565b909150600685018752602087206020601f850104810160208510611a75575b90849392915b6020601f84010482018110611a675750506111b3565b898155859450600101611a51565b5080611a4b565b60248660e060020a634e487b710281526041600452fd5b015190503880611149565b600486018852602088209250875b601f1985168110611af65750918391600293600195601f19811610611adb575b50505002016004830155611163565b01516008601f841602840a6000190419169055388080611acc565b91926020600181928685015181550194019201611aac565b909150600485018752602087206020601f850104810160208510611b57575b90849392915b6020601f84010482018110611b49575050611133565b898155859450600101611b33565b5080611b2d565b611b7291503d8087833e6118a88183612e7f565b3861101a565b611b8c91503d8085833e610d778183612e7f565b38610fdf565b606460405160e560020a62461bcd02815260206004820152601b60248201527f506c6561736520726567697374657220646f6e6f7220666972737400000000006044820152fd5b611bed91503d8088833e6118a88183612e7f565b38610f8c565b50346101d15760403660031901126101d157611c0d612de3565b5080f35b50346101d157806003193601126101d1576020600160a060020a0360115416604051908152f35b50346101d15760a03660031901126101d157600435611c55612de3565b9060443567ffffffffffffffff811161229957611c76903690600401612ebd565b60643567ffffffffffffffff811161229557611c96903690600401612ebd565b9260843567ffffffffffffffff811161229157611cb7903690600401612ebd565b90600160a060020a0360248782601154166040519283809260e060020a63244723b10282523360048301525afa801561228657611d0091899161226c575b505182163314613637565b33875260046020526040872085885260205260ff6008604089200154166003811015612255576001611d3291146136ab565b338752600460205260408720858852602052611d9a611d95611d59600a60408b2001612f85565b60405190611d6682612e63565b600882527f414343455054454400000000000000000000000000000000000000000000000060208301526132c8565b6136ab565b3387526004602052604087208588526020528060026040892001921692600160a060020a03199284848254161790553388526004602052604088208689526020526008604089200160ff199060028282541617905560056020526002600860408b208281018888825416179055019182541617905560405196611e1c88612e16565b428852602088019687526040880194855260608801958652608088015260a087015233875260036020526040872042885260205260408720948651865551600186015560028501925116908254161790555180519067ffffffffffffffff82116109db578190611e8f6003850154612f47565b601f8111612205575b50602090601f831160011461219557869261218a575b5050816002029160080260020a6000190419161760038201555b608082015180519067ffffffffffffffff82116109db57611eec6004840154612f47565b601f8111612141575b50602090601f83116001146120cc57918060a0949260059488926120c1575b5050816002029160080260020a6000190419161760048201555b0191015180519067ffffffffffffffff82116108ff578190611f508454612f47565b601f8111612071575b50602090601f831160011461200a578592611fff575b5050816002029160080260020a6000190419161790555b600a5468010000000000000000811015611fe8576001810180600a55811015611fd15742907fc65a7bb8d6351c1cf70c95a316cc6a92839c986682d98bc35f958f4883f9d2a8015580f35b60248260e060020a634e487b710281526032600452fd5b60248260e060020a634e487b710281526041600452fd5b015190503880611f6f565b848652602086209250601f198416865b8181106120595750916002939185600196941061203e575b50505002019055611f86565b01516008601f841602840a6000190419169055388080612032565b9293602060018192878601518155019501930161201a565b909150838552602085206020601f850104810191602085106120b7575b906020601f86959493010401905b8181106120a95750611f59565b86815584935060010161209c565b909150819061208e565b015190503880611f14565b906004840186526020862091865b601f198516811061212957508360a09593600193600293600597601f1981161061210e575b50505002016004820155611f2e565b01516008601f841602840a60001904191690553880806120ff565b919260206001819286850151815501940192016120da565b600484018652602086206020601f85010481019160208510612180575b601f602091010401905b8181106121755750611ef5565b868155600101612168565b909150819061215e565b015190503880611eae565b600385018752602087209250865b601f19851681106121ed5750918391600293600195601f198116106121d2575b50505002016003820155611ec8565b01516008601f841602840a60001904191690553880806121c3565b919260206001819286850151815501940192016121a3565b909150600384018652602086206020601f85010481016020851061224e575b90849392915b6020601f84010482018110612240575050611e98565b88815585945060010161222a565b5080612224565b60248860e060020a634e487b710281526021600452fd5b61228091503d808b833e610d778183612e7f565b38611cf5565b6040513d8a823e3d90fd5b8580fd5b8480fd5b8380fd5b50346101d157806003193601126101d157604051600880548083529083526020808301937ff3f7a9fe364faab93b216da50a3214154f22a0a2b415b23a84c8169e8b636ee392915b82821061230857610e9e856122fc81890382612e7f565b6040519182918261311d565b8354865294850194600193840193909101906122e5565b50346101d15761232e36612f04565b90600160a060020a0391827f00000000000000000000000000000000000000000000000000000000000000001633036123d45761236b908261324c565b1561238d57168152600160205260026040822001600160ff1982541617905580f35b606460405160e560020a62461bcd02815260206004820152601960248201527f496e76616c6964206c6f67696e2063726564656e7469616c73000000000000006044820152fd5b606460405160e560020a62461bcd02815260206004820152601f60248201527f5265737472696374656420746f2073797374656d206f776e6572206f6e6c79006044820152fd5b50346101d15760203660031901126101d157604060e0916004358152600660205220805490600160a060020a03908160018201541691806002830154169060038301541660048301549160ff600660058601549501541694604051968752602087015260408601526060850152608084015260a083015261249b816131f0565b60c0820152f35b50346101d157806003193601126101d1576020600160a060020a0360135416604051908152f35b50346101d15760403660031901126101d1576040600160a060020a0391826124ef612dc8565b168152600360205281812060243582526020522090610e9e60405161251381612e16565b835481526001840154926020820193845280600286015416946040830195865261253f60038201612f85565b9160608401928352612566600561255860048501612f85565b936080870194855201612f85565b938460a08201525195519651169151905191604051968796876131fa565b50346101d15760203660031901126101d1576004359067ffffffffffffffff82116101d1576126066125d160206125be3660048701612ebd565b816040519382858094519384920161302a565b810160078152030190206125e481612f85565b9060ff600260018301549201541660405193849360608552606085019061304d565b916020840152612615816131f0565b60408301520390f35b50346101d15760403660031901126101d1576040600160a060020a039182612644612dc8565b1681526002602052818120602435825260205220610e9e8154916001810154938060028301541690600383015416916126c261268260048301612f85565b600583015494612699600760068601549501612f85565b94604051998a998a5260208a01526040890152606088015261010080608089015287019061304d565b9260a086015260c085015283820360e085015261304d565b50346101d15760403660031901126101d157600160a060020a036126fc612dc8565b1681526004602052604081206024358252602052604081206040519061272182612df9565b805482526127cb600a600160a060020a036001840154169260208501938452600160a060020a036002820154166040860152600160a060020a03600382015416606086015261277260048201612f85565b6080860152600160a060020a0360058201541660a086015261279660068201612f85565b60c0860152600781015460e08601526127ba60ff60088301541661010087016135da565b600981015461012086015201612f85565b610140830152600160a060020a03825191511691602484600160a060020a03601054166040519283809260e360020a6317c752050282528860048301525afa80156128bb5760209186916128a1575b50015190600160a060020a03604082015116600160a060020a03606083015116600160a060020a0360a08401511660808401519060c08501519160e08601519361010087015195600387101561288a57610e9e999a9b50610140610120890151980151986040519c8d9c8d613158565b60248c60e060020a634e487b710281526021600452fd5b6128b591503d8088833e6118a88183612e7f565b3861281a565b6040513d87823e3d90fd5b50346101d157806003193601126101d1576020600c54604051908152f35b50346101d15760603660031901126101d1576128fe612de3565b50604435600160a060020a038116036101d15780f35b50346101d157806003193601126101d157604051600980548083529083526020808301937f6e1540171b6c0c960b71a7020d9f60077f6af931a8bbf590da0223dacf75c7af92915b82821061297357610e9e856122fc81890382612e7f565b83548652948501946001938401939091019061295c565b50346101d15760203660031901126101d15760409060043581526005602052208054610e9e600160a060020a038060018501541693816002820154169180600383015416906129db60048401612f85565b906005840154166129ee60068501612f85565b9060078501549260ff60088701541694612a0f600a60098901549801612f85565b976040519b8c9b8c613098565b50346101d15760203660031901126101d1576004356008548110156101cd576008602092527ff3f7a9fe364faab93b216da50a3214154f22a0a2b415b23a84c8169e8b636ee30154604051908152f35b50346101d15760203660031901126101d1576004358152600560205260408120604051612a9881612df9565b81548152600160a060020a036001830154169060208101918252600160a060020a036002840154169060408101918252600160a060020a0360038501541660608201908152612ae960048601612f85565b60808301908152600160a060020a0360058701541660a08401908152612b4e600a612b1660068a01612f85565b9860c08701998a52600781015460e0880152612b3d60ff60088301541661010089016135da565b600981015461012088015201612f85565b610140850152600160a060020a0384519651169688600160a060020a0360105416818a60246040518094819360e360020a6317c7520502835260048301525afa908115610a0a576020600160a060020a03939284939283859492612bf5575b50500151985116955116935192511690519160e08601519361010087015195600387101561288a57610e9e999a9b50610140610120890151980151986040519c8d9c8d613158565b612c0992503d8091833e6118a88183612e7f565b388e612bad565b50346101d157806003193601126101d157604051600a80548083529083526020808301937fc65a7bb8d6351c1cf70c95a316cc6a92839c986682d98bc35f958f4883f9d2a892915b828210612c6f57610e9e856122fc81890382612e7f565b835486529485019460019384019390910190612c58565b50346101d15760403660031901126101d1576040600160a060020a039182612cac612dc8565b168152600460205281812060243582526020522090610e9e8254918060018501541693816002820154169180600383015416906129db60048401612f85565b50346101d157806003193601126101d1576020600160a060020a0360125416604051908152f35b50346101d157806003193601126101d1576020600b54604051908152f35b50346101d157806003193601126101d1576020600160a060020a0360105416604051908152f35b50346101d1576020612d71612d6b36612f04565b9061324c565b6040519015158152f35b9050346101cd5760203660031901126101cd57600435600954811015610a06576009602093527f6e1540171b6c0c960b71a7020d9f60077f6af931a8bbf590da0223dacf75c7af01548152f35b60043590600160a060020a0382168203612dde57565b600080fd5b60243590600160a060020a0382168203612dde57565b610160810190811067ffffffffffffffff82111761082357604052565b60c0810190811067ffffffffffffffff82111761082357604052565b67ffffffffffffffff811161082357604052565b610100810190811067ffffffffffffffff82111761082357604052565b6040810190811067ffffffffffffffff82111761082357604052565b90601f8019910116810190811067ffffffffffffffff82111761082357604052565b67ffffffffffffffff811161082357601f01601f191660200190565b81601f82011215612dde57803590612ed482612ea1565b92612ee26040519485612e7f565b82845260208383010111612dde57816000926020809301838601378301015290565b906040600319830112612dde57600435600160a060020a0381168103612dde57916024359067ffffffffffffffff8211612dde57612f4491600401612ebd565b90565b9060016002830492168015612f7b575b6020831014612f6257565b60e060020a634e487b7102600052602260045260246000fd5b91607f1691612f57565b9060405191826000825492612f9984612f47565b9081845260019485811690816000146130085750600114612fc5575b5050612fc392500383612e7f565b565b9093915060005260209081600020936000915b818310612ff0575050612fc393508201013880612fb5565b85548884018501529485019487945091830191612fd8565b915050612fc394506020925060ff191682840152151581028201013880612fb5565b60005b83811061303d5750506000910152565b818101518382015260200161302d565b906020916130668151809281855285808601910161302a565b601f01601f1916010190565b90600382101561307f5752565b60e060020a634e487b7102600052602160045260246000fd5b97999691612f449b999560206130f8966130e4936131099a978d968752600160a060020a03968794858094169101521660408d01521660608b01526101608060808c01528a019061304d565b921660a088015286820360c088015261304d565b9560e0850152610100840190613072565b61012082015261014081840391015261304d565b6020908160408183019282815285518094520193019160005b828110613144575050505090565b835185529381019392810192600101613136565b989a979293612f449c9a966131dc98956131ca978c606061319e976131b6978352600160a060020a0398899586809316602086015261018080604087015285019061304d565b96169101521660808c01528a820360a08c015261304d565b921660c088015286820360e088015261304d565b95610100850152610120840190613072565b61014082015261016081840391015261304d565b6002111561307f57565b949193600160a060020a0361323e94612f449896613230948952602089015216604087015260c0606087015260c086019061304d565b90848203608086015261304d565b9160a081840391015261304d565b90600160a060020a03613277921660005260016020526132726001604060002001612f85565b6132c8565b1561328157600190565b606460405160e560020a62461bcd02815260206004820152601b60248201527f496e76616c69642061646472657373206f722070617373776f726400000000006044820152fd5b90604051916020926132f68482816132e9818301968781519384920161302a565b8101038084520182612e7f565b519020916133166040519182816132e9818301968781519384920161302a565b5190201490565b5190600160a060020a0382168203612dde57565b81601f82011215612dde57805161334781612ea1565b926133556040519485612e7f565b81845260208284010111612dde57612f44916020808501910161302a565b51908115158203612dde57565b60208082840312612dde57815167ffffffffffffffff92838211612dde5701906101a0938483820312612dde5760405194850185811085821117610823576040526133ca8361331d565b855281830151848111612dde57816133e3918501613331565b82860152604083015160408601526060830151848111612dde5781613409918501613331565b60608601526080830151848111612dde5781613426918501613331565b608086015260a0830151848111612dde5781613443918501613331565b60a086015260c0830151848111612dde5781613460918501613331565b60c086015260e083015160e08601526101008084015190860152610120613488818501613373565b9086015261014061349a818501613373565b908601526101606134ac818501613373565b90860152610180928381015190858211612dde570181601f82011215612dde5780519485116108235782850290604051956134e985840188612e7f565b86528380870192820101928311612dde578301905b82821061350f575050505082015290565b815181529083019083016134fe565b602081830312612dde57805167ffffffffffffffff91828211612dde57019160c083820312612dde576040519261355484612e16565b61355d8161331d565b84526020810151838111612dde5782613577918301613331565b60208501526040810151838111612dde5782613594918301613331565b60408501526060810151928311612dde576135b660a0926135d2948301613331565b60608501526135c760808201613373565b608085015201613373565b60a082015290565b600382101561307f5752565b604051906135f382612e63565b600982527f4e6f20526573756c7400000000000000000000000000000000000000000000006020830152565b90600381101561307f5760ff80198354169116179055565b1561363e57565b608460405160e560020a62461bcd02815260206004820152602a60248201527f4f6e6c79206d65646963616c2073746166662063616e20706572666f726d207460448201527f68697320616374696f6e000000000000000000000000000000000000000000006064820152fd5b156136b257565b606460405160e560020a62461bcd02815260206004820152601a60248201527f496e76616c6964207472616e73616374696f6e207374617475730000000000006044820152fdfea26469706673582212201c24acbd805b6ed112eea6b5b49a3e372522205bc88c453b7cfc072eb413d72064736f6c63430008130033",
  "immutableReferences": {
    "3": [
      {
        "length": 32,
        "start": 9019
      }
    ]
  },
  "source": "// SPDX-License-Identifier: MIT\npragma solidity ^0.8.19;\nimport \"./DonorContract.sol\";\nimport \"./MedicalCenters.sol\";\nimport \"./TransportContract.sol\";\nimport \"./AccessControl.sol\";\nimport \"./CollectionPointContract.sol\";\n\n/**\n    @title Blood Donation Blockchain-based System\n    @author Josephat E. Temba\n    @notice You can use this smart contract in real blood donation operations\n    @dev This is best aproach for developers to learn how real dapp looking for\n    @custom:fyp This is the final year project for cive students\n */\n\ncontract BloodDonationBlockchainSystem is AccessControl {\n    enum TransactionStatus { Shipped, Active, Fullfilled }\n    enum TransportationStatus { InTransit, Delivered }\n    enum BloodSupplyStatus { Available, Requested }\n\n    /// @dev create system account structure\n    struct SystemOwner {\n        address sysOwner;\n        string password /*audit*/;\n        bool isLogin;\n    }\n\n    struct DonationTransaction {\n        uint256 transactionID;\n        address donor;\n        address recipient;\n        address medicalStaff;\n        string medicalCenterName;\n        address transporter;\n        string bloodType;\n        uint256 donationDate;\n        TransactionStatus status;\n        uint256 donatedVolume;\n        string bloodTestResult;\n    }\n\n    struct MedicalRecord {\n        uint256 recordID;\n        uint256 transactionID;\n        address donor;\n        address medicalStaff;\n        string bloodType;\n        uint256 bloodPressure;\n        uint256 hemoglobinLevel;\n        string bloodTestResults;\n    }\n\n    struct Recipient {\n        uint256 recipientID;\n        uint256 transactionID;\n        address recipientAddress;\n        string recipientName;\n        string recipientPhoneNumber;\n        string bloodType;\n    }\n\n    struct TransportationRecord {\n        uint256 recordID;\n        address transporter;\n        address donor;\n        address recipient;\n        uint256 pickupDateTime;\n        uint256 deliveryDateTime;\n        TransportationStatus status;\n    }\n\n    struct BloodSupply {\n        string bloodType;\n        uint256 volume;\n        BloodSupplyStatus status;\n    }\n\n    mapping(address => SystemOwner) private sysOwnerMap;\n    \n    mapping(address => mapping(uint256 => MedicalRecord)) public medicalRecords;\n    mapping(address => mapping(uint256 => Recipient)) public recipients;\n    mapping(address => mapping(uint256 => DonationTransaction)) public donationTransactions;\n    mapping(uint256 => DonationTransaction) public allDonationTransactions;\n\n    mapping(uint256 => TransportationRecord) public transportationRecords;\n    mapping(string => BloodSupply) public bloodSupplies;\n\n    uint256[] public donationTransactionsArr;\n    uint256[] public medicalRecordsArr;\n    uint256[] public recipientArr;\n\n    uint256 public transactionCounter;\n    uint256 public recordCounter;\n\n    // modifier onlyTransporter() {\n    //     require(\n    //         transporters[msg.sender].transporterPublicAddress == msg.sender,\n    //         \"Only transporters can perform this action\"\n    //     );\n    //     _;\n    // }\n\n    SystemOwner private sysowner;\n\n    DonorContract public donorContract;\n    MedicalCenters public medicalCenter;\n    TransportContract public transportContract;\n    CollectionPointContract public collectionPoint;\n\n    constructor(address _donorContractAddress, address _medicalCenter, address _transAddress, address collectionPointAddress_) {\n        sysowner = SystemOwner(owner, \"admin\", false);\n        sysOwnerMap[owner] = sysowner;\n        donorContract = DonorContract(_donorContractAddress);\n        medicalCenter = MedicalCenters(_medicalCenter);\n        transportContract = TransportContract(_transAddress);\n        collectionPoint = CollectionPointContract(collectionPointAddress_);\n    }\n\n    modifier onlyMedicalStaff() {\n        require(\n            medicalCenter.readMedicalCenter(msg.sender).MCPublicAddress == msg.sender,\n            \"Only medical staff can perform this action\"\n        );\n        _;\n    }\n\n    function checkSystemOwnerLogin(address _SYSPublicAddress, string memory _password) public view returns (bool) {\n        // require(!medicalsCenters[_MCPublicAddress].isLogin, \"You're already logged in\");\n        require(compareString(sysOwnerMap[_SYSPublicAddress].password, _password), \"Invalid address or password\");\n\n        return true;\n    }\n\n    function systemOwnerLogin(address _MCPublicAddress, string memory _password) public onlyOwner() {\n        require(checkSystemOwnerLogin(_MCPublicAddress, _password), \"Invalid login credentials\");\n\n        sysOwnerMap[_MCPublicAddress].isLogin = true;\n    }\n\n    // ---------------- Start Donation initialization ---------------------\n    function donateBloodToMedicalCenter(\n        address _medicalCenterPublicAddress,\n        address _donorPublicAddress,\n        uint256 _volume\n    ) public {\n        require(\n            donorContract.readDonors(_donorPublicAddress).isRegistered == true,\n            \"Please register donor first\"\n        );\n\n        uint256 transactionID = block.timestamp;\n        donationTransactions[_medicalCenterPublicAddress][transactionID] = DonationTransaction({\n            transactionID: transactionID,\n            donor: _donorPublicAddress,\n            recipient: address(0),\n            medicalStaff: msg.sender,\n            medicalCenterName: medicalCenter.readMedicalCenter(_medicalCenterPublicAddress).name,\n            transporter: address(0),\n            bloodType: donorContract.readDonors(_donorPublicAddress).bloodType,\n            donationDate: block.timestamp,\n            status: TransactionStatus.Shipped,\n            donatedVolume: _volume,\n            bloodTestResult: \"No Result\"\n        });\n        allDonationTransactions[transactionID] = DonationTransaction({\n            transactionID: transactionID,\n            donor: _donorPublicAddress,\n            recipient: address(0),\n            medicalStaff: msg.sender,\n            medicalCenterName: medicalCenter.readMedicalCenter(_medicalCenterPublicAddress).name,\n            transporter: address(0),\n            bloodType: donorContract.readDonors(_donorPublicAddress).bloodType,\n            donationDate: block.timestamp,\n            status: TransactionStatus.Shipped,\n            donatedVolume: _volume,\n            bloodTestResult: \"No Result\"\n        });\n        donorContract.updateVolume(_donorPublicAddress, _volume);\n        donationTransactionsArr.push(transactionID);\n\n        // Increment the transaction count\n        transactionCounter++;\n    }\n\n    function getDonationTransactionArr()\n        public\n        view\n        returns (uint256[] memory)\n    {\n        return donationTransactionsArr;\n    }\n\n    function getDonationTransaction(\n        address _medicalCenterPublicAddress,\n        uint256 _transactionID\n    )\n        public\n        view\n        returns (\n            uint256 transactionID,\n            address donorPublicAddress,\n            string memory donorName,\n            address recipientPublicAddress,\n            address medicalStaff,\n            string memory medicalCenterName,\n            address transporterPublicAddress,\n            string memory bloodType,\n            uint256 donationDate,\n            TransactionStatus status,\n            uint256 donatedVolume,\n            string memory bloodTestResult\n        )\n    {\n        DonationTransaction memory donationTransaction = donationTransactions[_medicalCenterPublicAddress][_transactionID];\n        transactionID = donationTransaction.transactionID;\n        donorPublicAddress = donationTransaction.donor;\n        donorName = donorContract.readDonors(donationTransaction.donor).name;\n        recipientPublicAddress = donationTransaction.recipient;\n        medicalStaff = donationTransaction.medicalStaff;\n        transporterPublicAddress = donationTransaction.transporter;\n        medicalCenterName = donationTransaction.medicalCenterName;\n        bloodType = donationTransaction.bloodType;\n        donationDate = donationTransaction.donationDate;\n        status = donationTransaction.status;\n        donatedVolume = donationTransaction.donatedVolume;\n        bloodTestResult = donationTransaction.bloodTestResult;\n    }\n\n    function getAllDonationTransaction(\n        uint256 _transactionID\n    )\n        public\n        view\n        returns (\n            uint256 transactionID,\n            address donorPublicAddress,\n            string memory donorName,\n            address recipientPublicAddress,\n            address medicalStaff,\n            string memory medicalCenterName,\n            address transporterPublicAddress,\n            string memory bloodType,\n            uint256 donationDate,\n            TransactionStatus status,\n            uint256 donatedVolume,\n            string memory bloodTestResult\n        )\n    {\n        DonationTransaction memory allDonationTransaction = allDonationTransactions[_transactionID];\n        transactionID = allDonationTransaction.transactionID;\n        donorPublicAddress = allDonationTransaction.donor;\n        donorName = donorContract.readDonors(allDonationTransaction.donor).name;\n        recipientPublicAddress = allDonationTransaction.recipient;\n        medicalStaff = allDonationTransaction.medicalStaff;\n        medicalCenterName = allDonationTransaction.medicalCenterName;\n        transporterPublicAddress = allDonationTransaction.transporter;\n        bloodType = allDonationTransaction.bloodType;\n        donationDate = allDonationTransaction.donationDate;\n        status = allDonationTransaction.status;\n        donatedVolume = allDonationTransaction.donatedVolume;\n        bloodTestResult = allDonationTransaction.bloodTestResult;\n    }\n\n    // ---------------- End Donation initialization ---------------------\n\n    // ---------------- Start Complete Donation  ------------------------\n\n    function completeDonationToMedicalCenter(\n        uint256 _transactionID,\n        string memory _bloodType,\n        uint256 _bloodPressure,\n        uint256 _hemoglobinLevel,\n        string memory _bloodTestResults\n    ) public onlyMedicalStaff {\n        require(\n            donationTransactions[msg.sender][_transactionID].status ==\n                TransactionStatus.Shipped,\n            \"Invalid transaction status\"\n        );\n        require(\n            donationTransactions[msg.sender][_transactionID].donor != address(0),\n            \"Invalid donor address\"\n        );\n\n        donationTransactions[msg.sender][_transactionID].medicalStaff = msg.sender;\n        donationTransactions[msg.sender][_transactionID].bloodType = _bloodType;\n        donationTransactions[msg.sender][_transactionID].status = TransactionStatus.Active;\n        donationTransactions[msg.sender][_transactionID].bloodTestResult = _bloodTestResults;\n        allDonationTransactions[_transactionID].medicalStaff = msg.sender;\n        allDonationTransactions[_transactionID].bloodType = _bloodType;\n        allDonationTransactions[_transactionID].status = TransactionStatus.Active;\n        allDonationTransactions[_transactionID].bloodTestResult = _bloodTestResults;\n        donorContract.updateDonorBloodType(donationTransactions[msg.sender][_transactionID].donor, _bloodType);\n        donorContract.updateDonationHistory(donationTransactions[msg.sender][_transactionID].donor, _transactionID);\n\n        uint256 recordID = block.timestamp;\n        medicalRecords[msg.sender][recordID] = MedicalRecord({\n            recordID: recordID,\n            transactionID: _transactionID,\n            donor: donationTransactions[msg.sender][_transactionID].donor,\n            bloodType: _bloodType,\n            medicalStaff: msg.sender,\n            bloodPressure: _bloodPressure,\n            hemoglobinLevel: _hemoglobinLevel,\n            bloodTestResults: _bloodTestResults\n            // donationHistory: new uint256[](0)\n        });\n        medicalRecordsArr.push(recordID);\n\n        // uint256 payment = calculatePayment(\n        //     donors[donationTransactions[_transactionID].donor].donatedVolume\n        // );\n        // uint256 payment = calculatePayment(_transactionID);\n        // donors[donationTransactions[_transactionID].donor]\n        //     .totalPayment += payment;\n        // payable(msg.sender).transfer(payment);\n    }\n\n    function fullFillBloodToRecipient(\n        uint256 _transactionID,\n        address _recipientAddress,\n        string memory _recipientName,\n        string memory _recipientPhoneNumber,\n        string memory _bloodType\n    ) public onlyMedicalStaff {\n        require(\n            donationTransactions[msg.sender][_transactionID].status ==\n                TransactionStatus.Active,\n            \"Invalid transaction status\"\n        );\n        require(compareString(donationTransactions[msg.sender][_transactionID].bloodTestResult, \"ACCEPTED\"), \"Invalid transaction status\");\n       /* require(\n            donationTransactions[msg.sender][_transactionID].donor != address(0),\n            \"Invalid donor address\"\n        ); */\n\n        donationTransactions[msg.sender][_transactionID].recipient = _recipientAddress;\n        donationTransactions[msg.sender][_transactionID].status = TransactionStatus.Fullfilled;\n        allDonationTransactions[_transactionID].recipient = _recipientAddress;\n        allDonationTransactions[_transactionID].status = TransactionStatus.Fullfilled;\n\n        uint256 recipientID = block.timestamp;\n        recipients[msg.sender][recipientID] = Recipient({\n            recipientID: recipientID,\n            transactionID: _transactionID,\n            recipientAddress: _recipientAddress,\n            recipientName: _recipientName,\n            recipientPhoneNumber: _recipientPhoneNumber,\n            bloodType: _bloodType\n        });\n\n        recipientArr.push(recipientID);\n    }\n\n    function getRecipientsArr()\n        public\n        view\n        returns (uint256[] memory)\n    {\n        return recipientArr;\n    }\n\n    function getRecipient(\n        address _medicalCenterAddress,\n        uint256 _recipientID\n    )\n        public\n        view\n        returns (\n            uint256 recipientID,\n            uint256 transactionID,\n            address recipientAddress,\n            string memory recipientName,\n            string memory recipientPhoneNumber,\n            string memory bloodType\n        )\n    {\n        Recipient memory recipient = recipients[_medicalCenterAddress][_recipientID];\n        recipientID = recipient.recipientID;\n        transactionID = recipient.transactionID;\n        recipientAddress = recipient.recipientAddress;\n        recipientName = recipient.recipientName;\n        recipientPhoneNumber = recipient.recipientPhoneNumber;\n        bloodType = recipient.bloodType;\n    }\n\n    function getMedicalRecordsArr()\n        public\n        view\n        returns (uint256[] memory)\n    {\n        return medicalRecordsArr;\n    }\n\n    function getMedicalRecord(\n        address _medicalCenterAddress,\n        uint256 _medicalRecordID\n    )\n        public\n        view\n        returns (\n            uint256 medicalRecordID,\n            uint256 transactionID,\n            address donorAddress,\n            string memory bloodType,\n            address medicalStaff,\n            uint256 bloodPressure,\n            uint256 hemoglobinLevel,\n            string memory bloodTestResult\n        )\n    {\n        MedicalRecord memory medicalRecord = medicalRecords[_medicalCenterAddress][\n            _medicalRecordID\n        ];\n        medicalRecordID = medicalRecord.recordID;\n        transactionID = medicalRecord.transactionID;\n        donorAddress = medicalRecord.donor;\n        bloodType = medicalRecord.bloodType;\n        medicalStaff = medicalRecord.medicalStaff;\n        bloodPressure = medicalRecord.bloodPressure;\n        hemoglobinLevel = medicalRecord.hemoglobinLevel;\n        bloodTestResult = medicalRecord.bloodTestResults;\n    }\n\n    // ---------------- End Complete Donation  ------------------------\n\n    /*function initiateTransportation(\n        address _medicalCenterPublicAddress,\n        uint256 _transactionID,\n        address _recipient\n        // string memory _medicalCenter\n    ) public {\n        require(\n            donationTransactions[_medicalCenterPublicAddress][_transactionID].status ==\n                TransactionStatus.Active,\n            \"Medical center process not Active\"\n        );\n\n        uint256 transactionID = block.timestamp;\n        address donorAddress_ = donationTransactions[_medicalCenterPublicAddress][_transactionID].donor;\n        donationTransactions[_medicalCenterPublicAddress][transactionID] = DonationTransaction({\n            transactionID: transactionID,\n            donor: donorAddress_,\n            recipient: _recipient,\n            medicalStaff: _medicalCenterPublicAddress,\n            medicalCenterName: donationTransactions[_medicalCenterPublicAddress][_transactionID].medicalCenterName,\n            transporter: msg.sender,\n            bloodType: donationTransactions[_medicalCenterPublicAddress][_transactionID].bloodType,\n            donationDate: donationTransactions[_medicalCenterPublicAddress][_transactionID].donationDate,\n            status: donationTransactions[_medicalCenterPublicAddress][_transactionID].status,\n            donatedVolume: donorContract.readDonors(donorAddress_).donatedVolume,\n            bloodTestResult: donationTransactions[_medicalCenterPublicAddress][_transactionID].bloodTestResult\n        });\n    }*/\n\n    /*function completeTransportation(\n        address _medicalCenterPublicAddress,\n        uint256 _recordID,\n        uint256 _transactionID\n    ) public {\n        // onlyTransporter\n        require(\n            transportationRecords[_recordID].status ==\n                TransportationStatus.InTransit,\n            \"Transportation already completed or not initiated\"\n        );\n        transportationRecords[_recordID].deliveryDateTime = block.timestamp;\n        transportationRecords[_recordID].status = TransportationStatus\n            .Delivered;\n        donationTransactions[_medicalCenterPublicAddress][_transactionID].transporter = msg.sender;\n    }*/\n\n    // function calculatePayment(\n    //     uint256 _transactionID\n    // ) internal view returns (uint256) {\n    //     require(\n    //         donationTransactions[_transactionID].status ==\n    //             TransactionStatus.Completed,\n    //         \"Transaction not completed\"\n    //     );\n    //     // Assuming a fixed payment rate for simplicity\n    //     uint256 _donatedVolume = donationTransactions[_transactionID]\n    //         .donatedVolume;\n    //     uint256 paymentRate = 1 gwei; // 1gwei/ml\n    //     return _donatedVolume * paymentRate;\n    // }\n\n    function RequestBloodSupply(uint256 transactionID_, address medicalCenterPublicAddress_ ) public {\n\n    }\n\n    function ApprovalBloodSupplied(uint256 transactionID_, address medicalCenterPublicAddress_, address transporterAddress_ ) public {\n\n    }\n\n}\n",
  "sourcePath": "/home/temba/Desktop/blood-donation-blockchain-system/client-side/contracts/BloodDonationBlockchainSystem.sol",
  "compiler": {
    "name": "solc",
    "version": "0.8.19+commit.7dd6d404.Emscripten.clang"
  },
  "schemaVersion": "3.4.16",
  "updatedAt": "2024-03-17T11:55:43.791Z",
  "networkType": "ethereum",
  "devdoc": {
    "author": "Josephat E. Temba",
    "custom:fyp": "This is the final year project for cive students",
    "details": "This is best aproach for developers to learn how real dapp looking for",
    "kind": "dev",
    "methods": {},
    "title": "Blood Donation Blockchain-based System",
    "version": 1
  },
  "userdoc": {
    "kind": "user",
    "methods": {},
    "notice": "You can use this smart contract in real blood donation operations",
    "version": 1
  }
}