{
  "contractName": "BloodDonationBlockchainSystem",
  "abi": [
    {
      "inputs": [
        {
          "internalType": "address",
          "name": "_donorContractAddress",
          "type": "address"
        },
        {
          "internalType": "address",
          "name": "_medicalCenter",
          "type": "address"
        },
        {
          "internalType": "address",
          "name": "_transAddress",
          "type": "address"
        }
      ],
      "stateMutability": "nonpayable",
      "type": "constructor"
    },
    {
      "inputs": [
        {
          "internalType": "string",
          "name": "",
          "type": "string"
        }
      ],
      "name": "bloodSupplies",
      "outputs": [
        {
          "internalType": "string",
          "name": "bloodType",
          "type": "string"
        },
        {
          "internalType": "uint256",
          "name": "volume",
          "type": "uint256"
        },
        {
          "internalType": "enum BloodDonationBlockchainSystem.BloodSupplyStatus",
          "name": "status",
          "type": "uint8"
        }
      ],
      "stateMutability": "view",
      "type": "function",
      "constant": true
    },
    {
      "inputs": [
        {
          "internalType": "address",
          "name": "",
          "type": "address"
        },
        {
          "internalType": "uint256",
          "name": "",
          "type": "uint256"
        }
      ],
      "name": "donationTransactions",
      "outputs": [
        {
          "internalType": "uint256",
          "name": "transactionID",
          "type": "uint256"
        },
        {
          "internalType": "address",
          "name": "donor",
          "type": "address"
        },
        {
          "internalType": "address",
          "name": "recipient",
          "type": "address"
        },
        {
          "internalType": "address",
          "name": "medicalStaff",
          "type": "address"
        },
        {
          "internalType": "address",
          "name": "transporter",
          "type": "address"
        },
        {
          "internalType": "string",
          "name": "bloodType",
          "type": "string"
        },
        {
          "internalType": "uint256",
          "name": "donationDate",
          "type": "uint256"
        },
        {
          "internalType": "enum BloodDonationBlockchainSystem.TransactionStatus",
          "name": "status",
          "type": "uint8"
        },
        {
          "internalType": "uint256",
          "name": "donatedVolume",
          "type": "uint256"
        },
        {
          "internalType": "string",
          "name": "bloodTestResult",
          "type": "string"
        }
      ],
      "stateMutability": "view",
      "type": "function",
      "constant": true
    },
    {
      "inputs": [
        {
          "internalType": "uint256",
          "name": "",
          "type": "uint256"
        }
      ],
      "name": "donationTransactionsArr",
      "outputs": [
        {
          "internalType": "uint256",
          "name": "",
          "type": "uint256"
        }
      ],
      "stateMutability": "view",
      "type": "function",
      "constant": true
    },
    {
      "inputs": [],
      "name": "donorContract",
      "outputs": [
        {
          "internalType": "contract DonorContract",
          "name": "",
          "type": "address"
        }
      ],
      "stateMutability": "view",
      "type": "function",
      "constant": true
    },
    {
      "inputs": [],
      "name": "medicalCenter",
      "outputs": [
        {
          "internalType": "contract MedicalCenters",
          "name": "",
          "type": "address"
        }
      ],
      "stateMutability": "view",
      "type": "function",
      "constant": true
    },
    {
      "inputs": [
        {
          "internalType": "address",
          "name": "",
          "type": "address"
        },
        {
          "internalType": "uint256",
          "name": "",
          "type": "uint256"
        }
      ],
      "name": "medicalRecords",
      "outputs": [
        {
          "internalType": "uint256",
          "name": "recordID",
          "type": "uint256"
        },
        {
          "internalType": "uint256",
          "name": "transactionID",
          "type": "uint256"
        },
        {
          "internalType": "address",
          "name": "donor",
          "type": "address"
        },
        {
          "internalType": "address",
          "name": "medicalStaff",
          "type": "address"
        },
        {
          "internalType": "string",
          "name": "bloodType",
          "type": "string"
        },
        {
          "internalType": "uint256",
          "name": "bloodPressure",
          "type": "uint256"
        },
        {
          "internalType": "uint256",
          "name": "hemoglobinLevel",
          "type": "uint256"
        },
        {
          "internalType": "string",
          "name": "bloodTestResults",
          "type": "string"
        }
      ],
      "stateMutability": "view",
      "type": "function",
      "constant": true
    },
    {
      "inputs": [
        {
          "internalType": "uint256",
          "name": "",
          "type": "uint256"
        }
      ],
      "name": "medicalRecordsArr",
      "outputs": [
        {
          "internalType": "uint256",
          "name": "",
          "type": "uint256"
        }
      ],
      "stateMutability": "view",
      "type": "function",
      "constant": true
    },
    {
      "inputs": [],
      "name": "recordCounter",
      "outputs": [
        {
          "internalType": "uint256",
          "name": "",
          "type": "uint256"
        }
      ],
      "stateMutability": "view",
      "type": "function",
      "constant": true
    },
    {
      "inputs": [],
      "name": "transactionCounter",
      "outputs": [
        {
          "internalType": "uint256",
          "name": "",
          "type": "uint256"
        }
      ],
      "stateMutability": "view",
      "type": "function",
      "constant": true
    },
    {
      "inputs": [],
      "name": "transportContract",
      "outputs": [
        {
          "internalType": "contract TransportContract",
          "name": "",
          "type": "address"
        }
      ],
      "stateMutability": "view",
      "type": "function",
      "constant": true
    },
    {
      "inputs": [
        {
          "internalType": "uint256",
          "name": "",
          "type": "uint256"
        }
      ],
      "name": "transportationRecords",
      "outputs": [
        {
          "internalType": "uint256",
          "name": "recordID",
          "type": "uint256"
        },
        {
          "internalType": "address",
          "name": "transporter",
          "type": "address"
        },
        {
          "internalType": "address",
          "name": "donor",
          "type": "address"
        },
        {
          "internalType": "address",
          "name": "recipient",
          "type": "address"
        },
        {
          "internalType": "uint256",
          "name": "pickupDateTime",
          "type": "uint256"
        },
        {
          "internalType": "uint256",
          "name": "deliveryDateTime",
          "type": "uint256"
        },
        {
          "internalType": "enum BloodDonationBlockchainSystem.TransportationStatus",
          "name": "status",
          "type": "uint8"
        }
      ],
      "stateMutability": "view",
      "type": "function",
      "constant": true
    },
    {
      "inputs": [
        {
          "internalType": "address",
          "name": "_SYSPublicAddress",
          "type": "address"
        },
        {
          "internalType": "string",
          "name": "_password",
          "type": "string"
        }
      ],
      "name": "checkSystemOwnerLogin",
      "outputs": [
        {
          "internalType": "bool",
          "name": "",
          "type": "bool"
        }
      ],
      "stateMutability": "view",
      "type": "function",
      "constant": true
    },
    {
      "inputs": [
        {
          "internalType": "address",
          "name": "_MCPublicAddress",
          "type": "address"
        },
        {
          "internalType": "string",
          "name": "_password",
          "type": "string"
        }
      ],
      "name": "systemOwnerLogin",
      "outputs": [],
      "stateMutability": "nonpayable",
      "type": "function"
    },
    {
      "inputs": [
        {
          "internalType": "address",
          "name": "_medicalCenterPublicAddress",
          "type": "address"
        },
        {
          "internalType": "address",
          "name": "_donorPublicAddress",
          "type": "address"
        },
        {
          "internalType": "uint256",
          "name": "_volume",
          "type": "uint256"
        }
      ],
      "name": "donateBloodToMedicalCenter",
      "outputs": [],
      "stateMutability": "nonpayable",
      "type": "function"
    },
    {
      "inputs": [],
      "name": "getDonationTransactionArr",
      "outputs": [
        {
          "internalType": "uint256[]",
          "name": "",
          "type": "uint256[]"
        }
      ],
      "stateMutability": "view",
      "type": "function",
      "constant": true
    },
    {
      "inputs": [
        {
          "internalType": "address",
          "name": "_medicalCenterPublicAddress",
          "type": "address"
        },
        {
          "internalType": "uint256",
          "name": "_transactionID",
          "type": "uint256"
        }
      ],
      "name": "getDonationTransaction",
      "outputs": [
        {
          "internalType": "uint256",
          "name": "transactionID",
          "type": "uint256"
        },
        {
          "internalType": "address",
          "name": "donorPublicAddress",
          "type": "address"
        },
        {
          "internalType": "address",
          "name": "recipientPublicAddress",
          "type": "address"
        },
        {
          "internalType": "address",
          "name": "transporterPublicAddress",
          "type": "address"
        },
        {
          "internalType": "string",
          "name": "bloodType",
          "type": "string"
        },
        {
          "internalType": "uint256",
          "name": "donationDate",
          "type": "uint256"
        },
        {
          "internalType": "enum BloodDonationBlockchainSystem.TransactionStatus",
          "name": "status",
          "type": "uint8"
        },
        {
          "internalType": "uint256",
          "name": "donatedVolume",
          "type": "uint256"
        },
        {
          "internalType": "string",
          "name": "bloodTestResult",
          "type": "string"
        }
      ],
      "stateMutability": "view",
      "type": "function",
      "constant": true
    },
    {
      "inputs": [
        {
          "internalType": "uint256",
          "name": "_transactionID",
          "type": "uint256"
        },
        {
          "internalType": "string",
          "name": "_bloodType",
          "type": "string"
        },
        {
          "internalType": "uint256",
          "name": "_bloodPressure",
          "type": "uint256"
        },
        {
          "internalType": "uint256",
          "name": "_hemoglobinLevel",
          "type": "uint256"
        },
        {
          "internalType": "string",
          "name": "_bloodTestResults",
          "type": "string"
        }
      ],
      "name": "completeDonationToMedicalCenter",
      "outputs": [],
      "stateMutability": "nonpayable",
      "type": "function"
    },
    {
      "inputs": [],
      "name": "getMedicalRecordsArr",
      "outputs": [
        {
          "internalType": "uint256[]",
          "name": "",
          "type": "uint256[]"
        }
      ],
      "stateMutability": "view",
      "type": "function",
      "constant": true
    },
    {
      "inputs": [
        {
          "internalType": "address",
          "name": "_medicalCenterAddress",
          "type": "address"
        },
        {
          "internalType": "uint256",
          "name": "_medicalRecordID",
          "type": "uint256"
        }
      ],
      "name": "getMedicalRecord",
      "outputs": [
        {
          "internalType": "uint256",
          "name": "medicalRecordID",
          "type": "uint256"
        },
        {
          "internalType": "uint256",
          "name": "transactionID",
          "type": "uint256"
        },
        {
          "internalType": "address",
          "name": "donorAddress",
          "type": "address"
        },
        {
          "internalType": "string",
          "name": "bloodType",
          "type": "string"
        },
        {
          "internalType": "address",
          "name": "medicalStaff",
          "type": "address"
        },
        {
          "internalType": "uint256",
          "name": "bloodPressure",
          "type": "uint256"
        },
        {
          "internalType": "uint256",
          "name": "hemoglobinLevel",
          "type": "uint256"
        },
        {
          "internalType": "string",
          "name": "bloodTestResult",
          "type": "string"
        }
      ],
      "stateMutability": "view",
      "type": "function",
      "constant": true
    },
    {
      "inputs": [
        {
          "internalType": "address",
          "name": "_medicalCenterPublicAddress",
          "type": "address"
        },
        {
          "internalType": "uint256",
          "name": "_transactionID",
          "type": "uint256"
        },
        {
          "internalType": "address",
          "name": "_recipient",
          "type": "address"
        }
      ],
      "name": "initiateTransportation",
      "outputs": [],
      "stateMutability": "nonpayable",
      "type": "function"
    },
    {
      "inputs": [
        {
          "internalType": "address",
          "name": "_medicalCenterPublicAddress",
          "type": "address"
        },
        {
          "internalType": "uint256",
          "name": "_recordID",
          "type": "uint256"
        },
        {
          "internalType": "uint256",
          "name": "_transactionID",
          "type": "uint256"
        }
      ],
      "name": "completeTransportation",
      "outputs": [],
      "stateMutability": "nonpayable",
      "type": "function"
    }
  ],
  "bytecode": "0x60a06040523480156200001157600080fd5b5060405162004b2d38038062004b2d833981810160405281019062000037919062000380565b3373ffffffffffffffffffffffffffffffffffffffff1660808173ffffffffffffffffffffffffffffffffffffffff1681525050604051806060016040528060805173ffffffffffffffffffffffffffffffffffffffff1681526020016040518060400160405280600581526020017f61646d696e000000000000000000000000000000000000000000000000000000815250815260200160001515815250600960008201518160000160006101000a81548173ffffffffffffffffffffffffffffffffffffffff021916908373ffffffffffffffffffffffffffffffffffffffff160217905550602082015181600101908162000136919062000656565b5060408201518160020160006101000a81548160ff021916908315150217905550905050600960008060805173ffffffffffffffffffffffffffffffffffffffff1673ffffffffffffffffffffffffffffffffffffffff1681526020019081526020016000206000820160009054906101000a900473ffffffffffffffffffffffffffffffffffffffff168160000160006101000a81548173ffffffffffffffffffffffffffffffffffffffff021916908373ffffffffffffffffffffffffffffffffffffffff1602179055506001820181600101908162000219919062000755565b506002820160009054906101000a900460ff168160020160006101000a81548160ff02191690831515021790555090505082600c60006101000a81548173ffffffffffffffffffffffffffffffffffffffff021916908373ffffffffffffffffffffffffffffffffffffffff16021790555081600d60006101000a81548173ffffffffffffffffffffffffffffffffffffffff021916908373ffffffffffffffffffffffffffffffffffffffff16021790555080600e60006101000a81548173ffffffffffffffffffffffffffffffffffffffff021916908373ffffffffffffffffffffffffffffffffffffffff16021790555050505062000856565b600080fd5b600073ffffffffffffffffffffffffffffffffffffffff82169050919050565b600062000348826200031b565b9050919050565b6200035a816200033b565b81146200036657600080fd5b50565b6000815190506200037a816200034f565b92915050565b6000806000606084860312156200039c576200039b62000316565b5b6000620003ac8682870162000369565b9350506020620003bf8682870162000369565b9250506040620003d28682870162000369565b9150509250925092565b600081519050919050565b7f4e487b7100000000000000000000000000000000000000000000000000000000600052604160045260246000fd5b7f4e487b7100000000000000000000000000000000000000000000000000000000600052602260045260246000fd5b600060028204905060018216806200045e57607f821691505b60208210810362000474576200047362000416565b5b50919050565b60008190508160005260206000209050919050565b60006020601f8301049050919050565b600082821b905092915050565b600060088302620004de7fffffffffffffffffffffffffffffffffffffffffffffffffffffffffffffffff826200049f565b620004ea86836200049f565b95508019841693508086168417925050509392505050565b6000819050919050565b6000819050919050565b600062000537620005316200052b8462000502565b6200050c565b62000502565b9050919050565b6000819050919050565b620005538362000516565b6200056b62000562826200053e565b848454620004ac565b825550505050565b600090565b6200058262000573565b6200058f81848462000548565b505050565b5b81811015620005b757620005ab60008262000578565b60018101905062000595565b5050565b601f8211156200060657620005d0816200047a565b620005db846200048f565b81016020851015620005eb578190505b62000603620005fa856200048f565b83018262000594565b50505b505050565b600082821c905092915050565b60006200062b600019846008026200060b565b1980831691505092915050565b600062000646838362000618565b9150826002028217905092915050565b6200066182620003dc565b67ffffffffffffffff8111156200067d576200067c620003e7565b5b62000689825462000445565b62000696828285620005bb565b600060209050601f831160018114620006ce5760008415620006b9578287015190505b620006c5858262000638565b86555062000735565b601f198416620006de866200047a565b60005b828110156200070857848901518255600182019150602085019450602081019050620006e1565b8683101562000728578489015162000724601f89168262000618565b8355505b6001600288020188555050505b505050505050565b6000815490506200074e8162000445565b9050919050565b8181036200076557505062000854565b62000770826200073d565b67ffffffffffffffff8111156200078c576200078b620003e7565b5b62000798825462000445565b620007a5828285620005bb565b6000601f831160018114620007d95760008415620007c4578287015490505b620007d0858262000638565b8655506200084d565b601f198416620007e9876200047a565b9650620007f6866200047a565b60005b828110156200082057848901548255600182019150600185019450602081019050620007f9565b868310156200084057848901546200083c601f89168262000618565b8355505b6001600288020188555050505b5050505050505b565b6080516142bb62000872600039600061170901526142bb6000f3fe608060405234801561001057600080fd5b50600436106101375760003560e01c80637fe52fa3116100b8578063cfc097011161007c578063cfc09701146103aa578063d04398d6146103c6578063d59be68d146103e4578063e14ec6ec14610402578063eea9c37b1461041e578063ef0aa4e61461045557610137565b80637fe52fa3146102b757806397678a03146102ef5780639c1bc07b14610326578063a906a9a414610358578063c02b9f5a1461037457610137565b806337d98175116100ff57806337d98175146101f657806338379b4d1461022f57806344d38d701461024b5780636cd327e01461027b5780637599be5d1461029957610137565b806308a990081461013c5780630c7a538f1461016c57806311e1c24a1461019c57806314e887e8146101ba57806322d95e0a146101d8575b600080fd5b61015660048036038101906101519190612a1a565b610471565b6040516101639190612a56565b60405180910390f35b61018660048036038101906101819190612c15565b610495565b6040516101939190612c8c565b60405180910390f35b6101a46105b3565b6040516101b19190612d06565b60405180910390f35b6101c26105d9565b6040516101cf9190612a56565b60405180910390f35b6101e06105df565b6040516101ed9190612d42565b60405180910390f35b610210600480360381019061020b9190612d5d565b610605565b6040516102269a99989796959493929190612ea2565b60405180910390f35b61024960048036038101906102449190612f4c565b610803565b005b61026560048036038101906102609190612a1a565b61097e565b6040516102729190612a56565b60405180910390f35b6102836109a2565b604051610290919061305d565b60405180910390f35b6102a16109fa565b6040516102ae9190612a56565b60405180910390f35b6102d160048036038101906102cc9190612d5d565b610a00565b6040516102e69998979695949392919061307f565b60405180910390f35b61030960048036038101906103049190612d5d565b610d93565b60405161031d98979695949392919061311a565b60405180910390f35b610340600480360381019061033b91906131a6565b610f38565b60405161034f93929190613237565b60405180910390f35b610372600480360381019061036d9190613275565b61100d565b005b61038e60048036038101906103899190612a1a565b611658565b6040516103a19796959493929190613310565b60405180910390f35b6103c460048036038101906103bf9190612c15565b611707565b005b6103ce61183c565b6040516103db919061305d565b60405180910390f35b6103ec611894565b6040516103f991906133a0565b60405180910390f35b61041c600480360381019061041791906133bb565b6118ba565b005b61043860048036038101906104339190612d5d565b611df8565b60405161044c98979695949392919061340e565b60405180910390f35b61046f600480360381019061046a919061349a565b6120a4565b005b6006818154811061048157600080fd5b906000526020600020016000915090505481565b600061056a6000808573ffffffffffffffffffffffffffffffffffffffff1673ffffffffffffffffffffffffffffffffffffffff16815260200190815260200160002060010180546104e69061357c565b80601f01602080910402602001604051908101604052809291908181526020018280546105129061357c565b801561055f5780601f106105345761010080835404028352916020019161055f565b820191906000526020600020905b81548152906001019060200180831161054257829003601f168201915b505050505083612977565b6105a9576040517f08c379a00000000000000000000000000000000000000000000000000000000081526004016105a0906135f9565b60405180910390fd5b6001905092915050565b600c60009054906101000a900473ffffffffffffffffffffffffffffffffffffffff1681565b60075481565b600e60009054906101000a900473ffffffffffffffffffffffffffffffffffffffff1681565b6002602052816000526040600020602052806000526040600020600091509150508060000154908060010160009054906101000a900473ffffffffffffffffffffffffffffffffffffffff16908060020160009054906101000a900473ffffffffffffffffffffffffffffffffffffffff16908060030160009054906101000a900473ffffffffffffffffffffffffffffffffffffffff16908060040160009054906101000a900473ffffffffffffffffffffffffffffffffffffffff16908060050180546106d39061357c565b80601f01602080910402602001604051908101604052809291908181526020018280546106ff9061357c565b801561074c5780601f106107215761010080835404028352916020019161074c565b820191906000526020600020905b81548152906001019060200180831161072f57829003601f168201915b5050505050908060060154908060070160009054906101000a900460ff16908060080154908060090180546107809061357c565b80601f01602080910402602001604051908101604052809291908181526020018280546107ac9061357c565b80156107f95780601f106107ce576101008083540402835291602001916107f9565b820191906000526020600020905b8154815290600101906020018083116107dc57829003601f168201915b505050505090508a565b6000600181111561081757610816612e2b565b5b6003600084815260200190815260200160002060060160009054906101000a900460ff16600181111561084d5761084c612e2b565b5b1461088d576040517f08c379a00000000000000000000000000000000000000000000000000000000081526004016108849061368b565b60405180910390fd5b42600360008481526020019081526020016000206005018190555060016003600084815260200190815260200160002060060160006101000a81548160ff021916908360018111156108e2576108e1612e2b565b5b021790555033600260008573ffffffffffffffffffffffffffffffffffffffff1673ffffffffffffffffffffffffffffffffffffffff168152602001908152602001600020600083815260200190815260200160002060040160006101000a81548173ffffffffffffffffffffffffffffffffffffffff021916908373ffffffffffffffffffffffffffffffffffffffff160217905550505050565b6005818154811061098e57600080fd5b906000526020600020016000915090505481565b606060068054806020026020016040519081016040528092919081815260200182805480156109f057602002820191906000526020600020905b8154815260200190600101908083116109dc575b5050505050905090565b60085481565b6000806000806060600080600060606000600260008d73ffffffffffffffffffffffffffffffffffffffff1673ffffffffffffffffffffffffffffffffffffffff16815260200190815260200160002060008c815260200190815260200160002060405180610140016040529081600082015481526020016001820160009054906101000a900473ffffffffffffffffffffffffffffffffffffffff1673ffffffffffffffffffffffffffffffffffffffff1673ffffffffffffffffffffffffffffffffffffffff1681526020016002820160009054906101000a900473ffffffffffffffffffffffffffffffffffffffff1673ffffffffffffffffffffffffffffffffffffffff1673ffffffffffffffffffffffffffffffffffffffff1681526020016003820160009054906101000a900473ffffffffffffffffffffffffffffffffffffffff1673ffffffffffffffffffffffffffffffffffffffff1673ffffffffffffffffffffffffffffffffffffffff1681526020016004820160009054906101000a900473ffffffffffffffffffffffffffffffffffffffff1673ffffffffffffffffffffffffffffffffffffffff1673ffffffffffffffffffffffffffffffffffffffff168152602001600582018054610bdf9061357c565b80601f0160208091040260200160405190810160405280929190818152602001828054610c0b9061357c565b8015610c585780601f10610c2d57610100808354040283529160200191610c58565b820191906000526020600020905b815481529060010190602001808311610c3b57829003601f168201915b50505050508152602001600682015481526020016007820160009054906101000a900460ff166002811115610c9057610c8f612e2b565b5b6002811115610ca257610ca1612e2b565b5b815260200160088201548152602001600982018054610cc09061357c565b80601f0160208091040260200160405190810160405280929190818152602001828054610cec9061357c565b8015610d395780601f10610d0e57610100808354040283529160200191610d39565b820191906000526020600020905b815481529060010190602001808311610d1c57829003601f168201915b5050505050815250509050806000015199508060200151985080604001519750806080015196508060a0015195508060c0015194508060e00151935080610100015192508061012001519150509295985092959850929598565b6001602052816000526040600020602052806000526040600020600091509150508060000154908060010154908060020160009054906101000a900473ffffffffffffffffffffffffffffffffffffffff16908060030160009054906101000a900473ffffffffffffffffffffffffffffffffffffffff1690806004018054610e1b9061357c565b80601f0160208091040260200160405190810160405280929190818152602001828054610e479061357c565b8015610e945780601f10610e6957610100808354040283529160200191610e94565b820191906000526020600020905b815481529060010190602001808311610e7757829003601f168201915b505050505090806005015490806006015490806007018054610eb59061357c565b80601f0160208091040260200160405190810160405280929190818152602001828054610ee19061357c565b8015610f2e5780601f10610f0357610100808354040283529160200191610f2e565b820191906000526020600020905b815481529060010190602001808311610f1157829003601f168201915b5050505050905088565b600481805160208101820180518482526020830160208501208183528095505050505050600091509050806000018054610f719061357c565b80601f0160208091040260200160405190810160405280929190818152602001828054610f9d9061357c565b8015610fea5780601f10610fbf57610100808354040283529160200191610fea565b820191906000526020600020905b815481529060010190602001808311610fcd57829003601f168201915b5050505050908060010154908060020160009054906101000a900460ff16905083565b6001600281111561102157611020612e2b565b5b600260008573ffffffffffffffffffffffffffffffffffffffff1673ffffffffffffffffffffffffffffffffffffffff168152602001908152602001600020600084815260200190815260200160002060070160009054906101000a900460ff16600281111561109457611093612e2b565b5b146110d4576040517f08c379a00000000000000000000000000000000000000000000000000000000081526004016110cb9061371d565b60405180910390fd5b6000429050604051806101400160405280828152602001600260008773ffffffffffffffffffffffffffffffffffffffff1673ffffffffffffffffffffffffffffffffffffffff168152602001908152602001600020600086815260200190815260200160002060010160009054906101000a900473ffffffffffffffffffffffffffffffffffffffff1673ffffffffffffffffffffffffffffffffffffffff1681526020018373ffffffffffffffffffffffffffffffffffffffff1681526020013373ffffffffffffffffffffffffffffffffffffffff1681526020013373ffffffffffffffffffffffffffffffffffffffff168152602001600260008773ffffffffffffffffffffffffffffffffffffffff1673ffffffffffffffffffffffffffffffffffffffff1681526020019081526020016000206000868152602001908152602001600020600501805461122c9061357c565b80601f01602080910402602001604051908101604052809291908181526020018280546112589061357c565b80156112a55780601f1061127a576101008083540402835291602001916112a5565b820191906000526020600020905b81548152906001019060200180831161128857829003601f168201915b50505050508152602001600260008773ffffffffffffffffffffffffffffffffffffffff1673ffffffffffffffffffffffffffffffffffffffff1681526020019081526020016000206000868152602001908152602001600020600601548152602001600260008773ffffffffffffffffffffffffffffffffffffffff1673ffffffffffffffffffffffffffffffffffffffff168152602001908152602001600020600086815260200190815260200160002060070160009054906101000a900460ff16600281111561137b5761137a612e2b565b5b815260200161012c8152602001600260008773ffffffffffffffffffffffffffffffffffffffff1673ffffffffffffffffffffffffffffffffffffffff168152602001908152602001600020600086815260200190815260200160002060090180546113e69061357c565b80601f01602080910402602001604051908101604052809291908181526020018280546114129061357c565b801561145f5780601f106114345761010080835404028352916020019161145f565b820191906000526020600020905b81548152906001019060200180831161144257829003601f168201915b5050505050815250600260008673ffffffffffffffffffffffffffffffffffffffff1673ffffffffffffffffffffffffffffffffffffffff16815260200190815260200160002060008381526020019081526020016000206000820151816000015560208201518160010160006101000a81548173ffffffffffffffffffffffffffffffffffffffff021916908373ffffffffffffffffffffffffffffffffffffffff16021790555060408201518160020160006101000a81548173ffffffffffffffffffffffffffffffffffffffff021916908373ffffffffffffffffffffffffffffffffffffffff16021790555060608201518160030160006101000a81548173ffffffffffffffffffffffffffffffffffffffff021916908373ffffffffffffffffffffffffffffffffffffffff16021790555060808201518160040160006101000a81548173ffffffffffffffffffffffffffffffffffffffff021916908373ffffffffffffffffffffffffffffffffffffffff16021790555060a08201518160050190816115f291906138df565b5060c0820151816006015560e08201518160070160006101000a81548160ff0219169083600281111561162857611627612e2b565b5b0217905550610100820151816008015561012082015181600901908161164e91906138df565b5090505050505050565b60036020528060005260406000206000915090508060000154908060010160009054906101000a900473ffffffffffffffffffffffffffffffffffffffff16908060020160009054906101000a900473ffffffffffffffffffffffffffffffffffffffff16908060030160009054906101000a900473ffffffffffffffffffffffffffffffffffffffff16908060040154908060050154908060060160009054906101000a900460ff16905087565b7f000000000000000000000000000000000000000000000000000000000000000073ffffffffffffffffffffffffffffffffffffffff163373ffffffffffffffffffffffffffffffffffffffff1614611795576040517f08c379a000000000000000000000000000000000000000000000000000000000815260040161178c906139fd565b60405180910390fd5b61179f8282610495565b6117de576040517f08c379a00000000000000000000000000000000000000000000000000000000081526004016117d590613a69565b60405180910390fd5b60016000808473ffffffffffffffffffffffffffffffffffffffff1673ffffffffffffffffffffffffffffffffffffffff16815260200190815260200160002060020160006101000a81548160ff0219169083151502179055505050565b6060600580548060200260200160405190810160405280929190818152602001828054801561188a57602002820191906000526020600020905b815481526020019060010190808311611876575b5050505050905090565b600d60009054906101000a900473ffffffffffffffffffffffffffffffffffffffff1681565b60011515600c60009054906101000a900473ffffffffffffffffffffffffffffffffffffffff1673ffffffffffffffffffffffffffffffffffffffff1663be3a9028846040518263ffffffff1660e01b81526004016119199190613a89565b600060405180830381865afa158015611936573d6000803e3d6000fd5b505050506040513d6000823e3d601f19601f8201168201806040525081019061195f9190613e06565b61012001511515146119a6576040517f08c379a000000000000000000000000000000000000000000000000000000000815260040161199d90613e9b565b60405180910390fd5b60004290506040518061014001604052808281526020018473ffffffffffffffffffffffffffffffffffffffff168152602001600073ffffffffffffffffffffffffffffffffffffffff1681526020013373ffffffffffffffffffffffffffffffffffffffff168152602001600073ffffffffffffffffffffffffffffffffffffffff168152602001600c60009054906101000a900473ffffffffffffffffffffffffffffffffffffffff1673ffffffffffffffffffffffffffffffffffffffff1663be3a9028866040518263ffffffff1660e01b8152600401611a8a9190613a89565b600060405180830381865afa158015611aa7573d6000803e3d6000fd5b505050506040513d6000823e3d601f19601f82011682018060405250810190611ad09190613e06565b60800151815260200142815260200160006002811115611af357611af2612e2b565b5b81526020018381526020016040518060400160405280600981526020017f4e6f20526573756c740000000000000000000000000000000000000000000000815250815250600260008673ffffffffffffffffffffffffffffffffffffffff1673ffffffffffffffffffffffffffffffffffffffff16815260200190815260200160002060008381526020019081526020016000206000820151816000015560208201518160010160006101000a81548173ffffffffffffffffffffffffffffffffffffffff021916908373ffffffffffffffffffffffffffffffffffffffff16021790555060408201518160020160006101000a81548173ffffffffffffffffffffffffffffffffffffffff021916908373ffffffffffffffffffffffffffffffffffffffff16021790555060608201518160030160006101000a81548173ffffffffffffffffffffffffffffffffffffffff021916908373ffffffffffffffffffffffffffffffffffffffff16021790555060808201518160040160006101000a81548173ffffffffffffffffffffffffffffffffffffffff021916908373ffffffffffffffffffffffffffffffffffffffff16021790555060a0820151816005019081611cc291906138df565b5060c0820151816006015560e08201518160070160006101000a81548160ff02191690836002811115611cf857611cf7612e2b565b5b02179055506101008201518160080155610120820151816009019081611d1e91906138df565b50905050600c60009054906101000a900473ffffffffffffffffffffffffffffffffffffffff1673ffffffffffffffffffffffffffffffffffffffff166302c7739b84846040518363ffffffff1660e01b8152600401611d7f929190613ebb565b600060405180830381600087803b158015611d9957600080fd5b505af1158015611dad573d6000803e3d6000fd5b50505050600581908060018154018082558091505060019003906000526020600020016000909190919091505560076000815480929190611ded90613f13565b919050555050505050565b60008060006060600080600060606000600160008c73ffffffffffffffffffffffffffffffffffffffff1673ffffffffffffffffffffffffffffffffffffffff16815260200190815260200160002060008b81526020019081526020016000206040518061010001604052908160008201548152602001600182015481526020016002820160009054906101000a900473ffffffffffffffffffffffffffffffffffffffff1673ffffffffffffffffffffffffffffffffffffffff1673ffffffffffffffffffffffffffffffffffffffff1681526020016003820160009054906101000a900473ffffffffffffffffffffffffffffffffffffffff1673ffffffffffffffffffffffffffffffffffffffff1673ffffffffffffffffffffffffffffffffffffffff168152602001600482018054611f349061357c565b80601f0160208091040260200160405190810160405280929190818152602001828054611f609061357c565b8015611fad5780601f10611f8257610100808354040283529160200191611fad565b820191906000526020600020905b815481529060010190602001808311611f9057829003601f168201915b505050505081526020016005820154815260200160068201548152602001600782018054611fda9061357c565b80601f01602080910402602001604051908101604052809291908181526020018280546120069061357c565b80156120535780601f1061202857610100808354040283529160200191612053565b820191906000526020600020905b81548152906001019060200180831161203657829003601f168201915b505050505081525050905080600001519850806020015197508060400151965080608001519550806060015194508060a0015193508060c0015192508060e001519150509295985092959890939650565b3373ffffffffffffffffffffffffffffffffffffffff16600d60009054906101000a900473ffffffffffffffffffffffffffffffffffffffff1673ffffffffffffffffffffffffffffffffffffffff1663244723b1336040518263ffffffff1660e01b81526004016121169190613a89565b600060405180830381865afa158015612133573d6000803e3d6000fd5b505050506040513d6000823e3d601f19601f8201168201806040525081019061215c919061404f565b6000015173ffffffffffffffffffffffffffffffffffffffff16146121b6576040517f08c379a00000000000000000000000000000000000000000000000000000000081526004016121ad9061410a565b60405180910390fd5b600060028111156121ca576121c9612e2b565b5b600260003373ffffffffffffffffffffffffffffffffffffffff1673ffffffffffffffffffffffffffffffffffffffff168152602001908152602001600020600087815260200190815260200160002060070160009054906101000a900460ff16600281111561223d5761223c612e2b565b5b1461227d576040517f08c379a000000000000000000000000000000000000000000000000000000000815260040161227490614176565b60405180910390fd5b600073ffffffffffffffffffffffffffffffffffffffff16600260003373ffffffffffffffffffffffffffffffffffffffff1673ffffffffffffffffffffffffffffffffffffffff168152602001908152602001600020600087815260200190815260200160002060010160009054906101000a900473ffffffffffffffffffffffffffffffffffffffff1673ffffffffffffffffffffffffffffffffffffffff160361235f576040517f08c379a0000000000000000000000000000000000000000000000000000000008152600401612356906141e2565b60405180910390fd5b33600260003373ffffffffffffffffffffffffffffffffffffffff1673ffffffffffffffffffffffffffffffffffffffff168152602001908152602001600020600087815260200190815260200160002060030160006101000a81548173ffffffffffffffffffffffffffffffffffffffff021916908373ffffffffffffffffffffffffffffffffffffffff16021790555083600260003373ffffffffffffffffffffffffffffffffffffffff1673ffffffffffffffffffffffffffffffffffffffff1681526020019081526020016000206000878152602001908152602001600020600501908161245191906138df565b506001600260003373ffffffffffffffffffffffffffffffffffffffff1673ffffffffffffffffffffffffffffffffffffffff168152602001908152602001600020600087815260200190815260200160002060070160006101000a81548160ff021916908360028111156124c9576124c8612e2b565b5b021790555080600260003373ffffffffffffffffffffffffffffffffffffffff1673ffffffffffffffffffffffffffffffffffffffff1681526020019081526020016000206000878152602001908152602001600020600901908161252e91906138df565b50600c60009054906101000a900473ffffffffffffffffffffffffffffffffffffffff1673ffffffffffffffffffffffffffffffffffffffff166365837dca600260003373ffffffffffffffffffffffffffffffffffffffff1673ffffffffffffffffffffffffffffffffffffffff168152602001908152602001600020600088815260200190815260200160002060010160009054906101000a900473ffffffffffffffffffffffffffffffffffffffff16866040518363ffffffff1660e01b81526004016125ff929190614202565b600060405180830381600087803b15801561261957600080fd5b505af115801561262d573d6000803e3d6000fd5b50505050600c60009054906101000a900473ffffffffffffffffffffffffffffffffffffffff1673ffffffffffffffffffffffffffffffffffffffff16636d0a1c38600260003373ffffffffffffffffffffffffffffffffffffffff1673ffffffffffffffffffffffffffffffffffffffff168152602001908152602001600020600088815260200190815260200160002060010160009054906101000a900473ffffffffffffffffffffffffffffffffffffffff16876040518363ffffffff1660e01b8152600401612701929190613ebb565b600060405180830381600087803b15801561271b57600080fd5b505af115801561272f573d6000803e3d6000fd5b505050506000429050604051806101000160405280828152602001878152602001600260003373ffffffffffffffffffffffffffffffffffffffff1673ffffffffffffffffffffffffffffffffffffffff168152602001908152602001600020600089815260200190815260200160002060010160009054906101000a900473ffffffffffffffffffffffffffffffffffffffff1673ffffffffffffffffffffffffffffffffffffffff1681526020013373ffffffffffffffffffffffffffffffffffffffff16815260200186815260200185815260200184815260200183815250600160003373ffffffffffffffffffffffffffffffffffffffff1673ffffffffffffffffffffffffffffffffffffffff1681526020019081526020016000206000838152602001908152602001600020600082015181600001556020820151816001015560408201518160020160006101000a81548173ffffffffffffffffffffffffffffffffffffffff021916908373ffffffffffffffffffffffffffffffffffffffff16021790555060608201518160030160006101000a81548173ffffffffffffffffffffffffffffffffffffffff021916908373ffffffffffffffffffffffffffffffffffffffff160217905550608082015181600401908161291891906138df565b5060a0820151816005015560c0820151816006015560e082015181600701908161294291906138df565b509050506006819080600181540180825580915050600190039060005260206000200160009091909190915055505050505050565b60008160405160200161298a919061426e565b60405160208183030381529060405280519060200120836040516020016129b1919061426e565b6040516020818303038152906040528051906020012014905092915050565b6000604051905090565b600080fd5b600080fd5b6000819050919050565b6129f7816129e4565b8114612a0257600080fd5b50565b600081359050612a14816129ee565b92915050565b600060208284031215612a3057612a2f6129da565b5b6000612a3e84828501612a05565b91505092915050565b612a50816129e4565b82525050565b6000602082019050612a6b6000830184612a47565b92915050565b600073ffffffffffffffffffffffffffffffffffffffff82169050919050565b6000612a9c82612a71565b9050919050565b612aac81612a91565b8114612ab757600080fd5b50565b600081359050612ac981612aa3565b92915050565b600080fd5b600080fd5b6000601f19601f8301169050919050565b7f4e487b7100000000000000000000000000000000000000000000000000000000600052604160045260246000fd5b612b2282612ad9565b810181811067ffffffffffffffff82111715612b4157612b40612aea565b5b80604052505050565b6000612b546129d0565b9050612b608282612b19565b919050565b600067ffffffffffffffff821115612b8057612b7f612aea565b5b612b8982612ad9565b9050602081019050919050565b82818337600083830152505050565b6000612bb8612bb384612b65565b612b4a565b905082815260208101848484011115612bd457612bd3612ad4565b5b612bdf848285612b96565b509392505050565b600082601f830112612bfc57612bfb612acf565b5b8135612c0c848260208601612ba5565b91505092915050565b60008060408385031215612c2c57612c2b6129da565b5b6000612c3a85828601612aba565b925050602083013567ffffffffffffffff811115612c5b57612c5a6129df565b5b612c6785828601612be7565b9150509250929050565b60008115159050919050565b612c8681612c71565b82525050565b6000602082019050612ca16000830184612c7d565b92915050565b6000819050919050565b6000612ccc612cc7612cc284612a71565b612ca7565b612a71565b9050919050565b6000612cde82612cb1565b9050919050565b6000612cf082612cd3565b9050919050565b612d0081612ce5565b82525050565b6000602082019050612d1b6000830184612cf7565b92915050565b6000612d2c82612cd3565b9050919050565b612d3c81612d21565b82525050565b6000602082019050612d576000830184612d33565b92915050565b60008060408385031215612d7457612d736129da565b5b6000612d8285828601612aba565b9250506020612d9385828601612a05565b9150509250929050565b612da681612a91565b82525050565b600081519050919050565b600082825260208201905092915050565b60005b83811015612de6578082015181840152602081019050612dcb565b60008484015250505050565b6000612dfd82612dac565b612e078185612db7565b9350612e17818560208601612dc8565b612e2081612ad9565b840191505092915050565b7f4e487b7100000000000000000000000000000000000000000000000000000000600052602160045260246000fd5b60038110612e6b57612e6a612e2b565b5b50565b6000819050612e7c82612e5a565b919050565b6000612e8c82612e6e565b9050919050565b612e9c81612e81565b82525050565b600061014082019050612eb8600083018d612a47565b612ec5602083018c612d9d565b612ed2604083018b612d9d565b612edf606083018a612d9d565b612eec6080830189612d9d565b81810360a0830152612efe8188612df2565b9050612f0d60c0830187612a47565b612f1a60e0830186612e93565b612f28610100830185612a47565b818103610120830152612f3b8184612df2565b90509b9a5050505050505050505050565b600080600060608486031215612f6557612f646129da565b5b6000612f7386828701612aba565b9350506020612f8486828701612a05565b9250506040612f9586828701612a05565b9150509250925092565b600081519050919050565b600082825260208201905092915050565b6000819050602082019050919050565b612fd4816129e4565b82525050565b6000612fe68383612fcb565b60208301905092915050565b6000602082019050919050565b600061300a82612f9f565b6130148185612faa565b935061301f83612fbb565b8060005b838110156130505781516130378882612fda565b975061304283612ff2565b925050600181019050613023565b5085935050505092915050565b600060208201905081810360008301526130778184612fff565b905092915050565b600061012082019050613095600083018c612a47565b6130a2602083018b612d9d565b6130af604083018a612d9d565b6130bc6060830189612d9d565b81810360808301526130ce8188612df2565b90506130dd60a0830187612a47565b6130ea60c0830186612e93565b6130f760e0830185612a47565b81810361010083015261310a8184612df2565b90509a9950505050505050505050565b600061010082019050613130600083018b612a47565b61313d602083018a612a47565b61314a6040830189612d9d565b6131576060830188612d9d565b81810360808301526131698187612df2565b905061317860a0830186612a47565b61318560c0830185612a47565b81810360e08301526131978184612df2565b90509998505050505050505050565b6000602082840312156131bc576131bb6129da565b5b600082013567ffffffffffffffff8111156131da576131d96129df565b5b6131e684828501612be7565b91505092915050565b60028110613200576131ff612e2b565b5b50565b6000819050613211826131ef565b919050565b600061322182613203565b9050919050565b61323181613216565b82525050565b600060608201905081810360008301526132518186612df2565b90506132606020830185612a47565b61326d6040830184613228565b949350505050565b60008060006060848603121561328e5761328d6129da565b5b600061329c86828701612aba565b93505060206132ad86828701612a05565b92505060406132be86828701612aba565b9150509250925092565b600281106132d9576132d8612e2b565b5b50565b60008190506132ea826132c8565b919050565b60006132fa826132dc565b9050919050565b61330a816132ef565b82525050565b600060e082019050613325600083018a612a47565b6133326020830189612d9d565b61333f6040830188612d9d565b61334c6060830187612d9d565b6133596080830186612a47565b61336660a0830185612a47565b61337360c0830184613301565b98975050505050505050565b600061338a82612cd3565b9050919050565b61339a8161337f565b82525050565b60006020820190506133b56000830184613391565b92915050565b6000806000606084860312156133d4576133d36129da565b5b60006133e286828701612aba565b93505060206133f386828701612aba565b925050604061340486828701612a05565b9150509250925092565b600061010082019050613424600083018b612a47565b613431602083018a612a47565b61343e6040830189612d9d565b81810360608301526134508188612df2565b905061345f6080830187612d9d565b61346c60a0830186612a47565b61347960c0830185612a47565b81810360e083015261348b8184612df2565b90509998505050505050505050565b600080600080600060a086880312156134b6576134b56129da565b5b60006134c488828901612a05565b955050602086013567ffffffffffffffff8111156134e5576134e46129df565b5b6134f188828901612be7565b945050604061350288828901612a05565b935050606061351388828901612a05565b925050608086013567ffffffffffffffff811115613534576135336129df565b5b61354088828901612be7565b9150509295509295909350565b7f4e487b7100000000000000000000000000000000000000000000000000000000600052602260045260246000fd5b6000600282049050600182168061359457607f821691505b6020821081036135a7576135a661354d565b5b50919050565b7f496e76616c69642061646472657373206f722070617373776f72640000000000600082015250565b60006135e3601b83612db7565b91506135ee826135ad565b602082019050919050565b60006020820190508181036000830152613612816135d6565b9050919050565b7f5472616e73706f72746174696f6e20616c726561647920636f6d706c6574656460008201527f206f72206e6f7420696e69746961746564000000000000000000000000000000602082015250565b6000613675603183612db7565b915061368082613619565b604082019050919050565b600060208201905081810360008301526136a481613668565b9050919050565b7f4d65646963616c2063656e7465722070726f63657373206e6f7420416374697660008201527f6500000000000000000000000000000000000000000000000000000000000000602082015250565b6000613707602183612db7565b9150613712826136ab565b604082019050919050565b60006020820190508181036000830152613736816136fa565b9050919050565b60008190508160005260206000209050919050565b60006020601f8301049050919050565b600082821b905092915050565b60006008830261379f7fffffffffffffffffffffffffffffffffffffffffffffffffffffffffffffffff82613762565b6137a98683613762565b95508019841693508086168417925050509392505050565b60006137dc6137d76137d2846129e4565b612ca7565b6129e4565b9050919050565b6000819050919050565b6137f6836137c1565b61380a613802826137e3565b84845461376f565b825550505050565b600090565b61381f613812565b61382a8184846137ed565b505050565b5b8181101561384e57613843600082613817565b600181019050613830565b5050565b601f821115613893576138648161373d565b61386d84613752565b8101602085101561387c578190505b61389061388885613752565b83018261382f565b50505b505050565b600082821c905092915050565b60006138b660001984600802613898565b1980831691505092915050565b60006138cf83836138a5565b9150826002028217905092915050565b6138e882612dac565b67ffffffffffffffff81111561390157613900612aea565b5b61390b825461357c565b613916828285613852565b600060209050601f8311600181146139495760008415613937578287015190505b61394185826138c3565b8655506139a9565b601f1984166139578661373d565b60005b8281101561397f5784890151825560018201915060208501945060208101905061395a565b8683101561399c5784890151613998601f8916826138a5565b8355505b6001600288020188555050505b505050505050565b7f5265737472696374656420746f2073797374656d206f776e6572206f6e6c7900600082015250565b60006139e7601f83612db7565b91506139f2826139b1565b602082019050919050565b60006020820190508181036000830152613a16816139da565b9050919050565b7f496e76616c6964206c6f67696e2063726564656e7469616c7300000000000000600082015250565b6000613a53601983612db7565b9150613a5e82613a1d565b602082019050919050565b60006020820190508181036000830152613a8281613a46565b9050919050565b6000602082019050613a9e6000830184612d9d565b92915050565b600080fd5b600080fd5b600081519050613abd81612aa3565b92915050565b6000613ad6613ad184612b65565b612b4a565b905082815260208101848484011115613af257613af1612ad4565b5b613afd848285612dc8565b509392505050565b600082601f830112613b1a57613b19612acf565b5b8151613b2a848260208601613ac3565b91505092915050565b600081519050613b42816129ee565b92915050565b613b5181612c71565b8114613b5c57600080fd5b50565b600081519050613b6e81613b48565b92915050565b600067ffffffffffffffff821115613b8f57613b8e612aea565b5b602082029050602081019050919050565b600080fd5b6000613bb8613bb384613b74565b612b4a565b90508083825260208201905060208402830185811115613bdb57613bda613ba0565b5b835b81811015613c045780613bf08882613b33565b845260208401935050602081019050613bdd565b5050509392505050565b600082601f830112613c2357613c22612acf565b5b8151613c33848260208601613ba5565b91505092915050565b60006101808284031215613c5357613c52613aa4565b5b613c5e610180612b4a565b90506000613c6e84828501613aae565b600083015250602082015167ffffffffffffffff811115613c9257613c91613aa9565b5b613c9e84828501613b05565b6020830152506040613cb284828501613b33565b604083015250606082015167ffffffffffffffff811115613cd657613cd5613aa9565b5b613ce284828501613b05565b606083015250608082015167ffffffffffffffff811115613d0657613d05613aa9565b5b613d1284828501613b05565b60808301525060a082015167ffffffffffffffff811115613d3657613d35613aa9565b5b613d4284828501613b05565b60a08301525060c082015167ffffffffffffffff811115613d6657613d65613aa9565b5b613d7284828501613b05565b60c08301525060e0613d8684828501613b33565b60e083015250610100613d9b84828501613b33565b61010083015250610120613db184828501613b5f565b61012083015250610140613dc784828501613b5f565b6101408301525061016082015167ffffffffffffffff811115613ded57613dec613aa9565b5b613df984828501613c0e565b6101608301525092915050565b600060208284031215613e1c57613e1b6129da565b5b600082015167ffffffffffffffff811115613e3a57613e396129df565b5b613e4684828501613c3c565b91505092915050565b7f506c6561736520726567697374657220646f6e6f722066697273740000000000600082015250565b6000613e85601b83612db7565b9150613e9082613e4f565b602082019050919050565b60006020820190508181036000830152613eb481613e78565b9050919050565b6000604082019050613ed06000830185612d9d565b613edd6020830184612a47565b9392505050565b7f4e487b7100000000000000000000000000000000000000000000000000000000600052601160045260246000fd5b6000613f1e826129e4565b91507fffffffffffffffffffffffffffffffffffffffffffffffffffffffffffffffff8203613f5057613f4f613ee4565b5b600182019050919050565b600060c08284031215613f7157613f70613aa4565b5b613f7b60c0612b4a565b90506000613f8b84828501613aae565b600083015250602082015167ffffffffffffffff811115613faf57613fae613aa9565b5b613fbb84828501613b05565b602083015250604082015167ffffffffffffffff811115613fdf57613fde613aa9565b5b613feb84828501613b05565b604083015250606082015167ffffffffffffffff81111561400f5761400e613aa9565b5b61401b84828501613b05565b606083015250608061402f84828501613b5f565b60808301525060a061404384828501613b5f565b60a08301525092915050565b600060208284031215614065576140646129da565b5b600082015167ffffffffffffffff811115614083576140826129df565b5b61408f84828501613f5b565b91505092915050565b7f4f6e6c79206d65646963616c2073746166662063616e20706572666f726d207460008201527f68697320616374696f6e00000000000000000000000000000000000000000000602082015250565b60006140f4602a83612db7565b91506140ff82614098565b604082019050919050565b60006020820190508181036000830152614123816140e7565b9050919050565b7f496e76616c6964207472616e73616374696f6e20737461747573000000000000600082015250565b6000614160601a83612db7565b915061416b8261412a565b602082019050919050565b6000602082019050818103600083015261418f81614153565b9050919050565b7f496e76616c696420646f6e6f7220616464726573730000000000000000000000600082015250565b60006141cc601583612db7565b91506141d782614196565b602082019050919050565b600060208201905081810360008301526141fb816141bf565b9050919050565b60006040820190506142176000830185612d9d565b81810360208301526142298184612df2565b90509392505050565b600081905092915050565b600061424882612dac565b6142528185614232565b9350614262818560208601612dc8565b80840191505092915050565b600061427a828461423d565b91508190509291505056fea26469706673582212203a403e6f7789b3dd944009c5b1dd1cc6e59fb35947ea31d0909bee45c1de569264736f6c63430008130033",
  "immutableReferences": {
    "3": [
      {
        "length": 32,
        "start": 5897
      }
    ]
  },
  "source": "// SPDX-License-Identifier: MIT\npragma solidity ^0.8.19;\nimport \"./DonorContract.sol\";\nimport \"./MedicalCenters.sol\";\nimport \"./TransportContract.sol\";\nimport \"./AccessControl.sol\";\n\n/**\n    @title Blood Donation Blockchain-based System\n    @author Josephat E. Temba\n    @notice You can use this smart contract in real blood donation operations\n    @dev This is best aproach for developers to learn how real dapp looking for\n    @custom:fyp This is the final year project for cive students\n */\n\ncontract BloodDonationBlockchainSystem is AccessControl {\n    enum TransactionStatus { Shipped, Active, Fullfilled }\n    enum TransportationStatus { InTransit, Delivered }\n    enum BloodSupplyStatus { Available, Requested }\n\n    /// @dev create system account structure\n    struct SystemOwner {\n        address sysOwner;\n        string password /*audit*/;\n        bool isLogin;\n    }\n\n    struct DonationTransaction {\n        uint256 transactionID;\n        address donor;\n        address recipient;\n        address medicalStaff;\n        address transporter;\n        string bloodType;\n        uint256 donationDate;\n        TransactionStatus status;\n        uint256 donatedVolume;\n        string bloodTestResult;\n    }\n\n    struct MedicalRecord {\n        uint256 recordID;\n        uint256 transactionID;\n        address donor;\n        address medicalStaff;\n        string bloodType;\n        uint256 bloodPressure;\n        uint256 hemoglobinLevel;\n        string bloodTestResults;\n    }\n\n    struct TransportationRecord {\n        uint256 recordID;\n        address transporter;\n        address donor;\n        address recipient;\n        uint256 pickupDateTime;\n        uint256 deliveryDateTime;\n        TransportationStatus status;\n    }\n\n    struct BloodSupply {\n        string bloodType;\n        uint256 volume;\n        BloodSupplyStatus status;\n    }\n\n    mapping(address => SystemOwner) private sysOwnerMap;\n    \n    mapping(address => mapping(uint256 => MedicalRecord)) public medicalRecords;\n    mapping(address => mapping(uint256 => DonationTransaction)) public donationTransactions;\n\n    mapping(uint256 => TransportationRecord) public transportationRecords;\n    mapping(string => BloodSupply) public bloodSupplies;\n\n    uint256[] public donationTransactionsArr;\n    uint256[] public medicalRecordsArr;\n\n    uint256 public transactionCounter;\n    uint256 public recordCounter;\n\n    // modifier onlyTransporter() {\n    //     require(\n    //         transporters[msg.sender].transporterPublicAddress == msg.sender,\n    //         \"Only transporters can perform this action\"\n    //     );\n    //     _;\n    // }\n\n    SystemOwner private sysowner;\n\n    DonorContract public donorContract;\n    MedicalCenters public medicalCenter;\n    TransportContract public transportContract;\n\n    constructor(address _donorContractAddress, address _medicalCenter, address _transAddress) {\n        sysowner = SystemOwner(owner, \"admin\", false);\n        sysOwnerMap[owner] = sysowner;\n        donorContract = DonorContract(_donorContractAddress);\n        medicalCenter = MedicalCenters(_medicalCenter);\n        transportContract = TransportContract(_transAddress);\n    }\n\n    modifier onlyMedicalStaff() {\n        require(\n            medicalCenter.readMedicalCenter(msg.sender).MCPublicAddress == msg.sender,\n            \"Only medical staff can perform this action\"\n        );\n        _;\n    }\n\n    function checkSystemOwnerLogin(address _SYSPublicAddress, string memory _password) public view returns (bool) {\n        // require(!medicalsCenters[_MCPublicAddress].isLogin, \"You're already logged in\");\n        require(compareString(sysOwnerMap[_SYSPublicAddress].password, _password), \"Invalid address or password\");\n\n        return true;\n    }\n\n    function systemOwnerLogin(address _MCPublicAddress, string memory _password) public onlyOwner() {\n        require(checkSystemOwnerLogin(_MCPublicAddress, _password), \"Invalid login credentials\");\n\n        sysOwnerMap[_MCPublicAddress].isLogin = true;\n    }\n\n    // ---------------- Start Donation initialization ---------------------\n    function donateBloodToMedicalCenter(\n        address _medicalCenterPublicAddress,\n        address _donorPublicAddress,\n        uint256 _volume\n    ) public {\n        require(\n            donorContract.readDonors(_donorPublicAddress).isRegistered == true,\n            \"Please register donor first\"\n        );\n\n        uint256 transactionID = block.timestamp;\n        donationTransactions[_medicalCenterPublicAddress][transactionID] = DonationTransaction({\n            transactionID: transactionID,\n            donor: _donorPublicAddress,\n            recipient: address(0),\n            medicalStaff: msg.sender,\n            transporter: address(0),\n            bloodType: donorContract.readDonors(_donorPublicAddress).bloodType,\n            donationDate: block.timestamp,\n            status: TransactionStatus.Shipped,\n            donatedVolume: _volume,\n            bloodTestResult: \"No Result\"\n        });\n        donorContract.updateVolume(_donorPublicAddress, _volume);\n        donationTransactionsArr.push(transactionID);\n\n        // Increment the transaction count\n        transactionCounter++;\n    }\n\n    function getDonationTransactionArr()\n        public\n        view\n        returns (uint256[] memory)\n    {\n        return donationTransactionsArr;\n    }\n\n    function getDonationTransaction(\n        address _medicalCenterPublicAddress,\n        uint256 _transactionID\n    )\n        public\n        view\n        returns (\n            uint256 transactionID,\n            address donorPublicAddress,\n            address recipientPublicAddress,\n            address transporterPublicAddress,\n            string memory bloodType,\n            uint256 donationDate,\n            TransactionStatus status,\n            uint256 donatedVolume,\n            string memory bloodTestResult\n        )\n    {\n        DonationTransaction memory donationTransaction = donationTransactions[_medicalCenterPublicAddress][\n            _transactionID\n        ];\n        transactionID = donationTransaction.transactionID;\n        donorPublicAddress = donationTransaction.donor;\n        recipientPublicAddress = donationTransaction.recipient;\n        transporterPublicAddress = donationTransaction.transporter;\n        bloodType = donationTransaction.bloodType;\n        donationDate = donationTransaction.donationDate;\n        status = donationTransaction.status;\n        donatedVolume = donationTransaction.donatedVolume;\n        bloodTestResult = donationTransaction.bloodTestResult;\n    }\n\n    // ---------------- End Donation initialization ---------------------\n\n    // ---------------- Start Complete Donation  ------------------------\n\n    function completeDonationToMedicalCenter(\n        uint256 _transactionID,\n        string memory _bloodType,\n        uint256 _bloodPressure,\n        uint256 _hemoglobinLevel,\n        string memory _bloodTestResults\n    ) public onlyMedicalStaff {\n        require(\n            donationTransactions[msg.sender][_transactionID].status ==\n                TransactionStatus.Shipped,\n            \"Invalid transaction status\"\n        );\n        require(\n            donationTransactions[msg.sender][_transactionID].donor != address(0),\n            \"Invalid donor address\"\n        );\n\n        donationTransactions[msg.sender][_transactionID].medicalStaff = msg.sender;\n        donationTransactions[msg.sender][_transactionID].bloodType = _bloodType;\n        donationTransactions[msg.sender][_transactionID].status = TransactionStatus.Active;\n        donationTransactions[msg.sender][_transactionID].bloodTestResult = _bloodTestResults;\n        donorContract.updateDonorBloodType(donationTransactions[msg.sender][_transactionID].donor, _bloodType);\n        donorContract.updateDonationHistory(donationTransactions[msg.sender][_transactionID].donor, _transactionID);\n\n        uint256 recordID = block.timestamp;\n        medicalRecords[msg.sender][recordID] = MedicalRecord({\n            recordID: recordID,\n            transactionID: _transactionID,\n            donor: donationTransactions[msg.sender][_transactionID].donor,\n            bloodType: _bloodType,\n            medicalStaff: msg.sender,\n            bloodPressure: _bloodPressure,\n            hemoglobinLevel: _hemoglobinLevel,\n            bloodTestResults: _bloodTestResults\n            // donationHistory: new uint256[](0)\n        });\n        medicalRecordsArr.push(recordID);\n\n        // uint256 payment = calculatePayment(\n        //     donors[donationTransactions[_transactionID].donor].donatedVolume\n        // );\n        // uint256 payment = calculatePayment(_transactionID);\n        // donors[donationTransactions[_transactionID].donor]\n        //     .totalPayment += payment;\n        // payable(msg.sender).transfer(payment);\n    }\n\n    function getMedicalRecordsArr()\n        public\n        view\n        returns (uint256[] memory)\n    {\n        return medicalRecordsArr;\n    }\n\n    function getMedicalRecord(\n        address _medicalCenterAddress,\n        uint256 _medicalRecordID\n    )\n        public\n        view\n        returns (\n            uint256 medicalRecordID,\n            uint256 transactionID,\n            address donorAddress,\n            string memory bloodType,\n            address medicalStaff,\n            uint256 bloodPressure,\n            uint256 hemoglobinLevel,\n            string memory bloodTestResult\n        )\n    {\n        MedicalRecord memory medicalRecord = medicalRecords[_medicalCenterAddress][\n            _medicalRecordID\n        ];\n        medicalRecordID = medicalRecord.recordID;\n        transactionID = medicalRecord.transactionID;\n        donorAddress = medicalRecord.donor;\n        bloodType = medicalRecord.bloodType;\n        medicalStaff = medicalRecord.medicalStaff;\n        bloodPressure = medicalRecord.bloodPressure;\n        hemoglobinLevel = medicalRecord.hemoglobinLevel;\n        bloodTestResult = medicalRecord.bloodTestResults;\n    }\n\n    // ---------------- End Complete Donation  ------------------------\n\n    function initiateTransportation(\n        address _medicalCenterPublicAddress,\n        uint256 _transactionID,\n        address _recipient\n        // string memory _medicalCenter\n    ) public {\n        require(\n            donationTransactions[_medicalCenterPublicAddress][_transactionID].status ==\n                TransactionStatus.Active,\n            \"Medical center process not Active\"\n        );\n\n        uint256 transactionID = block.timestamp;\n        donationTransactions[_medicalCenterPublicAddress][transactionID] = DonationTransaction({\n            transactionID: transactionID,\n            donor: donationTransactions[_medicalCenterPublicAddress][_transactionID].donor,\n            recipient: _recipient,\n            medicalStaff: msg.sender,\n            transporter: msg.sender,\n            bloodType: donationTransactions[_medicalCenterPublicAddress][_transactionID].bloodType,\n            donationDate: donationTransactions[_medicalCenterPublicAddress][_transactionID].donationDate,\n            status: donationTransactions[_medicalCenterPublicAddress][_transactionID].status,\n            // donatedVolume: DonorContract.readDonors(donationTransactions[_medicalCenterPublicAddress][_transactionID].donor).donatedVolume,\n            donatedVolume: 300,\n            bloodTestResult: donationTransactions[_medicalCenterPublicAddress][_transactionID].bloodTestResult\n        });\n    }\n\n    function completeTransportation(\n        address _medicalCenterPublicAddress,\n        uint256 _recordID,\n        uint256 _transactionID\n    ) public {\n        // onlyTransporter\n        require(\n            transportationRecords[_recordID].status ==\n                TransportationStatus.InTransit,\n            \"Transportation already completed or not initiated\"\n        );\n        transportationRecords[_recordID].deliveryDateTime = block.timestamp;\n        transportationRecords[_recordID].status = TransportationStatus\n            .Delivered;\n        donationTransactions[_medicalCenterPublicAddress][_transactionID].transporter = msg.sender;\n    }\n\n    // function calculatePayment(\n    //     uint256 _transactionID\n    // ) internal view returns (uint256) {\n    //     require(\n    //         donationTransactions[_transactionID].status ==\n    //             TransactionStatus.Completed,\n    //         \"Transaction not completed\"\n    //     );\n    //     // Assuming a fixed payment rate for simplicity\n    //     uint256 _donatedVolume = donationTransactions[_transactionID]\n    //         .donatedVolume;\n    //     uint256 paymentRate = 1 gwei; // 1gwei/ml\n    //     return _donatedVolume * paymentRate;\n    // }\n\n    // function addBloodSupply(string memory _bloodType, uint256 _volume) public {\n    //     // onlyMedicalStaff\n    //     require(_volume > 0, \"Volume must be greater than zero\");\n    //     require(\n    //         bloodSupplies[_bloodType].status != BloodSupplyStatus.Requested,\n    //         \"Blood type already requested\"\n    //     );\n\n    //     if (bloodSupplies[_bloodType].status == BloodSupplyStatus.Available) {\n    //         bloodSupplies[_bloodType].volume += _volume;\n    //     } else {\n    //         bloodSupplies[_bloodType] = BloodSupply({\n    //             bloodType: _bloodType,\n    //             volume: _volume,\n    //             status: BloodSupplyStatus.Available\n    //         });\n    //     }\n    // }\n\n    // function requestBloodType(\n    //     string memory _bloodType,\n    //     uint256 _volume\n    // ) public {\n    //     // onlyMedicalStaff\n    //     require(\n    //         bloodSupplies[_bloodType].status == BloodSupplyStatus.Available,\n    //         \"Blood type not available\"\n    //     );\n    //     require(\n    //         bloodSupplies[_bloodType].volume >= _volume,\n    //         \"Insufficient blood volume\"\n    //     );\n\n        // You can add more logic here to handle the request\n        // For example, update the blood supply status or create a new transaction record\n    // }\n\n}\n",
  "sourcePath": "/home/temba/Desktop/blood-donation-blockchain-system/client-side/contracts/BloodDonationBlockchainSystem.sol",
  "compiler": {
    "name": "solc",
    "version": "0.8.19+commit.7dd6d404.Emscripten.clang"
  },
  "schemaVersion": "3.4.16",
  "updatedAt": "2024-03-11T17:43:19.080Z",
  "networkType": "ethereum",
  "devdoc": {
    "author": "Josephat E. Temba",
    "custom:fyp": "This is the final year project for cive students",
    "details": "This is best aproach for developers to learn how real dapp looking for",
    "kind": "dev",
    "methods": {},
    "title": "Blood Donation Blockchain-based System",
    "version": 1
  },
  "userdoc": {
    "kind": "user",
    "methods": {},
    "notice": "You can use this smart contract in real blood donation operations",
    "version": 1
  }
}