{
  "contractName": "BloodDonationBlockchainSystem",
  "abi": [
    {
      "inputs": [
        {
          "internalType": "address",
          "name": "_donorContractAddress",
          "type": "address"
        },
        {
          "internalType": "address",
          "name": "_medicalCenter",
          "type": "address"
        },
        {
          "internalType": "address",
          "name": "_transAddress",
          "type": "address"
        },
        {
          "internalType": "address",
          "name": "collectionPointAddress_",
          "type": "address"
        }
      ],
      "stateMutability": "nonpayable",
      "type": "constructor"
    },
    {
      "inputs": [
        {
          "internalType": "uint256",
          "name": "",
          "type": "uint256"
        }
      ],
      "name": "allDonationTransactions",
      "outputs": [
        {
          "internalType": "uint256",
          "name": "transactionID",
          "type": "uint256"
        },
        {
          "internalType": "address",
          "name": "donor",
          "type": "address"
        },
        {
          "internalType": "address",
          "name": "recipient",
          "type": "address"
        },
        {
          "internalType": "address",
          "name": "medicalStaff",
          "type": "address"
        },
        {
          "internalType": "address",
          "name": "requester",
          "type": "address"
        },
        {
          "internalType": "bool",
          "name": "isSupplied",
          "type": "bool"
        },
        {
          "internalType": "enum BloodDonationBlockchainSystem.BloodSupplyStatus",
          "name": "supplyStatus",
          "type": "uint8"
        },
        {
          "internalType": "string",
          "name": "medicalCenterName",
          "type": "string"
        },
        {
          "internalType": "address",
          "name": "transporter",
          "type": "address"
        },
        {
          "internalType": "string",
          "name": "bloodType",
          "type": "string"
        },
        {
          "internalType": "uint256",
          "name": "donationDate",
          "type": "uint256"
        },
        {
          "internalType": "enum BloodDonationBlockchainSystem.TransactionStatus",
          "name": "status",
          "type": "uint8"
        },
        {
          "internalType": "uint256",
          "name": "donatedVolume",
          "type": "uint256"
        },
        {
          "internalType": "string",
          "name": "bloodTestResult",
          "type": "string"
        }
      ],
      "stateMutability": "view",
      "type": "function",
      "constant": true
    },
    {
      "inputs": [
        {
          "internalType": "string",
          "name": "",
          "type": "string"
        }
      ],
      "name": "bloodSupplies",
      "outputs": [
        {
          "internalType": "string",
          "name": "bloodType",
          "type": "string"
        },
        {
          "internalType": "uint256",
          "name": "volume",
          "type": "uint256"
        },
        {
          "internalType": "enum BloodDonationBlockchainSystem.BloodSupplyStatus",
          "name": "status",
          "type": "uint8"
        }
      ],
      "stateMutability": "view",
      "type": "function",
      "constant": true
    },
    {
      "inputs": [],
      "name": "collectionPoint",
      "outputs": [
        {
          "internalType": "contract CollectionPointContract",
          "name": "",
          "type": "address"
        }
      ],
      "stateMutability": "view",
      "type": "function",
      "constant": true
    },
    {
      "inputs": [
        {
          "internalType": "address",
          "name": "",
          "type": "address"
        },
        {
          "internalType": "uint256",
          "name": "",
          "type": "uint256"
        }
      ],
      "name": "donationTransactions",
      "outputs": [
        {
          "internalType": "uint256",
          "name": "transactionID",
          "type": "uint256"
        },
        {
          "internalType": "address",
          "name": "donor",
          "type": "address"
        },
        {
          "internalType": "address",
          "name": "recipient",
          "type": "address"
        },
        {
          "internalType": "address",
          "name": "medicalStaff",
          "type": "address"
        },
        {
          "internalType": "address",
          "name": "requester",
          "type": "address"
        },
        {
          "internalType": "bool",
          "name": "isSupplied",
          "type": "bool"
        },
        {
          "internalType": "enum BloodDonationBlockchainSystem.BloodSupplyStatus",
          "name": "supplyStatus",
          "type": "uint8"
        },
        {
          "internalType": "string",
          "name": "medicalCenterName",
          "type": "string"
        },
        {
          "internalType": "address",
          "name": "transporter",
          "type": "address"
        },
        {
          "internalType": "string",
          "name": "bloodType",
          "type": "string"
        },
        {
          "internalType": "uint256",
          "name": "donationDate",
          "type": "uint256"
        },
        {
          "internalType": "enum BloodDonationBlockchainSystem.TransactionStatus",
          "name": "status",
          "type": "uint8"
        },
        {
          "internalType": "uint256",
          "name": "donatedVolume",
          "type": "uint256"
        },
        {
          "internalType": "string",
          "name": "bloodTestResult",
          "type": "string"
        }
      ],
      "stateMutability": "view",
      "type": "function",
      "constant": true
    },
    {
      "inputs": [
        {
          "internalType": "uint256",
          "name": "",
          "type": "uint256"
        }
      ],
      "name": "donationTransactionsArr",
      "outputs": [
        {
          "internalType": "uint256",
          "name": "",
          "type": "uint256"
        }
      ],
      "stateMutability": "view",
      "type": "function",
      "constant": true
    },
    {
      "inputs": [],
      "name": "donorContract",
      "outputs": [
        {
          "internalType": "contract DonorContract",
          "name": "",
          "type": "address"
        }
      ],
      "stateMutability": "view",
      "type": "function",
      "constant": true
    },
    {
      "inputs": [],
      "name": "medicalCenter",
      "outputs": [
        {
          "internalType": "contract MedicalCenters",
          "name": "",
          "type": "address"
        }
      ],
      "stateMutability": "view",
      "type": "function",
      "constant": true
    },
    {
      "inputs": [
        {
          "internalType": "address",
          "name": "",
          "type": "address"
        },
        {
          "internalType": "uint256",
          "name": "",
          "type": "uint256"
        }
      ],
      "name": "medicalRecords",
      "outputs": [
        {
          "internalType": "uint256",
          "name": "recordID",
          "type": "uint256"
        },
        {
          "internalType": "uint256",
          "name": "transactionID",
          "type": "uint256"
        },
        {
          "internalType": "address",
          "name": "donor",
          "type": "address"
        },
        {
          "internalType": "address",
          "name": "medicalStaff",
          "type": "address"
        },
        {
          "internalType": "string",
          "name": "bloodType",
          "type": "string"
        },
        {
          "internalType": "uint256",
          "name": "bloodPressure",
          "type": "uint256"
        },
        {
          "internalType": "uint256",
          "name": "hemoglobinLevel",
          "type": "uint256"
        },
        {
          "internalType": "string",
          "name": "bloodTestResults",
          "type": "string"
        }
      ],
      "stateMutability": "view",
      "type": "function",
      "constant": true
    },
    {
      "inputs": [
        {
          "internalType": "uint256",
          "name": "",
          "type": "uint256"
        }
      ],
      "name": "medicalRecordsArr",
      "outputs": [
        {
          "internalType": "uint256",
          "name": "",
          "type": "uint256"
        }
      ],
      "stateMutability": "view",
      "type": "function",
      "constant": true
    },
    {
      "inputs": [
        {
          "internalType": "uint256",
          "name": "",
          "type": "uint256"
        }
      ],
      "name": "recipientArr",
      "outputs": [
        {
          "internalType": "uint256",
          "name": "",
          "type": "uint256"
        }
      ],
      "stateMutability": "view",
      "type": "function",
      "constant": true
    },
    {
      "inputs": [
        {
          "internalType": "address",
          "name": "",
          "type": "address"
        },
        {
          "internalType": "uint256",
          "name": "",
          "type": "uint256"
        }
      ],
      "name": "recipients",
      "outputs": [
        {
          "internalType": "uint256",
          "name": "recipientID",
          "type": "uint256"
        },
        {
          "internalType": "uint256",
          "name": "transactionID",
          "type": "uint256"
        },
        {
          "internalType": "address",
          "name": "recipientAddress",
          "type": "address"
        },
        {
          "internalType": "string",
          "name": "recipientName",
          "type": "string"
        },
        {
          "internalType": "string",
          "name": "recipientPhoneNumber",
          "type": "string"
        },
        {
          "internalType": "string",
          "name": "bloodType",
          "type": "string"
        }
      ],
      "stateMutability": "view",
      "type": "function",
      "constant": true
    },
    {
      "inputs": [],
      "name": "recordCounter",
      "outputs": [
        {
          "internalType": "uint256",
          "name": "",
          "type": "uint256"
        }
      ],
      "stateMutability": "view",
      "type": "function",
      "constant": true
    },
    {
      "inputs": [],
      "name": "transactionCounter",
      "outputs": [
        {
          "internalType": "uint256",
          "name": "",
          "type": "uint256"
        }
      ],
      "stateMutability": "view",
      "type": "function",
      "constant": true
    },
    {
      "inputs": [],
      "name": "transportContract",
      "outputs": [
        {
          "internalType": "contract TransportContract",
          "name": "",
          "type": "address"
        }
      ],
      "stateMutability": "view",
      "type": "function",
      "constant": true
    },
    {
      "inputs": [
        {
          "internalType": "uint256",
          "name": "",
          "type": "uint256"
        }
      ],
      "name": "transportationRecords",
      "outputs": [
        {
          "internalType": "uint256",
          "name": "recordID",
          "type": "uint256"
        },
        {
          "internalType": "address",
          "name": "transporter",
          "type": "address"
        },
        {
          "internalType": "address",
          "name": "donor",
          "type": "address"
        },
        {
          "internalType": "address",
          "name": "recipient",
          "type": "address"
        },
        {
          "internalType": "uint256",
          "name": "pickupDateTime",
          "type": "uint256"
        },
        {
          "internalType": "uint256",
          "name": "deliveryDateTime",
          "type": "uint256"
        },
        {
          "internalType": "enum BloodDonationBlockchainSystem.TransportationStatus",
          "name": "status",
          "type": "uint8"
        }
      ],
      "stateMutability": "view",
      "type": "function",
      "constant": true
    },
    {
      "inputs": [
        {
          "internalType": "address",
          "name": "_SYSPublicAddress",
          "type": "address"
        },
        {
          "internalType": "string",
          "name": "_password",
          "type": "string"
        }
      ],
      "name": "checkSystemOwnerLogin",
      "outputs": [
        {
          "internalType": "bool",
          "name": "",
          "type": "bool"
        }
      ],
      "stateMutability": "view",
      "type": "function",
      "constant": true
    },
    {
      "inputs": [
        {
          "internalType": "address",
          "name": "_MCPublicAddress",
          "type": "address"
        },
        {
          "internalType": "string",
          "name": "_password",
          "type": "string"
        }
      ],
      "name": "systemOwnerLogin",
      "outputs": [],
      "stateMutability": "nonpayable",
      "type": "function"
    },
    {
      "inputs": [
        {
          "internalType": "address",
          "name": "_medicalCenterPublicAddress",
          "type": "address"
        },
        {
          "internalType": "address",
          "name": "_donorPublicAddress",
          "type": "address"
        },
        {
          "internalType": "uint256",
          "name": "_volume",
          "type": "uint256"
        }
      ],
      "name": "donateBloodToMedicalCenter",
      "outputs": [],
      "stateMutability": "nonpayable",
      "type": "function"
    },
    {
      "inputs": [],
      "name": "getDonationTransactionArr",
      "outputs": [
        {
          "internalType": "uint256[]",
          "name": "",
          "type": "uint256[]"
        }
      ],
      "stateMutability": "view",
      "type": "function",
      "constant": true
    },
    {
      "inputs": [
        {
          "internalType": "address",
          "name": "_medicalCenterPublicAddress",
          "type": "address"
        },
        {
          "internalType": "uint256",
          "name": "_transactionID",
          "type": "uint256"
        }
      ],
      "name": "getDonationTransaction",
      "outputs": [
        {
          "internalType": "uint256",
          "name": "transactionID",
          "type": "uint256"
        },
        {
          "internalType": "address",
          "name": "donorPublicAddress",
          "type": "address"
        },
        {
          "internalType": "string",
          "name": "donorName",
          "type": "string"
        },
        {
          "internalType": "address",
          "name": "recipientPublicAddress",
          "type": "address"
        },
        {
          "internalType": "address",
          "name": "medicalStaff",
          "type": "address"
        },
        {
          "internalType": "address",
          "name": "requester",
          "type": "address"
        },
        {
          "internalType": "bool",
          "name": "isSupplied",
          "type": "bool"
        },
        {
          "internalType": "enum BloodDonationBlockchainSystem.BloodSupplyStatus",
          "name": "supplyStatus",
          "type": "uint8"
        },
        {
          "internalType": "string",
          "name": "medicalCenterName",
          "type": "string"
        },
        {
          "internalType": "address",
          "name": "transporterPublicAddress",
          "type": "address"
        },
        {
          "internalType": "string",
          "name": "bloodType",
          "type": "string"
        },
        {
          "internalType": "uint256",
          "name": "donationDate",
          "type": "uint256"
        },
        {
          "internalType": "enum BloodDonationBlockchainSystem.TransactionStatus",
          "name": "status",
          "type": "uint8"
        },
        {
          "internalType": "uint256",
          "name": "donatedVolume",
          "type": "uint256"
        },
        {
          "internalType": "string",
          "name": "bloodTestResult",
          "type": "string"
        }
      ],
      "stateMutability": "view",
      "type": "function",
      "constant": true
    },
    {
      "inputs": [
        {
          "internalType": "uint256",
          "name": "_transactionID",
          "type": "uint256"
        }
      ],
      "name": "getAllDonationTransaction",
      "outputs": [
        {
          "internalType": "uint256",
          "name": "transactionID",
          "type": "uint256"
        },
        {
          "internalType": "address",
          "name": "donorPublicAddress",
          "type": "address"
        },
        {
          "internalType": "string",
          "name": "donorName",
          "type": "string"
        },
        {
          "internalType": "address",
          "name": "recipientPublicAddress",
          "type": "address"
        },
        {
          "internalType": "address",
          "name": "medicalStaff",
          "type": "address"
        },
        {
          "internalType": "address",
          "name": "requester",
          "type": "address"
        },
        {
          "internalType": "bool",
          "name": "isSupplied",
          "type": "bool"
        },
        {
          "internalType": "enum BloodDonationBlockchainSystem.BloodSupplyStatus",
          "name": "supplyStatus",
          "type": "uint8"
        },
        {
          "internalType": "string",
          "name": "medicalCenterName",
          "type": "string"
        },
        {
          "internalType": "address",
          "name": "transporterPublicAddress",
          "type": "address"
        },
        {
          "internalType": "string",
          "name": "bloodType",
          "type": "string"
        },
        {
          "internalType": "uint256",
          "name": "donationDate",
          "type": "uint256"
        },
        {
          "internalType": "enum BloodDonationBlockchainSystem.TransactionStatus",
          "name": "status",
          "type": "uint8"
        },
        {
          "internalType": "uint256",
          "name": "donatedVolume",
          "type": "uint256"
        },
        {
          "internalType": "string",
          "name": "bloodTestResult",
          "type": "string"
        }
      ],
      "stateMutability": "view",
      "type": "function",
      "constant": true
    },
    {
      "inputs": [
        {
          "internalType": "uint256",
          "name": "_transactionID",
          "type": "uint256"
        },
        {
          "internalType": "string",
          "name": "_bloodType",
          "type": "string"
        },
        {
          "internalType": "uint256",
          "name": "_bloodPressure",
          "type": "uint256"
        },
        {
          "internalType": "uint256",
          "name": "_hemoglobinLevel",
          "type": "uint256"
        },
        {
          "internalType": "string",
          "name": "_bloodTestResults",
          "type": "string"
        }
      ],
      "name": "completeDonationToMedicalCenter",
      "outputs": [],
      "stateMutability": "nonpayable",
      "type": "function"
    },
    {
      "inputs": [
        {
          "internalType": "uint256",
          "name": "_transactionID",
          "type": "uint256"
        },
        {
          "internalType": "address",
          "name": "_recipientAddress",
          "type": "address"
        },
        {
          "internalType": "string",
          "name": "_recipientName",
          "type": "string"
        },
        {
          "internalType": "string",
          "name": "_recipientPhoneNumber",
          "type": "string"
        },
        {
          "internalType": "string",
          "name": "_bloodType",
          "type": "string"
        }
      ],
      "name": "fullFillBloodToRecipient",
      "outputs": [],
      "stateMutability": "nonpayable",
      "type": "function"
    },
    {
      "inputs": [],
      "name": "getRecipientsArr",
      "outputs": [
        {
          "internalType": "uint256[]",
          "name": "",
          "type": "uint256[]"
        }
      ],
      "stateMutability": "view",
      "type": "function",
      "constant": true
    },
    {
      "inputs": [
        {
          "internalType": "address",
          "name": "_medicalCenterAddress",
          "type": "address"
        },
        {
          "internalType": "uint256",
          "name": "_recipientID",
          "type": "uint256"
        }
      ],
      "name": "getRecipient",
      "outputs": [
        {
          "internalType": "uint256",
          "name": "recipientID",
          "type": "uint256"
        },
        {
          "internalType": "uint256",
          "name": "transactionID",
          "type": "uint256"
        },
        {
          "internalType": "address",
          "name": "recipientAddress",
          "type": "address"
        },
        {
          "internalType": "string",
          "name": "recipientName",
          "type": "string"
        },
        {
          "internalType": "string",
          "name": "recipientPhoneNumber",
          "type": "string"
        },
        {
          "internalType": "string",
          "name": "bloodType",
          "type": "string"
        }
      ],
      "stateMutability": "view",
      "type": "function",
      "constant": true
    },
    {
      "inputs": [],
      "name": "getMedicalRecordsArr",
      "outputs": [
        {
          "internalType": "uint256[]",
          "name": "",
          "type": "uint256[]"
        }
      ],
      "stateMutability": "view",
      "type": "function",
      "constant": true
    },
    {
      "inputs": [
        {
          "internalType": "address",
          "name": "_medicalCenterAddress",
          "type": "address"
        },
        {
          "internalType": "uint256",
          "name": "_medicalRecordID",
          "type": "uint256"
        }
      ],
      "name": "getMedicalRecord",
      "outputs": [
        {
          "internalType": "uint256",
          "name": "medicalRecordID",
          "type": "uint256"
        },
        {
          "internalType": "uint256",
          "name": "transactionID",
          "type": "uint256"
        },
        {
          "internalType": "address",
          "name": "donorAddress",
          "type": "address"
        },
        {
          "internalType": "string",
          "name": "bloodType",
          "type": "string"
        },
        {
          "internalType": "address",
          "name": "medicalStaff",
          "type": "address"
        },
        {
          "internalType": "uint256",
          "name": "bloodPressure",
          "type": "uint256"
        },
        {
          "internalType": "uint256",
          "name": "hemoglobinLevel",
          "type": "uint256"
        },
        {
          "internalType": "string",
          "name": "bloodTestResult",
          "type": "string"
        }
      ],
      "stateMutability": "view",
      "type": "function",
      "constant": true
    },
    {
      "inputs": [
        {
          "internalType": "uint256",
          "name": "_transactionID",
          "type": "uint256"
        },
        {
          "internalType": "address",
          "name": "_medicalCenterPublicAddress",
          "type": "address"
        },
        {
          "internalType": "address",
          "name": "requester_",
          "type": "address"
        }
      ],
      "name": "requestBloodSupply",
      "outputs": [],
      "stateMutability": "nonpayable",
      "type": "function"
    },
    {
      "inputs": [
        {
          "internalType": "uint256",
          "name": "_transactionID",
          "type": "uint256"
        },
        {
          "internalType": "address",
          "name": "_medicalCenterPublicAddress",
          "type": "address"
        },
        {
          "internalType": "address",
          "name": "transporterAddress_",
          "type": "address"
        }
      ],
      "name": "approvalBloodSupplied",
      "outputs": [],
      "stateMutability": "nonpayable",
      "type": "function"
    },
    {
      "inputs": [
        {
          "internalType": "address",
          "name": "_medicalCenterPublicAddress",
          "type": "address"
        },
        {
          "internalType": "uint256",
          "name": "_transactionID",
          "type": "uint256"
        }
      ],
      "name": "supply",
      "outputs": [],
      "stateMutability": "nonpayable",
      "type": "function"
    }
  ],
  "bytecode": "0x60a03462000349576001604060020a0390601f620041de38819003918201601f1916830191848311848410176200031a5780849260809460405283398101031262000349576200004f816200034e565b6200005d602083016200034e565b906200007a606062000072604086016200034e565b94016200034e565b93336080526040519060608201828110828211176200031a5760405233825260405160408101818110838211176200031a57604052600581527f61646d696e000000000000000000000000000000000000000000000000000000602082015280602084015260006040840152600160a060020a03835116600160a060020a0319600d541617600d5580519182116200031a5762000119600e5462000363565b601f8111620002cb575b50602090601f8311600114620002545760409392916000918362000248575b5050816002029160080260020a60001904191617600e555b0151151560ff199060ff82600f5416911617600f55600160a060020a036080511660005260016020526040600020600d8103620001fd575b505060108054600160a060020a0319908116600160a060020a039384161790915560118054821693831693909317909255601280548316938216939093179092556013805490911692909116919091179055604051613ccb9081620005138239608051816122200152f35b600d548154600160a060020a031916600160a060020a03919091161781556002906200022c60018201620003ba565b019060ff80600f54161515918354169116179055388062000192565b01519050388062000142565b90600e60005260206000209160005b601f1985168110620002b25750926001926002926040969583601f1981161062000296575b5050500201600e556200015a565b01516008601f841602840a600019041916905538808062000288565b9192602060018192868501518155019401920162000263565b600e60005260206000206020601f850104810191602085106200030f575b601f602091010401905b81811062000302575062000123565b60008155600101620002f3565b9091508190620002e9565b7f4e487b7100000000000000000000000000000000000000000000000000000000600052604160045260246000fd5b600080fd5b5190600160a060020a03821682036200034957565b9060016002830492168015620003af575b60208310146200038057565b7f4e487b7100000000000000000000000000000000000000000000000000000000600052602260045260246000fd5b91607f169162000374565b600e81146200050f57620003d0600e5462000363565b6001604060020a0381116200031a57620003eb825462000363565b601f8111620004c1575b50806000601f8211600114620004325760009162000425575b50816002029160080260020a600019041916179055565b9050600e0154386200040e565b838152602080822092507fbb7b4a454dc3493923482f07822329ed19e8244eff582cc204f8554c3620c3fd90601f1985169083905b828210620004a757505091600293918560019694106200048b575b50505002019055565b01546008601f841602840a600019041916905538808062000482565b849581929585015481556001809101960194019062000467565b6000838152602081206020601f8501048101926020851062000504575b601f602091010401915b828110620004f8575050620003f5565b818155600101620004e8565b9092508290620004de565b5056fe608080604052600436101561001357600080fd5b6000907c010000000000000000000000000000000000000000000000000000000082350490816308a99008146130f7575080630c7a538f146130d357806311e1c24a146130ac57806314e887e81461308e5780631920b9ae14612edf57806322d95e0a14612eb857806337d9817514612e4e57806339c3d6b714612dd857806342d6976514612cbf57806342d6ac60146129af57806344d38d701461295f5780634a9cf248146128ac5780636cd327e0146128365780637599be5d146128185780637fe52fa3146125d857806397678a031461251c5780639c1bc07b14612482578063aa60ac4c146123c7578063bae4c740146123a0578063c02b9f5a14612300578063cfc0970114612204578063d04398d614612182578063d1b21c2e14611c27578063d59be68d14611c00578063e14ec6ec14611045578063ea8b902514610fc7578063eea9c37b14610eb5578063ef0aa4e6146104b8578063f2b9fdb8146101df5763f56213671461018757600080fd5b346101dc5760203660031901126101dc57600435600a548110156101d857602090600a6000527fc65a7bb8d6351c1cf70c95a316cc6a92839c986682d98bc35f958f4883f9d2a80154604051908152f35b5080fd5b80fd5b50346101dc5760403660031901126101dc57600160a060020a03610201613144565b1680825260046020526040822060243583526020526040822090600560205260a060020a60046040852074ff00000000000000000000000000000000000000001993838584880154161783870155865281602052604086206024358752602052604086208581036103a7575b500191825416179055602435825260056020526040822081810361028f578280f35b600b80836103a19454845560018401600160a060020a0360018301541690600160a060020a0319918282541617905560028501600160a060020a036002840154168282541617905560038501600160a060020a036003840154168282541617905561033760048601600160a060020a036004850154168382541617815561032360ff60a060020a60048701540416826139fe565b60ff60a860020a6004860154041690613a3f565b6103476005830160058701613bb7565b6006850190600160a060020a03600684015416908254161790556103716007820160078601613bb7565b6008810154600885015561038f60ff60098301541660098601613add565b600a810154600a850155019101613bb7565b38808280f35b6104b2908654815560018101600160a060020a0360018901541690600160a060020a0319918282541617905560028201600160a060020a0360028a0154168282541617905560038201600160a060020a0360038a01541682825416179055610444858301600160a060020a03878b0154168382541617815561043160ff89898d01540416826139fe565b60ff60a860020a888c0154041690613a3f565b6104546005890160058401613bb7565b6006820190600160a060020a0360068a0154169082541617905561047e6007880160078301613bb7565b6008870154600882015561049c60ff60098901541660098301613add565b600a870154600a820155600b8088019101613bb7565b3861026d565b50346101dc5760a03660031901126101dc5760243567ffffffffffffffff81116101d8576104ea903690600401613239565b60843567ffffffffffffffff8111610c4d5761050a903690600401613239565b602483600160a060020a03601154166040519283809260e060020a63244723b10282523360048301525afa8015610eaa57610558918591610e88575b5051600160a060020a03163314613af5565b338352600460205260408320600435845260205261058960ff600960408620015416610583816133db565b15613b69565b3383526004602052604083206004358452602052600160a060020a0360016040852001541615610e415733835260046020526040832060043584526020526003604084200133600160a060020a0319825416179055338352600460205260408320600435845260205260076040842001825167ffffffffffffffff8111610c225761061e8161061884546132f8565b84613a89565b806020601f8211600114610dd9578691610dce575b50816002029160080260020a6000190419161790555b338352600460205260408320600435845260205260096040842001600160ff198254161790553383526004602052604083206004358452602052600b6040842001815167ffffffffffffffff8111610c22576106a98161061884546132f8565b806020601f8211600114610d66578691610d5b575b50816002029160080260020a6000190419161790555b600435835260056020526040832060038101805473ffffffffffffffffffffffffffffffffffffffff191633179055825167ffffffffffffffff8111610c225761072e8161072560078501546132f8565b60078501613a89565b6020601f8211600114610cee5790806007928791610ce3575b50816002029160080260020a600019041916179101555b6004358352600560205260096040842001600160ff1982541617905560043583526005602052600b6040842001815167ffffffffffffffff8111610c22576107aa8161061884546132f8565b806020601f8211600114610c7b578691610c70575b50816002029160080260020a6000190419161790555b82600160a060020a03601054163382526004602052604082206004358352602052600160a060020a03600160408420015416813b15610c4d5782906040519283917f65837dca000000000000000000000000000000000000000000000000000000008352600483015260406024830152818381610855604482018b613421565b03925af18015610c5157610c5c575b50600160a060020a03601054163382526004602052604082206004358352602052600160a060020a0360016040842001541690803b15610c4d576040517f6d0a1c38000000000000000000000000000000000000000000000000000000008152600160a060020a039290921660048084019190915235602483015282908290604490829084905af18015610c5157610c39575b50503383526004602052604083206004358452602052600160a060020a03600160408520015416916040519261092c846131c2565b42845260043560208501526040840152336060840152608083015260443560a083015260643560c083015260e082015233825260026020526040822042835260205260408220815181556020820151600182015560028101600160a060020a03604084015116600160a060020a031982541617905560038101600160a060020a03606084015116600160a060020a0319825416179055608082015180519067ffffffffffffffff8211610c22576109f3826109ea60048601546132f8565b60048601613a89565b602090601f8311600114610bad57918060e094926007948892610ba2575b5050816002029160080260020a6000190419161760048201555b60a0840151600582015560c084015160068201550191015180519067ffffffffffffffff8211610b8b578190610a6b82610a6586546132f8565b86613a89565b602090601f8311600114610b24578592610b19575b5050816002029160080260020a6000190419161790555b60095468010000000000000000811015610b00576001810180600955811015610ae757600960005242907f6e1540171b6c0c960b71a7020d9f60077f6af931a8bbf590da0223dacf75c7af015580f35b60e060020a634e487b7102600052603260045260246000fd5b60e060020a634e487b7102600052604160045260246000fd5b015190503880610a80565b848652602086209250601f198416865b818110610b7357509160029391856001969410610b58575b50505002019055610a97565b01516008601f841602840a6000190419169055388080610b4c565b92936020600181928786015181550195019301610b34565b60248460e060020a634e487b710281526041600452fd5b015190503880610a11565b906004840186526020862091865b601f1985168110610c0a57508360e09593600193600293600797601f19811610610bef575b50505002016004820155610a2b565b01516008601f841602840a6000190419169055388080610be0565b91926020600181928685015181550194019201610bbb565b60248560e060020a634e487b710281526041600452fd5b610c42906131ae565b610c4d5782386108f7565b8280fd5b6040513d84823e3d90fd5b610c65906131ae565b610c4d578238610864565b9050830151386107bf565b838752602087209150865b601f1984168110610ccb57509160029160019382601f19811610610cb0575b5050020190556107d5565b8601516008601f841602840a60001904191690553880610ca5565b90916020600181928589015181550193019101610c86565b905085015138610747565b6007830186526020862090865b601f1984168110610d43575082600192600292600795601f19811610610d28575b5050020191015561075e565b8801516008601f841602840a60001904191690553880610d1c565b9091602060018192858a015181550193019101610cfb565b9050830151386106be565b838752602087209150865b601f1984168110610db657509160029160019382601f19811610610d9b575b5050020190556106d4565b8601516008601f841602840a60001904191690553880610d90565b90916020600181928589015181550193019101610d71565b905084015138610633565b838752602087209150865b601f1984168110610e2957509160029160019382601f19811610610e0e575b505002019055610649565b8701516008601f841602840a60001904191690553880610e03565b9091602060018192858a015181550193019101610de4565b606460405160e560020a62461bcd02815260206004820152601560248201527f496e76616c696420646f6e6f72206164647265737300000000000000000000006044820152fd5b610ea491503d8087833e610e9c81836131fb565b810190613909565b38610546565b6040513d86823e3d90fd5b50346101dc5760403660031901126101dc576040600160a060020a039182610edb613144565b168152600260205281812060243582526020522090610fc360405191610f00836131c2565b8354835260018401549260208101938452816002860154169460408201958652826003820154169060608301918252610fa6610f3e60048301613336565b926080850193845260058301549560a0860196875280610f6c600760068701549660c08a0197885201613336565b968760e08201525199519a511694519151169551925193604051998a998a5260208a015260408901526101008060608a0152880190613421565b93608087015260a086015260c085015283820360e0850152613421565b0390f35b50346101dc5760403660031901126101dc576040600160a060020a039182610fed613144565b1681526003602052818120602435825260205220610fc38154916001810154936002820154169061102060038201613336565b611038600561103160048501613336565b9301613336565b92604051968796876135e5565b50346101dc5760603660031901126101dc5761105f613144565b9061106861315f565b91600160a060020a036010541660405160e360020a6317c75205028152600160a060020a03851660048201528381602481855afa908115610eaa57600191610120918691611be6575b500151151503611b9f57602483600160a060020a03601154166040519283809260e060020a63244723b1028252600160a060020a03881660048301525afa908115610eaa57602060249286928391611b85575b500151926040519283809260e360020a6317c75205028252600160a060020a038a1660048301525afa908115610eaa57906080918591611b6b575b5001516040519161114f83613175565b428352600160a060020a03861660208401528460408401523360608401528460808401528460a08401528460c084015260e08301528361010083015261012082015242610140820152826101608201526044356101808201526111b06139c5565b6101a0820152600160a060020a0382168352600460205260408320428452602052604083209080518255600160a060020a03602082015116600160a060020a031960018401541617600183015560028201600160a060020a03604083015116600160a060020a031982541617905560038201600160a060020a03606083015116600160a060020a031982541617905561128760048301600160a060020a03608084015116600160a060020a031982541617815561127360a08401511515826139fe565b60c083015190611282826133db565b613a3f565b60e081015180519067ffffffffffffffff8211611ad95781906112ba826112b160058801546132f8565b60058801613a89565b602090601f8311600114611afb578792611af0575b5050816002029160080260020a6000190419161760058301555b60068201600160a060020a0361010083015116600160a060020a031982541617905561012081015180519067ffffffffffffffff8211611ad95761133d8261133460078701546132f8565b60078701613a89565b602090601f8311600114611a65576101a0939291879183611a5a575b5050816002029160080260020a6000190419161760078401555b6101408101516008840155611399610160820151611390816133db565b60098501613add565b610180810151600a840155015180519067ffffffffffffffff8211610c22576113d2826113c9600b8601546132f8565b600b8601613a89565b602090601f83116001146119ea57600b92918691836119df575b5050816002029160080260020a600019041916179101555b81600160a060020a036024816011541693604051948593849260e060020a63244723b10284521660048301525afa908115610c51579060209183916119c5575b50015191602482600160a060020a03601054166040519283809260e360020a6317c75205028252600160a060020a03871660048301525afa9081156119ba57906080918491611998575b5001516040519361149e85613175565b428552600160a060020a03831660208601528360408601523360608601528360808601528360a08601528360c086015260e08501528261010085015261012084015242610140840152816101608401526044356101808401526114ff6139c5565b6101a0840152428252600560205260408220928051845560018401600160a060020a03602083015116600160a060020a031982541617905560028401600160a060020a03604083015116600160a060020a031982541617905560038401600160a060020a03606083015116600160a060020a03198254161790556115ad60048501600160a060020a03608084015116600160a060020a031982541617815561127360a08401511515826139fe565b60e081015180519067ffffffffffffffff8211610c225781906115e0826115d760058a01546132f8565b60058a01613a89565b602090601f831160011461192857869261191d575b5050816002029160080260020a6000190419161760058501555b60068401600160a060020a0361010083015116600160a060020a031982541617905561012081015180519067ffffffffffffffff8211610c22576116638261165a60078901546132f8565b60078901613a89565b602090601f83116001146118a9576101a093929186918361189e575b5050816002029160080260020a6000190419161760078601555b61014081015160088601556116bf6101608201516116b6816133db565b60098701613add565b610180810151600a860155015192835167ffffffffffffffff8111610b8b576116f8816116ef600b8501546132f8565b600b8501613a89565b6020601f821160011461182e579080600b9286978792611823575b5050816002029160080260020a600019041916179101555b600160a060020a036010541690813b1561181f576040517f02c7739b000000000000000000000000000000000000000000000000000000008152600160a060020a03919091166004820152604480356024830152909291839190829084905af18015610c5157611810575b5060085468010000000000000000811015610b00576001810180600855811015610ae757600860005242907ff3f7a9fe364faab93b216da50a3214154f22a0a2b415b23a84c8169e8b636ee30155600b5460001981146117f957600101600b5580f35b60248260e060020a634e487b710281526011600452fd5b611819906131ae565b38611796565b5050fd5b015190503880611713565b600b830185526020852095855b601f19841681106118865750828697600193600293600b96601f1981161061186b575b505050020191015561172b565b01516008601f841602840a600019041916905538808061185e565b8282015188556001909701966020928301920161183b565b01519050388061167f565b906007870186526020862091865b601f19851681106119055750926001926002926101a0969583601f198116106118ea575b50505002016007860155611699565b01516008601f841602840a60001904191690553880806118db565b919260206001819286850151815501940192016118b7565b0151905038806115f5565b600588018752602087209250865b601f19851681106119805750918391600293600195601f19811610611965575b5050500201600585015561160f565b01516008601f841602840a6000190419169055388080611956565b91926020600181928685015181550194019201611936565b6119b491503d8086833e6119ac81836131fb565b81019061376b565b3861148e565b6040513d85823e3d90fd5b6119d991503d8085833e610e9c81836131fb565b38611444565b0151905038806113ec565b90600b840186526020862091865b601f1985168110611a42575092600192600292600b9583601f19811610611a27575b5050500201910155611404565b01516008601f841602840a6000190419169055388080611a1a565b919260206001819286850151815501940192016119f8565b015190503880611359565b906007850187526020872091875b601f1985168110611ac15750926001926002926101a0969583601f19811610611aa6575b50505002016007840155611373565b01516008601f841602840a6000190419169055388080611a97565b91926020600181928685015181550194019201611a73565b60248660e060020a634e487b710281526041600452fd5b0151905038806112cf565b600586018852602088209250875b601f1985168110611b535750918391600293600195601f19811610611b38575b505050020160058301556112e9565b01516008601f841602840a6000190419169055388080611b29565b91926020600181928685015181550194019201611b09565b611b7f91503d8087833e6119ac81836131fb565b3861113f565b611b9991503d8085833e610e9c81836131fb565b38611104565b606460405160e560020a62461bcd02815260206004820152601b60248201527f506c6561736520726567697374657220646f6e6f7220666972737400000000006044820152fd5b611bfa91503d8088833e6119ac81836131fb565b386110b1565b50346101dc57806003193601126101dc576020600160a060020a0360115416604051908152f35b50346101dc5760a03660031901126101dc57600435611c4461315f565b9060443567ffffffffffffffff811161217e57611c65903690600401613239565b60643567ffffffffffffffff811161217a57611c85903690600401613239565b9260843567ffffffffffffffff811161217657611ca6903690600401613239565b90600160a060020a0360248782601154166040519283809260e060020a63244723b10282523360048301525afa801561216b57611cef918991612151575b505182163314613af5565b338752600460205260408720858852602052611d20600160ff600960408b20015416611d1a816133db565b14613b69565b338752600460205260408720858852602052611d88611d83611d47600b60408b2001613336565b60405190611d54826131df565b600882527f414343455054454400000000000000000000000000000000000000000000000060208301526136b3565b613b69565b3387526004602052604087208588526020528060026040892001921692600160a060020a03199284848254161790553388526004602052604088208689526020526009604089200160ff199060028282541617905560056020526002600960408b208281018888825416179055019182541617905560405196611e0a88613192565b428852602088019687526040880194855260608801958652608088015260a087015233875260036020526040872042885260205260408720948651865551600186015560028501925116908254161790555180519067ffffffffffffffff8211610c22578190611e8a82611e8160038701546132f8565b60038701613a89565b602090601f83116001146120e15786926120d6575b5050816002029160080260020a6000190419161760038201555b608082015180519067ffffffffffffffff8211610c2257611ee1826109ea60048601546132f8565b602090601f831160011461206157918060a094926005948892612056575b5050816002029160080260020a6000190419161760048201555b0191015180519067ffffffffffffffff8211610b8b578190611f3f82610a6586546132f8565b602090601f8311600114611fef578592611fe4575b5050816002029160080260020a6000190419161790555b600a5468010000000000000000811015611fcd576001810180600a55811015611fb65742907fc65a7bb8d6351c1cf70c95a316cc6a92839c986682d98bc35f958f4883f9d2a8015580f35b60248260e060020a634e487b710281526032600452fd5b60248260e060020a634e487b710281526041600452fd5b015190503880611f54565b848652602086209250601f198416865b81811061203e57509160029391856001969410612023575b50505002019055611f6b565b01516008601f841602840a6000190419169055388080612017565b92936020600181928786015181550195019301611fff565b015190503880611eff565b906004840186526020862091865b601f19851681106120be57508360a09593600193600293600597601f198116106120a3575b50505002016004820155611f19565b01516008601f841602840a6000190419169055388080612094565b9192602060018192868501518155019401920161206f565b015190503880611e9f565b600385018752602087209250865b601f19851681106121395750918391600293600195601f1981161061211e575b50505002016003820155611eb9565b01516008601f841602840a600019041916905538808061210f565b919260206001819286850151815501940192016120ef565b61216591503d808b833e610e9c81836131fb565b38611ce4565b6040513d8a823e3d90fd5b8580fd5b8480fd5b8380fd5b50346101dc57806003193601126101dc57604051600880548083529083526020808301937ff3f7a9fe364faab93b216da50a3214154f22a0a2b415b23a84c8169e8b636ee392915b8282106121ed57610fc3856121e1818903826131fb565b604051918291826134ef565b8354865294850194600193840193909101906121ca565b50346101dc5761221336613280565b90600160a060020a0391827f00000000000000000000000000000000000000000000000000000000000000001633036122b9576122509082613637565b1561227257168152600160205260026040822001600160ff1982541617905580f35b606460405160e560020a62461bcd02815260206004820152601960248201527f496e76616c6964206c6f67696e2063726564656e7469616c73000000000000006044820152fd5b606460405160e560020a62461bcd02815260206004820152601f60248201527f5265737472696374656420746f2073797374656d206f776e6572206f6e6c79006044820152fd5b50346101dc5760203660031901126101dc576004358152600660205260408120805490600160a060020a03908160018201541691806002830154169060038301541660048301549160ff600660058601549501541694604051968752602087015260408601526060850152608084015260a083015260028110156123895760e0925060c0820152f35b60248360e060020a634e487b710281526021600452fd5b50346101dc57806003193601126101dc576020600160a060020a0360135416604051908152f35b50346101dc5760403660031901126101dc576040600160a060020a0391826123ed613144565b168152600360205281812060243582526020522090610fc360405161241181613192565b835481526001840154926020820193845280600286015416946040830195865261243d60038201613336565b9160608401928352612464600561245660048501613336565b936080870194855201613336565b938460a08201525195519651169151905191604051968796876135e5565b50346101dc5760203660031901126101dc576004359067ffffffffffffffff82116101dc576125046124cf60206124bc3660048701613239565b81604051938285809451938492016133fe565b810160078152030190206124e281613336565b9060ff6002600183015492015416604051938493606085526060850190613421565b916020840152612513816133db565b60408301520390f35b50346101dc5760403660031901126101dc576040600160a060020a039182612542613144565b1681526002602052818120602435825260205220610fc38154916001810154938060028301541690600383015416916125c061258060048301613336565b600583015494612597600760068601549501613336565b94604051998a998a5260208a015260408901526060880152610100806080890152870190613421565b9260a086015260c085015283820360e0850152613421565b50346101dc5760403660031901126101dc57600160a060020a036125fa613144565b16815260046020526040812060243582526020526040812090612707600b6040519361262585613175565b80548552600160a060020a036001820154166020860152600160a060020a036002820154166040860152600160a060020a03600382015416606086015260ff60a860020a6004830154600160a060020a03811660808901528260a060020a820416151560a08901520416612698816133db565b60c08601526126a960058201613336565b60e0860152600160a060020a036006820154166101008601526126ce60078201613336565b610120860152600881015461014086015260ff6009820154166126f0816133db565b610160860152600a81015461018086015201613336565b6101a08301528151600160a060020a0360208401511691602481600160a060020a03601054166040519283809260e360020a6317c752050282528860048301525afa91821561280c5790816020936127f1575b50500151926040810151600160a060020a0316906060810151600160a060020a03166080820151600160a060020a031660a0830151151560c084015161279f816133db565b610100850151600160a060020a03169060e0860151906101208701519361014088015195610160890151976127d3896133db565b6101808a0151996101a001519a6040519e8f9e8f9e610fc39f61352a565b61280592503d8091833e6119ac81836131fb565b388061275a565b604051903d90823e3d90fd5b50346101dc57806003193601126101dc576020600c54604051908152f35b50346101dc57806003193601126101dc57604051600980548083529083526020808301937f6e1540171b6c0c960b71a7020d9f60077f6af931a8bbf590da0223dacf75c7af92915b82821061289557610fc3856121e1818903826131fb565b83548652948501946001938401939091019061287e565b50346101dc5760203660031901126101dc576040906004358152600560205220805490610fc3600160a060020a0380600184015416928160028201541694826003830154169260048301549061290460058501613336565b816006860154169061291860078701613336565b9260088701549460ff60098901541696612939600b600a8b01549a01613336565b996040519d8e9d8e9360ff60a860020a8704169660ff60a060020a880416961694613446565b50346101dc5760203660031901126101dc576004356008548110156101d8576008602092527ff3f7a9fe364faab93b216da50a3214154f22a0a2b415b23a84c8169e8b636ee30154604051908152f35b50346101dc5760046129c0366132c3565b9290600160a060020a0381168552816020526040852083865260205260408520936005602052600160a060020a0360408720928183168219600689015416176006880155750200000000000000000000000000000000000000000075ff0000000000000000000000000000000000000000001986890154161785880155168652826020526040862084875260205260408620858103612bc2575b50600160a060020a03600683019116600160a060020a031982541617905501750200000000000000000000000000000000000000000075ff000000000000000000000000000000000000000000198254161790558252600560205260408220818103612ac4578280f35b600b80836103a19454845560018401600160a060020a03600183015416600160a060020a031982541617905560028401600160a060020a03600283015416600160a060020a031982541617905560038401600160a060020a03600383015416600160a060020a0319825416179055612b8160048501600160a060020a03600484015416600160a060020a0319825416178155612b6d60ff60a060020a60048601540416826139fe565b60ff60a860020a6004850154041690613a3f565b612b916005820160058601613bb7565b60068401600160a060020a03600683015416600160a060020a03198254161790556103716007820160078601613bb7565b612cb9908654815560018101600160a060020a03600189015416600160a060020a031982541617905560028101600160a060020a03600289015416600160a060020a031982541617905560038101600160a060020a03600389015416600160a060020a0319825416179055612c78858201600160a060020a03878a015416600160a060020a0319825416178155612c6560ff60a060020a898c01540416826139fe565b60ff60a860020a888b0154041690613a3f565b612c886005880160058301613bb7565b60068101600160a060020a03600689015416600160a060020a031982541617905561047e6007880160078301613bb7565b38612a5a565b50346101dc5760203660031901126101dc57600435815260056020526040812090612cf2600b6040519361262585613175565b6101a08301528151600160a060020a0360208401511691602481600160a060020a03601054166040519283809260e360020a6317c752050282528860048301525afa91821561280c579081602093612dbd575b50500151926040810151600160a060020a0316906060810151600160a060020a03166080820151600160a060020a031660a0830151151560c0840151612d8a816133db565b60e0850151610100860151600160a060020a0316916101208701519361014088015195610160890151976127d3896133db565b612dd192503d8091833e6119ac81836131fb565b3880612d45565b50346101dc57806003193601126101dc57604051600a80548083529083526020808301937fc65a7bb8d6351c1cf70c95a316cc6a92839c986682d98bc35f958f4883f9d2a892915b828210612e3757610fc3856121e1818903826131fb565b835486529485019460019384019390910190612e20565b50346101dc5760403660031901126101dc576040600160a060020a039182612e74613144565b1681526004602052818120602435825260205220610fc381549280600184015416928160028201541694826003830154169260048301549061290460058501613336565b50346101dc57806003193601126101dc576020600160a060020a0360125416604051908152f35b50346101dc57612eee366132c3565b600160a060020a0382939216845260046020526040842082855260205260a860020a600160a060020a036004604087209560056020528260408920918582881675ff00ffffffffffffffffffffffffffffffffffffffff19868c0154161717848a0155168852816020526040882086895260205260408820878103612fa7575b5001921675ff00ffffffffffffffffffffffffffffffffffffffff1983541617179055825260056020526040822081810361028f578280f35b6130889088548155600181018560018b0154169086199182825416179055600282018660028c01541682825416179055600382018660038c015416828254161790556130218a60ff8988808701938b8282015416878654161785556130178460a060020a848401540416866139fe565b0154041690613a3f565b61303160058b0160058401613bb7565b60068201908660068c0154169082541617905561305460078a0160078301613bb7565b6008890154600882015561307260ff60098b01541660098301613add565b600a890154600a820155600b808a019101613bb7565b38612f6e565b50346101dc57806003193601126101dc576020600b54604051908152f35b50346101dc57806003193601126101dc576020600160a060020a0360105416604051908152f35b50346101dc5760206130ed6130e736613280565b90613637565b6040519015158152f35b9050346101d85760203660031901126101d857600435600954811015610c4d576009602093527f6e1540171b6c0c960b71a7020d9f60077f6af931a8bbf590da0223dacf75c7af01548152f35b60043590600160a060020a038216820361315a57565b600080fd5b60243590600160a060020a038216820361315a57565b6101c0810190811067ffffffffffffffff821117610b0057604052565b60c0810190811067ffffffffffffffff821117610b0057604052565b67ffffffffffffffff8111610b0057604052565b610100810190811067ffffffffffffffff821117610b0057604052565b6040810190811067ffffffffffffffff821117610b0057604052565b90601f8019910116810190811067ffffffffffffffff821117610b0057604052565b67ffffffffffffffff8111610b0057601f01601f191660200190565b81601f8201121561315a578035906132508261321d565b9261325e60405194856131fb565b8284526020838301011161315a57816000926020809301838601378301015290565b90604060031983011261315a57600435600160a060020a038116810361315a57916024359067ffffffffffffffff821161315a576132c091600401613239565b90565b606090600319011261315a5760043590600160a060020a0390602435828116810361315a5791604435908116810361315a5790565b906001600283049216801561332c575b602083101461331357565b60e060020a634e487b7102600052602260045260246000fd5b91607f1691613308565b906040519182600082549261334a846132f8565b9081845260019485811690816000146133b95750600114613376575b5050613374925003836131fb565b565b9093915060005260209081600020936000915b8183106133a157505061337493508201013880613366565b85548884018501529485019487945091830191613389565b91505061337494506020925060ff191682840152151581028201013880613366565b600311156133e557565b60e060020a634e487b7102600052602160045260246000fd5b60005b8381106134115750506000910152565b8181015183820152602001613401565b9060209161343a815180928185528580860191016133fe565b601f01601f1916010190565b9a9c999590926134af94956132c09f9d9a989360608e916134c59c978352600160a060020a03998a8096818094166020870152166040850152169101521660808c0152151560a08b0152613499816133db565b60c08a01526101c08060e08b0152890190613421565b9216610100870152858203610120870152613421565b946101408401526134d5816133db565b6101608301526101808201526101a0818403910152613421565b6020908160408183019282815285518094520193019160005b828110613516575050505090565b835185529381019392810192600101613508565b9b9d9a9690926132c09f9d9a9892968d6080613571996135a5996135bb9e988452600160a060020a03809c81978280951660208801526101e0806040890152870190613421565b9a166060850152169101521660a08d0152151560c08c0152613592816133db565b60e08b01528982036101008b0152613421565b9216610120870152858203610140870152613421565b946101608401526135cb816133db565b6101808301526101a08201526101c0818403910152613421565b949193600160a060020a03613629946132c0989661361b948952602089015216604087015260c0606087015260c0860190613421565b908482036080860152613421565b9160a0818403910152613421565b90600160a060020a036136629216600052600160205261365d6001604060002001613336565b6136b3565b1561366c57600190565b606460405160e560020a62461bcd02815260206004820152601b60248201527f496e76616c69642061646472657373206f722070617373776f726400000000006044820152fd5b90604051916020926136e18482816136d481830196878151938492016133fe565b81010380845201826131fb565b519020916137016040519182816136d481830196878151938492016133fe565b5190201490565b5190600160a060020a038216820361315a57565b81601f8201121561315a5780516137328161321d565b9261374060405194856131fb565b8184526020828401011161315a576132c091602080850191016133fe565b5190811515820361315a57565b6020808284031261315a57815167ffffffffffffffff9283821161315a5701906101a093848382031261315a5760405194850185811085821117610b00576040526137b583613708565b85528183015184811161315a57816137ce91850161371c565b8286015260408301516040860152606083015184811161315a57816137f491850161371c565b6060860152608083015184811161315a578161381191850161371c565b608086015260a083015184811161315a578161382e91850161371c565b60a086015260c083015184811161315a578161384b91850161371c565b60c086015260e083015160e0860152610100808401519086015261012061387381850161375e565b9086015261014061388581850161375e565b9086015261016061389781850161375e565b9086015261018092838101519085821161315a570181601f8201121561315a578051948511610b005782850290604051956138d4858401886131fb565b8652838087019282010192831161315a578301905b8282106138fa575050505082015290565b815181529083019083016138e9565b60208183031261315a57805167ffffffffffffffff9182821161315a57019160c08382031261315a576040519261393f84613192565b61394881613708565b8452602081015183811161315a578261396291830161371c565b6020850152604081015183811161315a578261397f91830161371c565b6040850152606081015192831161315a576139a160a0926139bd94830161371c565b60608501526139b26080820161375e565b60808501520161375e565b60a082015290565b604051906139d2826131df565b600982527f4e6f20526573756c7400000000000000000000000000000000000000000000006020830152565b9074ff000000000000000000000000000000000000000060a060020a835492151502169074ff00000000000000000000000000000000000000001916179055565b90613a49816133db565b75ff00000000000000000000000000000000000000000060a860020a83549202169075ff0000000000000000000000000000000000000000001916179055565b90601f8111613a9757505050565b60009182526020822090602080601f86010483019410613ad3575b601f602091010401915b828110613ac857505050565b818155600101613abc565b9092508290613ab2565b90613ae7816133db565b60ff80198354169116179055565b15613afc57565b608460405160e560020a62461bcd02815260206004820152602a60248201527f4f6e6c79206d65646963616c2073746166662063616e20706572666f726d207460448201527f68697320616374696f6e000000000000000000000000000000000000000000006064820152fd5b15613b7057565b606460405160e560020a62461bcd02815260206004820152601a60248201527f496e76616c6964207472616e73616374696f6e207374617475730000000000006044820152fd5b90808214613c9157613bc981546132f8565b9067ffffffffffffffff8211610b00578190613be982610a6586546132f8565b600090601f8311600114613c2257600092613c17575b5050816002029160080260020a600019041916179055565b015490503880613bff565b81526020808220858352818320935090601f1985169083905b828210613c785750509160029391856001969410613c5d575b50505002019055565b01546008601f841602840a6000190419169055388080613c54565b8495819295850154815560018091019601940190613c3b565b505056fea26469706673582212202c5e5541740bf3e32e1822e398fc587b77f2b320966a8f1a335d648fe981b47564736f6c63430008130033",
  "immutableReferences": {
    "3": [
      {
        "length": 32,
        "start": 8736
      }
    ]
  },
  "source": "// SPDX-License-Identifier: MIT\npragma solidity ^0.8.19;\nimport \"./DonorContract.sol\";\nimport \"./MedicalCenters.sol\";\nimport \"./TransportContract.sol\";\nimport \"./AccessControl.sol\";\nimport \"./CollectionPointContract.sol\";\n\n/**\n    @title Blood Donation Blockchain-based System\n    @author Josephat E. Temba\n    @notice You can use this smart contract in real blood donation operations\n    @dev This is best aproach for developers to learn how real dapp looking for\n    @custom:fyp This is the final year project for cive students\n */\n\ncontract BloodDonationBlockchainSystem is AccessControl {\n    enum TransactionStatus { Shipped, Active, Fullfilled }\n    enum TransportationStatus { InTransit, Delivered }\n    enum BloodSupplyStatus { Available, Requested, Approved }\n\n    /// @dev create system account structure\n    struct SystemOwner {\n        address sysOwner;\n        string password /*audit*/;\n        bool isLogin;\n    }\n\n    struct DonationTransaction {\n        uint256 transactionID;\n        address donor;\n        address recipient;\n        address medicalStaff;\n        address requester;\n        bool isSupplied;\n        BloodSupplyStatus supplyStatus;\n        string medicalCenterName;\n        address transporter;\n        string bloodType;\n        uint256 donationDate;\n        TransactionStatus status;\n        uint256 donatedVolume;\n        string bloodTestResult;\n    }\n\n    struct MedicalRecord {\n        uint256 recordID;\n        uint256 transactionID;\n        address donor;\n        address medicalStaff;\n        string bloodType;\n        uint256 bloodPressure;\n        uint256 hemoglobinLevel;\n        string bloodTestResults;\n    }\n\n    struct Recipient {\n        uint256 recipientID;\n        uint256 transactionID;\n        address recipientAddress;\n        string recipientName;\n        string recipientPhoneNumber;\n        string bloodType;\n    }\n\n    struct TransportationRecord {\n        uint256 recordID;\n        address transporter;\n        address donor;\n        address recipient;\n        uint256 pickupDateTime;\n        uint256 deliveryDateTime;\n        TransportationStatus status;\n    }\n\n    struct BloodSupply {\n        string bloodType;\n        uint256 volume;\n        BloodSupplyStatus status;\n    }\n\n    mapping(address => SystemOwner) private sysOwnerMap;\n    \n    mapping(address => mapping(uint256 => MedicalRecord)) public medicalRecords;\n    mapping(address => mapping(uint256 => Recipient)) public recipients;\n    mapping(address => mapping(uint256 => DonationTransaction)) public donationTransactions;\n    mapping(uint256 => DonationTransaction) public allDonationTransactions;\n\n    mapping(uint256 => TransportationRecord) public transportationRecords;\n    mapping(string => BloodSupply) public bloodSupplies;\n\n    uint256[] public donationTransactionsArr;\n    uint256[] public medicalRecordsArr;\n    uint256[] public recipientArr;\n\n    uint256 public transactionCounter;\n    uint256 public recordCounter;\n\n    // modifier onlyTransporter() {\n    //     require(\n    //         transporters[msg.sender].transporterPublicAddress == msg.sender,\n    //         \"Only transporters can perform this action\"\n    //     );\n    //     _;\n    // }\n\n    SystemOwner private sysowner;\n\n    DonorContract public donorContract;\n    MedicalCenters public medicalCenter;\n    TransportContract public transportContract;\n    CollectionPointContract public collectionPoint;\n\n    constructor(address _donorContractAddress, address _medicalCenter, address _transAddress, address collectionPointAddress_) {\n        sysowner = SystemOwner(owner, \"admin\", false);\n        sysOwnerMap[owner] = sysowner;\n        donorContract = DonorContract(_donorContractAddress);\n        medicalCenter = MedicalCenters(_medicalCenter);\n        transportContract = TransportContract(_transAddress);\n        collectionPoint = CollectionPointContract(collectionPointAddress_);\n    }\n\n    modifier onlyMedicalStaff() {\n        require(\n            medicalCenter.readMedicalCenter(msg.sender).MCPublicAddress == msg.sender,\n            \"Only medical staff can perform this action\"\n        );\n        _;\n    }\n\n    function checkSystemOwnerLogin(address _SYSPublicAddress, string memory _password) public view returns (bool) {\n        // require(!medicalsCenters[_MCPublicAddress].isLogin, \"You're already logged in\");\n        require(compareString(sysOwnerMap[_SYSPublicAddress].password, _password), \"Invalid address or password\");\n\n        return true;\n    }\n\n    function systemOwnerLogin(address _MCPublicAddress, string memory _password) public onlyOwner() {\n        require(checkSystemOwnerLogin(_MCPublicAddress, _password), \"Invalid login credentials\");\n\n        sysOwnerMap[_MCPublicAddress].isLogin = true;\n    }\n\n    // ---------------- Start Donation initialization ---------------------\n    function donateBloodToMedicalCenter(\n        address _medicalCenterPublicAddress,\n        address _donorPublicAddress,\n        uint256 _volume\n    ) public {\n        require(\n            donorContract.readDonors(_donorPublicAddress).isRegistered == true,\n            \"Please register donor first\"\n        );\n\n        uint256 transactionID = block.timestamp;\n        donationTransactions[_medicalCenterPublicAddress][transactionID] = DonationTransaction({\n            transactionID: transactionID,\n            donor: _donorPublicAddress,\n            recipient: address(0),\n            medicalStaff: msg.sender,\n            requester: address(0),\n            isSupplied: false,\n            supplyStatus: BloodSupplyStatus.Available,\n            medicalCenterName: medicalCenter.readMedicalCenter(_medicalCenterPublicAddress).name,\n            transporter: address(0),\n            bloodType: donorContract.readDonors(_donorPublicAddress).bloodType,\n            donationDate: block.timestamp,\n            status: TransactionStatus.Shipped,\n            donatedVolume: _volume,\n            bloodTestResult: \"No Result\"\n        });\n        allDonationTransactions[transactionID] = DonationTransaction({\n            transactionID: transactionID,\n            donor: _donorPublicAddress,\n            recipient: address(0),\n            medicalStaff: msg.sender,\n            requester: address(0),\n            isSupplied: false,\n            supplyStatus: BloodSupplyStatus.Available,\n            medicalCenterName: medicalCenter.readMedicalCenter(_medicalCenterPublicAddress).name,\n            transporter: address(0),\n            bloodType: donorContract.readDonors(_donorPublicAddress).bloodType,\n            donationDate: block.timestamp,\n            status: TransactionStatus.Shipped,\n            donatedVolume: _volume,\n            bloodTestResult: \"No Result\"\n        });\n        donorContract.updateVolume(_donorPublicAddress, _volume);\n        donationTransactionsArr.push(transactionID);\n\n        // Increment the transaction count\n        transactionCounter++;\n    }\n\n    function getDonationTransactionArr()\n        public\n        view\n        returns (uint256[] memory)\n    {\n        return donationTransactionsArr;\n    }\n\n    function getDonationTransaction(\n        address _medicalCenterPublicAddress,\n        uint256 _transactionID\n    )\n        public\n        view\n        returns (\n            uint256 transactionID,\n            address donorPublicAddress,\n            string memory donorName,\n            address recipientPublicAddress,\n            address medicalStaff,\n            address requester,\n            bool isSupplied,\n            BloodSupplyStatus supplyStatus,\n            string memory medicalCenterName,\n            address transporterPublicAddress,\n            string memory bloodType,\n            uint256 donationDate,\n            TransactionStatus status,\n            uint256 donatedVolume,\n            string memory bloodTestResult\n        )\n    {\n        DonationTransaction memory donationTransaction = donationTransactions[_medicalCenterPublicAddress][_transactionID];\n        transactionID = donationTransaction.transactionID;\n        donorPublicAddress = donationTransaction.donor;\n        donorName = donorContract.readDonors(donationTransaction.donor).name;\n        recipientPublicAddress = donationTransaction.recipient;\n        medicalStaff = donationTransaction.medicalStaff;\n        requester = donationTransaction.requester;\n        isSupplied = donationTransaction.isSupplied;\n        supplyStatus = donationTransaction.supplyStatus;\n        transporterPublicAddress = donationTransaction.transporter;\n        medicalCenterName = donationTransaction.medicalCenterName;\n        bloodType = donationTransaction.bloodType;\n        donationDate = donationTransaction.donationDate;\n        status = donationTransaction.status;\n        donatedVolume = donationTransaction.donatedVolume;\n        bloodTestResult = donationTransaction.bloodTestResult;\n    }\n\n    function getAllDonationTransaction(\n        uint256 _transactionID\n    )\n        public\n        view\n        returns (\n            uint256 transactionID,\n            address donorPublicAddress,\n            string memory donorName,\n            address recipientPublicAddress,\n            address medicalStaff,\n            address requester,\n            bool isSupplied,\n            BloodSupplyStatus supplyStatus,\n            string memory medicalCenterName,\n            address transporterPublicAddress,\n            string memory bloodType,\n            uint256 donationDate,\n            TransactionStatus status,\n            uint256 donatedVolume,\n            string memory bloodTestResult\n        )\n    {\n        DonationTransaction memory allDonationTransaction = allDonationTransactions[_transactionID];\n        transactionID = allDonationTransaction.transactionID;\n        donorPublicAddress = allDonationTransaction.donor;\n        donorName = donorContract.readDonors(allDonationTransaction.donor).name;\n        recipientPublicAddress = allDonationTransaction.recipient;\n        medicalStaff = allDonationTransaction.medicalStaff;\n        requester = allDonationTransaction.requester;\n        isSupplied = allDonationTransaction.isSupplied;\n        supplyStatus = allDonationTransaction.supplyStatus;\n        medicalCenterName = allDonationTransaction.medicalCenterName;\n        transporterPublicAddress = allDonationTransaction.transporter;\n        bloodType = allDonationTransaction.bloodType;\n        donationDate = allDonationTransaction.donationDate;\n        status = allDonationTransaction.status;\n        donatedVolume = allDonationTransaction.donatedVolume;\n        bloodTestResult = allDonationTransaction.bloodTestResult;\n    }\n\n    // ---------------- End Donation initialization ---------------------\n\n    // ---------------- Start Complete Donation  ------------------------\n\n    function completeDonationToMedicalCenter(\n        uint256 _transactionID,\n        string memory _bloodType,\n        uint256 _bloodPressure,\n        uint256 _hemoglobinLevel,\n        string memory _bloodTestResults\n    ) public onlyMedicalStaff {\n        require(\n            donationTransactions[msg.sender][_transactionID].status ==\n                TransactionStatus.Shipped,\n            \"Invalid transaction status\"\n        );\n        require(\n            donationTransactions[msg.sender][_transactionID].donor != address(0),\n            \"Invalid donor address\"\n        );\n\n        donationTransactions[msg.sender][_transactionID].medicalStaff = msg.sender;\n        donationTransactions[msg.sender][_transactionID].bloodType = _bloodType;\n        donationTransactions[msg.sender][_transactionID].status = TransactionStatus.Active;\n        donationTransactions[msg.sender][_transactionID].bloodTestResult = _bloodTestResults;\n        allDonationTransactions[_transactionID].medicalStaff = msg.sender;\n        allDonationTransactions[_transactionID].bloodType = _bloodType;\n        allDonationTransactions[_transactionID].status = TransactionStatus.Active;\n        allDonationTransactions[_transactionID].bloodTestResult = _bloodTestResults;\n        donorContract.updateDonorBloodType(donationTransactions[msg.sender][_transactionID].donor, _bloodType);\n        donorContract.updateDonationHistory(donationTransactions[msg.sender][_transactionID].donor, _transactionID);\n\n        uint256 recordID = block.timestamp;\n        medicalRecords[msg.sender][recordID] = MedicalRecord({\n            recordID: recordID,\n            transactionID: _transactionID,\n            donor: donationTransactions[msg.sender][_transactionID].donor,\n            bloodType: _bloodType,\n            medicalStaff: msg.sender,\n            bloodPressure: _bloodPressure,\n            hemoglobinLevel: _hemoglobinLevel,\n            bloodTestResults: _bloodTestResults\n            // donationHistory: new uint256[](0)\n        });\n        medicalRecordsArr.push(recordID);\n\n        // uint256 payment = calculatePayment(\n        //     donors[donationTransactions[_transactionID].donor].donatedVolume\n        // );\n        // uint256 payment = calculatePayment(_transactionID);\n        // donors[donationTransactions[_transactionID].donor]\n        //     .totalPayment += payment;\n        // payable(msg.sender).transfer(payment);\n    }\n\n    function fullFillBloodToRecipient(\n        uint256 _transactionID,\n        address _recipientAddress,\n        string memory _recipientName,\n        string memory _recipientPhoneNumber,\n        string memory _bloodType\n    ) public onlyMedicalStaff {\n        require(\n            donationTransactions[msg.sender][_transactionID].status ==\n                TransactionStatus.Active,\n            \"Invalid transaction status\"\n        );\n        require(compareString(donationTransactions[msg.sender][_transactionID].bloodTestResult, \"ACCEPTED\"), \"Invalid transaction status\");\n       /* require(\n            donationTransactions[msg.sender][_transactionID].donor != address(0),\n            \"Invalid donor address\"\n        ); */\n\n        donationTransactions[msg.sender][_transactionID].recipient = _recipientAddress;\n        donationTransactions[msg.sender][_transactionID].status = TransactionStatus.Fullfilled;\n        allDonationTransactions[_transactionID].recipient = _recipientAddress;\n        allDonationTransactions[_transactionID].status = TransactionStatus.Fullfilled;\n\n        uint256 recipientID = block.timestamp;\n        recipients[msg.sender][recipientID] = Recipient({\n            recipientID: recipientID,\n            transactionID: _transactionID,\n            recipientAddress: _recipientAddress,\n            recipientName: _recipientName,\n            recipientPhoneNumber: _recipientPhoneNumber,\n            bloodType: _bloodType\n        });\n\n        recipientArr.push(recipientID);\n    }\n\n    function getRecipientsArr()\n        public\n        view\n        returns (uint256[] memory)\n    {\n        return recipientArr;\n    }\n\n    function getRecipient(\n        address _medicalCenterAddress,\n        uint256 _recipientID\n    )\n        public\n        view\n        returns (\n            uint256 recipientID,\n            uint256 transactionID,\n            address recipientAddress,\n            string memory recipientName,\n            string memory recipientPhoneNumber,\n            string memory bloodType\n        )\n    {\n        Recipient memory recipient = recipients[_medicalCenterAddress][_recipientID];\n        recipientID = recipient.recipientID;\n        transactionID = recipient.transactionID;\n        recipientAddress = recipient.recipientAddress;\n        recipientName = recipient.recipientName;\n        recipientPhoneNumber = recipient.recipientPhoneNumber;\n        bloodType = recipient.bloodType;\n    }\n\n    function getMedicalRecordsArr()\n        public\n        view\n        returns (uint256[] memory)\n    {\n        return medicalRecordsArr;\n    }\n\n    function getMedicalRecord(\n        address _medicalCenterAddress,\n        uint256 _medicalRecordID\n    )\n        public\n        view\n        returns (\n            uint256 medicalRecordID,\n            uint256 transactionID,\n            address donorAddress,\n            string memory bloodType,\n            address medicalStaff,\n            uint256 bloodPressure,\n            uint256 hemoglobinLevel,\n            string memory bloodTestResult\n        )\n    {\n        MedicalRecord memory medicalRecord = medicalRecords[_medicalCenterAddress][\n            _medicalRecordID\n        ];\n        medicalRecordID = medicalRecord.recordID;\n        transactionID = medicalRecord.transactionID;\n        donorAddress = medicalRecord.donor;\n        bloodType = medicalRecord.bloodType;\n        medicalStaff = medicalRecord.medicalStaff;\n        bloodPressure = medicalRecord.bloodPressure;\n        hemoglobinLevel = medicalRecord.hemoglobinLevel;\n        bloodTestResult = medicalRecord.bloodTestResults;\n    }\n\n    // ---------------- End Complete Donation  ------------------------\n\n    // function calculatePayment(\n    //     uint256 _transactionID\n    // ) internal view returns (uint256) {\n    //     require(\n    //         donationTransactions[_transactionID].status ==\n    //             TransactionStatus.Completed,\n    //         \"Transaction not completed\"\n    //     );\n    //     // Assuming a fixed payment rate for simplicity\n    //     uint256 _donatedVolume = donationTransactions[_transactionID]\n    //         .donatedVolume;\n    //     uint256 paymentRate = 1 gwei; // 1gwei/ml\n    //     return _donatedVolume * paymentRate;\n    // }\n\n    function requestBloodSupply(uint256 _transactionID, address _medicalCenterPublicAddress , address requester_) external {\n        DonationTransaction storage donationTransaction = donationTransactions[_medicalCenterPublicAddress][_transactionID];\n        DonationTransaction storage allDonationTransaction = allDonationTransactions[_transactionID];\n        donationTransaction.requester = requester_;\n        donationTransaction.supplyStatus = BloodSupplyStatus.Requested;\n        donationTransactions[_medicalCenterPublicAddress][_transactionID] = donationTransaction;\n\n        allDonationTransaction.requester = requester_;\n        allDonationTransaction.supplyStatus = BloodSupplyStatus.Requested;\n        allDonationTransactions[_transactionID] = donationTransaction;\n    }\n\n    function approvalBloodSupplied(uint256 _transactionID, address _medicalCenterPublicAddress, address transporterAddress_ ) external {\n\n        DonationTransaction storage donationTransaction = donationTransactions[_medicalCenterPublicAddress][_transactionID];\n        DonationTransaction storage allDonationTransaction = allDonationTransactions[_transactionID];\n\n        donationTransaction.transporter = transporterAddress_;\n        donationTransaction.supplyStatus = BloodSupplyStatus.Approved;\n        donationTransactions[_medicalCenterPublicAddress][_transactionID] = donationTransaction;\n\n        allDonationTransaction.transporter = transporterAddress_;\n        allDonationTransaction.supplyStatus = BloodSupplyStatus.Approved;\n        allDonationTransactions[_transactionID] = donationTransaction;\n\n    }\n\n    function supply(address _medicalCenterPublicAddress, uint256 _transactionID) external {\n        DonationTransaction storage donationTransaction = donationTransactions[_medicalCenterPublicAddress][_transactionID];\n        DonationTransaction storage allDonationTransaction = allDonationTransactions[_transactionID];\n\n        donationTransaction.isSupplied = true;\n        donationTransactions[_medicalCenterPublicAddress][_transactionID] = donationTransaction;\n\n        allDonationTransaction.isSupplied = true;\n        allDonationTransactions[_transactionID] = donationTransaction;\n\n    }\n\n}\n",
  "sourcePath": "/home/temba/Desktop/blood-donation-blockchain-system/client-side/contracts/BloodDonationBlockchainSystem.sol",
  "compiler": {
    "name": "solc",
    "version": "0.8.19+commit.7dd6d404.Emscripten.clang"
  },
  "schemaVersion": "3.4.16",
  "updatedAt": "2024-03-17T21:25:58.686Z",
  "networkType": "ethereum",
  "devdoc": {
    "author": "Josephat E. Temba",
    "custom:fyp": "This is the final year project for cive students",
    "details": "This is best aproach for developers to learn how real dapp looking for",
    "kind": "dev",
    "methods": {},
    "title": "Blood Donation Blockchain-based System",
    "version": 1
  },
  "userdoc": {
    "kind": "user",
    "methods": {},
    "notice": "You can use this smart contract in real blood donation operations",
    "version": 1
  }
}