{
  "contractName": "CollectionPointContract",
  "abi": [
    {
      "anonymous": false,
      "inputs": [
        {
          "indexed": false,
          "internalType": "address",
          "name": "collectionPointAddress",
          "type": "address"
        }
      ],
      "name": "deletedCollectionPoint",
      "type": "event"
    },
    {
      "inputs": [
        {
          "internalType": "uint256",
          "name": "",
          "type": "uint256"
        }
      ],
      "name": "collectionPointAddressArr",
      "outputs": [
        {
          "internalType": "address",
          "name": "",
          "type": "address"
        }
      ],
      "stateMutability": "view",
      "type": "function",
      "constant": true
    },
    {
      "inputs": [
        {
          "internalType": "address",
          "name": "",
          "type": "address"
        }
      ],
      "name": "collectionPoints",
      "outputs": [
        {
          "internalType": "address",
          "name": "CPPublicAddress",
          "type": "address"
        },
        {
          "internalType": "string",
          "name": "name",
          "type": "string"
        },
        {
          "internalType": "string",
          "name": "phoneNumber",
          "type": "string"
        },
        {
          "internalType": "string",
          "name": "password",
          "type": "string"
        },
        {
          "internalType": "bool",
          "name": "isRegistered",
          "type": "bool"
        },
        {
          "internalType": "bool",
          "name": "isLogin",
          "type": "bool"
        },
        {
          "internalType": "bool",
          "name": "isDeleted",
          "type": "bool"
        }
      ],
      "stateMutability": "view",
      "type": "function",
      "constant": true
    },
    {
      "inputs": [
        {
          "internalType": "address",
          "name": "_collectionPointAddress",
          "type": "address"
        }
      ],
      "name": "readCollectionPoint",
      "outputs": [
        {
          "components": [
            {
              "internalType": "address",
              "name": "CPPublicAddress",
              "type": "address"
            },
            {
              "internalType": "string",
              "name": "name",
              "type": "string"
            },
            {
              "internalType": "string",
              "name": "phoneNumber",
              "type": "string"
            },
            {
              "internalType": "string",
              "name": "password",
              "type": "string"
            },
            {
              "internalType": "bool",
              "name": "isRegistered",
              "type": "bool"
            },
            {
              "internalType": "bool",
              "name": "isLogin",
              "type": "bool"
            },
            {
              "internalType": "bool",
              "name": "isDeleted",
              "type": "bool"
            }
          ],
          "internalType": "struct CollectionPointContract.CollectionPoint",
          "name": "",
          "type": "tuple"
        }
      ],
      "stateMutability": "view",
      "type": "function",
      "constant": true
    },
    {
      "inputs": [
        {
          "internalType": "address",
          "name": "_CPPublicAddress",
          "type": "address"
        },
        {
          "internalType": "string",
          "name": "_name",
          "type": "string"
        },
        {
          "internalType": "string",
          "name": "_contactNumber",
          "type": "string"
        },
        {
          "internalType": "string",
          "name": "_password",
          "type": "string"
        }
      ],
      "name": "addCollectionPoint",
      "outputs": [],
      "stateMutability": "nonpayable",
      "type": "function"
    },
    {
      "inputs": [
        {
          "internalType": "string",
          "name": "_oldPassword",
          "type": "string"
        },
        {
          "internalType": "string",
          "name": "_newPassword",
          "type": "string"
        }
      ],
      "name": "collectionPointChangePassword",
      "outputs": [],
      "stateMutability": "nonpayable",
      "type": "function"
    },
    {
      "inputs": [
        {
          "internalType": "address",
          "name": "_MCPublicAddress",
          "type": "address"
        },
        {
          "internalType": "string",
          "name": "_password",
          "type": "string"
        }
      ],
      "name": "collectionPointLogin",
      "outputs": [],
      "stateMutability": "nonpayable",
      "type": "function"
    },
    {
      "inputs": [
        {
          "internalType": "address",
          "name": "_MCPublicAddress",
          "type": "address"
        }
      ],
      "name": "collectionPointLogout",
      "outputs": [],
      "stateMutability": "nonpayable",
      "type": "function"
    },
    {
      "inputs": [],
      "name": "getCollectionPointsArr",
      "outputs": [
        {
          "internalType": "address[]",
          "name": "",
          "type": "address[]"
        }
      ],
      "stateMutability": "view",
      "type": "function",
      "constant": true
    },
    {
      "inputs": [
        {
          "internalType": "address",
          "name": "_collectionPointPublicAddress",
          "type": "address"
        }
      ],
      "name": "getCollectionPoint",
      "outputs": [
        {
          "internalType": "address",
          "name": "CPPublicAddress",
          "type": "address"
        },
        {
          "internalType": "string",
          "name": "name",
          "type": "string"
        },
        {
          "internalType": "string",
          "name": "phoneNumber",
          "type": "string"
        }
      ],
      "stateMutability": "view",
      "type": "function",
      "constant": true
    },
    {
      "inputs": [
        {
          "internalType": "address",
          "name": "collectionPointAddress_",
          "type": "address"
        }
      ],
      "name": "deleteCollectionPoint",
      "outputs": [],
      "stateMutability": "nonpayable",
      "type": "function"
    }
  ],
  "bytecode": "0x60a060405234801561001057600080fd5b503373ffffffffffffffffffffffffffffffffffffffff1660808173ffffffffffffffffffffffffffffffffffffffff168152505060805161288c6100606000396000610cbc015261288c6000f3fe608060405234801561001057600080fd5b506004361061009e5760003560e01c806383e1bdbd1161006657806383e1bdbd146101715780638ab9116b1461018d5780639b7128a3146101a9578063a570b617146101c7578063ef4b61cf146101e35761009e565b80631c3432ef146100a357806325931241146100bf578063422a3433146100f55780634d3b2443146101255780635d4dbda414610141575b600080fd5b6100bd60048036038101906100b8919061198a565b610215565b005b6100d960048036038101906100d491906119e6565b61041c565b6040516100ec9796959493929190611abc565b60405180910390f35b61010f600480360381019061010a91906119e6565b61063d565b60405161011c9190611c52565b60405180910390f35b61013f600480360381019061013a91906119e6565b6108f3565b005b61015b60048036038101906101569190611caa565b610b8e565b6040516101689190611cd7565b60405180910390f35b61018b600480360381019061018691906119e6565b610bcd565b005b6101a760048036038101906101a29190611cf2565b610cba565b005b6101b1611046565b6040516101be9190611e5c565b60405180910390f35b6101e160048036038101906101dc9190611e7e565b6110d4565b005b6101fd60048036038101906101f891906119e6565b611453565b60405161020c93929190611ef6565b60405180910390f35b60011515600160008473ffffffffffffffffffffffffffffffffffffffff1673ffffffffffffffffffffffffffffffffffffffff16815260200190815260200160002060040160009054906101000a900460ff161515146102ab576040517f08c379a00000000000000000000000000000000000000000000000000000000081526004016102a290611f87565b60405180910390fd5b61037f600160008473ffffffffffffffffffffffffffffffffffffffff1673ffffffffffffffffffffffffffffffffffffffff16815260200190815260200160002060030180546102fb90611fd6565b80601f016020809104026020016040519081016040528092919081815260200182805461032790611fd6565b80156103745780601f1061034957610100808354040283529160200191610374565b820191906000526020600020905b81548152906001019060200180831161035757829003601f168201915b505050505082611720565b6103be576040517f08c379a00000000000000000000000000000000000000000000000000000000081526004016103b590612053565b60405180910390fd5b60018060008473ffffffffffffffffffffffffffffffffffffffff1673ffffffffffffffffffffffffffffffffffffffff16815260200190815260200160002060040160016101000a81548160ff0219169083151502179055505050565b60016020528060005260406000206000915090508060000160009054906101000a900473ffffffffffffffffffffffffffffffffffffffff169080600101805461046590611fd6565b80601f016020809104026020016040519081016040528092919081815260200182805461049190611fd6565b80156104de5780601f106104b3576101008083540402835291602001916104de565b820191906000526020600020905b8154815290600101906020018083116104c157829003601f168201915b5050505050908060020180546104f390611fd6565b80601f016020809104026020016040519081016040528092919081815260200182805461051f90611fd6565b801561056c5780601f106105415761010080835404028352916020019161056c565b820191906000526020600020905b81548152906001019060200180831161054f57829003601f168201915b50505050509080600301805461058190611fd6565b80601f01602080910402602001604051908101604052809291908181526020018280546105ad90611fd6565b80156105fa5780601f106105cf576101008083540402835291602001916105fa565b820191906000526020600020905b8154815290600101906020018083116105dd57829003601f168201915b5050505050908060040160009054906101000a900460ff16908060040160019054906101000a900460ff16908060040160029054906101000a900460ff16905087565b610645611779565b600160008373ffffffffffffffffffffffffffffffffffffffff1673ffffffffffffffffffffffffffffffffffffffff1681526020019081526020016000206040518060e00160405290816000820160009054906101000a900473ffffffffffffffffffffffffffffffffffffffff1673ffffffffffffffffffffffffffffffffffffffff1673ffffffffffffffffffffffffffffffffffffffff1681526020016001820180546106f590611fd6565b80601f016020809104026020016040519081016040528092919081815260200182805461072190611fd6565b801561076e5780601f106107435761010080835404028352916020019161076e565b820191906000526020600020905b81548152906001019060200180831161075157829003601f168201915b5050505050815260200160028201805461078790611fd6565b80601f01602080910402602001604051908101604052809291908181526020018280546107b390611fd6565b80156108005780601f106107d557610100808354040283529160200191610800565b820191906000526020600020905b8154815290600101906020018083116107e357829003601f168201915b5050505050815260200160038201805461081990611fd6565b80601f016020809104026020016040519081016040528092919081815260200182805461084590611fd6565b80156108925780601f1061086757610100808354040283529160200191610892565b820191906000526020600020905b81548152906001019060200180831161087557829003601f168201915b505050505081526020016004820160009054906101000a900460ff161515151581526020016004820160019054906101000a900460ff161515151581526020016004820160029054906101000a900460ff1615151515815250509050919050565b600160008273ffffffffffffffffffffffffffffffffffffffff1673ffffffffffffffffffffffffffffffffffffffff16815260200190815260200160002060040160029054906101000a900460ff1615610983576040517f08c379a000000000000000000000000000000000000000000000000000000000815260040161097a906120bf565b60405180910390fd5b6000600160008373ffffffffffffffffffffffffffffffffffffffff1673ffffffffffffffffffffffffffffffffffffffff168152602001908152602001600020905060018160040160026101000a81548160ff02191690831515021790555080600160008473ffffffffffffffffffffffffffffffffffffffff1673ffffffffffffffffffffffffffffffffffffffff1681526020019081526020016000206000820160009054906101000a900473ffffffffffffffffffffffffffffffffffffffff168160000160006101000a81548173ffffffffffffffffffffffffffffffffffffffff021916908373ffffffffffffffffffffffffffffffffffffffff16021790555060018201816001019081610a9e91906122a1565b5060028201816002019081610ab391906122a1565b5060038201816003019081610ac891906122a1565b506004820160009054906101000a900460ff168160040160006101000a81548160ff0219169083151502179055506004820160019054906101000a900460ff168160040160016101000a81548160ff0219169083151502179055506004820160029054906101000a900460ff168160040160026101000a81548160ff0219169083151502179055509050507fa4973fbcf8ca336a0d4f20ff722b34f3d13620ef72dfd96cf6330c6f73fef5e082604051610b829190611cd7565b60405180910390a15050565b60028181548110610b9e57600080fd5b906000526020600020016000915054906101000a900473ffffffffffffffffffffffffffffffffffffffff1681565b600160008273ffffffffffffffffffffffffffffffffffffffff1673ffffffffffffffffffffffffffffffffffffffff16815260200190815260200160002060040160019054906101000a900460ff16610c5c576040517f08c379a0000000000000000000000000000000000000000000000000000000008152600401610c53906123d5565b60405180910390fd5b6000600160008373ffffffffffffffffffffffffffffffffffffffff1673ffffffffffffffffffffffffffffffffffffffff16815260200190815260200160002060040160016101000a81548160ff02191690831515021790555050565b7f000000000000000000000000000000000000000000000000000000000000000073ffffffffffffffffffffffffffffffffffffffff163373ffffffffffffffffffffffffffffffffffffffff1614610d48576040517f08c379a0000000000000000000000000000000000000000000000000000000008152600401610d3f90612441565b60405180910390fd5b60008054906101000a900460ff1615610d96576040517f08c379a0000000000000000000000000000000000000000000000000000000008152600401610d8d906124ad565b60405180910390fd5b60016000806101000a81548160ff02191690831515021790555060001515600160008673ffffffffffffffffffffffffffffffffffffffff1673ffffffffffffffffffffffffffffffffffffffff16815260200190815260200160002060040160009054906101000a900460ff16151514610e46576040517f08c379a0000000000000000000000000000000000000000000000000000000008152600401610e3d9061253f565b60405180910390fd5b6040518060e001604052808573ffffffffffffffffffffffffffffffffffffffff16815260200184815260200183815260200182815260200160011515815260200160001515815260200160001515815250600160008673ffffffffffffffffffffffffffffffffffffffff1673ffffffffffffffffffffffffffffffffffffffff16815260200190815260200160002060008201518160000160006101000a81548173ffffffffffffffffffffffffffffffffffffffff021916908373ffffffffffffffffffffffffffffffffffffffff1602179055506020820151816001019081610f33919061255f565b506040820151816002019081610f49919061255f565b506060820151816003019081610f5f919061255f565b5060808201518160040160006101000a81548160ff02191690831515021790555060a08201518160040160016101000a81548160ff02191690831515021790555060c08201518160040160026101000a81548160ff0219169083151502179055509050506002849080600181540180825580915050600190039060005260206000200160009091909190916101000a81548173ffffffffffffffffffffffffffffffffffffffff021916908373ffffffffffffffffffffffffffffffffffffffff16021790555060008060006101000a81548160ff02191690831515021790555050505050565b606060028054806020026020016040519081016040528092919081815260200182805480156110ca57602002820191906000526020600020905b8160009054906101000a900473ffffffffffffffffffffffffffffffffffffffff1673ffffffffffffffffffffffffffffffffffffffff1681526020019060010190808311611080575b5050505050905090565b60011515600160003373ffffffffffffffffffffffffffffffffffffffff1673ffffffffffffffffffffffffffffffffffffffff16815260200190815260200160002060040160019054906101000a900460ff1615151461116a576040517f08c379a00000000000000000000000000000000000000000000000000000000081526004016111619061267d565b60405180910390fd5b61123e600160003373ffffffffffffffffffffffffffffffffffffffff1673ffffffffffffffffffffffffffffffffffffffff16815260200190815260200160002060030180546111ba90611fd6565b80601f01602080910402602001604051908101604052809291908181526020018280546111e690611fd6565b80156112335780601f1061120857610100808354040283529160200191611233565b820191906000526020600020905b81548152906001019060200180831161121657829003601f168201915b505050505083611720565b61127d576040517f08c379a0000000000000000000000000000000000000000000000000000000008152600401611274906126e9565b60405180910390fd5b6000816040516020016112909190612709565b6040516020818303038152906040528051906020012050602060ff16116112ec576040517f08c379a00000000000000000000000000000000000000000000000000000000081526004016112e390612777565b60405180910390fd5b6113c0600160003373ffffffffffffffffffffffffffffffffffffffff1673ffffffffffffffffffffffffffffffffffffffff168152602001908152602001600020600301805461133c90611fd6565b80601f016020809104026020016040519081016040528092919081815260200182805461136890611fd6565b80156113b55780601f1061138a576101008083540402835291602001916113b5565b820191906000526020600020905b81548152906001019060200180831161139857829003601f168201915b505050505082611720565b6113ff576040517f08c379a00000000000000000000000000000000000000000000000000000000081526004016113f6906127e3565b60405180910390fd5b80600160003373ffffffffffffffffffffffffffffffffffffffff1673ffffffffffffffffffffffffffffffffffffffff168152602001908152602001600020600301908161144e919061255f565b505050565b60006060806000600160008673ffffffffffffffffffffffffffffffffffffffff1673ffffffffffffffffffffffffffffffffffffffff1681526020019081526020016000206040518060e00160405290816000820160009054906101000a900473ffffffffffffffffffffffffffffffffffffffff1673ffffffffffffffffffffffffffffffffffffffff1673ffffffffffffffffffffffffffffffffffffffff16815260200160018201805461150a90611fd6565b80601f016020809104026020016040519081016040528092919081815260200182805461153690611fd6565b80156115835780601f1061155857610100808354040283529160200191611583565b820191906000526020600020905b81548152906001019060200180831161156657829003601f168201915b5050505050815260200160028201805461159c90611fd6565b80601f01602080910402602001604051908101604052809291908181526020018280546115c890611fd6565b80156116155780601f106115ea57610100808354040283529160200191611615565b820191906000526020600020905b8154815290600101906020018083116115f857829003601f168201915b5050505050815260200160038201805461162e90611fd6565b80601f016020809104026020016040519081016040528092919081815260200182805461165a90611fd6565b80156116a75780601f1061167c576101008083540402835291602001916116a7565b820191906000526020600020905b81548152906001019060200180831161168a57829003601f168201915b505050505081526020016004820160009054906101000a900460ff161515151581526020016004820160019054906101000a900460ff161515151581526020016004820160029054906101000a900460ff1615151515815250509050806000015193508060200151925080604001519150509193909250565b600081604051602001611733919061283f565b604051602081830303815290604052805190602001208360405160200161175a919061283f565b6040516020818303038152906040528051906020012014905092915050565b6040518060e00160405280600073ffffffffffffffffffffffffffffffffffffffff1681526020016060815260200160608152602001606081526020016000151581526020016000151581526020016000151581525090565b6000604051905090565b600080fd5b600080fd5b600073ffffffffffffffffffffffffffffffffffffffff82169050919050565b6000611811826117e6565b9050919050565b61182181611806565b811461182c57600080fd5b50565b60008135905061183e81611818565b92915050565b600080fd5b600080fd5b6000601f19601f8301169050919050565b7f4e487b7100000000000000000000000000000000000000000000000000000000600052604160045260246000fd5b6118978261184e565b810181811067ffffffffffffffff821117156118b6576118b561185f565b5b80604052505050565b60006118c96117d2565b90506118d5828261188e565b919050565b600067ffffffffffffffff8211156118f5576118f461185f565b5b6118fe8261184e565b9050602081019050919050565b82818337600083830152505050565b600061192d611928846118da565b6118bf565b90508281526020810184848401111561194957611948611849565b5b61195484828561190b565b509392505050565b600082601f83011261197157611970611844565b5b813561198184826020860161191a565b91505092915050565b600080604083850312156119a1576119a06117dc565b5b60006119af8582860161182f565b925050602083013567ffffffffffffffff8111156119d0576119cf6117e1565b5b6119dc8582860161195c565b9150509250929050565b6000602082840312156119fc576119fb6117dc565b5b6000611a0a8482850161182f565b91505092915050565b611a1c81611806565b82525050565b600081519050919050565b600082825260208201905092915050565b60005b83811015611a5c578082015181840152602081019050611a41565b60008484015250505050565b6000611a7382611a22565b611a7d8185611a2d565b9350611a8d818560208601611a3e565b611a968161184e565b840191505092915050565b60008115159050919050565b611ab681611aa1565b82525050565b600060e082019050611ad1600083018a611a13565b8181036020830152611ae38189611a68565b90508181036040830152611af78188611a68565b90508181036060830152611b0b8187611a68565b9050611b1a6080830186611aad565b611b2760a0830185611aad565b611b3460c0830184611aad565b98975050505050505050565b611b4981611806565b82525050565b600082825260208201905092915050565b6000611b6b82611a22565b611b758185611b4f565b9350611b85818560208601611a3e565b611b8e8161184e565b840191505092915050565b611ba281611aa1565b82525050565b600060e083016000830151611bc06000860182611b40565b5060208301518482036020860152611bd88282611b60565b91505060408301518482036040860152611bf28282611b60565b91505060608301518482036060860152611c0c8282611b60565b9150506080830151611c216080860182611b99565b5060a0830151611c3460a0860182611b99565b5060c0830151611c4760c0860182611b99565b508091505092915050565b60006020820190508181036000830152611c6c8184611ba8565b905092915050565b6000819050919050565b611c8781611c74565b8114611c9257600080fd5b50565b600081359050611ca481611c7e565b92915050565b600060208284031215611cc057611cbf6117dc565b5b6000611cce84828501611c95565b91505092915050565b6000602082019050611cec6000830184611a13565b92915050565b60008060008060808587031215611d0c57611d0b6117dc565b5b6000611d1a8782880161182f565b945050602085013567ffffffffffffffff811115611d3b57611d3a6117e1565b5b611d478782880161195c565b935050604085013567ffffffffffffffff811115611d6857611d676117e1565b5b611d748782880161195c565b925050606085013567ffffffffffffffff811115611d9557611d946117e1565b5b611da18782880161195c565b91505092959194509250565b600081519050919050565b600082825260208201905092915050565b6000819050602082019050919050565b6000611de58383611b40565b60208301905092915050565b6000602082019050919050565b6000611e0982611dad565b611e138185611db8565b9350611e1e83611dc9565b8060005b83811015611e4f578151611e368882611dd9565b9750611e4183611df1565b925050600181019050611e22565b5085935050505092915050565b60006020820190508181036000830152611e768184611dfe565b905092915050565b60008060408385031215611e9557611e946117dc565b5b600083013567ffffffffffffffff811115611eb357611eb26117e1565b5b611ebf8582860161195c565b925050602083013567ffffffffffffffff811115611ee057611edf6117e1565b5b611eec8582860161195c565b9150509250929050565b6000606082019050611f0b6000830186611a13565b8181036020830152611f1d8185611a68565b90508181036040830152611f318184611a68565b9050949350505050565b7f596f7572206e6f74207265676973746572656420796574210000000000000000600082015250565b6000611f71601883611a2d565b9150611f7c82611f3b565b602082019050919050565b60006020820190508181036000830152611fa081611f64565b9050919050565b7f4e487b7100000000000000000000000000000000000000000000000000000000600052602260045260246000fd5b60006002820490506001821680611fee57607f821691505b60208210810361200157612000611fa7565b5b50919050565b7f496e76616c69642061646472657373206f722070617373776f72640000000000600082015250565b600061203d601b83611a2d565b915061204882612007565b602082019050919050565b6000602082019050818103600083015261206c81612030565b9050919050565b7f54686973206461746120646f6573206e6f742065786973740000000000000000600082015250565b60006120a9601883611a2d565b91506120b482612073565b602082019050919050565b600060208201905081810360008301526120d88161209c565b9050919050565b6000815490506120ee81611fd6565b9050919050565b60008190508160005260206000209050919050565b60006020601f8301049050919050565b600082821b905092915050565b6000600883026121577fffffffffffffffffffffffffffffffffffffffffffffffffffffffffffffffff8261211a565b612161868361211a565b95508019841693508086168417925050509392505050565b6000819050919050565b600061219e61219961219484611c74565b612179565b611c74565b9050919050565b6000819050919050565b6121b883612183565b6121cc6121c4826121a5565b848454612127565b825550505050565b600090565b6121e16121d4565b6121ec8184846121af565b505050565b5b81811015612210576122056000826121d9565b6001810190506121f2565b5050565b601f82111561225557612226816120f5565b61222f8461210a565b8101602085101561223e578190505b61225261224a8561210a565b8301826121f1565b50505b505050565b600082821c905092915050565b60006122786000198460080261225a565b1980831691505092915050565b60006122918383612267565b9150826002028217905092915050565b8181036122af575050612387565b6122b8826120df565b67ffffffffffffffff8111156122d1576122d061185f565b5b6122db8254611fd6565b6122e6828285612214565b6000601f8311600181146123155760008415612303578287015490505b61230d8582612285565b865550612380565b601f198416612323876120f5565b965061232e866120f5565b60005b8281101561235657848901548255600182019150600185019450602081019050612331565b86831015612373578489015461236f601f891682612267565b8355505b6001600288020188555050505b5050505050505b565b7f596f75277265206e6f74206c6f6767656420696e000000000000000000000000600082015250565b60006123bf601483611a2d565b91506123ca82612389565b602082019050919050565b600060208201905081810360008301526123ee816123b2565b9050919050565b7f5265737472696374656420746f2073797374656d206f776e6572206f6e6c7900600082015250565b600061242b601f83611a2d565b9150612436826123f5565b602082019050919050565b6000602082019050818103600083015261245a8161241e565b9050919050565b7f5265656e7472616e742063616c6c2e0000000000000000000000000000000000600082015250565b6000612497600f83611a2d565b91506124a282612461565b602082019050919050565b600060208201905081810360008301526124c68161248a565b9050919050565b7f4d65646963616c2063656e74657220697320616c72656164792072656769737460008201527f6572656400000000000000000000000000000000000000000000000000000000602082015250565b6000612529602483611a2d565b9150612534826124cd565b604082019050919050565b600060208201905081810360008301526125588161251c565b9050919050565b61256882611a22565b67ffffffffffffffff8111156125815761258061185f565b5b61258b8254611fd6565b612596828285612214565b600060209050601f8311600181146125c957600084156125b7578287015190505b6125c18582612285565b865550612629565b601f1984166125d7866120f5565b60005b828110156125ff578489015182556001820191506020850194506020810190506125da565b8683101561261c5784890151612618601f891682612267565b8355505b6001600288020188555050505b505050505050565b7f4e6f74206c6f6767656420696e00000000000000000000000000000000000000600082015250565b6000612667600d83611a2d565b915061267282612631565b602082019050919050565b600060208201905081810360008301526126968161265a565b9050919050565b7f496e76616c6964206f6c642070617373776f7264000000000000000000000000600082015250565b60006126d3601483611a2d565b91506126de8261269d565b602082019050919050565b60006020820190508181036000830152612702816126c6565b9050919050565b600060208201905081810360008301526127238184611a68565b905092915050565b7f50617373776f72642073686f756c64206e6f7420626520656d70747900000000600082015250565b6000612761601c83611a2d565b915061276c8261272b565b602082019050919050565b6000602082019050818103600083015261279081612754565b9050919050565b7f496e76616c6964206e65772070617373776f7264000000000000000000000000600082015250565b60006127cd601483611a2d565b91506127d882612797565b602082019050919050565b600060208201905081810360008301526127fc816127c0565b9050919050565b600081905092915050565b600061281982611a22565b6128238185612803565b9350612833818560208601611a3e565b80840191505092915050565b600061284b828461280e565b91508190509291505056fea26469706673582212202a5af43a6be2132cb20829a5474cc621f2b5b315ce56fce01227d5092ef6e20664736f6c63430008130033",
  "immutableReferences": {
    "3": [
      {
        "length": 32,
        "start": 3260
      }
    ]
  },
  "source": "// SPDX-License-Identifier: MIT\npragma solidity ^0.8.19;\nimport \"./AccessControl.sol\";\n\ncontract CollectionPointContract is AccessControl {\n    event deletedCollectionPoint(address collectionPointAddress);\n\n    struct CollectionPoint {\n        address CPPublicAddress;\n        string name;\n        string phoneNumber;\n        string password;\n        bool isRegistered;\n        bool isLogin;\n        bool isDeleted;\n    }\n\n    mapping(address => CollectionPoint) public collectionPoints;\n\n    address[] public collectionPointAddressArr;\n\n    function readCollectionPoint(address _collectionPointAddress) external view returns (CollectionPoint memory) {\n        return collectionPoints[_collectionPointAddress];\n    }\n\n    function addCollectionPoint(\n        address _CPPublicAddress,\n        string memory _name,\n        string memory _contactNumber,\n        string memory _password\n    ) public onlyOwner noReentrancy {\n        require(\n            collectionPoints[_CPPublicAddress].isRegistered == false,\n            \"Medical center is already registered\"\n        );\n        collectionPoints[_CPPublicAddress] = CollectionPoint({\n            CPPublicAddress: _CPPublicAddress,\n            name: _name,\n            phoneNumber: _contactNumber,\n            password: _password,\n            isRegistered: true,\n            isLogin: false,\n            isDeleted: false\n        });\n        collectionPointAddressArr.push(_CPPublicAddress);\n        \n    }\n\n    function collectionPointChangePassword(string memory _oldPassword, string memory _newPassword) external {\n        require(collectionPoints[msg.sender].isLogin == true, \"Not logged in\");\n        require(compareString(collectionPoints[msg.sender].password, _oldPassword), \"Invalid old password\");\n        require(keccak256(abi.encode(_newPassword)).length > 0, \"Password should not be empty\");\n        require(compareString(collectionPoints[msg.sender].password, _newPassword), \"Invalid new password\");\n\n        collectionPoints[msg.sender].password = _newPassword;\n    }\n\n    function  collectionPointLogin(address _MCPublicAddress, string memory _password) public {\n        require(collectionPoints[_MCPublicAddress].isRegistered == true, \"Your not registered yet!\");\n        // require(collectionPoints[_MCPublicAddress].isLogin == false, \"Your Already login\");\n        require(compareString(collectionPoints[_MCPublicAddress].password, _password), \"Invalid address or password\");\n\n        // CollectionPoint memory collectionPoint = collectionPoints[_MCPublicAddress];\n        // collectionPoint.isLogin = true;\n        collectionPoints[_MCPublicAddress].isLogin = true;\n    }\n\n    function collectionPointLogout(address _MCPublicAddress) public {\n        require(collectionPoints[_MCPublicAddress].isLogin, \"You're not logged in\");\n\n        collectionPoints[_MCPublicAddress].isLogin = false;\n    }\n\n    function getCollectionPointsArr() public view returns (address[] memory) {\n        return collectionPointAddressArr;\n    }\n\n    function getCollectionPoint(\n        address _collectionPointPublicAddress\n    )\n        public\n        view\n        returns (\n            address CPPublicAddress,\n            string memory name,\n            string memory phoneNumber\n        )\n    {\n        CollectionPoint memory collectionPoint = collectionPoints[_collectionPointPublicAddress];\n        CPPublicAddress = collectionPoint.CPPublicAddress;\n        name = collectionPoint.name;\n        phoneNumber = collectionPoint.phoneNumber;\n    }\n\n    function deleteCollectionPoint(address collectionPointAddress_) external {\n        require(!collectionPoints[collectionPointAddress_].isDeleted, \"This data does not exist\");\n        CollectionPoint storage colletionPoint = collectionPoints[collectionPointAddress_];\n        colletionPoint.isDeleted = true;\n        collectionPoints[collectionPointAddress_] = colletionPoint;\n        emit deletedCollectionPoint(collectionPointAddress_);\n    }\n\n}\n",
  "sourcePath": "/home/temba/Desktop/blood-donation-blockchain-system/client-side/contracts/CollectionPointContract.sol",
  "compiler": {
    "name": "solc",
    "version": "0.8.19+commit.7dd6d404.Emscripten.clang"
  },
  "schemaVersion": "3.4.16",
  "updatedAt": "2024-03-17T11:55:43.975Z",
  "networkType": "ethereum",
  "devdoc": {
    "kind": "dev",
    "methods": {},
    "version": 1
  },
  "userdoc": {
    "kind": "user",
    "methods": {},
    "version": 1
  }
}