{
  "contractName": "CollectionPointContract",
  "abi": [
    {
      "anonymous": false,
      "inputs": [
        {
          "indexed": false,
          "internalType": "address",
          "name": "collectionPointAddress",
          "type": "address"
        }
      ],
      "name": "deletedCollectionPoint",
      "type": "event"
    },
    {
      "inputs": [
        {
          "internalType": "uint256",
          "name": "",
          "type": "uint256"
        }
      ],
      "name": "collectionPointAddressArr",
      "outputs": [
        {
          "internalType": "address",
          "name": "",
          "type": "address"
        }
      ],
      "stateMutability": "view",
      "type": "function",
      "constant": true
    },
    {
      "inputs": [
        {
          "internalType": "address",
          "name": "",
          "type": "address"
        }
      ],
      "name": "collectionPoints",
      "outputs": [
        {
          "internalType": "address",
          "name": "CPPublicAddress",
          "type": "address"
        },
        {
          "internalType": "string",
          "name": "name",
          "type": "string"
        },
        {
          "internalType": "string",
          "name": "phoneNumber",
          "type": "string"
        },
        {
          "internalType": "string",
          "name": "password",
          "type": "string"
        },
        {
          "internalType": "bool",
          "name": "isRegistered",
          "type": "bool"
        },
        {
          "internalType": "bool",
          "name": "isLogin",
          "type": "bool"
        },
        {
          "internalType": "bool",
          "name": "isDeleted",
          "type": "bool"
        }
      ],
      "stateMutability": "view",
      "type": "function",
      "constant": true
    },
    {
      "inputs": [
        {
          "internalType": "address",
          "name": "_collectionPointAddress",
          "type": "address"
        }
      ],
      "name": "readCollectionPoint",
      "outputs": [
        {
          "components": [
            {
              "internalType": "address",
              "name": "CPPublicAddress",
              "type": "address"
            },
            {
              "internalType": "string",
              "name": "name",
              "type": "string"
            },
            {
              "internalType": "string",
              "name": "phoneNumber",
              "type": "string"
            },
            {
              "internalType": "string",
              "name": "password",
              "type": "string"
            },
            {
              "internalType": "bool",
              "name": "isRegistered",
              "type": "bool"
            },
            {
              "internalType": "bool",
              "name": "isLogin",
              "type": "bool"
            },
            {
              "internalType": "bool",
              "name": "isDeleted",
              "type": "bool"
            }
          ],
          "internalType": "struct CollectionPointContract.CollectionPoint",
          "name": "",
          "type": "tuple"
        }
      ],
      "stateMutability": "view",
      "type": "function",
      "constant": true
    },
    {
      "inputs": [
        {
          "internalType": "address",
          "name": "_CPPublicAddress",
          "type": "address"
        },
        {
          "internalType": "string",
          "name": "_name",
          "type": "string"
        },
        {
          "internalType": "string",
          "name": "_contactNumber",
          "type": "string"
        },
        {
          "internalType": "string",
          "name": "_password",
          "type": "string"
        }
      ],
      "name": "addCollectionPoint",
      "outputs": [],
      "stateMutability": "nonpayable",
      "type": "function"
    },
    {
      "inputs": [
        {
          "internalType": "string",
          "name": "_oldPassword",
          "type": "string"
        },
        {
          "internalType": "string",
          "name": "_newPassword",
          "type": "string"
        }
      ],
      "name": "collectionPointChangePassword",
      "outputs": [],
      "stateMutability": "nonpayable",
      "type": "function"
    },
    {
      "inputs": [
        {
          "internalType": "address",
          "name": "_MCPublicAddress",
          "type": "address"
        },
        {
          "internalType": "string",
          "name": "_password",
          "type": "string"
        }
      ],
      "name": "collectionPointLogin",
      "outputs": [],
      "stateMutability": "nonpayable",
      "type": "function"
    },
    {
      "inputs": [
        {
          "internalType": "address",
          "name": "_MCPublicAddress",
          "type": "address"
        }
      ],
      "name": "collectionPointLogout",
      "outputs": [],
      "stateMutability": "nonpayable",
      "type": "function"
    },
    {
      "inputs": [],
      "name": "getCollectionPointsArr",
      "outputs": [
        {
          "internalType": "address[]",
          "name": "",
          "type": "address[]"
        }
      ],
      "stateMutability": "view",
      "type": "function",
      "constant": true
    },
    {
      "inputs": [
        {
          "internalType": "address",
          "name": "_collectionPointPublicAddress",
          "type": "address"
        }
      ],
      "name": "getCollectionPoint",
      "outputs": [
        {
          "internalType": "address",
          "name": "CPPublicAddress",
          "type": "address"
        },
        {
          "internalType": "string",
          "name": "name",
          "type": "string"
        },
        {
          "internalType": "string",
          "name": "phoneNumber",
          "type": "string"
        }
      ],
      "stateMutability": "view",
      "type": "function",
      "constant": true
    },
    {
      "inputs": [
        {
          "internalType": "address",
          "name": "collectionPointAddress_",
          "type": "address"
        }
      ],
      "name": "deleteCollectionPoint",
      "outputs": [],
      "stateMutability": "nonpayable",
      "type": "function"
    }
  ],
  "bytecode": "0x60a0806040523461002357336080526112ae908161002982396080518161057d0152f35b600080fdfe604060808152600436101561001357600080fd5b7c01000000000000000000000000000000000000000000000000000000006000350480631c3432ef14610e505780632593124114610d86578063422a343314610c2d5780634d3b244314610b5d5780635d4dbda414610b1757806383e1bdbd14610a765780638ab9116b146104f75780639b7128a314610431578063a570b617146101865763ef4b61cf146100a757600080fd5b3461018157602036600319011261018157600160a060020a03806100c9610f7d565b16600052600160205261017d82600020928051926100e684610f93565b8085541684526100f86001860161107c565b936020810194855260ff62010000600461011460028a0161107c565b98868501998a526101276003820161107c565b606086015201548281161515608085015282610100820416151560a08501520416151560c082015251169251935161017082519586958652606060208701526060860190611144565b9184830390850152611144565b0390f35b600080fd5b503461018157806003193601126101815767ffffffffffffffff600435818111610181576101b8903690600401610fd1565b90602435818111610181576101d1903690600401610fd1565b923360005260016020938185528160ff610100600486600020015404161515036103eb57610214903360005282865261020f6003856000200161107c565b611223565b156103a55781519184808401526102408361023183820189611144565b03601f19948582018152610faf565b3360005281855261025a8661020f6003846000200161107c565b1561035f5760039033600052828652600020019385519384116103305761028b846102858754611028565b876111cf565b8092601f85116001146102cc575050508192936000926102c1575b5050816002029160080260020a600019041916179055600080f35b0151905038806102a6565b849391929416958560005282600020926000905b888210610319575050836002959697106102fe575b50505002019055005b01516008601f841602840a60001904191690553880806102f5565b8087859682949686015181550195019301906102e0565b7f4e487b7100000000000000000000000000000000000000000000000000000000600052604160045260246000fd5b84606491519060e560020a62461bcd0282526004820152601460248201527f496e76616c6964206e65772070617373776f72640000000000000000000000006044820152fd5b60648483519060e560020a62461bcd0282526004820152601460248201527f496e76616c6964206f6c642070617373776f72640000000000000000000000006044820152fd5b60648584519060e560020a62461bcd0282526004820152600d60248201527f4e6f74206c6f6767656420696e000000000000000000000000000000000000006044820152fd5b50346101815760003660031901126101815780519081600254908181526020809101809260026000527f405787fa12a823e0f2b7631cc41b3ba8828b3321ca811111fa75cd3aa3bb5ace9060005b8181106104da5750505084610495910385610faf565b8251818152935181850181905284938401929160005b8281106104ba57505050500390f35b8351600160a060020a0316855286955093810193928101926001016104ab565b8254600160a060020a03168452928401926001928301920161047f565b503461018157608036600319011261018157610511610f7d565b60243567ffffffffffffffff811161018157610531903690600401610fd1565b9160443567ffffffffffffffff811161018157610552903690600401610fd1565b9060643567ffffffffffffffff811161018157610573903690600401610fd1565b600160a060020a037f0000000000000000000000000000000000000000000000000000000000000000163303610a305760005460ff81166109ea5760019060ff191617600055600160a060020a038416600052600160205260ff60048360002001541661097f578151926105e684610f93565b600160a060020a03851684526020840195865282840152606083015260016080830152600060a0830152600060c0830152600160a060020a03831660005260016020528060002093600160a060020a03835116600160a060020a03198654161785555180519067ffffffffffffffff82116103305781906106778261066e60018a0154611028565b60018a016111cf565b602090601f831160011461090b57600092610900575b5050816002029160080260020a6000190419161760018501555b81015180519067ffffffffffffffff82116103305781906106d8826106cf6002890154611028565b600289016111cf565b602090601f831160011461088c57600092610881575b5050816002029160080260020a6000190419161760028401555b606081015192835167ffffffffffffffff811161033057610739816107306003850154611028565b600385016111cf565b6020601f821160011461080b5781906004949596600092610800575b5050816002029160080260020a6000190419161760038201555b01906080810151151590825460ff62ff00006201000060c061ff0061010060a0880151151502169501511515021693169062ffffff1916171717905560025468010000000000000000811015610330576107d7816001600160a060020a039301600255611169565b909260088454920260020a80840293849216021691191617905560ff1960005416600055600080f35b015190503880610755565b6003830160005260206000209560005b601f1984168110610869575091600494959660029260019483601f1981161061084e575b5050500201600382015561076f565b01516008601f841602840a600019041916905538808061083f565b8282015188556001909701966020928301920161081b565b0151905038806106ee565b91506002860160005260206000209160005b601f19851681106108e85750918391600293600195601f198116106108cd575b50505002016002840155610708565b01516008601f841602840a60001904191690553880806108be565b9192602060018192868501518155019401920161089e565b01519050388061068d565b91506001870160005260206000209160005b601f19851681106109675750918391600293600195601f1981161061094c575b505050020160018501556106a7565b01516008601f841602840a600019041916905538808061093d565b9192602060018192868501518155019401920161091d565b6084825160e560020a62461bcd028152602060048201526024808201527f4d65646963616c2063656e74657220697320616c72656164792072656769737460448201527f65726564000000000000000000000000000000000000000000000000000000006064820152fd5b6064835160e560020a62461bcd02815260206004820152600f60248201527f5265656e7472616e742063616c6c2e00000000000000000000000000000000006044820152fd5b6064825160e560020a62461bcd02815260206004820152601f60248201527f5265737472696374656420746f2073797374656d206f776e6572206f6e6c79006044820152fd5b503461018157602036600319011261018157600160a060020a03610a98610f7d565b169081600052600160205260ff6101006004836000200154041615610ad157600091825260016020529020600401805461ff0019169055005b6064905160e560020a62461bcd02815260206004820152601460248201527f596f75277265206e6f74206c6f6767656420696e0000000000000000000000006044820152fd5b5034610181576020366003190112610181576004359060025482101561018157600160a060020a03600891610b4d602094611169565b90549151930260020a9004168152f35b503461018157602036600319011261018157600160a060020a03610b7f610f7d565b16908160005260016020526201000060ff8160048460002001540416610be757916020917fa4973fbcf8ca336a0d4f20ff722b34f3d13620ef72dfd96cf6330c6f73fef5e0938260005260018452600482600020019062ff00001982541617905551908152a1005b6064825160e560020a62461bcd02815260206004820152601860248201527f54686973206461746120646f6573206e6f7420657869737400000000000000006044820152fd5b5034610181576020908160031936011261018157610c49610f7d565b91815191610c5683610f93565b60008352606092838382015283828201528380820152608081016000905260a081016000905260c00160009052600160a060020a038094166000526001825280600020815193610ca585610f93565b815486168552610cb76001830161107c565b85850190815291610cca6002820161107c565b868501908152610cdc6003830161107c565b918388019283526004015494608088019660ff87161515885260a08901956101009182890460ff161515885260c08b019862010000900460ff161515895283519b8c9b828d525116908b01525191890160e090528801610d3b91611144565b905190601f1993848983030190890152610d5491611144565b905191868203016080870152610d6991611144565b9251151560a085015251151560c084015251151560e08301520390f35b503461018157602036600319011261018157600160a060020a039081610daa610f7d565b16600052600160205280600020918254169060ff62010000610e2a610dd16001870161107c565b95610e1c610de16002830161107c565b956004610df06003850161107c565b93015496610e0f82519a8b9a8b5260e060208c015260e08b0190611144565b91898303908a0152611144565b908682036060880152611144565b928281161515608086015282610100820416151560a08601520416151560c08301520390f35b5034610181578060031936011261018157610e69610f7d565b9060243567ffffffffffffffff811161018157610e92600160a060020a03913690600401610fd1565b921691826000526001602052600160ff600484600020015416151503610f3757610ece9083600052600160205261020f6003846000200161107c565b15610ef157600091825260016020529020600401805461ff001916610100179055005b6064905160e560020a62461bcd02815260206004820152601b60248201527f496e76616c69642061646472657373206f722070617373776f726400000000006044820152fd5b6064825160e560020a62461bcd02815260206004820152601860248201527f596f7572206e6f742072656769737465726564207965742100000000000000006044820152fd5b60043590600160a060020a038216820361018157565b60e0810190811067ffffffffffffffff82111761033057604052565b90601f8019910116810190811067ffffffffffffffff82111761033057604052565b81601f820112156101815780359067ffffffffffffffff82116103305760405192611006601f8401601f191660200185610faf565b8284526020838301011161018157816000926020809301838601378301015290565b9060016002830492168015611072575b602083101461104357565b7f4e487b7100000000000000000000000000000000000000000000000000000000600052602260045260246000fd5b91607f1691611038565b906040519182600082549261109084611028565b9081845260019485811690816000146110ff57506001146110bc575b50506110ba92500383610faf565b565b9093915060005260209081600020936000915b8183106110e75750506110ba935082010138806110ac565b855488840185015294850194879450918301916110cf565b9150506110ba94506020925060ff1916828401521515810282010138806110ac565b60005b8381106111345750506000910152565b8181015183820152602001611124565b9060209161115d81518092818552858086019101611121565b601f01601f1916010190565b6002548110156111a05760026000527f405787fa12a823e0f2b7631cc41b3ba8828b3321ca811111fa75cd3aa3bb5ace0190600090565b7f4e487b7100000000000000000000000000000000000000000000000000000000600052603260045260246000fd5b90601f81116111dd57505050565b60009182526020822090602080601f86010483019410611219575b601f602091010401915b82811061120e57505050565b818155600101611202565b90925082906111f8565b90604051916020926112518482816112448183019687815193849201611121565b8101038084520182610faf565b519020916112716040519182816112448183019687815193849201611121565b519020149056fea26469706673582212208306aadc36795d18ef1ca2b1345ba7545674063b02c2dda349162043b95359e764736f6c63430008130033",
  "immutableReferences": {
    "3": [
      {
        "length": 32,
        "start": 1405
      }
    ]
  },
  "source": "// SPDX-License-Identifier: MIT\npragma solidity ^0.8.19;\nimport \"./AccessControl.sol\";\n\ncontract CollectionPointContract is AccessControl {\n    event deletedCollectionPoint(address collectionPointAddress);\n\n    struct CollectionPoint {\n        address CPPublicAddress;\n        string name;\n        string phoneNumber;\n        string password;\n        bool isRegistered;\n        bool isLogin;\n        bool isDeleted;\n    }\n\n    mapping(address => CollectionPoint) public collectionPoints;\n\n    address[] public collectionPointAddressArr;\n\n    function readCollectionPoint(address _collectionPointAddress) external view returns (CollectionPoint memory) {\n        return collectionPoints[_collectionPointAddress];\n    }\n\n    function addCollectionPoint(\n        address _CPPublicAddress,\n        string memory _name,\n        string memory _contactNumber,\n        string memory _password\n    ) public onlyOwner noReentrancy {\n        require(\n            collectionPoints[_CPPublicAddress].isRegistered == false,\n            \"Medical center is already registered\"\n        );\n        collectionPoints[_CPPublicAddress] = CollectionPoint({\n            CPPublicAddress: _CPPublicAddress,\n            name: _name,\n            phoneNumber: _contactNumber,\n            password: _password,\n            isRegistered: true,\n            isLogin: false,\n            isDeleted: false\n        });\n        collectionPointAddressArr.push(_CPPublicAddress);\n        \n    }\n\n    function collectionPointChangePassword(string memory _oldPassword, string memory _newPassword) external {\n        require(collectionPoints[msg.sender].isLogin == true, \"Not logged in\");\n        require(compareString(collectionPoints[msg.sender].password, _oldPassword), \"Invalid old password\");\n        require(keccak256(abi.encode(_newPassword)).length > 0, \"Password should not be empty\");\n        require(compareString(collectionPoints[msg.sender].password, _newPassword), \"Invalid new password\");\n\n        collectionPoints[msg.sender].password = _newPassword;\n    }\n\n    function  collectionPointLogin(address _MCPublicAddress, string memory _password) public {\n        require(collectionPoints[_MCPublicAddress].isRegistered == true, \"Your not registered yet!\");\n        // require(collectionPoints[_MCPublicAddress].isLogin == false, \"Your Already login\");\n        require(compareString(collectionPoints[_MCPublicAddress].password, _password), \"Invalid address or password\");\n\n        // CollectionPoint memory collectionPoint = collectionPoints[_MCPublicAddress];\n        // collectionPoint.isLogin = true;\n        collectionPoints[_MCPublicAddress].isLogin = true;\n    }\n\n    function collectionPointLogout(address _MCPublicAddress) public {\n        require(collectionPoints[_MCPublicAddress].isLogin, \"You're not logged in\");\n\n        collectionPoints[_MCPublicAddress].isLogin = false;\n    }\n\n    function getCollectionPointsArr() public view returns (address[] memory) {\n        return collectionPointAddressArr;\n    }\n\n    function getCollectionPoint(\n        address _collectionPointPublicAddress\n    )\n        public\n        view\n        returns (\n            address CPPublicAddress,\n            string memory name,\n            string memory phoneNumber\n        )\n    {\n        CollectionPoint memory collectionPoint = collectionPoints[_collectionPointPublicAddress];\n        CPPublicAddress = collectionPoint.CPPublicAddress;\n        name = collectionPoint.name;\n        phoneNumber = collectionPoint.phoneNumber;\n    }\n\n    function deleteCollectionPoint(address collectionPointAddress_) external {\n        require(!collectionPoints[collectionPointAddress_].isDeleted, \"This data does not exist\");\n        CollectionPoint storage colletionPoint = collectionPoints[collectionPointAddress_];\n        colletionPoint.isDeleted = true;\n        collectionPoints[collectionPointAddress_] = colletionPoint;\n        emit deletedCollectionPoint(collectionPointAddress_);\n    }\n\n}\n",
  "sourcePath": "/home/temba/Desktop/blood-donation-blockchain-system/client-side/contracts/CollectionPointContract.sol",
  "compiler": {
    "name": "solc",
    "version": "0.8.19+commit.7dd6d404.Emscripten.clang"
  },
  "schemaVersion": "3.4.16",
  "updatedAt": "2024-03-19T11:23:38.539Z",
  "networkType": "ethereum",
  "devdoc": {
    "kind": "dev",
    "methods": {},
    "version": 1
  },
  "userdoc": {
    "kind": "user",
    "methods": {},
    "version": 1
  }
}