{
  "contractName": "DonorContract",
  "abi": [
    {
      "inputs": [
        {
          "internalType": "address",
          "name": "collectionPointAddress_",
          "type": "address"
        }
      ],
      "stateMutability": "nonpayable",
      "type": "constructor"
    },
    {
      "anonymous": false,
      "inputs": [
        {
          "indexed": true,
          "internalType": "address",
          "name": "donorAddress",
          "type": "address"
        }
      ],
      "name": "deletedDonor",
      "type": "event"
    },
    {
      "inputs": [],
      "name": "collectionPoint",
      "outputs": [
        {
          "internalType": "contract CollectionPointContract",
          "name": "",
          "type": "address"
        }
      ],
      "stateMutability": "view",
      "type": "function",
      "constant": true
    },
    {
      "inputs": [
        {
          "internalType": "address",
          "name": "_donodAddress",
          "type": "address"
        },
        {
          "internalType": "uint256",
          "name": "_newVolume",
          "type": "uint256"
        }
      ],
      "name": "updateVolume",
      "outputs": [],
      "stateMutability": "nonpayable",
      "type": "function"
    },
    {
      "inputs": [
        {
          "internalType": "address",
          "name": "_donorAddress",
          "type": "address"
        },
        {
          "internalType": "string",
          "name": "_bloodType",
          "type": "string"
        }
      ],
      "name": "updateDonorBloodType",
      "outputs": [],
      "stateMutability": "nonpayable",
      "type": "function"
    },
    {
      "inputs": [
        {
          "internalType": "address",
          "name": "_donorAddress",
          "type": "address"
        },
        {
          "internalType": "uint256",
          "name": "_transactionID",
          "type": "uint256"
        }
      ],
      "name": "updateDonationHistory",
      "outputs": [],
      "stateMutability": "nonpayable",
      "type": "function"
    },
    {
      "inputs": [
        {
          "internalType": "address",
          "name": "_donorAddress",
          "type": "address"
        }
      ],
      "name": "readDonors",
      "outputs": [
        {
          "components": [
            {
              "internalType": "address",
              "name": "donorPublicAddress",
              "type": "address"
            },
            {
              "internalType": "string",
              "name": "name",
              "type": "string"
            },
            {
              "internalType": "uint256",
              "name": "age",
              "type": "uint256"
            },
            {
              "internalType": "uint256",
              "name": "weight",
              "type": "uint256"
            },
            {
              "internalType": "string",
              "name": "gender",
              "type": "string"
            },
            {
              "internalType": "string",
              "name": "bloodType",
              "type": "string"
            },
            {
              "internalType": "string",
              "name": "phoneNumber",
              "type": "string"
            },
            {
              "internalType": "string",
              "name": "password",
              "type": "string"
            },
            {
              "internalType": "uint256",
              "name": "donatedVolume",
              "type": "uint256"
            },
            {
              "internalType": "uint256",
              "name": "totalPayment",
              "type": "uint256"
            },
            {
              "internalType": "bool",
              "name": "isRegistered",
              "type": "bool"
            },
            {
              "internalType": "bool",
              "name": "isLogin",
              "type": "bool"
            },
            {
              "internalType": "bool",
              "name": "isDeleted",
              "type": "bool"
            },
            {
              "internalType": "uint256[]",
              "name": "donorTransactionHistory",
              "type": "uint256[]"
            }
          ],
          "internalType": "struct DonorContract.Donor",
          "name": "",
          "type": "tuple"
        }
      ],
      "stateMutability": "view",
      "type": "function",
      "constant": true
    },
    {
      "inputs": [
        {
          "internalType": "address",
          "name": "_donorPublicAddress",
          "type": "address"
        },
        {
          "internalType": "string",
          "name": "_name",
          "type": "string"
        },
        {
          "internalType": "uint256",
          "name": "_age",
          "type": "uint256"
        },
        {
          "internalType": "uint256",
          "name": "_weight",
          "type": "uint256"
        },
        {
          "internalType": "string",
          "name": "_gender",
          "type": "string"
        },
        {
          "internalType": "string",
          "name": "_contactNumber",
          "type": "string"
        },
        {
          "internalType": "string",
          "name": "_password",
          "type": "string"
        }
      ],
      "name": "addDonor",
      "outputs": [],
      "stateMutability": "nonpayable",
      "type": "function"
    },
    {
      "inputs": [
        {
          "internalType": "string",
          "name": "_oldPassword",
          "type": "string"
        },
        {
          "internalType": "string",
          "name": "_newPassword",
          "type": "string"
        }
      ],
      "name": "donorChangePassword",
      "outputs": [],
      "stateMutability": "nonpayable",
      "type": "function"
    },
    {
      "inputs": [
        {
          "internalType": "address",
          "name": "_donorPublicAddress",
          "type": "address"
        },
        {
          "internalType": "string",
          "name": "_password",
          "type": "string"
        }
      ],
      "name": "donorLogin",
      "outputs": [],
      "stateMutability": "nonpayable",
      "type": "function"
    },
    {
      "inputs": [
        {
          "internalType": "address",
          "name": "_DNPublicAddress",
          "type": "address"
        }
      ],
      "name": "donorLogout",
      "outputs": [],
      "stateMutability": "nonpayable",
      "type": "function"
    },
    {
      "inputs": [],
      "name": "getDonorsArr",
      "outputs": [
        {
          "internalType": "address[]",
          "name": "",
          "type": "address[]"
        }
      ],
      "stateMutability": "view",
      "type": "function",
      "constant": true
    },
    {
      "inputs": [
        {
          "internalType": "address",
          "name": "_donorPublicAddress",
          "type": "address"
        }
      ],
      "name": "getDonor",
      "outputs": [
        {
          "internalType": "address",
          "name": "publicAddress",
          "type": "address"
        },
        {
          "internalType": "string",
          "name": "name",
          "type": "string"
        },
        {
          "internalType": "uint256",
          "name": "age",
          "type": "uint256"
        },
        {
          "internalType": "uint256",
          "name": "weight",
          "type": "uint256"
        },
        {
          "internalType": "string",
          "name": "bloodType",
          "type": "string"
        },
        {
          "internalType": "string",
          "name": "gender",
          "type": "string"
        },
        {
          "internalType": "string",
          "name": "phoneNumber",
          "type": "string"
        },
        {
          "internalType": "uint256",
          "name": "donatedVolume",
          "type": "uint256"
        },
        {
          "internalType": "uint256",
          "name": "totalPayment",
          "type": "uint256"
        },
        {
          "internalType": "bool",
          "name": "isRegistered",
          "type": "bool"
        },
        {
          "internalType": "bool",
          "name": "isLogin",
          "type": "bool"
        },
        {
          "internalType": "bool",
          "name": "isDeleted",
          "type": "bool"
        },
        {
          "internalType": "uint256[]",
          "name": "donorTransactionHistory",
          "type": "uint256[]"
        }
      ],
      "stateMutability": "view",
      "type": "function",
      "constant": true
    },
    {
      "inputs": [
        {
          "internalType": "address",
          "name": "donorAddress_",
          "type": "address"
        }
      ],
      "name": "deleteDonor",
      "outputs": [],
      "stateMutability": "nonpayable",
      "type": "function"
    }
  ],
  "bytecode": "0x60a03461007e57611deb80380390601f19601f83011683019183831067ffffffffffffffff8411176100835780849260209460405283398101031261007e5751600160a060020a0381169081900361007e573360805260038054600160a060020a031916919091179055604051611d3890816100b38239608051815050f35b600080fd5b7f4e487b7100000000000000000000000000000000000000000000000000000000600052604160045260246000fdfe6080604052600436101561001257600080fd5b7c010000000000000000000000000000000000000000000000000000000060003504806302c7739b146117565780630d9b19351461168a5780631eb850b1146115c257806365837dca146113f75780636d0a1c381461127d578063878823b614610a1d57806391ba33b41461091657806396c59043146106e5578063afc10fa914610448578063bae4c74014610421578063be3a9028146101645763df5befd7146100bc57600080fd5b3461015f57602036600319011261015f57600160a060020a036100dd611887565b1680600052600160205260ff610100600a60406000200154041615610118576000908152600160205260409020600a01805461ff0019169055005b606460405160e560020a62461bcd02815260206004820152601460248201527f596f75277265206e6f74206c6f6767656420696e0000000000000000000000006044820152fd5b600080fd5b3461015f57602036600319011261015f57600160a060020a03610185611887565b60606101a06040516101968161189d565b60008152826020820152600060408201526000838201528260808201528260a08201528260c08201528260e082015260006101008201526000610120820152600061014082015260006101608201526000610180820152015216600052600160205260406000206040516102098161189d565b600160a060020a03825416815261022260018301611c0a565b6020820152600282015460408201526003820154606082015261024760048301611c0a565b608082015261025860058301611c0a565b60a082015261026960068301611c0a565b60c082015261027a60078301611c0a565b60e08201526008820154610100820152600982015461012082015260ff62010000600a840154828116151561014085015282610100820416151561016085015204161515610180820152604051600b819301906020825491828152019160005260206000209060005b81811061040b5761040785876102fb818803826118ba565b6101a082015260405191829160208352600160a060020a0381511660208401526101a06103b261039b61038561036f61034560208701516101c060408b01526101e08a0190611999565b604087015160608a0152606087015160808a01526080870151601f198a83030160a08b0152611999565b60a0860151888203601f190160c08a0152611999565b60c0850151878203601f190160e0890152611999565b60e0840151868203601f1901610100880152611999565b91610100810151610120860152610120810151610140860152610140810151151561016086015261016081015115156101808601526101808101511515828601520151601f19848303016101c08501526119be565b0390f35b82548452602090930192600192830192016102e3565b3461015f57600036600319011261015f576020600160a060020a0360035416604051908152f35b3461015f57604036600319011261015f5767ffffffffffffffff60043581811161015f5761047a9036906004016118dc565b60243582811161015f576104929036906004016118dc565b913360005260016020928184528160ff610100600a60406000200154041615150361069e576104d790336000528285526104d26007604060002001611c0a565b611cad565b1561065757604051908380830152610505826104f66040820188611999565b03601f199384820181526118ba565b33600052808452610520856104d26007604060002001611c0a565b15610610573360005280845260076040600020019385519384116105f7576105528461054c87546119f2565b87611a47565b8092601f851160011461059357505050819293600092610588575b5050816002029160080260020a600019041916179055600080f35b01519050838061056d565b849391929416958560005282600020926000905b8882106105e0575050836002959697106105c5575b50505002019055005b01516008601f841602840a60001904191690558480806105bc565b8087859682949686015181550195019301906105a7565b60e060020a634e487b7102600052604160045260246000fd5b6064846040519060e560020a62461bcd0282526004820152601460248201527f496e76616c6964206e65772070617373776f72640000000000000000000000006044820152fd5b6064836040519060e560020a62461bcd0282526004820152601460248201527f496e76616c6964206f6c642070617373776f72640000000000000000000000006044820152fd5b6064846040519060e560020a62461bcd0282526004820152600d60248201527f4e6f74206c6f6767656420696e000000000000000000000000000000000000006044820152fd5b3461015f57602036600319011261015f57600160a060020a03610706611887565b1660005260016020526040600020600b604051916107238361189d565b600160a060020a03815416835261073c60018201611c0a565b6020840152600281015460408401526003810154606084015261076160048201611c0a565b608084015261077260058201611c0a565b60a084015261078360068201611c0a565b60c084015261079460078201611c0a565b60e08401526008810154610100840152600981015461012084015260ff62010000600a8301548281161515610140870152826101008204161515610160870152041615156101808401526040518092839201906020825491828152019160005260206000209060005b8181106108fd575050500361081290826118ba565b806101a08301528151600160a060020a03169060208301519260408101519060608101519060a08101519260808201519360c0830151610100840151956101208501519261014086015115159461016087015115159661018001511515976040519c8d9c8d5260208d016101a090526101a08d0161088f91611999565b9160408d015260608c01528a810360808c01526108ab91611999565b89810360a08b01526108bc91611999565b88810360c08a01526108cd91611999565b9460e0880152610100870152610120860152610140850152610160840152828103610180840152610407916119be565b82548452859450602090930192600192830192016107fd565b3461015f57600160a060020a0361092c36611933565b911690816000526001602052600160ff600a60406000200154161515036109d65761096a908260005260016020526104d26007604060002001611c0a565b1561098f576000908152600160205260409020600a01805461ff001916610100179055005b606460405160e560020a62461bcd02815260206004820152601b60248201527f496e76616c69642061646472657373206f722070617373776f726400000000006044820152fd5b606460405160e560020a62461bcd02815260206004820152601860248201527f596f7572206e6f742072656769737465726564207965742100000000000000006044820152fd5b3461015f5760e036600319011261015f57610a36611887565b60243567ffffffffffffffff811161015f57610a569036906004016118dc565b60843567ffffffffffffffff811161015f57610a769036906004016118dc565b60a43567ffffffffffffffff811161015f57610a969036906004016118dc565b60c43567ffffffffffffffff811161015f57610ab69036906004016118dc565b9060005460ff81166112365760019060ff191617600055600160a060020a0385166000526001602052600a6040600020015460ff811615908115611225575b50156111de57604051926020840184811067ffffffffffffffff8211176105f7576040526000845260405194610b2a8661189d565b600160a060020a0387168652602086015260443560408601526064356060860152608085015260405180604081011067ffffffffffffffff6040830111176105f75760408101604052600281527f2d2d000000000000000000000000000000000000000000000000000000000000602082015260a085015260c084015260e0830152600061010083015260006101208301526001610140830152600061016083015260006101808301526101a0820152600160a060020a03821660005260016020526040600020600160a060020a03825116600160a060020a0319825416178155602082015180519067ffffffffffffffff82116105f7578190610c3e82610c3560018701546119f2565b60018701611a47565b602090601f831160011461116a5760009261115f575b5050816002029160080260020a6000190419161760018201555b6040820151600282015560608201516003820155608082015180519067ffffffffffffffff82116105f7578190610cb582610cac60048701546119f2565b60048701611a47565b602090601f83116001146110eb576000926110e0575b5050816002029160080260020a6000190419161760048201555b60a082015180519067ffffffffffffffff82116105f7578190610d1882610d0f60058701546119f2565b60058701611a47565b602090601f831160011461106c57600092611061575b5050816002029160080260020a6000190419161760058201555b60c082015180519067ffffffffffffffff82116105f7578190610d7b82610d7260068701546119f2565b60068701611a47565b602090601f8311600114610fed57600092610fe2575b5050816002029160080260020a6000190419161760068201555b60e082015180519067ffffffffffffffff82116105f757610ddc82610dd360078601546119f2565b60078601611a47565b602090601f8311600114610f695791806101a09492600b94600092610f5e575b5050816002029160080260020a6000190419161760078201555b61010084015160088201556101208401516009820155610e8a600a8201610e506101408701511515829060ff801983541691151516179055565b610160860151815461018088015162ff000090151562010000021662ffff001990911661ff00921515610100029290921691909117179055565b019101519081519167ffffffffffffffff83116105f757602090610eae8484611b72565b0190600052602060002060005b838110610f4a5784600254680100000000000000008110156105f7576001810180600255811015610f3157600160a060020a03907f405787fa12a823e0f2b7631cc41b3ba8828b3321ca811111fa75cd3aa3bb5ace019116600160a060020a031982541617905560ff1960005416600055600080f35b60e060020a634e487b7102600052603260045260246000fd5b600190602084519401938184015501610ebb565b015190508780610dfc565b906007840160005260206000209160005b601f1985168110610fca5750836101a09593600193600293600b97601f19811610610faf575b50505002016007820155610e16565b01516008601f841602840a6000190419169055888080610fa0565b91926020600181928685015181550194019201610f7a565b015190508580610d91565b91506006840160005260206000209160005b601f19851681106110495750918391600293600195601f1981161061102e575b50505002016006820155610dab565b01516008601f841602840a600019041916905586808061101f565b91926020600181928685015181550194019201610fff565b015190508580610d2e565b91506005840160005260206000209160005b601f19851681106110c85750918391600293600195601f198116106110ad575b50505002016005820155610d48565b01516008601f841602840a600019041916905586808061109e565b9192602060018192868501518155019401920161107e565b015190508580610ccb565b91506004840160005260206000209160005b601f19851681106111475750918391600293600195601f1981161061112c575b50505002016004820155610ce5565b01516008601f841602840a600019041916905586808061111d565b919260206001819286850151815501940192016110fd565b015190508580610c54565b91506001840160005260206000209160005b601f19851681106111c65750918391600293600195601f198116106111ab575b50505002016001820155610c6e565b01516008601f841602840a600019041916905586808061119c565b9192602060018192868501518155019401920161117c565b606460405160e560020a62461bcd02815260206004820152601b60248201527f446f6e6f7220697320616c7265616479207265676973746572656400000000006044820152fd5b60ff91506201000090041686610af5565b606460405160e560020a62461bcd02815260206004820152600f60248201527f5265656e7472616e742063616c6c2e00000000000000000000000000000000006044820152fd5b3461015f57604036600319011261015f57600160a060020a038061129f611887565b168060005260016020526040600020600b8101918254680100000000000000008110156105f75760018101808555811015610f3157836000526024359060206000200155600052600160205260406000208181036112f957005b6113ef826113f595600b945416600160a060020a03198454161783556113256001820160018501611a8e565b60028101546002840155600381015460038401556113496004820160048501611a8e565b6113596005820160058501611a8e565b6113696006820160068501611a8e565b6113796007820160078501611a8e565b600881015460088401556009810154600984015560ff62010000600a80860193016113b383825416859060ff801983541691151516179055565b8054845461ff001916610100918290048516151590910261ff001617845554041662ff000062010000835492151502169062ff00001916179055565b01611bab565b005b3461015f5761140536611933565b600160a060020a03809216806000526001926020928484526040600020936005850193825167ffffffffffffffff81116105f757879361144f8261144989546119f2565b89611a47565b8390601f831160011461155a57600091908361154f575b5050816002029160080260020a6000190419161785555b6000525260406000209280840361149057005b6114e9600b936114bc6113f5978695855416600160a060020a0319895416178855808501908801611a8e565b60028301546002870155600383015460038701556114e06004840160048801611a8e565b60058601611a8e565b6114f96006820160068601611a8e565b6115096007820160078601611a8e565b6008810154600885015560098101546009850155611547600a850160ff62010000600a85016113b383825416859060ff801983541691151516179055565b019101611bab565b015190508980611466565b90601f1983169188600052856000209260005b8181106115ab575091600293918589969410611590575b5050500201855561147d565b01516008601f841602840a60001904191690558a8080611584565b8284015185558c989094019392870192870161156d565b3461015f57600036600319011261015f57604051806002548083526020809301809160026000527f405787fa12a823e0f2b7631cc41b3ba8828b3321ca811111fa75cd3aa3bb5ace9060005b8682821061166d578686611624828803836118ba565b604051928392818401908285525180915260408401929160005b82811061164d57505050500390f35b8351600160a060020a03168552869550938101939281019260010161163e565b8354600160a060020a03168552909301926001928301920161160e565b3461015f57602036600319011261015f57600160a060020a036116ab611887565b168060005260016020526201000060ff81600a60406000200154041661170f57816000526001602052600a6040600020019062ff0000198254161790557f915a66745f65c5e6fa85ccd08c5a3644d5a63f4989992bdf1031b4355b26fbf7600080a2005b606460405160e560020a62461bcd02815260206004820152601860248201527f54686973206461746120646f6573206e6f7420657869737400000000000000006044820152fd5b3461015f57604036600319011261015f57600160a060020a0380611778611887565b169081600052600160205260406000209160088301908154602435810180911161186e57825560005260016020526040600020918383036117b557005b83600b9283926113f5965416600160a060020a03198654161785556117e06001830160018701611a8e565b60028201546002860155600382015460038601556118046004830160048701611a8e565b6118146005830160058701611a8e565b6118246006830160068701611a8e565b6118346007830160078701611a8e565b54600885015560098101546009850155611547600a850160ff62010000600a85016113b383825416859060ff801983541691151516179055565b60e060020a634e487b7102600052601160045260246000fd5b60043590600160a060020a038216820361015f57565b6101c0810190811067ffffffffffffffff8211176105f757604052565b90601f8019910116810190811067ffffffffffffffff8211176105f757604052565b81601f8201121561015f5780359067ffffffffffffffff82116105f75760405192611911601f8401601f1916602001856118ba565b8284526020838301011161015f57816000926020809301838601378301015290565b90604060031983011261015f57600435600160a060020a038116810361015f57916024359067ffffffffffffffff821161015f57611973916004016118dc565b90565b60005b8381106119895750506000910152565b8181015183820152602001611979565b906020916119b281518092818552858086019101611976565b601f01601f1916010190565b90815180825260208080930193019160005b8281106119de575050505090565b8351855293810193928101926001016119d0565b9060016002830492168015611a26575b6020831014611a0d57565b60e060020a634e487b7102600052602260045260246000fd5b91607f1691611a02565b818110611a3b575050565b60008155600101611a30565b9190601f8111611a5657505050565b611a8292600052602060002090602080601f85010483019310611a84575b601f60209101040190611a30565b565b9091508190611a74565b90808214611b6e57611aa081546119f2565b9067ffffffffffffffff82116105f7578190611ac682611ac086546119f2565b86611a47565b600090601f8311600114611aff57600092611af4575b5050816002029160080260020a600019041916179055565b015490503880611adc565b81526020808220858352818320935090601f1985169083905b828210611b555750509160029391856001969410611b3a575b50505002019055565b01546008601f841602840a6000190419169055388080611b31565b8495819295850154815560018091019601940190611b18565b5050565b906801000000000000000081116105f757815490808355818110611b9557505050565b611a829260005260206000209182019101611a30565b818114611b6e5781549167ffffffffffffffff83116105f757611bce8383611b72565b60005260206000209060005260206000208154916000925b848410611bf4575050505050565b6001809192019384549281850155019290611be6565b9060405191826000825492611c1e846119f2565b908184526001948581169081600014611c8b5750600114611c48575b5050611a82925003836118ba565b9093915060005260209081600020936000915b818310611c73575050611a8293508201013880611c3a565b85548884018501529485019487945091830191611c5b565b915050611a8294506020925060ff191682840152151581028201013880611c3a565b9060405191602092611cdb848281611cce8183019687815193849201611976565b81010380845201826118ba565b51902091611cfb604051918281611cce8183019687815193849201611976565b519020149056fea26469706673582212201a0ba41f2c8d1063ce9f620f6546c78bac043266e211b5b436c5144ac5da930764736f6c63430008130033",
  "immutableReferences": {},
  "source": "// SPDX-License-Identifier: MIT\npragma solidity ^0.8.19;\nimport \"./AccessControl.sol\";\nimport\"./CollectionPointContract.sol\";\n\ncontract DonorContract is AccessControl{\n\n    event deletedDonor(address indexed donorAddress);\n\n    struct Donor {\n        address donorPublicAddress;\n        string name;\n        uint256 age;\n        uint256 weight;\n        string gender;\n        string bloodType;\n        string phoneNumber;\n        string password;\n        uint256 donatedVolume;\n        uint256 totalPayment;\n        bool isRegistered;\n        bool isLogin;\n        bool isDeleted;\n        uint256[] donorTransactionHistory;\n    }\n\n    mapping(address => Donor) private donors;\n\n    address[] private donorAddressArr;\n\n    CollectionPointContract public collectionPoint;\n\n    constructor(address collectionPointAddress_) {\n        collectionPoint = CollectionPointContract(collectionPointAddress_);\n    }\n\n    function updateVolume(address _donodAddress, uint256 _newVolume) external {\n        Donor storage donor = donors[_donodAddress];\n        donor.donatedVolume += _newVolume;\n        donors[_donodAddress] = donor;\n    }\n\n    function updateDonorBloodType(address _donorAddress, string memory _bloodType) external {\n        Donor storage donor = donors[_donorAddress];\n        donor.bloodType = _bloodType;\n        donors[_donorAddress] = donor;\n    }\n    function updateDonationHistory(address _donorAddress, uint256 _transactionID) external {\n        Donor storage donor = donors[_donorAddress];\n        donor.donorTransactionHistory.push(_transactionID);\n        donors[_donorAddress] = donor;\n    }\n\n    function readDonors(address _donorAddress) external view returns (Donor memory) {\n        return donors[_donorAddress];\n    }\n    \n    function addDonor(\n        address _donorPublicAddress,\n        string memory _name,\n        uint256 _age,\n        uint256 _weight,\n        string memory _gender,\n        string memory _contactNumber,\n        string memory _password\n    ) external noReentrancy {\n        require(\n            donors[_donorPublicAddress].isRegistered == false || donors[_donorPublicAddress].isDeleted,\n            \"Donor is already registered\"\n        );\n        donors[_donorPublicAddress] = Donor({\n            donorPublicAddress: _donorPublicAddress,\n            name: _name,\n            age: _age,\n            weight: _weight,\n            gender: _gender,\n            bloodType: \"--\",\n            phoneNumber: _contactNumber,\n            password: _password,\n            donatedVolume: 0,\n            totalPayment: 0,\n            isRegistered: true,\n            isLogin: false,\n            isDeleted: false,\n            donorTransactionHistory: new uint256[](0)\n    });\n\n        donorAddressArr.push(_donorPublicAddress);\n    }\n\n    function donorChangePassword(string memory _oldPassword, string memory _newPassword) external {\n        require(donors[msg.sender].isLogin == true, \"Not logged in\");\n        require(compareString(donors[msg.sender].password, _oldPassword), \"Invalid old password\");\n        require(keccak256(abi.encode(_newPassword)).length > 0, \"Password should not be empty\");\n        require(compareString(donors[msg.sender].password, _newPassword), \"Invalid new password\");\n\n        donors[msg.sender].password = _newPassword;\n    }\n\n\n    function  donorLogin(address _donorPublicAddress, string memory _password) external {\n        require(donors[_donorPublicAddress].isRegistered == true, \"Your not registered yet!\");\n        // require(donors[_donorPublicAddress].isLogin == false, \"Your Already login\");\n        require(compareString(donors[_donorPublicAddress].password, _password), \"Invalid address or password\");\n        \n        donors[_donorPublicAddress].isLogin = true;\n    }\n\n    function donorLogout(address _DNPublicAddress) external {\n        require(donors[_DNPublicAddress].isLogin, \"You're not logged in\");\n\n        donors[_DNPublicAddress].isLogin = false;\n    }\n\n    function getDonorsArr() external view returns (address[] memory) {\n        return donorAddressArr;\n    }\n\n    function getDonor(\n        address _donorPublicAddress\n    )\n        external\n        view\n        returns (\n            address publicAddress,\n            string memory name,\n            uint256 age,\n            uint256 weight,\n            string memory bloodType,\n            string memory gender,\n            string memory phoneNumber,\n            uint256 donatedVolume,\n            uint256 totalPayment,\n            bool isRegistered,\n            bool isLogin,\n            bool isDeleted,\n            uint256[] memory donorTransactionHistory\n        )\n    {\n        Donor memory donor = donors[_donorPublicAddress];\n        publicAddress = donor.donorPublicAddress;\n        name = donor.name;\n        age = donor.age;\n        weight = donor.weight; \n        bloodType = donor.bloodType;\n        gender = donor.gender;\n        phoneNumber = donor.phoneNumber;\n        donatedVolume = donor.donatedVolume;\n        totalPayment = donor.totalPayment;\n        isRegistered = donor.isRegistered;\n        isLogin = donor.isLogin;\n        isDeleted = donor.isDeleted;\n        donorTransactionHistory = donor.donorTransactionHistory;\n    }\n\n    function deleteDonor(address donorAddress_) external {\n        require(!donors[donorAddress_].isDeleted, \"This data does not exist\");\n        Donor storage donor = donors[donorAddress_];\n        donor.isDeleted = true;\n        donors[donorAddress_] = donor;\n        emit deletedDonor(donorAddress_);\n    }\n}\n",
  "sourcePath": "/home/temba/Desktop/blood-donation-blockchain-system/client-side/contracts/DonorContract.sol",
  "compiler": {
    "name": "solc",
    "version": "0.8.19+commit.7dd6d404.Emscripten.clang"
  },
  "schemaVersion": "3.4.16",
  "updatedAt": "2024-03-18T06:10:45.854Z",
  "networkType": "ethereum",
  "devdoc": {
    "kind": "dev",
    "methods": {},
    "version": 1
  },
  "userdoc": {
    "kind": "user",
    "methods": {},
    "version": 1
  }
}