{
  "contractName": "DonorContract",
  "abi": [
    {
      "inputs": [
        {
          "internalType": "uint256",
          "name": "",
          "type": "uint256"
        }
      ],
      "name": "donorAddressArr",
      "outputs": [
        {
          "internalType": "address",
          "name": "",
          "type": "address"
        }
      ],
      "stateMutability": "view",
      "type": "function"
    },
    {
      "inputs": [
        {
          "internalType": "address",
          "name": "",
          "type": "address"
        }
      ],
      "name": "donors",
      "outputs": [
        {
          "internalType": "address",
          "name": "donorPublicAddress",
          "type": "address"
        },
        {
          "internalType": "string",
          "name": "name",
          "type": "string"
        },
        {
          "internalType": "string",
          "name": "bloodType",
          "type": "string"
        },
        {
          "internalType": "string",
          "name": "phoneNumber",
          "type": "string"
        },
        {
          "internalType": "string",
          "name": "password",
          "type": "string"
        },
        {
          "internalType": "uint256",
          "name": "donatedVolume",
          "type": "uint256"
        },
        {
          "internalType": "uint256",
          "name": "totalPayment",
          "type": "uint256"
        },
        {
          "internalType": "bool",
          "name": "isRegistered",
          "type": "bool"
        }
      ],
      "stateMutability": "view",
      "type": "function"
    },
    {
      "inputs": [
        {
          "internalType": "address",
          "name": "_donorPublicAddress",
          "type": "address"
        },
        {
          "internalType": "string",
          "name": "_name",
          "type": "string"
        },
        {
          "internalType": "string",
          "name": "_bloodType",
          "type": "string"
        },
        {
          "internalType": "string",
          "name": "_contactNumber",
          "type": "string"
        },
        {
          "internalType": "string",
          "name": "_password",
          "type": "string"
        }
      ],
      "name": "addDonor",
      "outputs": [],
      "stateMutability": "nonpayable",
      "type": "function"
    },
    {
      "inputs": [],
      "name": "getDonorsArr",
      "outputs": [
        {
          "internalType": "address[]",
          "name": "",
          "type": "address[]"
        }
      ],
      "stateMutability": "view",
      "type": "function"
    },
    {
      "inputs": [
        {
          "internalType": "address",
          "name": "_donorPublicAddress",
          "type": "address"
        }
      ],
      "name": "getDonor",
      "outputs": [
        {
          "internalType": "address",
          "name": "publicAddress",
          "type": "address"
        },
        {
          "internalType": "string",
          "name": "name",
          "type": "string"
        },
        {
          "internalType": "string",
          "name": "bloodType",
          "type": "string"
        },
        {
          "internalType": "string",
          "name": "phoneNumber",
          "type": "string"
        },
        {
          "internalType": "uint256",
          "name": "donatedVolume",
          "type": "uint256"
        },
        {
          "internalType": "uint256",
          "name": "totalPayment",
          "type": "uint256"
        }
      ],
      "stateMutability": "view",
      "type": "function"
    }
  ],
  "bytecode": "0x608060405234801561001057600080fd5b506113cb806100206000396000f3fe608060405234801561001057600080fd5b50600436106100575760003560e01c806315eb1adf1461005c5780631eb850b11461008c57806348803dbf146100aa57806396c59043146100c6578063ca0cdea8146100fb575b600080fd5b61007660048036038101906100719190610a9f565b610132565b6040516100839190610b0d565b60405180910390f35b610094610171565b6040516100a19190610be6565b60405180910390f35b6100c460048036038101906100bf9190610d7a565b6101ff565b005b6100e060048036038101906100db9190610e65565b610467565b6040516100f296959493929190610f20565b60405180910390f35b61011560048036038101906101109190610e65565b6107c0565b604051610129989796959493929190610fb1565b60405180910390f35b6001818154811061014257600080fd5b906000526020600020016000915054906101000a900473ffffffffffffffffffffffffffffffffffffffff1681565b606060018054806020026020016040519081016040528092919081815260200182805480156101f557602002820191906000526020600020905b8160009054906101000a900473ffffffffffffffffffffffffffffffffffffffff1673ffffffffffffffffffffffffffffffffffffffff16815260200190600101908083116101ab575b5050505050905090565b600015156000808773ffffffffffffffffffffffffffffffffffffffff1673ffffffffffffffffffffffffffffffffffffffff16815260200190815260200160002060070160009054906101000a900460ff16151514610294576040517f08c379a000000000000000000000000000000000000000000000000000000000815260040161028b90611097565b60405180910390fd5b6040518061010001604052808673ffffffffffffffffffffffffffffffffffffffff1681526020018581526020018481526020018381526020018281526020016000815260200160008152602001600115158152506000808773ffffffffffffffffffffffffffffffffffffffff1673ffffffffffffffffffffffffffffffffffffffff16815260200190815260200160002060008201518160000160006101000a81548173ffffffffffffffffffffffffffffffffffffffff021916908373ffffffffffffffffffffffffffffffffffffffff160217905550602082015181600101908161038391906112c3565b50604082015181600201908161039991906112c3565b5060608201518160030190816103af91906112c3565b5060808201518160040190816103c591906112c3565b5060a0820151816005015560c0820151816006015560e08201518160070160006101000a81548160ff0219169083151502179055509050506001859080600181540180825580915050600190039060005260206000200160009091909190916101000a81548173ffffffffffffffffffffffffffffffffffffffff021916908373ffffffffffffffffffffffffffffffffffffffff1602179055505050505050565b6000606080606060008060008060008973ffffffffffffffffffffffffffffffffffffffff1673ffffffffffffffffffffffffffffffffffffffff168152602001908152602001600020604051806101000160405290816000820160009054906101000a900473ffffffffffffffffffffffffffffffffffffffff1673ffffffffffffffffffffffffffffffffffffffff1673ffffffffffffffffffffffffffffffffffffffff168152602001600182018054610523906110e6565b80601f016020809104026020016040519081016040528092919081815260200182805461054f906110e6565b801561059c5780601f106105715761010080835404028352916020019161059c565b820191906000526020600020905b81548152906001019060200180831161057f57829003601f168201915b505050505081526020016002820180546105b5906110e6565b80601f01602080910402602001604051908101604052809291908181526020018280546105e1906110e6565b801561062e5780601f106106035761010080835404028352916020019161062e565b820191906000526020600020905b81548152906001019060200180831161061157829003601f168201915b50505050508152602001600382018054610647906110e6565b80601f0160208091040260200160405190810160405280929190818152602001828054610673906110e6565b80156106c05780601f10610695576101008083540402835291602001916106c0565b820191906000526020600020905b8154815290600101906020018083116106a357829003601f168201915b505050505081526020016004820180546106d9906110e6565b80601f0160208091040260200160405190810160405280929190818152602001828054610705906110e6565b80156107525780601f1061072757610100808354040283529160200191610752565b820191906000526020600020905b81548152906001019060200180831161073557829003601f168201915b5050505050815260200160058201548152602001600682015481526020016007820160009054906101000a900460ff1615151515815250509050806000015196508060200151955080604001519450806060015193508060a0015192508060c0015191505091939550919395565b60006020528060005260406000206000915090508060000160009054906101000a900473ffffffffffffffffffffffffffffffffffffffff1690806001018054610809906110e6565b80601f0160208091040260200160405190810160405280929190818152602001828054610835906110e6565b80156108825780601f1061085757610100808354040283529160200191610882565b820191906000526020600020905b81548152906001019060200180831161086557829003601f168201915b505050505090806002018054610897906110e6565b80601f01602080910402602001604051908101604052809291908181526020018280546108c3906110e6565b80156109105780601f106108e557610100808354040283529160200191610910565b820191906000526020600020905b8154815290600101906020018083116108f357829003601f168201915b505050505090806003018054610925906110e6565b80601f0160208091040260200160405190810160405280929190818152602001828054610951906110e6565b801561099e5780601f106109735761010080835404028352916020019161099e565b820191906000526020600020905b81548152906001019060200180831161098157829003601f168201915b5050505050908060040180546109b3906110e6565b80601f01602080910402602001604051908101604052809291908181526020018280546109df906110e6565b8015610a2c5780601f10610a0157610100808354040283529160200191610a2c565b820191906000526020600020905b815481529060010190602001808311610a0f57829003601f168201915b5050505050908060050154908060060154908060070160009054906101000a900460ff16905088565b6000604051905090565b600080fd5b600080fd5b6000819050919050565b610a7c81610a69565b8114610a8757600080fd5b50565b600081359050610a9981610a73565b92915050565b600060208284031215610ab557610ab4610a5f565b5b6000610ac384828501610a8a565b91505092915050565b600073ffffffffffffffffffffffffffffffffffffffff82169050919050565b6000610af782610acc565b9050919050565b610b0781610aec565b82525050565b6000602082019050610b226000830184610afe565b92915050565b600081519050919050565b600082825260208201905092915050565b6000819050602082019050919050565b610b5d81610aec565b82525050565b6000610b6f8383610b54565b60208301905092915050565b6000602082019050919050565b6000610b9382610b28565b610b9d8185610b33565b9350610ba883610b44565b8060005b83811015610bd9578151610bc08882610b63565b9750610bcb83610b7b565b925050600181019050610bac565b5085935050505092915050565b60006020820190508181036000830152610c008184610b88565b905092915050565b610c1181610aec565b8114610c1c57600080fd5b50565b600081359050610c2e81610c08565b92915050565b600080fd5b600080fd5b6000601f19601f8301169050919050565b7f4e487b7100000000000000000000000000000000000000000000000000000000600052604160045260246000fd5b610c8782610c3e565b810181811067ffffffffffffffff82111715610ca657610ca5610c4f565b5b80604052505050565b6000610cb9610a55565b9050610cc58282610c7e565b919050565b600067ffffffffffffffff821115610ce557610ce4610c4f565b5b610cee82610c3e565b9050602081019050919050565b82818337600083830152505050565b6000610d1d610d1884610cca565b610caf565b905082815260208101848484011115610d3957610d38610c39565b5b610d44848285610cfb565b509392505050565b600082601f830112610d6157610d60610c34565b5b8135610d71848260208601610d0a565b91505092915050565b600080600080600060a08688031215610d9657610d95610a5f565b5b6000610da488828901610c1f565b955050602086013567ffffffffffffffff811115610dc557610dc4610a64565b5b610dd188828901610d4c565b945050604086013567ffffffffffffffff811115610df257610df1610a64565b5b610dfe88828901610d4c565b935050606086013567ffffffffffffffff811115610e1f57610e1e610a64565b5b610e2b88828901610d4c565b925050608086013567ffffffffffffffff811115610e4c57610e4b610a64565b5b610e5888828901610d4c565b9150509295509295909350565b600060208284031215610e7b57610e7a610a5f565b5b6000610e8984828501610c1f565b91505092915050565b600081519050919050565b600082825260208201905092915050565b60005b83811015610ecc578082015181840152602081019050610eb1565b60008484015250505050565b6000610ee382610e92565b610eed8185610e9d565b9350610efd818560208601610eae565b610f0681610c3e565b840191505092915050565b610f1a81610a69565b82525050565b600060c082019050610f356000830189610afe565b8181036020830152610f478188610ed8565b90508181036040830152610f5b8187610ed8565b90508181036060830152610f6f8186610ed8565b9050610f7e6080830185610f11565b610f8b60a0830184610f11565b979650505050505050565b60008115159050919050565b610fab81610f96565b82525050565b600061010082019050610fc7600083018b610afe565b8181036020830152610fd9818a610ed8565b90508181036040830152610fed8189610ed8565b905081810360608301526110018188610ed8565b905081810360808301526110158187610ed8565b905061102460a0830186610f11565b61103160c0830185610f11565b61103e60e0830184610fa2565b9998505050505050505050565b7f446f6e6f7220697320616c726561647920726567697374657265640000000000600082015250565b6000611081601b83610e9d565b915061108c8261104b565b602082019050919050565b600060208201905081810360008301526110b081611074565b9050919050565b7f4e487b7100000000000000000000000000000000000000000000000000000000600052602260045260246000fd5b600060028204905060018216806110fe57607f821691505b602082108103611111576111106110b7565b5b50919050565b60008190508160005260206000209050919050565b60006020601f8301049050919050565b600082821b905092915050565b6000600883026111797fffffffffffffffffffffffffffffffffffffffffffffffffffffffffffffffff8261113c565b611183868361113c565b95508019841693508086168417925050509392505050565b6000819050919050565b60006111c06111bb6111b684610a69565b61119b565b610a69565b9050919050565b6000819050919050565b6111da836111a5565b6111ee6111e6826111c7565b848454611149565b825550505050565b600090565b6112036111f6565b61120e8184846111d1565b505050565b5b81811015611232576112276000826111fb565b600181019050611214565b5050565b601f8211156112775761124881611117565b6112518461112c565b81016020851015611260578190505b61127461126c8561112c565b830182611213565b50505b505050565b600082821c905092915050565b600061129a6000198460080261127c565b1980831691505092915050565b60006112b38383611289565b9150826002028217905092915050565b6112cc82610e92565b67ffffffffffffffff8111156112e5576112e4610c4f565b5b6112ef82546110e6565b6112fa828285611236565b600060209050601f83116001811461132d576000841561131b578287015190505b61132585826112a7565b86555061138d565b601f19841661133b86611117565b60005b828110156113635784890151825560018201915060208501945060208101905061133e565b86831015611380578489015161137c601f891682611289565b8355505b6001600288020188555050505b50505050505056fea264697066735822122063c991b413520dd4e2e10ffff6b12ea0a46343a5e561687edf7a74048e4b660164736f6c63430008130033",
  "immutableReferences": {},
  "source": "// SPDX-License-Identifier: MIT\npragma solidity ^0.8.19;\n\ncontract DonorContract {\n    struct Donor {\n        address donorPublicAddress;\n        string name;\n        string bloodType;\n        string phoneNumber;\n        string password;\n        uint256 donatedVolume;\n        uint256 totalPayment;\n        bool isRegistered;\n        // uint256[] donationHistory;\n    }\n\n    mapping(address => Donor) public donors;\n\n    address[] public donorAddressArr;\n\n    function addDonor(\n        address _donorPublicAddress,\n        string memory _name,\n        string memory _bloodType,\n        string memory _contactNumber,\n        string memory _password\n    ) public {\n        require(\n            donors[_donorPublicAddress].isRegistered == false,\n            \"Donor is already registered\"\n        );\n        donors[_donorPublicAddress] = Donor(\n            _donorPublicAddress,\n            _name,\n            _bloodType,\n            _contactNumber,\n            _password,\n            0,\n            0,\n            true\n        );\n        donorAddressArr.push(_donorPublicAddress);\n    }\n\n    // function  donorLogin(address _donorPublicAddress, string memory _password) public {\n    //     require(donors[_donorPublicAddress].isRegistered == true, \"Your not registered yet!\");\n    //     require(donors[_donorPublicAddress].isLogin == false, \"Your Already login\");\n    //     require(compareString(donors[_donorPublicAddress].password, _password), \"Invalid address or password\");\n        \n    //     donors[_donorPublicAddress].isLogin = true;\n    // }\n\n    function getDonorsArr() public view returns (address[] memory) {\n        return donorAddressArr;\n    }\n\n    function getDonor(\n        address _donorPublicAddress\n    )\n        public\n        view\n        returns (\n            address publicAddress,\n            string memory name,\n            string memory bloodType,\n            string memory phoneNumber,\n            uint256 donatedVolume,\n            uint256 totalPayment\n        )\n    {\n        Donor memory donor = donors[_donorPublicAddress];\n        publicAddress = donor.donorPublicAddress;\n        name = donor.name;\n        bloodType = donor.bloodType;\n        phoneNumber = donor.phoneNumber;\n        donatedVolume = donor.donatedVolume;\n        totalPayment = donor.totalPayment;\n    }\n}\n",
  "sourcePath": "/home/temba/Desktop/blood-donation-blockchain-system/client-side/contracts/DonorContract.sol",
  "compiler": {
    "name": "solc",
    "version": "0.8.19+commit.7dd6d404.Emscripten.clang"
  },
  "schemaVersion": "3.4.16",
  "updatedAt": "2024-02-27T09:55:53.538Z",
  "devdoc": {
    "kind": "dev",
    "methods": {},
    "version": 1
  },
  "userdoc": {
    "kind": "user",
    "methods": {},
    "version": 1
  }
}