{
  "contractName": "DonorContract",
  "abi": [
    {
      "inputs": [
        {
          "internalType": "uint256",
          "name": "",
          "type": "uint256"
        }
      ],
      "name": "donorAddressArr",
      "outputs": [
        {
          "internalType": "address",
          "name": "",
          "type": "address"
        }
      ],
      "stateMutability": "view",
      "type": "function"
    },
    {
      "inputs": [
        {
          "internalType": "address",
          "name": "",
          "type": "address"
        }
      ],
      "name": "donors",
      "outputs": [
        {
          "internalType": "address",
          "name": "donorPublicAddress",
          "type": "address"
        },
        {
          "internalType": "string",
          "name": "name",
          "type": "string"
        },
        {
          "internalType": "string",
          "name": "bloodType",
          "type": "string"
        },
        {
          "internalType": "string",
          "name": "phoneNumber",
          "type": "string"
        },
        {
          "internalType": "string",
          "name": "password",
          "type": "string"
        },
        {
          "internalType": "uint256",
          "name": "donatedVolume",
          "type": "uint256"
        },
        {
          "internalType": "uint256",
          "name": "totalPayment",
          "type": "uint256"
        },
        {
          "internalType": "bool",
          "name": "isRegistered",
          "type": "bool"
        },
        {
          "internalType": "bool",
          "name": "isLogin",
          "type": "bool"
        }
      ],
      "stateMutability": "view",
      "type": "function"
    },
    {
      "inputs": [
        {
          "internalType": "address",
          "name": "_donorPublicAddress",
          "type": "address"
        },
        {
          "internalType": "string",
          "name": "_name",
          "type": "string"
        },
        {
          "internalType": "string",
          "name": "_bloodType",
          "type": "string"
        },
        {
          "internalType": "string",
          "name": "_contactNumber",
          "type": "string"
        },
        {
          "internalType": "string",
          "name": "_password",
          "type": "string"
        }
      ],
      "name": "addDonor",
      "outputs": [],
      "stateMutability": "nonpayable",
      "type": "function"
    },
    {
      "inputs": [
        {
          "internalType": "address",
          "name": "_donorPublicAddress",
          "type": "address"
        },
        {
          "internalType": "string",
          "name": "_password",
          "type": "string"
        }
      ],
      "name": "donorLogin",
      "outputs": [],
      "stateMutability": "nonpayable",
      "type": "function"
    },
    {
      "inputs": [],
      "name": "getDonorsArr",
      "outputs": [
        {
          "internalType": "address[]",
          "name": "",
          "type": "address[]"
        }
      ],
      "stateMutability": "view",
      "type": "function"
    },
    {
      "inputs": [
        {
          "internalType": "address",
          "name": "_donorPublicAddress",
          "type": "address"
        }
      ],
      "name": "getDonor",
      "outputs": [
        {
          "internalType": "address",
          "name": "publicAddress",
          "type": "address"
        },
        {
          "internalType": "string",
          "name": "name",
          "type": "string"
        },
        {
          "internalType": "string",
          "name": "bloodType",
          "type": "string"
        },
        {
          "internalType": "string",
          "name": "phoneNumber",
          "type": "string"
        },
        {
          "internalType": "uint256",
          "name": "donatedVolume",
          "type": "uint256"
        },
        {
          "internalType": "uint256",
          "name": "totalPayment",
          "type": "uint256"
        }
      ],
      "stateMutability": "view",
      "type": "function"
    }
  ],
  "bytecode": "0x608060405234801561001057600080fd5b50611940806100206000396000f3fe608060405234801561001057600080fd5b50600436106100625760003560e01c806315eb1adf146100675780631eb850b11461009757806348803dbf146100b557806391ba33b4146100d157806396c59043146100ed578063ca0cdea814610122575b600080fd5b610081600480360381019061007c9190610e12565b61015a565b60405161008e9190610e80565b60405180910390f35b61009f610199565b6040516100ac9190610f59565b60405180910390f35b6100cf60048036038101906100ca91906110ed565b610227565b005b6100eb60048036038101906100e691906111d8565b6104b9565b005b61010760048036038101906101029190611234565b610753565b604051610119969594939291906112ef565b60405180910390f35b61013c60048036038101906101379190611234565b610ac7565b60405161015199989796959493929190611380565b60405180910390f35b6001818154811061016a57600080fd5b906000526020600020016000915054906101000a900473ffffffffffffffffffffffffffffffffffffffff1681565b6060600180548060200260200160405190810160405280929190818152602001828054801561021d57602002820191906000526020600020905b8160009054906101000a900473ffffffffffffffffffffffffffffffffffffffff1673ffffffffffffffffffffffffffffffffffffffff16815260200190600101908083116101d3575b5050505050905090565b600015156000808773ffffffffffffffffffffffffffffffffffffffff1673ffffffffffffffffffffffffffffffffffffffff16815260200190815260200160002060070160009054906101000a900460ff161515146102bc576040517f08c379a00000000000000000000000000000000000000000000000000000000081526004016102b390611475565b60405180910390fd5b6040518061012001604052808673ffffffffffffffffffffffffffffffffffffffff1681526020018581526020018481526020018381526020018281526020016000815260200160008152602001600115158152602001600015158152506000808773ffffffffffffffffffffffffffffffffffffffff1673ffffffffffffffffffffffffffffffffffffffff16815260200190815260200160002060008201518160000160006101000a81548173ffffffffffffffffffffffffffffffffffffffff021916908373ffffffffffffffffffffffffffffffffffffffff16021790555060208201518160010190816103b491906116a1565b5060408201518160020190816103ca91906116a1565b5060608201518160030190816103e091906116a1565b5060808201518160040190816103f691906116a1565b5060a0820151816005015560c0820151816006015560e08201518160070160006101000a81548160ff0219169083151502179055506101008201518160070160016101000a81548160ff0219169083151502179055509050506001859080600181540180825580915050600190039060005260206000200160009091909190916101000a81548173ffffffffffffffffffffffffffffffffffffffff021916908373ffffffffffffffffffffffffffffffffffffffff1602179055505050505050565b600115156000808473ffffffffffffffffffffffffffffffffffffffff1673ffffffffffffffffffffffffffffffffffffffff16815260200190815260200160002060070160009054906101000a900460ff1615151461054e576040517f08c379a0000000000000000000000000000000000000000000000000000000008152600401610545906117bf565b60405180910390fd5b600015156000808473ffffffffffffffffffffffffffffffffffffffff1673ffffffffffffffffffffffffffffffffffffffff16815260200190815260200160002060070160019054906101000a900460ff161515146105e3576040517f08c379a00000000000000000000000000000000000000000000000000000000081526004016105da9061182b565b60405180910390fd5b6106b66000808473ffffffffffffffffffffffffffffffffffffffff1673ffffffffffffffffffffffffffffffffffffffff1681526020019081526020016000206004018054610632906114c4565b80601f016020809104026020016040519081016040528092919081815260200182805461065e906114c4565b80156106ab5780601f10610680576101008083540402835291602001916106ab565b820191906000526020600020905b81548152906001019060200180831161068e57829003601f168201915b505050505082610d6f565b6106f5576040517f08c379a00000000000000000000000000000000000000000000000000000000081526004016106ec90611897565b60405180910390fd5b60016000808473ffffffffffffffffffffffffffffffffffffffff1673ffffffffffffffffffffffffffffffffffffffff16815260200190815260200160002060070160016101000a81548160ff0219169083151502179055505050565b6000606080606060008060008060008973ffffffffffffffffffffffffffffffffffffffff1673ffffffffffffffffffffffffffffffffffffffff168152602001908152602001600020604051806101200160405290816000820160009054906101000a900473ffffffffffffffffffffffffffffffffffffffff1673ffffffffffffffffffffffffffffffffffffffff1673ffffffffffffffffffffffffffffffffffffffff16815260200160018201805461080f906114c4565b80601f016020809104026020016040519081016040528092919081815260200182805461083b906114c4565b80156108885780601f1061085d57610100808354040283529160200191610888565b820191906000526020600020905b81548152906001019060200180831161086b57829003601f168201915b505050505081526020016002820180546108a1906114c4565b80601f01602080910402602001604051908101604052809291908181526020018280546108cd906114c4565b801561091a5780601f106108ef5761010080835404028352916020019161091a565b820191906000526020600020905b8154815290600101906020018083116108fd57829003601f168201915b50505050508152602001600382018054610933906114c4565b80601f016020809104026020016040519081016040528092919081815260200182805461095f906114c4565b80156109ac5780601f10610981576101008083540402835291602001916109ac565b820191906000526020600020905b81548152906001019060200180831161098f57829003601f168201915b505050505081526020016004820180546109c5906114c4565b80601f01602080910402602001604051908101604052809291908181526020018280546109f1906114c4565b8015610a3e5780601f10610a1357610100808354040283529160200191610a3e565b820191906000526020600020905b815481529060010190602001808311610a2157829003601f168201915b5050505050815260200160058201548152602001600682015481526020016007820160009054906101000a900460ff161515151581526020016007820160019054906101000a900460ff1615151515815250509050806000015196508060200151955080604001519450806060015193508060a0015192508060c0015191505091939550919395565b60006020528060005260406000206000915090508060000160009054906101000a900473ffffffffffffffffffffffffffffffffffffffff1690806001018054610b10906114c4565b80601f0160208091040260200160405190810160405280929190818152602001828054610b3c906114c4565b8015610b895780601f10610b5e57610100808354040283529160200191610b89565b820191906000526020600020905b815481529060010190602001808311610b6c57829003601f168201915b505050505090806002018054610b9e906114c4565b80601f0160208091040260200160405190810160405280929190818152602001828054610bca906114c4565b8015610c175780601f10610bec57610100808354040283529160200191610c17565b820191906000526020600020905b815481529060010190602001808311610bfa57829003601f168201915b505050505090806003018054610c2c906114c4565b80601f0160208091040260200160405190810160405280929190818152602001828054610c58906114c4565b8015610ca55780601f10610c7a57610100808354040283529160200191610ca5565b820191906000526020600020905b815481529060010190602001808311610c8857829003601f168201915b505050505090806004018054610cba906114c4565b80601f0160208091040260200160405190810160405280929190818152602001828054610ce6906114c4565b8015610d335780601f10610d0857610100808354040283529160200191610d33565b820191906000526020600020905b815481529060010190602001808311610d1657829003601f168201915b5050505050908060050154908060060154908060070160009054906101000a900460ff16908060070160019054906101000a900460ff16905089565b600081604051602001610d8291906118f3565b6040516020818303038152906040528051906020012083604051602001610da991906118f3565b6040516020818303038152906040528051906020012014905092915050565b6000604051905090565b600080fd5b600080fd5b6000819050919050565b610def81610ddc565b8114610dfa57600080fd5b50565b600081359050610e0c81610de6565b92915050565b600060208284031215610e2857610e27610dd2565b5b6000610e3684828501610dfd565b91505092915050565b600073ffffffffffffffffffffffffffffffffffffffff82169050919050565b6000610e6a82610e3f565b9050919050565b610e7a81610e5f565b82525050565b6000602082019050610e956000830184610e71565b92915050565b600081519050919050565b600082825260208201905092915050565b6000819050602082019050919050565b610ed081610e5f565b82525050565b6000610ee28383610ec7565b60208301905092915050565b6000602082019050919050565b6000610f0682610e9b565b610f108185610ea6565b9350610f1b83610eb7565b8060005b83811015610f4c578151610f338882610ed6565b9750610f3e83610eee565b925050600181019050610f1f565b5085935050505092915050565b60006020820190508181036000830152610f738184610efb565b905092915050565b610f8481610e5f565b8114610f8f57600080fd5b50565b600081359050610fa181610f7b565b92915050565b600080fd5b600080fd5b6000601f19601f8301169050919050565b7f4e487b7100000000000000000000000000000000000000000000000000000000600052604160045260246000fd5b610ffa82610fb1565b810181811067ffffffffffffffff8211171561101957611018610fc2565b5b80604052505050565b600061102c610dc8565b90506110388282610ff1565b919050565b600067ffffffffffffffff82111561105857611057610fc2565b5b61106182610fb1565b9050602081019050919050565b82818337600083830152505050565b600061109061108b8461103d565b611022565b9050828152602081018484840111156110ac576110ab610fac565b5b6110b784828561106e565b509392505050565b600082601f8301126110d4576110d3610fa7565b5b81356110e484826020860161107d565b91505092915050565b600080600080600060a0868803121561110957611108610dd2565b5b600061111788828901610f92565b955050602086013567ffffffffffffffff81111561113857611137610dd7565b5b611144888289016110bf565b945050604086013567ffffffffffffffff81111561116557611164610dd7565b5b611171888289016110bf565b935050606086013567ffffffffffffffff81111561119257611191610dd7565b5b61119e888289016110bf565b925050608086013567ffffffffffffffff8111156111bf576111be610dd7565b5b6111cb888289016110bf565b9150509295509295909350565b600080604083850312156111ef576111ee610dd2565b5b60006111fd85828601610f92565b925050602083013567ffffffffffffffff81111561121e5761121d610dd7565b5b61122a858286016110bf565b9150509250929050565b60006020828403121561124a57611249610dd2565b5b600061125884828501610f92565b91505092915050565b600081519050919050565b600082825260208201905092915050565b60005b8381101561129b578082015181840152602081019050611280565b60008484015250505050565b60006112b282611261565b6112bc818561126c565b93506112cc81856020860161127d565b6112d581610fb1565b840191505092915050565b6112e981610ddc565b82525050565b600060c0820190506113046000830189610e71565b818103602083015261131681886112a7565b9050818103604083015261132a81876112a7565b9050818103606083015261133e81866112a7565b905061134d60808301856112e0565b61135a60a08301846112e0565b979650505050505050565b60008115159050919050565b61137a81611365565b82525050565b600061012082019050611396600083018c610e71565b81810360208301526113a8818b6112a7565b905081810360408301526113bc818a6112a7565b905081810360608301526113d081896112a7565b905081810360808301526113e481886112a7565b90506113f360a08301876112e0565b61140060c08301866112e0565b61140d60e0830185611371565b61141b610100830184611371565b9a9950505050505050505050565b7f446f6e6f7220697320616c726561647920726567697374657265640000000000600082015250565b600061145f601b8361126c565b915061146a82611429565b602082019050919050565b6000602082019050818103600083015261148e81611452565b9050919050565b7f4e487b7100000000000000000000000000000000000000000000000000000000600052602260045260246000fd5b600060028204905060018216806114dc57607f821691505b6020821081036114ef576114ee611495565b5b50919050565b60008190508160005260206000209050919050565b60006020601f8301049050919050565b600082821b905092915050565b6000600883026115577fffffffffffffffffffffffffffffffffffffffffffffffffffffffffffffffff8261151a565b611561868361151a565b95508019841693508086168417925050509392505050565b6000819050919050565b600061159e61159961159484610ddc565b611579565b610ddc565b9050919050565b6000819050919050565b6115b883611583565b6115cc6115c4826115a5565b848454611527565b825550505050565b600090565b6115e16115d4565b6115ec8184846115af565b505050565b5b81811015611610576116056000826115d9565b6001810190506115f2565b5050565b601f82111561165557611626816114f5565b61162f8461150a565b8101602085101561163e578190505b61165261164a8561150a565b8301826115f1565b50505b505050565b600082821c905092915050565b60006116786000198460080261165a565b1980831691505092915050565b60006116918383611667565b9150826002028217905092915050565b6116aa82611261565b67ffffffffffffffff8111156116c3576116c2610fc2565b5b6116cd82546114c4565b6116d8828285611614565b600060209050601f83116001811461170b57600084156116f9578287015190505b6117038582611685565b86555061176b565b601f198416611719866114f5565b60005b828110156117415784890151825560018201915060208501945060208101905061171c565b8683101561175e578489015161175a601f891682611667565b8355505b6001600288020188555050505b505050505050565b7f596f7572206e6f74207265676973746572656420796574210000000000000000600082015250565b60006117a960188361126c565b91506117b482611773565b602082019050919050565b600060208201905081810360008301526117d88161179c565b9050919050565b7f596f757220416c7265616479206c6f67696e0000000000000000000000000000600082015250565b600061181560128361126c565b9150611820826117df565b602082019050919050565b6000602082019050818103600083015261184481611808565b9050919050565b7f496e76616c69642061646472657373206f722070617373776f72640000000000600082015250565b6000611881601b8361126c565b915061188c8261184b565b602082019050919050565b600060208201905081810360008301526118b081611874565b9050919050565b600081905092915050565b60006118cd82611261565b6118d781856118b7565b93506118e781856020860161127d565b80840191505092915050565b60006118ff82846118c2565b91508190509291505056fea26469706673582212209b0be8b2a32073059decb089c8b90916aadc953b5f103e36bf8f62eb74db367064736f6c63430008130033",
  "immutableReferences": {},
  "source": "// SPDX-License-Identifier: MIT\npragma solidity ^0.8.19;\n\ncontract DonorContract {\n    struct Donor {\n        address donorPublicAddress;\n        string name;\n        string bloodType;\n        string phoneNumber;\n        string password;\n        uint256 donatedVolume;\n        uint256 totalPayment;\n        bool isRegistered;\n        bool isLogin;\n        // uint256[] donationHistory;\n    }\n\n    mapping(address => Donor) public donors;\n\n    address[] public donorAddressArr;\n\n    function addDonor(\n        address _donorPublicAddress,\n        string memory _name,\n        string memory _bloodType,\n        string memory _contactNumber,\n        string memory _password\n    ) public {\n        require(\n            donors[_donorPublicAddress].isRegistered == false,\n            \"Donor is already registered\"\n        );\n        donors[_donorPublicAddress] = Donor(\n            _donorPublicAddress,\n            _name,\n            _bloodType,\n            _contactNumber,\n            _password,\n            0,\n            0,\n            true,\n            false\n        );\n        donorAddressArr.push(_donorPublicAddress);\n    }\n\n    function  donorLogin(address _donorPublicAddress, string memory _password) public {\n        require(donors[_donorPublicAddress].isRegistered == true, \"Your not registered yet!\");\n        require(donors[_donorPublicAddress].isLogin == false, \"Your Already login\");\n        require(compareString(donors[_donorPublicAddress].password, _password), \"Invalid address or password\");\n        \n        donors[_donorPublicAddress].isLogin = true;\n    }\n\n    function getDonorsArr() public view returns (address[] memory) {\n        return donorAddressArr;\n    }\n\n    function getDonor(\n        address _donorPublicAddress\n    )\n        public\n        view\n        returns (\n            address publicAddress,\n            string memory name,\n            string memory bloodType,\n            string memory phoneNumber,\n            uint256 donatedVolume,\n            uint256 totalPayment\n        )\n    {\n        Donor memory donor = donors[_donorPublicAddress];\n        publicAddress = donor.donorPublicAddress;\n        name = donor.name;\n        bloodType = donor.bloodType;\n        phoneNumber = donor.phoneNumber;\n        donatedVolume = donor.donatedVolume;\n        totalPayment = donor.totalPayment;\n    }\n\n    /// @dev this is helper function\n    function compareString(string memory _a, string memory _b) internal pure returns(bool) {\n        return keccak256(abi.encodePacked(_a)) == keccak256(abi.encodePacked(_b));\n    }\n}\n",
  "sourcePath": "/home/temba/Desktop/blood-donation-blockchain-system/client-side/contracts/DonorContract.sol",
  "compiler": {
    "name": "solc",
    "version": "0.8.19+commit.7dd6d404.Emscripten.clang"
  },
  "schemaVersion": "3.4.16",
  "updatedAt": "2024-02-27T20:45:23.353Z",
  "devdoc": {
    "kind": "dev",
    "methods": {},
    "version": 1
  },
  "userdoc": {
    "kind": "user",
    "methods": {},
    "version": 1
  }
}