{
  "contractName": "DonorContract",
  "abi": [
    {
      "inputs": [
        {
          "internalType": "address",
          "name": "collectionPointAddress_",
          "type": "address"
        }
      ],
      "stateMutability": "nonpayable",
      "type": "constructor"
    },
    {
      "anonymous": false,
      "inputs": [
        {
          "indexed": true,
          "internalType": "address",
          "name": "donorAddress",
          "type": "address"
        }
      ],
      "name": "deletedDonor",
      "type": "event"
    },
    {
      "inputs": [],
      "name": "collectionPoint",
      "outputs": [
        {
          "internalType": "contract CollectionPointContract",
          "name": "",
          "type": "address"
        }
      ],
      "stateMutability": "view",
      "type": "function",
      "constant": true
    },
    {
      "inputs": [
        {
          "internalType": "address",
          "name": "_donodAddress",
          "type": "address"
        },
        {
          "internalType": "uint256",
          "name": "_newVolume",
          "type": "uint256"
        }
      ],
      "name": "updateVolume",
      "outputs": [],
      "stateMutability": "nonpayable",
      "type": "function"
    },
    {
      "inputs": [
        {
          "internalType": "address",
          "name": "_donorAddress",
          "type": "address"
        },
        {
          "internalType": "string",
          "name": "_bloodType",
          "type": "string"
        }
      ],
      "name": "updateDonorBloodType",
      "outputs": [],
      "stateMutability": "nonpayable",
      "type": "function"
    },
    {
      "inputs": [
        {
          "internalType": "address",
          "name": "_donorAddress",
          "type": "address"
        },
        {
          "internalType": "uint256",
          "name": "_transactionID",
          "type": "uint256"
        }
      ],
      "name": "updateDonationHistory",
      "outputs": [],
      "stateMutability": "nonpayable",
      "type": "function"
    },
    {
      "inputs": [
        {
          "internalType": "address",
          "name": "_donorAddress",
          "type": "address"
        }
      ],
      "name": "readDonors",
      "outputs": [
        {
          "components": [
            {
              "internalType": "address",
              "name": "donorPublicAddress",
              "type": "address"
            },
            {
              "internalType": "string",
              "name": "name",
              "type": "string"
            },
            {
              "internalType": "uint256",
              "name": "age",
              "type": "uint256"
            },
            {
              "internalType": "string",
              "name": "gender",
              "type": "string"
            },
            {
              "internalType": "string",
              "name": "bloodType",
              "type": "string"
            },
            {
              "internalType": "string",
              "name": "phoneNumber",
              "type": "string"
            },
            {
              "internalType": "string",
              "name": "password",
              "type": "string"
            },
            {
              "internalType": "uint256",
              "name": "donatedVolume",
              "type": "uint256"
            },
            {
              "internalType": "uint256",
              "name": "totalPayment",
              "type": "uint256"
            },
            {
              "internalType": "bool",
              "name": "isRegistered",
              "type": "bool"
            },
            {
              "internalType": "bool",
              "name": "isLogin",
              "type": "bool"
            },
            {
              "internalType": "bool",
              "name": "isDeleted",
              "type": "bool"
            },
            {
              "internalType": "uint256[]",
              "name": "donorTransactionHistory",
              "type": "uint256[]"
            }
          ],
          "internalType": "struct DonorContract.Donor",
          "name": "",
          "type": "tuple"
        }
      ],
      "stateMutability": "view",
      "type": "function",
      "constant": true
    },
    {
      "inputs": [
        {
          "internalType": "address",
          "name": "_donorPublicAddress",
          "type": "address"
        },
        {
          "internalType": "string",
          "name": "_name",
          "type": "string"
        },
        {
          "internalType": "uint256",
          "name": "_age",
          "type": "uint256"
        },
        {
          "internalType": "string",
          "name": "_gender",
          "type": "string"
        },
        {
          "internalType": "string",
          "name": "_contactNumber",
          "type": "string"
        },
        {
          "internalType": "string",
          "name": "_password",
          "type": "string"
        }
      ],
      "name": "addDonor",
      "outputs": [],
      "stateMutability": "nonpayable",
      "type": "function"
    },
    {
      "inputs": [
        {
          "internalType": "string",
          "name": "_oldPassword",
          "type": "string"
        },
        {
          "internalType": "string",
          "name": "_newPassword",
          "type": "string"
        }
      ],
      "name": "donorChangePassword",
      "outputs": [],
      "stateMutability": "nonpayable",
      "type": "function"
    },
    {
      "inputs": [
        {
          "internalType": "address",
          "name": "_donorPublicAddress",
          "type": "address"
        },
        {
          "internalType": "string",
          "name": "_password",
          "type": "string"
        }
      ],
      "name": "donorLogin",
      "outputs": [],
      "stateMutability": "nonpayable",
      "type": "function"
    },
    {
      "inputs": [
        {
          "internalType": "address",
          "name": "_DNPublicAddress",
          "type": "address"
        }
      ],
      "name": "donorLogout",
      "outputs": [],
      "stateMutability": "nonpayable",
      "type": "function"
    },
    {
      "inputs": [],
      "name": "getDonorsArr",
      "outputs": [
        {
          "internalType": "address[]",
          "name": "",
          "type": "address[]"
        }
      ],
      "stateMutability": "view",
      "type": "function",
      "constant": true
    },
    {
      "inputs": [
        {
          "internalType": "address",
          "name": "_donorPublicAddress",
          "type": "address"
        }
      ],
      "name": "getDonor",
      "outputs": [
        {
          "internalType": "address",
          "name": "publicAddress",
          "type": "address"
        },
        {
          "internalType": "string",
          "name": "name",
          "type": "string"
        },
        {
          "internalType": "uint256",
          "name": "age",
          "type": "uint256"
        },
        {
          "internalType": "string",
          "name": "bloodType",
          "type": "string"
        },
        {
          "internalType": "string",
          "name": "gender",
          "type": "string"
        },
        {
          "internalType": "string",
          "name": "phoneNumber",
          "type": "string"
        },
        {
          "internalType": "uint256",
          "name": "donatedVolume",
          "type": "uint256"
        },
        {
          "internalType": "uint256",
          "name": "totalPayment",
          "type": "uint256"
        },
        {
          "internalType": "bool",
          "name": "isRegistered",
          "type": "bool"
        },
        {
          "internalType": "bool",
          "name": "isLogin",
          "type": "bool"
        },
        {
          "internalType": "bool",
          "name": "isDeleted",
          "type": "bool"
        },
        {
          "internalType": "uint256[]",
          "name": "donorTransactionHistory",
          "type": "uint256[]"
        }
      ],
      "stateMutability": "view",
      "type": "function",
      "constant": true
    },
    {
      "inputs": [
        {
          "internalType": "address",
          "name": "donorAddress_",
          "type": "address"
        }
      ],
      "name": "deleteDonor",
      "outputs": [],
      "stateMutability": "nonpayable",
      "type": "function"
    }
  ],
  "bytecode": "0x60a03461007e57611d8280380390601f19601f83011683019183831067ffffffffffffffff8411176100835780849260209460405283398101031261007e5751600160a060020a0381169081900361007e573360805260038054600160a060020a031916919091179055604051611ccf90816100b38239608051815050f35b600080fd5b7f4e487b7100000000000000000000000000000000000000000000000000000000600052604160045260246000fdfe6080604052600436101561001257600080fd5b7c010000000000000000000000000000000000000000000000000000000060003504806302c7739b146116f75780630d9b19351461162b5780631eb850b11461156357806365837dca146113a25780636d0a1c381461123257806391ba33b41461112b57806396c5904314610f12578063a70a5e5f146106c6578063afc10fa914610429578063bae4c74014610402578063be3a9028146101645763df5befd7146100bc57600080fd5b3461015f57602036600319011261015f57600160a060020a036100dd61181e565b1680600052600160205260ff610100600960406000200154041615610118576000908152600160205260409020600901805461ff0019169055005b606460405160e560020a62461bcd02815260206004820152601460248201527f596f75277265206e6f74206c6f6767656420696e0000000000000000000000006044820152fd5b600080fd5b3461015f57602036600319011261015f57600160a060020a0361018561181e565b606061018060405161019681611834565b600081528260208201526000604082015282808201528260808201528260a08201528260c0820152600060e082015260006101008201526000610120820152600061014082015260006101608201520152166000526001602052604060002060405161020181611834565b600160a060020a03825416815261021a60018301611ba1565b60208201526002820154604082015261023560038301611ba1565b606082015261024660048301611ba1565b608082015261025760058301611ba1565b60a082015261026860068301611ba1565b60c0820152600782015460e0820152600882015461010082015260ff620100006009840154828116151561012085015282610100820416151561014085015204161515610160820152604051600a819301906020825491828152019160005260206000209060005b8181106103ec576103e885876102e881880382611851565b61018082015260405191829160208352600160a060020a03815116602084015261018061039461037e61036861035261033260208701516101a060408b01526101c08a0190611930565b604087015160608a01526060870151601f198a83030160808b0152611930565b6080860151888203601f190160a08a0152611930565b60a0850151878203601f190160c0890152611930565b60c0840151868203601f190160e0880152611930565b9160e0810151610100860152610100810151610120860152610120810151151561014086015261014081015115156101608601526101608101511515828601520151601f19848303016101a0850152611955565b0390f35b82548452602090930192600192830192016102d0565b3461015f57600036600319011261015f576020600160a060020a0360035416604051908152f35b3461015f57604036600319011261015f5767ffffffffffffffff60043581811161015f5761045b903690600401611873565b60243582811161015f57610473903690600401611873565b913360005260016020928184528160ff610100600960406000200154041615150361067f576104b890336000528285526104b36006604060002001611ba1565b611c44565b15610638576040519083808301526104e6826104d76040820188611930565b03601f19938482018152611851565b33600052808452610501856104b36006604060002001611ba1565b156105f1573360005280845260066040600020019385519384116105d8576105338461052d8754611989565b876119de565b8092601f851160011461057457505050819293600092610569575b5050816002029160080260020a600019041916179055600080f35b01519050838061054e565b849391929416958560005282600020926000905b8882106105c1575050836002959697106105a6575b50505002019055005b01516008601f841602840a600019041916905584808061059d565b808785968294968601518155019501930190610588565b60e060020a634e487b7102600052604160045260246000fd5b6064846040519060e560020a62461bcd0282526004820152601460248201527f496e76616c6964206e65772070617373776f72640000000000000000000000006044820152fd5b6064836040519060e560020a62461bcd0282526004820152601460248201527f496e76616c6964206f6c642070617373776f72640000000000000000000000006044820152fd5b6064846040519060e560020a62461bcd0282526004820152600d60248201527f4e6f74206c6f6767656420696e000000000000000000000000000000000000006044820152fd5b3461015f5760c036600319011261015f576106df61181e565b60243567ffffffffffffffff811161015f576106ff903690600401611873565b60643567ffffffffffffffff811161015f5761071f903690600401611873565b60843567ffffffffffffffff811161015f5761073f903690600401611873565b60a43567ffffffffffffffff811161015f5761075f903690600401611873565b9060005460ff8116610ecb5760019060ff191617600055600160a060020a038516600052600160205260096040600020015460ff811615908115610eba575b5015610e7357604051926020840184811067ffffffffffffffff8211176105d85760405260008452604051946107d386611834565b600160a060020a038716865260208601526044356040860152606085015260405180604081011067ffffffffffffffff6040830111176105d85760408101604052600281527f2d2d0000000000000000000000000000000000000000000000000000000000006020820152608085015260a084015260c0830152600060e08301526000610100830152600161012083015260006101408301526000610160830152610180820152600160a060020a03821660005260016020526040600020600160a060020a03825116600160a060020a0319825416178155602082015180519067ffffffffffffffff82116105d85781906108de826108d56001870154611989565b600187016119de565b602090601f8311600114610dff57600092610df4575b5050816002029160080260020a6000190419161760018201555b60408201516002820155606082015180519067ffffffffffffffff82116105d857819061094b826109426003870154611989565b600387016119de565b602090601f8311600114610d8057600092610d75575b5050816002029160080260020a6000190419161760038201555b608082015180519067ffffffffffffffff82116105d85781906109ae826109a56004870154611989565b600487016119de565b602090601f8311600114610d0157600092610cf6575b5050816002029160080260020a6000190419161760048201555b60a082015180519067ffffffffffffffff82116105d8578190610a1182610a086005870154611989565b600587016119de565b602090601f8311600114610c8257600092610c77575b5050816002029160080260020a6000190419161760058201555b60c082015180519067ffffffffffffffff82116105d857610a7282610a696006860154611989565b600686016119de565b602090601f8311600114610bfe5791806101809492600a94600092610bf3575b5050816002029160080260020a6000190419161760068201555b60e084015160078201556101008401516008820155610b1f60098201610ae56101208701511515829060ff801983541691151516179055565b610140860151815461016088015162ff000090151562010000021662ffff001990911661ff00921515610100029290921691909117179055565b019101519081519167ffffffffffffffff83116105d857602090610b438484611b09565b0190600052602060002060005b838110610bdf5784600254680100000000000000008110156105d8576001810180600255811015610bc657600160a060020a03907f405787fa12a823e0f2b7631cc41b3ba8828b3321ca811111fa75cd3aa3bb5ace019116600160a060020a031982541617905560ff1960005416600055600080f35b60e060020a634e487b7102600052603260045260246000fd5b600190602084519401938184015501610b50565b015190508780610a92565b906006840160005260206000209160005b601f1985168110610c5f5750836101809593600193600293600a97601f19811610610c44575b50505002016006820155610aac565b01516008601f841602840a6000190419169055888080610c35565b91926020600181928685015181550194019201610c0f565b015190508580610a27565b91506005840160005260206000209160005b601f1985168110610cde5750918391600293600195601f19811610610cc3575b50505002016005820155610a41565b01516008601f841602840a6000190419169055868080610cb4565b91926020600181928685015181550194019201610c94565b0151905085806109c4565b91506004840160005260206000209160005b601f1985168110610d5d5750918391600293600195601f19811610610d42575b505050020160048201556109de565b01516008601f841602840a6000190419169055868080610d33565b91926020600181928685015181550194019201610d13565b015190508580610961565b91506003840160005260206000209160005b601f1985168110610ddc5750918391600293600195601f19811610610dc1575b5050500201600382015561097b565b01516008601f841602840a6000190419169055868080610db2565b91926020600181928685015181550194019201610d92565b0151905085806108f4565b91506001840160005260206000209160005b601f1985168110610e5b5750918391600293600195601f19811610610e40575b5050500201600182015561090e565b01516008601f841602840a6000190419169055868080610e31565b91926020600181928685015181550194019201610e11565b606460405160e560020a62461bcd02815260206004820152601b60248201527f446f6e6f7220697320616c7265616479207265676973746572656400000000006044820152fd5b60ff9150620100009004168661079e565b606460405160e560020a62461bcd02815260206004820152600f60248201527f5265656e7472616e742063616c6c2e00000000000000000000000000000000006044820152fd5b3461015f57602036600319011261015f57600160a060020a03610f3361181e565b1660005260016020526040600020600a60405191610f5083611834565b600160a060020a038154168352610f6960018201611ba1565b602084015260028101546040840152610f8460038201611ba1565b6060840152610f9560048201611ba1565b6080840152610fa660058201611ba1565b60a0840152610fb760068201611ba1565b60c0840152600781015460e0840152600881015461010084015260ff6201000060098301548281161515610120870152826101008204161515610140870152041615156101608401526040518092839201906020825491828152019160005260206000209060005b81811061111257505050036110349082611851565b806101808301528151600160a060020a031690602083015192604081015160808201519160608101519260a08201519360e0830151946101008401519161012085015115159361014086015115159561016001511515966040519b8c9b8c5260208c0161018090526101808c016110aa91611930565b9060408c01528a810360608c01526110c191611930565b89810360808b01526110d291611930565b88810360a08a01526110e391611930565b9460c088015260e08701526101008601526101208501526101408401528281036101608401526103e891611955565b825484528594506020909301926001928301920161101f565b3461015f57600160a060020a03611141366118ca565b911690816000526001602052600160ff600960406000200154161515036111eb5761117f908260005260016020526104b36006604060002001611ba1565b156111a4576000908152600160205260409020600901805461ff001916610100179055005b606460405160e560020a62461bcd02815260206004820152601b60248201527f496e76616c69642061646472657373206f722070617373776f726400000000006044820152fd5b606460405160e560020a62461bcd02815260206004820152601860248201527f596f7572206e6f742072656769737465726564207965742100000000000000006044820152fd5b3461015f57604036600319011261015f57600160a060020a038061125461181e565b168060005260016020526040600020600a8101918254680100000000000000008110156105d85760018101808555811015610bc657836000526024359060206000200155600052600160205260406000208181036112ae57005b61139a826113a095600a945416600160a060020a03198454161783556112da6001820160018501611a25565b600281015460028401556112f46003820160038501611a25565b6113046004820160048501611a25565b6113146005820160058501611a25565b6113246006820160068501611a25565b600781015460078401556008810154600884015560ff620100006009808601930161135e83825416859060ff801983541691151516179055565b8054845461ff001916610100918290048516151590910261ff001617845554041662ff000062010000835492151502169062ff00001916179055565b01611b42565b005b3461015f576113b0366118ca565b600160a060020a03809216806000526001926020928484526040600020936004850193825167ffffffffffffffff81116105d85787936113fa826113f48954611989565b896119de565b8390601f83116001146114fb5760009190836114f0575b5050816002029160080260020a6000190419161785555b6000525260406000209280840361143b57005b61148a600a936114676113a0978695855416600160a060020a0319895416178855808501908801611a25565b600283015460028701556114816003840160038801611a25565b60048601611a25565b61149a6005820160058601611a25565b6114aa6006820160068601611a25565b60078101546007850155600881015460088501556114e86009850160ff620100006009850161135e83825416859060ff801983541691151516179055565b019101611b42565b015190508980611411565b90601f1983169188600052856000209260005b81811061154c575091600293918589969410611531575b50505002018555611428565b01516008601f841602840a60001904191690558a8080611525565b8284015185558c989094019392870192870161150e565b3461015f57600036600319011261015f57604051806002548083526020809301809160026000527f405787fa12a823e0f2b7631cc41b3ba8828b3321ca811111fa75cd3aa3bb5ace9060005b8682821061160e5786866115c582880383611851565b604051928392818401908285525180915260408401929160005b8281106115ee57505050500390f35b8351600160a060020a0316855286955093810193928101926001016115df565b8354600160a060020a0316855290930192600192830192016115af565b3461015f57602036600319011261015f57600160a060020a0361164c61181e565b168060005260016020526201000060ff8160096040600020015404166116b05781600052600160205260096040600020019062ff0000198254161790557f915a66745f65c5e6fa85ccd08c5a3644d5a63f4989992bdf1031b4355b26fbf7600080a2005b606460405160e560020a62461bcd02815260206004820152601860248201527f54686973206461746120646f6573206e6f7420657869737400000000000000006044820152fd5b3461015f57604036600319011261015f57600160a060020a038061171961181e565b1690816000526001602052604060002091600783019081546024358101809111611805578255600052600160205260406000209183830361175657005b83600a9283926113a0965416600160a060020a03198654161785556117816001830160018701611a25565b6002820154600286015561179b6003830160038701611a25565b6117ab6004830160048701611a25565b6117bb6005830160058701611a25565b6117cb6006830160068701611a25565b546007850155600881015460088501556114e86009850160ff620100006009850161135e83825416859060ff801983541691151516179055565b60e060020a634e487b7102600052601160045260246000fd5b60043590600160a060020a038216820361015f57565b6101a0810190811067ffffffffffffffff8211176105d857604052565b90601f8019910116810190811067ffffffffffffffff8211176105d857604052565b81601f8201121561015f5780359067ffffffffffffffff82116105d857604051926118a8601f8401601f191660200185611851565b8284526020838301011161015f57816000926020809301838601378301015290565b90604060031983011261015f57600435600160a060020a038116810361015f57916024359067ffffffffffffffff821161015f5761190a91600401611873565b90565b60005b8381106119205750506000910152565b8181015183820152602001611910565b906020916119498151809281855285808601910161190d565b601f01601f1916010190565b90815180825260208080930193019160005b828110611975575050505090565b835185529381019392810192600101611967565b90600160028304921680156119bd575b60208310146119a457565b60e060020a634e487b7102600052602260045260246000fd5b91607f1691611999565b8181106119d2575050565b600081556001016119c7565b9190601f81116119ed57505050565b611a1992600052602060002090602080601f85010483019310611a1b575b601f602091010401906119c7565b565b9091508190611a0b565b90808214611b0557611a378154611989565b9067ffffffffffffffff82116105d8578190611a5d82611a578654611989565b866119de565b600090601f8311600114611a9657600092611a8b575b5050816002029160080260020a600019041916179055565b015490503880611a73565b81526020808220858352818320935090601f1985169083905b828210611aec5750509160029391856001969410611ad1575b50505002019055565b01546008601f841602840a6000190419169055388080611ac8565b8495819295850154815560018091019601940190611aaf565b5050565b906801000000000000000081116105d857815490808355818110611b2c57505050565b611a1992600052602060002091820191016119c7565b818114611b055781549167ffffffffffffffff83116105d857611b658383611b09565b60005260206000209060005260206000208154916000925b848410611b8b575050505050565b6001809192019384549281850155019290611b7d565b9060405191826000825492611bb584611989565b908184526001948581169081600014611c225750600114611bdf575b5050611a1992500383611851565b9093915060005260209081600020936000915b818310611c0a575050611a1993508201013880611bd1565b85548884018501529485019487945091830191611bf2565b915050611a1994506020925060ff191682840152151581028201013880611bd1565b9060405191602092611c72848281611c65818301968781519384920161190d565b8101038084520182611851565b51902091611c92604051918281611c65818301968781519384920161190d565b519020149056fea2646970667358221220d581b4c2a49beb761fa0b3c905c9402e21fc2297fdf8279a29493c86d1089f9264736f6c63430008130033",
  "immutableReferences": {},
  "source": "// SPDX-License-Identifier: MIT\npragma solidity ^0.8.19;\nimport \"./AccessControl.sol\";\nimport\"./CollectionPointContract.sol\";\n\ncontract DonorContract is AccessControl{\n\n    event deletedDonor(address indexed donorAddress);\n\n    struct Donor {\n        address donorPublicAddress;\n        string name;\n        uint256 age;\n        string gender;\n        string bloodType;\n        string phoneNumber;\n        string password;\n        uint256 donatedVolume;\n        uint256 totalPayment;\n        bool isRegistered;\n        bool isLogin;\n        bool isDeleted;\n        uint256[] donorTransactionHistory;\n    }\n\n    mapping(address => Donor) private donors;\n\n    address[] private donorAddressArr;\n\n    CollectionPointContract public collectionPoint;\n\n    constructor(address collectionPointAddress_) {\n        collectionPoint = CollectionPointContract(collectionPointAddress_);\n    }\n\n    function updateVolume(address _donodAddress, uint256 _newVolume) external {\n        Donor storage donor = donors[_donodAddress];\n        donor.donatedVolume += _newVolume;\n        donors[_donodAddress] = donor;\n    }\n\n    function updateDonorBloodType(address _donorAddress, string memory _bloodType) external {\n        Donor storage donor = donors[_donorAddress];\n        donor.bloodType = _bloodType;\n        donors[_donorAddress] = donor;\n    }\n    function updateDonationHistory(address _donorAddress, uint256 _transactionID) external {\n        Donor storage donor = donors[_donorAddress];\n        donor.donorTransactionHistory.push(_transactionID);\n        donors[_donorAddress] = donor;\n    }\n\n    function readDonors(address _donorAddress) external view returns (Donor memory) {\n        return donors[_donorAddress];\n    }\n    \n    function addDonor(\n        address _donorPublicAddress,\n        string memory _name,\n        uint256 _age,\n        string memory _gender,\n        string memory _contactNumber,\n        string memory _password\n    ) external noReentrancy {\n        require(\n            donors[_donorPublicAddress].isRegistered == false || donors[_donorPublicAddress].isDeleted,\n            \"Donor is already registered\"\n        );\n        donors[_donorPublicAddress] = Donor({\n            donorPublicAddress: _donorPublicAddress,\n            name: _name,\n            age: _age,\n            gender: _gender,\n            bloodType: \"--\",\n            phoneNumber: _contactNumber,\n            password: _password,\n            donatedVolume: 0,\n            totalPayment: 0,\n            isRegistered: true,\n            isLogin: false,\n            isDeleted: false,\n            donorTransactionHistory: new uint256[](0)\n    });\n\n        donorAddressArr.push(_donorPublicAddress);\n    }\n\n    function donorChangePassword(string memory _oldPassword, string memory _newPassword) external {\n        require(donors[msg.sender].isLogin == true, \"Not logged in\");\n        require(compareString(donors[msg.sender].password, _oldPassword), \"Invalid old password\");\n        require(keccak256(abi.encode(_newPassword)).length > 0, \"Password should not be empty\");\n        require(compareString(donors[msg.sender].password, _newPassword), \"Invalid new password\");\n\n        donors[msg.sender].password = _newPassword;\n    }\n\n\n    function  donorLogin(address _donorPublicAddress, string memory _password) external {\n        require(donors[_donorPublicAddress].isRegistered == true, \"Your not registered yet!\");\n        // require(donors[_donorPublicAddress].isLogin == false, \"Your Already login\");\n        require(compareString(donors[_donorPublicAddress].password, _password), \"Invalid address or password\");\n        \n        donors[_donorPublicAddress].isLogin = true;\n    }\n\n    function donorLogout(address _DNPublicAddress) external {\n        require(donors[_DNPublicAddress].isLogin, \"You're not logged in\");\n\n        donors[_DNPublicAddress].isLogin = false;\n    }\n\n    function getDonorsArr() external view returns (address[] memory) {\n        return donorAddressArr;\n    }\n\n    function getDonor(\n        address _donorPublicAddress\n    )\n        external\n        view\n        returns (\n            address publicAddress,\n            string memory name,\n            uint256 age,\n            string memory bloodType,\n            string memory gender,\n            string memory phoneNumber,\n            uint256 donatedVolume,\n            uint256 totalPayment,\n            bool isRegistered,\n            bool isLogin,\n            bool isDeleted,\n            uint256[] memory donorTransactionHistory\n        )\n    {\n        Donor memory donor = donors[_donorPublicAddress];\n        publicAddress = donor.donorPublicAddress;\n        name = donor.name;\n        age = donor.age; \n        bloodType = donor.bloodType;\n        gender = donor.gender;\n        phoneNumber = donor.phoneNumber;\n        donatedVolume = donor.donatedVolume;\n        totalPayment = donor.totalPayment;\n        isRegistered = donor.isRegistered;\n        isLogin = donor.isLogin;\n        isDeleted = donor.isDeleted;\n        donorTransactionHistory = donor.donorTransactionHistory;\n    }\n\n    function deleteDonor(address donorAddress_) external {\n        require(!donors[donorAddress_].isDeleted, \"This data does not exist\");\n        Donor storage donor = donors[donorAddress_];\n        donor.isDeleted = true;\n        donors[donorAddress_] = donor;\n        emit deletedDonor(donorAddress_);\n    }\n}\n",
  "sourcePath": "/home/temba/Desktop/blood-donation-blockchain-system/client-side/contracts/DonorContract.sol",
  "compiler": {
    "name": "solc",
    "version": "0.8.19+commit.7dd6d404.Emscripten.clang"
  },
  "schemaVersion": "3.4.16",
  "updatedAt": "2024-03-17T21:25:58.740Z",
  "networkType": "ethereum",
  "devdoc": {
    "kind": "dev",
    "methods": {},
    "version": 1
  },
  "userdoc": {
    "kind": "user",
    "methods": {},
    "version": 1
  }
}