{
  "contractName": "DonorContract",
  "abi": [
    {
      "inputs": [
        {
          "internalType": "address",
          "name": "collectionPointAddress_",
          "type": "address"
        }
      ],
      "stateMutability": "nonpayable",
      "type": "constructor"
    },
    {
      "anonymous": false,
      "inputs": [
        {
          "indexed": true,
          "internalType": "address",
          "name": "donorAddress",
          "type": "address"
        }
      ],
      "name": "deletedDonor",
      "type": "event"
    },
    {
      "inputs": [],
      "name": "collectionPoint",
      "outputs": [
        {
          "internalType": "contract CollectionPointContract",
          "name": "",
          "type": "address"
        }
      ],
      "stateMutability": "view",
      "type": "function",
      "constant": true
    },
    {
      "inputs": [
        {
          "internalType": "address",
          "name": "_donodAddress",
          "type": "address"
        },
        {
          "internalType": "uint256",
          "name": "_newVolume",
          "type": "uint256"
        }
      ],
      "name": "updateVolume",
      "outputs": [],
      "stateMutability": "nonpayable",
      "type": "function"
    },
    {
      "inputs": [
        {
          "internalType": "address",
          "name": "_donorAddress",
          "type": "address"
        },
        {
          "internalType": "string",
          "name": "_bloodType",
          "type": "string"
        }
      ],
      "name": "updateDonorBloodType",
      "outputs": [],
      "stateMutability": "nonpayable",
      "type": "function"
    },
    {
      "inputs": [
        {
          "internalType": "address",
          "name": "_donorAddress",
          "type": "address"
        },
        {
          "internalType": "uint256",
          "name": "_transactionID",
          "type": "uint256"
        }
      ],
      "name": "updateDonationHistory",
      "outputs": [],
      "stateMutability": "nonpayable",
      "type": "function"
    },
    {
      "inputs": [
        {
          "internalType": "address",
          "name": "_donorAddress",
          "type": "address"
        }
      ],
      "name": "readDonors",
      "outputs": [
        {
          "components": [
            {
              "internalType": "address",
              "name": "donorPublicAddress",
              "type": "address"
            },
            {
              "internalType": "string",
              "name": "name",
              "type": "string"
            },
            {
              "internalType": "uint256",
              "name": "age",
              "type": "uint256"
            },
            {
              "internalType": "string",
              "name": "gender",
              "type": "string"
            },
            {
              "internalType": "string",
              "name": "bloodType",
              "type": "string"
            },
            {
              "internalType": "string",
              "name": "phoneNumber",
              "type": "string"
            },
            {
              "internalType": "string",
              "name": "password",
              "type": "string"
            },
            {
              "internalType": "uint256",
              "name": "donatedVolume",
              "type": "uint256"
            },
            {
              "internalType": "uint256",
              "name": "totalPayment",
              "type": "uint256"
            },
            {
              "internalType": "bool",
              "name": "isRegistered",
              "type": "bool"
            },
            {
              "internalType": "bool",
              "name": "isLogin",
              "type": "bool"
            },
            {
              "internalType": "bool",
              "name": "isDeleted",
              "type": "bool"
            },
            {
              "internalType": "uint256[]",
              "name": "donorTransactionHistory",
              "type": "uint256[]"
            }
          ],
          "internalType": "struct DonorContract.Donor",
          "name": "",
          "type": "tuple"
        }
      ],
      "stateMutability": "view",
      "type": "function",
      "constant": true
    },
    {
      "inputs": [
        {
          "internalType": "address",
          "name": "_donorPublicAddress",
          "type": "address"
        },
        {
          "internalType": "string",
          "name": "_name",
          "type": "string"
        },
        {
          "internalType": "uint256",
          "name": "_age",
          "type": "uint256"
        },
        {
          "internalType": "string",
          "name": "_gender",
          "type": "string"
        },
        {
          "internalType": "string",
          "name": "_contactNumber",
          "type": "string"
        },
        {
          "internalType": "string",
          "name": "_password",
          "type": "string"
        }
      ],
      "name": "addDonor",
      "outputs": [],
      "stateMutability": "nonpayable",
      "type": "function"
    },
    {
      "inputs": [
        {
          "internalType": "string",
          "name": "_oldPassword",
          "type": "string"
        },
        {
          "internalType": "string",
          "name": "_newPassword",
          "type": "string"
        }
      ],
      "name": "donorChangePassword",
      "outputs": [],
      "stateMutability": "nonpayable",
      "type": "function"
    },
    {
      "inputs": [
        {
          "internalType": "address",
          "name": "_donorPublicAddress",
          "type": "address"
        },
        {
          "internalType": "string",
          "name": "_password",
          "type": "string"
        }
      ],
      "name": "donorLogin",
      "outputs": [],
      "stateMutability": "nonpayable",
      "type": "function"
    },
    {
      "inputs": [
        {
          "internalType": "address",
          "name": "_DNPublicAddress",
          "type": "address"
        }
      ],
      "name": "donorLogout",
      "outputs": [],
      "stateMutability": "nonpayable",
      "type": "function"
    },
    {
      "inputs": [],
      "name": "getDonorsArr",
      "outputs": [
        {
          "internalType": "address[]",
          "name": "",
          "type": "address[]"
        }
      ],
      "stateMutability": "view",
      "type": "function",
      "constant": true
    },
    {
      "inputs": [
        {
          "internalType": "address",
          "name": "_donorPublicAddress",
          "type": "address"
        }
      ],
      "name": "getDonor",
      "outputs": [
        {
          "internalType": "address",
          "name": "publicAddress",
          "type": "address"
        },
        {
          "internalType": "string",
          "name": "name",
          "type": "string"
        },
        {
          "internalType": "uint256",
          "name": "age",
          "type": "uint256"
        },
        {
          "internalType": "string",
          "name": "bloodType",
          "type": "string"
        },
        {
          "internalType": "string",
          "name": "gender",
          "type": "string"
        },
        {
          "internalType": "string",
          "name": "phoneNumber",
          "type": "string"
        },
        {
          "internalType": "uint256",
          "name": "donatedVolume",
          "type": "uint256"
        },
        {
          "internalType": "uint256",
          "name": "totalPayment",
          "type": "uint256"
        },
        {
          "internalType": "bool",
          "name": "isRegistered",
          "type": "bool"
        },
        {
          "internalType": "bool",
          "name": "isLogin",
          "type": "bool"
        },
        {
          "internalType": "bool",
          "name": "isDeleted",
          "type": "bool"
        },
        {
          "internalType": "uint256[]",
          "name": "donorTransactionHistory",
          "type": "uint256[]"
        }
      ],
      "stateMutability": "view",
      "type": "function",
      "constant": true
    },
    {
      "inputs": [
        {
          "internalType": "address",
          "name": "donorAddress_",
          "type": "address"
        }
      ],
      "name": "deleteDonor",
      "outputs": [],
      "stateMutability": "nonpayable",
      "type": "function"
    }
  ],
  "bytecode": "0x60a06040523480156200001157600080fd5b506040516200369f3803806200369f83398181016040528101906200003791906200011d565b3373ffffffffffffffffffffffffffffffffffffffff1660808173ffffffffffffffffffffffffffffffffffffffff168152505080600360006101000a81548173ffffffffffffffffffffffffffffffffffffffff021916908373ffffffffffffffffffffffffffffffffffffffff160217905550506200014f565b600080fd5b600073ffffffffffffffffffffffffffffffffffffffff82169050919050565b6000620000e582620000b8565b9050919050565b620000f781620000d8565b81146200010357600080fd5b50565b6000815190506200011781620000ec565b92915050565b600060208284031215620001365762000135620000b3565b5b6000620001468482850162000106565b91505092915050565b60805161353762000168600039600050506135376000f3fe608060405234801561001057600080fd5b50600436106100b45760003560e01c806396c590431161007157806396c5904314610163578063a70a5e5f1461019e578063afc10fa9146101ba578063bae4c740146101d6578063be3a9028146101f4578063df5befd714610224576100b4565b806302c7739b146100b95780630d9b1935146100d55780631eb850b1146100f157806365837dca1461010f5780636d0a1c381461012b57806391ba33b414610147575b600080fd5b6100d360048036038101906100ce91906122c8565b610240565b005b6100ef60048036038101906100ea9190612308565b610472565b005b6100f9610778565b60405161010691906123f3565b60405180910390f35b6101296004803603810190610124919061255b565b610806565b005b610145600480360381019061014091906122c8565b610a2f565b005b610161600480360381019061015c919061255b565b610c71565b005b61017d60048036038101906101789190612308565b610e78565b6040516101959c9b9a9998979695949392919061272d565b60405180910390f35b6101b860048036038101906101b3919061280a565b61133c565b005b6101d460048036038101906101cf9190612907565b6117a4565b005b6101de611b23565b6040516101eb91906129de565b60405180910390f35b61020e60048036038101906102099190612308565b611b49565b60405161021b9190612bfd565b60405180910390f35b61023e60048036038101906102399190612308565b611f9a565b005b6000600160008473ffffffffffffffffffffffffffffffffffffffff1673ffffffffffffffffffffffffffffffffffffffff1681526020019081526020016000209050818160070160008282546102979190612c4e565b9250508190555080600160008573ffffffffffffffffffffffffffffffffffffffff1673ffffffffffffffffffffffffffffffffffffffff1681526020019081526020016000206000820160009054906101000a900473ffffffffffffffffffffffffffffffffffffffff168160000160006101000a81548173ffffffffffffffffffffffffffffffffffffffff021916908373ffffffffffffffffffffffffffffffffffffffff160217905550600182018160010190816103599190612e9a565b5060028201548160020155600382018160030190816103789190612e9a565b506004820181600401908161038d9190612e9a565b50600582018160050190816103a29190612e9a565b50600682018160060190816103b79190612e9a565b5060078201548160070155600882015481600801556009820160009054906101000a900460ff168160090160006101000a81548160ff0219169083151502179055506009820160019054906101000a900460ff168160090160016101000a81548160ff0219169083151502179055506009820160029054906101000a900460ff168160090160026101000a81548160ff021916908315150217905550600a820181600a019080546104699291906120e0565b50905050505050565b600160008273ffffffffffffffffffffffffffffffffffffffff1673ffffffffffffffffffffffffffffffffffffffff16815260200190815260200160002060090160029054906101000a900460ff1615610502576040517f08c379a00000000000000000000000000000000000000000000000000000000081526004016104f990612fce565b60405180910390fd5b6000600160008373ffffffffffffffffffffffffffffffffffffffff1673ffffffffffffffffffffffffffffffffffffffff168152602001908152602001600020905060018160090160026101000a81548160ff02191690831515021790555080600160008473ffffffffffffffffffffffffffffffffffffffff1673ffffffffffffffffffffffffffffffffffffffff1681526020019081526020016000206000820160009054906101000a900473ffffffffffffffffffffffffffffffffffffffff168160000160006101000a81548173ffffffffffffffffffffffffffffffffffffffff021916908373ffffffffffffffffffffffffffffffffffffffff1602179055506001820181600101908161061d9190612e9a565b50600282015481600201556003820181600301908161063c9190612e9a565b50600482018160040190816106519190612e9a565b50600582018160050190816106669190612e9a565b506006820181600601908161067b9190612e9a565b5060078201548160070155600882015481600801556009820160009054906101000a900460ff168160090160006101000a81548160ff0219169083151502179055506009820160019054906101000a900460ff168160090160016101000a81548160ff0219169083151502179055506009820160029054906101000a900460ff168160090160026101000a81548160ff021916908315150217905550600a820181600a0190805461072d9291906120e0565b509050508173ffffffffffffffffffffffffffffffffffffffff167f915a66745f65c5e6fa85ccd08c5a3644d5a63f4989992bdf1031b4355b26fbf760405160405180910390a25050565b606060028054806020026020016040519081016040528092919081815260200182805480156107fc57602002820191906000526020600020905b8160009054906101000a900473ffffffffffffffffffffffffffffffffffffffff1673ffffffffffffffffffffffffffffffffffffffff16815260200190600101908083116107b2575b5050505050905090565b6000600160008473ffffffffffffffffffffffffffffffffffffffff1673ffffffffffffffffffffffffffffffffffffffff16815260200190815260200160002090508181600401908161085a9190612fee565b5080600160008573ffffffffffffffffffffffffffffffffffffffff1673ffffffffffffffffffffffffffffffffffffffff1681526020019081526020016000206000820160009054906101000a900473ffffffffffffffffffffffffffffffffffffffff168160000160006101000a81548173ffffffffffffffffffffffffffffffffffffffff021916908373ffffffffffffffffffffffffffffffffffffffff160217905550600182018160010190816109169190612e9a565b5060028201548160020155600382018160030190816109359190612e9a565b506004820181600401908161094a9190612e9a565b506005820181600501908161095f9190612e9a565b50600682018160060190816109749190612e9a565b5060078201548160070155600882015481600801556009820160009054906101000a900460ff168160090160006101000a81548160ff0219169083151502179055506009820160019054906101000a900460ff168160090160016101000a81548160ff0219169083151502179055506009820160029054906101000a900460ff168160090160026101000a81548160ff021916908315150217905550600a820181600a01908054610a269291906120e0565b50905050505050565b6000600160008473ffffffffffffffffffffffffffffffffffffffff1673ffffffffffffffffffffffffffffffffffffffff168152602001908152602001600020905080600a0182908060018154018082558091505060019003906000526020600020016000909190919091505580600160008573ffffffffffffffffffffffffffffffffffffffff1673ffffffffffffffffffffffffffffffffffffffff1681526020019081526020016000206000820160009054906101000a900473ffffffffffffffffffffffffffffffffffffffff168160000160006101000a81548173ffffffffffffffffffffffffffffffffffffffff021916908373ffffffffffffffffffffffffffffffffffffffff16021790555060018201816001019081610b589190612e9a565b506002820154816002015560038201816003019081610b779190612e9a565b5060048201816004019081610b8c9190612e9a565b5060058201816005019081610ba19190612e9a565b5060068201816006019081610bb69190612e9a565b5060078201548160070155600882015481600801556009820160009054906101000a900460ff168160090160006101000a81548160ff0219169083151502179055506009820160019054906101000a900460ff168160090160016101000a81548160ff0219169083151502179055506009820160029054906101000a900460ff168160090160026101000a81548160ff021916908315150217905550600a820181600a01908054610c689291906120e0565b50905050505050565b60011515600160008473ffffffffffffffffffffffffffffffffffffffff1673ffffffffffffffffffffffffffffffffffffffff16815260200190815260200160002060090160009054906101000a900460ff16151514610d07576040517f08c379a0000000000000000000000000000000000000000000000000000000008152600401610cfe9061310c565b60405180910390fd5b610ddb600160008473ffffffffffffffffffffffffffffffffffffffff1673ffffffffffffffffffffffffffffffffffffffff1681526020019081526020016000206006018054610d5790612cb1565b80601f0160208091040260200160405190810160405280929190818152602001828054610d8390612cb1565b8015610dd05780601f10610da557610100808354040283529160200191610dd0565b820191906000526020600020905b815481529060010190602001808311610db357829003601f168201915b505050505082612087565b610e1a576040517f08c379a0000000000000000000000000000000000000000000000000000000008152600401610e1190613178565b60405180910390fd5b60018060008473ffffffffffffffffffffffffffffffffffffffff1673ffffffffffffffffffffffffffffffffffffffff16815260200190815260200160002060090160016101000a81548160ff0219169083151502179055505050565b6000606060006060806060600080600080600060606000600160008f73ffffffffffffffffffffffffffffffffffffffff1673ffffffffffffffffffffffffffffffffffffffff168152602001908152602001600020604051806101a00160405290816000820160009054906101000a900473ffffffffffffffffffffffffffffffffffffffff1673ffffffffffffffffffffffffffffffffffffffff1673ffffffffffffffffffffffffffffffffffffffff168152602001600182018054610f4090612cb1565b80601f0160208091040260200160405190810160405280929190818152602001828054610f6c90612cb1565b8015610fb95780601f10610f8e57610100808354040283529160200191610fb9565b820191906000526020600020905b815481529060010190602001808311610f9c57829003601f168201915b5050505050815260200160028201548152602001600382018054610fdc90612cb1565b80601f016020809104026020016040519081016040528092919081815260200182805461100890612cb1565b80156110555780601f1061102a57610100808354040283529160200191611055565b820191906000526020600020905b81548152906001019060200180831161103857829003601f168201915b5050505050815260200160048201805461106e90612cb1565b80601f016020809104026020016040519081016040528092919081815260200182805461109a90612cb1565b80156110e75780601f106110bc576101008083540402835291602001916110e7565b820191906000526020600020905b8154815290600101906020018083116110ca57829003601f168201915b5050505050815260200160058201805461110090612cb1565b80601f016020809104026020016040519081016040528092919081815260200182805461112c90612cb1565b80156111795780601f1061114e57610100808354040283529160200191611179565b820191906000526020600020905b81548152906001019060200180831161115c57829003601f168201915b5050505050815260200160068201805461119290612cb1565b80601f01602080910402602001604051908101604052809291908181526020018280546111be90612cb1565b801561120b5780601f106111e05761010080835404028352916020019161120b565b820191906000526020600020905b8154815290600101906020018083116111ee57829003601f168201915b5050505050815260200160078201548152602001600882015481526020016009820160009054906101000a900460ff161515151581526020016009820160019054906101000a900460ff161515151581526020016009820160029054906101000a900460ff16151515158152602001600a82018054806020026020016040519081016040528092919081815260200182805480156112c857602002820191906000526020600020905b8154815260200190600101908083116112b4575b505050505081525050905080600001519c5080602001519b5080604001519a5080608001519950806060015198508060a0015197508060e001519650806101000151955080610120015194508061014001519350806101600151925080610180015191505091939597999b5091939597999b565b60008054906101000a900460ff161561138a576040517f08c379a0000000000000000000000000000000000000000000000000000000008152600401611381906131e4565b60405180910390fd5b60016000806101000a81548160ff02191690831515021790555060001515600160008873ffffffffffffffffffffffffffffffffffffffff1673ffffffffffffffffffffffffffffffffffffffff16815260200190815260200160002060090160009054906101000a900460ff16151514806114525750600160008773ffffffffffffffffffffffffffffffffffffffff1673ffffffffffffffffffffffffffffffffffffffff16815260200190815260200160002060090160029054906101000a900460ff165b611491576040517f08c379a000000000000000000000000000000000000000000000000000000000815260040161148890613250565b60405180910390fd5b604051806101a001604052808773ffffffffffffffffffffffffffffffffffffffff1681526020018681526020018581526020018481526020016040518060400160405280600281526020017f2d2d00000000000000000000000000000000000000000000000000000000000081525081526020018381526020018281526020016000815260200160008152602001600115158152602001600015158152602001600015158152602001600067ffffffffffffffff81111561155657611555612430565b5b6040519080825280602002602001820160405280156115845781602001602082028036833780820191505090505b50815250600160008873ffffffffffffffffffffffffffffffffffffffff1673ffffffffffffffffffffffffffffffffffffffff16815260200190815260200160002060008201518160000160006101000a81548173ffffffffffffffffffffffffffffffffffffffff021916908373ffffffffffffffffffffffffffffffffffffffff16021790555060208201518160010190816116239190612fee565b506040820151816002015560608201518160030190816116439190612fee565b5060808201518160040190816116599190612fee565b5060a082015181600501908161166f9190612fee565b5060c08201518160060190816116859190612fee565b5060e0820151816007015561010082015181600801556101208201518160090160006101000a81548160ff0219169083151502179055506101408201518160090160016101000a81548160ff0219169083151502179055506101608201518160090160026101000a81548160ff02191690831515021790555061018082015181600a01908051906020019061171b929190612132565b509050506002869080600181540180825580915050600190039060005260206000200160009091909190916101000a81548173ffffffffffffffffffffffffffffffffffffffff021916908373ffffffffffffffffffffffffffffffffffffffff16021790555060008060006101000a81548160ff021916908315150217905550505050505050565b60011515600160003373ffffffffffffffffffffffffffffffffffffffff1673ffffffffffffffffffffffffffffffffffffffff16815260200190815260200160002060090160019054906101000a900460ff1615151461183a576040517f08c379a0000000000000000000000000000000000000000000000000000000008152600401611831906132bc565b60405180910390fd5b61190e600160003373ffffffffffffffffffffffffffffffffffffffff1673ffffffffffffffffffffffffffffffffffffffff168152602001908152602001600020600601805461188a90612cb1565b80601f01602080910402602001604051908101604052809291908181526020018280546118b690612cb1565b80156119035780601f106118d857610100808354040283529160200191611903565b820191906000526020600020905b8154815290600101906020018083116118e657829003601f168201915b505050505083612087565b61194d576040517f08c379a000000000000000000000000000000000000000000000000000000000815260040161194490613328565b60405180910390fd5b6000816040516020016119609190613348565b6040516020818303038152906040528051906020012050602060ff16116119bc576040517f08c379a00000000000000000000000000000000000000000000000000000000081526004016119b3906133b6565b60405180910390fd5b611a90600160003373ffffffffffffffffffffffffffffffffffffffff1673ffffffffffffffffffffffffffffffffffffffff1681526020019081526020016000206006018054611a0c90612cb1565b80601f0160208091040260200160405190810160405280929190818152602001828054611a3890612cb1565b8015611a855780601f10611a5a57610100808354040283529160200191611a85565b820191906000526020600020905b815481529060010190602001808311611a6857829003601f168201915b505050505082612087565b611acf576040517f08c379a0000000000000000000000000000000000000000000000000000000008152600401611ac690613422565b60405180910390fd5b80600160003373ffffffffffffffffffffffffffffffffffffffff1673ffffffffffffffffffffffffffffffffffffffff1681526020019081526020016000206006019081611b1e9190612fee565b505050565b600360009054906101000a900473ffffffffffffffffffffffffffffffffffffffff1681565b611b5161217f565b600160008373ffffffffffffffffffffffffffffffffffffffff1673ffffffffffffffffffffffffffffffffffffffff168152602001908152602001600020604051806101a00160405290816000820160009054906101000a900473ffffffffffffffffffffffffffffffffffffffff1673ffffffffffffffffffffffffffffffffffffffff1673ffffffffffffffffffffffffffffffffffffffff168152602001600182018054611c0290612cb1565b80601f0160208091040260200160405190810160405280929190818152602001828054611c2e90612cb1565b8015611c7b5780601f10611c5057610100808354040283529160200191611c7b565b820191906000526020600020905b815481529060010190602001808311611c5e57829003601f168201915b5050505050815260200160028201548152602001600382018054611c9e90612cb1565b80601f0160208091040260200160405190810160405280929190818152602001828054611cca90612cb1565b8015611d175780601f10611cec57610100808354040283529160200191611d17565b820191906000526020600020905b815481529060010190602001808311611cfa57829003601f168201915b50505050508152602001600482018054611d3090612cb1565b80601f0160208091040260200160405190810160405280929190818152602001828054611d5c90612cb1565b8015611da95780601f10611d7e57610100808354040283529160200191611da9565b820191906000526020600020905b815481529060010190602001808311611d8c57829003601f168201915b50505050508152602001600582018054611dc290612cb1565b80601f0160208091040260200160405190810160405280929190818152602001828054611dee90612cb1565b8015611e3b5780601f10611e1057610100808354040283529160200191611e3b565b820191906000526020600020905b815481529060010190602001808311611e1e57829003601f168201915b50505050508152602001600682018054611e5490612cb1565b80601f0160208091040260200160405190810160405280929190818152602001828054611e8090612cb1565b8015611ecd5780601f10611ea257610100808354040283529160200191611ecd565b820191906000526020600020905b815481529060010190602001808311611eb057829003601f168201915b5050505050815260200160078201548152602001600882015481526020016009820160009054906101000a900460ff161515151581526020016009820160019054906101000a900460ff161515151581526020016009820160029054906101000a900460ff16151515158152602001600a8201805480602002602001604051908101604052809291908181526020018280548015611f8a57602002820191906000526020600020905b815481526020019060010190808311611f76575b5050505050815250509050919050565b600160008273ffffffffffffffffffffffffffffffffffffffff1673ffffffffffffffffffffffffffffffffffffffff16815260200190815260200160002060090160019054906101000a900460ff16612029576040517f08c379a00000000000000000000000000000000000000000000000000000000081526004016120209061348e565b60405180910390fd5b6000600160008373ffffffffffffffffffffffffffffffffffffffff1673ffffffffffffffffffffffffffffffffffffffff16815260200190815260200160002060090160016101000a81548160ff02191690831515021790555050565b60008160405160200161209a91906134ea565b60405160208183030381529060405280519060200120836040516020016120c191906134ea565b6040516020818303038152906040528051906020012014905092915050565b8280548282559060005260206000209081019282156121215760005260206000209182015b82811115612120578254825591600101919060010190612105565b5b50905061212e9190612203565b5090565b82805482825590600052602060002090810192821561216e579160200282015b8281111561216d578251825591602001919060010190612152565b5b50905061217b9190612203565b5090565b604051806101a00160405280600073ffffffffffffffffffffffffffffffffffffffff1681526020016060815260200160008152602001606081526020016060815260200160608152602001606081526020016000815260200160008152602001600015158152602001600015158152602001600015158152602001606081525090565b5b8082111561221c576000816000905550600101612204565b5090565b6000604051905090565b600080fd5b600080fd5b600073ffffffffffffffffffffffffffffffffffffffff82169050919050565b600061225f82612234565b9050919050565b61226f81612254565b811461227a57600080fd5b50565b60008135905061228c81612266565b92915050565b6000819050919050565b6122a581612292565b81146122b057600080fd5b50565b6000813590506122c28161229c565b92915050565b600080604083850312156122df576122de61222a565b5b60006122ed8582860161227d565b92505060206122fe858286016122b3565b9150509250929050565b60006020828403121561231e5761231d61222a565b5b600061232c8482850161227d565b91505092915050565b600081519050919050565b600082825260208201905092915050565b6000819050602082019050919050565b61236a81612254565b82525050565b600061237c8383612361565b60208301905092915050565b6000602082019050919050565b60006123a082612335565b6123aa8185612340565b93506123b583612351565b8060005b838110156123e65781516123cd8882612370565b97506123d883612388565b9250506001810190506123b9565b5085935050505092915050565b6000602082019050818103600083015261240d8184612395565b905092915050565b600080fd5b600080fd5b6000601f19601f8301169050919050565b7f4e487b7100000000000000000000000000000000000000000000000000000000600052604160045260246000fd5b6124688261241f565b810181811067ffffffffffffffff8211171561248757612486612430565b5b80604052505050565b600061249a612220565b90506124a6828261245f565b919050565b600067ffffffffffffffff8211156124c6576124c5612430565b5b6124cf8261241f565b9050602081019050919050565b82818337600083830152505050565b60006124fe6124f9846124ab565b612490565b90508281526020810184848401111561251a5761251961241a565b5b6125258482856124dc565b509392505050565b600082601f83011261254257612541612415565b5b81356125528482602086016124eb565b91505092915050565b600080604083850312156125725761257161222a565b5b60006125808582860161227d565b925050602083013567ffffffffffffffff8111156125a1576125a061222f565b5b6125ad8582860161252d565b9150509250929050565b6125c081612254565b82525050565b600081519050919050565b600082825260208201905092915050565b60005b838110156126005780820151818401526020810190506125e5565b60008484015250505050565b6000612617826125c6565b61262181856125d1565b93506126318185602086016125e2565b61263a8161241f565b840191505092915050565b61264e81612292565b82525050565b60008115159050919050565b61266981612654565b82525050565b600081519050919050565b600082825260208201905092915050565b6000819050602082019050919050565b6126a481612292565b82525050565b60006126b6838361269b565b60208301905092915050565b6000602082019050919050565b60006126da8261266f565b6126e4818561267a565b93506126ef8361268b565b8060005b8381101561272057815161270788826126aa565b9750612712836126c2565b9250506001810190506126f3565b5085935050505092915050565b600061018082019050612743600083018f6125b7565b8181036020830152612755818e61260c565b9050612764604083018d612645565b8181036060830152612776818c61260c565b9050818103608083015261278a818b61260c565b905081810360a083015261279e818a61260c565b90506127ad60c0830189612645565b6127ba60e0830188612645565b6127c8610100830187612660565b6127d6610120830186612660565b6127e4610140830185612660565b8181036101608301526127f781846126cf565b90509d9c50505050505050505050505050565b60008060008060008060c087890312156128275761282661222a565b5b600061283589828a0161227d565b965050602087013567ffffffffffffffff8111156128565761285561222f565b5b61286289828a0161252d565b955050604061287389828a016122b3565b945050606087013567ffffffffffffffff8111156128945761289361222f565b5b6128a089828a0161252d565b935050608087013567ffffffffffffffff8111156128c1576128c061222f565b5b6128cd89828a0161252d565b92505060a087013567ffffffffffffffff8111156128ee576128ed61222f565b5b6128fa89828a0161252d565b9150509295509295509295565b6000806040838503121561291e5761291d61222a565b5b600083013567ffffffffffffffff81111561293c5761293b61222f565b5b6129488582860161252d565b925050602083013567ffffffffffffffff8111156129695761296861222f565b5b6129758582860161252d565b9150509250929050565b6000819050919050565b60006129a461299f61299a84612234565b61297f565b612234565b9050919050565b60006129b682612989565b9050919050565b60006129c8826129ab565b9050919050565b6129d8816129bd565b82525050565b60006020820190506129f360008301846129cf565b92915050565b600082825260208201905092915050565b6000612a15826125c6565b612a1f81856129f9565b9350612a2f8185602086016125e2565b612a388161241f565b840191505092915050565b612a4c81612654565b82525050565b600082825260208201905092915050565b6000612a6e8261266f565b612a788185612a52565b9350612a838361268b565b8060005b83811015612ab4578151612a9b88826126aa565b9750612aa6836126c2565b925050600181019050612a87565b5085935050505092915050565b60006101a083016000830151612ada6000860182612361565b5060208301518482036020860152612af28282612a0a565b9150506040830151612b07604086018261269b565b5060608301518482036060860152612b1f8282612a0a565b91505060808301518482036080860152612b398282612a0a565b91505060a083015184820360a0860152612b538282612a0a565b91505060c083015184820360c0860152612b6d8282612a0a565b91505060e0830151612b8260e086018261269b565b50610100830151612b9761010086018261269b565b50610120830151612bac610120860182612a43565b50610140830151612bc1610140860182612a43565b50610160830151612bd6610160860182612a43565b50610180830151848203610180860152612bf08282612a63565b9150508091505092915050565b60006020820190508181036000830152612c178184612ac1565b905092915050565b7f4e487b7100000000000000000000000000000000000000000000000000000000600052601160045260246000fd5b6000612c5982612292565b9150612c6483612292565b9250828201905080821115612c7c57612c7b612c1f565b5b92915050565b7f4e487b7100000000000000000000000000000000000000000000000000000000600052602260045260246000fd5b60006002820490506001821680612cc957607f821691505b602082108103612cdc57612cdb612c82565b5b50919050565b600081549050612cf181612cb1565b9050919050565b60008190508160005260206000209050919050565b60006020601f8301049050919050565b600082821b905092915050565b600060088302612d5a7fffffffffffffffffffffffffffffffffffffffffffffffffffffffffffffffff82612d1d565b612d648683612d1d565b95508019841693508086168417925050509392505050565b6000612d97612d92612d8d84612292565b61297f565b612292565b9050919050565b6000819050919050565b612db183612d7c565b612dc5612dbd82612d9e565b848454612d2a565b825550505050565b600090565b612dda612dcd565b612de5818484612da8565b505050565b5b81811015612e0957612dfe600082612dd2565b600181019050612deb565b5050565b601f821115612e4e57612e1f81612cf8565b612e2884612d0d565b81016020851015612e37578190505b612e4b612e4385612d0d565b830182612dea565b50505b505050565b600082821c905092915050565b6000612e7160001984600802612e53565b1980831691505092915050565b6000612e8a8383612e60565b9150826002028217905092915050565b818103612ea8575050612f80565b612eb182612ce2565b67ffffffffffffffff811115612eca57612ec9612430565b5b612ed48254612cb1565b612edf828285612e0d565b6000601f831160018114612f0e5760008415612efc578287015490505b612f068582612e7e565b865550612f79565b601f198416612f1c87612cf8565b9650612f2786612cf8565b60005b82811015612f4f57848901548255600182019150600185019450602081019050612f2a565b86831015612f6c5784890154612f68601f891682612e60565b8355505b6001600288020188555050505b5050505050505b565b7f54686973206461746120646f6573206e6f742065786973740000000000000000600082015250565b6000612fb86018836125d1565b9150612fc382612f82565b602082019050919050565b60006020820190508181036000830152612fe781612fab565b9050919050565b612ff7826125c6565b67ffffffffffffffff8111156130105761300f612430565b5b61301a8254612cb1565b613025828285612e0d565b600060209050601f8311600181146130585760008415613046578287015190505b6130508582612e7e565b8655506130b8565b601f19841661306686612cf8565b60005b8281101561308e57848901518255600182019150602085019450602081019050613069565b868310156130ab57848901516130a7601f891682612e60565b8355505b6001600288020188555050505b505050505050565b7f596f7572206e6f74207265676973746572656420796574210000000000000000600082015250565b60006130f66018836125d1565b9150613101826130c0565b602082019050919050565b60006020820190508181036000830152613125816130e9565b9050919050565b7f496e76616c69642061646472657373206f722070617373776f72640000000000600082015250565b6000613162601b836125d1565b915061316d8261312c565b602082019050919050565b6000602082019050818103600083015261319181613155565b9050919050565b7f5265656e7472616e742063616c6c2e0000000000000000000000000000000000600082015250565b60006131ce600f836125d1565b91506131d982613198565b602082019050919050565b600060208201905081810360008301526131fd816131c1565b9050919050565b7f446f6e6f7220697320616c726561647920726567697374657265640000000000600082015250565b600061323a601b836125d1565b915061324582613204565b602082019050919050565b600060208201905081810360008301526132698161322d565b9050919050565b7f4e6f74206c6f6767656420696e00000000000000000000000000000000000000600082015250565b60006132a6600d836125d1565b91506132b182613270565b602082019050919050565b600060208201905081810360008301526132d581613299565b9050919050565b7f496e76616c6964206f6c642070617373776f7264000000000000000000000000600082015250565b60006133126014836125d1565b915061331d826132dc565b602082019050919050565b6000602082019050818103600083015261334181613305565b9050919050565b60006020820190508181036000830152613362818461260c565b905092915050565b7f50617373776f72642073686f756c64206e6f7420626520656d70747900000000600082015250565b60006133a0601c836125d1565b91506133ab8261336a565b602082019050919050565b600060208201905081810360008301526133cf81613393565b9050919050565b7f496e76616c6964206e65772070617373776f7264000000000000000000000000600082015250565b600061340c6014836125d1565b9150613417826133d6565b602082019050919050565b6000602082019050818103600083015261343b816133ff565b9050919050565b7f596f75277265206e6f74206c6f6767656420696e000000000000000000000000600082015250565b60006134786014836125d1565b915061348382613442565b602082019050919050565b600060208201905081810360008301526134a78161346b565b9050919050565b600081905092915050565b60006134c4826125c6565b6134ce81856134ae565b93506134de8185602086016125e2565b80840191505092915050565b60006134f682846134b9565b91508190509291505056fea26469706673582212207c1d5cc729d93aca333071852cece444e5337fd22e3972ae13195b7e13f901c364736f6c63430008130033",
  "immutableReferences": {},
  "source": "// SPDX-License-Identifier: MIT\npragma solidity ^0.8.19;\nimport \"./AccessControl.sol\";\nimport\"./CollectionPointContract.sol\";\n\ncontract DonorContract is AccessControl{\n\n    event deletedDonor(address indexed donorAddress);\n\n    struct Donor {\n        address donorPublicAddress;\n        string name;\n        uint256 age;\n        string gender;\n        string bloodType;\n        string phoneNumber;\n        string password;\n        uint256 donatedVolume;\n        uint256 totalPayment;\n        bool isRegistered;\n        bool isLogin;\n        bool isDeleted;\n        uint256[] donorTransactionHistory;\n    }\n\n    mapping(address => Donor) private donors;\n\n    address[] private donorAddressArr;\n\n    CollectionPointContract public collectionPoint;\n\n    constructor(address collectionPointAddress_) {\n        collectionPoint = CollectionPointContract(collectionPointAddress_);\n    }\n\n    function updateVolume(address _donodAddress, uint256 _newVolume) external {\n        Donor storage donor = donors[_donodAddress];\n        donor.donatedVolume += _newVolume;\n        donors[_donodAddress] = donor;\n    }\n\n    function updateDonorBloodType(address _donorAddress, string memory _bloodType) external {\n        Donor storage donor = donors[_donorAddress];\n        donor.bloodType = _bloodType;\n        donors[_donorAddress] = donor;\n    }\n    function updateDonationHistory(address _donorAddress, uint256 _transactionID) external {\n        Donor storage donor = donors[_donorAddress];\n        donor.donorTransactionHistory.push(_transactionID);\n        donors[_donorAddress] = donor;\n    }\n\n    function readDonors(address _donorAddress) external view returns (Donor memory) {\n        return donors[_donorAddress];\n    }\n    \n    function addDonor(\n        address _donorPublicAddress,\n        string memory _name,\n        uint256 _age,\n        string memory _gender,\n        string memory _contactNumber,\n        string memory _password\n    ) external noReentrancy {\n        require(\n            donors[_donorPublicAddress].isRegistered == false || donors[_donorPublicAddress].isDeleted,\n            \"Donor is already registered\"\n        );\n        donors[_donorPublicAddress] = Donor({\n            donorPublicAddress: _donorPublicAddress,\n            name: _name,\n            age: _age,\n            gender: _gender,\n            bloodType: \"--\",\n            phoneNumber: _contactNumber,\n            password: _password,\n            donatedVolume: 0,\n            totalPayment: 0,\n            isRegistered: true,\n            isLogin: false,\n            isDeleted: false,\n            donorTransactionHistory: new uint256[](0)\n    });\n\n        donorAddressArr.push(_donorPublicAddress);\n    }\n\n    function donorChangePassword(string memory _oldPassword, string memory _newPassword) external {\n        require(donors[msg.sender].isLogin == true, \"Not logged in\");\n        require(compareString(donors[msg.sender].password, _oldPassword), \"Invalid old password\");\n        require(keccak256(abi.encode(_newPassword)).length > 0, \"Password should not be empty\");\n        require(compareString(donors[msg.sender].password, _newPassword), \"Invalid new password\");\n\n        donors[msg.sender].password = _newPassword;\n    }\n\n\n    function  donorLogin(address _donorPublicAddress, string memory _password) external {\n        require(donors[_donorPublicAddress].isRegistered == true, \"Your not registered yet!\");\n        // require(donors[_donorPublicAddress].isLogin == false, \"Your Already login\");\n        require(compareString(donors[_donorPublicAddress].password, _password), \"Invalid address or password\");\n        \n        donors[_donorPublicAddress].isLogin = true;\n    }\n\n    function donorLogout(address _DNPublicAddress) external {\n        require(donors[_DNPublicAddress].isLogin, \"You're not logged in\");\n\n        donors[_DNPublicAddress].isLogin = false;\n    }\n\n    function getDonorsArr() external view returns (address[] memory) {\n        return donorAddressArr;\n    }\n\n    function getDonor(\n        address _donorPublicAddress\n    )\n        external\n        view\n        returns (\n            address publicAddress,\n            string memory name,\n            uint256 age,\n            string memory bloodType,\n            string memory gender,\n            string memory phoneNumber,\n            uint256 donatedVolume,\n            uint256 totalPayment,\n            bool isRegistered,\n            bool isLogin,\n            bool isDeleted,\n            uint256[] memory donorTransactionHistory\n        )\n    {\n        Donor memory donor = donors[_donorPublicAddress];\n        publicAddress = donor.donorPublicAddress;\n        name = donor.name;\n        age = donor.age; \n        bloodType = donor.bloodType;\n        gender = donor.gender;\n        phoneNumber = donor.phoneNumber;\n        donatedVolume = donor.donatedVolume;\n        totalPayment = donor.totalPayment;\n        isRegistered = donor.isRegistered;\n        isLogin = donor.isLogin;\n        isDeleted = donor.isDeleted;\n        donorTransactionHistory = donor.donorTransactionHistory;\n    }\n\n    function deleteDonor(address donorAddress_) external {\n        require(!donors[donorAddress_].isDeleted, \"This data does not exist\");\n        Donor storage donor = donors[donorAddress_];\n        donor.isDeleted = true;\n        donors[donorAddress_] = donor;\n        emit deletedDonor(donorAddress_);\n    }\n\n    // /// @dev this is helper function\n    // function compareString(string memory _a, string memory _b) internal pure returns(bool) {\n    //     return keccak256(abi.encodePacked(_a)) == keccak256(abi.encodePacked(_b));\n    // }\n}\n",
  "sourcePath": "/home/temba/Desktop/blood-donation-blockchain-system/client-side/contracts/DonorContract.sol",
  "compiler": {
    "name": "solc",
    "version": "0.8.19+commit.7dd6d404.Emscripten.clang"
  },
  "schemaVersion": "3.4.16",
  "updatedAt": "2024-03-12T16:28:51.005Z",
  "networkType": "ethereum",
  "devdoc": {
    "kind": "dev",
    "methods": {},
    "version": 1
  },
  "userdoc": {
    "kind": "user",
    "methods": {},
    "version": 1
  }
}