{
  "contractName": "DonorStructure",
  "abi": [
    {
      "inputs": [
        {
          "internalType": "uint256",
          "name": "",
          "type": "uint256"
        }
      ],
      "name": "donorAddressArr",
      "outputs": [
        {
          "internalType": "address",
          "name": "",
          "type": "address"
        }
      ],
      "stateMutability": "view",
      "type": "function",
      "constant": true
    },
    {
      "inputs": [
        {
          "internalType": "address",
          "name": "",
          "type": "address"
        }
      ],
      "name": "donors",
      "outputs": [
        {
          "internalType": "address",
          "name": "donorPublicAddress",
          "type": "address"
        },
        {
          "internalType": "string",
          "name": "name",
          "type": "string"
        },
        {
          "internalType": "uint256",
          "name": "age",
          "type": "uint256"
        },
        {
          "internalType": "string",
          "name": "gender",
          "type": "string"
        },
        {
          "internalType": "string",
          "name": "bloodType",
          "type": "string"
        },
        {
          "internalType": "string",
          "name": "phoneNumber",
          "type": "string"
        },
        {
          "internalType": "string",
          "name": "password",
          "type": "string"
        },
        {
          "internalType": "uint256",
          "name": "donatedVolume",
          "type": "uint256"
        },
        {
          "internalType": "uint256",
          "name": "totalPayment",
          "type": "uint256"
        },
        {
          "internalType": "bool",
          "name": "isRegistered",
          "type": "bool"
        },
        {
          "internalType": "bool",
          "name": "isLogin",
          "type": "bool"
        }
      ],
      "stateMutability": "view",
      "type": "function",
      "constant": true
    }
  ],
  "bytecode": "0x608060405234801561001057600080fd5b5061075b806100206000396000f3fe608060405234801561001057600080fd5b50600436106100365760003560e01c806315eb1adf1461003b578063ca0cdea81461006b575b600080fd5b6100556004803603810190610050919061045b565b6100a5565b60405161006291906104c9565b60405180910390f35b61008560048036038101906100809190610510565b6100e4565b60405161009c9b9a999897969594939291906105f7565b60405180910390f35b600181815481106100b557600080fd5b906000526020600020016000915054906101000a900473ffffffffffffffffffffffffffffffffffffffff1681565b60006020528060005260406000206000915090508060000160009054906101000a900473ffffffffffffffffffffffffffffffffffffffff169080600101805461012d906106f4565b80601f0160208091040260200160405190810160405280929190818152602001828054610159906106f4565b80156101a65780601f1061017b576101008083540402835291602001916101a6565b820191906000526020600020905b81548152906001019060200180831161018957829003601f168201915b5050505050908060020154908060030180546101c1906106f4565b80601f01602080910402602001604051908101604052809291908181526020018280546101ed906106f4565b801561023a5780601f1061020f5761010080835404028352916020019161023a565b820191906000526020600020905b81548152906001019060200180831161021d57829003601f168201915b50505050509080600401805461024f906106f4565b80601f016020809104026020016040519081016040528092919081815260200182805461027b906106f4565b80156102c85780601f1061029d576101008083540402835291602001916102c8565b820191906000526020600020905b8154815290600101906020018083116102ab57829003601f168201915b5050505050908060050180546102dd906106f4565b80601f0160208091040260200160405190810160405280929190818152602001828054610309906106f4565b80156103565780601f1061032b57610100808354040283529160200191610356565b820191906000526020600020905b81548152906001019060200180831161033957829003601f168201915b50505050509080600601805461036b906106f4565b80601f0160208091040260200160405190810160405280929190818152602001828054610397906106f4565b80156103e45780601f106103b9576101008083540402835291602001916103e4565b820191906000526020600020905b8154815290600101906020018083116103c757829003601f168201915b5050505050908060070154908060080154908060090160009054906101000a900460ff16908060090160019054906101000a900460ff1690508b565b600080fd5b6000819050919050565b61043881610425565b811461044357600080fd5b50565b6000813590506104558161042f565b92915050565b60006020828403121561047157610470610420565b5b600061047f84828501610446565b91505092915050565b600073ffffffffffffffffffffffffffffffffffffffff82169050919050565b60006104b382610488565b9050919050565b6104c3816104a8565b82525050565b60006020820190506104de60008301846104ba565b92915050565b6104ed816104a8565b81146104f857600080fd5b50565b60008135905061050a816104e4565b92915050565b60006020828403121561052657610525610420565b5b6000610534848285016104fb565b91505092915050565b600081519050919050565b600082825260208201905092915050565b60005b8381101561057757808201518184015260208101905061055c565b60008484015250505050565b6000601f19601f8301169050919050565b600061059f8261053d565b6105a98185610548565b93506105b9818560208601610559565b6105c281610583565b840191505092915050565b6105d681610425565b82525050565b60008115159050919050565b6105f1816105dc565b82525050565b60006101608201905061060d600083018e6104ba565b818103602083015261061f818d610594565b905061062e604083018c6105cd565b8181036060830152610640818b610594565b90508181036080830152610654818a610594565b905081810360a08301526106688189610594565b905081810360c083015261067c8188610594565b905061068b60e08301876105cd565b6106996101008301866105cd565b6106a76101208301856105e8565b6106b56101408301846105e8565b9c9b505050505050505050505050565b7f4e487b7100000000000000000000000000000000000000000000000000000000600052602260045260246000fd5b6000600282049050600182168061070c57607f821691505b60208210810361071f5761071e6106c5565b5b5091905056fea26469706673582212207da7d0565bde58ecd313555a26da4b4b140fea359f2880228af2da1c193ce57364736f6c63430008130033",
  "immutableReferences": {},
  "source": "// SPDX-License-Identifier: MIT\npragma solidity ^0.8.19;\n\ncontract DonorStructure {\n    struct Donor {\n        address donorPublicAddress;\n        string name;\n        uint256 age;//added\n        string gender;//added\n        string bloodType;\n        string phoneNumber;\n        string password;\n        uint256 donatedVolume;\n        uint256 totalPayment;\n        bool isRegistered;\n        bool isLogin;\n        uint256[] donorTransactionHistory;\n    }\n\n    mapping(address => Donor) public donors;\n\n    address[] public donorAddressArr;\n}",
  "sourcePath": "/home/temba/Desktop/blood-donation-blockchain-system/client-side/contracts/DonorStructure.sol",
  "compiler": {
    "name": "solc",
    "version": "0.8.19+commit.7dd6d404.Emscripten.clang"
  },
  "schemaVersion": "3.4.16",
  "updatedAt": "2024-03-11T09:03:15.589Z",
  "networkType": "ethereum",
  "devdoc": {
    "kind": "dev",
    "methods": {},
    "version": 1
  },
  "userdoc": {
    "kind": "user",
    "methods": {},
    "version": 1
  }
}