{
  "contractName": "DonorContract",
  "abi": [
    {
      "inputs": [
        {
          "internalType": "address",
          "name": "",
          "type": "address"
        }
      ],
      "name": "donors",
      "outputs": [
        {
          "internalType": "address",
          "name": "donorPublicAddress",
          "type": "address"
        },
        {
          "internalType": "string",
          "name": "name",
          "type": "string"
        },
        {
          "internalType": "uint256",
          "name": "age",
          "type": "uint256"
        },
        {
          "internalType": "string",
          "name": "gender",
          "type": "string"
        },
        {
          "internalType": "string",
          "name": "bloodType",
          "type": "string"
        },
        {
          "internalType": "string",
          "name": "phoneNumber",
          "type": "string"
        },
        {
          "internalType": "string",
          "name": "password",
          "type": "string"
        },
        {
          "internalType": "uint256",
          "name": "donatedVolume",
          "type": "uint256"
        },
        {
          "internalType": "uint256",
          "name": "totalPayment",
          "type": "uint256"
        },
        {
          "internalType": "bool",
          "name": "isRegistered",
          "type": "bool"
        },
        {
          "internalType": "bool",
          "name": "isLogin",
          "type": "bool"
        }
      ],
      "stateMutability": "view",
      "type": "function",
      "constant": true
    },
    {
      "inputs": [
        {
          "internalType": "address",
          "name": "_donodAddress",
          "type": "address"
        },
        {
          "internalType": "uint256",
          "name": "_newVolume",
          "type": "uint256"
        }
      ],
      "name": "updateVolume",
      "outputs": [],
      "stateMutability": "nonpayable",
      "type": "function"
    },
    {
      "inputs": [
        {
          "internalType": "address",
          "name": "_donorAddress",
          "type": "address"
        },
        {
          "internalType": "string",
          "name": "_bloodType",
          "type": "string"
        }
      ],
      "name": "updateDonorBloodType",
      "outputs": [],
      "stateMutability": "nonpayable",
      "type": "function"
    },
    {
      "inputs": [
        {
          "internalType": "address",
          "name": "_donorAddress",
          "type": "address"
        },
        {
          "internalType": "uint256",
          "name": "_transactionID",
          "type": "uint256"
        }
      ],
      "name": "updateDonationHistory",
      "outputs": [],
      "stateMutability": "nonpayable",
      "type": "function"
    },
    {
      "inputs": [
        {
          "internalType": "address",
          "name": "_donorAddress",
          "type": "address"
        }
      ],
      "name": "readDonors",
      "outputs": [
        {
          "components": [
            {
              "internalType": "address",
              "name": "donorPublicAddress",
              "type": "address"
            },
            {
              "internalType": "string",
              "name": "name",
              "type": "string"
            },
            {
              "internalType": "uint256",
              "name": "age",
              "type": "uint256"
            },
            {
              "internalType": "string",
              "name": "gender",
              "type": "string"
            },
            {
              "internalType": "string",
              "name": "bloodType",
              "type": "string"
            },
            {
              "internalType": "string",
              "name": "phoneNumber",
              "type": "string"
            },
            {
              "internalType": "string",
              "name": "password",
              "type": "string"
            },
            {
              "internalType": "uint256",
              "name": "donatedVolume",
              "type": "uint256"
            },
            {
              "internalType": "uint256",
              "name": "totalPayment",
              "type": "uint256"
            },
            {
              "internalType": "bool",
              "name": "isRegistered",
              "type": "bool"
            },
            {
              "internalType": "bool",
              "name": "isLogin",
              "type": "bool"
            },
            {
              "internalType": "uint256[]",
              "name": "donorTransactionHistory",
              "type": "uint256[]"
            }
          ],
          "internalType": "struct DonorContract.Donor",
          "name": "",
          "type": "tuple"
        }
      ],
      "stateMutability": "view",
      "type": "function",
      "constant": true
    },
    {
      "inputs": [
        {
          "internalType": "address",
          "name": "_donorPublicAddress",
          "type": "address"
        },
        {
          "internalType": "string",
          "name": "_name",
          "type": "string"
        },
        {
          "internalType": "uint256",
          "name": "_age",
          "type": "uint256"
        },
        {
          "internalType": "string",
          "name": "_gender",
          "type": "string"
        },
        {
          "internalType": "string",
          "name": "_contactNumber",
          "type": "string"
        },
        {
          "internalType": "string",
          "name": "_password",
          "type": "string"
        }
      ],
      "name": "addDonor",
      "outputs": [],
      "stateMutability": "nonpayable",
      "type": "function"
    },
    {
      "inputs": [
        {
          "internalType": "string",
          "name": "_oldPassword",
          "type": "string"
        },
        {
          "internalType": "string",
          "name": "_newPassword",
          "type": "string"
        }
      ],
      "name": "donorChangePassword",
      "outputs": [],
      "stateMutability": "nonpayable",
      "type": "function"
    },
    {
      "inputs": [
        {
          "internalType": "address",
          "name": "_donorPublicAddress",
          "type": "address"
        },
        {
          "internalType": "string",
          "name": "_password",
          "type": "string"
        }
      ],
      "name": "donorLogin",
      "outputs": [],
      "stateMutability": "nonpayable",
      "type": "function"
    },
    {
      "inputs": [
        {
          "internalType": "address",
          "name": "_DNPublicAddress",
          "type": "address"
        }
      ],
      "name": "donorLogout",
      "outputs": [],
      "stateMutability": "nonpayable",
      "type": "function"
    },
    {
      "inputs": [],
      "name": "getDonorsArr",
      "outputs": [
        {
          "internalType": "address[]",
          "name": "",
          "type": "address[]"
        }
      ],
      "stateMutability": "view",
      "type": "function",
      "constant": true
    },
    {
      "inputs": [
        {
          "internalType": "address",
          "name": "_donorPublicAddress",
          "type": "address"
        }
      ],
      "name": "getDonor",
      "outputs": [
        {
          "internalType": "address",
          "name": "publicAddress",
          "type": "address"
        },
        {
          "internalType": "string",
          "name": "name",
          "type": "string"
        },
        {
          "internalType": "uint256",
          "name": "age",
          "type": "uint256"
        },
        {
          "internalType": "string",
          "name": "bloodType",
          "type": "string"
        },
        {
          "internalType": "string",
          "name": "gender",
          "type": "string"
        },
        {
          "internalType": "string",
          "name": "phoneNumber",
          "type": "string"
        },
        {
          "internalType": "uint256",
          "name": "donatedVolume",
          "type": "uint256"
        },
        {
          "internalType": "uint256",
          "name": "totalPayment",
          "type": "uint256"
        },
        {
          "internalType": "bool",
          "name": "isRegistered",
          "type": "bool"
        }
      ],
      "stateMutability": "view",
      "type": "function",
      "constant": true
    }
  ],
  "bytecode": "0x608060405234801561001057600080fd5b5061320c806100206000396000f3fe608060405234801561001057600080fd5b50600436106100a95760003560e01c806396c590431161007157806396c590431461013c578063a70a5e5f14610174578063afc10fa914610190578063be3a9028146101ac578063ca0cdea8146101dc578063df5befd714610216576100a9565b806302c7739b146100ae5780631eb850b1146100ca57806365837dca146100e85780636d0a1c381461010457806391ba33b414610120575b600080fd5b6100c860048036038101906100c391906120cf565b610232565b005b6100d2610435565b6040516100df91906121cd565b60405180910390f35b61010260048036038101906100fd9190612335565b6104c3565b005b61011e600480360381019061011991906120cf565b6106bd565b005b61013a60048036038101906101359190612335565b6108d0565b005b61015660048036038101906101519190612391565b610ad5565b60405161016b99989796959493929190612476565b60405180910390f35b61018e6004803603810190610189919061251f565b610f5d565b005b6101aa60048036038101906101a5919061261c565b6112c0565b005b6101c660048036038101906101c19190612391565b61163b565b6040516101d391906128d2565b60405180910390f35b6101f660048036038101906101f19190612391565b611a70565b60405161020d9b9a999897969594939291906128f4565b60405180910390f35b610230600480360381019061022b9190612391565b611dac565b005b60008060008473ffffffffffffffffffffffffffffffffffffffff1673ffffffffffffffffffffffffffffffffffffffff16815260200190815260200160002090508181600701600082825461028891906129f1565b92505081905550806000808573ffffffffffffffffffffffffffffffffffffffff1673ffffffffffffffffffffffffffffffffffffffff1681526020019081526020016000206000820160009054906101000a900473ffffffffffffffffffffffffffffffffffffffff168160000160006101000a81548173ffffffffffffffffffffffffffffffffffffffff021916908373ffffffffffffffffffffffffffffffffffffffff160217905550600182018160010190816103499190612c47565b5060028201548160020155600382018160030190816103689190612c47565b506004820181600401908161037d9190612c47565b50600582018160050190816103929190612c47565b50600682018160060190816103a79190612c47565b5060078201548160070155600882015481600801556009820160009054906101000a900460ff168160090160006101000a81548160ff0219169083151502179055506009820160019054906101000a900460ff168160090160016101000a81548160ff021916908315150217905550600a820181600a0190805461042c929190611ef0565b50905050505050565b606060018054806020026020016040519081016040528092919081815260200182805480156104b957602002820191906000526020600020905b8160009054906101000a900473ffffffffffffffffffffffffffffffffffffffff1673ffffffffffffffffffffffffffffffffffffffff168152602001906001019080831161046f575b5050505050905090565b60008060008473ffffffffffffffffffffffffffffffffffffffff1673ffffffffffffffffffffffffffffffffffffffff1681526020019081526020016000209050818160040190816105169190612d2f565b50806000808573ffffffffffffffffffffffffffffffffffffffff1673ffffffffffffffffffffffffffffffffffffffff1681526020019081526020016000206000820160009054906101000a900473ffffffffffffffffffffffffffffffffffffffff168160000160006101000a81548173ffffffffffffffffffffffffffffffffffffffff021916908373ffffffffffffffffffffffffffffffffffffffff160217905550600182018160010190816105d19190612c47565b5060028201548160020155600382018160030190816105f09190612c47565b50600482018160040190816106059190612c47565b506005820181600501908161061a9190612c47565b506006820181600601908161062f9190612c47565b5060078201548160070155600882015481600801556009820160009054906101000a900460ff168160090160006101000a81548160ff0219169083151502179055506009820160019054906101000a900460ff168160090160016101000a81548160ff021916908315150217905550600a820181600a019080546106b4929190611ef0565b50905050505050565b60008060008473ffffffffffffffffffffffffffffffffffffffff1673ffffffffffffffffffffffffffffffffffffffff168152602001908152602001600020905080600a01829080600181540180825580915050600190039060005260206000200160009091909190915055806000808573ffffffffffffffffffffffffffffffffffffffff1673ffffffffffffffffffffffffffffffffffffffff1681526020019081526020016000206000820160009054906101000a900473ffffffffffffffffffffffffffffffffffffffff168160000160006101000a81548173ffffffffffffffffffffffffffffffffffffffff021916908373ffffffffffffffffffffffffffffffffffffffff160217905550600182018160010190816107e49190612c47565b5060028201548160020155600382018160030190816108039190612c47565b50600482018160040190816108189190612c47565b506005820181600501908161082d9190612c47565b50600682018160060190816108429190612c47565b5060078201548160070155600882015481600801556009820160009054906101000a900460ff168160090160006101000a81548160ff0219169083151502179055506009820160019054906101000a900460ff168160090160016101000a81548160ff021916908315150217905550600a820181600a019080546108c7929190611ef0565b50905050505050565b600115156000808473ffffffffffffffffffffffffffffffffffffffff1673ffffffffffffffffffffffffffffffffffffffff16815260200190815260200160002060090160009054906101000a900460ff16151514610965576040517f08c379a000000000000000000000000000000000000000000000000000000000815260040161095c90612e4d565b60405180910390fd5b610a386000808473ffffffffffffffffffffffffffffffffffffffff1673ffffffffffffffffffffffffffffffffffffffff16815260200190815260200160002060060180546109b490612a54565b80601f01602080910402602001604051908101604052809291908181526020018280546109e090612a54565b8015610a2d5780601f10610a0257610100808354040283529160200191610a2d565b820191906000526020600020905b815481529060010190602001808311610a1057829003601f168201915b505050505082611e97565b610a77576040517f08c379a0000000000000000000000000000000000000000000000000000000008152600401610a6e90612eb9565b60405180910390fd5b60016000808473ffffffffffffffffffffffffffffffffffffffff1673ffffffffffffffffffffffffffffffffffffffff16815260200190815260200160002060090160016101000a81548160ff0219169083151502179055505050565b60006060600060608060606000806000806000808c73ffffffffffffffffffffffffffffffffffffffff1673ffffffffffffffffffffffffffffffffffffffff168152602001908152602001600020604051806101800160405290816000820160009054906101000a900473ffffffffffffffffffffffffffffffffffffffff1673ffffffffffffffffffffffffffffffffffffffff1673ffffffffffffffffffffffffffffffffffffffff168152602001600182018054610b9690612a54565b80601f0160208091040260200160405190810160405280929190818152602001828054610bc290612a54565b8015610c0f5780601f10610be457610100808354040283529160200191610c0f565b820191906000526020600020905b815481529060010190602001808311610bf257829003601f168201915b5050505050815260200160028201548152602001600382018054610c3290612a54565b80601f0160208091040260200160405190810160405280929190818152602001828054610c5e90612a54565b8015610cab5780601f10610c8057610100808354040283529160200191610cab565b820191906000526020600020905b815481529060010190602001808311610c8e57829003601f168201915b50505050508152602001600482018054610cc490612a54565b80601f0160208091040260200160405190810160405280929190818152602001828054610cf090612a54565b8015610d3d5780601f10610d1257610100808354040283529160200191610d3d565b820191906000526020600020905b815481529060010190602001808311610d2057829003601f168201915b50505050508152602001600582018054610d5690612a54565b80601f0160208091040260200160405190810160405280929190818152602001828054610d8290612a54565b8015610dcf5780601f10610da457610100808354040283529160200191610dcf565b820191906000526020600020905b815481529060010190602001808311610db257829003601f168201915b50505050508152602001600682018054610de890612a54565b80601f0160208091040260200160405190810160405280929190818152602001828054610e1490612a54565b8015610e615780601f10610e3657610100808354040283529160200191610e61565b820191906000526020600020905b815481529060010190602001808311610e4457829003601f168201915b5050505050815260200160078201548152602001600882015481526020016009820160009054906101000a900460ff161515151581526020016009820160019054906101000a900460ff16151515158152602001600a8201805480602002602001604051908101604052809291908181526020018280548015610f0357602002820191906000526020600020905b815481526020019060010190808311610eef575b505050505081525050905080600001519950806020015198508060400151975080608001519650806060015195508060a0015194508060e00151935080610100015192508061012001519150509193959799909294969850565b600015156000808873ffffffffffffffffffffffffffffffffffffffff1673ffffffffffffffffffffffffffffffffffffffff16815260200190815260200160002060090160009054906101000a900460ff16151514610ff2576040517f08c379a0000000000000000000000000000000000000000000000000000000008152600401610fe990612f25565b60405180910390fd5b6040518061018001604052808773ffffffffffffffffffffffffffffffffffffffff1681526020018681526020018581526020018481526020016040518060400160405280600281526020017f2d2d00000000000000000000000000000000000000000000000000000000000081525081526020018381526020018281526020016000815260200160008152602001600115158152602001600015158152602001600067ffffffffffffffff8111156110ae576110ad61220a565b5b6040519080825280602002602001820160405280156110dc5781602001602082028036833780820191505090505b508152506000808873ffffffffffffffffffffffffffffffffffffffff1673ffffffffffffffffffffffffffffffffffffffff16815260200190815260200160002060008201518160000160006101000a81548173ffffffffffffffffffffffffffffffffffffffff021916908373ffffffffffffffffffffffffffffffffffffffff160217905550602082015181600101908161117a9190612d2f565b5060408201518160020155606082015181600301908161119a9190612d2f565b5060808201518160040190816111b09190612d2f565b5060a08201518160050190816111c69190612d2f565b5060c08201518160060190816111dc9190612d2f565b5060e0820151816007015561010082015181600801556101208201518160090160006101000a81548160ff0219169083151502179055506101408201518160090160016101000a81548160ff02191690831515021790555061016082015181600a019080519060200190611251929190611f42565b509050506001869080600181540180825580915050600190039060005260206000200160009091909190916101000a81548173ffffffffffffffffffffffffffffffffffffffff021916908373ffffffffffffffffffffffffffffffffffffffff160217905550505050505050565b600115156000803373ffffffffffffffffffffffffffffffffffffffff1673ffffffffffffffffffffffffffffffffffffffff16815260200190815260200160002060090160019054906101000a900460ff16151514611355576040517f08c379a000000000000000000000000000000000000000000000000000000000815260040161134c90612f91565b60405180910390fd5b6114286000803373ffffffffffffffffffffffffffffffffffffffff1673ffffffffffffffffffffffffffffffffffffffff16815260200190815260200160002060060180546113a490612a54565b80601f01602080910402602001604051908101604052809291908181526020018280546113d090612a54565b801561141d5780601f106113f25761010080835404028352916020019161141d565b820191906000526020600020905b81548152906001019060200180831161140057829003601f168201915b505050505083611e97565b611467576040517f08c379a000000000000000000000000000000000000000000000000000000000815260040161145e90612ffd565b60405180910390fd5b60008160405160200161147a919061301d565b6040516020818303038152906040528051906020012050602060ff16116114d6576040517f08c379a00000000000000000000000000000000000000000000000000000000081526004016114cd9061308b565b60405180910390fd5b6115a96000803373ffffffffffffffffffffffffffffffffffffffff1673ffffffffffffffffffffffffffffffffffffffff168152602001908152602001600020600601805461152590612a54565b80601f016020809104026020016040519081016040528092919081815260200182805461155190612a54565b801561159e5780601f106115735761010080835404028352916020019161159e565b820191906000526020600020905b81548152906001019060200180831161158157829003601f168201915b505050505082611e97565b6115e8576040517f08c379a00000000000000000000000000000000000000000000000000000000081526004016115df906130f7565b60405180910390fd5b806000803373ffffffffffffffffffffffffffffffffffffffff1673ffffffffffffffffffffffffffffffffffffffff16815260200190815260200160002060060190816116369190612d2f565b505050565b611643611f8f565b6000808373ffffffffffffffffffffffffffffffffffffffff1673ffffffffffffffffffffffffffffffffffffffff168152602001908152602001600020604051806101800160405290816000820160009054906101000a900473ffffffffffffffffffffffffffffffffffffffff1673ffffffffffffffffffffffffffffffffffffffff1673ffffffffffffffffffffffffffffffffffffffff1681526020016001820180546116f390612a54565b80601f016020809104026020016040519081016040528092919081815260200182805461171f90612a54565b801561176c5780601f106117415761010080835404028352916020019161176c565b820191906000526020600020905b81548152906001019060200180831161174f57829003601f168201915b505050505081526020016002820154815260200160038201805461178f90612a54565b80601f01602080910402602001604051908101604052809291908181526020018280546117bb90612a54565b80156118085780601f106117dd57610100808354040283529160200191611808565b820191906000526020600020905b8154815290600101906020018083116117eb57829003601f168201915b5050505050815260200160048201805461182190612a54565b80601f016020809104026020016040519081016040528092919081815260200182805461184d90612a54565b801561189a5780601f1061186f5761010080835404028352916020019161189a565b820191906000526020600020905b81548152906001019060200180831161187d57829003601f168201915b505050505081526020016005820180546118b390612a54565b80601f01602080910402602001604051908101604052809291908181526020018280546118df90612a54565b801561192c5780601f106119015761010080835404028352916020019161192c565b820191906000526020600020905b81548152906001019060200180831161190f57829003601f168201915b5050505050815260200160068201805461194590612a54565b80601f016020809104026020016040519081016040528092919081815260200182805461197190612a54565b80156119be5780601f10611993576101008083540402835291602001916119be565b820191906000526020600020905b8154815290600101906020018083116119a157829003601f168201915b5050505050815260200160078201548152602001600882015481526020016009820160009054906101000a900460ff161515151581526020016009820160019054906101000a900460ff16151515158152602001600a8201805480602002602001604051908101604052809291908181526020018280548015611a6057602002820191906000526020600020905b815481526020019060010190808311611a4c575b5050505050815250509050919050565b60006020528060005260406000206000915090508060000160009054906101000a900473ffffffffffffffffffffffffffffffffffffffff1690806001018054611ab990612a54565b80601f0160208091040260200160405190810160405280929190818152602001828054611ae590612a54565b8015611b325780601f10611b0757610100808354040283529160200191611b32565b820191906000526020600020905b815481529060010190602001808311611b1557829003601f168201915b505050505090806002015490806003018054611b4d90612a54565b80601f0160208091040260200160405190810160405280929190818152602001828054611b7990612a54565b8015611bc65780601f10611b9b57610100808354040283529160200191611bc6565b820191906000526020600020905b815481529060010190602001808311611ba957829003601f168201915b505050505090806004018054611bdb90612a54565b80601f0160208091040260200160405190810160405280929190818152602001828054611c0790612a54565b8015611c545780601f10611c2957610100808354040283529160200191611c54565b820191906000526020600020905b815481529060010190602001808311611c3757829003601f168201915b505050505090806005018054611c6990612a54565b80601f0160208091040260200160405190810160405280929190818152602001828054611c9590612a54565b8015611ce25780601f10611cb757610100808354040283529160200191611ce2565b820191906000526020600020905b815481529060010190602001808311611cc557829003601f168201915b505050505090806006018054611cf790612a54565b80601f0160208091040260200160405190810160405280929190818152602001828054611d2390612a54565b8015611d705780601f10611d4557610100808354040283529160200191611d70565b820191906000526020600020905b815481529060010190602001808311611d5357829003601f168201915b5050505050908060070154908060080154908060090160009054906101000a900460ff16908060090160019054906101000a900460ff1690508b565b6000808273ffffffffffffffffffffffffffffffffffffffff1673ffffffffffffffffffffffffffffffffffffffff16815260200190815260200160002060090160019054906101000a900460ff16611e3a576040517f08c379a0000000000000000000000000000000000000000000000000000000008152600401611e3190613163565b60405180910390fd5b60008060008373ffffffffffffffffffffffffffffffffffffffff1673ffffffffffffffffffffffffffffffffffffffff16815260200190815260200160002060090160016101000a81548160ff02191690831515021790555050565b600081604051602001611eaa91906131bf565b6040516020818303038152906040528051906020012083604051602001611ed191906131bf565b6040516020818303038152906040528051906020012014905092915050565b828054828255906000526020600020908101928215611f315760005260206000209182015b82811115611f30578254825591600101919060010190611f15565b5b509050611f3e919061200a565b5090565b828054828255906000526020600020908101928215611f7e579160200282015b82811115611f7d578251825591602001919060010190611f62565b5b509050611f8b919061200a565b5090565b604051806101800160405280600073ffffffffffffffffffffffffffffffffffffffff1681526020016060815260200160008152602001606081526020016060815260200160608152602001606081526020016000815260200160008152602001600015158152602001600015158152602001606081525090565b5b8082111561202357600081600090555060010161200b565b5090565b6000604051905090565b600080fd5b600080fd5b600073ffffffffffffffffffffffffffffffffffffffff82169050919050565b60006120668261203b565b9050919050565b6120768161205b565b811461208157600080fd5b50565b6000813590506120938161206d565b92915050565b6000819050919050565b6120ac81612099565b81146120b757600080fd5b50565b6000813590506120c9816120a3565b92915050565b600080604083850312156120e6576120e5612031565b5b60006120f485828601612084565b9250506020612105858286016120ba565b9150509250929050565b600081519050919050565b600082825260208201905092915050565b6000819050602082019050919050565b6121448161205b565b82525050565b6000612156838361213b565b60208301905092915050565b6000602082019050919050565b600061217a8261210f565b612184818561211a565b935061218f8361212b565b8060005b838110156121c05781516121a7888261214a565b97506121b283612162565b925050600181019050612193565b5085935050505092915050565b600060208201905081810360008301526121e7818461216f565b905092915050565b600080fd5b600080fd5b6000601f19601f8301169050919050565b7f4e487b7100000000000000000000000000000000000000000000000000000000600052604160045260246000fd5b612242826121f9565b810181811067ffffffffffffffff821117156122615761226061220a565b5b80604052505050565b6000612274612027565b90506122808282612239565b919050565b600067ffffffffffffffff8211156122a05761229f61220a565b5b6122a9826121f9565b9050602081019050919050565b82818337600083830152505050565b60006122d86122d384612285565b61226a565b9050828152602081018484840111156122f4576122f36121f4565b5b6122ff8482856122b6565b509392505050565b600082601f83011261231c5761231b6121ef565b5b813561232c8482602086016122c5565b91505092915050565b6000806040838503121561234c5761234b612031565b5b600061235a85828601612084565b925050602083013567ffffffffffffffff81111561237b5761237a612036565b5b61238785828601612307565b9150509250929050565b6000602082840312156123a7576123a6612031565b5b60006123b584828501612084565b91505092915050565b6123c78161205b565b82525050565b600081519050919050565b600082825260208201905092915050565b60005b838110156124075780820151818401526020810190506123ec565b60008484015250505050565b600061241e826123cd565b61242881856123d8565b93506124388185602086016123e9565b612441816121f9565b840191505092915050565b61245581612099565b82525050565b60008115159050919050565b6124708161245b565b82525050565b60006101208201905061248c600083018c6123be565b818103602083015261249e818b612413565b90506124ad604083018a61244c565b81810360608301526124bf8189612413565b905081810360808301526124d38188612413565b905081810360a08301526124e78187612413565b90506124f660c083018661244c565b61250360e083018561244c565b612511610100830184612467565b9a9950505050505050505050565b60008060008060008060c0878903121561253c5761253b612031565b5b600061254a89828a01612084565b965050602087013567ffffffffffffffff81111561256b5761256a612036565b5b61257789828a01612307565b955050604061258889828a016120ba565b945050606087013567ffffffffffffffff8111156125a9576125a8612036565b5b6125b589828a01612307565b935050608087013567ffffffffffffffff8111156125d6576125d5612036565b5b6125e289828a01612307565b92505060a087013567ffffffffffffffff81111561260357612602612036565b5b61260f89828a01612307565b9150509295509295509295565b6000806040838503121561263357612632612031565b5b600083013567ffffffffffffffff81111561265157612650612036565b5b61265d85828601612307565b925050602083013567ffffffffffffffff81111561267e5761267d612036565b5b61268a85828601612307565b9150509250929050565b600082825260208201905092915050565b60006126b0826123cd565b6126ba8185612694565b93506126ca8185602086016123e9565b6126d3816121f9565b840191505092915050565b6126e781612099565b82525050565b6126f68161245b565b82525050565b600081519050919050565b600082825260208201905092915050565b6000819050602082019050919050565b600061273483836126de565b60208301905092915050565b6000602082019050919050565b6000612758826126fc565b6127628185612707565b935061276d83612718565b8060005b8381101561279e5781516127858882612728565b975061279083612740565b925050600181019050612771565b5085935050505092915050565b6000610180830160008301516127c4600086018261213b565b50602083015184820360208601526127dc82826126a5565b91505060408301516127f160408601826126de565b506060830151848203606086015261280982826126a5565b9150506080830151848203608086015261282382826126a5565b91505060a083015184820360a086015261283d82826126a5565b91505060c083015184820360c086015261285782826126a5565b91505060e083015161286c60e08601826126de565b506101008301516128816101008601826126de565b506101208301516128966101208601826126ed565b506101408301516128ab6101408601826126ed565b506101608301518482036101608601526128c5828261274d565b9150508091505092915050565b600060208201905081810360008301526128ec81846127ab565b905092915050565b60006101608201905061290a600083018e6123be565b818103602083015261291c818d612413565b905061292b604083018c61244c565b818103606083015261293d818b612413565b90508181036080830152612951818a612413565b905081810360a08301526129658189612413565b905081810360c08301526129798188612413565b905061298860e083018761244c565b61299661010083018661244c565b6129a4610120830185612467565b6129b2610140830184612467565b9c9b505050505050505050505050565b7f4e487b7100000000000000000000000000000000000000000000000000000000600052601160045260246000fd5b60006129fc82612099565b9150612a0783612099565b9250828201905080821115612a1f57612a1e6129c2565b5b92915050565b7f4e487b7100000000000000000000000000000000000000000000000000000000600052602260045260246000fd5b60006002820490506001821680612a6c57607f821691505b602082108103612a7f57612a7e612a25565b5b50919050565b600081549050612a9481612a54565b9050919050565b60008190508160005260206000209050919050565b60006020601f8301049050919050565b600082821b905092915050565b600060088302612afd7fffffffffffffffffffffffffffffffffffffffffffffffffffffffffffffffff82612ac0565b612b078683612ac0565b95508019841693508086168417925050509392505050565b6000819050919050565b6000612b44612b3f612b3a84612099565b612b1f565b612099565b9050919050565b6000819050919050565b612b5e83612b29565b612b72612b6a82612b4b565b848454612acd565b825550505050565b600090565b612b87612b7a565b612b92818484612b55565b505050565b5b81811015612bb657612bab600082612b7f565b600181019050612b98565b5050565b601f821115612bfb57612bcc81612a9b565b612bd584612ab0565b81016020851015612be4578190505b612bf8612bf085612ab0565b830182612b97565b50505b505050565b600082821c905092915050565b6000612c1e60001984600802612c00565b1980831691505092915050565b6000612c378383612c0d565b9150826002028217905092915050565b818103612c55575050612d2d565b612c5e82612a85565b67ffffffffffffffff811115612c7757612c7661220a565b5b612c818254612a54565b612c8c828285612bba565b6000601f831160018114612cbb5760008415612ca9578287015490505b612cb38582612c2b565b865550612d26565b601f198416612cc987612a9b565b9650612cd486612a9b565b60005b82811015612cfc57848901548255600182019150600185019450602081019050612cd7565b86831015612d195784890154612d15601f891682612c0d565b8355505b6001600288020188555050505b5050505050505b565b612d38826123cd565b67ffffffffffffffff811115612d5157612d5061220a565b5b612d5b8254612a54565b612d66828285612bba565b600060209050601f831160018114612d995760008415612d87578287015190505b612d918582612c2b565b865550612df9565b601f198416612da786612a9b565b60005b82811015612dcf57848901518255600182019150602085019450602081019050612daa565b86831015612dec5784890151612de8601f891682612c0d565b8355505b6001600288020188555050505b505050505050565b7f596f7572206e6f74207265676973746572656420796574210000000000000000600082015250565b6000612e376018836123d8565b9150612e4282612e01565b602082019050919050565b60006020820190508181036000830152612e6681612e2a565b9050919050565b7f496e76616c69642061646472657373206f722070617373776f72640000000000600082015250565b6000612ea3601b836123d8565b9150612eae82612e6d565b602082019050919050565b60006020820190508181036000830152612ed281612e96565b9050919050565b7f446f6e6f7220697320616c726561647920726567697374657265640000000000600082015250565b6000612f0f601b836123d8565b9150612f1a82612ed9565b602082019050919050565b60006020820190508181036000830152612f3e81612f02565b9050919050565b7f4e6f74206c6f6767656420696e00000000000000000000000000000000000000600082015250565b6000612f7b600d836123d8565b9150612f8682612f45565b602082019050919050565b60006020820190508181036000830152612faa81612f6e565b9050919050565b7f496e76616c6964206f6c642070617373776f7264000000000000000000000000600082015250565b6000612fe76014836123d8565b9150612ff282612fb1565b602082019050919050565b6000602082019050818103600083015261301681612fda565b9050919050565b600060208201905081810360008301526130378184612413565b905092915050565b7f50617373776f72642073686f756c64206e6f7420626520656d70747900000000600082015250565b6000613075601c836123d8565b91506130808261303f565b602082019050919050565b600060208201905081810360008301526130a481613068565b9050919050565b7f496e76616c6964206e65772070617373776f7264000000000000000000000000600082015250565b60006130e16014836123d8565b91506130ec826130ab565b602082019050919050565b60006020820190508181036000830152613110816130d4565b9050919050565b7f596f75277265206e6f74206c6f6767656420696e000000000000000000000000600082015250565b600061314d6014836123d8565b915061315882613117565b602082019050919050565b6000602082019050818103600083015261317c81613140565b9050919050565b600081905092915050565b6000613199826123cd565b6131a38185613183565b93506131b38185602086016123e9565b80840191505092915050565b60006131cb828461318e565b91508190509291505056fea2646970667358221220ac03d98b2b0542f419b91738e70ea546986dd11644cd3441dc6dd68c17915dbe64736f6c63430008130033",
  "immutableReferences": {},
  "source": "// SPDX-License-Identifier: MIT\npragma solidity ^0.8.19;\n\ncontract DonorContract {\n\n    struct Donor {\n        address donorPublicAddress;\n        string name;\n        uint256 age;\n        string gender;\n        string bloodType;\n        string phoneNumber;\n        string password;\n        uint256 donatedVolume;\n        uint256 totalPayment;\n        bool isRegistered;\n        bool isLogin;\n        uint256[] donorTransactionHistory;\n    }\n\n    mapping(address => Donor) public donors;\n\n    address[] private donorAddressArr;\n\n    function updateVolume(address _donodAddress, uint256 _newVolume) external {\n        Donor storage donor = donors[_donodAddress];\n        donor.donatedVolume += _newVolume;\n        donors[_donodAddress] = donor;\n    }\n\n    function updateDonorBloodType(address _donorAddress, string memory _bloodType) external {\n        Donor storage donor = donors[_donorAddress];\n        donor.bloodType = _bloodType;\n        donors[_donorAddress] = donor;\n    }\n    function updateDonationHistory(address _donorAddress, uint256 _transactionID) external {\n        Donor storage donor = donors[_donorAddress];\n        donor.donorTransactionHistory.push(_transactionID);\n        donors[_donorAddress] = donor;\n    }\n\n    function readDonors(address _donorAddress) external view returns (Donor memory) {\n        return donors[_donorAddress];\n    }\n    \n    function addDonor(\n        address _donorPublicAddress,\n        string memory _name,\n        uint256 _age,\n        string memory _gender,\n        string memory _contactNumber,\n        string memory _password\n    ) external {\n        require(\n            donors[_donorPublicAddress].isRegistered == false,\n            \"Donor is already registered\"\n        );\n        donors[_donorPublicAddress] = Donor({\n            donorPublicAddress: _donorPublicAddress,\n            name: _name,\n            age: _age,\n            gender: _gender,\n            bloodType: \"--\",\n            phoneNumber: _contactNumber,\n            password: _password,\n            donatedVolume: 0,\n            totalPayment: 0,\n            isRegistered: true,\n            isLogin: false,\n            donorTransactionHistory: new uint256[](0)\n    });\n\n        donorAddressArr.push(_donorPublicAddress);\n    }\n\n    function donorChangePassword(string memory _oldPassword, string memory _newPassword) external {\n        require(donors[msg.sender].isLogin == true, \"Not logged in\");\n        require(compareString(donors[msg.sender].password, _oldPassword), \"Invalid old password\");\n        require(keccak256(abi.encode(_newPassword)).length > 0, \"Password should not be empty\");\n        require(compareString(donors[msg.sender].password, _newPassword), \"Invalid new password\");\n\n        donors[msg.sender].password = _newPassword;\n    }\n\n\n    function  donorLogin(address _donorPublicAddress, string memory _password) external {\n        require(donors[_donorPublicAddress].isRegistered == true, \"Your not registered yet!\");\n        // require(donors[_donorPublicAddress].isLogin == false, \"Your Already login\");\n        require(compareString(donors[_donorPublicAddress].password, _password), \"Invalid address or password\");\n        \n        donors[_donorPublicAddress].isLogin = true;\n    }\n\n    function donorLogout(address _DNPublicAddress) external {\n        require(donors[_DNPublicAddress].isLogin, \"You're not logged in\");\n\n        donors[_DNPublicAddress].isLogin = false;\n    }\n\n    function getDonorsArr() external view returns (address[] memory) {\n        return donorAddressArr;\n    }\n\n    function getDonor(\n        address _donorPublicAddress\n    )\n        external\n        view\n        returns (\n            address publicAddress,\n            string memory name,\n            uint256 age,\n            string memory bloodType,\n            string memory gender,\n            string memory phoneNumber,\n            uint256 donatedVolume,\n            uint256 totalPayment,\n            bool isRegistered\n        )\n    {\n        Donor memory donor = donors[_donorPublicAddress];\n        publicAddress = donor.donorPublicAddress;\n        name = donor.name;\n        age = donor.age; \n        bloodType = donor.bloodType;\n        gender = donor.gender;\n        phoneNumber = donor.phoneNumber;\n        donatedVolume = donor.donatedVolume;\n        totalPayment = donor.totalPayment;\n        isRegistered = donor.isRegistered;\n    }\n\n    /// @dev this is helper function\n    function compareString(string memory _a, string memory _b) internal pure returns(bool) {\n        return keccak256(abi.encodePacked(_a)) == keccak256(abi.encodePacked(_b));\n    }\n}\n",
  "sourcePath": "/home/temba/Desktop/blood-donation-blockchain-system/client-side/contracts/DonorContract.sol",
  "compiler": {
    "name": "solc",
    "version": "0.8.19+commit.7dd6d404.Emscripten.clang"
  },
  "schemaVersion": "3.4.16",
  "updatedAt": "2024-03-11T17:43:19.263Z",
  "networkType": "ethereum",
  "devdoc": {
    "kind": "dev",
    "methods": {},
    "version": 1
  },
  "userdoc": {
    "kind": "user",
    "methods": {},
    "version": 1
  }
}