{
  "contractName": "MedicalCenters",
  "abi": [
    {
      "inputs": [
        {
          "internalType": "uint256",
          "name": "",
          "type": "uint256"
        }
      ],
      "name": "medicaCenterAddressArr",
      "outputs": [
        {
          "internalType": "address",
          "name": "",
          "type": "address"
        }
      ],
      "stateMutability": "view",
      "type": "function"
    },
    {
      "inputs": [
        {
          "internalType": "address",
          "name": "",
          "type": "address"
        }
      ],
      "name": "medicalsCenters",
      "outputs": [
        {
          "internalType": "address",
          "name": "MCPublicAddress",
          "type": "address"
        },
        {
          "internalType": "string",
          "name": "name",
          "type": "string"
        },
        {
          "internalType": "string",
          "name": "phoneNumber",
          "type": "string"
        },
        {
          "internalType": "string",
          "name": "password",
          "type": "string"
        },
        {
          "internalType": "bool",
          "name": "isRegistered",
          "type": "bool"
        },
        {
          "internalType": "bool",
          "name": "isLogin",
          "type": "bool"
        }
      ],
      "stateMutability": "view",
      "type": "function"
    },
    {
      "inputs": [
        {
          "internalType": "address",
          "name": "_MCPublicAddress",
          "type": "address"
        },
        {
          "internalType": "string",
          "name": "_name",
          "type": "string"
        },
        {
          "internalType": "string",
          "name": "_contactNumber",
          "type": "string"
        },
        {
          "internalType": "string",
          "name": "_password",
          "type": "string"
        }
      ],
      "name": "addMedicalCenter",
      "outputs": [],
      "stateMutability": "nonpayable",
      "type": "function"
    },
    {
      "inputs": [
        {
          "internalType": "address",
          "name": "_MCPublicAddress",
          "type": "address"
        },
        {
          "internalType": "string",
          "name": "_password",
          "type": "string"
        }
      ],
      "name": "checkMedicalCenterLogin",
      "outputs": [
        {
          "internalType": "bool",
          "name": "",
          "type": "bool"
        }
      ],
      "stateMutability": "view",
      "type": "function"
    },
    {
      "inputs": [
        {
          "internalType": "address",
          "name": "_MCPublicAddress",
          "type": "address"
        },
        {
          "internalType": "string",
          "name": "_password",
          "type": "string"
        }
      ],
      "name": "medicalCenterLogin",
      "outputs": [],
      "stateMutability": "nonpayable",
      "type": "function"
    },
    {
      "inputs": [
        {
          "internalType": "address",
          "name": "_MCPublicAddress",
          "type": "address"
        }
      ],
      "name": "medicalCenterLogout",
      "outputs": [],
      "stateMutability": "nonpayable",
      "type": "function"
    },
    {
      "inputs": [],
      "name": "getMedicalCentersArr",
      "outputs": [
        {
          "internalType": "address[]",
          "name": "",
          "type": "address[]"
        }
      ],
      "stateMutability": "view",
      "type": "function"
    },
    {
      "inputs": [
        {
          "internalType": "address",
          "name": "_medicalStaffPublicAddress",
          "type": "address"
        }
      ],
      "name": "getMedicalCenter",
      "outputs": [
        {
          "internalType": "address",
          "name": "MCPublicAddress",
          "type": "address"
        },
        {
          "internalType": "string",
          "name": "name",
          "type": "string"
        },
        {
          "internalType": "string",
          "name": "phoneNumber",
          "type": "string"
        }
      ],
      "stateMutability": "view",
      "type": "function"
    }
  ],
  "bytecode": "0x608060405234801561001057600080fd5b506118c3806100206000396000f3fe608060405234801561001057600080fd5b50600436106100885760003560e01c80637b4843de1161005b5780637b4843de14610125578063ae2a7ad514610143578063b98049351461015f578063d313e8a11461019157610088565b806325c368fe1461008d5780632cfb9c11146100bd5780637325da9e146100ed57806376948dbd14610109575b600080fd5b6100a760048036038101906100a29190610ef9565b6101c6565b6040516100b49190610f70565b60405180910390f35b6100d760048036038101906100d29190610fc1565b610379565b6040516100e49190610ffd565b60405180910390f35b61010760048036038101906101029190611018565b6103b8565b005b610123600480360381019061011e91906110d3565b610609565b005b61012d6106f4565b60405161013a91906111be565b60405180910390f35b61015d60048036038101906101589190610ef9565b610782565b005b610179600480360381019061017491906110d3565b610829565b6040516101889392919061125f565b60405180910390f35b6101ab60048036038101906101a691906110d3565b610ada565b6040516101bd969594939291906112a4565b60405180910390f35b6000600115156000808573ffffffffffffffffffffffffffffffffffffffff1673ffffffffffffffffffffffffffffffffffffffff16815260200190815260200160002060040160009054906101000a900460ff1615151461025d576040517f08c379a000000000000000000000000000000000000000000000000000000000815260040161025490611366565b60405180910390fd5b6103306000808573ffffffffffffffffffffffffffffffffffffffff1673ffffffffffffffffffffffffffffffffffffffff16815260200190815260200160002060030180546102ac906113b5565b80601f01602080910402602001604051908101604052809291908181526020018280546102d8906113b5565b80156103255780601f106102fa57610100808354040283529160200191610325565b820191906000526020600020905b81548152906001019060200180831161030857829003601f168201915b505050505083610ce8565b61036f576040517f08c379a000000000000000000000000000000000000000000000000000000000815260040161036690611432565b60405180910390fd5b6001905092915050565b6001818154811061038957600080fd5b906000526020600020016000915054906101000a900473ffffffffffffffffffffffffffffffffffffffff1681565b600015156000808673ffffffffffffffffffffffffffffffffffffffff1673ffffffffffffffffffffffffffffffffffffffff16815260200190815260200160002060040160009054906101000a900460ff1615151461044d576040517f08c379a0000000000000000000000000000000000000000000000000000000008152600401610444906114c4565b60405180910390fd5b6040518060c001604052808573ffffffffffffffffffffffffffffffffffffffff168152602001848152602001838152602001828152602001600115158152602001600015158152506000808673ffffffffffffffffffffffffffffffffffffffff1673ffffffffffffffffffffffffffffffffffffffff16815260200190815260200160002060008201518160000160006101000a81548173ffffffffffffffffffffffffffffffffffffffff021916908373ffffffffffffffffffffffffffffffffffffffff16021790555060208201518160010190816105309190611690565b5060408201518160020190816105469190611690565b50606082015181600301908161055c9190611690565b5060808201518160040160006101000a81548160ff02191690831515021790555060a08201518160040160016101000a81548160ff0219169083151502179055509050506001849080600181540180825580915050600190039060005260206000200160009091909190916101000a81548173ffffffffffffffffffffffffffffffffffffffff021916908373ffffffffffffffffffffffffffffffffffffffff16021790555050505050565b6000808273ffffffffffffffffffffffffffffffffffffffff1673ffffffffffffffffffffffffffffffffffffffff16815260200190815260200160002060040160019054906101000a900460ff16610697576040517f08c379a000000000000000000000000000000000000000000000000000000000815260040161068e906117ae565b60405180910390fd5b60008060008373ffffffffffffffffffffffffffffffffffffffff1673ffffffffffffffffffffffffffffffffffffffff16815260200190815260200160002060040160016101000a81548160ff02191690831515021790555050565b6060600180548060200260200160405190810160405280929190818152602001828054801561077857602002820191906000526020600020905b8160009054906101000a900473ffffffffffffffffffffffffffffffffffffffff1673ffffffffffffffffffffffffffffffffffffffff168152602001906001019080831161072e575b5050505050905090565b61078c82826101c6565b6107cb576040517f08c379a00000000000000000000000000000000000000000000000000000000081526004016107c29061181a565b60405180910390fd5b60016000808473ffffffffffffffffffffffffffffffffffffffff1673ffffffffffffffffffffffffffffffffffffffff16815260200190815260200160002060040160016101000a81548160ff0219169083151502179055505050565b600060608060008060008673ffffffffffffffffffffffffffffffffffffffff1673ffffffffffffffffffffffffffffffffffffffff1681526020019081526020016000206040518060c00160405290816000820160009054906101000a900473ffffffffffffffffffffffffffffffffffffffff1673ffffffffffffffffffffffffffffffffffffffff1673ffffffffffffffffffffffffffffffffffffffff1681526020016001820180546108df906113b5565b80601f016020809104026020016040519081016040528092919081815260200182805461090b906113b5565b80156109585780601f1061092d57610100808354040283529160200191610958565b820191906000526020600020905b81548152906001019060200180831161093b57829003601f168201915b50505050508152602001600282018054610971906113b5565b80601f016020809104026020016040519081016040528092919081815260200182805461099d906113b5565b80156109ea5780601f106109bf576101008083540402835291602001916109ea565b820191906000526020600020905b8154815290600101906020018083116109cd57829003601f168201915b50505050508152602001600382018054610a03906113b5565b80601f0160208091040260200160405190810160405280929190818152602001828054610a2f906113b5565b8015610a7c5780601f10610a5157610100808354040283529160200191610a7c565b820191906000526020600020905b815481529060010190602001808311610a5f57829003601f168201915b505050505081526020016004820160009054906101000a900460ff161515151581526020016004820160019054906101000a900460ff1615151515815250509050806000015193508060200151925080604001519150509193909250565b60006020528060005260406000206000915090508060000160009054906101000a900473ffffffffffffffffffffffffffffffffffffffff1690806001018054610b23906113b5565b80601f0160208091040260200160405190810160405280929190818152602001828054610b4f906113b5565b8015610b9c5780601f10610b7157610100808354040283529160200191610b9c565b820191906000526020600020905b815481529060010190602001808311610b7f57829003601f168201915b505050505090806002018054610bb1906113b5565b80601f0160208091040260200160405190810160405280929190818152602001828054610bdd906113b5565b8015610c2a5780601f10610bff57610100808354040283529160200191610c2a565b820191906000526020600020905b815481529060010190602001808311610c0d57829003601f168201915b505050505090806003018054610c3f906113b5565b80601f0160208091040260200160405190810160405280929190818152602001828054610c6b906113b5565b8015610cb85780601f10610c8d57610100808354040283529160200191610cb8565b820191906000526020600020905b815481529060010190602001808311610c9b57829003601f168201915b5050505050908060040160009054906101000a900460ff16908060040160019054906101000a900460ff16905086565b600081604051602001610cfb9190611876565b6040516020818303038152906040528051906020012083604051602001610d229190611876565b6040516020818303038152906040528051906020012014905092915050565b6000604051905090565b600080fd5b600080fd5b600073ffffffffffffffffffffffffffffffffffffffff82169050919050565b6000610d8082610d55565b9050919050565b610d9081610d75565b8114610d9b57600080fd5b50565b600081359050610dad81610d87565b92915050565b600080fd5b600080fd5b6000601f19601f8301169050919050565b7f4e487b7100000000000000000000000000000000000000000000000000000000600052604160045260246000fd5b610e0682610dbd565b810181811067ffffffffffffffff82111715610e2557610e24610dce565b5b80604052505050565b6000610e38610d41565b9050610e448282610dfd565b919050565b600067ffffffffffffffff821115610e6457610e63610dce565b5b610e6d82610dbd565b9050602081019050919050565b82818337600083830152505050565b6000610e9c610e9784610e49565b610e2e565b905082815260208101848484011115610eb857610eb7610db8565b5b610ec3848285610e7a565b509392505050565b600082601f830112610ee057610edf610db3565b5b8135610ef0848260208601610e89565b91505092915050565b60008060408385031215610f1057610f0f610d4b565b5b6000610f1e85828601610d9e565b925050602083013567ffffffffffffffff811115610f3f57610f3e610d50565b5b610f4b85828601610ecb565b9150509250929050565b60008115159050919050565b610f6a81610f55565b82525050565b6000602082019050610f856000830184610f61565b92915050565b6000819050919050565b610f9e81610f8b565b8114610fa957600080fd5b50565b600081359050610fbb81610f95565b92915050565b600060208284031215610fd757610fd6610d4b565b5b6000610fe584828501610fac565b91505092915050565b610ff781610d75565b82525050565b60006020820190506110126000830184610fee565b92915050565b6000806000806080858703121561103257611031610d4b565b5b600061104087828801610d9e565b945050602085013567ffffffffffffffff81111561106157611060610d50565b5b61106d87828801610ecb565b935050604085013567ffffffffffffffff81111561108e5761108d610d50565b5b61109a87828801610ecb565b925050606085013567ffffffffffffffff8111156110bb576110ba610d50565b5b6110c787828801610ecb565b91505092959194509250565b6000602082840312156110e9576110e8610d4b565b5b60006110f784828501610d9e565b91505092915050565b600081519050919050565b600082825260208201905092915050565b6000819050602082019050919050565b61113581610d75565b82525050565b6000611147838361112c565b60208301905092915050565b6000602082019050919050565b600061116b82611100565b611175818561110b565b93506111808361111c565b8060005b838110156111b1578151611198888261113b565b97506111a383611153565b925050600181019050611184565b5085935050505092915050565b600060208201905081810360008301526111d88184611160565b905092915050565b600081519050919050565b600082825260208201905092915050565b60005b8381101561121a5780820151818401526020810190506111ff565b60008484015250505050565b6000611231826111e0565b61123b81856111eb565b935061124b8185602086016111fc565b61125481610dbd565b840191505092915050565b60006060820190506112746000830186610fee565b81810360208301526112868185611226565b9050818103604083015261129a8184611226565b9050949350505050565b600060c0820190506112b96000830189610fee565b81810360208301526112cb8188611226565b905081810360408301526112df8187611226565b905081810360608301526112f38186611226565b90506113026080830185610f61565b61130f60a0830184610f61565b979650505050505050565b7f596f75277265206e6f7420726567697374657265642079657421000000000000600082015250565b6000611350601a836111eb565b915061135b8261131a565b602082019050919050565b6000602082019050818103600083015261137f81611343565b9050919050565b7f4e487b7100000000000000000000000000000000000000000000000000000000600052602260045260246000fd5b600060028204905060018216806113cd57607f821691505b6020821081036113e0576113df611386565b5b50919050565b7f496e76616c69642061646472657373206f722070617373776f72640000000000600082015250565b600061141c601b836111eb565b9150611427826113e6565b602082019050919050565b6000602082019050818103600083015261144b8161140f565b9050919050565b7f4d65646963616c2063656e74657220697320616c72656164792072656769737460008201527f6572656400000000000000000000000000000000000000000000000000000000602082015250565b60006114ae6024836111eb565b91506114b982611452565b604082019050919050565b600060208201905081810360008301526114dd816114a1565b9050919050565b60008190508160005260206000209050919050565b60006020601f8301049050919050565b600082821b905092915050565b6000600883026115467fffffffffffffffffffffffffffffffffffffffffffffffffffffffffffffffff82611509565b6115508683611509565b95508019841693508086168417925050509392505050565b6000819050919050565b600061158d61158861158384610f8b565b611568565b610f8b565b9050919050565b6000819050919050565b6115a783611572565b6115bb6115b382611594565b848454611516565b825550505050565b600090565b6115d06115c3565b6115db81848461159e565b505050565b5b818110156115ff576115f46000826115c8565b6001810190506115e1565b5050565b601f82111561164457611615816114e4565b61161e846114f9565b8101602085101561162d578190505b611641611639856114f9565b8301826115e0565b50505b505050565b600082821c905092915050565b600061166760001984600802611649565b1980831691505092915050565b60006116808383611656565b9150826002028217905092915050565b611699826111e0565b67ffffffffffffffff8111156116b2576116b1610dce565b5b6116bc82546113b5565b6116c7828285611603565b600060209050601f8311600181146116fa57600084156116e8578287015190505b6116f28582611674565b86555061175a565b601f198416611708866114e4565b60005b828110156117305784890151825560018201915060208501945060208101905061170b565b8683101561174d5784890151611749601f891682611656565b8355505b6001600288020188555050505b505050505050565b7f596f75277265206e6f74206c6f6767656420696e000000000000000000000000600082015250565b60006117986014836111eb565b91506117a382611762565b602082019050919050565b600060208201905081810360008301526117c78161178b565b9050919050565b7f496e76616c6964206c6f67696e2063726564656e7469616c7300000000000000600082015250565b60006118046019836111eb565b915061180f826117ce565b602082019050919050565b60006020820190508181036000830152611833816117f7565b9050919050565b600081905092915050565b6000611850826111e0565b61185a818561183a565b935061186a8185602086016111fc565b80840191505092915050565b60006118828284611845565b91508190509291505056fea26469706673582212204344adb1346b4e5275f6b4c4827b89ec12f85f991a875eb4bbde6e79a5f69b4c64736f6c63430008130033",
  "immutableReferences": {},
  "source": "// SPDX-License-Identifier: MIT\npragma solidity ^0.8.19;\n\ncontract MedicalCenters {\n    struct MedicalCenter {\n        address MCPublicAddress;\n        string name;\n        string phoneNumber;\n        string password;\n        bool isRegistered;\n        bool isLogin;\n    }\n\n    mapping(address => MedicalCenter) public medicalsCenters;\n\n    address[] public medicaCenterAddressArr;\n\n    // modifier onlyOwner() {\n    //     require(msg.sender == owner, \"Restricted to system owner only\");\n    //     _;\n    // }\n\n    function addMedicalCenter(\n        address _MCPublicAddress,\n        string memory _name,\n        string memory _contactNumber,\n        string memory _password\n    ) public {\n        require(\n            medicalsCenters[_MCPublicAddress].isRegistered == false,\n            \"Medical center is already registered\"\n        );\n        medicalsCenters[_MCPublicAddress] = MedicalCenter({\n            MCPublicAddress: _MCPublicAddress,\n            name: _name,\n            phoneNumber: _contactNumber,\n            password: _password,\n            isRegistered: true,\n            isLogin: false\n        });\n        medicaCenterAddressArr.push(_MCPublicAddress);\n        \n    }\n\n    // function  medicalCenterLogin(address _MCPublicAddress, string memory _password) public {\n    //     require(medicalsCenters[_MCPublicAddress].isRegistered == true, \"Your not registered yet!\");\n    //     require(medicalsCenters[_MCPublicAddress].isLogin == false, \"Your Already login\");\n    //     require(compareString(medicalsCenters[_MCPublicAddress].password, _password), \"Invalid address or password\");\n\n    //     MedicalCenter memory medicalCenter = medicalsCenters[_MCPublicAddress];\n    //     medicalCenter.isLogin = true;\n    // }\n\n    function checkMedicalCenterLogin(address _MCPublicAddress, string memory _password) public view returns (bool) {\n        require(medicalsCenters[_MCPublicAddress].isRegistered == true, \"You're not registered yet!\");\n        // require(!medicalsCenters[_MCPublicAddress].isLogin, \"You're already logged in\");\n        require(compareString(medicalsCenters[_MCPublicAddress].password, _password), \"Invalid address or password\");\n\n        return true;\n    }\n\n    function medicalCenterLogin(address _MCPublicAddress, string memory _password) public {\n        require(checkMedicalCenterLogin(_MCPublicAddress, _password), \"Invalid login credentials\");\n\n        medicalsCenters[_MCPublicAddress].isLogin = true;\n    }\n\n    function medicalCenterLogout(address _MCPublicAddress) public {\n        require(medicalsCenters[_MCPublicAddress].isLogin, \"You're not logged in\");\n\n        medicalsCenters[_MCPublicAddress].isLogin = false;\n    }\n\n    function getMedicalCentersArr() public view returns (address[] memory) {\n        return medicaCenterAddressArr;\n    }\n\n    function getMedicalCenter(\n        address _medicalStaffPublicAddress\n    )\n        public\n        view\n        returns (\n            address MCPublicAddress,\n            string memory name,\n            string memory phoneNumber\n        )\n    {\n        MedicalCenter memory medicalCenter = medicalsCenters[_medicalStaffPublicAddress];\n        MCPublicAddress = medicalCenter.MCPublicAddress;\n        name = medicalCenter.name;\n        phoneNumber = medicalCenter.phoneNumber;\n    }\n\n    function compareString(string memory _a, string memory _b) internal pure returns(bool) {\n        return keccak256(abi.encodePacked(_a)) == keccak256(abi.encodePacked(_b));\n    }\n}\n",
  "sourcePath": "/home/temba/Desktop/blood-donation-blockchain-system/client-side/contracts/MedicalCenters.sol",
  "compiler": {
    "name": "solc",
    "version": "0.8.19+commit.7dd6d404.Emscripten.clang"
  },
  "schemaVersion": "3.4.16",
  "updatedAt": "2024-02-27T20:31:15.265Z",
  "devdoc": {
    "kind": "dev",
    "methods": {},
    "version": 1
  },
  "userdoc": {
    "kind": "user",
    "methods": {},
    "version": 1
  }
}