{
  "contractName": "MedicalCenterStructure",
  "abi": [
    {
      "inputs": [
        {
          "internalType": "uint256",
          "name": "",
          "type": "uint256"
        }
      ],
      "name": "medicaCenterAddressArr",
      "outputs": [
        {
          "internalType": "address",
          "name": "",
          "type": "address"
        }
      ],
      "stateMutability": "view",
      "type": "function"
    },
    {
      "inputs": [
        {
          "internalType": "address",
          "name": "",
          "type": "address"
        }
      ],
      "name": "medicalsCenters",
      "outputs": [
        {
          "internalType": "address",
          "name": "MCPublicAddress",
          "type": "address"
        },
        {
          "internalType": "string",
          "name": "name",
          "type": "string"
        },
        {
          "internalType": "string",
          "name": "phoneNumber",
          "type": "string"
        },
        {
          "internalType": "string",
          "name": "password",
          "type": "string"
        },
        {
          "internalType": "bool",
          "name": "isRegistered",
          "type": "bool"
        },
        {
          "internalType": "bool",
          "name": "isLogin",
          "type": "bool"
        }
      ],
      "stateMutability": "view",
      "type": "function"
    }
  ],
  "bytecode": "0x608060405234801561001057600080fd5b506105c1806100206000396000f3fe608060405234801561001057600080fd5b50600436106100365760003560e01c80632cfb9c111461003b578063d313e8a11461006b575b600080fd5b61005560048036038101906100509190610328565b6100a0565b6040516100629190610396565b60405180910390f35b610085600480360381019061008091906103dd565b6100df565b604051610097969594939291906104b5565b60405180910390f35b600181815481106100b057600080fd5b906000526020600020016000915054906101000a900473ffffffffffffffffffffffffffffffffffffffff1681565b60006020528060005260406000206000915090508060000160009054906101000a900473ffffffffffffffffffffffffffffffffffffffff16908060010180546101289061055a565b80601f01602080910402602001604051908101604052809291908181526020018280546101549061055a565b80156101a15780601f10610176576101008083540402835291602001916101a1565b820191906000526020600020905b81548152906001019060200180831161018457829003601f168201915b5050505050908060020180546101b69061055a565b80601f01602080910402602001604051908101604052809291908181526020018280546101e29061055a565b801561022f5780601f106102045761010080835404028352916020019161022f565b820191906000526020600020905b81548152906001019060200180831161021257829003601f168201915b5050505050908060030180546102449061055a565b80601f01602080910402602001604051908101604052809291908181526020018280546102709061055a565b80156102bd5780601f10610292576101008083540402835291602001916102bd565b820191906000526020600020905b8154815290600101906020018083116102a057829003601f168201915b5050505050908060040160009054906101000a900460ff16908060040160019054906101000a900460ff16905086565b600080fd5b6000819050919050565b610305816102f2565b811461031057600080fd5b50565b600081359050610322816102fc565b92915050565b60006020828403121561033e5761033d6102ed565b5b600061034c84828501610313565b91505092915050565b600073ffffffffffffffffffffffffffffffffffffffff82169050919050565b600061038082610355565b9050919050565b61039081610375565b82525050565b60006020820190506103ab6000830184610387565b92915050565b6103ba81610375565b81146103c557600080fd5b50565b6000813590506103d7816103b1565b92915050565b6000602082840312156103f3576103f26102ed565b5b6000610401848285016103c8565b91505092915050565b600081519050919050565b600082825260208201905092915050565b60005b83811015610444578082015181840152602081019050610429565b60008484015250505050565b6000601f19601f8301169050919050565b600061046c8261040a565b6104768185610415565b9350610486818560208601610426565b61048f81610450565b840191505092915050565b60008115159050919050565b6104af8161049a565b82525050565b600060c0820190506104ca6000830189610387565b81810360208301526104dc8188610461565b905081810360408301526104f08187610461565b905081810360608301526105048186610461565b905061051360808301856104a6565b61052060a08301846104a6565b979650505050505050565b7f4e487b7100000000000000000000000000000000000000000000000000000000600052602260045260246000fd5b6000600282049050600182168061057257607f821691505b6020821081036105855761058461052b565b5b5091905056fea26469706673582212208c8ff2c44f92bd6e54b38caf87e55f89b22d478332835942c3181c92a25700dc64736f6c63430008130033",
  "immutableReferences": {},
  "source": "// SPDX-License-Identifier: MIT\npragma solidity ^0.8.19;\n\ncontract MedicalCenterStructure {\n    struct MedicalCenter {\n        address MCPublicAddress;\n        string name;\n        string phoneNumber;\n        string password;\n        bool isRegistered;\n        bool isLogin;\n    }\n\n    mapping(address => MedicalCenter) public medicalsCenters;\n\n    address[] public medicaCenterAddressArr;\n}",
  "sourcePath": "/home/temba/Desktop/blood-donation-blockchain-system/client-side/contracts/MedicalCenterStructure.sol",
  "compiler": {
    "name": "solc",
    "version": "0.8.19+commit.7dd6d404.Emscripten.clang"
  },
  "schemaVersion": "3.4.16",
  "updatedAt": "2024-03-11T09:03:15.617Z",
  "networkType": "ethereum",
  "devdoc": {
    "kind": "dev",
    "methods": {},
    "version": 1
  },
  "userdoc": {
    "kind": "user",
    "methods": {},
    "version": 1
  }
}