{
  "contractName": "MedicalCenter",
  "abi": [
    {
      "inputs": [
        {
          "internalType": "uint256",
          "name": "",
          "type": "uint256"
        }
      ],
      "name": "medicaCenterAddressArr",
      "outputs": [
        {
          "internalType": "address",
          "name": "",
          "type": "address"
        }
      ],
      "stateMutability": "view",
      "type": "function"
    },
    {
      "inputs": [
        {
          "internalType": "address",
          "name": "",
          "type": "address"
        }
      ],
      "name": "medicalStaffs",
      "outputs": [
        {
          "internalType": "address",
          "name": "MSPublicAddress",
          "type": "address"
        },
        {
          "internalType": "string",
          "name": "name",
          "type": "string"
        },
        {
          "internalType": "string",
          "name": "phoneNumber",
          "type": "string"
        },
        {
          "internalType": "string",
          "name": "password",
          "type": "string"
        }
      ],
      "stateMutability": "view",
      "type": "function"
    },
    {
      "inputs": [
        {
          "internalType": "address",
          "name": "_MSPublicAddress",
          "type": "address"
        },
        {
          "internalType": "string",
          "name": "_name",
          "type": "string"
        },
        {
          "internalType": "string",
          "name": "_contactNumber",
          "type": "string"
        },
        {
          "internalType": "string",
          "name": "_password",
          "type": "string"
        }
      ],
      "name": "addMedicalStaff",
      "outputs": [],
      "stateMutability": "nonpayable",
      "type": "function"
    }
  ],
  "bytecode": "0x608060405234801561001057600080fd5b50610b0d806100206000396000f3fe608060405234801561001057600080fd5b50600436106100415760003560e01c80630748b5eb146100465780632cfb9c11146100795780635dd17fd4146100a9575b600080fd5b610060600480360381019061005b9190610465565b6100c5565b6040516100709493929190610531565b60405180910390f35b610093600480360381019061008e91906105c1565b6102ad565b6040516100a091906105ee565b60405180910390f35b6100c360048036038101906100be919061073e565b6102ec565b005b60006020528060005260406000206000915090508060000160009054906101000a900473ffffffffffffffffffffffffffffffffffffffff169080600101805461010e90610828565b80601f016020809104026020016040519081016040528092919081815260200182805461013a90610828565b80156101875780601f1061015c57610100808354040283529160200191610187565b820191906000526020600020905b81548152906001019060200180831161016a57829003601f168201915b50505050509080600201805461019c90610828565b80601f01602080910402602001604051908101604052809291908181526020018280546101c890610828565b80156102155780601f106101ea57610100808354040283529160200191610215565b820191906000526020600020905b8154815290600101906020018083116101f857829003601f168201915b50505050509080600301805461022a90610828565b80601f016020809104026020016040519081016040528092919081815260200182805461025690610828565b80156102a35780601f10610278576101008083540402835291602001916102a3565b820191906000526020600020905b81548152906001019060200180831161028657829003601f168201915b5050505050905084565b600181815481106102bd57600080fd5b906000526020600020016000915054906101000a900473ffffffffffffffffffffffffffffffffffffffff1681565b60405180608001604052808573ffffffffffffffffffffffffffffffffffffffff168152602001848152602001838152602001828152506000808673ffffffffffffffffffffffffffffffffffffffff1673ffffffffffffffffffffffffffffffffffffffff16815260200190815260200160002060008201518160000160006101000a81548173ffffffffffffffffffffffffffffffffffffffff021916908373ffffffffffffffffffffffffffffffffffffffff16021790555060208201518160010190816103bd9190610a05565b5060408201518160020190816103d39190610a05565b5060608201518160030190816103e99190610a05565b5090505050505050565b6000604051905090565b600080fd5b600080fd5b600073ffffffffffffffffffffffffffffffffffffffff82169050919050565b600061043282610407565b9050919050565b61044281610427565b811461044d57600080fd5b50565b60008135905061045f81610439565b92915050565b60006020828403121561047b5761047a6103fd565b5b600061048984828501610450565b91505092915050565b61049b81610427565b82525050565b600081519050919050565b600082825260208201905092915050565b60005b838110156104db5780820151818401526020810190506104c0565b60008484015250505050565b6000601f19601f8301169050919050565b6000610503826104a1565b61050d81856104ac565b935061051d8185602086016104bd565b610526816104e7565b840191505092915050565b60006080820190506105466000830187610492565b818103602083015261055881866104f8565b9050818103604083015261056c81856104f8565b9050818103606083015261058081846104f8565b905095945050505050565b6000819050919050565b61059e8161058b565b81146105a957600080fd5b50565b6000813590506105bb81610595565b92915050565b6000602082840312156105d7576105d66103fd565b5b60006105e5848285016105ac565b91505092915050565b60006020820190506106036000830184610492565b92915050565b600080fd5b600080fd5b7f4e487b7100000000000000000000000000000000000000000000000000000000600052604160045260246000fd5b61064b826104e7565b810181811067ffffffffffffffff8211171561066a57610669610613565b5b80604052505050565b600061067d6103f3565b90506106898282610642565b919050565b600067ffffffffffffffff8211156106a9576106a8610613565b5b6106b2826104e7565b9050602081019050919050565b82818337600083830152505050565b60006106e16106dc8461068e565b610673565b9050828152602081018484840111156106fd576106fc61060e565b5b6107088482856106bf565b509392505050565b600082601f83011261072557610724610609565b5b81356107358482602086016106ce565b91505092915050565b60008060008060808587031215610758576107576103fd565b5b600061076687828801610450565b945050602085013567ffffffffffffffff81111561078757610786610402565b5b61079387828801610710565b935050604085013567ffffffffffffffff8111156107b4576107b3610402565b5b6107c087828801610710565b925050606085013567ffffffffffffffff8111156107e1576107e0610402565b5b6107ed87828801610710565b91505092959194509250565b7f4e487b7100000000000000000000000000000000000000000000000000000000600052602260045260246000fd5b6000600282049050600182168061084057607f821691505b602082108103610853576108526107f9565b5b50919050565b60008190508160005260206000209050919050565b60006020601f8301049050919050565b600082821b905092915050565b6000600883026108bb7fffffffffffffffffffffffffffffffffffffffffffffffffffffffffffffffff8261087e565b6108c5868361087e565b95508019841693508086168417925050509392505050565b6000819050919050565b60006109026108fd6108f88461058b565b6108dd565b61058b565b9050919050565b6000819050919050565b61091c836108e7565b61093061092882610909565b84845461088b565b825550505050565b600090565b610945610938565b610950818484610913565b505050565b5b818110156109745761096960008261093d565b600181019050610956565b5050565b601f8211156109b95761098a81610859565b6109938461086e565b810160208510156109a2578190505b6109b66109ae8561086e565b830182610955565b50505b505050565b600082821c905092915050565b60006109dc600019846008026109be565b1980831691505092915050565b60006109f583836109cb565b9150826002028217905092915050565b610a0e826104a1565b67ffffffffffffffff811115610a2757610a26610613565b5b610a318254610828565b610a3c828285610978565b600060209050601f831160018114610a6f5760008415610a5d578287015190505b610a6785826109e9565b865550610acf565b601f198416610a7d86610859565b60005b82811015610aa557848901518255600182019150602085019450602081019050610a80565b86831015610ac25784890151610abe601f8916826109cb565b8355505b6001600288020188555050505b50505050505056fea2646970667358221220b09c828d70e33dc7b98640f3b7648d7d59e774a9cc5735c6572c07ef852ecac264736f6c63430008130033",
  "immutableReferences": {},
  "source": "// SPDX-License-Identifier: MIT\npragma solidity ^0.8.19;\n\ncontract MedicalCenter {\n    struct MedicalStaff {\n        address MSPublicAddress;\n        string name;\n        string phoneNumber;\n        string password;\n    }\n\n    mapping(address => MedicalStaff) public medicalStaffs;\n\n    address[] public medicaCenterAddressArr;\n\n    function addMedicalStaff(\n        address _MSPublicAddress,\n        string memory _name,\n        string memory _contactNumber,\n        string memory _password\n    ) public {\n        medicalStaffs[_MSPublicAddress] = MedicalStaff({\n            MSPublicAddress: _MSPublicAddress,\n            name: _name,\n            phoneNumber: _contactNumber,\n            password: _password\n        });\n    }\n}\n",
  "sourcePath": "/home/temba/Desktop/blood-donation-blockchain-system/client-side/contracts/MedicalCenter.sol",
  "compiler": {
    "name": "solc",
    "version": "0.8.19+commit.7dd6d404.Emscripten.clang"
  },
  "schemaVersion": "3.4.16",
  "updatedAt": "2024-02-24T19:47:11.321Z",
  "devdoc": {
    "kind": "dev",
    "methods": {},
    "version": 1
  },
  "userdoc": {
    "kind": "user",
    "methods": {},
    "version": 1
  }
}