{
  "contractName": "MedicalCenters",
  "abi": [
    {
      "inputs": [
        {
          "internalType": "uint256",
          "name": "",
          "type": "uint256"
        }
      ],
      "name": "medicaCenterAddressArr",
      "outputs": [
        {
          "internalType": "address",
          "name": "",
          "type": "address"
        }
      ],
      "stateMutability": "view",
      "type": "function",
      "constant": true
    },
    {
      "inputs": [
        {
          "internalType": "address",
          "name": "",
          "type": "address"
        }
      ],
      "name": "medicalsCenters",
      "outputs": [
        {
          "internalType": "address",
          "name": "MCPublicAddress",
          "type": "address"
        },
        {
          "internalType": "string",
          "name": "name",
          "type": "string"
        },
        {
          "internalType": "string",
          "name": "phoneNumber",
          "type": "string"
        },
        {
          "internalType": "string",
          "name": "password",
          "type": "string"
        },
        {
          "internalType": "bool",
          "name": "isRegistered",
          "type": "bool"
        },
        {
          "internalType": "bool",
          "name": "isLogin",
          "type": "bool"
        }
      ],
      "stateMutability": "view",
      "type": "function",
      "constant": true
    },
    {
      "inputs": [
        {
          "internalType": "address",
          "name": "_medicalCenterAddress",
          "type": "address"
        }
      ],
      "name": "readMedicalCenter",
      "outputs": [
        {
          "components": [
            {
              "internalType": "address",
              "name": "MCPublicAddress",
              "type": "address"
            },
            {
              "internalType": "string",
              "name": "name",
              "type": "string"
            },
            {
              "internalType": "string",
              "name": "phoneNumber",
              "type": "string"
            },
            {
              "internalType": "string",
              "name": "password",
              "type": "string"
            },
            {
              "internalType": "bool",
              "name": "isRegistered",
              "type": "bool"
            },
            {
              "internalType": "bool",
              "name": "isLogin",
              "type": "bool"
            }
          ],
          "internalType": "struct MedicalCenters.MedicalCenter",
          "name": "",
          "type": "tuple"
        }
      ],
      "stateMutability": "view",
      "type": "function",
      "constant": true
    },
    {
      "inputs": [
        {
          "internalType": "address",
          "name": "_MCPublicAddress",
          "type": "address"
        },
        {
          "internalType": "string",
          "name": "_name",
          "type": "string"
        },
        {
          "internalType": "string",
          "name": "_contactNumber",
          "type": "string"
        },
        {
          "internalType": "string",
          "name": "_password",
          "type": "string"
        }
      ],
      "name": "addMedicalCenter",
      "outputs": [],
      "stateMutability": "nonpayable",
      "type": "function"
    },
    {
      "inputs": [
        {
          "internalType": "string",
          "name": "_oldPassword",
          "type": "string"
        },
        {
          "internalType": "string",
          "name": "_newPassword",
          "type": "string"
        }
      ],
      "name": "medicalCenterChangePassword",
      "outputs": [],
      "stateMutability": "nonpayable",
      "type": "function"
    },
    {
      "inputs": [
        {
          "internalType": "address",
          "name": "_MCPublicAddress",
          "type": "address"
        },
        {
          "internalType": "string",
          "name": "_password",
          "type": "string"
        }
      ],
      "name": "medicalCenterLogin",
      "outputs": [],
      "stateMutability": "nonpayable",
      "type": "function"
    },
    {
      "inputs": [
        {
          "internalType": "address",
          "name": "_MCPublicAddress",
          "type": "address"
        }
      ],
      "name": "medicalCenterLogout",
      "outputs": [],
      "stateMutability": "nonpayable",
      "type": "function"
    },
    {
      "inputs": [],
      "name": "getMedicalCentersArr",
      "outputs": [
        {
          "internalType": "address[]",
          "name": "",
          "type": "address[]"
        }
      ],
      "stateMutability": "view",
      "type": "function",
      "constant": true
    },
    {
      "inputs": [
        {
          "internalType": "address",
          "name": "_medicalStaffPublicAddress",
          "type": "address"
        }
      ],
      "name": "getMedicalCenter",
      "outputs": [
        {
          "internalType": "address",
          "name": "MCPublicAddress",
          "type": "address"
        },
        {
          "internalType": "string",
          "name": "name",
          "type": "string"
        },
        {
          "internalType": "string",
          "name": "phoneNumber",
          "type": "string"
        }
      ],
      "stateMutability": "view",
      "type": "function",
      "constant": true
    }
  ],
  "bytecode": "0x60a060405234801561001057600080fd5b503373ffffffffffffffffffffffffffffffffffffffff1660808173ffffffffffffffffffffffffffffffffffffffff16815250506080516123c361006060003960006104c901526123c36000f3fe608060405234801561001057600080fd5b50600436106100935760003560e01c80637b4843de116100665780637b4843de14610130578063ae2a7ad51461014e578063b98049351461016a578063d313e8a11461019c578063de453749146101d157610093565b8063244723b1146100985780632cfb9c11146100c85780637325da9e146100f857806376948dbd14610114575b600080fd5b6100b260048036038101906100ad9190611506565b6101ed565b6040516100bf9190611684565b60405180910390f35b6100e260048036038101906100dd91906116dc565b610488565b6040516100ef9190611718565b60405180910390f35b610112600480360381019061010d9190611868565b6104c7565b005b61012e60048036038101906101299190611506565b61082a565b005b610138610917565b60405161014591906119d2565b60405180910390f35b610168600480360381019061016391906119f4565b6109a5565b005b610184600480360381019061017f9190611506565b610bac565b60405161019393929190611a9a565b60405180910390f35b6101b660048036038101906101b19190611506565b610e5e565b6040516101c896959493929190611aee565b60405180910390f35b6101eb60048036038101906101e69190611b64565b61106c565b005b6101f5611444565b600160008373ffffffffffffffffffffffffffffffffffffffff1673ffffffffffffffffffffffffffffffffffffffff1681526020019081526020016000206040518060c00160405290816000820160009054906101000a900473ffffffffffffffffffffffffffffffffffffffff1673ffffffffffffffffffffffffffffffffffffffff1673ffffffffffffffffffffffffffffffffffffffff1681526020016001820180546102a590611c0b565b80601f01602080910402602001604051908101604052809291908181526020018280546102d190611c0b565b801561031e5780601f106102f35761010080835404028352916020019161031e565b820191906000526020600020905b81548152906001019060200180831161030157829003601f168201915b5050505050815260200160028201805461033790611c0b565b80601f016020809104026020016040519081016040528092919081815260200182805461036390611c0b565b80156103b05780601f10610385576101008083540402835291602001916103b0565b820191906000526020600020905b81548152906001019060200180831161039357829003601f168201915b505050505081526020016003820180546103c990611c0b565b80601f01602080910402602001604051908101604052809291908181526020018280546103f590611c0b565b80156104425780601f1061041757610100808354040283529160200191610442565b820191906000526020600020905b81548152906001019060200180831161042557829003601f168201915b505050505081526020016004820160009054906101000a900460ff161515151581526020016004820160019054906101000a900460ff1615151515815250509050919050565b6002818154811061049857600080fd5b906000526020600020016000915054906101000a900473ffffffffffffffffffffffffffffffffffffffff1681565b7f000000000000000000000000000000000000000000000000000000000000000073ffffffffffffffffffffffffffffffffffffffff163373ffffffffffffffffffffffffffffffffffffffff1614610555576040517f08c379a000000000000000000000000000000000000000000000000000000000815260040161054c90611c88565b60405180910390fd5b60008054906101000a900460ff16156105a3576040517f08c379a000000000000000000000000000000000000000000000000000000000815260040161059a90611cf4565b60405180910390fd5b60016000806101000a81548160ff02191690831515021790555060001515600160008673ffffffffffffffffffffffffffffffffffffffff1673ffffffffffffffffffffffffffffffffffffffff16815260200190815260200160002060040160009054906101000a900460ff16151514610653576040517f08c379a000000000000000000000000000000000000000000000000000000000815260040161064a90611d86565b60405180910390fd5b6040518060c001604052808573ffffffffffffffffffffffffffffffffffffffff16815260200184815260200183815260200182815260200160011515815260200160001515815250600160008673ffffffffffffffffffffffffffffffffffffffff1673ffffffffffffffffffffffffffffffffffffffff16815260200190815260200160002060008201518160000160006101000a81548173ffffffffffffffffffffffffffffffffffffffff021916908373ffffffffffffffffffffffffffffffffffffffff16021790555060208201518160010190816107379190611f52565b50604082015181600201908161074d9190611f52565b5060608201518160030190816107639190611f52565b5060808201518160040160006101000a81548160ff02191690831515021790555060a08201518160040160016101000a81548160ff0219169083151502179055509050506002849080600181540180825580915050600190039060005260206000200160009091909190916101000a81548173ffffffffffffffffffffffffffffffffffffffff021916908373ffffffffffffffffffffffffffffffffffffffff16021790555060008060006101000a81548160ff02191690831515021790555050505050565b600160008273ffffffffffffffffffffffffffffffffffffffff1673ffffffffffffffffffffffffffffffffffffffff16815260200190815260200160002060040160019054906101000a900460ff166108b9576040517f08c379a00000000000000000000000000000000000000000000000000000000081526004016108b090612070565b60405180910390fd5b6000600160008373ffffffffffffffffffffffffffffffffffffffff1673ffffffffffffffffffffffffffffffffffffffff16815260200190815260200160002060040160016101000a81548160ff02191690831515021790555050565b6060600280548060200260200160405190810160405280929190818152602001828054801561099b57602002820191906000526020600020905b8160009054906101000a900473ffffffffffffffffffffffffffffffffffffffff1673ffffffffffffffffffffffffffffffffffffffff1681526020019060010190808311610951575b5050505050905090565b60011515600160008473ffffffffffffffffffffffffffffffffffffffff1673ffffffffffffffffffffffffffffffffffffffff16815260200190815260200160002060040160009054906101000a900460ff16151514610a3b576040517f08c379a0000000000000000000000000000000000000000000000000000000008152600401610a32906120dc565b60405180910390fd5b610b0f600160008473ffffffffffffffffffffffffffffffffffffffff1673ffffffffffffffffffffffffffffffffffffffff1681526020019081526020016000206003018054610a8b90611c0b565b80601f0160208091040260200160405190810160405280929190818152602001828054610ab790611c0b565b8015610b045780601f10610ad957610100808354040283529160200191610b04565b820191906000526020600020905b815481529060010190602001808311610ae757829003601f168201915b5050505050826113eb565b610b4e576040517f08c379a0000000000000000000000000000000000000000000000000000000008152600401610b4590612148565b60405180910390fd5b60018060008473ffffffffffffffffffffffffffffffffffffffff1673ffffffffffffffffffffffffffffffffffffffff16815260200190815260200160002060040160016101000a81548160ff0219169083151502179055505050565b60006060806000600160008673ffffffffffffffffffffffffffffffffffffffff1673ffffffffffffffffffffffffffffffffffffffff1681526020019081526020016000206040518060c00160405290816000820160009054906101000a900473ffffffffffffffffffffffffffffffffffffffff1673ffffffffffffffffffffffffffffffffffffffff1673ffffffffffffffffffffffffffffffffffffffff168152602001600182018054610c6390611c0b565b80601f0160208091040260200160405190810160405280929190818152602001828054610c8f90611c0b565b8015610cdc5780601f10610cb157610100808354040283529160200191610cdc565b820191906000526020600020905b815481529060010190602001808311610cbf57829003601f168201915b50505050508152602001600282018054610cf590611c0b565b80601f0160208091040260200160405190810160405280929190818152602001828054610d2190611c0b565b8015610d6e5780601f10610d4357610100808354040283529160200191610d6e565b820191906000526020600020905b815481529060010190602001808311610d5157829003601f168201915b50505050508152602001600382018054610d8790611c0b565b80601f0160208091040260200160405190810160405280929190818152602001828054610db390611c0b565b8015610e005780601f10610dd557610100808354040283529160200191610e00565b820191906000526020600020905b815481529060010190602001808311610de357829003601f168201915b505050505081526020016004820160009054906101000a900460ff161515151581526020016004820160019054906101000a900460ff1615151515815250509050806000015193508060200151925080604001519150509193909250565b60016020528060005260406000206000915090508060000160009054906101000a900473ffffffffffffffffffffffffffffffffffffffff1690806001018054610ea790611c0b565b80601f0160208091040260200160405190810160405280929190818152602001828054610ed390611c0b565b8015610f205780601f10610ef557610100808354040283529160200191610f20565b820191906000526020600020905b815481529060010190602001808311610f0357829003601f168201915b505050505090806002018054610f3590611c0b565b80601f0160208091040260200160405190810160405280929190818152602001828054610f6190611c0b565b8015610fae5780601f10610f8357610100808354040283529160200191610fae565b820191906000526020600020905b815481529060010190602001808311610f9157829003601f168201915b505050505090806003018054610fc390611c0b565b80601f0160208091040260200160405190810160405280929190818152602001828054610fef90611c0b565b801561103c5780601f106110115761010080835404028352916020019161103c565b820191906000526020600020905b81548152906001019060200180831161101f57829003601f168201915b5050505050908060040160009054906101000a900460ff16908060040160019054906101000a900460ff16905086565b60011515600160003373ffffffffffffffffffffffffffffffffffffffff1673ffffffffffffffffffffffffffffffffffffffff16815260200190815260200160002060040160019054906101000a900460ff16151514611102576040517f08c379a00000000000000000000000000000000000000000000000000000000081526004016110f9906121b4565b60405180910390fd5b6111d6600160003373ffffffffffffffffffffffffffffffffffffffff1673ffffffffffffffffffffffffffffffffffffffff168152602001908152602001600020600301805461115290611c0b565b80601f016020809104026020016040519081016040528092919081815260200182805461117e90611c0b565b80156111cb5780601f106111a0576101008083540402835291602001916111cb565b820191906000526020600020905b8154815290600101906020018083116111ae57829003601f168201915b5050505050836113eb565b611215576040517f08c379a000000000000000000000000000000000000000000000000000000000815260040161120c90612220565b60405180910390fd5b6000816040516020016112289190612240565b6040516020818303038152906040528051906020012050602060ff1611611284576040517f08c379a000000000000000000000000000000000000000000000000000000000815260040161127b906122ae565b60405180910390fd5b611358600160003373ffffffffffffffffffffffffffffffffffffffff1673ffffffffffffffffffffffffffffffffffffffff16815260200190815260200160002060030180546112d490611c0b565b80601f016020809104026020016040519081016040528092919081815260200182805461130090611c0b565b801561134d5780601f106113225761010080835404028352916020019161134d565b820191906000526020600020905b81548152906001019060200180831161133057829003601f168201915b5050505050826113eb565b611397576040517f08c379a000000000000000000000000000000000000000000000000000000000815260040161138e9061231a565b60405180910390fd5b80600160003373ffffffffffffffffffffffffffffffffffffffff1673ffffffffffffffffffffffffffffffffffffffff16815260200190815260200160002060030190816113e69190611f52565b505050565b6000816040516020016113fe9190612376565b60405160208183030381529060405280519060200120836040516020016114259190612376565b6040516020818303038152906040528051906020012014905092915050565b6040518060c00160405280600073ffffffffffffffffffffffffffffffffffffffff1681526020016060815260200160608152602001606081526020016000151581526020016000151581525090565b6000604051905090565b600080fd5b600080fd5b600073ffffffffffffffffffffffffffffffffffffffff82169050919050565b60006114d3826114a8565b9050919050565b6114e3816114c8565b81146114ee57600080fd5b50565b600081359050611500816114da565b92915050565b60006020828403121561151c5761151b61149e565b5b600061152a848285016114f1565b91505092915050565b61153c816114c8565b82525050565b600081519050919050565b600082825260208201905092915050565b60005b8381101561157c578082015181840152602081019050611561565b60008484015250505050565b6000601f19601f8301169050919050565b60006115a482611542565b6115ae818561154d565b93506115be81856020860161155e565b6115c781611588565b840191505092915050565b60008115159050919050565b6115e7816115d2565b82525050565b600060c0830160008301516116056000860182611533565b506020830151848203602086015261161d8282611599565b915050604083015184820360408601526116378282611599565b915050606083015184820360608601526116518282611599565b915050608083015161166660808601826115de565b5060a083015161167960a08601826115de565b508091505092915050565b6000602082019050818103600083015261169e81846115ed565b905092915050565b6000819050919050565b6116b9816116a6565b81146116c457600080fd5b50565b6000813590506116d6816116b0565b92915050565b6000602082840312156116f2576116f161149e565b5b6000611700848285016116c7565b91505092915050565b611712816114c8565b82525050565b600060208201905061172d6000830184611709565b92915050565b600080fd5b600080fd5b7f4e487b7100000000000000000000000000000000000000000000000000000000600052604160045260246000fd5b61177582611588565b810181811067ffffffffffffffff821117156117945761179361173d565b5b80604052505050565b60006117a7611494565b90506117b3828261176c565b919050565b600067ffffffffffffffff8211156117d3576117d261173d565b5b6117dc82611588565b9050602081019050919050565b82818337600083830152505050565b600061180b611806846117b8565b61179d565b90508281526020810184848401111561182757611826611738565b5b6118328482856117e9565b509392505050565b600082601f83011261184f5761184e611733565b5b813561185f8482602086016117f8565b91505092915050565b600080600080608085870312156118825761188161149e565b5b6000611890878288016114f1565b945050602085013567ffffffffffffffff8111156118b1576118b06114a3565b5b6118bd8782880161183a565b935050604085013567ffffffffffffffff8111156118de576118dd6114a3565b5b6118ea8782880161183a565b925050606085013567ffffffffffffffff81111561190b5761190a6114a3565b5b6119178782880161183a565b91505092959194509250565b600081519050919050565b600082825260208201905092915050565b6000819050602082019050919050565b600061195b8383611533565b60208301905092915050565b6000602082019050919050565b600061197f82611923565b611989818561192e565b93506119948361193f565b8060005b838110156119c55781516119ac888261194f565b97506119b783611967565b925050600181019050611998565b5085935050505092915050565b600060208201905081810360008301526119ec8184611974565b905092915050565b60008060408385031215611a0b57611a0a61149e565b5b6000611a19858286016114f1565b925050602083013567ffffffffffffffff811115611a3a57611a396114a3565b5b611a468582860161183a565b9150509250929050565b600082825260208201905092915050565b6000611a6c82611542565b611a768185611a50565b9350611a8681856020860161155e565b611a8f81611588565b840191505092915050565b6000606082019050611aaf6000830186611709565b8181036020830152611ac18185611a61565b90508181036040830152611ad58184611a61565b9050949350505050565b611ae8816115d2565b82525050565b600060c082019050611b036000830189611709565b8181036020830152611b158188611a61565b90508181036040830152611b298187611a61565b90508181036060830152611b3d8186611a61565b9050611b4c6080830185611adf565b611b5960a0830184611adf565b979650505050505050565b60008060408385031215611b7b57611b7a61149e565b5b600083013567ffffffffffffffff811115611b9957611b986114a3565b5b611ba58582860161183a565b925050602083013567ffffffffffffffff811115611bc657611bc56114a3565b5b611bd28582860161183a565b9150509250929050565b7f4e487b7100000000000000000000000000000000000000000000000000000000600052602260045260246000fd5b60006002820490506001821680611c2357607f821691505b602082108103611c3657611c35611bdc565b5b50919050565b7f5265737472696374656420746f2073797374656d206f776e6572206f6e6c7900600082015250565b6000611c72601f83611a50565b9150611c7d82611c3c565b602082019050919050565b60006020820190508181036000830152611ca181611c65565b9050919050565b7f5265656e7472616e742063616c6c2e0000000000000000000000000000000000600082015250565b6000611cde600f83611a50565b9150611ce982611ca8565b602082019050919050565b60006020820190508181036000830152611d0d81611cd1565b9050919050565b7f4d65646963616c2063656e74657220697320616c72656164792072656769737460008201527f6572656400000000000000000000000000000000000000000000000000000000602082015250565b6000611d70602483611a50565b9150611d7b82611d14565b604082019050919050565b60006020820190508181036000830152611d9f81611d63565b9050919050565b60008190508160005260206000209050919050565b60006020601f8301049050919050565b600082821b905092915050565b600060088302611e087fffffffffffffffffffffffffffffffffffffffffffffffffffffffffffffffff82611dcb565b611e128683611dcb565b95508019841693508086168417925050509392505050565b6000819050919050565b6000611e4f611e4a611e45846116a6565b611e2a565b6116a6565b9050919050565b6000819050919050565b611e6983611e34565b611e7d611e7582611e56565b848454611dd8565b825550505050565b600090565b611e92611e85565b611e9d818484611e60565b505050565b5b81811015611ec157611eb6600082611e8a565b600181019050611ea3565b5050565b601f821115611f0657611ed781611da6565b611ee084611dbb565b81016020851015611eef578190505b611f03611efb85611dbb565b830182611ea2565b50505b505050565b600082821c905092915050565b6000611f2960001984600802611f0b565b1980831691505092915050565b6000611f428383611f18565b9150826002028217905092915050565b611f5b82611542565b67ffffffffffffffff811115611f7457611f7361173d565b5b611f7e8254611c0b565b611f89828285611ec5565b600060209050601f831160018114611fbc5760008415611faa578287015190505b611fb48582611f36565b86555061201c565b601f198416611fca86611da6565b60005b82811015611ff257848901518255600182019150602085019450602081019050611fcd565b8683101561200f578489015161200b601f891682611f18565b8355505b6001600288020188555050505b505050505050565b7f596f75277265206e6f74206c6f6767656420696e000000000000000000000000600082015250565b600061205a601483611a50565b915061206582612024565b602082019050919050565b600060208201905081810360008301526120898161204d565b9050919050565b7f596f7572206e6f74207265676973746572656420796574210000000000000000600082015250565b60006120c6601883611a50565b91506120d182612090565b602082019050919050565b600060208201905081810360008301526120f5816120b9565b9050919050565b7f496e76616c69642061646472657373206f722070617373776f72640000000000600082015250565b6000612132601b83611a50565b915061213d826120fc565b602082019050919050565b6000602082019050818103600083015261216181612125565b9050919050565b7f4e6f74206c6f6767656420696e00000000000000000000000000000000000000600082015250565b600061219e600d83611a50565b91506121a982612168565b602082019050919050565b600060208201905081810360008301526121cd81612191565b9050919050565b7f496e76616c6964206f6c642070617373776f7264000000000000000000000000600082015250565b600061220a601483611a50565b9150612215826121d4565b602082019050919050565b60006020820190508181036000830152612239816121fd565b9050919050565b6000602082019050818103600083015261225a8184611a61565b905092915050565b7f50617373776f72642073686f756c64206e6f7420626520656d70747900000000600082015250565b6000612298601c83611a50565b91506122a382612262565b602082019050919050565b600060208201905081810360008301526122c78161228b565b9050919050565b7f496e76616c6964206e65772070617373776f7264000000000000000000000000600082015250565b6000612304601483611a50565b915061230f826122ce565b602082019050919050565b60006020820190508181036000830152612333816122f7565b9050919050565b600081905092915050565b600061235082611542565b61235a818561233a565b935061236a81856020860161155e565b80840191505092915050565b60006123828284612345565b91508190509291505056fea2646970667358221220208f98873ddb5ebcf1fe740a990cb218d9eea322045af16cf848c3ebd511f7de64736f6c63430008130033",
  "immutableReferences": {
    "3": [
      {
        "length": 32,
        "start": 1225
      }
    ]
  },
  "source": "// SPDX-License-Identifier: MIT\npragma solidity ^0.8.19;\nimport \"./AccessControl.sol\";\n\ncontract MedicalCenters is AccessControl {\n\n    struct MedicalCenter {\n        address MCPublicAddress;\n        string name;\n        string phoneNumber;\n        string password;\n        bool isRegistered;\n        bool isLogin;\n    }\n\n    mapping(address => MedicalCenter) public medicalsCenters;\n\n    address[] public medicaCenterAddressArr;\n\n    function readMedicalCenter(address _medicalCenterAddress) public view returns(MedicalCenter memory){\n        return medicalsCenters[_medicalCenterAddress];\n    }\n\n    function addMedicalCenter(\n        address _MCPublicAddress,\n        string memory _name,\n        string memory _contactNumber,\n        string memory _password\n    ) public onlyOwner noReentrancy {\n        require(\n            medicalsCenters[_MCPublicAddress].isRegistered == false,\n            \"Medical center is already registered\"\n        );\n        medicalsCenters[_MCPublicAddress] = MedicalCenter({\n            MCPublicAddress: _MCPublicAddress,\n            name: _name,\n            phoneNumber: _contactNumber,\n            password: _password,\n            isRegistered: true,\n            isLogin: false\n        });\n        medicaCenterAddressArr.push(_MCPublicAddress);\n        \n    }\n\n    function medicalCenterChangePassword(string memory _oldPassword, string memory _newPassword) external {\n        require(medicalsCenters[msg.sender].isLogin == true, \"Not logged in\");\n        require(compareString(medicalsCenters[msg.sender].password, _oldPassword), \"Invalid old password\");\n        require(keccak256(abi.encode(_newPassword)).length > 0, \"Password should not be empty\");\n        require(compareString(medicalsCenters[msg.sender].password, _newPassword), \"Invalid new password\");\n\n        medicalsCenters[msg.sender].password = _newPassword;\n    }\n\n    function  medicalCenterLogin(address _MCPublicAddress, string memory _password) public {\n        require(medicalsCenters[_MCPublicAddress].isRegistered == true, \"Your not registered yet!\");\n        // require(medicalsCenters[_MCPublicAddress].isLogin == false, \"Your Already login\");\n        require(compareString(medicalsCenters[_MCPublicAddress].password, _password), \"Invalid address or password\");\n\n        // MedicalCenter memory medicalCenter = medicalsCenters[_MCPublicAddress];\n        // medicalCenter.isLogin = true;\n        medicalsCenters[_MCPublicAddress].isLogin = true;\n    }\n\n    function medicalCenterLogout(address _MCPublicAddress) public {\n        require(medicalsCenters[_MCPublicAddress].isLogin, \"You're not logged in\");\n\n        medicalsCenters[_MCPublicAddress].isLogin = false;\n    }\n\n    function getMedicalCentersArr() public view returns (address[] memory) {\n        return medicaCenterAddressArr;\n    }\n\n    function getMedicalCenter(\n        address _medicalStaffPublicAddress\n    )\n        public\n        view\n        returns (\n            address MCPublicAddress,\n            string memory name,\n            string memory phoneNumber\n        )\n    {\n        MedicalCenter memory medicalCenter = medicalsCenters[_medicalStaffPublicAddress];\n        MCPublicAddress = medicalCenter.MCPublicAddress;\n        name = medicalCenter.name;\n        phoneNumber = medicalCenter.phoneNumber;\n    }\n\n}\n",
  "sourcePath": "/home/temba/Desktop/blood-donation-blockchain-system/client-side/contracts/MedicalCenters.sol",
  "compiler": {
    "name": "solc",
    "version": "0.8.19+commit.7dd6d404.Emscripten.clang"
  },
  "schemaVersion": "3.4.16",
  "updatedAt": "2024-03-19T11:23:38.572Z",
  "networkType": "ethereum",
  "devdoc": {
    "kind": "dev",
    "methods": {},
    "version": 1
  },
  "userdoc": {
    "kind": "user",
    "methods": {},
    "version": 1
  }
}