{
  "contractName": "MedicalCenters",
  "abi": [
    {
      "inputs": [
        {
          "internalType": "uint256",
          "name": "",
          "type": "uint256"
        }
      ],
      "name": "medicaCenterAddressArr",
      "outputs": [
        {
          "internalType": "address",
          "name": "",
          "type": "address"
        }
      ],
      "stateMutability": "view",
      "type": "function",
      "constant": true
    },
    {
      "inputs": [
        {
          "internalType": "address",
          "name": "",
          "type": "address"
        }
      ],
      "name": "medicalsCenters",
      "outputs": [
        {
          "internalType": "address",
          "name": "MCPublicAddress",
          "type": "address"
        },
        {
          "internalType": "string",
          "name": "name",
          "type": "string"
        },
        {
          "internalType": "string",
          "name": "phoneNumber",
          "type": "string"
        },
        {
          "internalType": "string",
          "name": "password",
          "type": "string"
        },
        {
          "internalType": "bool",
          "name": "isRegistered",
          "type": "bool"
        },
        {
          "internalType": "bool",
          "name": "isLogin",
          "type": "bool"
        }
      ],
      "stateMutability": "view",
      "type": "function",
      "constant": true
    },
    {
      "inputs": [
        {
          "internalType": "address",
          "name": "_medicalCenterAddress",
          "type": "address"
        }
      ],
      "name": "readMedicalCenter",
      "outputs": [
        {
          "components": [
            {
              "internalType": "address",
              "name": "MCPublicAddress",
              "type": "address"
            },
            {
              "internalType": "string",
              "name": "name",
              "type": "string"
            },
            {
              "internalType": "string",
              "name": "phoneNumber",
              "type": "string"
            },
            {
              "internalType": "string",
              "name": "password",
              "type": "string"
            },
            {
              "internalType": "bool",
              "name": "isRegistered",
              "type": "bool"
            },
            {
              "internalType": "bool",
              "name": "isLogin",
              "type": "bool"
            }
          ],
          "internalType": "struct MedicalCenters.MedicalCenter",
          "name": "",
          "type": "tuple"
        }
      ],
      "stateMutability": "view",
      "type": "function",
      "constant": true
    },
    {
      "inputs": [
        {
          "internalType": "address",
          "name": "_MCPublicAddress",
          "type": "address"
        },
        {
          "internalType": "string",
          "name": "_name",
          "type": "string"
        },
        {
          "internalType": "string",
          "name": "_contactNumber",
          "type": "string"
        },
        {
          "internalType": "string",
          "name": "_password",
          "type": "string"
        }
      ],
      "name": "addMedicalCenter",
      "outputs": [],
      "stateMutability": "nonpayable",
      "type": "function"
    },
    {
      "inputs": [
        {
          "internalType": "string",
          "name": "_oldPassword",
          "type": "string"
        },
        {
          "internalType": "string",
          "name": "_newPassword",
          "type": "string"
        }
      ],
      "name": "medicalCenterChangePassword",
      "outputs": [],
      "stateMutability": "nonpayable",
      "type": "function"
    },
    {
      "inputs": [
        {
          "internalType": "address",
          "name": "_MCPublicAddress",
          "type": "address"
        },
        {
          "internalType": "string",
          "name": "_password",
          "type": "string"
        }
      ],
      "name": "medicalCenterLogin",
      "outputs": [],
      "stateMutability": "nonpayable",
      "type": "function"
    },
    {
      "inputs": [
        {
          "internalType": "address",
          "name": "_MCPublicAddress",
          "type": "address"
        }
      ],
      "name": "medicalCenterLogout",
      "outputs": [],
      "stateMutability": "nonpayable",
      "type": "function"
    },
    {
      "inputs": [],
      "name": "getMedicalCentersArr",
      "outputs": [
        {
          "internalType": "address[]",
          "name": "",
          "type": "address[]"
        }
      ],
      "stateMutability": "view",
      "type": "function",
      "constant": true
    },
    {
      "inputs": [
        {
          "internalType": "address",
          "name": "_medicalStaffPublicAddress",
          "type": "address"
        }
      ],
      "name": "getMedicalCenter",
      "outputs": [
        {
          "internalType": "address",
          "name": "MCPublicAddress",
          "type": "address"
        },
        {
          "internalType": "string",
          "name": "name",
          "type": "string"
        },
        {
          "internalType": "string",
          "name": "phoneNumber",
          "type": "string"
        }
      ],
      "stateMutability": "view",
      "type": "function",
      "constant": true
    }
  ],
  "bytecode": "0x60a060405234801561001057600080fd5b503373ffffffffffffffffffffffffffffffffffffffff1660808173ffffffffffffffffffffffffffffffffffffffff16815250506080516122c961006060003960006104c801526122c96000f3fe608060405234801561001057600080fd5b50600436106100935760003560e01c80637b4843de116100665780637b4843de14610130578063ae2a7ad51461014e578063b98049351461016a578063d313e8a11461019c578063de453749146101d157610093565b8063244723b1146100985780632cfb9c11146100c85780637325da9e146100f857806376948dbd14610114575b600080fd5b6100b260048036038101906100ad9190611478565b6101ed565b6040516100bf91906115f6565b60405180910390f35b6100e260048036038101906100dd919061164e565b610487565b6040516100ef919061168a565b60405180910390f35b610112600480360381019061010d91906117da565b6104c6565b005b61012e60048036038101906101299190611478565b6107a5565b005b610138610890565b6040516101459190611944565b60405180910390f35b61016860048036038101906101639190611966565b61091e565b005b610184600480360381019061017f9190611478565b610b23565b60405161019393929190611a0c565b60405180910390f35b6101b660048036038101906101b19190611478565b610dd4565b6040516101c896959493929190611a60565b60405180910390f35b6101eb60048036038101906101e69190611ad6565b610fe2565b005b6101f56113b6565b6000808373ffffffffffffffffffffffffffffffffffffffff1673ffffffffffffffffffffffffffffffffffffffff1681526020019081526020016000206040518060c00160405290816000820160009054906101000a900473ffffffffffffffffffffffffffffffffffffffff1673ffffffffffffffffffffffffffffffffffffffff1673ffffffffffffffffffffffffffffffffffffffff1681526020016001820180546102a490611b7d565b80601f01602080910402602001604051908101604052809291908181526020018280546102d090611b7d565b801561031d5780601f106102f25761010080835404028352916020019161031d565b820191906000526020600020905b81548152906001019060200180831161030057829003601f168201915b5050505050815260200160028201805461033690611b7d565b80601f016020809104026020016040519081016040528092919081815260200182805461036290611b7d565b80156103af5780601f10610384576101008083540402835291602001916103af565b820191906000526020600020905b81548152906001019060200180831161039257829003601f168201915b505050505081526020016003820180546103c890611b7d565b80601f01602080910402602001604051908101604052809291908181526020018280546103f490611b7d565b80156104415780601f1061041657610100808354040283529160200191610441565b820191906000526020600020905b81548152906001019060200180831161042457829003601f168201915b505050505081526020016004820160009054906101000a900460ff161515151581526020016004820160019054906101000a900460ff1615151515815250509050919050565b6001818154811061049757600080fd5b906000526020600020016000915054906101000a900473ffffffffffffffffffffffffffffffffffffffff1681565b7f000000000000000000000000000000000000000000000000000000000000000073ffffffffffffffffffffffffffffffffffffffff163373ffffffffffffffffffffffffffffffffffffffff1614610554576040517f08c379a000000000000000000000000000000000000000000000000000000000815260040161054b90611bfa565b60405180910390fd5b600015156000808673ffffffffffffffffffffffffffffffffffffffff1673ffffffffffffffffffffffffffffffffffffffff16815260200190815260200160002060040160009054906101000a900460ff161515146105e9576040517f08c379a00000000000000000000000000000000000000000000000000000000081526004016105e090611c8c565b60405180910390fd5b6040518060c001604052808573ffffffffffffffffffffffffffffffffffffffff168152602001848152602001838152602001828152602001600115158152602001600015158152506000808673ffffffffffffffffffffffffffffffffffffffff1673ffffffffffffffffffffffffffffffffffffffff16815260200190815260200160002060008201518160000160006101000a81548173ffffffffffffffffffffffffffffffffffffffff021916908373ffffffffffffffffffffffffffffffffffffffff16021790555060208201518160010190816106cc9190611e58565b5060408201518160020190816106e29190611e58565b5060608201518160030190816106f89190611e58565b5060808201518160040160006101000a81548160ff02191690831515021790555060a08201518160040160016101000a81548160ff0219169083151502179055509050506001849080600181540180825580915050600190039060005260206000200160009091909190916101000a81548173ffffffffffffffffffffffffffffffffffffffff021916908373ffffffffffffffffffffffffffffffffffffffff16021790555050505050565b6000808273ffffffffffffffffffffffffffffffffffffffff1673ffffffffffffffffffffffffffffffffffffffff16815260200190815260200160002060040160019054906101000a900460ff16610833576040517f08c379a000000000000000000000000000000000000000000000000000000000815260040161082a90611f76565b60405180910390fd5b60008060008373ffffffffffffffffffffffffffffffffffffffff1673ffffffffffffffffffffffffffffffffffffffff16815260200190815260200160002060040160016101000a81548160ff02191690831515021790555050565b6060600180548060200260200160405190810160405280929190818152602001828054801561091457602002820191906000526020600020905b8160009054906101000a900473ffffffffffffffffffffffffffffffffffffffff1673ffffffffffffffffffffffffffffffffffffffff16815260200190600101908083116108ca575b5050505050905090565b600115156000808473ffffffffffffffffffffffffffffffffffffffff1673ffffffffffffffffffffffffffffffffffffffff16815260200190815260200160002060040160009054906101000a900460ff161515146109b3576040517f08c379a00000000000000000000000000000000000000000000000000000000081526004016109aa90611fe2565b60405180910390fd5b610a866000808473ffffffffffffffffffffffffffffffffffffffff1673ffffffffffffffffffffffffffffffffffffffff1681526020019081526020016000206003018054610a0290611b7d565b80601f0160208091040260200160405190810160405280929190818152602001828054610a2e90611b7d565b8015610a7b5780601f10610a5057610100808354040283529160200191610a7b565b820191906000526020600020905b815481529060010190602001808311610a5e57829003601f168201915b50505050508261135d565b610ac5576040517f08c379a0000000000000000000000000000000000000000000000000000000008152600401610abc9061204e565b60405180910390fd5b60016000808473ffffffffffffffffffffffffffffffffffffffff1673ffffffffffffffffffffffffffffffffffffffff16815260200190815260200160002060040160016101000a81548160ff0219169083151502179055505050565b600060608060008060008673ffffffffffffffffffffffffffffffffffffffff1673ffffffffffffffffffffffffffffffffffffffff1681526020019081526020016000206040518060c00160405290816000820160009054906101000a900473ffffffffffffffffffffffffffffffffffffffff1673ffffffffffffffffffffffffffffffffffffffff1673ffffffffffffffffffffffffffffffffffffffff168152602001600182018054610bd990611b7d565b80601f0160208091040260200160405190810160405280929190818152602001828054610c0590611b7d565b8015610c525780601f10610c2757610100808354040283529160200191610c52565b820191906000526020600020905b815481529060010190602001808311610c3557829003601f168201915b50505050508152602001600282018054610c6b90611b7d565b80601f0160208091040260200160405190810160405280929190818152602001828054610c9790611b7d565b8015610ce45780601f10610cb957610100808354040283529160200191610ce4565b820191906000526020600020905b815481529060010190602001808311610cc757829003601f168201915b50505050508152602001600382018054610cfd90611b7d565b80601f0160208091040260200160405190810160405280929190818152602001828054610d2990611b7d565b8015610d765780601f10610d4b57610100808354040283529160200191610d76565b820191906000526020600020905b815481529060010190602001808311610d5957829003601f168201915b505050505081526020016004820160009054906101000a900460ff161515151581526020016004820160019054906101000a900460ff1615151515815250509050806000015193508060200151925080604001519150509193909250565b60006020528060005260406000206000915090508060000160009054906101000a900473ffffffffffffffffffffffffffffffffffffffff1690806001018054610e1d90611b7d565b80601f0160208091040260200160405190810160405280929190818152602001828054610e4990611b7d565b8015610e965780601f10610e6b57610100808354040283529160200191610e96565b820191906000526020600020905b815481529060010190602001808311610e7957829003601f168201915b505050505090806002018054610eab90611b7d565b80601f0160208091040260200160405190810160405280929190818152602001828054610ed790611b7d565b8015610f245780601f10610ef957610100808354040283529160200191610f24565b820191906000526020600020905b815481529060010190602001808311610f0757829003601f168201915b505050505090806003018054610f3990611b7d565b80601f0160208091040260200160405190810160405280929190818152602001828054610f6590611b7d565b8015610fb25780601f10610f8757610100808354040283529160200191610fb2565b820191906000526020600020905b815481529060010190602001808311610f9557829003601f168201915b5050505050908060040160009054906101000a900460ff16908060040160019054906101000a900460ff16905086565b600115156000803373ffffffffffffffffffffffffffffffffffffffff1673ffffffffffffffffffffffffffffffffffffffff16815260200190815260200160002060040160019054906101000a900460ff16151514611077576040517f08c379a000000000000000000000000000000000000000000000000000000000815260040161106e906120ba565b60405180910390fd5b61114a6000803373ffffffffffffffffffffffffffffffffffffffff1673ffffffffffffffffffffffffffffffffffffffff16815260200190815260200160002060030180546110c690611b7d565b80601f01602080910402602001604051908101604052809291908181526020018280546110f290611b7d565b801561113f5780601f106111145761010080835404028352916020019161113f565b820191906000526020600020905b81548152906001019060200180831161112257829003601f168201915b50505050508361135d565b611189576040517f08c379a000000000000000000000000000000000000000000000000000000000815260040161118090612126565b60405180910390fd5b60008160405160200161119c9190612146565b6040516020818303038152906040528051906020012050602060ff16116111f8576040517f08c379a00000000000000000000000000000000000000000000000000000000081526004016111ef906121b4565b60405180910390fd5b6112cb6000803373ffffffffffffffffffffffffffffffffffffffff1673ffffffffffffffffffffffffffffffffffffffff168152602001908152602001600020600301805461124790611b7d565b80601f016020809104026020016040519081016040528092919081815260200182805461127390611b7d565b80156112c05780601f10611295576101008083540402835291602001916112c0565b820191906000526020600020905b8154815290600101906020018083116112a357829003601f168201915b50505050508261135d565b61130a576040517f08c379a000000000000000000000000000000000000000000000000000000000815260040161130190612220565b60405180910390fd5b806000803373ffffffffffffffffffffffffffffffffffffffff1673ffffffffffffffffffffffffffffffffffffffff16815260200190815260200160002060030190816113589190611e58565b505050565b600081604051602001611370919061227c565b6040516020818303038152906040528051906020012083604051602001611397919061227c565b6040516020818303038152906040528051906020012014905092915050565b6040518060c00160405280600073ffffffffffffffffffffffffffffffffffffffff1681526020016060815260200160608152602001606081526020016000151581526020016000151581525090565b6000604051905090565b600080fd5b600080fd5b600073ffffffffffffffffffffffffffffffffffffffff82169050919050565b60006114458261141a565b9050919050565b6114558161143a565b811461146057600080fd5b50565b6000813590506114728161144c565b92915050565b60006020828403121561148e5761148d611410565b5b600061149c84828501611463565b91505092915050565b6114ae8161143a565b82525050565b600081519050919050565b600082825260208201905092915050565b60005b838110156114ee5780820151818401526020810190506114d3565b60008484015250505050565b6000601f19601f8301169050919050565b6000611516826114b4565b61152081856114bf565b93506115308185602086016114d0565b611539816114fa565b840191505092915050565b60008115159050919050565b61155981611544565b82525050565b600060c08301600083015161157760008601826114a5565b506020830151848203602086015261158f828261150b565b915050604083015184820360408601526115a9828261150b565b915050606083015184820360608601526115c3828261150b565b91505060808301516115d86080860182611550565b5060a08301516115eb60a0860182611550565b508091505092915050565b60006020820190508181036000830152611610818461155f565b905092915050565b6000819050919050565b61162b81611618565b811461163657600080fd5b50565b60008135905061164881611622565b92915050565b60006020828403121561166457611663611410565b5b600061167284828501611639565b91505092915050565b6116848161143a565b82525050565b600060208201905061169f600083018461167b565b92915050565b600080fd5b600080fd5b7f4e487b7100000000000000000000000000000000000000000000000000000000600052604160045260246000fd5b6116e7826114fa565b810181811067ffffffffffffffff82111715611706576117056116af565b5b80604052505050565b6000611719611406565b905061172582826116de565b919050565b600067ffffffffffffffff821115611745576117446116af565b5b61174e826114fa565b9050602081019050919050565b82818337600083830152505050565b600061177d6117788461172a565b61170f565b905082815260208101848484011115611799576117986116aa565b5b6117a484828561175b565b509392505050565b600082601f8301126117c1576117c06116a5565b5b81356117d184826020860161176a565b91505092915050565b600080600080608085870312156117f4576117f3611410565b5b600061180287828801611463565b945050602085013567ffffffffffffffff81111561182357611822611415565b5b61182f878288016117ac565b935050604085013567ffffffffffffffff8111156118505761184f611415565b5b61185c878288016117ac565b925050606085013567ffffffffffffffff81111561187d5761187c611415565b5b611889878288016117ac565b91505092959194509250565b600081519050919050565b600082825260208201905092915050565b6000819050602082019050919050565b60006118cd83836114a5565b60208301905092915050565b6000602082019050919050565b60006118f182611895565b6118fb81856118a0565b9350611906836118b1565b8060005b8381101561193757815161191e88826118c1565b9750611929836118d9565b92505060018101905061190a565b5085935050505092915050565b6000602082019050818103600083015261195e81846118e6565b905092915050565b6000806040838503121561197d5761197c611410565b5b600061198b85828601611463565b925050602083013567ffffffffffffffff8111156119ac576119ab611415565b5b6119b8858286016117ac565b9150509250929050565b600082825260208201905092915050565b60006119de826114b4565b6119e881856119c2565b93506119f88185602086016114d0565b611a01816114fa565b840191505092915050565b6000606082019050611a21600083018661167b565b8181036020830152611a3381856119d3565b90508181036040830152611a4781846119d3565b9050949350505050565b611a5a81611544565b82525050565b600060c082019050611a75600083018961167b565b8181036020830152611a8781886119d3565b90508181036040830152611a9b81876119d3565b90508181036060830152611aaf81866119d3565b9050611abe6080830185611a51565b611acb60a0830184611a51565b979650505050505050565b60008060408385031215611aed57611aec611410565b5b600083013567ffffffffffffffff811115611b0b57611b0a611415565b5b611b17858286016117ac565b925050602083013567ffffffffffffffff811115611b3857611b37611415565b5b611b44858286016117ac565b9150509250929050565b7f4e487b7100000000000000000000000000000000000000000000000000000000600052602260045260246000fd5b60006002820490506001821680611b9557607f821691505b602082108103611ba857611ba7611b4e565b5b50919050565b7f5265737472696374656420746f2073797374656d206f776e6572206f6e6c7900600082015250565b6000611be4601f836119c2565b9150611bef82611bae565b602082019050919050565b60006020820190508181036000830152611c1381611bd7565b9050919050565b7f4d65646963616c2063656e74657220697320616c72656164792072656769737460008201527f6572656400000000000000000000000000000000000000000000000000000000602082015250565b6000611c766024836119c2565b9150611c8182611c1a565b604082019050919050565b60006020820190508181036000830152611ca581611c69565b9050919050565b60008190508160005260206000209050919050565b60006020601f8301049050919050565b600082821b905092915050565b600060088302611d0e7fffffffffffffffffffffffffffffffffffffffffffffffffffffffffffffffff82611cd1565b611d188683611cd1565b95508019841693508086168417925050509392505050565b6000819050919050565b6000611d55611d50611d4b84611618565b611d30565b611618565b9050919050565b6000819050919050565b611d6f83611d3a565b611d83611d7b82611d5c565b848454611cde565b825550505050565b600090565b611d98611d8b565b611da3818484611d66565b505050565b5b81811015611dc757611dbc600082611d90565b600181019050611da9565b5050565b601f821115611e0c57611ddd81611cac565b611de684611cc1565b81016020851015611df5578190505b611e09611e0185611cc1565b830182611da8565b50505b505050565b600082821c905092915050565b6000611e2f60001984600802611e11565b1980831691505092915050565b6000611e488383611e1e565b9150826002028217905092915050565b611e61826114b4565b67ffffffffffffffff811115611e7a57611e796116af565b5b611e848254611b7d565b611e8f828285611dcb565b600060209050601f831160018114611ec25760008415611eb0578287015190505b611eba8582611e3c565b865550611f22565b601f198416611ed086611cac565b60005b82811015611ef857848901518255600182019150602085019450602081019050611ed3565b86831015611f155784890151611f11601f891682611e1e565b8355505b6001600288020188555050505b505050505050565b7f596f75277265206e6f74206c6f6767656420696e000000000000000000000000600082015250565b6000611f606014836119c2565b9150611f6b82611f2a565b602082019050919050565b60006020820190508181036000830152611f8f81611f53565b9050919050565b7f596f7572206e6f74207265676973746572656420796574210000000000000000600082015250565b6000611fcc6018836119c2565b9150611fd782611f96565b602082019050919050565b60006020820190508181036000830152611ffb81611fbf565b9050919050565b7f496e76616c69642061646472657373206f722070617373776f72640000000000600082015250565b6000612038601b836119c2565b915061204382612002565b602082019050919050565b600060208201905081810360008301526120678161202b565b9050919050565b7f4e6f74206c6f6767656420696e00000000000000000000000000000000000000600082015250565b60006120a4600d836119c2565b91506120af8261206e565b602082019050919050565b600060208201905081810360008301526120d381612097565b9050919050565b7f496e76616c6964206f6c642070617373776f7264000000000000000000000000600082015250565b60006121106014836119c2565b915061211b826120da565b602082019050919050565b6000602082019050818103600083015261213f81612103565b9050919050565b6000602082019050818103600083015261216081846119d3565b905092915050565b7f50617373776f72642073686f756c64206e6f7420626520656d70747900000000600082015250565b600061219e601c836119c2565b91506121a982612168565b602082019050919050565b600060208201905081810360008301526121cd81612191565b9050919050565b7f496e76616c6964206e65772070617373776f7264000000000000000000000000600082015250565b600061220a6014836119c2565b9150612215826121d4565b602082019050919050565b60006020820190508181036000830152612239816121fd565b9050919050565b600081905092915050565b6000612256826114b4565b6122608185612240565b93506122708185602086016114d0565b80840191505092915050565b6000612288828461224b565b91508190509291505056fea2646970667358221220ad675ac3b4792305d484e7074380ebda33500b53c8587f9d090176436d6c360964736f6c63430008130033",
  "immutableReferences": {
    "3": [
      {
        "length": 32,
        "start": 1224
      }
    ]
  },
  "source": "// SPDX-License-Identifier: MIT\npragma solidity ^0.8.19;\nimport \"./AccessControl.sol\";\n\ncontract MedicalCenters is AccessControl {\n\n    struct MedicalCenter {\n        address MCPublicAddress;\n        string name;\n        string phoneNumber;\n        string password;\n        bool isRegistered;\n        bool isLogin;\n    }\n\n    mapping(address => MedicalCenter) public medicalsCenters;\n\n    address[] public medicaCenterAddressArr;\n\n    function readMedicalCenter(address _medicalCenterAddress) public view returns(MedicalCenter memory){\n        return medicalsCenters[_medicalCenterAddress];\n    }\n\n    function addMedicalCenter(\n        address _MCPublicAddress,\n        string memory _name,\n        string memory _contactNumber,\n        string memory _password\n    ) public onlyOwner {\n        require(\n            medicalsCenters[_MCPublicAddress].isRegistered == false,\n            \"Medical center is already registered\"\n        );\n        medicalsCenters[_MCPublicAddress] = MedicalCenter({\n            MCPublicAddress: _MCPublicAddress,\n            name: _name,\n            phoneNumber: _contactNumber,\n            password: _password,\n            isRegistered: true,\n            isLogin: false\n        });\n        medicaCenterAddressArr.push(_MCPublicAddress);\n        \n    }\n\n    function medicalCenterChangePassword(string memory _oldPassword, string memory _newPassword) external {\n        require(medicalsCenters[msg.sender].isLogin == true, \"Not logged in\");\n        require(compareString(medicalsCenters[msg.sender].password, _oldPassword), \"Invalid old password\");\n        require(keccak256(abi.encode(_newPassword)).length > 0, \"Password should not be empty\");\n        require(compareString(medicalsCenters[msg.sender].password, _newPassword), \"Invalid new password\");\n\n        medicalsCenters[msg.sender].password = _newPassword;\n    }\n\n    function  medicalCenterLogin(address _MCPublicAddress, string memory _password) public {\n        require(medicalsCenters[_MCPublicAddress].isRegistered == true, \"Your not registered yet!\");\n        // require(medicalsCenters[_MCPublicAddress].isLogin == false, \"Your Already login\");\n        require(compareString(medicalsCenters[_MCPublicAddress].password, _password), \"Invalid address or password\");\n\n        // MedicalCenter memory medicalCenter = medicalsCenters[_MCPublicAddress];\n        // medicalCenter.isLogin = true;\n        medicalsCenters[_MCPublicAddress].isLogin = true;\n    }\n\n    function medicalCenterLogout(address _MCPublicAddress) public {\n        require(medicalsCenters[_MCPublicAddress].isLogin, \"You're not logged in\");\n\n        medicalsCenters[_MCPublicAddress].isLogin = false;\n    }\n\n    function getMedicalCentersArr() public view returns (address[] memory) {\n        return medicaCenterAddressArr;\n    }\n\n    function getMedicalCenter(\n        address _medicalStaffPublicAddress\n    )\n        public\n        view\n        returns (\n            address MCPublicAddress,\n            string memory name,\n            string memory phoneNumber\n        )\n    {\n        MedicalCenter memory medicalCenter = medicalsCenters[_medicalStaffPublicAddress];\n        MCPublicAddress = medicalCenter.MCPublicAddress;\n        name = medicalCenter.name;\n        phoneNumber = medicalCenter.phoneNumber;\n    }\n\n}\n",
  "sourcePath": "/home/temba/Desktop/blood-donation-blockchain-system/client-side/contracts/MedicalCenters.sol",
  "compiler": {
    "name": "solc",
    "version": "0.8.19+commit.7dd6d404.Emscripten.clang"
  },
  "schemaVersion": "3.4.16",
  "updatedAt": "2024-03-11T17:43:19.496Z",
  "networkType": "ethereum",
  "devdoc": {
    "kind": "dev",
    "methods": {},
    "version": 1
  },
  "userdoc": {
    "kind": "user",
    "methods": {},
    "version": 1
  }
}