{
  "contractName": "TransportContract",
  "abi": [
    {
      "inputs": [
        {
          "internalType": "uint256",
          "name": "",
          "type": "uint256"
        }
      ],
      "name": "transporterAddressArr",
      "outputs": [
        {
          "internalType": "address",
          "name": "",
          "type": "address"
        }
      ],
      "stateMutability": "view",
      "type": "function",
      "constant": true
    },
    {
      "inputs": [
        {
          "internalType": "address",
          "name": "",
          "type": "address"
        }
      ],
      "name": "transporters",
      "outputs": [
        {
          "internalType": "address",
          "name": "transporterPublicAddress",
          "type": "address"
        },
        {
          "internalType": "string",
          "name": "name",
          "type": "string"
        },
        {
          "internalType": "string",
          "name": "phoneNumber",
          "type": "string"
        },
        {
          "internalType": "string",
          "name": "password",
          "type": "string"
        },
        {
          "internalType": "bool",
          "name": "isRegistered",
          "type": "bool"
        },
        {
          "internalType": "bool",
          "name": "isLogin",
          "type": "bool"
        }
      ],
      "stateMutability": "view",
      "type": "function",
      "constant": true
    },
    {
      "inputs": [
        {
          "internalType": "address",
          "name": "_transporterPublicAddress",
          "type": "address"
        },
        {
          "internalType": "string",
          "name": "_name",
          "type": "string"
        },
        {
          "internalType": "string",
          "name": "_contactNumber",
          "type": "string"
        },
        {
          "internalType": "string",
          "name": "_password",
          "type": "string"
        }
      ],
      "name": "addTransporter",
      "outputs": [],
      "stateMutability": "nonpayable",
      "type": "function"
    },
    {
      "inputs": [
        {
          "internalType": "string",
          "name": "_oldPassword",
          "type": "string"
        },
        {
          "internalType": "string",
          "name": "_newPassword",
          "type": "string"
        }
      ],
      "name": "transporterChangePassword",
      "outputs": [],
      "stateMutability": "nonpayable",
      "type": "function"
    },
    {
      "inputs": [
        {
          "internalType": "address",
          "name": "_transporterPublicAddress",
          "type": "address"
        },
        {
          "internalType": "string",
          "name": "_password",
          "type": "string"
        }
      ],
      "name": "transporterLogin",
      "outputs": [],
      "stateMutability": "nonpayable",
      "type": "function"
    },
    {
      "inputs": [
        {
          "internalType": "address",
          "name": "_transPublicAddress",
          "type": "address"
        }
      ],
      "name": "transporterLogout",
      "outputs": [],
      "stateMutability": "nonpayable",
      "type": "function"
    },
    {
      "inputs": [],
      "name": "getTransportersArr",
      "outputs": [
        {
          "internalType": "address[]",
          "name": "",
          "type": "address[]"
        }
      ],
      "stateMutability": "view",
      "type": "function",
      "constant": true
    },
    {
      "inputs": [
        {
          "internalType": "address",
          "name": "_transporterPublicAddress",
          "type": "address"
        }
      ],
      "name": "getTransporter",
      "outputs": [
        {
          "internalType": "address",
          "name": "transporterPublicAddress",
          "type": "address"
        },
        {
          "internalType": "string",
          "name": "name",
          "type": "string"
        },
        {
          "internalType": "string",
          "name": "phoneNumber",
          "type": "string"
        }
      ],
      "stateMutability": "view",
      "type": "function",
      "constant": true
    }
  ],
  "bytecode": "0x60a060405234801561001057600080fd5b503373ffffffffffffffffffffffffffffffffffffffff1660808173ffffffffffffffffffffffffffffffffffffffff1681525050608051611f6561006060003960006108270152611f656000f3fe608060405234801561001057600080fd5b50600436106100885760003560e01c8063ac6cb2371161005b578063ac6cb23714610115578063bc79c10214610145578063e25bd15814610161578063e3cf3a121461019657610088565b806325aef1701461008d57806352ca81c1146100a95780637f9a4b4e146100c75780638bbcbd1b146100e3575b600080fd5b6100a760048036038101906100a291906111e0565b6101b2565b005b6100b161029f565b6040516100be91906112cb565b60405180910390f35b6100e160048036038101906100dc9190611433565b61032d565b005b6100fd60048036038101906100f891906111e0565b610534565b60405161010c9392919061151d565b60405180910390f35b61012f600480360381019061012a9190611598565b6107e6565b60405161013c91906115c5565b60405180910390f35b61015f600480360381019061015a91906115e0565b610825565b005b61017b600480360381019061017691906111e0565b610b88565b60405161018d969594939291906116b6565b60405180910390f35b6101b060048036038101906101ab919061172c565b610d96565b005b600160008273ffffffffffffffffffffffffffffffffffffffff1673ffffffffffffffffffffffffffffffffffffffff16815260200190815260200160002060040160019054906101000a900460ff16610241576040517f08c379a0000000000000000000000000000000000000000000000000000000008152600401610238906117f0565b60405180910390fd5b6000600160008373ffffffffffffffffffffffffffffffffffffffff1673ffffffffffffffffffffffffffffffffffffffff16815260200190815260200160002060040160016101000a81548160ff02191690831515021790555050565b6060600280548060200260200160405190810160405280929190818152602001828054801561032357602002820191906000526020600020905b8160009054906101000a900473ffffffffffffffffffffffffffffffffffffffff1673ffffffffffffffffffffffffffffffffffffffff16815260200190600101908083116102d9575b5050505050905090565b60011515600160008473ffffffffffffffffffffffffffffffffffffffff1673ffffffffffffffffffffffffffffffffffffffff16815260200190815260200160002060040160009054906101000a900460ff161515146103c3576040517f08c379a00000000000000000000000000000000000000000000000000000000081526004016103ba9061185c565b60405180910390fd5b610497600160008473ffffffffffffffffffffffffffffffffffffffff1673ffffffffffffffffffffffffffffffffffffffff1681526020019081526020016000206003018054610413906118ab565b80601f016020809104026020016040519081016040528092919081815260200182805461043f906118ab565b801561048c5780601f106104615761010080835404028352916020019161048c565b820191906000526020600020905b81548152906001019060200180831161046f57829003601f168201915b505050505082611115565b6104d6576040517f08c379a00000000000000000000000000000000000000000000000000000000081526004016104cd90611928565b60405180910390fd5b60018060008473ffffffffffffffffffffffffffffffffffffffff1673ffffffffffffffffffffffffffffffffffffffff16815260200190815260200160002060040160016101000a81548160ff0219169083151502179055505050565b60006060806000600160008673ffffffffffffffffffffffffffffffffffffffff1673ffffffffffffffffffffffffffffffffffffffff1681526020019081526020016000206040518060c00160405290816000820160009054906101000a900473ffffffffffffffffffffffffffffffffffffffff1673ffffffffffffffffffffffffffffffffffffffff1673ffffffffffffffffffffffffffffffffffffffff1681526020016001820180546105eb906118ab565b80601f0160208091040260200160405190810160405280929190818152602001828054610617906118ab565b80156106645780601f1061063957610100808354040283529160200191610664565b820191906000526020600020905b81548152906001019060200180831161064757829003601f168201915b5050505050815260200160028201805461067d906118ab565b80601f01602080910402602001604051908101604052809291908181526020018280546106a9906118ab565b80156106f65780601f106106cb576101008083540402835291602001916106f6565b820191906000526020600020905b8154815290600101906020018083116106d957829003601f168201915b5050505050815260200160038201805461070f906118ab565b80601f016020809104026020016040519081016040528092919081815260200182805461073b906118ab565b80156107885780601f1061075d57610100808354040283529160200191610788565b820191906000526020600020905b81548152906001019060200180831161076b57829003601f168201915b505050505081526020016004820160009054906101000a900460ff161515151581526020016004820160019054906101000a900460ff1615151515815250509050806000015193508060200151925080604001519150509193909250565b600281815481106107f657600080fd5b906000526020600020016000915054906101000a900473ffffffffffffffffffffffffffffffffffffffff1681565b7f000000000000000000000000000000000000000000000000000000000000000073ffffffffffffffffffffffffffffffffffffffff163373ffffffffffffffffffffffffffffffffffffffff16146108b3576040517f08c379a00000000000000000000000000000000000000000000000000000000081526004016108aa90611994565b60405180910390fd5b60008054906101000a900460ff1615610901576040517f08c379a00000000000000000000000000000000000000000000000000000000081526004016108f890611a00565b60405180910390fd5b60016000806101000a81548160ff02191690831515021790555060001515600160008673ffffffffffffffffffffffffffffffffffffffff1673ffffffffffffffffffffffffffffffffffffffff16815260200190815260200160002060040160009054906101000a900460ff161515146109b1576040517f08c379a00000000000000000000000000000000000000000000000000000000081526004016109a890611a6c565b60405180910390fd5b6040518060c001604052808573ffffffffffffffffffffffffffffffffffffffff16815260200184815260200183815260200182815260200160011515815260200160001515815250600160008673ffffffffffffffffffffffffffffffffffffffff1673ffffffffffffffffffffffffffffffffffffffff16815260200190815260200160002060008201518160000160006101000a81548173ffffffffffffffffffffffffffffffffffffffff021916908373ffffffffffffffffffffffffffffffffffffffff1602179055506020820151816001019081610a959190611c38565b506040820151816002019081610aab9190611c38565b506060820151816003019081610ac19190611c38565b5060808201518160040160006101000a81548160ff02191690831515021790555060a08201518160040160016101000a81548160ff0219169083151502179055509050506002849080600181540180825580915050600190039060005260206000200160009091909190916101000a81548173ffffffffffffffffffffffffffffffffffffffff021916908373ffffffffffffffffffffffffffffffffffffffff16021790555060008060006101000a81548160ff02191690831515021790555050505050565b60016020528060005260406000206000915090508060000160009054906101000a900473ffffffffffffffffffffffffffffffffffffffff1690806001018054610bd1906118ab565b80601f0160208091040260200160405190810160405280929190818152602001828054610bfd906118ab565b8015610c4a5780601f10610c1f57610100808354040283529160200191610c4a565b820191906000526020600020905b815481529060010190602001808311610c2d57829003601f168201915b505050505090806002018054610c5f906118ab565b80601f0160208091040260200160405190810160405280929190818152602001828054610c8b906118ab565b8015610cd85780601f10610cad57610100808354040283529160200191610cd8565b820191906000526020600020905b815481529060010190602001808311610cbb57829003601f168201915b505050505090806003018054610ced906118ab565b80601f0160208091040260200160405190810160405280929190818152602001828054610d19906118ab565b8015610d665780601f10610d3b57610100808354040283529160200191610d66565b820191906000526020600020905b815481529060010190602001808311610d4957829003601f168201915b5050505050908060040160009054906101000a900460ff16908060040160019054906101000a900460ff16905086565b60011515600160003373ffffffffffffffffffffffffffffffffffffffff1673ffffffffffffffffffffffffffffffffffffffff16815260200190815260200160002060040160019054906101000a900460ff16151514610e2c576040517f08c379a0000000000000000000000000000000000000000000000000000000008152600401610e2390611d56565b60405180910390fd5b610f00600160003373ffffffffffffffffffffffffffffffffffffffff1673ffffffffffffffffffffffffffffffffffffffff1681526020019081526020016000206003018054610e7c906118ab565b80601f0160208091040260200160405190810160405280929190818152602001828054610ea8906118ab565b8015610ef55780601f10610eca57610100808354040283529160200191610ef5565b820191906000526020600020905b815481529060010190602001808311610ed857829003601f168201915b505050505083611115565b610f3f576040517f08c379a0000000000000000000000000000000000000000000000000000000008152600401610f3690611dc2565b60405180910390fd5b600081604051602001610f529190611de2565b6040516020818303038152906040528051906020012050602060ff1611610fae576040517f08c379a0000000000000000000000000000000000000000000000000000000008152600401610fa590611e50565b60405180910390fd5b611082600160003373ffffffffffffffffffffffffffffffffffffffff1673ffffffffffffffffffffffffffffffffffffffff1681526020019081526020016000206003018054610ffe906118ab565b80601f016020809104026020016040519081016040528092919081815260200182805461102a906118ab565b80156110775780601f1061104c57610100808354040283529160200191611077565b820191906000526020600020905b81548152906001019060200180831161105a57829003601f168201915b505050505082611115565b6110c1576040517f08c379a00000000000000000000000000000000000000000000000000000000081526004016110b890611ebc565b60405180910390fd5b80600160003373ffffffffffffffffffffffffffffffffffffffff1673ffffffffffffffffffffffffffffffffffffffff16815260200190815260200160002060030190816111109190611c38565b505050565b6000816040516020016111289190611f18565b604051602081830303815290604052805190602001208360405160200161114f9190611f18565b6040516020818303038152906040528051906020012014905092915050565b6000604051905090565b600080fd5b600080fd5b600073ffffffffffffffffffffffffffffffffffffffff82169050919050565b60006111ad82611182565b9050919050565b6111bd816111a2565b81146111c857600080fd5b50565b6000813590506111da816111b4565b92915050565b6000602082840312156111f6576111f5611178565b5b6000611204848285016111cb565b91505092915050565b600081519050919050565b600082825260208201905092915050565b6000819050602082019050919050565b611242816111a2565b82525050565b60006112548383611239565b60208301905092915050565b6000602082019050919050565b60006112788261120d565b6112828185611218565b935061128d83611229565b8060005b838110156112be5781516112a58882611248565b97506112b083611260565b925050600181019050611291565b5085935050505092915050565b600060208201905081810360008301526112e5818461126d565b905092915050565b600080fd5b600080fd5b6000601f19601f8301169050919050565b7f4e487b7100000000000000000000000000000000000000000000000000000000600052604160045260246000fd5b611340826112f7565b810181811067ffffffffffffffff8211171561135f5761135e611308565b5b80604052505050565b600061137261116e565b905061137e8282611337565b919050565b600067ffffffffffffffff82111561139e5761139d611308565b5b6113a7826112f7565b9050602081019050919050565b82818337600083830152505050565b60006113d66113d184611383565b611368565b9050828152602081018484840111156113f2576113f16112f2565b5b6113fd8482856113b4565b509392505050565b600082601f83011261141a576114196112ed565b5b813561142a8482602086016113c3565b91505092915050565b6000806040838503121561144a57611449611178565b5b6000611458858286016111cb565b925050602083013567ffffffffffffffff8111156114795761147861117d565b5b61148585828601611405565b9150509250929050565b611498816111a2565b82525050565b600081519050919050565b600082825260208201905092915050565b60005b838110156114d85780820151818401526020810190506114bd565b60008484015250505050565b60006114ef8261149e565b6114f981856114a9565b93506115098185602086016114ba565b611512816112f7565b840191505092915050565b6000606082019050611532600083018661148f565b818103602083015261154481856114e4565b9050818103604083015261155881846114e4565b9050949350505050565b6000819050919050565b61157581611562565b811461158057600080fd5b50565b6000813590506115928161156c565b92915050565b6000602082840312156115ae576115ad611178565b5b60006115bc84828501611583565b91505092915050565b60006020820190506115da600083018461148f565b92915050565b600080600080608085870312156115fa576115f9611178565b5b6000611608878288016111cb565b945050602085013567ffffffffffffffff8111156116295761162861117d565b5b61163587828801611405565b935050604085013567ffffffffffffffff8111156116565761165561117d565b5b61166287828801611405565b925050606085013567ffffffffffffffff8111156116835761168261117d565b5b61168f87828801611405565b91505092959194509250565b60008115159050919050565b6116b08161169b565b82525050565b600060c0820190506116cb600083018961148f565b81810360208301526116dd81886114e4565b905081810360408301526116f181876114e4565b9050818103606083015261170581866114e4565b905061171460808301856116a7565b61172160a08301846116a7565b979650505050505050565b6000806040838503121561174357611742611178565b5b600083013567ffffffffffffffff8111156117615761176061117d565b5b61176d85828601611405565b925050602083013567ffffffffffffffff81111561178e5761178d61117d565b5b61179a85828601611405565b9150509250929050565b7f596f75277265206e6f74206c6f6767656420696e000000000000000000000000600082015250565b60006117da6014836114a9565b91506117e5826117a4565b602082019050919050565b60006020820190508181036000830152611809816117cd565b9050919050565b7f596f7572206e6f74207265676973746572656420796574210000000000000000600082015250565b60006118466018836114a9565b915061185182611810565b602082019050919050565b6000602082019050818103600083015261187581611839565b9050919050565b7f4e487b7100000000000000000000000000000000000000000000000000000000600052602260045260246000fd5b600060028204905060018216806118c357607f821691505b6020821081036118d6576118d561187c565b5b50919050565b7f496e76616c69642061646472657373206f722070617373776f72640000000000600082015250565b6000611912601b836114a9565b915061191d826118dc565b602082019050919050565b6000602082019050818103600083015261194181611905565b9050919050565b7f5265737472696374656420746f2073797374656d206f776e6572206f6e6c7900600082015250565b600061197e601f836114a9565b915061198982611948565b602082019050919050565b600060208201905081810360008301526119ad81611971565b9050919050565b7f5265656e7472616e742063616c6c2e0000000000000000000000000000000000600082015250565b60006119ea600f836114a9565b91506119f5826119b4565b602082019050919050565b60006020820190508181036000830152611a19816119dd565b9050919050565b7f5472616e73706f7274657220616c726561647920726567697374657265640000600082015250565b6000611a56601e836114a9565b9150611a6182611a20565b602082019050919050565b60006020820190508181036000830152611a8581611a49565b9050919050565b60008190508160005260206000209050919050565b60006020601f8301049050919050565b600082821b905092915050565b600060088302611aee7fffffffffffffffffffffffffffffffffffffffffffffffffffffffffffffffff82611ab1565b611af88683611ab1565b95508019841693508086168417925050509392505050565b6000819050919050565b6000611b35611b30611b2b84611562565b611b10565b611562565b9050919050565b6000819050919050565b611b4f83611b1a565b611b63611b5b82611b3c565b848454611abe565b825550505050565b600090565b611b78611b6b565b611b83818484611b46565b505050565b5b81811015611ba757611b9c600082611b70565b600181019050611b89565b5050565b601f821115611bec57611bbd81611a8c565b611bc684611aa1565b81016020851015611bd5578190505b611be9611be185611aa1565b830182611b88565b50505b505050565b600082821c905092915050565b6000611c0f60001984600802611bf1565b1980831691505092915050565b6000611c288383611bfe565b9150826002028217905092915050565b611c418261149e565b67ffffffffffffffff811115611c5a57611c59611308565b5b611c6482546118ab565b611c6f828285611bab565b600060209050601f831160018114611ca25760008415611c90578287015190505b611c9a8582611c1c565b865550611d02565b601f198416611cb086611a8c565b60005b82811015611cd857848901518255600182019150602085019450602081019050611cb3565b86831015611cf55784890151611cf1601f891682611bfe565b8355505b6001600288020188555050505b505050505050565b7f4e6f74206c6f6767656420696e00000000000000000000000000000000000000600082015250565b6000611d40600d836114a9565b9150611d4b82611d0a565b602082019050919050565b60006020820190508181036000830152611d6f81611d33565b9050919050565b7f496e76616c6964206f6c642070617373776f7264000000000000000000000000600082015250565b6000611dac6014836114a9565b9150611db782611d76565b602082019050919050565b60006020820190508181036000830152611ddb81611d9f565b9050919050565b60006020820190508181036000830152611dfc81846114e4565b905092915050565b7f50617373776f72642073686f756c64206e6f7420626520656d70747900000000600082015250565b6000611e3a601c836114a9565b9150611e4582611e04565b602082019050919050565b60006020820190508181036000830152611e6981611e2d565b9050919050565b7f496e76616c6964206e65772070617373776f7264000000000000000000000000600082015250565b6000611ea66014836114a9565b9150611eb182611e70565b602082019050919050565b60006020820190508181036000830152611ed581611e99565b9050919050565b600081905092915050565b6000611ef28261149e565b611efc8185611edc565b9350611f0c8185602086016114ba565b80840191505092915050565b6000611f248284611ee7565b91508190509291505056fea2646970667358221220e8eea0d1c407f60d44e5966b687445d0ab5c068bfdb9c9d14a17086842081f3964736f6c63430008130033",
  "immutableReferences": {
    "3": [
      {
        "length": 32,
        "start": 2087
      }
    ]
  },
  "source": "// SPDX-License-Identifier: MIT\npragma solidity ^0.8.19;\nimport \"./AccessControl.sol\";\n\ncontract TransportContract is AccessControl {\n\n    struct Transporter {\n        address transporterPublicAddress;\n        string name;\n        string phoneNumber;\n        string password;\n        bool isRegistered;\n        bool isLogin;\n    }\n\n    mapping(address => Transporter) public transporters;\n\n    address[] public transporterAddressArr;\n\n    function addTransporter(\n        address _transporterPublicAddress,\n        string memory _name,\n        string memory _contactNumber,\n        string memory _password\n    ) public onlyOwner noReentrancy {\n        require(\n            transporters[_transporterPublicAddress].isRegistered == false,\n            \"Transporter already registered\"\n        );\n        transporters[_transporterPublicAddress] = Transporter({\n            transporterPublicAddress: _transporterPublicAddress,\n            name: _name,\n            phoneNumber: _contactNumber,\n            password: _password,\n            isRegistered: true,\n            isLogin: false\n        });\n        transporterAddressArr.push(_transporterPublicAddress);\n    }\n\n    function transporterChangePassword(string memory _oldPassword, string memory _newPassword) external {\n        require(transporters[msg.sender].isLogin == true, \"Not logged in\");\n        require(compareString(transporters[msg.sender].password, _oldPassword), \"Invalid old password\");\n        require(keccak256(abi.encode(_newPassword)).length > 0, \"Password should not be empty\");\n        require(compareString(transporters[msg.sender].password, _newPassword), \"Invalid new password\");\n\n        transporters[msg.sender].password = _newPassword;\n    }\n\n    function  transporterLogin(address _transporterPublicAddress, string memory _password) public {\n        require(transporters[_transporterPublicAddress].isRegistered == true, \"Your not registered yet!\");\n        // require(transporters[_transporterPublicAddress].isLogin == false, \"Your Already login\");\n        require(compareString(transporters[_transporterPublicAddress].password, _password), \"Invalid address or password\");\n\n        transporters[_transporterPublicAddress].isLogin = true;\n    }\n\n    function transporterLogout(address _transPublicAddress) public {\n        require(transporters[_transPublicAddress].isLogin, \"You're not logged in\");\n\n        transporters[_transPublicAddress].isLogin = false;\n    }\n\n    function getTransportersArr() public view returns (address[] memory) {\n        return transporterAddressArr;\n    }\n\n    function getTransporter(\n        address _transporterPublicAddress\n    )\n        public\n        view\n        returns (\n            address transporterPublicAddress,\n            string memory name,\n            string memory phoneNumber\n        )\n    {\n        Transporter memory transporter = transporters[_transporterPublicAddress];\n        transporterPublicAddress = transporter.transporterPublicAddress;\n        name = transporter.name;\n        phoneNumber = transporter.phoneNumber;\n    }\n}\n",
  "sourcePath": "/home/temba/Desktop/blood-donation-blockchain-system/client-side/contracts/TransportContract.sol",
  "compiler": {
    "name": "solc",
    "version": "0.8.19+commit.7dd6d404.Emscripten.clang"
  },
  "schemaVersion": "3.4.16",
  "updatedAt": "2024-03-17T11:55:44.018Z",
  "networkType": "ethereum",
  "devdoc": {
    "kind": "dev",
    "methods": {},
    "version": 1
  },
  "userdoc": {
    "kind": "user",
    "methods": {},
    "version": 1
  }
}