{
  "contractName": "TransportContract",
  "abi": [
    {
      "inputs": [
        {
          "internalType": "uint256",
          "name": "",
          "type": "uint256"
        }
      ],
      "name": "transporterAddressArr",
      "outputs": [
        {
          "internalType": "address",
          "name": "",
          "type": "address"
        }
      ],
      "stateMutability": "view",
      "type": "function",
      "constant": true
    },
    {
      "inputs": [
        {
          "internalType": "address",
          "name": "",
          "type": "address"
        }
      ],
      "name": "transporters",
      "outputs": [
        {
          "internalType": "address",
          "name": "transporterPublicAddress",
          "type": "address"
        },
        {
          "internalType": "string",
          "name": "name",
          "type": "string"
        },
        {
          "internalType": "string",
          "name": "phoneNumber",
          "type": "string"
        },
        {
          "internalType": "string",
          "name": "password",
          "type": "string"
        },
        {
          "internalType": "bool",
          "name": "isRegistered",
          "type": "bool"
        },
        {
          "internalType": "bool",
          "name": "isLogin",
          "type": "bool"
        }
      ],
      "stateMutability": "view",
      "type": "function",
      "constant": true
    },
    {
      "inputs": [
        {
          "internalType": "address",
          "name": "_transporterPublicAddress",
          "type": "address"
        },
        {
          "internalType": "string",
          "name": "_name",
          "type": "string"
        },
        {
          "internalType": "string",
          "name": "_contactNumber",
          "type": "string"
        },
        {
          "internalType": "string",
          "name": "_password",
          "type": "string"
        }
      ],
      "name": "addTransporter",
      "outputs": [],
      "stateMutability": "nonpayable",
      "type": "function"
    },
    {
      "inputs": [
        {
          "internalType": "string",
          "name": "_oldPassword",
          "type": "string"
        },
        {
          "internalType": "string",
          "name": "_newPassword",
          "type": "string"
        }
      ],
      "name": "transporterChangePassword",
      "outputs": [],
      "stateMutability": "nonpayable",
      "type": "function"
    },
    {
      "inputs": [
        {
          "internalType": "address",
          "name": "_transporterPublicAddress",
          "type": "address"
        },
        {
          "internalType": "string",
          "name": "_password",
          "type": "string"
        }
      ],
      "name": "transporterLogin",
      "outputs": [],
      "stateMutability": "nonpayable",
      "type": "function"
    },
    {
      "inputs": [
        {
          "internalType": "address",
          "name": "_transPublicAddress",
          "type": "address"
        }
      ],
      "name": "transporterLogout",
      "outputs": [],
      "stateMutability": "nonpayable",
      "type": "function"
    },
    {
      "inputs": [],
      "name": "getTransportersArr",
      "outputs": [
        {
          "internalType": "address[]",
          "name": "",
          "type": "address[]"
        }
      ],
      "stateMutability": "view",
      "type": "function",
      "constant": true
    },
    {
      "inputs": [
        {
          "internalType": "address",
          "name": "_transporterPublicAddress",
          "type": "address"
        }
      ],
      "name": "getTransporter",
      "outputs": [
        {
          "internalType": "address",
          "name": "transporterPublicAddress",
          "type": "address"
        },
        {
          "internalType": "string",
          "name": "name",
          "type": "string"
        },
        {
          "internalType": "string",
          "name": "phoneNumber",
          "type": "string"
        }
      ],
      "stateMutability": "view",
      "type": "function",
      "constant": true
    }
  ],
  "bytecode": "0x60a060405234801561001057600080fd5b503373ffffffffffffffffffffffffffffffffffffffff1660808173ffffffffffffffffffffffffffffffffffffffff1681525050608051611e6c61006060003960006108220152611e6c6000f3fe608060405234801561001057600080fd5b50600436106100885760003560e01c8063ac6cb2371161005b578063ac6cb23714610115578063bc79c10214610145578063e25bd15814610161578063e3cf3a121461019657610088565b806325aef1701461008d57806352ca81c1146100a95780637f9a4b4e146100c75780638bbcbd1b146100e3575b600080fd5b6100a760048036038101906100a29190611153565b6101b2565b005b6100b161029d565b6040516100be919061123e565b60405180910390f35b6100e160048036038101906100dc91906113a6565b61032b565b005b6100fd60048036038101906100f89190611153565b610530565b60405161010c93929190611490565b60405180910390f35b61012f600480360381019061012a919061150b565b6107e1565b60405161013c9190611538565b60405180910390f35b61015f600480360381019061015a9190611553565b610820565b005b61017b60048036038101906101769190611153565b610aff565b60405161018d96959493929190611629565b60405180910390f35b6101b060048036038101906101ab919061169f565b610d0d565b005b6000808273ffffffffffffffffffffffffffffffffffffffff1673ffffffffffffffffffffffffffffffffffffffff16815260200190815260200160002060040160019054906101000a900460ff16610240576040517f08c379a000000000000000000000000000000000000000000000000000000000815260040161023790611763565b60405180910390fd5b60008060008373ffffffffffffffffffffffffffffffffffffffff1673ffffffffffffffffffffffffffffffffffffffff16815260200190815260200160002060040160016101000a81548160ff02191690831515021790555050565b6060600180548060200260200160405190810160405280929190818152602001828054801561032157602002820191906000526020600020905b8160009054906101000a900473ffffffffffffffffffffffffffffffffffffffff1673ffffffffffffffffffffffffffffffffffffffff16815260200190600101908083116102d7575b5050505050905090565b600115156000808473ffffffffffffffffffffffffffffffffffffffff1673ffffffffffffffffffffffffffffffffffffffff16815260200190815260200160002060040160009054906101000a900460ff161515146103c0576040517f08c379a00000000000000000000000000000000000000000000000000000000081526004016103b7906117cf565b60405180910390fd5b6104936000808473ffffffffffffffffffffffffffffffffffffffff1673ffffffffffffffffffffffffffffffffffffffff168152602001908152602001600020600301805461040f9061181e565b80601f016020809104026020016040519081016040528092919081815260200182805461043b9061181e565b80156104885780601f1061045d57610100808354040283529160200191610488565b820191906000526020600020905b81548152906001019060200180831161046b57829003601f168201915b505050505082611088565b6104d2576040517f08c379a00000000000000000000000000000000000000000000000000000000081526004016104c99061189b565b60405180910390fd5b60016000808473ffffffffffffffffffffffffffffffffffffffff1673ffffffffffffffffffffffffffffffffffffffff16815260200190815260200160002060040160016101000a81548160ff0219169083151502179055505050565b600060608060008060008673ffffffffffffffffffffffffffffffffffffffff1673ffffffffffffffffffffffffffffffffffffffff1681526020019081526020016000206040518060c00160405290816000820160009054906101000a900473ffffffffffffffffffffffffffffffffffffffff1673ffffffffffffffffffffffffffffffffffffffff1673ffffffffffffffffffffffffffffffffffffffff1681526020016001820180546105e69061181e565b80601f01602080910402602001604051908101604052809291908181526020018280546106129061181e565b801561065f5780601f106106345761010080835404028352916020019161065f565b820191906000526020600020905b81548152906001019060200180831161064257829003601f168201915b505050505081526020016002820180546106789061181e565b80601f01602080910402602001604051908101604052809291908181526020018280546106a49061181e565b80156106f15780601f106106c6576101008083540402835291602001916106f1565b820191906000526020600020905b8154815290600101906020018083116106d457829003601f168201915b5050505050815260200160038201805461070a9061181e565b80601f01602080910402602001604051908101604052809291908181526020018280546107369061181e565b80156107835780601f1061075857610100808354040283529160200191610783565b820191906000526020600020905b81548152906001019060200180831161076657829003601f168201915b505050505081526020016004820160009054906101000a900460ff161515151581526020016004820160019054906101000a900460ff1615151515815250509050806000015193508060200151925080604001519150509193909250565b600181815481106107f157600080fd5b906000526020600020016000915054906101000a900473ffffffffffffffffffffffffffffffffffffffff1681565b7f000000000000000000000000000000000000000000000000000000000000000073ffffffffffffffffffffffffffffffffffffffff163373ffffffffffffffffffffffffffffffffffffffff16146108ae576040517f08c379a00000000000000000000000000000000000000000000000000000000081526004016108a590611907565b60405180910390fd5b600015156000808673ffffffffffffffffffffffffffffffffffffffff1673ffffffffffffffffffffffffffffffffffffffff16815260200190815260200160002060040160009054906101000a900460ff16151514610943576040517f08c379a000000000000000000000000000000000000000000000000000000000815260040161093a90611973565b60405180910390fd5b6040518060c001604052808573ffffffffffffffffffffffffffffffffffffffff168152602001848152602001838152602001828152602001600115158152602001600015158152506000808673ffffffffffffffffffffffffffffffffffffffff1673ffffffffffffffffffffffffffffffffffffffff16815260200190815260200160002060008201518160000160006101000a81548173ffffffffffffffffffffffffffffffffffffffff021916908373ffffffffffffffffffffffffffffffffffffffff1602179055506020820151816001019081610a269190611b3f565b506040820151816002019081610a3c9190611b3f565b506060820151816003019081610a529190611b3f565b5060808201518160040160006101000a81548160ff02191690831515021790555060a08201518160040160016101000a81548160ff0219169083151502179055509050506001849080600181540180825580915050600190039060005260206000200160009091909190916101000a81548173ffffffffffffffffffffffffffffffffffffffff021916908373ffffffffffffffffffffffffffffffffffffffff16021790555050505050565b60006020528060005260406000206000915090508060000160009054906101000a900473ffffffffffffffffffffffffffffffffffffffff1690806001018054610b489061181e565b80601f0160208091040260200160405190810160405280929190818152602001828054610b749061181e565b8015610bc15780601f10610b9657610100808354040283529160200191610bc1565b820191906000526020600020905b815481529060010190602001808311610ba457829003601f168201915b505050505090806002018054610bd69061181e565b80601f0160208091040260200160405190810160405280929190818152602001828054610c029061181e565b8015610c4f5780601f10610c2457610100808354040283529160200191610c4f565b820191906000526020600020905b815481529060010190602001808311610c3257829003601f168201915b505050505090806003018054610c649061181e565b80601f0160208091040260200160405190810160405280929190818152602001828054610c909061181e565b8015610cdd5780601f10610cb257610100808354040283529160200191610cdd565b820191906000526020600020905b815481529060010190602001808311610cc057829003601f168201915b5050505050908060040160009054906101000a900460ff16908060040160019054906101000a900460ff16905086565b600115156000803373ffffffffffffffffffffffffffffffffffffffff1673ffffffffffffffffffffffffffffffffffffffff16815260200190815260200160002060040160019054906101000a900460ff16151514610da2576040517f08c379a0000000000000000000000000000000000000000000000000000000008152600401610d9990611c5d565b60405180910390fd5b610e756000803373ffffffffffffffffffffffffffffffffffffffff1673ffffffffffffffffffffffffffffffffffffffff1681526020019081526020016000206003018054610df19061181e565b80601f0160208091040260200160405190810160405280929190818152602001828054610e1d9061181e565b8015610e6a5780601f10610e3f57610100808354040283529160200191610e6a565b820191906000526020600020905b815481529060010190602001808311610e4d57829003601f168201915b505050505083611088565b610eb4576040517f08c379a0000000000000000000000000000000000000000000000000000000008152600401610eab90611cc9565b60405180910390fd5b600081604051602001610ec79190611ce9565b6040516020818303038152906040528051906020012050602060ff1611610f23576040517f08c379a0000000000000000000000000000000000000000000000000000000008152600401610f1a90611d57565b60405180910390fd5b610ff66000803373ffffffffffffffffffffffffffffffffffffffff1673ffffffffffffffffffffffffffffffffffffffff1681526020019081526020016000206003018054610f729061181e565b80601f0160208091040260200160405190810160405280929190818152602001828054610f9e9061181e565b8015610feb5780601f10610fc057610100808354040283529160200191610feb565b820191906000526020600020905b815481529060010190602001808311610fce57829003601f168201915b505050505082611088565b611035576040517f08c379a000000000000000000000000000000000000000000000000000000000815260040161102c90611dc3565b60405180910390fd5b806000803373ffffffffffffffffffffffffffffffffffffffff1673ffffffffffffffffffffffffffffffffffffffff16815260200190815260200160002060030190816110839190611b3f565b505050565b60008160405160200161109b9190611e1f565b60405160208183030381529060405280519060200120836040516020016110c29190611e1f565b6040516020818303038152906040528051906020012014905092915050565b6000604051905090565b600080fd5b600080fd5b600073ffffffffffffffffffffffffffffffffffffffff82169050919050565b6000611120826110f5565b9050919050565b61113081611115565b811461113b57600080fd5b50565b60008135905061114d81611127565b92915050565b600060208284031215611169576111686110eb565b5b60006111778482850161113e565b91505092915050565b600081519050919050565b600082825260208201905092915050565b6000819050602082019050919050565b6111b581611115565b82525050565b60006111c783836111ac565b60208301905092915050565b6000602082019050919050565b60006111eb82611180565b6111f5818561118b565b93506112008361119c565b8060005b8381101561123157815161121888826111bb565b9750611223836111d3565b925050600181019050611204565b5085935050505092915050565b6000602082019050818103600083015261125881846111e0565b905092915050565b600080fd5b600080fd5b6000601f19601f8301169050919050565b7f4e487b7100000000000000000000000000000000000000000000000000000000600052604160045260246000fd5b6112b38261126a565b810181811067ffffffffffffffff821117156112d2576112d161127b565b5b80604052505050565b60006112e56110e1565b90506112f182826112aa565b919050565b600067ffffffffffffffff8211156113115761131061127b565b5b61131a8261126a565b9050602081019050919050565b82818337600083830152505050565b6000611349611344846112f6565b6112db565b90508281526020810184848401111561136557611364611265565b5b611370848285611327565b509392505050565b600082601f83011261138d5761138c611260565b5b813561139d848260208601611336565b91505092915050565b600080604083850312156113bd576113bc6110eb565b5b60006113cb8582860161113e565b925050602083013567ffffffffffffffff8111156113ec576113eb6110f0565b5b6113f885828601611378565b9150509250929050565b61140b81611115565b82525050565b600081519050919050565b600082825260208201905092915050565b60005b8381101561144b578082015181840152602081019050611430565b60008484015250505050565b600061146282611411565b61146c818561141c565b935061147c81856020860161142d565b6114858161126a565b840191505092915050565b60006060820190506114a56000830186611402565b81810360208301526114b78185611457565b905081810360408301526114cb8184611457565b9050949350505050565b6000819050919050565b6114e8816114d5565b81146114f357600080fd5b50565b600081359050611505816114df565b92915050565b600060208284031215611521576115206110eb565b5b600061152f848285016114f6565b91505092915050565b600060208201905061154d6000830184611402565b92915050565b6000806000806080858703121561156d5761156c6110eb565b5b600061157b8782880161113e565b945050602085013567ffffffffffffffff81111561159c5761159b6110f0565b5b6115a887828801611378565b935050604085013567ffffffffffffffff8111156115c9576115c86110f0565b5b6115d587828801611378565b925050606085013567ffffffffffffffff8111156115f6576115f56110f0565b5b61160287828801611378565b91505092959194509250565b60008115159050919050565b6116238161160e565b82525050565b600060c08201905061163e6000830189611402565b81810360208301526116508188611457565b905081810360408301526116648187611457565b905081810360608301526116788186611457565b9050611687608083018561161a565b61169460a083018461161a565b979650505050505050565b600080604083850312156116b6576116b56110eb565b5b600083013567ffffffffffffffff8111156116d4576116d36110f0565b5b6116e085828601611378565b925050602083013567ffffffffffffffff811115611701576117006110f0565b5b61170d85828601611378565b9150509250929050565b7f596f75277265206e6f74206c6f6767656420696e000000000000000000000000600082015250565b600061174d60148361141c565b915061175882611717565b602082019050919050565b6000602082019050818103600083015261177c81611740565b9050919050565b7f596f7572206e6f74207265676973746572656420796574210000000000000000600082015250565b60006117b960188361141c565b91506117c482611783565b602082019050919050565b600060208201905081810360008301526117e8816117ac565b9050919050565b7f4e487b7100000000000000000000000000000000000000000000000000000000600052602260045260246000fd5b6000600282049050600182168061183657607f821691505b602082108103611849576118486117ef565b5b50919050565b7f496e76616c69642061646472657373206f722070617373776f72640000000000600082015250565b6000611885601b8361141c565b91506118908261184f565b602082019050919050565b600060208201905081810360008301526118b481611878565b9050919050565b7f5265737472696374656420746f2073797374656d206f776e6572206f6e6c7900600082015250565b60006118f1601f8361141c565b91506118fc826118bb565b602082019050919050565b60006020820190508181036000830152611920816118e4565b9050919050565b7f5472616e73706f7274657220616c726561647920726567697374657265640000600082015250565b600061195d601e8361141c565b915061196882611927565b602082019050919050565b6000602082019050818103600083015261198c81611950565b9050919050565b60008190508160005260206000209050919050565b60006020601f8301049050919050565b600082821b905092915050565b6000600883026119f57fffffffffffffffffffffffffffffffffffffffffffffffffffffffffffffffff826119b8565b6119ff86836119b8565b95508019841693508086168417925050509392505050565b6000819050919050565b6000611a3c611a37611a32846114d5565b611a17565b6114d5565b9050919050565b6000819050919050565b611a5683611a21565b611a6a611a6282611a43565b8484546119c5565b825550505050565b600090565b611a7f611a72565b611a8a818484611a4d565b505050565b5b81811015611aae57611aa3600082611a77565b600181019050611a90565b5050565b601f821115611af357611ac481611993565b611acd846119a8565b81016020851015611adc578190505b611af0611ae8856119a8565b830182611a8f565b50505b505050565b600082821c905092915050565b6000611b1660001984600802611af8565b1980831691505092915050565b6000611b2f8383611b05565b9150826002028217905092915050565b611b4882611411565b67ffffffffffffffff811115611b6157611b6061127b565b5b611b6b825461181e565b611b76828285611ab2565b600060209050601f831160018114611ba95760008415611b97578287015190505b611ba18582611b23565b865550611c09565b601f198416611bb786611993565b60005b82811015611bdf57848901518255600182019150602085019450602081019050611bba565b86831015611bfc5784890151611bf8601f891682611b05565b8355505b6001600288020188555050505b505050505050565b7f4e6f74206c6f6767656420696e00000000000000000000000000000000000000600082015250565b6000611c47600d8361141c565b9150611c5282611c11565b602082019050919050565b60006020820190508181036000830152611c7681611c3a565b9050919050565b7f496e76616c6964206f6c642070617373776f7264000000000000000000000000600082015250565b6000611cb360148361141c565b9150611cbe82611c7d565b602082019050919050565b60006020820190508181036000830152611ce281611ca6565b9050919050565b60006020820190508181036000830152611d038184611457565b905092915050565b7f50617373776f72642073686f756c64206e6f7420626520656d70747900000000600082015250565b6000611d41601c8361141c565b9150611d4c82611d0b565b602082019050919050565b60006020820190508181036000830152611d7081611d34565b9050919050565b7f496e76616c6964206e65772070617373776f7264000000000000000000000000600082015250565b6000611dad60148361141c565b9150611db882611d77565b602082019050919050565b60006020820190508181036000830152611ddc81611da0565b9050919050565b600081905092915050565b6000611df982611411565b611e038185611de3565b9350611e1381856020860161142d565b80840191505092915050565b6000611e2b8284611dee565b91508190509291505056fea26469706673582212206c754163e21208588976173ca59796990c34c7cda3e1b16082c37513350112c964736f6c63430008130033",
  "immutableReferences": {
    "3": [
      {
        "length": 32,
        "start": 2082
      }
    ]
  },
  "source": "// SPDX-License-Identifier: MIT\npragma solidity ^0.8.19;\nimport \"./AccessControl.sol\";\n\ncontract TransportContract is AccessControl {\n\n    struct Transporter {\n        address transporterPublicAddress;\n        string name;\n        string phoneNumber;\n        string password;\n        bool isRegistered;\n        bool isLogin;\n    }\n\n    mapping(address => Transporter) public transporters;\n\n    address[] public transporterAddressArr;\n\n    function addTransporter(\n        address _transporterPublicAddress,\n        string memory _name,\n        string memory _contactNumber,\n        string memory _password\n    ) public onlyOwner {\n        require(\n            transporters[_transporterPublicAddress].isRegistered == false,\n            \"Transporter already registered\"\n        );\n        transporters[_transporterPublicAddress] = Transporter({\n            transporterPublicAddress: _transporterPublicAddress,\n            name: _name,\n            phoneNumber: _contactNumber,\n            password: _password,\n            isRegistered: true,\n            isLogin: false\n        });\n        transporterAddressArr.push(_transporterPublicAddress);\n    }\n\n    function transporterChangePassword(string memory _oldPassword, string memory _newPassword) external {\n        require(transporters[msg.sender].isLogin == true, \"Not logged in\");\n        require(compareString(transporters[msg.sender].password, _oldPassword), \"Invalid old password\");\n        require(keccak256(abi.encode(_newPassword)).length > 0, \"Password should not be empty\");\n        require(compareString(transporters[msg.sender].password, _newPassword), \"Invalid new password\");\n\n        transporters[msg.sender].password = _newPassword;\n    }\n\n    function  transporterLogin(address _transporterPublicAddress, string memory _password) public {\n        require(transporters[_transporterPublicAddress].isRegistered == true, \"Your not registered yet!\");\n        // require(transporters[_transporterPublicAddress].isLogin == false, \"Your Already login\");\n        require(compareString(transporters[_transporterPublicAddress].password, _password), \"Invalid address or password\");\n\n        transporters[_transporterPublicAddress].isLogin = true;\n    }\n\n    function transporterLogout(address _transPublicAddress) public {\n        require(transporters[_transPublicAddress].isLogin, \"You're not logged in\");\n\n        transporters[_transPublicAddress].isLogin = false;\n    }\n\n    function getTransportersArr() public view returns (address[] memory) {\n        return transporterAddressArr;\n    }\n\n    function getTransporter(\n        address _transporterPublicAddress\n    )\n        public\n        view\n        returns (\n            address transporterPublicAddress,\n            string memory name,\n            string memory phoneNumber\n        )\n    {\n        Transporter memory transporter = transporters[_transporterPublicAddress];\n        transporterPublicAddress = transporter.transporterPublicAddress;\n        name = transporter.name;\n        phoneNumber = transporter.phoneNumber;\n    }\n}\n",
  "sourcePath": "/home/temba/Desktop/blood-donation-blockchain-system/client-side/contracts/TransportContract.sol",
  "compiler": {
    "name": "solc",
    "version": "0.8.19+commit.7dd6d404.Emscripten.clang"
  },
  "schemaVersion": "3.4.16",
  "updatedAt": "2024-03-11T17:43:19.353Z",
  "networkType": "ethereum",
  "devdoc": {
    "kind": "dev",
    "methods": {},
    "version": 1
  },
  "userdoc": {
    "kind": "user",
    "methods": {},
    "version": 1
  }
}