{
  "contractName": "TransportContract",
  "abi": [
    {
      "inputs": [
        {
          "internalType": "uint256",
          "name": "",
          "type": "uint256"
        }
      ],
      "name": "transporterAddressArr",
      "outputs": [
        {
          "internalType": "address",
          "name": "",
          "type": "address"
        }
      ],
      "stateMutability": "view",
      "type": "function",
      "constant": true
    },
    {
      "inputs": [
        {
          "internalType": "address",
          "name": "",
          "type": "address"
        }
      ],
      "name": "transporters",
      "outputs": [
        {
          "internalType": "address",
          "name": "transporterPublicAddress",
          "type": "address"
        },
        {
          "internalType": "string",
          "name": "name",
          "type": "string"
        },
        {
          "internalType": "string",
          "name": "phoneNumber",
          "type": "string"
        },
        {
          "internalType": "string",
          "name": "password",
          "type": "string"
        },
        {
          "internalType": "bool",
          "name": "isRegistered",
          "type": "bool"
        },
        {
          "internalType": "bool",
          "name": "isLogin",
          "type": "bool"
        }
      ],
      "stateMutability": "view",
      "type": "function",
      "constant": true
    },
    {
      "inputs": [
        {
          "internalType": "address",
          "name": "_transporterAddress",
          "type": "address"
        },
        {
          "internalType": "uint256",
          "name": "_transactionID",
          "type": "uint256"
        }
      ],
      "name": "updateTransportationHistory",
      "outputs": [],
      "stateMutability": "nonpayable",
      "type": "function"
    },
    {
      "inputs": [
        {
          "internalType": "address",
          "name": "_transporterPublicAddress",
          "type": "address"
        },
        {
          "internalType": "string",
          "name": "_name",
          "type": "string"
        },
        {
          "internalType": "string",
          "name": "_contactNumber",
          "type": "string"
        },
        {
          "internalType": "string",
          "name": "_password",
          "type": "string"
        }
      ],
      "name": "addTransporter",
      "outputs": [],
      "stateMutability": "nonpayable",
      "type": "function"
    },
    {
      "inputs": [
        {
          "internalType": "string",
          "name": "_oldPassword",
          "type": "string"
        },
        {
          "internalType": "string",
          "name": "_newPassword",
          "type": "string"
        }
      ],
      "name": "transporterChangePassword",
      "outputs": [],
      "stateMutability": "nonpayable",
      "type": "function"
    },
    {
      "inputs": [
        {
          "internalType": "address",
          "name": "_transporterPublicAddress",
          "type": "address"
        },
        {
          "internalType": "string",
          "name": "_password",
          "type": "string"
        }
      ],
      "name": "transporterLogin",
      "outputs": [],
      "stateMutability": "nonpayable",
      "type": "function"
    },
    {
      "inputs": [
        {
          "internalType": "address",
          "name": "_transPublicAddress",
          "type": "address"
        }
      ],
      "name": "transporterLogout",
      "outputs": [],
      "stateMutability": "nonpayable",
      "type": "function"
    },
    {
      "inputs": [],
      "name": "getTransportersArr",
      "outputs": [
        {
          "internalType": "address[]",
          "name": "",
          "type": "address[]"
        }
      ],
      "stateMutability": "view",
      "type": "function",
      "constant": true
    },
    {
      "inputs": [
        {
          "internalType": "address",
          "name": "_transporterPublicAddress",
          "type": "address"
        }
      ],
      "name": "getTransporter",
      "outputs": [
        {
          "internalType": "address",
          "name": "transporterPublicAddress",
          "type": "address"
        },
        {
          "internalType": "string",
          "name": "name",
          "type": "string"
        },
        {
          "internalType": "string",
          "name": "phoneNumber",
          "type": "string"
        },
        {
          "internalType": "uint256[]",
          "name": "transporterTransactionHistory",
          "type": "uint256[]"
        }
      ],
      "stateMutability": "view",
      "type": "function",
      "constant": true
    }
  ],
  "bytecode": "0x60a0806040523461002357336080526113c590816100298239608051816105cf0152f35b600080fdfe6080604090808252600436101561001557600080fd5b7c01000000000000000000000000000000000000000000000000000000006000350490816325aef17014610ea15750806352ca81c114610ddb5780637f9a4b4e14610cae5780638bbcbd1b14610b5f578063ac6cb23714610b19578063bc79c10214610549578063e25bd1581461048e578063e3cf3a12146102125763f971584f146100a057600080fd5b3461020d578060031936011261020d57600160a060020a0390816100c2610f3f565b1690816000526001602052806000209060058201928354680100000000000000008110156101de57600181018086558110156101af57846000526024359060206000200155600052600160205260002081810361011b57005b6101a7826101ad956005945416600160a060020a031984541617835561014760018201600185016111be565b61015760028201600285016111be565b61016760038201600385016111be565b60ff6101006004808601930161018c83825416859060ff801983541691151516179055565b54041661ff00610100835492151502169061ff001916179055565b016112db565b005b7f4e487b7100000000000000000000000000000000000000000000000000000000600052603260045260246000fd5b7f4e487b7100000000000000000000000000000000000000000000000000000000600052604160045260246000fd5b600080fd5b503461020d578060031936011261020d5767ffffffffffffffff60043581811161020d57610244903690600401610f93565b9060243581811161020d5761025d903690600401610f93565b923360005260016020938185528160ff61010060048660002001540416151503610448576102a0903360005282865261029b600385600020016110bd565b61133a565b156104025781519184808401526102cc836102bd8382018961100d565b03601f19948582018152610f71565b336000528185526102e68661029b600384600020016110bd565b156103bc5760039033600052828652600020019385519384116101de57610317846103118754611069565b87611179565b8092601f85116001146103585750505081929360009261034d575b5050816002029160080260020a600019041916179055600080f35b015190503880610332565b849391929416958560005282600020926000905b8882106103a55750508360029596971061038a575b50505002019055005b01516008601f841602840a6000190419169055388080610381565b80878596829496860151815501950193019061036c565b84606491519060e560020a62461bcd0282526004820152601460248201527f496e76616c6964206e65772070617373776f72640000000000000000000000006044820152fd5b60648483519060e560020a62461bcd0282526004820152601460248201527f496e76616c6964206f6c642070617373776f72640000000000000000000000006044820152fd5b60648584519060e560020a62461bcd0282526004820152600d60248201527f4e6f74206c6f6767656420696e000000000000000000000000000000000000006044820152fd5b503461020d57602036600319011261020d57600160a060020a0390816104b2610f3f565b16600052600160205280600020918254169060ff6101006105316104d8600187016110bd565b956105236104e8600283016110bd565b9560046104f7600385016110bd565b9301549661051682519a8b9a8b5260c060208c015260c08b019061100d565b91898303908a015261100d565b90868203606088015261100d565b92828116151560808601520416151560a08301520390f35b503461020d57608036600319011261020d57610563610f3f565b9060243567ffffffffffffffff811161020d57610584903690600401610f93565b60443567ffffffffffffffff811161020d576105a4903690600401610f93565b9160643567ffffffffffffffff811161020d576105c5903690600401610f93565b600160a060020a037f0000000000000000000000000000000000000000000000000000000000000000163303610ad35760005460ff8116610a8d5760019060ff191617600055600160a060020a038516600052600160205260ff600483600020015416610a47578151906020820182811067ffffffffffffffff8211176101de5783526000825282519461065886610f55565b600160a060020a03871686526020860194855283860152606085015260016080850152600060a085015260c0840152600160a060020a03841660005260016020528060002091600160a060020a03845116600160a060020a03198454161783555180519067ffffffffffffffff82116101de5781906106e7826106de6001880154611069565b60018801611179565b602090601f83116001146109d3576000926109c8575b5050816002029160080260020a6000190419161760018301555b82015180519067ffffffffffffffff82116101de5781906107488261073f6002870154611069565b60028701611179565b602090601f831160011461095457600092610949575b5050816002029160080260020a6000190419161760028201555b606082015180519067ffffffffffffffff82116101de576107a9826107a06003860154611069565b60038601611179565b602090601f83116001146108d157918060c094926005946000926108c6575b5050816002029160080260020a6000190419161760038201555b6108246004820161080560808701511515829060ff801983541691151516179055565b60a0860151815461ff0019166101009115159190910261ff0016179055565b019101519081519167ffffffffffffffff83116101de5760209061084884846112a2565b0190600052602060002060005b8381106108b25784600254680100000000000000008110156101de57610889816001600160a060020a039301600255611032565b909260088454920260020a80840293849216021691191617905560ff1960005416600055600080f35b600190602084519401938184015501610855565b0151905038806107c8565b906003840160005260206000209160005b601f198516811061093157508360c09593600193600293600597601f19811610610916575b505050020160038201556107e2565b01516008601f841602840a6000190419169055388080610907565b919260206001819286850151815501940192016108e2565b01519050388061075e565b91506002840160005260206000209160005b601f19851681106109b05750918391600293600195601f19811610610995575b50505002016002820155610778565b01516008601f841602840a6000190419169055388080610986565b91926020600181928685015181550194019201610966565b0151905038806106fd565b91506001850160005260206000209160005b601f1985168110610a2f5750918391600293600195601f19811610610a14575b50505002016001830155610717565b01516008601f841602840a6000190419169055388080610a05565b919260206001819286850151815501940192016109e5565b6064825160e560020a62461bcd02815260206004820152601e60248201527f5472616e73706f7274657220616c7265616479207265676973746572656400006044820152fd5b6064835160e560020a62461bcd02815260206004820152600f60248201527f5265656e7472616e742063616c6c2e00000000000000000000000000000000006044820152fd5b6064825160e560020a62461bcd02815260206004820152601f60248201527f5265737472696374656420746f2073797374656d206f776e6572206f6e6c79006044820152fd5b503461020d57602036600319011261020d576004359060025482101561020d57600160a060020a03600891610b4f602094611032565b90549151930260020a9004168152f35b503461020d5760208060031936011261020d5790600160a060020a039182610b85610f3f565b166000526001908181528260002092805190610ba082610f55565b858554168252610bb18486016110bd565b948383019586526005610bc6600283016110bd565b91838501928352610bd9600382016110bd565b606086015260ff6101006004830154828116151560808901520416151560a0860152019682519384868a54918281520190819a600052876000209060005b818110610c9b57505050869492610c679492610c3888610c5a940389610f71565b8760c0820152511698519151918351998a526080868b015260808a019061100d565b918883039089015261100d565b918583036060870152519182815201949160005b828110610c885785870386f35b8351875295810195928101928401610c7b565b8254845292890192918a01918a01610c17565b503461020d578060031936011261020d57610cc7610f3f565b9060243567ffffffffffffffff811161020d57610cf0600160a060020a03913690600401610f93565b921691826000526001602052600160ff600484600020015416151503610d9557610d2c9083600052600160205261029b600384600020016110bd565b15610d4f57600091825260016020529020600401805461ff001916610100179055005b6064905160e560020a62461bcd02815260206004820152601b60248201527f496e76616c69642061646472657373206f722070617373776f726400000000006044820152fd5b6064825160e560020a62461bcd02815260206004820152601860248201527f596f7572206e6f742072656769737465726564207965742100000000000000006044820152fd5b503461020d57600036600319011261020d5780519081600254908181526020809101809260026000527f405787fa12a823e0f2b7631cc41b3ba8828b3321ca811111fa75cd3aa3bb5ace9060005b818110610e845750505084610e3f910385610f71565b8251818152935181850181905284938401929160005b828110610e6457505050500390f35b8351600160a060020a031685528695509381019392810192600101610e55565b8254600160a060020a031684529284019260019283019201610e29565b823461020d57602036600319011261020d57600160a060020a03610ec3610f3f565b1680600052600160205260ff6101006004846000200154041615610efa576000908152600160205220600401805461ff0019169055005b60648360e560020a62461bcd02815260206004820152601460248201527f596f75277265206e6f74206c6f6767656420696e0000000000000000000000006044820152fd5b60043590600160a060020a038216820361020d57565b60e0810190811067ffffffffffffffff8211176101de57604052565b90601f8019910116810190811067ffffffffffffffff8211176101de57604052565b81601f8201121561020d5780359067ffffffffffffffff82116101de5760405192610fc8601f8401601f191660200185610f71565b8284526020838301011161020d57816000926020809301838601378301015290565b60005b838110610ffd5750506000910152565b8181015183820152602001610fed565b9060209161102681518092818552858086019101610fea565b601f01601f1916010190565b6002548110156101af5760026000527f405787fa12a823e0f2b7631cc41b3ba8828b3321ca811111fa75cd3aa3bb5ace0190600090565b90600160028304921680156110b3575b602083101461108457565b7f4e487b7100000000000000000000000000000000000000000000000000000000600052602260045260246000fd5b91607f1691611079565b90604051918260008254926110d184611069565b90818452600194858116908160001461114057506001146110fd575b50506110fb92500383610f71565b565b9093915060005260209081600020936000915b8183106111285750506110fb935082010138806110ed565b85548884018501529485019487945091830191611110565b9150506110fb94506020925060ff1916828401521515810282010138806110ed565b81811061116d575050565b60008155600101611162565b9190601f811161118857505050565b6110fb92600052602060002090602080601f850104830193106111b4575b601f60209101040190611162565b90915081906111a6565b9080821461129e576111d08154611069565b9067ffffffffffffffff82116101de5781906111f6826111f08654611069565b86611179565b600090601f831160011461122f57600092611224575b5050816002029160080260020a600019041916179055565b01549050388061120c565b81526020808220858352818320935090601f1985169083905b828210611285575050916002939185600196941061126a575b50505002019055565b01546008601f841602840a6000190419169055388080611261565b8495819295850154815560018091019601940190611248565b5050565b906801000000000000000081116101de578154908083558181106112c557505050565b6110fb9260005260206000209182019101611162565b81811461129e5781549167ffffffffffffffff83116101de576112fe83836112a2565b60005260206000209060005260206000208154916000925b848410611324575050505050565b6001809192019384549281850155019290611316565b906040519160209261136884828161135b8183019687815193849201610fea565b8101038084520182610f71565b5190209161138860405191828161135b8183019687815193849201610fea565b519020149056fea264697066735822122044a4a3a3ad86f1ae64d120980f70728b69e5226b9fc033e29691a3186da2bfeb64736f6c63430008130033",
  "immutableReferences": {
    "3": [
      {
        "length": 32,
        "start": 1487
      }
    ]
  },
  "source": "// SPDX-License-Identifier: MIT\npragma solidity ^0.8.19;\nimport \"./AccessControl.sol\";\n\ncontract TransportContract is AccessControl {\n\n    struct Transporter {\n        address transporterPublicAddress;\n        string name;\n        string phoneNumber;\n        string password;\n        bool isRegistered;\n        bool isLogin;\n        uint256[] transporterTransactionHistory;\n    }\n\n    mapping(address => Transporter) public transporters;\n\n    address[] public transporterAddressArr;\n\n    function updateTransportationHistory(address _transporterAddress, uint256 _transactionID) external {\n        Transporter storage transporter = transporters[_transporterAddress];\n        transporter.transporterTransactionHistory.push(_transactionID);\n        transporters[_transporterAddress] = transporter;\n    }\n\n    function addTransporter(\n        address _transporterPublicAddress,\n        string memory _name,\n        string memory _contactNumber,\n        string memory _password\n    ) public onlyOwner noReentrancy {\n        require(\n            transporters[_transporterPublicAddress].isRegistered == false,\n            \"Transporter already registered\"\n        );\n        transporters[_transporterPublicAddress] = Transporter({\n            transporterPublicAddress: _transporterPublicAddress,\n            name: _name,\n            phoneNumber: _contactNumber,\n            password: _password,\n            isRegistered: true,\n            isLogin: false,\n            transporterTransactionHistory: new uint256[](0)\n        });\n        transporterAddressArr.push(_transporterPublicAddress);\n    }\n\n    function transporterChangePassword(string memory _oldPassword, string memory _newPassword) external {\n        require(transporters[msg.sender].isLogin == true, \"Not logged in\");\n        require(compareString(transporters[msg.sender].password, _oldPassword), \"Invalid old password\");\n        require(keccak256(abi.encode(_newPassword)).length > 0, \"Password should not be empty\");\n        require(compareString(transporters[msg.sender].password, _newPassword), \"Invalid new password\");\n\n        transporters[msg.sender].password = _newPassword;\n    }\n\n    function  transporterLogin(address _transporterPublicAddress, string memory _password) public {\n        require(transporters[_transporterPublicAddress].isRegistered == true, \"Your not registered yet!\");\n        // require(transporters[_transporterPublicAddress].isLogin == false, \"Your Already login\");\n        require(compareString(transporters[_transporterPublicAddress].password, _password), \"Invalid address or password\");\n\n        transporters[_transporterPublicAddress].isLogin = true;\n    }\n\n    function transporterLogout(address _transPublicAddress) public {\n        require(transporters[_transPublicAddress].isLogin, \"You're not logged in\");\n\n        transporters[_transPublicAddress].isLogin = false;\n    }\n\n    function getTransportersArr() public view returns (address[] memory) {\n        return transporterAddressArr;\n    }\n\n    function getTransporter(\n        address _transporterPublicAddress\n    )\n        public\n        view\n        returns (\n            address transporterPublicAddress,\n            string memory name,\n            string memory phoneNumber,\n            uint256[] memory transporterTransactionHistory\n        )\n    {\n        Transporter memory transporter = transporters[_transporterPublicAddress];\n        transporterPublicAddress = transporter.transporterPublicAddress;\n        name = transporter.name;\n        phoneNumber = transporter.phoneNumber;\n        transporterTransactionHistory = transporter.transporterTransactionHistory;\n    }\n}\n",
  "sourcePath": "/home/temba/Desktop/blood-donation-blockchain-system/client-side/contracts/TransportContract.sol",
  "compiler": {
    "name": "solc",
    "version": "0.8.19+commit.7dd6d404.Emscripten.clang"
  },
  "schemaVersion": "3.4.16",
  "updatedAt": "2024-03-20T11:19:03.295Z",
  "networkType": "ethereum",
  "devdoc": {
    "kind": "dev",
    "methods": {},
    "version": 1
  },
  "userdoc": {
    "kind": "user",
    "methods": {},
    "version": 1
  }
}