{
  "contractName": "TransportContract",
  "abi": [
    {
      "inputs": [
        {
          "internalType": "uint256",
          "name": "",
          "type": "uint256"
        }
      ],
      "name": "transporterAddressArr",
      "outputs": [
        {
          "internalType": "address",
          "name": "",
          "type": "address"
        }
      ],
      "stateMutability": "view",
      "type": "function"
    },
    {
      "inputs": [
        {
          "internalType": "address",
          "name": "",
          "type": "address"
        }
      ],
      "name": "transporters",
      "outputs": [
        {
          "internalType": "address",
          "name": "transporterPublicAddress",
          "type": "address"
        },
        {
          "internalType": "string",
          "name": "name",
          "type": "string"
        },
        {
          "internalType": "string",
          "name": "phoneNumber",
          "type": "string"
        },
        {
          "internalType": "string",
          "name": "password",
          "type": "string"
        },
        {
          "internalType": "bool",
          "name": "isRegistered",
          "type": "bool"
        },
        {
          "internalType": "bool",
          "name": "isLogin",
          "type": "bool"
        }
      ],
      "stateMutability": "view",
      "type": "function"
    },
    {
      "inputs": [
        {
          "internalType": "address",
          "name": "_transporterPublicAddress",
          "type": "address"
        },
        {
          "internalType": "string",
          "name": "_name",
          "type": "string"
        },
        {
          "internalType": "string",
          "name": "_contactNumber",
          "type": "string"
        },
        {
          "internalType": "string",
          "name": "_password",
          "type": "string"
        }
      ],
      "name": "addTransporter",
      "outputs": [],
      "stateMutability": "nonpayable",
      "type": "function"
    },
    {
      "inputs": [
        {
          "internalType": "address",
          "name": "_transporterPublicAddress",
          "type": "address"
        },
        {
          "internalType": "string",
          "name": "_password",
          "type": "string"
        }
      ],
      "name": "transporterLogin",
      "outputs": [],
      "stateMutability": "nonpayable",
      "type": "function"
    },
    {
      "inputs": [],
      "name": "getTransportersArr",
      "outputs": [
        {
          "internalType": "address[]",
          "name": "",
          "type": "address[]"
        }
      ],
      "stateMutability": "view",
      "type": "function"
    },
    {
      "inputs": [
        {
          "internalType": "address",
          "name": "_transporterPublicAddress",
          "type": "address"
        }
      ],
      "name": "getTransporter",
      "outputs": [
        {
          "internalType": "address",
          "name": "transporterPublicAddress",
          "type": "address"
        },
        {
          "internalType": "string",
          "name": "name",
          "type": "string"
        },
        {
          "internalType": "string",
          "name": "phoneNumber",
          "type": "string"
        }
      ],
      "stateMutability": "view",
      "type": "function"
    }
  ],
  "bytecode": "0x608060405234801561001057600080fd5b506116f9806100206000396000f3fe608060405234801561001057600080fd5b50600436106100625760003560e01c806352ca81c1146100675780637f9a4b4e146100855780638bbcbd1b146100a1578063ac6cb237146100d3578063bc79c10214610103578063e25bd1581461011f575b600080fd5b61006f610154565b60405161007c9190610d14565b60405180910390f35b61009f600480360381019061009a9190610ebc565b6101e2565b005b6100bb60048036038101906100b69190610f18565b61047c565b6040516100ca93929190610fd3565b60405180910390f35b6100ed60048036038101906100e8919061104e565b61072d565b6040516100fa919061107b565b60405180910390f35b61011d60048036038101906101189190611096565b61076c565b005b61013960048036038101906101349190610f18565b6109bd565b60405161014b9695949392919061116c565b60405180910390f35b606060018054806020026020016040519081016040528092919081815260200182805480156101d857602002820191906000526020600020905b8160009054906101000a900473ffffffffffffffffffffffffffffffffffffffff1673ffffffffffffffffffffffffffffffffffffffff168152602001906001019080831161018e575b5050505050905090565b600115156000808473ffffffffffffffffffffffffffffffffffffffff1673ffffffffffffffffffffffffffffffffffffffff16815260200190815260200160002060040160009054906101000a900460ff16151514610277576040517f08c379a000000000000000000000000000000000000000000000000000000000815260040161026e9061122e565b60405180910390fd5b600015156000808473ffffffffffffffffffffffffffffffffffffffff1673ffffffffffffffffffffffffffffffffffffffff16815260200190815260200160002060040160019054906101000a900460ff1615151461030c576040517f08c379a00000000000000000000000000000000000000000000000000000000081526004016103039061129a565b60405180910390fd5b6103df6000808473ffffffffffffffffffffffffffffffffffffffff1673ffffffffffffffffffffffffffffffffffffffff168152602001908152602001600020600301805461035b906112e9565b80601f0160208091040260200160405190810160405280929190818152602001828054610387906112e9565b80156103d45780601f106103a9576101008083540402835291602001916103d4565b820191906000526020600020905b8154815290600101906020018083116103b757829003601f168201915b505050505082610bcb565b61041e576040517f08c379a000000000000000000000000000000000000000000000000000000000815260040161041590611366565b60405180910390fd5b60016000808473ffffffffffffffffffffffffffffffffffffffff1673ffffffffffffffffffffffffffffffffffffffff16815260200190815260200160002060040160016101000a81548160ff0219169083151502179055505050565b600060608060008060008673ffffffffffffffffffffffffffffffffffffffff1673ffffffffffffffffffffffffffffffffffffffff1681526020019081526020016000206040518060c00160405290816000820160009054906101000a900473ffffffffffffffffffffffffffffffffffffffff1673ffffffffffffffffffffffffffffffffffffffff1673ffffffffffffffffffffffffffffffffffffffff168152602001600182018054610532906112e9565b80601f016020809104026020016040519081016040528092919081815260200182805461055e906112e9565b80156105ab5780601f10610580576101008083540402835291602001916105ab565b820191906000526020600020905b81548152906001019060200180831161058e57829003601f168201915b505050505081526020016002820180546105c4906112e9565b80601f01602080910402602001604051908101604052809291908181526020018280546105f0906112e9565b801561063d5780601f106106125761010080835404028352916020019161063d565b820191906000526020600020905b81548152906001019060200180831161062057829003601f168201915b50505050508152602001600382018054610656906112e9565b80601f0160208091040260200160405190810160405280929190818152602001828054610682906112e9565b80156106cf5780601f106106a4576101008083540402835291602001916106cf565b820191906000526020600020905b8154815290600101906020018083116106b257829003601f168201915b505050505081526020016004820160009054906101000a900460ff161515151581526020016004820160019054906101000a900460ff1615151515815250509050806000015193508060200151925080604001519150509193909250565b6001818154811061073d57600080fd5b906000526020600020016000915054906101000a900473ffffffffffffffffffffffffffffffffffffffff1681565b600015156000808673ffffffffffffffffffffffffffffffffffffffff1673ffffffffffffffffffffffffffffffffffffffff16815260200190815260200160002060040160009054906101000a900460ff16151514610801576040517f08c379a00000000000000000000000000000000000000000000000000000000081526004016107f8906113d2565b60405180910390fd5b6040518060c001604052808573ffffffffffffffffffffffffffffffffffffffff168152602001848152602001838152602001828152602001600115158152602001600015158152506000808673ffffffffffffffffffffffffffffffffffffffff1673ffffffffffffffffffffffffffffffffffffffff16815260200190815260200160002060008201518160000160006101000a81548173ffffffffffffffffffffffffffffffffffffffff021916908373ffffffffffffffffffffffffffffffffffffffff16021790555060208201518160010190816108e4919061159e565b5060408201518160020190816108fa919061159e565b506060820151816003019081610910919061159e565b5060808201518160040160006101000a81548160ff02191690831515021790555060a08201518160040160016101000a81548160ff0219169083151502179055509050506001849080600181540180825580915050600190039060005260206000200160009091909190916101000a81548173ffffffffffffffffffffffffffffffffffffffff021916908373ffffffffffffffffffffffffffffffffffffffff16021790555050505050565b60006020528060005260406000206000915090508060000160009054906101000a900473ffffffffffffffffffffffffffffffffffffffff1690806001018054610a06906112e9565b80601f0160208091040260200160405190810160405280929190818152602001828054610a32906112e9565b8015610a7f5780601f10610a5457610100808354040283529160200191610a7f565b820191906000526020600020905b815481529060010190602001808311610a6257829003601f168201915b505050505090806002018054610a94906112e9565b80601f0160208091040260200160405190810160405280929190818152602001828054610ac0906112e9565b8015610b0d5780601f10610ae257610100808354040283529160200191610b0d565b820191906000526020600020905b815481529060010190602001808311610af057829003601f168201915b505050505090806003018054610b22906112e9565b80601f0160208091040260200160405190810160405280929190818152602001828054610b4e906112e9565b8015610b9b5780601f10610b7057610100808354040283529160200191610b9b565b820191906000526020600020905b815481529060010190602001808311610b7e57829003601f168201915b5050505050908060040160009054906101000a900460ff16908060040160019054906101000a900460ff16905086565b600081604051602001610bde91906116ac565b6040516020818303038152906040528051906020012083604051602001610c0591906116ac565b6040516020818303038152906040528051906020012014905092915050565b600081519050919050565b600082825260208201905092915050565b6000819050602082019050919050565b600073ffffffffffffffffffffffffffffffffffffffff82169050919050565b6000610c7b82610c50565b9050919050565b610c8b81610c70565b82525050565b6000610c9d8383610c82565b60208301905092915050565b6000602082019050919050565b6000610cc182610c24565b610ccb8185610c2f565b9350610cd683610c40565b8060005b83811015610d07578151610cee8882610c91565b9750610cf983610ca9565b925050600181019050610cda565b5085935050505092915050565b60006020820190508181036000830152610d2e8184610cb6565b905092915050565b6000604051905090565b600080fd5b600080fd5b610d5381610c70565b8114610d5e57600080fd5b50565b600081359050610d7081610d4a565b92915050565b600080fd5b600080fd5b6000601f19601f8301169050919050565b7f4e487b7100000000000000000000000000000000000000000000000000000000600052604160045260246000fd5b610dc982610d80565b810181811067ffffffffffffffff82111715610de857610de7610d91565b5b80604052505050565b6000610dfb610d36565b9050610e078282610dc0565b919050565b600067ffffffffffffffff821115610e2757610e26610d91565b5b610e3082610d80565b9050602081019050919050565b82818337600083830152505050565b6000610e5f610e5a84610e0c565b610df1565b905082815260208101848484011115610e7b57610e7a610d7b565b5b610e86848285610e3d565b509392505050565b600082601f830112610ea357610ea2610d76565b5b8135610eb3848260208601610e4c565b91505092915050565b60008060408385031215610ed357610ed2610d40565b5b6000610ee185828601610d61565b925050602083013567ffffffffffffffff811115610f0257610f01610d45565b5b610f0e85828601610e8e565b9150509250929050565b600060208284031215610f2e57610f2d610d40565b5b6000610f3c84828501610d61565b91505092915050565b610f4e81610c70565b82525050565b600081519050919050565b600082825260208201905092915050565b60005b83811015610f8e578082015181840152602081019050610f73565b60008484015250505050565b6000610fa582610f54565b610faf8185610f5f565b9350610fbf818560208601610f70565b610fc881610d80565b840191505092915050565b6000606082019050610fe86000830186610f45565b8181036020830152610ffa8185610f9a565b9050818103604083015261100e8184610f9a565b9050949350505050565b6000819050919050565b61102b81611018565b811461103657600080fd5b50565b60008135905061104881611022565b92915050565b60006020828403121561106457611063610d40565b5b600061107284828501611039565b91505092915050565b60006020820190506110906000830184610f45565b92915050565b600080600080608085870312156110b0576110af610d40565b5b60006110be87828801610d61565b945050602085013567ffffffffffffffff8111156110df576110de610d45565b5b6110eb87828801610e8e565b935050604085013567ffffffffffffffff81111561110c5761110b610d45565b5b61111887828801610e8e565b925050606085013567ffffffffffffffff81111561113957611138610d45565b5b61114587828801610e8e565b91505092959194509250565b60008115159050919050565b61116681611151565b82525050565b600060c0820190506111816000830189610f45565b81810360208301526111938188610f9a565b905081810360408301526111a78187610f9a565b905081810360608301526111bb8186610f9a565b90506111ca608083018561115d565b6111d760a083018461115d565b979650505050505050565b7f596f7572206e6f74207265676973746572656420796574210000000000000000600082015250565b6000611218601883610f5f565b9150611223826111e2565b602082019050919050565b600060208201905081810360008301526112478161120b565b9050919050565b7f596f757220416c7265616479206c6f67696e0000000000000000000000000000600082015250565b6000611284601283610f5f565b915061128f8261124e565b602082019050919050565b600060208201905081810360008301526112b381611277565b9050919050565b7f4e487b7100000000000000000000000000000000000000000000000000000000600052602260045260246000fd5b6000600282049050600182168061130157607f821691505b602082108103611314576113136112ba565b5b50919050565b7f496e76616c69642061646472657373206f722070617373776f72640000000000600082015250565b6000611350601b83610f5f565b915061135b8261131a565b602082019050919050565b6000602082019050818103600083015261137f81611343565b9050919050565b7f5472616e73706f7274657220616c726561647920726567697374657265640000600082015250565b60006113bc601e83610f5f565b91506113c782611386565b602082019050919050565b600060208201905081810360008301526113eb816113af565b9050919050565b60008190508160005260206000209050919050565b60006020601f8301049050919050565b600082821b905092915050565b6000600883026114547fffffffffffffffffffffffffffffffffffffffffffffffffffffffffffffffff82611417565b61145e8683611417565b95508019841693508086168417925050509392505050565b6000819050919050565b600061149b61149661149184611018565b611476565b611018565b9050919050565b6000819050919050565b6114b583611480565b6114c96114c1826114a2565b848454611424565b825550505050565b600090565b6114de6114d1565b6114e98184846114ac565b505050565b5b8181101561150d576115026000826114d6565b6001810190506114ef565b5050565b601f82111561155257611523816113f2565b61152c84611407565b8101602085101561153b578190505b61154f61154785611407565b8301826114ee565b50505b505050565b600082821c905092915050565b600061157560001984600802611557565b1980831691505092915050565b600061158e8383611564565b9150826002028217905092915050565b6115a782610f54565b67ffffffffffffffff8111156115c0576115bf610d91565b5b6115ca82546112e9565b6115d5828285611511565b600060209050601f83116001811461160857600084156115f6578287015190505b6116008582611582565b865550611668565b601f198416611616866113f2565b60005b8281101561163e57848901518255600182019150602085019450602081019050611619565b8683101561165b5784890151611657601f891682611564565b8355505b6001600288020188555050505b505050505050565b600081905092915050565b600061168682610f54565b6116908185611670565b93506116a0818560208601610f70565b80840191505092915050565b60006116b8828461167b565b91508190509291505056fea26469706673582212204bf5addd8dbaaea7e9f79052a617d2e88ab7ed0738e0608206fdc4289afc024064736f6c63430008130033",
  "immutableReferences": {},
  "source": "// SPDX-License-Identifier: MIT\npragma solidity ^0.8.19;\n\ncontract TransportContract {\n    struct Transporter {\n        address transporterPublicAddress;\n        string name;\n        string phoneNumber;\n        string password;\n        bool isRegistered;\n        bool isLogin;\n    }\n\n    mapping(address => Transporter) public transporters;\n\n    address[] public transporterAddressArr;\n\n    function addTransporter(\n        address _transporterPublicAddress,\n        string memory _name,\n        string memory _contactNumber,\n        string memory _password\n    ) public {\n        require(\n            transporters[_transporterPublicAddress].isRegistered == false,\n            \"Transporter already registered\"\n        );\n        transporters[_transporterPublicAddress] = Transporter({\n            transporterPublicAddress: _transporterPublicAddress,\n            name: _name,\n            phoneNumber: _contactNumber,\n            password: _password,\n            isRegistered: true,\n            isLogin: false\n        });\n        transporterAddressArr.push(_transporterPublicAddress);\n    }\n\n    function  transporterLogin(address _transporterPublicAddress, string memory _password) public {\n        require(transporters[_transporterPublicAddress].isRegistered == true, \"Your not registered yet!\");\n        require(transporters[_transporterPublicAddress].isLogin == false, \"Your Already login\");\n        require(compareString(transporters[_transporterPublicAddress].password, _password), \"Invalid address or password\");\n\n        transporters[_transporterPublicAddress].isLogin = true;\n    }\n\n    function getTransportersArr() public view returns (address[] memory) {\n        return transporterAddressArr;\n    }\n\n    function getTransporter(\n        address _transporterPublicAddress\n    )\n        public\n        view\n        returns (\n            address transporterPublicAddress,\n            string memory name,\n            string memory phoneNumber\n        )\n    {\n        Transporter memory transporter = transporters[_transporterPublicAddress];\n        transporterPublicAddress = transporter.transporterPublicAddress;\n        name = transporter.name;\n        phoneNumber = transporter.phoneNumber;\n    }\n\n    function compareString(string memory _a, string memory _b) internal pure returns(bool) {\n        return keccak256(abi.encodePacked(_a)) == keccak256(abi.encodePacked(_b));\n    }\n}\n",
  "sourcePath": "/home/temba/Desktop/blood-donation-blockchain-system/client-side/contracts/TransportContract.sol",
  "compiler": {
    "name": "solc",
    "version": "0.8.19+commit.7dd6d404.Emscripten.clang"
  },
  "schemaVersion": "3.4.16",
  "updatedAt": "2024-02-27T20:45:23.416Z",
  "devdoc": {
    "kind": "dev",
    "methods": {},
    "version": 1
  },
  "userdoc": {
    "kind": "user",
    "methods": {},
    "version": 1
  }
}