{
  "contractName": "TransportContract",
  "abi": [
    {
      "inputs": [
        {
          "internalType": "uint256",
          "name": "",
          "type": "uint256"
        }
      ],
      "name": "transporterAddressArr",
      "outputs": [
        {
          "internalType": "address",
          "name": "",
          "type": "address"
        }
      ],
      "stateMutability": "view",
      "type": "function"
    },
    {
      "inputs": [
        {
          "internalType": "address",
          "name": "",
          "type": "address"
        }
      ],
      "name": "transporters",
      "outputs": [
        {
          "internalType": "address",
          "name": "transporterPublicAddress",
          "type": "address"
        },
        {
          "internalType": "string",
          "name": "name",
          "type": "string"
        },
        {
          "internalType": "string",
          "name": "phoneNumber",
          "type": "string"
        },
        {
          "internalType": "string",
          "name": "password",
          "type": "string"
        }
      ],
      "stateMutability": "view",
      "type": "function"
    },
    {
      "inputs": [
        {
          "internalType": "address",
          "name": "_transporterPublicAddress",
          "type": "address"
        },
        {
          "internalType": "string",
          "name": "_name",
          "type": "string"
        },
        {
          "internalType": "string",
          "name": "_contactNumber",
          "type": "string"
        },
        {
          "internalType": "string",
          "name": "_password",
          "type": "string"
        }
      ],
      "name": "addTransporter",
      "outputs": [],
      "stateMutability": "nonpayable",
      "type": "function"
    }
  ],
  "bytecode": "0x608060405234801561001057600080fd5b50610b0d806100206000396000f3fe608060405234801561001057600080fd5b50600436106100415760003560e01c8063ac6cb23714610046578063bc79c10214610076578063e25bd15814610092575b600080fd5b610060600480360381019061005b919061043d565b6100c5565b60405161006d91906104ab565b60405180910390f35b610090600480360381019061008b9190610638565b610104565b005b6100ac60048036038101906100a791906106f3565b61020b565b6040516100bc949392919061079f565b60405180910390f35b600181815481106100d557600080fd5b906000526020600020016000915054906101000a900473ffffffffffffffffffffffffffffffffffffffff1681565b60405180608001604052808573ffffffffffffffffffffffffffffffffffffffff168152602001848152602001838152602001828152506000808673ffffffffffffffffffffffffffffffffffffffff1673ffffffffffffffffffffffffffffffffffffffff16815260200190815260200160002060008201518160000160006101000a81548173ffffffffffffffffffffffffffffffffffffffff021916908373ffffffffffffffffffffffffffffffffffffffff16021790555060208201518160010190816101d59190610a05565b5060408201518160020190816101eb9190610a05565b5060608201518160030190816102019190610a05565b5090505050505050565b60006020528060005260406000206000915090508060000160009054906101000a900473ffffffffffffffffffffffffffffffffffffffff169080600101805461025490610828565b80601f016020809104026020016040519081016040528092919081815260200182805461028090610828565b80156102cd5780601f106102a2576101008083540402835291602001916102cd565b820191906000526020600020905b8154815290600101906020018083116102b057829003601f168201915b5050505050908060020180546102e290610828565b80601f016020809104026020016040519081016040528092919081815260200182805461030e90610828565b801561035b5780601f106103305761010080835404028352916020019161035b565b820191906000526020600020905b81548152906001019060200180831161033e57829003601f168201915b50505050509080600301805461037090610828565b80601f016020809104026020016040519081016040528092919081815260200182805461039c90610828565b80156103e95780601f106103be576101008083540402835291602001916103e9565b820191906000526020600020905b8154815290600101906020018083116103cc57829003601f168201915b5050505050905084565b6000604051905090565b600080fd5b600080fd5b6000819050919050565b61041a81610407565b811461042557600080fd5b50565b60008135905061043781610411565b92915050565b600060208284031215610453576104526103fd565b5b600061046184828501610428565b91505092915050565b600073ffffffffffffffffffffffffffffffffffffffff82169050919050565b60006104958261046a565b9050919050565b6104a58161048a565b82525050565b60006020820190506104c0600083018461049c565b92915050565b6104cf8161048a565b81146104da57600080fd5b50565b6000813590506104ec816104c6565b92915050565b600080fd5b600080fd5b6000601f19601f8301169050919050565b7f4e487b7100000000000000000000000000000000000000000000000000000000600052604160045260246000fd5b610545826104fc565b810181811067ffffffffffffffff821117156105645761056361050d565b5b80604052505050565b60006105776103f3565b9050610583828261053c565b919050565b600067ffffffffffffffff8211156105a3576105a261050d565b5b6105ac826104fc565b9050602081019050919050565b82818337600083830152505050565b60006105db6105d684610588565b61056d565b9050828152602081018484840111156105f7576105f66104f7565b5b6106028482856105b9565b509392505050565b600082601f83011261061f5761061e6104f2565b5b813561062f8482602086016105c8565b91505092915050565b60008060008060808587031215610652576106516103fd565b5b6000610660878288016104dd565b945050602085013567ffffffffffffffff81111561068157610680610402565b5b61068d8782880161060a565b935050604085013567ffffffffffffffff8111156106ae576106ad610402565b5b6106ba8782880161060a565b925050606085013567ffffffffffffffff8111156106db576106da610402565b5b6106e78782880161060a565b91505092959194509250565b600060208284031215610709576107086103fd565b5b6000610717848285016104dd565b91505092915050565b600081519050919050565b600082825260208201905092915050565b60005b8381101561075a57808201518184015260208101905061073f565b60008484015250505050565b600061077182610720565b61077b818561072b565b935061078b81856020860161073c565b610794816104fc565b840191505092915050565b60006080820190506107b4600083018761049c565b81810360208301526107c68186610766565b905081810360408301526107da8185610766565b905081810360608301526107ee8184610766565b905095945050505050565b7f4e487b7100000000000000000000000000000000000000000000000000000000600052602260045260246000fd5b6000600282049050600182168061084057607f821691505b602082108103610853576108526107f9565b5b50919050565b60008190508160005260206000209050919050565b60006020601f8301049050919050565b600082821b905092915050565b6000600883026108bb7fffffffffffffffffffffffffffffffffffffffffffffffffffffffffffffffff8261087e565b6108c5868361087e565b95508019841693508086168417925050509392505050565b6000819050919050565b60006109026108fd6108f884610407565b6108dd565b610407565b9050919050565b6000819050919050565b61091c836108e7565b61093061092882610909565b84845461088b565b825550505050565b600090565b610945610938565b610950818484610913565b505050565b5b818110156109745761096960008261093d565b600181019050610956565b5050565b601f8211156109b95761098a81610859565b6109938461086e565b810160208510156109a2578190505b6109b66109ae8561086e565b830182610955565b50505b505050565b600082821c905092915050565b60006109dc600019846008026109be565b1980831691505092915050565b60006109f583836109cb565b9150826002028217905092915050565b610a0e82610720565b67ffffffffffffffff811115610a2757610a2661050d565b5b610a318254610828565b610a3c828285610978565b600060209050601f831160018114610a6f5760008415610a5d578287015190505b610a6785826109e9565b865550610acf565b601f198416610a7d86610859565b60005b82811015610aa557848901518255600182019150602085019450602081019050610a80565b86831015610ac25784890151610abe601f8916826109cb565b8355505b6001600288020188555050505b50505050505056fea2646970667358221220aaa328f863181b6e4a72140b7b87ea84fe4eefa6d19795f34b6df585be21d99864736f6c63430008130033",
  "immutableReferences": {},
  "source": "// SPDX-License-Identifier: MIT\npragma solidity ^0.8.19;\n\ncontract TransportContract {\n    struct Transporter {\n        address transporterPublicAddress;\n        string name;\n        string phoneNumber;\n        string password;\n    }\n\n    mapping(address => Transporter) public transporters;\n\n    address[] public transporterAddressArr;\n\n    function addTransporter(\n        address _transporterPublicAddress,\n        string memory _name,\n        string memory _contactNumber,\n        string memory _password\n    ) public {\n        transporters[_transporterPublicAddress] = Transporter({\n            transporterPublicAddress: _transporterPublicAddress,\n            name: _name,\n            phoneNumber: _contactNumber,\n            password: _password\n        });\n    }\n}\n",
  "sourcePath": "/home/temba/Desktop/blood-donation-blockchain-system/client-side/contracts/TransportContract.sol",
  "compiler": {
    "name": "solc",
    "version": "0.8.19+commit.7dd6d404.Emscripten.clang"
  },
  "schemaVersion": "3.4.16",
  "updatedAt": "2024-02-24T19:47:11.337Z",
  "devdoc": {
    "kind": "dev",
    "methods": {},
    "version": 1
  },
  "userdoc": {
    "kind": "user",
    "methods": {},
    "version": 1
  }
}