{
  "contractName": "BloodDonationBlockchainSystem",
  "abi": [
    {
      "inputs": [],
      "stateMutability": "nonpayable",
      "type": "constructor"
    },
    {
      "inputs": [
        {
          "internalType": "enum BloodDonationBlockchainSystem.BloodType",
          "name": "",
          "type": "uint8"
        }
      ],
      "name": "bloodSupplies",
      "outputs": [
        {
          "internalType": "enum BloodDonationBlockchainSystem.BloodType",
          "name": "bloodType",
          "type": "uint8"
        },
        {
          "internalType": "uint256",
          "name": "volume",
          "type": "uint256"
        },
        {
          "internalType": "enum BloodDonationBlockchainSystem.BloodSupplyStatus",
          "name": "status",
          "type": "uint8"
        }
      ],
      "stateMutability": "view",
      "type": "function",
      "constant": true
    },
    {
      "inputs": [
        {
          "internalType": "uint256",
          "name": "",
          "type": "uint256"
        }
      ],
      "name": "donationTransactions",
      "outputs": [
        {
          "internalType": "uint256",
          "name": "transactionID",
          "type": "uint256"
        },
        {
          "internalType": "address",
          "name": "donor",
          "type": "address"
        },
        {
          "internalType": "address",
          "name": "recipient",
          "type": "address"
        },
        {
          "internalType": "address",
          "name": "medicalStaff",
          "type": "address"
        },
        {
          "internalType": "address",
          "name": "transporter",
          "type": "address"
        },
        {
          "internalType": "enum BloodDonationBlockchainSystem.BloodType",
          "name": "bloodType",
          "type": "uint8"
        },
        {
          "internalType": "uint256",
          "name": "donationDate",
          "type": "uint256"
        },
        {
          "internalType": "enum BloodDonationBlockchainSystem.TransactionStatus",
          "name": "status",
          "type": "uint8"
        },
        {
          "internalType": "address",
          "name": "medicalCenter",
          "type": "address"
        },
        {
          "internalType": "enum BloodDonationBlockchainSystem.TransactionStatus",
          "name": "medicalCenterStatus",
          "type": "uint8"
        },
        {
          "internalType": "uint256",
          "name": "donatedVolume",
          "type": "uint256"
        }
      ],
      "stateMutability": "view",
      "type": "function",
      "constant": true
    },
    {
      "inputs": [
        {
          "internalType": "address",
          "name": "",
          "type": "address"
        }
      ],
      "name": "donors",
      "outputs": [
        {
          "components": [
            {
              "internalType": "string",
              "name": "userName",
              "type": "string"
            },
            {
              "internalType": "enum BloodDonationBlockchainSystem.UserType",
              "name": "userType",
              "type": "uint8"
            },
            {
              "internalType": "string",
              "name": "contactNumber",
              "type": "string"
            },
            {
              "internalType": "string",
              "name": "userAddress",
              "type": "string"
            },
            {
              "internalType": "enum BloodDonationBlockchainSystem.BloodType",
              "name": "bloodType",
              "type": "uint8"
            },
            {
              "internalType": "uint256",
              "name": "donatedVolume",
              "type": "uint256"
            },
            {
              "internalType": "uint256",
              "name": "totalPayment",
              "type": "uint256"
            }
          ],
          "internalType": "struct BloodDonationBlockchainSystem.User",
          "name": "user",
          "type": "tuple"
        }
      ],
      "stateMutability": "view",
      "type": "function",
      "constant": true
    },
    {
      "inputs": [
        {
          "internalType": "uint256",
          "name": "",
          "type": "uint256"
        }
      ],
      "name": "medicalRecords",
      "outputs": [
        {
          "internalType": "uint256",
          "name": "recordID",
          "type": "uint256"
        },
        {
          "internalType": "address",
          "name": "donor",
          "type": "address"
        },
        {
          "internalType": "address",
          "name": "medicalStaff",
          "type": "address"
        },
        {
          "internalType": "uint256",
          "name": "bloodPressure",
          "type": "uint256"
        },
        {
          "internalType": "uint256",
          "name": "hemoglobinLevel",
          "type": "uint256"
        },
        {
          "internalType": "string",
          "name": "bloodTestResults",
          "type": "string"
        }
      ],
      "stateMutability": "view",
      "type": "function",
      "constant": true
    },
    {
      "inputs": [],
      "name": "owner",
      "outputs": [
        {
          "internalType": "address",
          "name": "",
          "type": "address"
        }
      ],
      "stateMutability": "view",
      "type": "function",
      "constant": true
    },
    {
      "inputs": [],
      "name": "recordCounter",
      "outputs": [
        {
          "internalType": "uint256",
          "name": "",
          "type": "uint256"
        }
      ],
      "stateMutability": "view",
      "type": "function",
      "constant": true
    },
    {
      "inputs": [],
      "name": "transactionCounter",
      "outputs": [
        {
          "internalType": "uint256",
          "name": "",
          "type": "uint256"
        }
      ],
      "stateMutability": "view",
      "type": "function",
      "constant": true
    },
    {
      "inputs": [
        {
          "internalType": "uint256",
          "name": "",
          "type": "uint256"
        }
      ],
      "name": "transportationRecords",
      "outputs": [
        {
          "internalType": "uint256",
          "name": "recordID",
          "type": "uint256"
        },
        {
          "internalType": "address",
          "name": "transporter",
          "type": "address"
        },
        {
          "internalType": "address",
          "name": "donor",
          "type": "address"
        },
        {
          "internalType": "address",
          "name": "recipient",
          "type": "address"
        },
        {
          "internalType": "uint256",
          "name": "pickupDateTime",
          "type": "uint256"
        },
        {
          "internalType": "uint256",
          "name": "deliveryDateTime",
          "type": "uint256"
        },
        {
          "internalType": "enum BloodDonationBlockchainSystem.TransportationStatus",
          "name": "status",
          "type": "uint8"
        }
      ],
      "stateMutability": "view",
      "type": "function",
      "constant": true
    },
    {
      "inputs": [
        {
          "internalType": "string",
          "name": "_userName",
          "type": "string"
        },
        {
          "internalType": "enum BloodDonationBlockchainSystem.UserType",
          "name": "_userType",
          "type": "uint8"
        },
        {
          "internalType": "string",
          "name": "_contactNumber",
          "type": "string"
        },
        {
          "internalType": "string",
          "name": "_userAddress",
          "type": "string"
        },
        {
          "internalType": "enum BloodDonationBlockchainSystem.BloodType",
          "name": "_bloodType",
          "type": "uint8"
        }
      ],
      "name": "addUser",
      "outputs": [],
      "stateMutability": "nonpayable",
      "type": "function"
    },
    {
      "inputs": [],
      "name": "donateBloodToMedicalCenter",
      "outputs": [],
      "stateMutability": "nonpayable",
      "type": "function"
    },
    {
      "inputs": [
        {
          "internalType": "uint256",
          "name": "_transactionID",
          "type": "uint256"
        },
        {
          "internalType": "address",
          "name": "_medicalCenter",
          "type": "address"
        },
        {
          "internalType": "uint256",
          "name": "_bloodPressure",
          "type": "uint256"
        },
        {
          "internalType": "uint256",
          "name": "_hemoglobinLevel",
          "type": "uint256"
        },
        {
          "internalType": "string",
          "name": "_bloodTestResults",
          "type": "string"
        }
      ],
      "name": "completeDonationToMedicalCenter",
      "outputs": [],
      "stateMutability": "nonpayable",
      "type": "function"
    },
    {
      "inputs": [
        {
          "internalType": "uint256",
          "name": "_transactionID",
          "type": "uint256"
        },
        {
          "internalType": "address",
          "name": "_recipient",
          "type": "address"
        }
      ],
      "name": "initiateTransportation",
      "outputs": [],
      "stateMutability": "nonpayable",
      "type": "function"
    },
    {
      "inputs": [
        {
          "internalType": "uint256",
          "name": "_recordID",
          "type": "uint256"
        }
      ],
      "name": "completeTransportation",
      "outputs": [],
      "stateMutability": "nonpayable",
      "type": "function"
    },
    {
      "inputs": [
        {
          "internalType": "enum BloodDonationBlockchainSystem.BloodType",
          "name": "_bloodType",
          "type": "uint8"
        },
        {
          "internalType": "uint256",
          "name": "_volume",
          "type": "uint256"
        }
      ],
      "name": "addBloodSupply",
      "outputs": [],
      "stateMutability": "nonpayable",
      "type": "function"
    },
    {
      "inputs": [
        {
          "internalType": "enum BloodDonationBlockchainSystem.BloodType",
          "name": "_bloodType",
          "type": "uint8"
        },
        {
          "internalType": "uint256",
          "name": "_volume",
          "type": "uint256"
        }
      ],
      "name": "requestBloodType",
      "outputs": [],
      "stateMutability": "nonpayable",
      "type": "function"
    }
  ],
  "bytecode": "0x608060405234801561001057600080fd5b50336000806101000a81548173ffffffffffffffffffffffffffffffffffffffff021916908373ffffffffffffffffffffffffffffffffffffffff160217905550613c73806100606000396000f3fe608060405234801561001057600080fd5b50600436106100f55760003560e01c80637b9df4d611610097578063c02b9f5a11610066578063c02b9f5a14610259578063c9a852fb1461028f578063ca0cdea8146102ab578063d9e7cb9e146102db576100f5565b80637b9df4d6146101c95780638acd0bfc146101e55780638da5cb5b1461021f578063b72e0de91461023d576100f5565b80633bfdefc5116100d35780633bfdefc5146101505780637564a13c1461016c5780637599be5d146101a157806378a29e15146101bf576100f5565b80630a7b6479146100fa57806311765b1a1461011657806314e887e814610132575b600080fd5b610114600480360381019061010f919061273a565b61030d565b005b610130600480360381019061012b91906128e5565b6104f5565b005b61013a610739565b60405161014791906129c3565b60405180910390f35b61016a60048036038101906101659190612a3c565b61073f565b005b61018660048036038101906101819190612a7c565b610cc4565b60405161019896959493929190612b37565b60405180910390f35b6101a9610dc8565b6040516101b691906129c3565b60405180910390f35b6101c7610dce565b005b6101e360048036038101906101de9190612a7c565b61132f565b005b6101ff60048036038101906101fa9190612a7c565b6114ce565b6040516102169b9a99989796959493929190612c5e565b60405180910390f35b6102276115ef565b6040516102349190612d09565b60405180910390f35b6102576004803603810190610252919061273a565b611613565b005b610273600480360381019061026e9190612a7c565b61196e565b6040516102869796959493929190612d6c565b60405180910390f35b6102a960048036038101906102a49190612ddb565b611a1d565b005b6102c560048036038101906102c09190612e72565b6121af565b6040516102d29190612ff9565b60405180910390f35b6102f560048036038101906102f0919061301b565b612417565b60405161030493929190613090565b60405180910390f35b6002600381111561032157610320612b9f565b5b600160003373ffffffffffffffffffffffffffffffffffffffff1673ffffffffffffffffffffffffffffffffffffffff16815260200190815260200160002060000160010160009054906101000a900460ff16600381111561038657610385612b9f565b5b146103c6576040517f08c379a00000000000000000000000000000000000000000000000000000000081526004016103bd90613139565b60405180910390fd5b600060018111156103da576103d9612b9f565b5b600560008460048111156103f1576103f0612b9f565b5b600481111561040357610402612b9f565b5b815260200190815260200160002060020160009054906101000a900460ff16600181111561043457610433612b9f565b5b14610474576040517f08c379a000000000000000000000000000000000000000000000000000000000815260040161046b906131a5565b60405180910390fd5b806005600084600481111561048c5761048b612b9f565b5b600481111561049e5761049d612b9f565b5b81526020019081526020016000206001015410156104f1576040517f08c379a00000000000000000000000000000000000000000000000000000000081526004016104e890613211565b60405180910390fd5b5050565b6000600381111561050957610508612b9f565b5b84600381111561051c5761051b612b9f565b5b0361055c576040517f08c379a0000000000000000000000000000000000000000000000000000000008152600401610553906132a3565b60405180910390fd5b60405180604001604052806040518060e0016040528088815260200187600381111561058b5761058a612b9f565b5b81526020018681526020018581526020018460048111156105af576105ae612b9f565b5b81526020016000815260200160008152508152602001600067ffffffffffffffff8111156105e0576105df612795565b5b60405190808252806020026020018201604052801561060e5781602001602082028036833780820191505090505b50815250600160003373ffffffffffffffffffffffffffffffffffffffff1673ffffffffffffffffffffffffffffffffffffffff168152602001908152602001600020600082015181600001600082015181600001908161066f91906134cf565b5060208201518160010160006101000a81548160ff0219169083600381111561069b5761069a612b9f565b5b021790555060408201518160020190816106b591906134cf565b5060608201518160030190816106cb91906134cf565b5060808201518160040160006101000a81548160ff021916908360048111156106f7576106f6612b9f565b5b021790555060a0820151816005015560c082015181600601555050602082015181600701908051906020019061072e929190612661565b509050505050505050565b60065481565b6002600381111561075357610752612b9f565b5b600160003373ffffffffffffffffffffffffffffffffffffffff1673ffffffffffffffffffffffffffffffffffffffff16815260200190815260200160002060000160010160009054906101000a900460ff1660038111156107b8576107b7612b9f565b5b146107f8576040517f08c379a00000000000000000000000000000000000000000000000000000000081526004016107ef90613139565b60405180910390fd5b6001600381111561080c5761080b612b9f565b5b6002600084815260200190815260200160002060060160009054906101000a900460ff16600381111561084257610841612b9f565b5b14610882576040517f08c379a000000000000000000000000000000000000000000000000000000000815260040161087990613613565b60405180910390fd5b6001600381111561089657610895612b9f565b5b600160008373ffffffffffffffffffffffffffffffffffffffff1673ffffffffffffffffffffffffffffffffffffffff16815260200190815260200160002060000160010160009054906101000a900460ff1660038111156108fb576108fa612b9f565b5b1461093b576040517f08c379a00000000000000000000000000000000000000000000000000000000081526004016109329061367f565b60405180910390fd5b600061094561245b565b90506040518061016001604052808281526020016002600086815260200190815260200160002060010160009054906101000a900473ffffffffffffffffffffffffffffffffffffffff1673ffffffffffffffffffffffffffffffffffffffff1681526020018373ffffffffffffffffffffffffffffffffffffffff1681526020013373ffffffffffffffffffffffffffffffffffffffff168152602001600073ffffffffffffffffffffffffffffffffffffffff1681526020016002600086815260200190815260200160002060040160149054906101000a900460ff166004811115610a3657610a35612b9f565b5b815260200142815260200160006003811115610a5557610a54612b9f565b5b8152602001600073ffffffffffffffffffffffffffffffffffffffff16815260200160016003811115610a8b57610a8a612b9f565b5b81526020016000815250600260008381526020019081526020016000206000820151816000015560208201518160010160006101000a81548173ffffffffffffffffffffffffffffffffffffffff021916908373ffffffffffffffffffffffffffffffffffffffff16021790555060408201518160020160006101000a81548173ffffffffffffffffffffffffffffffffffffffff021916908373ffffffffffffffffffffffffffffffffffffffff16021790555060608201518160030160006101000a81548173ffffffffffffffffffffffffffffffffffffffff021916908373ffffffffffffffffffffffffffffffffffffffff16021790555060808201518160040160006101000a81548173ffffffffffffffffffffffffffffffffffffffff021916908373ffffffffffffffffffffffffffffffffffffffff16021790555060a08201518160040160146101000a81548160ff02191690836004811115610bf957610bf8612b9f565b5b021790555060c0820151816005015560e08201518160060160006101000a81548160ff02191690836003811115610c3357610c32612b9f565b5b02179055506101008201518160060160016101000a81548173ffffffffffffffffffffffffffffffffffffffff021916908373ffffffffffffffffffffffffffffffffffffffff1602179055506101208201518160060160156101000a81548160ff02191690836003811115610cac57610cab612b9f565b5b02179055506101408201518160070155905050505050565b60036020528060005260406000206000915090508060000154908060010160009054906101000a900473ffffffffffffffffffffffffffffffffffffffff16908060020160009054906101000a900473ffffffffffffffffffffffffffffffffffffffff1690806003015490806004015490806005018054610d45906132f2565b80601f0160208091040260200160405190810160405280929190818152602001828054610d71906132f2565b8015610dbe5780601f10610d9357610100808354040283529160200191610dbe565b820191906000526020600020905b815481529060010190602001808311610da157829003601f168201915b5050505050905086565b60075481565b60006003811115610de257610de1612b9f565b5b600160003373ffffffffffffffffffffffffffffffffffffffff1673ffffffffffffffffffffffffffffffffffffffff16815260200190815260200160002060000160010160009054906101000a900460ff166003811115610e4757610e46612b9f565b5b14610e87576040517f08c379a0000000000000000000000000000000000000000000000000000000008152600401610e7e90613711565b60405180910390fd5b600480811115610e9a57610e99612b9f565b5b600160003373ffffffffffffffffffffffffffffffffffffffff1673ffffffffffffffffffffffffffffffffffffffff16815260200190815260200160002060000160040160009054906101000a900460ff166004811115610eff57610efe612b9f565b5b03610f3f576040517f08c379a0000000000000000000000000000000000000000000000000000000008152600401610f36906137a3565b60405180910390fd5b6000610f4961245b565b90506040518061016001604052808281526020013373ffffffffffffffffffffffffffffffffffffffff168152602001600073ffffffffffffffffffffffffffffffffffffffff168152602001600073ffffffffffffffffffffffffffffffffffffffff168152602001600073ffffffffffffffffffffffffffffffffffffffff168152602001600160003373ffffffffffffffffffffffffffffffffffffffff1673ffffffffffffffffffffffffffffffffffffffff16815260200190815260200160002060000160040160009054906101000a900460ff16600481111561103557611034612b9f565b5b81526020014281526020016002600381111561105457611053612b9f565b5b8152602001600073ffffffffffffffffffffffffffffffffffffffff1681526020016000600381111561108a57611089612b9f565b5b81526020016000815250600260008381526020019081526020016000206000820151816000015560208201518160010160006101000a81548173ffffffffffffffffffffffffffffffffffffffff021916908373ffffffffffffffffffffffffffffffffffffffff16021790555060408201518160020160006101000a81548173ffffffffffffffffffffffffffffffffffffffff021916908373ffffffffffffffffffffffffffffffffffffffff16021790555060608201518160030160006101000a81548173ffffffffffffffffffffffffffffffffffffffff021916908373ffffffffffffffffffffffffffffffffffffffff16021790555060808201518160040160006101000a81548173ffffffffffffffffffffffffffffffffffffffff021916908373ffffffffffffffffffffffffffffffffffffffff16021790555060a08201518160040160146101000a81548160ff021916908360048111156111f8576111f7612b9f565b5b021790555060c0820151816005015560e08201518160060160006101000a81548160ff0219169083600381111561123257611231612b9f565b5b02179055506101008201518160060160016101000a81548173ffffffffffffffffffffffffffffffffffffffff021916908373ffffffffffffffffffffffffffffffffffffffff1602179055506101208201518160060160156101000a81548160ff021916908360038111156112ab576112aa612b9f565b5b021790555061014082015181600701559050506004600160003373ffffffffffffffffffffffffffffffffffffffff1673ffffffffffffffffffffffffffffffffffffffff16815260200190815260200160002060000160040160006101000a81548160ff0219169083600481111561132757611326612b9f565b5b021790555050565b60038081111561134257611341612b9f565b5b600160003373ffffffffffffffffffffffffffffffffffffffff1673ffffffffffffffffffffffffffffffffffffffff16815260200190815260200160002060000160010160009054906101000a900460ff1660038111156113a7576113a6612b9f565b5b146113e7576040517f08c379a00000000000000000000000000000000000000000000000000000000081526004016113de90613835565b60405180910390fd5b600060018111156113fb576113fa612b9f565b5b6004600083815260200190815260200160002060060160009054906101000a900460ff16600181111561143157611430612b9f565b5b14611471576040517f08c379a0000000000000000000000000000000000000000000000000000000008152600401611468906138c7565b60405180910390fd5b42600460008381526020019081526020016000206005018190555060016004600083815260200190815260200160002060060160006101000a81548160ff021916908360018111156114c6576114c5612b9f565b5b021790555050565b60026020528060005260406000206000915090508060000154908060010160009054906101000a900473ffffffffffffffffffffffffffffffffffffffff16908060020160009054906101000a900473ffffffffffffffffffffffffffffffffffffffff16908060030160009054906101000a900473ffffffffffffffffffffffffffffffffffffffff16908060040160009054906101000a900473ffffffffffffffffffffffffffffffffffffffff16908060040160149054906101000a900460ff16908060050154908060060160009054906101000a900460ff16908060060160019054906101000a900473ffffffffffffffffffffffffffffffffffffffff16908060060160159054906101000a900460ff1690806007015490508b565b60008054906101000a900473ffffffffffffffffffffffffffffffffffffffff1681565b6002600381111561162757611626612b9f565b5b600160003373ffffffffffffffffffffffffffffffffffffffff1673ffffffffffffffffffffffffffffffffffffffff16815260200190815260200160002060000160010160009054906101000a900460ff16600381111561168c5761168b612b9f565b5b146116cc576040517f08c379a00000000000000000000000000000000000000000000000000000000081526004016116c390613139565b60405180910390fd5b6000811161170f576040517f08c379a000000000000000000000000000000000000000000000000000000000815260040161170690613933565b60405180910390fd5b60018081111561172257611721612b9f565b5b6005600084600481111561173957611738612b9f565b5b600481111561174b5761174a612b9f565b5b815260200190815260200160002060020160009054906101000a900460ff16600181111561177c5761177b612b9f565b5b036117bc576040517f08c379a00000000000000000000000000000000000000000000000000000000081526004016117b39061399f565b60405180910390fd5b600060018111156117d0576117cf612b9f565b5b600560008460048111156117e7576117e6612b9f565b5b60048111156117f9576117f8612b9f565b5b815260200190815260200160002060020160009054906101000a900460ff16600181111561182a57611829612b9f565b5b0361188557806005600084600481111561184757611846612b9f565b5b600481111561185957611858612b9f565b5b8152602001908152602001600020600101600082825461187991906139ee565b9250508190555061196a565b60405180606001604052808360048111156118a3576118a2612b9f565b5b8152602001828152602001600060018111156118c2576118c1612b9f565b5b815250600560008460048111156118dc576118db612b9f565b5b60048111156118ee576118ed612b9f565b5b815260200190815260200160002060008201518160000160006101000a81548160ff0219169083600481111561192757611926612b9f565b5b02179055506020820151816001015560408201518160020160006101000a81548160ff0219169083600181111561196157611960612b9f565b5b02179055509050505b5050565b60046020528060005260406000206000915090508060000154908060010160009054906101000a900473ffffffffffffffffffffffffffffffffffffffff16908060020160009054906101000a900473ffffffffffffffffffffffffffffffffffffffff16908060030160009054906101000a900473ffffffffffffffffffffffffffffffffffffffff16908060040154908060050154908060060160009054906101000a900460ff16905087565b60026003811115611a3157611a30612b9f565b5b600160003373ffffffffffffffffffffffffffffffffffffffff1673ffffffffffffffffffffffffffffffffffffffff16815260200190815260200160002060000160010160009054906101000a900460ff166003811115611a9657611a95612b9f565b5b14611ad6576040517f08c379a0000000000000000000000000000000000000000000000000000000008152600401611acd90613139565b60405180910390fd5b60026003811115611aea57611ae9612b9f565b5b6002600087815260200190815260200160002060060160009054906101000a900460ff166003811115611b2057611b1f612b9f565b5b14611b60576040517f08c379a0000000000000000000000000000000000000000000000000000000008152600401611b5790613a6e565b60405180910390fd5b600073ffffffffffffffffffffffffffffffffffffffff166002600087815260200190815260200160002060010160009054906101000a900473ffffffffffffffffffffffffffffffffffffffff1673ffffffffffffffffffffffffffffffffffffffff1603611c05576040517f08c379a0000000000000000000000000000000000000000000000000000000008152600401611bfc90613ada565b60405180910390fd5b336002600087815260200190815260200160002060030160006101000a81548173ffffffffffffffffffffffffffffffffffffffff021916908373ffffffffffffffffffffffffffffffffffffffff160217905550836002600087815260200190815260200160002060060160016101000a81548173ffffffffffffffffffffffffffffffffffffffff021916908373ffffffffffffffffffffffffffffffffffffffff16021790555060016002600087815260200190815260200160002060060160156101000a81548160ff02191690836003811115611ce957611ce8612b9f565b5b021790555060016002600087815260200190815260200160002060060160006101000a81548160ff02191690836003811115611d2857611d27612b9f565b5b0217905550611d36856124a8565b600160006002600089815260200190815260200160002060010160009054906101000a900473ffffffffffffffffffffffffffffffffffffffff1673ffffffffffffffffffffffffffffffffffffffff1673ffffffffffffffffffffffffffffffffffffffff1681526020019081526020016000206000016005016000828254611dc091906139ee565b925050819055506000611dd1612552565b90506040518060e001604052808281526020016002600089815260200190815260200160002060010160009054906101000a900473ffffffffffffffffffffffffffffffffffffffff1673ffffffffffffffffffffffffffffffffffffffff1681526020013373ffffffffffffffffffffffffffffffffffffffff168152602001858152602001848152602001838152602001600067ffffffffffffffff811115611e7f57611e7e612795565b5b604051908082528060200260200182016040528015611ead5781602001602082028036833780820191505090505b50815250600360008381526020019081526020016000206000820151816000015560208201518160010160006101000a81548173ffffffffffffffffffffffffffffffffffffffff021916908373ffffffffffffffffffffffffffffffffffffffff16021790555060408201518160020160006101000a81548173ffffffffffffffffffffffffffffffffffffffff021916908373ffffffffffffffffffffffffffffffffffffffff160217905550606082015181600301556080820151816004015560a0820151816005019081611f8591906134cf565b5060c0820151816006019080519060200190611fa2929190612661565b50905050600160006002600089815260200190815260200160002060010160009054906101000a900473ffffffffffffffffffffffffffffffffffffffff1673ffffffffffffffffffffffffffffffffffffffff1673ffffffffffffffffffffffffffffffffffffffff16815260200190815260200160002060070186908060018154018082558091505060019003906000526020600020016000909190919091505560006120cb60016000600260008b815260200190815260200160002060010160009054906101000a900473ffffffffffffffffffffffffffffffffffffffff1673ffffffffffffffffffffffffffffffffffffffff1673ffffffffffffffffffffffffffffffffffffffff1681526020019081526020016000206000016005015461259f565b90508060016000600260008b815260200190815260200160002060010160009054906101000a900473ffffffffffffffffffffffffffffffffffffffff1673ffffffffffffffffffffffffffffffffffffffff1673ffffffffffffffffffffffffffffffffffffffff168152602001908152602001600020600001600601600082825461215891906139ee565b925050819055503373ffffffffffffffffffffffffffffffffffffffff166108fc829081150290604051600060405180830381858888f193505050501580156121a5573d6000803e3d6000fd5b5050505050505050565b6001602052806000526040600020600091509050806000016040518060e00160405290816000820180546121e2906132f2565b80601f016020809104026020016040519081016040528092919081815260200182805461220e906132f2565b801561225b5780601f106122305761010080835404028352916020019161225b565b820191906000526020600020905b81548152906001019060200180831161223e57829003601f168201915b505050505081526020016001820160009054906101000a900460ff16600381111561228957612288612b9f565b5b600381111561229b5761229a612b9f565b5b81526020016002820180546122af906132f2565b80601f01602080910402602001604051908101604052809291908181526020018280546122db906132f2565b80156123285780601f106122fd57610100808354040283529160200191612328565b820191906000526020600020905b81548152906001019060200180831161230b57829003601f168201915b50505050508152602001600382018054612341906132f2565b80601f016020809104026020016040519081016040528092919081815260200182805461236d906132f2565b80156123ba5780601f1061238f576101008083540402835291602001916123ba565b820191906000526020600020905b81548152906001019060200180831161239d57829003601f168201915b505050505081526020016004820160009054906101000a900460ff1660048111156123e8576123e7612b9f565b5b60048111156123fa576123f9612b9f565b5b815260200160058201548152602001600682015481525050905081565b60056020528060005260406000206000915090508060000160009054906101000a900460ff16908060010154908060020160009054906101000a900460ff16905083565b60006006600081548092919061247090613afa565b91905055504260065460405160200161248a929190613b63565b6040516020818303038152906040528051906020012060001c905090565b6000600160038111156124be576124bd612b9f565b5b6002600084815260200190815260200160002060060160009054906101000a900460ff1660038111156124f4576124f3612b9f565b5b14612534576040517f08c379a000000000000000000000000000000000000000000000000000000000815260040161252b90613bdb565b60405180910390fd5b60026000838152602001908152602001600020600701549050919050565b60006007600081548092919061256790613afa565b919050555042600754604051602001612581929190613b63565b6040516020818303038152906040528051906020012060001c905090565b6000600160038111156125b5576125b4612b9f565b5b6002600084815260200190815260200160002060060160009054906101000a900460ff1660038111156125eb576125ea612b9f565b5b1461262b576040517f08c379a000000000000000000000000000000000000000000000000000000000815260040161262290613bdb565b60405180910390fd5b60006002600084815260200190815260200160002060070154905060006001905080826126589190613bfb565b92505050919050565b82805482825590600052602060002090810192821561269d579160200282015b8281111561269c578251825591602001919060010190612681565b5b5090506126aa91906126ae565b5090565b5b808211156126c75760008160009055506001016126af565b5090565b6000604051905090565b600080fd5b600080fd5b600581106126ec57600080fd5b50565b6000813590506126fe816126df565b92915050565b6000819050919050565b61271781612704565b811461272257600080fd5b50565b6000813590506127348161270e565b92915050565b60008060408385031215612751576127506126d5565b5b600061275f858286016126ef565b925050602061277085828601612725565b9150509250929050565b600080fd5b600080fd5b6000601f19601f8301169050919050565b7f4e487b7100000000000000000000000000000000000000000000000000000000600052604160045260246000fd5b6127cd82612784565b810181811067ffffffffffffffff821117156127ec576127eb612795565b5b80604052505050565b60006127ff6126cb565b905061280b82826127c4565b919050565b600067ffffffffffffffff82111561282b5761282a612795565b5b61283482612784565b9050602081019050919050565b82818337600083830152505050565b600061286361285e84612810565b6127f5565b90508281526020810184848401111561287f5761287e61277f565b5b61288a848285612841565b509392505050565b600082601f8301126128a7576128a661277a565b5b81356128b7848260208601612850565b91505092915050565b600481106128cd57600080fd5b50565b6000813590506128df816128c0565b92915050565b600080600080600060a08688031215612901576129006126d5565b5b600086013567ffffffffffffffff81111561291f5761291e6126da565b5b61292b88828901612892565b955050602061293c888289016128d0565b945050604086013567ffffffffffffffff81111561295d5761295c6126da565b5b61296988828901612892565b935050606086013567ffffffffffffffff81111561298a576129896126da565b5b61299688828901612892565b92505060806129a7888289016126ef565b9150509295509295909350565b6129bd81612704565b82525050565b60006020820190506129d860008301846129b4565b92915050565b600073ffffffffffffffffffffffffffffffffffffffff82169050919050565b6000612a09826129de565b9050919050565b612a19816129fe565b8114612a2457600080fd5b50565b600081359050612a3681612a10565b92915050565b60008060408385031215612a5357612a526126d5565b5b6000612a6185828601612725565b9250506020612a7285828601612a27565b9150509250929050565b600060208284031215612a9257612a916126d5565b5b6000612aa084828501612725565b91505092915050565b612ab2816129fe565b82525050565b600081519050919050565b600082825260208201905092915050565b60005b83811015612af2578082015181840152602081019050612ad7565b60008484015250505050565b6000612b0982612ab8565b612b138185612ac3565b9350612b23818560208601612ad4565b612b2c81612784565b840191505092915050565b600060c082019050612b4c60008301896129b4565b612b596020830188612aa9565b612b666040830187612aa9565b612b7360608301866129b4565b612b8060808301856129b4565b81810360a0830152612b928184612afe565b9050979650505050505050565b7f4e487b7100000000000000000000000000000000000000000000000000000000600052602160045260246000fd5b60058110612bdf57612bde612b9f565b5b50565b6000819050612bf082612bce565b919050565b6000612c0082612be2565b9050919050565b612c1081612bf5565b82525050565b60048110612c2757612c26612b9f565b5b50565b6000819050612c3882612c16565b919050565b6000612c4882612c2a565b9050919050565b612c5881612c3d565b82525050565b600061016082019050612c74600083018e6129b4565b612c81602083018d612aa9565b612c8e604083018c612aa9565b612c9b606083018b612aa9565b612ca8608083018a612aa9565b612cb560a0830189612c07565b612cc260c08301886129b4565b612ccf60e0830187612c4f565b612cdd610100830186612aa9565b612ceb610120830185612c4f565b612cf96101408301846129b4565b9c9b505050505050505050505050565b6000602082019050612d1e6000830184612aa9565b92915050565b60028110612d3557612d34612b9f565b5b50565b6000819050612d4682612d24565b919050565b6000612d5682612d38565b9050919050565b612d6681612d4b565b82525050565b600060e082019050612d81600083018a6129b4565b612d8e6020830189612aa9565b612d9b6040830188612aa9565b612da86060830187612aa9565b612db560808301866129b4565b612dc260a08301856129b4565b612dcf60c0830184612d5d565b98975050505050505050565b600080600080600060a08688031215612df757612df66126d5565b5b6000612e0588828901612725565b9550506020612e1688828901612a27565b9450506040612e2788828901612725565b9350506060612e3888828901612725565b925050608086013567ffffffffffffffff811115612e5957612e586126da565b5b612e6588828901612892565b9150509295509295909350565b600060208284031215612e8857612e876126d5565b5b6000612e9684828501612a27565b91505092915050565b600082825260208201905092915050565b6000612ebb82612ab8565b612ec58185612e9f565b9350612ed5818560208601612ad4565b612ede81612784565b840191505092915050565b60048110612efa57612ef9612b9f565b5b50565b6000819050612f0b82612ee9565b919050565b6000612f1b82612efd565b9050919050565b612f2b81612f10565b82525050565b612f3a81612bf5565b82525050565b612f4981612704565b82525050565b600060e0830160008301518482036000860152612f6c8282612eb0565b9150506020830151612f816020860182612f22565b5060408301518482036040860152612f998282612eb0565b91505060608301518482036060860152612fb38282612eb0565b9150506080830151612fc86080860182612f31565b5060a0830151612fdb60a0860182612f40565b5060c0830151612fee60c0860182612f40565b508091505092915050565b600060208201905081810360008301526130138184612f4f565b905092915050565b600060208284031215613031576130306126d5565b5b600061303f848285016126ef565b91505092915050565b6002811061305957613058612b9f565b5b50565b600081905061306a82613048565b919050565b600061307a8261305c565b9050919050565b61308a8161306f565b82525050565b60006060820190506130a56000830186612c07565b6130b260208301856129b4565b6130bf6040830184613081565b949350505050565b7f4f6e6c79206d65646963616c2073746166662063616e2063616c6c207468697360008201527f2066756e6374696f6e0000000000000000000000000000000000000000000000602082015250565b6000613123602983612ac3565b915061312e826130c7565b604082019050919050565b6000602082019050818103600083015261315281613116565b9050919050565b7f426c6f6f642074797065206e6f7420617661696c61626c650000000000000000600082015250565b600061318f601883612ac3565b915061319a82613159565b602082019050919050565b600060208201905081810360008301526131be81613182565b9050919050565b7f496e73756666696369656e7420626c6f6f6420766f6c756d6500000000000000600082015250565b60006131fb601983612ac3565b9150613206826131c5565b602082019050919050565b6000602082019050818103600083015261322a816131ee565b9050919050565b7f446f6e6f72732063616e6e6f74206265206164646564206469726563746c792e60008201527f2055736520646f6e617465426c6f6f64546f4d65646963616c43656e7465722e602082015250565b600061328d604083612ac3565b915061329882613231565b604082019050919050565b600060208201905081810360008301526132bc81613280565b9050919050565b7f4e487b7100000000000000000000000000000000000000000000000000000000600052602260045260246000fd5b6000600282049050600182168061330a57607f821691505b60208210810361331d5761331c6132c3565b5b50919050565b60008190508160005260206000209050919050565b60006020601f8301049050919050565b600082821b905092915050565b6000600883026133857fffffffffffffffffffffffffffffffffffffffffffffffffffffffffffffffff82613348565b61338f8683613348565b95508019841693508086168417925050509392505050565b6000819050919050565b60006133cc6133c76133c284612704565b6133a7565b612704565b9050919050565b6000819050919050565b6133e6836133b1565b6133fa6133f2826133d3565b848454613355565b825550505050565b600090565b61340f613402565b61341a8184846133dd565b505050565b5b8181101561343e57613433600082613407565b600181019050613420565b5050565b601f8211156134835761345481613323565b61345d84613338565b8101602085101561346c578190505b61348061347885613338565b83018261341f565b50505b505050565b600082821c905092915050565b60006134a660001984600802613488565b1980831691505092915050565b60006134bf8383613495565b9150826002028217905092915050565b6134d882612ab8565b67ffffffffffffffff8111156134f1576134f0612795565b5b6134fb82546132f2565b613506828285613442565b600060209050601f8311600181146135395760008415613527578287015190505b61353185826134b3565b865550613599565b601f19841661354786613323565b60005b8281101561356f5784890151825560018201915060208501945060208101905061354a565b8683101561358c5784890151613588601f891682613495565b8355505b6001600288020188555050505b505050505050565b7f4d65646963616c2063656e7465722070726f63657373206e6f7420636f6d706c60008201527f6574656400000000000000000000000000000000000000000000000000000000602082015250565b60006135fd602483612ac3565b9150613608826135a1565b604082019050919050565b6000602082019050818103600083015261362c816135f0565b9050919050565b7f496e76616c696420726563697069656e74206164647265737300000000000000600082015250565b6000613669601983612ac3565b915061367482613633565b602082019050919050565b600060208201905081810360008301526136988161365c565b9050919050565b7f4f6e6c7920646f6e6f72732063616e20696e69746961746520626c6f6f64206460008201527f6f6e6174696f6e00000000000000000000000000000000000000000000000000602082015250565b60006136fb602783612ac3565b91506137068261369f565b604082019050919050565b6000602082019050818103600083015261372a816136ee565b9050919050565b7f446f6e6f722068617320616c726561647920696e69746961746564206120646f60008201527f6e6174696f6e0000000000000000000000000000000000000000000000000000602082015250565b600061378d602683612ac3565b915061379882613731565b604082019050919050565b600060208201905081810360008301526137bc81613780565b9050919050565b7f4f6e6c79207472616e73706f72746572732063616e2063616c6c20746869732060008201527f66756e6374696f6e000000000000000000000000000000000000000000000000602082015250565b600061381f602883612ac3565b915061382a826137c3565b604082019050919050565b6000602082019050818103600083015261384e81613812565b9050919050565b7f5472616e73706f72746174696f6e20616c726561647920636f6d706c6574656460008201527f206f72206e6f7420696e69746961746564000000000000000000000000000000602082015250565b60006138b1603183612ac3565b91506138bc82613855565b604082019050919050565b600060208201905081810360008301526138e0816138a4565b9050919050565b7f566f6c756d65206d7573742062652067726561746572207468616e207a65726f600082015250565b600061391d602083612ac3565b9150613928826138e7565b602082019050919050565b6000602082019050818103600083015261394c81613910565b9050919050565b7f426c6f6f64207479706520616c72656164792072657175657374656400000000600082015250565b6000613989601c83612ac3565b915061399482613953565b602082019050919050565b600060208201905081810360008301526139b88161397c565b9050919050565b7f4e487b7100000000000000000000000000000000000000000000000000000000600052601160045260246000fd5b60006139f982612704565b9150613a0483612704565b9250828201905080821115613a1c57613a1b6139bf565b5b92915050565b7f496e76616c6964207472616e73616374696f6e20737461747573000000000000600082015250565b6000613a58601a83612ac3565b9150613a6382613a22565b602082019050919050565b60006020820190508181036000830152613a8781613a4b565b9050919050565b7f496e76616c696420646f6e6f7220616464726573730000000000000000000000600082015250565b6000613ac4601583612ac3565b9150613acf82613a8e565b602082019050919050565b60006020820190508181036000830152613af381613ab7565b9050919050565b6000613b0582612704565b91507fffffffffffffffffffffffffffffffffffffffffffffffffffffffffffffffff8203613b3757613b366139bf565b5b600182019050919050565b6000819050919050565b613b5d613b5882612704565b613b42565b82525050565b6000613b6f8285613b4c565b602082019150613b7f8284613b4c565b6020820191508190509392505050565b7f5472616e73616374696f6e206e6f7420636f6d706c6574656400000000000000600082015250565b6000613bc5601983612ac3565b9150613bd082613b8f565b602082019050919050565b60006020820190508181036000830152613bf481613bb8565b9050919050565b6000613c0682612704565b9150613c1183612704565b9250828202613c1f81612704565b91508282048414831517613c3657613c356139bf565b5b509291505056fea2646970667358221220c738f4d8c81e6a30de5f20d372a08fb99933f4d3b48c84fbd6c814720c80344064736f6c63430008130033",
  "immutableReferences": {},
  "source": "// SPDX-License-Identifier: MIT\npragma solidity ^0.8.19;\n\ncontract BloodDonationBlockchainSystem {\n    enum UserType {Donor, Recipient, MedicalStaff, Transporter}\n    enum BloodType {A, B, AB, O, Other}\n    enum TransactionStatus {Pending, Completed, MedicalCenterPending, MedicalCenterCompleted}\n    enum TransportationStatus {InTransit, Delivered}\n    enum BloodSupplyStatus {Available, Requested}\n\n    struct User {\n        string userName;\n        UserType userType;\n        string contactNumber;\n        string userAddress;\n        BloodType bloodType;\n        uint256 donatedVolume;\n        uint256 totalPayment;\n    }\n\n    struct Donor {\n        User user;\n        uint256[] donationHistory;\n    }\n\n    struct DonationTransaction {\n        uint256 transactionID;\n        address donor;\n        address recipient;\n        address medicalStaff;\n        address transporter;\n        BloodType bloodType;\n        uint256 donationDate;\n        TransactionStatus status;\n        address medicalCenter;\n        TransactionStatus medicalCenterStatus;\n        uint256 donatedVolume;\n    }\n\n    struct MedicalRecord {\n        uint256 recordID;\n        address donor;\n        address medicalStaff;\n        uint256 bloodPressure;\n        uint256 hemoglobinLevel;\n        string bloodTestResults;\n        uint256[] donationHistory;\n    }\n\n    struct TransportationRecord {\n        uint256 recordID;\n        address transporter;\n        address donor;\n        address recipient;\n        uint256 pickupDateTime;\n        uint256 deliveryDateTime;\n        TransportationStatus status;\n    }\n\n    struct BloodSupply {\n        BloodType bloodType;\n        uint256 volume;\n        BloodSupplyStatus status;\n    }\n\n    address public owner;\n    mapping(address => Donor) public donors;\n    mapping(uint256 => DonationTransaction) public donationTransactions;\n    mapping(uint256 => MedicalRecord) public medicalRecords;\n    mapping(uint256 => TransportationRecord) public transportationRecords;\n    mapping(BloodType => BloodSupply) public bloodSupplies;\n\n    uint256 public transactionCounter;\n    uint256 public recordCounter;\n\n    modifier onlyOwner() {\n        require(msg.sender == owner, \"Only the owner can call this function\");\n        _;\n    }\n\n    modifier onlyMedicalStaff() {\n        require(donors[msg.sender].user.userType == UserType.MedicalStaff, \"Only medical staff can call this function\");\n        _;\n    }\n\n    modifier onlyTransporter() {\n        require(donors[msg.sender].user.userType == UserType.Transporter, \"Only transporters can call this function\");\n        _;\n    }\n\n    constructor(){\n        owner = msg.sender;\n    }\n\n    function addUser(\n        string memory _userName,\n        UserType _userType,\n        string memory _contactNumber,\n        string memory _userAddress,\n        BloodType _bloodType\n    ) public {\n        require(_userType != UserType.Donor, \"Donors cannot be added directly. Use donateBloodToMedicalCenter.\");\n        donors[msg.sender] = Donor({\n            user: User({\n                userName: _userName,\n                userType: _userType,\n                contactNumber: _contactNumber,\n                userAddress: _userAddress,\n                bloodType: _bloodType,\n                donatedVolume: 0,\n                totalPayment: 0\n            }),\n            donationHistory: new uint256[](0)\n        });\n    }\n\n    function donateBloodToMedicalCenter() public {\n        require(donors[msg.sender].user.userType == UserType.Donor, \"Only donors can initiate blood donation\");\n        require(donors[msg.sender].user.bloodType != BloodType.Other, \"Donor has already initiated a donation\");\n\n        uint256 transactionID = generateTransactionID();\n        donationTransactions[transactionID] = DonationTransaction({\n            transactionID: transactionID,\n            donor: msg.sender,\n            recipient: address(0),\n            medicalStaff: address(0),\n            transporter: address(0),\n            bloodType: donors[msg.sender].user.bloodType,\n            donationDate: block.timestamp,\n            status: TransactionStatus.MedicalCenterPending,\n            medicalCenter: address(0),\n            medicalCenterStatus: TransactionStatus.Pending,\n            donatedVolume: 0\n        });\n\n        donors[msg.sender].user.bloodType = BloodType.Other;\n\n        // Increment the transaction count\n        // transactionCounter++;\n    }\n\n    function completeDonationToMedicalCenter(\n        uint256 _transactionID,\n        address _medicalCenter,\n        uint256 _bloodPressure,\n        uint256 _hemoglobinLevel,\n        string memory _bloodTestResults\n    ) public onlyMedicalStaff {\n        require(donationTransactions[_transactionID].status == TransactionStatus.MedicalCenterPending, \"Invalid transaction status\");\n        require(donationTransactions[_transactionID].donor != address(0), \"Invalid donor address\");\n\n        donationTransactions[_transactionID].medicalStaff = msg.sender;\n        donationTransactions[_transactionID].medicalCenter = _medicalCenter;\n        donationTransactions[_transactionID].medicalCenterStatus = TransactionStatus.Completed;\n        donationTransactions[_transactionID].status = TransactionStatus.Completed;\n\n        donors[donationTransactions[_transactionID].donor].user.donatedVolume += calculateDonatedVolume(_transactionID);\n\n        uint256 recordID = generateRecordID();\n        medicalRecords[recordID] = MedicalRecord({\n            recordID: recordID,\n            donor: donationTransactions[_transactionID].donor,\n            medicalStaff: msg.sender,\n            bloodPressure: _bloodPressure,\n            hemoglobinLevel: _hemoglobinLevel,\n            bloodTestResults: _bloodTestResults,\n            donationHistory: new uint256[](0)\n        });\n\n        donors[donationTransactions[_transactionID].donor].donationHistory.push(_transactionID);\n\n        uint256 payment = calculatePayment(donors[donationTransactions[_transactionID].donor].user.donatedVolume);\n        donors[donationTransactions[_transactionID].donor].user.totalPayment += payment;\n        payable(msg.sender).transfer(payment);\n    }\n\n    function initiateTransportation(uint256 _transactionID, address _recipient) public onlyMedicalStaff {\n        require(donationTransactions[_transactionID].status == TransactionStatus.Completed, \"Medical center process not completed\");\n        require(donors[_recipient].user.userType == UserType.Recipient, \"Invalid recipient address\");\n\n        uint256 transactionID = generateTransactionID();\n        donationTransactions[transactionID] = DonationTransaction({\n            transactionID: transactionID,\n            donor: donationTransactions[_transactionID].donor,\n            recipient: _recipient,\n            medicalStaff: msg.sender,\n            transporter: address(0),\n            bloodType: donationTransactions[_transactionID].bloodType,\n            donationDate: block.timestamp,\n            status: TransactionStatus.Pending,\n            medicalCenter: address(0),\n            medicalCenterStatus: TransactionStatus.Completed,\n            donatedVolume: 0\n        });\n    }\n\n    function completeTransportation(uint256 _recordID) public onlyTransporter {\n        require(transportationRecords[_recordID].status == TransportationStatus.InTransit, \"Transportation already completed or not initiated\");\n        transportationRecords[_recordID].deliveryDateTime = block.timestamp;\n        transportationRecords[_recordID].status = TransportationStatus.Delivered;\n    }\n\n    function calculateDonatedVolume(uint256 _transactionID) internal view returns (uint256) {\n        require(donationTransactions[_transactionID].status == TransactionStatus.Completed, \"Transaction not completed\");\n        return donationTransactions[_transactionID].donatedVolume;\n    }\n\n    function calculatePayment(uint256 _transactionID) internal view returns (uint256) {\n        require(donationTransactions[_transactionID].status == TransactionStatus.Completed, \"Transaction not completed\");\n        // Assuming a fixed payment rate for simplicity\n        uint256 _donatedVolume = donationTransactions[_transactionID].donatedVolume;\n        uint256 paymentRate = 1 wei; // Adjust this based on your actual payment logic\n        return _donatedVolume * paymentRate;\n    }\n\n    function addBloodSupply(BloodType _bloodType, uint256 _volume) public onlyMedicalStaff {\n        require(_volume > 0, \"Volume must be greater than zero\");\n        require(bloodSupplies[_bloodType].status != BloodSupplyStatus.Requested, \"Blood type already requested\");\n\n        if (bloodSupplies[_bloodType].status == BloodSupplyStatus.Available) {\n            bloodSupplies[_bloodType].volume += _volume;\n        } else {\n            bloodSupplies[_bloodType] = BloodSupply({\n                bloodType: _bloodType,\n                volume: _volume,\n                status: BloodSupplyStatus.Available\n            });\n        }\n    }\n\n    function requestBloodType(BloodType _bloodType, uint256 _volume) public onlyMedicalStaff {\n        require(bloodSupplies[_bloodType].status == BloodSupplyStatus.Available, \"Blood type not available\");\n        require(bloodSupplies[_bloodType].volume >= _volume, \"Insufficient blood volume\");\n\n        // You can add more logic here to handle the request\n        // For example, update the blood supply status or create a new transaction record\n    } \n\n    function generateTransactionID() internal returns (uint256) {\n        transactionCounter++;\n        return uint256(keccak256(abi.encodePacked(block.timestamp, transactionCounter)));\n    }\n\n    function generateRecordID() internal returns (uint256) {\n        recordCounter++;\n        return uint256(keccak256(abi.encodePacked(block.timestamp, recordCounter)));\n    }\n\n}\n",
  "sourcePath": "/home/temba/Desktop/blood-donation-blockchain-system/client-side/contracts/BloodDonationBlockchainSystem.sol",
  "compiler": {
    "name": "solc",
    "version": "0.8.19+commit.7dd6d404.Emscripten.clang"
  },
  "schemaVersion": "3.4.16",
  "updatedAt": "2024-02-21T13:36:25.134Z",
  "networkType": "ethereum",
  "devdoc": {
    "kind": "dev",
    "methods": {},
    "version": 1
  },
  "userdoc": {
    "kind": "user",
    "methods": {},
    "version": 1
  }
}