{
  "contractName": "DonationContract",
  "abi": [
    {
      "inputs": [
        {
          "internalType": "uint256",
          "name": "",
          "type": "uint256"
        }
      ],
      "name": "donationTransactions",
      "outputs": [
        {
          "internalType": "uint256",
          "name": "transactionID",
          "type": "uint256"
        },
        {
          "internalType": "address",
          "name": "donor",
          "type": "address"
        },
        {
          "internalType": "address",
          "name": "recipient",
          "type": "address"
        },
        {
          "internalType": "address",
          "name": "medicalStaff",
          "type": "address"
        },
        {
          "internalType": "address",
          "name": "transporter",
          "type": "address"
        },
        {
          "internalType": "enum DonationContract.BloodType",
          "name": "bloodType",
          "type": "uint8"
        },
        {
          "internalType": "uint256",
          "name": "donationDate",
          "type": "uint256"
        },
        {
          "internalType": "enum DonationContract.TransactionStatus",
          "name": "status",
          "type": "uint8"
        },
        {
          "internalType": "address",
          "name": "medicalCenter",
          "type": "address"
        },
        {
          "internalType": "enum DonationContract.TransactionStatus",
          "name": "medicalCenterStatus",
          "type": "uint8"
        },
        {
          "internalType": "uint256",
          "name": "donatedVolume",
          "type": "uint256"
        }
      ],
      "stateMutability": "view",
      "type": "function"
    },
    {
      "inputs": [
        {
          "internalType": "string",
          "name": "_userName",
          "type": "string"
        },
        {
          "internalType": "enum UserContract.UserType",
          "name": "_userType",
          "type": "uint8"
        },
        {
          "internalType": "string",
          "name": "_contactNumber",
          "type": "string"
        },
        {
          "internalType": "string",
          "name": "_userAddress",
          "type": "string"
        }
      ],
      "name": "registerUser",
      "outputs": [],
      "stateMutability": "nonpayable",
      "type": "function"
    },
    {
      "inputs": [],
      "name": "transactionCounter",
      "outputs": [
        {
          "internalType": "uint256",
          "name": "",
          "type": "uint256"
        }
      ],
      "stateMutability": "view",
      "type": "function"
    },
    {
      "inputs": [
        {
          "internalType": "address",
          "name": "",
          "type": "address"
        }
      ],
      "name": "users",
      "outputs": [
        {
          "internalType": "string",
          "name": "userName",
          "type": "string"
        },
        {
          "internalType": "enum UserContract.UserType",
          "name": "userType",
          "type": "uint8"
        },
        {
          "internalType": "string",
          "name": "contactNumber",
          "type": "string"
        },
        {
          "internalType": "string",
          "name": "userAddress",
          "type": "string"
        }
      ],
      "stateMutability": "view",
      "type": "function"
    },
    {
      "inputs": [
        {
          "internalType": "address",
          "name": "_recipient",
          "type": "address"
        },
        {
          "internalType": "enum DonationContract.BloodType",
          "name": "_bloodType",
          "type": "uint8"
        }
      ],
      "name": "initiateDonation",
      "outputs": [],
      "stateMutability": "nonpayable",
      "type": "function"
    }
  ],
  "bytecode": "0x608060405234801561001057600080fd5b50611046806100206000396000f3fe608060405234801561001057600080fd5b50600436106100575760003560e01c80630a41c9bc1461005c57806314e887e814610078578063726a3be9146100965780638acd0bfc146100b2578063a87430ba146100ec575b600080fd5b6100766004803603810190610071919061066f565b61011f565b005b6100806101f0565b60405161008d91906106c8565b60405180910390f35b6100b060048036038101906100ab919061084e565b6101f6565b005b6100cc60048036038101906100c79190610935565b6102e2565b6040516100e39b9a99989796959493929190610a30565b60405180910390f35b61010660048036038101906101019190610adb565b610403565b6040516101169493929190610bcf565b60405180910390f35b6000600381111561013357610132610971565b5b6000803373ffffffffffffffffffffffffffffffffffffffff1673ffffffffffffffffffffffffffffffffffffffff16815260200190815260200160002060010160009054906101000a900460ff16600381111561019457610193610971565b5b146101d4576040517f08c379a00000000000000000000000000000000000000000000000000000000081526004016101cb90610c9b565b60405180910390fd5b600260008154809291906101e790610cea565b91905055505050565b60025481565b604051806080016040528085815260200184600381111561021a57610219610971565b5b8152602001838152602001828152506000803373ffffffffffffffffffffffffffffffffffffffff1673ffffffffffffffffffffffffffffffffffffffff168152602001908152602001600020600082015181600001908161027c9190610f3e565b5060208201518160010160006101000a81548160ff021916908360038111156102a8576102a7610971565b5b021790555060408201518160020190816102c29190610f3e565b5060608201518160030190816102d89190610f3e565b5090505050505050565b60016020528060005260406000206000915090508060000154908060010160009054906101000a900473ffffffffffffffffffffffffffffffffffffffff16908060020160009054906101000a900473ffffffffffffffffffffffffffffffffffffffff16908060030160009054906101000a900473ffffffffffffffffffffffffffffffffffffffff16908060040160009054906101000a900473ffffffffffffffffffffffffffffffffffffffff16908060040160149054906101000a900460ff16908060050154908060060160009054906101000a900460ff16908060060160019054906101000a900473ffffffffffffffffffffffffffffffffffffffff16908060060160159054906101000a900460ff1690806007015490508b565b600060205280600052604060002060009150905080600001805461042690610d61565b80601f016020809104026020016040519081016040528092919081815260200182805461045290610d61565b801561049f5780601f106104745761010080835404028352916020019161049f565b820191906000526020600020905b81548152906001019060200180831161048257829003601f168201915b5050505050908060010160009054906101000a900460ff16908060020180546104c790610d61565b80601f01602080910402602001604051908101604052809291908181526020018280546104f390610d61565b80156105405780601f1061051557610100808354040283529160200191610540565b820191906000526020600020905b81548152906001019060200180831161052357829003601f168201915b50505050509080600301805461055590610d61565b80601f016020809104026020016040519081016040528092919081815260200182805461058190610d61565b80156105ce5780601f106105a3576101008083540402835291602001916105ce565b820191906000526020600020905b8154815290600101906020018083116105b157829003601f168201915b5050505050905084565b6000604051905090565b600080fd5b600080fd5b600073ffffffffffffffffffffffffffffffffffffffff82169050919050565b6000610617826105ec565b9050919050565b6106278161060c565b811461063257600080fd5b50565b6000813590506106448161061e565b92915050565b6005811061065757600080fd5b50565b6000813590506106698161064a565b92915050565b60008060408385031215610686576106856105e2565b5b600061069485828601610635565b92505060206106a58582860161065a565b9150509250929050565b6000819050919050565b6106c2816106af565b82525050565b60006020820190506106dd60008301846106b9565b92915050565b600080fd5b600080fd5b6000601f19601f8301169050919050565b7f4e487b7100000000000000000000000000000000000000000000000000000000600052604160045260246000fd5b610736826106ed565b810181811067ffffffffffffffff82111715610755576107546106fe565b5b80604052505050565b60006107686105d8565b9050610774828261072d565b919050565b600067ffffffffffffffff821115610794576107936106fe565b5b61079d826106ed565b9050602081019050919050565b82818337600083830152505050565b60006107cc6107c784610779565b61075e565b9050828152602081018484840111156107e8576107e76106e8565b5b6107f38482856107aa565b509392505050565b600082601f8301126108105761080f6106e3565b5b81356108208482602086016107b9565b91505092915050565b6004811061083657600080fd5b50565b60008135905061084881610829565b92915050565b60008060008060808587031215610868576108676105e2565b5b600085013567ffffffffffffffff811115610886576108856105e7565b5b610892878288016107fb565b94505060206108a387828801610839565b935050604085013567ffffffffffffffff8111156108c4576108c36105e7565b5b6108d0878288016107fb565b925050606085013567ffffffffffffffff8111156108f1576108f06105e7565b5b6108fd878288016107fb565b91505092959194509250565b610912816106af565b811461091d57600080fd5b50565b60008135905061092f81610909565b92915050565b60006020828403121561094b5761094a6105e2565b5b600061095984828501610920565b91505092915050565b61096b8161060c565b82525050565b7f4e487b7100000000000000000000000000000000000000000000000000000000600052602160045260246000fd5b600581106109b1576109b0610971565b5b50565b60008190506109c2826109a0565b919050565b60006109d2826109b4565b9050919050565b6109e2816109c7565b82525050565b600481106109f9576109f8610971565b5b50565b6000819050610a0a826109e8565b919050565b6000610a1a826109fc565b9050919050565b610a2a81610a0f565b82525050565b600061016082019050610a46600083018e6106b9565b610a53602083018d610962565b610a60604083018c610962565b610a6d606083018b610962565b610a7a608083018a610962565b610a8760a08301896109d9565b610a9460c08301886106b9565b610aa160e0830187610a21565b610aaf610100830186610962565b610abd610120830185610a21565b610acb6101408301846106b9565b9c9b505050505050505050505050565b600060208284031215610af157610af06105e2565b5b6000610aff84828501610635565b91505092915050565b600081519050919050565b600082825260208201905092915050565b60005b83811015610b42578082015181840152602081019050610b27565b60008484015250505050565b6000610b5982610b08565b610b638185610b13565b9350610b73818560208601610b24565b610b7c816106ed565b840191505092915050565b60048110610b9857610b97610971565b5b50565b6000819050610ba982610b87565b919050565b6000610bb982610b9b565b9050919050565b610bc981610bae565b82525050565b60006080820190508181036000830152610be98187610b4e565b9050610bf86020830186610bc0565b8181036040830152610c0a8185610b4e565b90508181036060830152610c1e8184610b4e565b905095945050505050565b7f4f6e6c7920646f6e6f72732063616e2063616c6c20746869732066756e63746960008201527f6f6e000000000000000000000000000000000000000000000000000000000000602082015250565b6000610c85602283610b13565b9150610c9082610c29565b604082019050919050565b60006020820190508181036000830152610cb481610c78565b9050919050565b7f4e487b7100000000000000000000000000000000000000000000000000000000600052601160045260246000fd5b6000610cf5826106af565b91507fffffffffffffffffffffffffffffffffffffffffffffffffffffffffffffffff8203610d2757610d26610cbb565b5b600182019050919050565b7f4e487b7100000000000000000000000000000000000000000000000000000000600052602260045260246000fd5b60006002820490506001821680610d7957607f821691505b602082108103610d8c57610d8b610d32565b5b50919050565b60008190508160005260206000209050919050565b60006020601f8301049050919050565b600082821b905092915050565b600060088302610df47fffffffffffffffffffffffffffffffffffffffffffffffffffffffffffffffff82610db7565b610dfe8683610db7565b95508019841693508086168417925050509392505050565b6000819050919050565b6000610e3b610e36610e31846106af565b610e16565b6106af565b9050919050565b6000819050919050565b610e5583610e20565b610e69610e6182610e42565b848454610dc4565b825550505050565b600090565b610e7e610e71565b610e89818484610e4c565b505050565b5b81811015610ead57610ea2600082610e76565b600181019050610e8f565b5050565b601f821115610ef257610ec381610d92565b610ecc84610da7565b81016020851015610edb578190505b610eef610ee785610da7565b830182610e8e565b50505b505050565b600082821c905092915050565b6000610f1560001984600802610ef7565b1980831691505092915050565b6000610f2e8383610f04565b9150826002028217905092915050565b610f4782610b08565b67ffffffffffffffff811115610f6057610f5f6106fe565b5b610f6a8254610d61565b610f75828285610eb1565b600060209050601f831160018114610fa85760008415610f96578287015190505b610fa08582610f22565b865550611008565b601f198416610fb686610d92565b60005b82811015610fde57848901518255600182019150602085019450602081019050610fb9565b86831015610ffb5784890151610ff7601f891682610f04565b8355505b6001600288020188555050505b50505050505056fea2646970667358221220a6d964792a03f3c5ad2f1c865271b5e870d67842d704854b18544bb370028cf464736f6c63430008130033",
  "immutableReferences": {},
  "source": "// SPDX-License-Identifier: MIT\npragma solidity ^0.8.0;\nimport \"./UserContract.sol\";\n\n// Smart contract for donation-related functionalities\ncontract DonationContract is UserContract {\n    enum BloodType {A, B, AB, O, Other}\n    enum TransactionStatus {Pending, Completed, MedicalCenterPending, MedicalCenterCompleted}\n\n    struct DonationTransaction {\n        uint256 transactionID;\n        address donor;\n        address recipient;\n        address medicalStaff;\n        address transporter;\n        BloodType bloodType;\n        uint256 donationDate;\n        TransactionStatus status;\n        address medicalCenter;\n        TransactionStatus medicalCenterStatus;\n        uint256 donatedVolume;\n    }\n\n    mapping(uint256 => DonationTransaction) public donationTransactions;\n    uint256 public transactionCounter;\n\n    modifier onlyDonor() {\n        require(users[msg.sender].userType == UserType.Donor, \"Only donors can call this function\");\n        _;\n    }\n\n    function initiateDonation(\n        address _recipient,\n        BloodType _bloodType\n    ) external onlyDonor {\n        // Implement donation initiation logic\n        // ...\n\n        // Increment transaction counter\n        transactionCounter++;\n    }\n}",
  "sourcePath": "/home/temba/Desktop/blood-donation-blockchain-system/client-side/contracts/DonationContract.sol",
  "compiler": {
    "name": "solc",
    "version": "0.8.19+commit.7dd6d404.Emscripten.clang"
  },
  "schemaVersion": "3.4.16",
  "updatedAt": "2024-02-21T13:35:55.301Z",
  "devdoc": {
    "kind": "dev",
    "methods": {},
    "version": 1
  },
  "userdoc": {
    "kind": "user",
    "methods": {},
    "version": 1
  }
}