{
  "contractName": "MedicalContract",
  "abi": [
    {
      "inputs": [
        {
          "internalType": "uint256",
          "name": "",
          "type": "uint256"
        }
      ],
      "name": "medicalRecords",
      "outputs": [
        {
          "internalType": "uint256",
          "name": "recordID",
          "type": "uint256"
        },
        {
          "internalType": "address",
          "name": "donor",
          "type": "address"
        },
        {
          "internalType": "address",
          "name": "medicalStaff",
          "type": "address"
        },
        {
          "internalType": "uint256",
          "name": "bloodPressure",
          "type": "uint256"
        },
        {
          "internalType": "uint256",
          "name": "hemoglobinLevel",
          "type": "uint256"
        },
        {
          "internalType": "string",
          "name": "bloodTestResults",
          "type": "string"
        }
      ],
      "stateMutability": "view",
      "type": "function"
    },
    {
      "inputs": [],
      "name": "recordCounter",
      "outputs": [
        {
          "internalType": "uint256",
          "name": "",
          "type": "uint256"
        }
      ],
      "stateMutability": "view",
      "type": "function"
    },
    {
      "inputs": [
        {
          "internalType": "string",
          "name": "_userName",
          "type": "string"
        },
        {
          "internalType": "enum UserContract.UserType",
          "name": "_userType",
          "type": "uint8"
        },
        {
          "internalType": "string",
          "name": "_contactNumber",
          "type": "string"
        },
        {
          "internalType": "string",
          "name": "_userAddress",
          "type": "string"
        }
      ],
      "name": "registerUser",
      "outputs": [],
      "stateMutability": "nonpayable",
      "type": "function"
    },
    {
      "inputs": [
        {
          "internalType": "address",
          "name": "",
          "type": "address"
        }
      ],
      "name": "users",
      "outputs": [
        {
          "internalType": "string",
          "name": "userName",
          "type": "string"
        },
        {
          "internalType": "enum UserContract.UserType",
          "name": "userType",
          "type": "uint8"
        },
        {
          "internalType": "string",
          "name": "contactNumber",
          "type": "string"
        },
        {
          "internalType": "string",
          "name": "userAddress",
          "type": "string"
        }
      ],
      "stateMutability": "view",
      "type": "function"
    },
    {
      "inputs": [
        {
          "internalType": "address",
          "name": "_donor",
          "type": "address"
        },
        {
          "internalType": "uint256",
          "name": "_bloodPressure",
          "type": "uint256"
        },
        {
          "internalType": "uint256",
          "name": "_hemoglobinLevel",
          "type": "uint256"
        },
        {
          "internalType": "string",
          "name": "_bloodTestResults",
          "type": "string"
        }
      ],
      "name": "completeMedicalCheckup",
      "outputs": [],
      "stateMutability": "nonpayable",
      "type": "function"
    }
  ],
  "bytecode": "0x608060405234801561001057600080fd5b50610f71806100206000396000f3fe608060405234801561001057600080fd5b50600436106100575760003560e01c8063726a3be91461005c5780637564a13c146100785780637599be5d146100ad578063a87430ba146100cb578063e00f77c0146100fe575b600080fd5b61007660048036038101906100719190610737565b61011a565b005b610092600480360381019061008d9190610828565b610206565b6040516100a496959493929190610924565b60405180910390f35b6100b561030a565b6040516100c2919061098c565b60405180910390f35b6100e560048036038101906100e091906109d3565b610310565b6040516100f59493929190610a77565b60405180910390f35b61011860048036038101906101139190610ad1565b6104e5565b005b604051806080016040528085815260200184600381111561013e5761013d610a00565b5b8152602001838152602001828152506000803373ffffffffffffffffffffffffffffffffffffffff1673ffffffffffffffffffffffffffffffffffffffff16815260200190815260200160002060008201518160000190816101a09190610d60565b5060208201518160010160006101000a81548160ff021916908360038111156101cc576101cb610a00565b5b021790555060408201518160020190816101e69190610d60565b5060608201518160030190816101fc9190610d60565b5090505050505050565b60016020528060005260406000206000915090508060000154908060010160009054906101000a900473ffffffffffffffffffffffffffffffffffffffff16908060020160009054906101000a900473ffffffffffffffffffffffffffffffffffffffff169080600301549080600401549080600501805461028790610b83565b80601f01602080910402602001604051908101604052809291908181526020018280546102b390610b83565b80156103005780601f106102d557610100808354040283529160200191610300565b820191906000526020600020905b8154815290600101906020018083116102e357829003601f168201915b5050505050905086565b60025481565b600060205280600052604060002060009150905080600001805461033390610b83565b80601f016020809104026020016040519081016040528092919081815260200182805461035f90610b83565b80156103ac5780601f10610381576101008083540402835291602001916103ac565b820191906000526020600020905b81548152906001019060200180831161038f57829003601f168201915b5050505050908060010160009054906101000a900460ff16908060020180546103d490610b83565b80601f016020809104026020016040519081016040528092919081815260200182805461040090610b83565b801561044d5780601f106104225761010080835404028352916020019161044d565b820191906000526020600020905b81548152906001019060200180831161043057829003601f168201915b50505050509080600301805461046290610b83565b80601f016020809104026020016040519081016040528092919081815260200182805461048e90610b83565b80156104db5780601f106104b0576101008083540402835291602001916104db565b820191906000526020600020905b8154815290600101906020018083116104be57829003601f168201915b5050505050905084565b600260038111156104f9576104f8610a00565b5b6000803373ffffffffffffffffffffffffffffffffffffffff1673ffffffffffffffffffffffffffffffffffffffff16815260200190815260200160002060010160009054906101000a900460ff16600381111561055a57610559610a00565b5b1461059a576040517f08c379a000000000000000000000000000000000000000000000000000000000815260040161059190610ea4565b60405180910390fd5b600260008154809291906105ad90610ef3565b919050555050505050565b6000604051905090565b600080fd5b600080fd5b600080fd5b600080fd5b6000601f19601f8301169050919050565b7f4e487b7100000000000000000000000000000000000000000000000000000000600052604160045260246000fd5b61061f826105d6565b810181811067ffffffffffffffff8211171561063e5761063d6105e7565b5b80604052505050565b60006106516105b8565b905061065d8282610616565b919050565b600067ffffffffffffffff82111561067d5761067c6105e7565b5b610686826105d6565b9050602081019050919050565b82818337600083830152505050565b60006106b56106b084610662565b610647565b9050828152602081018484840111156106d1576106d06105d1565b5b6106dc848285610693565b509392505050565b600082601f8301126106f9576106f86105cc565b5b81356107098482602086016106a2565b91505092915050565b6004811061071f57600080fd5b50565b60008135905061073181610712565b92915050565b60008060008060808587031215610751576107506105c2565b5b600085013567ffffffffffffffff81111561076f5761076e6105c7565b5b61077b878288016106e4565b945050602061078c87828801610722565b935050604085013567ffffffffffffffff8111156107ad576107ac6105c7565b5b6107b9878288016106e4565b925050606085013567ffffffffffffffff8111156107da576107d96105c7565b5b6107e6878288016106e4565b91505092959194509250565b6000819050919050565b610805816107f2565b811461081057600080fd5b50565b600081359050610822816107fc565b92915050565b60006020828403121561083e5761083d6105c2565b5b600061084c84828501610813565b91505092915050565b61085e816107f2565b82525050565b600073ffffffffffffffffffffffffffffffffffffffff82169050919050565b600061088f82610864565b9050919050565b61089f81610884565b82525050565b600081519050919050565b600082825260208201905092915050565b60005b838110156108df5780820151818401526020810190506108c4565b60008484015250505050565b60006108f6826108a5565b61090081856108b0565b93506109108185602086016108c1565b610919816105d6565b840191505092915050565b600060c0820190506109396000830189610855565b6109466020830188610896565b6109536040830187610896565b6109606060830186610855565b61096d6080830185610855565b81810360a083015261097f81846108eb565b9050979650505050505050565b60006020820190506109a16000830184610855565b92915050565b6109b081610884565b81146109bb57600080fd5b50565b6000813590506109cd816109a7565b92915050565b6000602082840312156109e9576109e86105c2565b5b60006109f7848285016109be565b91505092915050565b7f4e487b7100000000000000000000000000000000000000000000000000000000600052602160045260246000fd5b60048110610a4057610a3f610a00565b5b50565b6000819050610a5182610a2f565b919050565b6000610a6182610a43565b9050919050565b610a7181610a56565b82525050565b60006080820190508181036000830152610a9181876108eb565b9050610aa06020830186610a68565b8181036040830152610ab281856108eb565b90508181036060830152610ac681846108eb565b905095945050505050565b60008060008060808587031215610aeb57610aea6105c2565b5b6000610af9878288016109be565b9450506020610b0a87828801610813565b9350506040610b1b87828801610813565b925050606085013567ffffffffffffffff811115610b3c57610b3b6105c7565b5b610b48878288016106e4565b91505092959194509250565b7f4e487b7100000000000000000000000000000000000000000000000000000000600052602260045260246000fd5b60006002820490506001821680610b9b57607f821691505b602082108103610bae57610bad610b54565b5b50919050565b60008190508160005260206000209050919050565b60006020601f8301049050919050565b600082821b905092915050565b600060088302610c167fffffffffffffffffffffffffffffffffffffffffffffffffffffffffffffffff82610bd9565b610c208683610bd9565b95508019841693508086168417925050509392505050565b6000819050919050565b6000610c5d610c58610c53846107f2565b610c38565b6107f2565b9050919050565b6000819050919050565b610c7783610c42565b610c8b610c8382610c64565b848454610be6565b825550505050565b600090565b610ca0610c93565b610cab818484610c6e565b505050565b5b81811015610ccf57610cc4600082610c98565b600181019050610cb1565b5050565b601f821115610d1457610ce581610bb4565b610cee84610bc9565b81016020851015610cfd578190505b610d11610d0985610bc9565b830182610cb0565b50505b505050565b600082821c905092915050565b6000610d3760001984600802610d19565b1980831691505092915050565b6000610d508383610d26565b9150826002028217905092915050565b610d69826108a5565b67ffffffffffffffff811115610d8257610d816105e7565b5b610d8c8254610b83565b610d97828285610cd3565b600060209050601f831160018114610dca5760008415610db8578287015190505b610dc28582610d44565b865550610e2a565b601f198416610dd886610bb4565b60005b82811015610e0057848901518255600182019150602085019450602081019050610ddb565b86831015610e1d5784890151610e19601f891682610d26565b8355505b6001600288020188555050505b505050505050565b7f4f6e6c79206d65646963616c2073746166662063616e2063616c6c207468697360008201527f2066756e6374696f6e0000000000000000000000000000000000000000000000602082015250565b6000610e8e6029836108b0565b9150610e9982610e32565b604082019050919050565b60006020820190508181036000830152610ebd81610e81565b9050919050565b7f4e487b7100000000000000000000000000000000000000000000000000000000600052601160045260246000fd5b6000610efe826107f2565b91507fffffffffffffffffffffffffffffffffffffffffffffffffffffffffffffffff8203610f3057610f2f610ec4565b5b60018201905091905056fea2646970667358221220ca269df7ee18e0bac7b0f20c6b2b112e23d17ce40adb316740e490402f1c77d364736f6c63430008130033",
  "immutableReferences": {},
  "source": "// SPDX-License-Identifier: MIT\npragma solidity ^0.8.19;\nimport \"./UserContract.sol\";\n\n\n// Smart contract for medical-related functionalities\ncontract MedicalContract is UserContract {\n    enum TransactionStatus {Pending, Completed}\n\n    struct MedicalRecord {\n        uint256 recordID;\n        address donor;\n        address medicalStaff;\n        uint256 bloodPressure;\n        uint256 hemoglobinLevel;\n        string bloodTestResults;\n    }\n\n    mapping(uint256 => MedicalRecord) public medicalRecords;\n    uint256 public recordCounter;\n\n    modifier onlyMedicalStaff() {\n        require(users[msg.sender].userType == UserType.MedicalStaff, \"Only medical staff can call this function\");\n        _;\n    }\n\n    function completeMedicalCheckup(\n        address _donor,\n        uint256 _bloodPressure,\n        uint256 _hemoglobinLevel,\n        string memory _bloodTestResults\n    ) external onlyMedicalStaff {\n        // Implement medical checkup completion logic\n        // ...\n\n        // Increment record counter\n        recordCounter++;\n    }\n}",
  "sourcePath": "/home/temba/Desktop/blood-donation-blockchain-system/client-side/contracts/MedicalContract.sol",
  "compiler": {
    "name": "solc",
    "version": "0.8.19+commit.7dd6d404.Emscripten.clang"
  },
  "schemaVersion": "3.4.16",
  "updatedAt": "2024-02-21T13:35:55.313Z",
  "devdoc": {
    "kind": "dev",
    "methods": {},
    "version": 1
  },
  "userdoc": {
    "kind": "user",
    "methods": {},
    "version": 1
  }
}