{
  "contractName": "TransportContract",
  "abi": [
    {
      "inputs": [
        {
          "internalType": "string",
          "name": "_userName",
          "type": "string"
        },
        {
          "internalType": "enum UserContract.UserType",
          "name": "_userType",
          "type": "uint8"
        },
        {
          "internalType": "string",
          "name": "_contactNumber",
          "type": "string"
        },
        {
          "internalType": "string",
          "name": "_userAddress",
          "type": "string"
        }
      ],
      "name": "registerUser",
      "outputs": [],
      "stateMutability": "nonpayable",
      "type": "function"
    },
    {
      "inputs": [],
      "name": "transportCounter",
      "outputs": [
        {
          "internalType": "uint256",
          "name": "",
          "type": "uint256"
        }
      ],
      "stateMutability": "view",
      "type": "function"
    },
    {
      "inputs": [
        {
          "internalType": "uint256",
          "name": "",
          "type": "uint256"
        }
      ],
      "name": "transportationRecords",
      "outputs": [
        {
          "internalType": "uint256",
          "name": "recordID",
          "type": "uint256"
        },
        {
          "internalType": "address",
          "name": "transporter",
          "type": "address"
        },
        {
          "internalType": "address",
          "name": "donor",
          "type": "address"
        },
        {
          "internalType": "address",
          "name": "recipient",
          "type": "address"
        },
        {
          "internalType": "uint256",
          "name": "pickupDateTime",
          "type": "uint256"
        },
        {
          "internalType": "uint256",
          "name": "deliveryDateTime",
          "type": "uint256"
        },
        {
          "internalType": "enum TransportContract.TransportationStatus",
          "name": "status",
          "type": "uint8"
        }
      ],
      "stateMutability": "view",
      "type": "function"
    },
    {
      "inputs": [
        {
          "internalType": "address",
          "name": "",
          "type": "address"
        }
      ],
      "name": "users",
      "outputs": [
        {
          "internalType": "string",
          "name": "userName",
          "type": "string"
        },
        {
          "internalType": "enum UserContract.UserType",
          "name": "userType",
          "type": "uint8"
        },
        {
          "internalType": "string",
          "name": "contactNumber",
          "type": "string"
        },
        {
          "internalType": "string",
          "name": "userAddress",
          "type": "string"
        }
      ],
      "stateMutability": "view",
      "type": "function"
    },
    {
      "inputs": [
        {
          "internalType": "uint256",
          "name": "_recordID",
          "type": "uint256"
        }
      ],
      "name": "completeTransportation",
      "outputs": [],
      "stateMutability": "nonpayable",
      "type": "function"
    }
  ],
  "bytecode": "0x608060405234801561001057600080fd5b50610ee5806100206000396000f3fe608060405234801561001057600080fd5b50600436106100575760003560e01c80630756812f1461005c578063726a3be91461007a5780637b9df4d614610096578063a87430ba146100b2578063c02b9f5a146100e5575b600080fd5b61006461011b565b6040516100719190610579565b60405180910390f35b610094600480360381019061008f9190610713565b610121565b005b6100b060048036038101906100ab91906107fa565b61020d565b005b6100cc60048036038101906100c79190610885565b6102dc565b6040516100dc94939291906109a8565b60405180910390f35b6100ff60048036038101906100fa91906107fa565b6104b1565b6040516101129796959493929190610a59565b60405180910390f35b60025481565b604051806080016040528085815260200184600381111561014557610144610931565b5b8152602001838152602001828152506000803373ffffffffffffffffffffffffffffffffffffffff1673ffffffffffffffffffffffffffffffffffffffff16815260200190815260200160002060008201518160000190816101a79190610cd4565b5060208201518160010160006101000a81548160ff021916908360038111156101d3576101d2610931565b5b021790555060408201518160020190816101ed9190610cd4565b5060608201518160030190816102039190610cd4565b5090505050505050565b6003808111156102205761021f610931565b5b6000803373ffffffffffffffffffffffffffffffffffffffff1673ffffffffffffffffffffffffffffffffffffffff16815260200190815260200160002060010160009054906101000a900460ff16600381111561028157610280610931565b5b146102c1576040517f08c379a00000000000000000000000000000000000000000000000000000000081526004016102b890610e18565b60405180910390fd5b600260008154809291906102d490610e67565b919050555050565b60006020528060005260406000206000915090508060000180546102ff90610af7565b80601f016020809104026020016040519081016040528092919081815260200182805461032b90610af7565b80156103785780601f1061034d57610100808354040283529160200191610378565b820191906000526020600020905b81548152906001019060200180831161035b57829003601f168201915b5050505050908060010160009054906101000a900460ff16908060020180546103a090610af7565b80601f01602080910402602001604051908101604052809291908181526020018280546103cc90610af7565b80156104195780601f106103ee57610100808354040283529160200191610419565b820191906000526020600020905b8154815290600101906020018083116103fc57829003601f168201915b50505050509080600301805461042e90610af7565b80601f016020809104026020016040519081016040528092919081815260200182805461045a90610af7565b80156104a75780601f1061047c576101008083540402835291602001916104a7565b820191906000526020600020905b81548152906001019060200180831161048a57829003601f168201915b5050505050905084565b60016020528060005260406000206000915090508060000154908060010160009054906101000a900473ffffffffffffffffffffffffffffffffffffffff16908060020160009054906101000a900473ffffffffffffffffffffffffffffffffffffffff16908060030160009054906101000a900473ffffffffffffffffffffffffffffffffffffffff16908060040154908060050154908060060160009054906101000a900460ff16905087565b6000819050919050565b61057381610560565b82525050565b600060208201905061058e600083018461056a565b92915050565b6000604051905090565b600080fd5b600080fd5b600080fd5b600080fd5b6000601f19601f8301169050919050565b7f4e487b7100000000000000000000000000000000000000000000000000000000600052604160045260246000fd5b6105fb826105b2565b810181811067ffffffffffffffff8211171561061a576106196105c3565b5b80604052505050565b600061062d610594565b905061063982826105f2565b919050565b600067ffffffffffffffff821115610659576106586105c3565b5b610662826105b2565b9050602081019050919050565b82818337600083830152505050565b600061069161068c8461063e565b610623565b9050828152602081018484840111156106ad576106ac6105ad565b5b6106b884828561066f565b509392505050565b600082601f8301126106d5576106d46105a8565b5b81356106e584826020860161067e565b91505092915050565b600481106106fb57600080fd5b50565b60008135905061070d816106ee565b92915050565b6000806000806080858703121561072d5761072c61059e565b5b600085013567ffffffffffffffff81111561074b5761074a6105a3565b5b610757878288016106c0565b9450506020610768878288016106fe565b935050604085013567ffffffffffffffff811115610789576107886105a3565b5b610795878288016106c0565b925050606085013567ffffffffffffffff8111156107b6576107b56105a3565b5b6107c2878288016106c0565b91505092959194509250565b6107d781610560565b81146107e257600080fd5b50565b6000813590506107f4816107ce565b92915050565b6000602082840312156108105761080f61059e565b5b600061081e848285016107e5565b91505092915050565b600073ffffffffffffffffffffffffffffffffffffffff82169050919050565b600061085282610827565b9050919050565b61086281610847565b811461086d57600080fd5b50565b60008135905061087f81610859565b92915050565b60006020828403121561089b5761089a61059e565b5b60006108a984828501610870565b91505092915050565b600081519050919050565b600082825260208201905092915050565b60005b838110156108ec5780820151818401526020810190506108d1565b60008484015250505050565b6000610903826108b2565b61090d81856108bd565b935061091d8185602086016108ce565b610926816105b2565b840191505092915050565b7f4e487b7100000000000000000000000000000000000000000000000000000000600052602160045260246000fd5b6004811061097157610970610931565b5b50565b600081905061098282610960565b919050565b600061099282610974565b9050919050565b6109a281610987565b82525050565b600060808201905081810360008301526109c281876108f8565b90506109d16020830186610999565b81810360408301526109e381856108f8565b905081810360608301526109f781846108f8565b905095945050505050565b610a0b81610847565b82525050565b60028110610a2257610a21610931565b5b50565b6000819050610a3382610a11565b919050565b6000610a4382610a25565b9050919050565b610a5381610a38565b82525050565b600060e082019050610a6e600083018a61056a565b610a7b6020830189610a02565b610a886040830188610a02565b610a956060830187610a02565b610aa2608083018661056a565b610aaf60a083018561056a565b610abc60c0830184610a4a565b98975050505050505050565b7f4e487b7100000000000000000000000000000000000000000000000000000000600052602260045260246000fd5b60006002820490506001821680610b0f57607f821691505b602082108103610b2257610b21610ac8565b5b50919050565b60008190508160005260206000209050919050565b60006020601f8301049050919050565b600082821b905092915050565b600060088302610b8a7fffffffffffffffffffffffffffffffffffffffffffffffffffffffffffffffff82610b4d565b610b948683610b4d565b95508019841693508086168417925050509392505050565b6000819050919050565b6000610bd1610bcc610bc784610560565b610bac565b610560565b9050919050565b6000819050919050565b610beb83610bb6565b610bff610bf782610bd8565b848454610b5a565b825550505050565b600090565b610c14610c07565b610c1f818484610be2565b505050565b5b81811015610c4357610c38600082610c0c565b600181019050610c25565b5050565b601f821115610c8857610c5981610b28565b610c6284610b3d565b81016020851015610c71578190505b610c85610c7d85610b3d565b830182610c24565b50505b505050565b600082821c905092915050565b6000610cab60001984600802610c8d565b1980831691505092915050565b6000610cc48383610c9a565b9150826002028217905092915050565b610cdd826108b2565b67ffffffffffffffff811115610cf657610cf56105c3565b5b610d008254610af7565b610d0b828285610c47565b600060209050601f831160018114610d3e5760008415610d2c578287015190505b610d368582610cb8565b865550610d9e565b601f198416610d4c86610b28565b60005b82811015610d7457848901518255600182019150602085019450602081019050610d4f565b86831015610d915784890151610d8d601f891682610c9a565b8355505b6001600288020188555050505b505050505050565b7f4f6e6c79207472616e73706f72746572732063616e2063616c6c20746869732060008201527f66756e6374696f6e000000000000000000000000000000000000000000000000602082015250565b6000610e026028836108bd565b9150610e0d82610da6565b604082019050919050565b60006020820190508181036000830152610e3181610df5565b9050919050565b7f4e487b7100000000000000000000000000000000000000000000000000000000600052601160045260246000fd5b6000610e7282610560565b91507fffffffffffffffffffffffffffffffffffffffffffffffffffffffffffffffff8203610ea457610ea3610e38565b5b60018201905091905056fea26469706673582212208c71bae5e56a651ec813f609c2b5045ce26fba6dbda56c42ba3acade4b8fe64864736f6c63430008130033",
  "immutableReferences": {},
  "source": "// SPDX-License-Identifier: MIT\npragma solidity ^0.8.19;\nimport \"./UserContract.sol\";\n\n// Smart contract for transportation-related functionalities\ncontract TransportContract is UserContract {\n    enum TransportationStatus {InTransit, Delivered}\n\n    struct TransportationRecord {\n        uint256 recordID;\n        address transporter;\n        address donor;\n        address recipient;\n        uint256 pickupDateTime;\n        uint256 deliveryDateTime;\n        TransportationStatus status;\n    }\n\n    mapping(uint256 => TransportationRecord) public transportationRecords;\n    uint256 public transportCounter;\n\n    modifier onlyTransporter() {\n        require(users[msg.sender].userType == UserType.Transporter, \"Only transporters can call this function\");\n        _;\n    }\n\n    function completeTransportation(\n        uint256 _recordID\n    ) external onlyTransporter {\n        // Implement transportation completion logic\n        // ...\n\n        // Increment transport counter\n        transportCounter++;\n    }\n}",
  "sourcePath": "/home/temba/Desktop/blood-donation-blockchain-system/client-side/contracts/TransportContract.sol",
  "compiler": {
    "name": "solc",
    "version": "0.8.19+commit.7dd6d404.Emscripten.clang"
  },
  "schemaVersion": "3.4.16",
  "updatedAt": "2024-02-21T13:35:55.323Z",
  "devdoc": {
    "kind": "dev",
    "methods": {},
    "version": 1
  },
  "userdoc": {
    "kind": "user",
    "methods": {},
    "version": 1
  }
}