{
  "contractName": "UserContract",
  "abi": [
    {
      "inputs": [
        {
          "internalType": "address",
          "name": "",
          "type": "address"
        }
      ],
      "name": "users",
      "outputs": [
        {
          "internalType": "string",
          "name": "userName",
          "type": "string"
        },
        {
          "internalType": "enum UserContract.UserType",
          "name": "userType",
          "type": "uint8"
        },
        {
          "internalType": "string",
          "name": "contactNumber",
          "type": "string"
        },
        {
          "internalType": "string",
          "name": "userAddress",
          "type": "string"
        }
      ],
      "stateMutability": "view",
      "type": "function"
    },
    {
      "inputs": [
        {
          "internalType": "string",
          "name": "_userName",
          "type": "string"
        },
        {
          "internalType": "enum UserContract.UserType",
          "name": "_userType",
          "type": "uint8"
        },
        {
          "internalType": "string",
          "name": "_contactNumber",
          "type": "string"
        },
        {
          "internalType": "string",
          "name": "_userAddress",
          "type": "string"
        }
      ],
      "name": "registerUser",
      "outputs": [],
      "stateMutability": "nonpayable",
      "type": "function"
    }
  ],
  "bytecode": "0x608060405234801561001057600080fd5b50610a7e806100206000396000f3fe608060405234801561001057600080fd5b50600436106100365760003560e01c8063726a3be91461003b578063a87430ba14610057575b600080fd5b610055600480360381019061005091906104ca565b61008a565b005b610071600480360381019061006c91906105e3565b610176565b6040516100819493929190610706565b60405180910390f35b60405180608001604052808581526020018460038111156100ae576100ad61068f565b5b8152602001838152602001828152506000803373ffffffffffffffffffffffffffffffffffffffff1673ffffffffffffffffffffffffffffffffffffffff16815260200190815260200160002060008201518160000190816101109190610976565b5060208201518160010160006101000a81548160ff0219169083600381111561013c5761013b61068f565b5b021790555060408201518160020190816101569190610976565b50606082015181600301908161016c9190610976565b5090505050505050565b60006020528060005260406000206000915090508060000180546101999061078f565b80601f01602080910402602001604051908101604052809291908181526020018280546101c59061078f565b80156102125780601f106101e757610100808354040283529160200191610212565b820191906000526020600020905b8154815290600101906020018083116101f557829003601f168201915b5050505050908060010160009054906101000a900460ff169080600201805461023a9061078f565b80601f01602080910402602001604051908101604052809291908181526020018280546102669061078f565b80156102b35780601f10610288576101008083540402835291602001916102b3565b820191906000526020600020905b81548152906001019060200180831161029657829003601f168201915b5050505050908060030180546102c89061078f565b80601f01602080910402602001604051908101604052809291908181526020018280546102f49061078f565b80156103415780601f1061031657610100808354040283529160200191610341565b820191906000526020600020905b81548152906001019060200180831161032457829003601f168201915b5050505050905084565b6000604051905090565b600080fd5b600080fd5b600080fd5b600080fd5b6000601f19601f8301169050919050565b7f4e487b7100000000000000000000000000000000000000000000000000000000600052604160045260246000fd5b6103b282610369565b810181811067ffffffffffffffff821117156103d1576103d061037a565b5b80604052505050565b60006103e461034b565b90506103f082826103a9565b919050565b600067ffffffffffffffff8211156104105761040f61037a565b5b61041982610369565b9050602081019050919050565b82818337600083830152505050565b6000610448610443846103f5565b6103da565b90508281526020810184848401111561046457610463610364565b5b61046f848285610426565b509392505050565b600082601f83011261048c5761048b61035f565b5b813561049c848260208601610435565b91505092915050565b600481106104b257600080fd5b50565b6000813590506104c4816104a5565b92915050565b600080600080608085870312156104e4576104e3610355565b5b600085013567ffffffffffffffff8111156105025761050161035a565b5b61050e87828801610477565b945050602061051f878288016104b5565b935050604085013567ffffffffffffffff8111156105405761053f61035a565b5b61054c87828801610477565b925050606085013567ffffffffffffffff81111561056d5761056c61035a565b5b61057987828801610477565b91505092959194509250565b600073ffffffffffffffffffffffffffffffffffffffff82169050919050565b60006105b082610585565b9050919050565b6105c0816105a5565b81146105cb57600080fd5b50565b6000813590506105dd816105b7565b92915050565b6000602082840312156105f9576105f8610355565b5b6000610607848285016105ce565b91505092915050565b600081519050919050565b600082825260208201905092915050565b60005b8381101561064a57808201518184015260208101905061062f565b60008484015250505050565b600061066182610610565b61066b818561061b565b935061067b81856020860161062c565b61068481610369565b840191505092915050565b7f4e487b7100000000000000000000000000000000000000000000000000000000600052602160045260246000fd5b600481106106cf576106ce61068f565b5b50565b60008190506106e0826106be565b919050565b60006106f0826106d2565b9050919050565b610700816106e5565b82525050565b600060808201905081810360008301526107208187610656565b905061072f60208301866106f7565b81810360408301526107418185610656565b905081810360608301526107558184610656565b905095945050505050565b7f4e487b7100000000000000000000000000000000000000000000000000000000600052602260045260246000fd5b600060028204905060018216806107a757607f821691505b6020821081036107ba576107b9610760565b5b50919050565b60008190508160005260206000209050919050565b60006020601f8301049050919050565b600082821b905092915050565b6000600883026108227fffffffffffffffffffffffffffffffffffffffffffffffffffffffffffffffff826107e5565b61082c86836107e5565b95508019841693508086168417925050509392505050565b6000819050919050565b6000819050919050565b600061087361086e61086984610844565b61084e565b610844565b9050919050565b6000819050919050565b61088d83610858565b6108a16108998261087a565b8484546107f2565b825550505050565b600090565b6108b66108a9565b6108c1818484610884565b505050565b5b818110156108e5576108da6000826108ae565b6001810190506108c7565b5050565b601f82111561092a576108fb816107c0565b610904846107d5565b81016020851015610913578190505b61092761091f856107d5565b8301826108c6565b50505b505050565b600082821c905092915050565b600061094d6000198460080261092f565b1980831691505092915050565b6000610966838361093c565b9150826002028217905092915050565b61097f82610610565b67ffffffffffffffff8111156109985761099761037a565b5b6109a2825461078f565b6109ad8282856108e9565b600060209050601f8311600181146109e057600084156109ce578287015190505b6109d8858261095a565b865550610a40565b601f1984166109ee866107c0565b60005b82811015610a16578489015182556001820191506020850194506020810190506109f1565b86831015610a335784890151610a2f601f89168261093c565b8355505b6001600288020188555050505b50505050505056fea2646970667358221220bc75953ec71fe80f28cc9e824114d379b9d1175fff681c399eb1aea9ff88699364736f6c63430008130033",
  "immutableReferences": {},
  "source": "// SPDX-License-Identifier: MIT\npragma solidity ^0.8.19;\n\n// Smart contract for user-related functionalities\ncontract UserContract {\n    enum UserType {Donor, Recipient, MedicalStaff, Transporter}\n\n    struct User {\n        string userName;\n        UserType userType;\n        string contactNumber;\n        string userAddress;\n    }\n\n    mapping(address => User) public users;\n\n    modifier onlyUser() {\n        require(users[msg.sender].userType != UserType(0), \"User not registered\");\n        _;\n    }\n\n    function registerUser(\n        string memory _userName,\n        UserType _userType,\n        string memory _contactNumber,\n        string memory _userAddress\n    ) external {\n        users[msg.sender] = User({\n            userName: _userName,\n            userType: _userType,\n            contactNumber: _contactNumber,\n            userAddress: _userAddress\n        });\n    }\n}",
  "sourcePath": "/home/temba/Desktop/blood-donation-blockchain-system/client-side/contracts/UserContract.sol",
  "compiler": {
    "name": "solc",
    "version": "0.8.19+commit.7dd6d404.Emscripten.clang"
  },
  "schemaVersion": "3.4.16",
  "updatedAt": "2024-02-21T13:35:55.356Z",
  "devdoc": {
    "kind": "dev",
    "methods": {},
    "version": 1
  },
  "userdoc": {
    "kind": "user",
    "methods": {},
    "version": 1
  }
}